{
  "abi": [
    {
      "anonymous": false,
      "inputs": [
        {
          "indexed": false,
          "internalType": "address",
          "name": "account",
          "type": "address"
        },
        {
          "indexed": false,
          "internalType": "uint256",
          "name": "amount",
          "type": "uint256"
        }
      ],
      "name": "StakeGlp",
      "type": "event"
    },
    {
      "anonymous": false,
      "inputs": [
        {
          "indexed": false,
          "internalType": "address",
          "name": "account",
          "type": "address"
        },
        {
          "indexed": false,
          "internalType": "uint256",
          "name": "amount",
          "type": "uint256"
        }
      ],
      "name": "StakeGmx",
      "type": "event"
    },
    {
      "anonymous": false,
      "inputs": [
        {
          "indexed": false,
          "internalType": "address",
          "name": "account",
          "type": "address"
        },
        {
          "indexed": false,
          "internalType": "uint256",
          "name": "amount",
          "type": "uint256"
        }
      ],
      "name": "UnstakeGlp",
      "type": "event"
    },
    {
      "anonymous": false,
      "inputs": [
        {
          "indexed": false,
          "internalType": "address",
          "name": "account",
          "type": "address"
        },
        {
          "indexed": false,
          "internalType": "uint256",
          "name": "amount",
          "type": "uint256"
        }
      ],
      "name": "UnstakeGmx",
      "type": "event"
    },
    {
      "inputs": [
        {
          "internalType": "address[]",
          "name": "_accounts",
          "type": "address[]"
        }
      ],
      "name": "batchCompoundForAccounts",
      "outputs": [],
      "stateMutability": "nonpayable",
      "type": "function"
    },
    {
      "inputs": [
        {
          "internalType": "address[]",
          "name": "_accounts",
          "type": "address[]"
        },
        {
          "internalType": "uint256[]",
          "name": "_amounts",
          "type": "uint256[]"
        }
      ],
      "name": "batchStakeGmxForAccount",
      "outputs": [],
      "stateMutability": "nonpayable",
      "type": "function"
    },
    {
      "inputs": [],
      "name": "bnGmx",
      "outputs": [
        {
          "internalType": "address",
          "name": "",
          "type": "address"
        }
      ],
      "stateMutability": "view",
      "type": "function"
    },
    {
      "inputs": [],
      "name": "bonusGmxTracker",
      "outputs": [
        {
          "internalType": "address",
          "name": "",
          "type": "address"
        }
      ],
      "stateMutability": "view",
      "type": "function"
    },
    {
      "inputs": [],
      "name": "claim",
      "outputs": [],
      "stateMutability": "nonpayable",
      "type": "function"
    },
    {
      "inputs": [],
      "name": "claimEsGmx",
      "outputs": [],
      "stateMutability": "nonpayable",
      "type": "function"
    },
    {
      "inputs": [],
      "name": "claimFees",
      "outputs": [],
      "stateMutability": "nonpayable",
      "type": "function"
    },
    {
      "inputs": [],
      "name": "compound",
      "outputs": [],
      "stateMutability": "nonpayable",
      "type": "function"
    },
    {
      "inputs": [
        {
          "internalType": "address",
          "name": "_account",
          "type": "address"
        }
      ],
      "name": "compoundForAccount",
      "outputs": [],
      "stateMutability": "nonpayable",
      "type": "function"
    },
    {
      "inputs": [],
      "name": "esGmx",
      "outputs": [
        {
          "internalType": "address",
          "name": "",
          "type": "address"
        }
      ],
      "stateMutability": "view",
      "type": "function"
    },
    {
      "inputs": [],
      "name": "feeGlpTracker",
      "outputs": [
        {
          "internalType": "address",
          "name": "",
          "type": "address"
        }
      ],
      "stateMutability": "view",
      "type": "function"
    },
    {
      "inputs": [],
      "name": "feeGmxTracker",
      "outputs": [
        {
          "internalType": "address",
          "name": "",
          "type": "address"
        }
      ],
      "stateMutability": "view",
      "type": "function"
    },
    {
      "inputs": [],
      "name": "glp",
      "outputs": [
        {
          "internalType": "address",
          "name": "",
          "type": "address"
        }
      ],
      "stateMutability": "view",
      "type": "function"
    },
    {
      "inputs": [],
      "name": "glpManager",
      "outputs": [
        {
          "internalType": "address",
          "name": "",
          "type": "address"
        }
      ],
      "stateMutability": "view",
      "type": "function"
    },
    {
      "inputs": [],
      "name": "gmx",
      "outputs": [
        {
          "internalType": "address",
          "name": "",
          "type": "address"
        }
      ],
      "stateMutability": "view",
      "type": "function"
    },
    {
      "inputs": [],
      "name": "gov",
      "outputs": [
        {
          "internalType": "address",
          "name": "",
          "type": "address"
        }
      ],
      "stateMutability": "view",
      "type": "function"
    },
    {
      "inputs": [
        {
          "internalType": "address",
          "name": "_weth",
          "type": "address"
        },
        {
          "internalType": "address",
          "name": "_gmx",
          "type": "address"
        },
        {
          "internalType": "address",
          "name": "_esGmx",
          "type": "address"
        },
        {
          "internalType": "address",
          "name": "_bnGmx",
          "type": "address"
        },
        {
          "internalType": "address",
          "name": "_glp",
          "type": "address"
        },
        {
          "internalType": "address",
          "name": "_stakedGmxTracker",
          "type": "address"
        },
        {
          "internalType": "address",
          "name": "_bonusGmxTracker",
          "type": "address"
        },
        {
          "internalType": "address",
          "name": "_feeGmxTracker",
          "type": "address"
        },
        {
          "internalType": "address",
          "name": "_feeGlpTracker",
          "type": "address"
        },
        {
          "internalType": "address",
          "name": "_stakedGlpTracker",
          "type": "address"
        },
        {
          "internalType": "address",
          "name": "_glpManager",
          "type": "address"
        }
      ],
      "name": "initialize",
      "outputs": [],
      "stateMutability": "nonpayable",
      "type": "function"
    },
    {
      "inputs": [],
      "name": "isInitialized",
      "outputs": [
        {
          "internalType": "bool",
          "name": "",
          "type": "bool"
        }
      ],
      "stateMutability": "view",
      "type": "function"
    },
    {
      "inputs": [
        {
          "internalType": "address",
          "name": "_token",
          "type": "address"
        },
        {
          "internalType": "uint256",
          "name": "_amount",
          "type": "uint256"
        },
        {
          "internalType": "uint256",
          "name": "_minUsdg",
          "type": "uint256"
        },
        {
          "internalType": "uint256",
          "name": "_minGlp",
          "type": "uint256"
        }
      ],
      "name": "mintAndStakeGlp",
      "outputs": [
        {
          "internalType": "uint256",
          "name": "",
          "type": "uint256"
        }
      ],
      "stateMutability": "nonpayable",
      "type": "function"
    },
    {
      "inputs": [
        {
          "internalType": "uint256",
          "name": "_minUsdg",
          "type": "uint256"
        },
        {
          "internalType": "uint256",
          "name": "_minGlp",
          "type": "uint256"
        }
      ],
      "name": "mintAndStakeGlpETH",
      "outputs": [
        {
          "internalType": "uint256",
          "name": "",
          "type": "uint256"
        }
      ],
      "stateMutability": "payable",
      "type": "function"
    },
    {
      "inputs": [
        {
          "internalType": "address",
          "name": "_gov",
          "type": "address"
        }
      ],
      "name": "setGov",
      "outputs": [],
      "stateMutability": "nonpayable",
      "type": "function"
    },
    {
      "inputs": [
        {
          "internalType": "uint256",
          "name": "_amount",
          "type": "uint256"
        }
      ],
      "name": "stakeEsGmx",
      "outputs": [],
      "stateMutability": "nonpayable",
      "type": "function"
    },
    {
      "inputs": [
        {
          "internalType": "uint256",
          "name": "_amount",
          "type": "uint256"
        }
      ],
      "name": "stakeGmx",
      "outputs": [],
      "stateMutability": "nonpayable",
      "type": "function"
    },
    {
      "inputs": [
        {
          "internalType": "address",
          "name": "_account",
          "type": "address"
        },
        {
          "internalType": "uint256",
          "name": "_amount",
          "type": "uint256"
        }
      ],
      "name": "stakeGmxForAccount",
      "outputs": [],
      "stateMutability": "nonpayable",
      "type": "function"
    },
    {
      "inputs": [],
      "name": "stakedGlpTracker",
      "outputs": [
        {
          "internalType": "address",
          "name": "",
          "type": "address"
        }
      ],
      "stateMutability": "view",
      "type": "function"
    },
    {
      "inputs": [],
      "name": "stakedGmxTracker",
      "outputs": [
        {
          "internalType": "address",
          "name": "",
          "type": "address"
        }
      ],
      "stateMutability": "view",
      "type": "function"
    },
    {
      "inputs": [
        {
          "internalType": "address",
          "name": "_tokenOut",
          "type": "address"
        },
        {
          "internalType": "uint256",
          "name": "_glpAmount",
          "type": "uint256"
        },
        {
          "internalType": "uint256",
          "name": "_minOut",
          "type": "uint256"
        },
        {
          "internalType": "address",
          "name": "_receiver",
          "type": "address"
        }
      ],
      "name": "unstakeAndRedeemGlp",
      "outputs": [
        {
          "internalType": "uint256",
          "name": "",
          "type": "uint256"
        }
      ],
      "stateMutability": "nonpayable",
      "type": "function"
    },
    {
      "inputs": [
        {
          "internalType": "uint256",
          "name": "_glpAmount",
          "type": "uint256"
        },
        {
          "internalType": "uint256",
          "name": "_minOut",
          "type": "uint256"
        },
        {
          "internalType": "address payable",
          "name": "_receiver",
          "type": "address"
        }
      ],
      "name": "unstakeAndRedeemGlpETH",
      "outputs": [
        {
          "internalType": "uint256",
          "name": "",
          "type": "uint256"
        }
      ],
      "stateMutability": "nonpayable",
      "type": "function"
    },
    {
      "inputs": [
        {
          "internalType": "uint256",
          "name": "_amount",
          "type": "uint256"
        }
      ],
      "name": "unstakeEsGmx",
      "outputs": [],
      "stateMutability": "nonpayable",
      "type": "function"
    },
    {
      "inputs": [
        {
          "internalType": "uint256",
          "name": "_amount",
          "type": "uint256"
        }
      ],
      "name": "unstakeGmx",
      "outputs": [],
      "stateMutability": "nonpayable",
      "type": "function"
    },
    {
      "inputs": [],
      "name": "weth",
      "outputs": [
        {
          "internalType": "address",
          "name": "",
          "type": "address"
        }
      ],
      "stateMutability": "view",
      "type": "function"
    },
    {
      "inputs": [
        {
          "internalType": "address",
          "name": "_token",
          "type": "address"
        },
        {
          "internalType": "address",
          "name": "_account",
          "type": "address"
        },
        {
          "internalType": "uint256",
          "name": "_amount",
          "type": "uint256"
        }
      ],
      "name": "withdrawToken",
      "outputs": [],
      "stateMutability": "nonpayable",
      "type": "function"
    },
    {
      "stateMutability": "payable",
      "type": "receive"
    }
  ],
  "bytecode": {
    "object": "0x608060405234801561001057600080fd5b506001600081905580546001600160a01b03191633179055613142806100376000396000f3fe6080604052600436106101e75760003560e01c80635da4b8dd11610102578063cfad57a211610095578063ef8c599411610064578063ef8c599414610859578063f3daeacc14610883578063f69e2046146108ad578063fa6db1bc146108c257610246565b8063cfad57a2146107e7578063d294f0931461081a578063e102f5641461082f578063e1c363b71461084457610246565b806376902b83116100d157806376902b83146106f557806378a207ee1461077e578063abb5e5e214610793578063af394d00146107d257610246565b80635da4b8dd146106685780635fe3945f146106a157806364f64467146106b65780636a192a78146106e057610246565b80632a9f40831161017a5780633fc8cef3116101495780633fc8cef3146106065780634e71d92d1461061b57806351c3e3b41461063057806353a8aa031461064557610246565b80632a9f40831461055057806331e67c7114610583578063364e231114610598578063392e53cd146105dd57610246565b80630f3aa554116101b65780630f3aa5541461041d57806312d43a51146104765780631af276a61461048b5780631fcd60e51461053b57610246565b806301e336671461024b578063078580d21461028e5780630ce4018a146102b85780630db79e52146102e957610246565b36610246576002546001600160a01b03163314610244576040805162461bcd60e51b81526020600482015260166024820152752937baba32b91d1034b73b30b634b21039b2b73232b960511b604482015290519081900360640190fd5b005b600080fd5b34801561025757600080fd5b506102446004803603606081101561026e57600080fd5b506001600160a01b038135811691602081013590911690604001356108d7565b34801561029a57600080fd5b50610244600480360360208110156102b157600080fd5b503561093d565b3480156102c457600080fd5b506102cd6109a8565b604080516001600160a01b039092168252519081900360200190f35b3480156102f557600080fd5b506102446004803603604081101561030c57600080fd5b81019060208101813564010000000081111561032757600080fd5b82018360208201111561033957600080fd5b8035906020019184602083028401116401000000008311171561035b57600080fd5b91908080602002602001604051908101604052809392919081815260200183836020028082843760009201919091525092959493602081019350359150506401000000008111156103ab57600080fd5b8201836020820111156103bd57600080fd5b803590602001918460208302840111640100000000831117156103df57600080fd5b9190808060200260200160405190810160405280939291908181526020018383602002808284376000920191909152509295506109b7945050505050565b34801561042957600080fd5b506104646004803603608081101561044057600080fd5b506001600160a01b0381358116916020810135916040820135916060013516610aac565b60408051918252519081900360200190f35b34801561048257600080fd5b506102cd610d40565b34801561049757600080fd5b50610244600480360360208110156104ae57600080fd5b8101906020810181356401000000008111156104c957600080fd5b8201836020820111156104db57600080fd5b803590602001918460208302840111640100000000831117156104fd57600080fd5b919080806020026020016040519081016040528093929190818152602001838360200280828437600092019190915250929550610d4f945050505050565b34801561054757600080fd5b506102cd610e20565b34801561055c57600080fd5b506102446004803603602081101561057357600080fd5b50356001600160a01b0316610e2f565b34801561058f57600080fd5b506102cd610ed0565b3480156105a457600080fd5b50610464600480360360808110156105bb57600080fd5b506001600160a01b038135169060208101359060408101359060600135610edf565b3480156105e957600080fd5b506105f2611171565b604080519115158252519081900360200190f35b34801561061257600080fd5b506102cd611181565b34801561062757600080fd5b50610244611190565b34801561063c57600080fd5b506102cd6113ef565b6104646004803603604081101561065b57600080fd5b50803590602001356113fe565b34801561067457600080fd5b506102446004803603604081101561068b57600080fd5b506001600160a01b03813516906020013561177b565b3480156106ad57600080fd5b5061024461182d565b3480156106c257600080fd5b50610244600480360360208110156106d957600080fd5b50356118d2565b3480156106ec57600080fd5b506102cd611935565b34801561070157600080fd5b50610244600480360361016081101561071957600080fd5b506001600160a01b038135811691602081013582169160408201358116916060810135821691608082013581169160a081013582169160c082013581169160e08101358216916101008201358116916101208101358216916101409091013516611944565b34801561078a57600080fd5b506102cd611aab565b34801561079f57600080fd5b50610464600480360360608110156107b657600080fd5b50803590602081013590604001356001600160a01b0316611aba565b3480156107de57600080fd5b506102cd611dc7565b3480156107f357600080fd5b506102446004803603602081101561080a57600080fd5b50356001600160a01b0316611dd6565b34801561082657600080fd5b50610244611ea0565b34801561083b57600080fd5b506102cd611fc7565b34801561085057600080fd5b506102cd611fd6565b34801561086557600080fd5b506102446004803603602081101561087c57600080fd5b5035611fe5565b34801561088f57600080fd5b50610244600480360360208110156108a657600080fd5b503561204a565b3480156108b957600080fd5b506102446120af565b3480156108ce57600080fd5b506102cd61210a565b6001546001600160a01b03163314610924576040805162461bcd60e51b81526020600482015260156024820152600080516020613021833981519152604482015290519081900360640190fd5b6109386001600160a01b0384168383612119565b505050565b60026000541415610983576040805162461bcd60e51b815260206004820152601f6024820152600080516020613001833981519152604482015290519081900360640190fd5b60026000556003546109a09033906001600160a01b03168361216b565b506001600055565b6007546001600160a01b031681565b600260005414156109fd576040805162461bcd60e51b815260206004820152601f6024820152600080516020613001833981519152604482015290519081900360640190fd5b60026000556001546001600160a01b03163314610a4f576040805162461bcd60e51b81526020600482015260156024820152600080516020613021833981519152604482015290519081900360640190fd5b6003546001600160a01b031660005b8351811015610aa157610a9933858381518110610a7757fe5b602002602001015184868581518110610a8c57fe5b60200260200101516126b1565b600101610a5e565b505060016000555050565b600060026000541415610af4576040805162461bcd60e51b815260206004820152601f6024820152600080516020613001833981519152604482015290519081900360640190fd5b600260005583610b4b576040805162461bcd60e51b815260206004820181905260248201527f526577617264526f757465723a20696e76616c6964205f676c70416d6f756e74604482015290519081900360640190fd5b600a54600b546040805163098bf59d60e01b815233600482018190526001600160a01b039384166024830152604482018990526064820181905291519193929092169163098bf59d91608480830192600092919082900301818387803b158015610bb457600080fd5b505af1158015610bc8573d6000803e3d6000fd5b5050600b546006546040805163098bf59d60e01b81526001600160a01b03878116600483018190529381166024830152604482018c90526064820193909352905191909216935063098bf59d9250608480830192600092919082900301818387803b158015610c3657600080fd5b505af1158015610c4a573d6000803e3d6000fd5b5050600c54604080516371d597ad60e01b81526001600160a01b0386811660048301528b81166024830152604482018b9052606482018a905288811660848301529151600095509190921692506371d597ad9160a48082019260209290919082900301818787803b158015610cbe57600080fd5b505af1158015610cd2573d6000803e3d6000fd5b505050506040513d6020811015610ce857600080fd5b5051604080516001600160a01b03851681526020810189905281519293507f1cb6202519b6b6c72ba5ed11e2c3f53af3cea010f96bfc705584e53e75cf034c929081900390910190a160016000559695505050505050565b6001546001600160a01b031681565b60026000541415610d95576040805162461bcd60e51b815260206004820152601f6024820152600080516020613001833981519152604482015290519081900360640190fd5b60026000556001546001600160a01b03163314610de7576040805162461bcd60e51b81526020600482015260156024820152600080516020613021833981519152604482015290519081900360640190fd5b60005b8151811015610e1757610e0f828281518110610e0257fe5b60200260200101516128cb565b600101610dea565b50506001600055565b6008546001600160a01b031681565b60026000541415610e75576040805162461bcd60e51b815260206004820152601f6024820152600080516020613001833981519152604482015290519081900360640190fd5b60026000556001546001600160a01b03163314610ec7576040805162461bcd60e51b81526020600482015260156024820152600080516020613021833981519152604482015290519081900360640190fd5b6109a0816128cb565b6003546001600160a01b031681565b600060026000541415610f27576040805162461bcd60e51b815260206004820152601f6024820152600080516020613001833981519152604482015290519081900360640190fd5b600260005583610f7e576040805162461bcd60e51b815260206004820152601d60248201527f526577617264526f757465723a20696e76616c6964205f616d6f756e74000000604482015290519081900360640190fd5b600c54604080516317eb2a1560e01b81523360048201819052602482018190526001600160a01b038981166044840152606483018990526084830188905260a483018790529251909360009316916317eb2a159160c480830192602092919082900301818787803b158015610ff257600080fd5b505af1158015611006573d6000803e3d6000fd5b505050506040513d602081101561101c57600080fd5b5051600b5460065460408051631e42d69b60e21b81526001600160a01b03878116600483018190526024830152928316604482015260648101859052905193945091169163790b5a6c9160848082019260009290919082900301818387803b15801561108757600080fd5b505af115801561109b573d6000803e3d6000fd5b5050600a54600b5460408051631e42d69b60e21b81526001600160a01b03888116600483018190526024830152928316604482015260648101879052905191909216935063790b5a6c9250608480830192600092919082900301818387803b15801561110657600080fd5b505af115801561111a573d6000803e3d6000fd5b5050604080516001600160a01b03861681526020810185905281517fa4725d47fa458d9222498e4d63f34527cf7318c1506f89d9092b35fdbcb64f3a9450908190039091019150a160016000559695505050505050565b600154600160a01b900460ff1681565b6002546001600160a01b031681565b600260005414156111d6576040805162461bcd60e51b815260206004820152601f6024820152600080516020613001833981519152604482015290519081900360640190fd5b60026000908155600954604080516309f4173d60e11b8152336004820181905260248201819052915191936001600160a01b03909316926313e82e7a926044808401936020939083900390910190829087803b15801561123557600080fd5b505af1158015611249573d6000803e3d6000fd5b505050506040513d602081101561125f57600080fd5b5050600b54604080516309f4173d60e11b81526001600160a01b03848116600483018190526024830152915191909216916313e82e7a9160448083019260209291908290030181600087803b1580156112b757600080fd5b505af11580156112cb573d6000803e3d6000fd5b505050506040513d60208110156112e157600080fd5b5050600754604080516309f4173d60e11b81526001600160a01b03848116600483018190526024830152915191909216916313e82e7a9160448083019260209291908290030181600087803b15801561133957600080fd5b505af115801561134d573d6000803e3d6000fd5b505050506040513d602081101561136357600080fd5b5050600a54604080516309f4173d60e11b81526001600160a01b03848116600483018190526024830152915191909216916313e82e7a9160448083019260209291908290030181600087803b1580156113bb57600080fd5b505af11580156113cf573d6000803e3d6000fd5b505050506040513d60208110156113e557600080fd5b5050600160005550565b6009546001600160a01b031681565b600060026000541415611446576040805162461bcd60e51b815260206004820152601f6024820152600080516020613001833981519152604482015290519081900360640190fd5b60026000553461149d576040805162461bcd60e51b815260206004820152601f60248201527f526577617264526f757465723a20696e76616c6964206d73672e76616c756500604482015290519081900360640190fd5b600260009054906101000a90046001600160a01b03166001600160a01b031663d0e30db0346040518263ffffffff1660e01b81526004016000604051808303818588803b1580156114ed57600080fd5b505af1158015611501573d6000803e3d6000fd5b5050600254600c546040805163095ea7b360e01b81526001600160a01b039283166004820152346024820152905191909216945063095ea7b39350604480830193506020928290030181600087803b15801561155c57600080fd5b505af1158015611570573d6000803e3d6000fd5b505050506040513d602081101561158657600080fd5b5050600c54600254604080516317eb2a1560e01b815230600482015233602482018190526001600160a01b0393841660448301523460648301526084820188905260a482018790529151919360009316916317eb2a159160c48082019260209290919082900301818787803b1580156115fe57600080fd5b505af1158015611612573d6000803e3d6000fd5b505050506040513d602081101561162857600080fd5b5051600b5460065460408051631e42d69b60e21b81526001600160a01b03878116600483018190526024830152928316604482015260648101859052905193945091169163790b5a6c9160848082019260009290919082900301818387803b15801561169357600080fd5b505af11580156116a7573d6000803e3d6000fd5b5050600a54600b5460408051631e42d69b60e21b81526001600160a01b03888116600483018190526024830152928316604482015260648101879052905191909216935063790b5a6c9250608480830192600092919082900301818387803b15801561171257600080fd5b505af1158015611726573d6000803e3d6000fd5b5050604080516001600160a01b03861681526020810185905281517fa4725d47fa458d9222498e4d63f34527cf7318c1506f89d9092b35fdbcb64f3a9450908190039091019150a16001600055949350505050565b600260005414156117c1576040805162461bcd60e51b815260206004820152601f6024820152600080516020613001833981519152604482015290519081900360640190fd5b60026000556001546001600160a01b03163314611813576040805162461bcd60e51b81526020600482015260156024820152600080516020613021833981519152604482015290519081900360640190fd5b600354610e1790339084906001600160a01b0316846126b1565b60026000541415611873576040805162461bcd60e51b815260206004820152601f6024820152600080516020613001833981519152604482015290519081900360640190fd5b60026000908155600754604080516309f4173d60e11b8152336004820181905260248201819052915191936001600160a01b03909316926313e82e7a926044808401936020939083900390910190829087803b15801561133957600080fd5b60026000541415611918576040805162461bcd60e51b815260206004820152601f6024820152600080516020613001833981519152604482015290519081900360640190fd5b60026000556004546109a09033906001600160a01b03168361216b565b6004546001600160a01b031681565b6001546001600160a01b03163314611991576040805162461bcd60e51b81526020600482015260156024820152600080516020613021833981519152604482015290519081900360640190fd5b600154600160a01b900460ff16156119da5760405162461bcd60e51b815260040180806020018281038252602181526020018061307b6021913960400191505060405180910390fd5b60018054600160a01b60ff60a01b19909116179055600280546001600160a01b03199081166001600160a01b039d8e16179091556003805482169b8d169b909b17909a55600480548b16998c1699909917909855600580548a16978b1697909717909655600680548916958a169590951790945560078054881693891693909317909255600880548716918816919091179055600980548616918716919091179055600b80548516918616919091179055600a80548416918516919091179055600c80549092169216919091179055565b6006546001600160a01b031681565b600060026000541415611b02576040805162461bcd60e51b815260206004820152601f6024820152600080516020613001833981519152604482015290519081900360640190fd5b600260005583611b59576040805162461bcd60e51b815260206004820181905260248201527f526577617264526f757465723a20696e76616c6964205f676c70416d6f756e74604482015290519081900360640190fd5b600a54600b546040805163098bf59d60e01b815233600482018190526001600160a01b039384166024830152604482018990526064820181905291519193929092169163098bf59d91608480830192600092919082900301818387803b158015611bc257600080fd5b505af1158015611bd6573d6000803e3d6000fd5b5050600b546006546040805163098bf59d60e01b81526001600160a01b03878116600483018190529381166024830152604482018c90526064820193909352905191909216935063098bf59d9250608480830192600092919082900301818387803b158015611c4457600080fd5b505af1158015611c58573d6000803e3d6000fd5b5050600c54600254604080516371d597ad60e01b81526001600160a01b0387811660048301529283166024820152604481018b9052606481018a90523060848201529051600095509190921692506371d597ad9160a48082019260209290919082900301818787803b158015611ccd57600080fd5b505af1158015611ce1573d6000803e3d6000fd5b505050506040513d6020811015611cf757600080fd5b505160025460408051632e1a7d4d60e01b81526004810184905290519293506001600160a01b0390911691632e1a7d4d9160248082019260009290919082900301818387803b158015611d4957600080fd5b505af1158015611d5d573d6000803e3d6000fd5b50611d75925050506001600160a01b038516826128e0565b604080516001600160a01b03841681526020810188905281517f1cb6202519b6b6c72ba5ed11e2c3f53af3cea010f96bfc705584e53e75cf034c929181900390910190a1600160005595945050505050565b600a546001600160a01b031681565b6001546001600160a01b03163314611e23576040805162461bcd60e51b81526020600482015260156024820152600080516020613021833981519152604482015290519081900360640190fd5b6001600160a01b038116611e7e576040805162461bcd60e51b815260206004820181905260248201527f476f7665726e61626c653a205f676f76206973207a65726f2061646472657373604482015290519081900360640190fd5b600180546001600160a01b0319166001600160a01b0392909216919091179055565b60026000541415611ee6576040805162461bcd60e51b815260206004820152601f6024820152600080516020613001833981519152604482015290519081900360640190fd5b60026000908155600954604080516309f4173d60e11b8152336004820181905260248201819052915191936001600160a01b03909316926313e82e7a926044808401936020939083900390910190829087803b158015611f4557600080fd5b505af1158015611f59573d6000803e3d6000fd5b505050506040513d6020811015611f6f57600080fd5b5050600b54604080516309f4173d60e11b81526001600160a01b03848116600483018190526024830152915191909216916313e82e7a9160448083019260209291908290030181600087803b1580156113bb57600080fd5b6005546001600160a01b031681565b600b546001600160a01b031681565b6002600054141561202b576040805162461bcd60e51b815260206004820152601f6024820152600080516020613001833981519152604482015290519081900360640190fd5b60026000556004546109a090339081906001600160a01b0316846126b1565b60026000541415612090576040805162461bcd60e51b815260206004820152601f6024820152600080516020613001833981519152604482015290519081900360640190fd5b60026000556003546109a090339081906001600160a01b0316846126b1565b600260005414156120f5576040805162461bcd60e51b815260206004820152601f6024820152600080516020613001833981519152604482015290519081900360640190fd5b6002600055612103336128cb565b6001600055565b600c546001600160a01b031681565b604080516001600160a01b038416602482015260448082018490528251808303909101815260649091019091526020810180516001600160e01b031663a9059cbb60e01b1790526109389084906129c5565b600081116121c0576040805162461bcd60e51b815260206004820152601d60248201527f526577617264526f757465723a20696e76616c6964205f616d6f756e74000000604482015290519081900360640190fd5b600754604080516310c1c10360e01b81526001600160a01b038681166004830152915160009392909216916310c1c10391602480820192602092909190829003018186803b15801561221157600080fd5b505afa158015612225573d6000803e3d6000fd5b505050506040513d602081101561223b57600080fd5b50516009546008546040805163098bf59d60e01b81526001600160a01b03898116600483018190529381166024830152604482018890526064820193909352905193945091169163098bf59d9160848082019260009290919082900301818387803b1580156122a957600080fd5b505af11580156122bd573d6000803e3d6000fd5b50506008546007546040805163098bf59d60e01b81526001600160a01b038a8116600483018190529381166024830152604482018990526064820193909352905191909216935063098bf59d9250608480830192600092919082900301818387803b15801561232b57600080fd5b505af115801561233f573d6000803e3d6000fd5b50506007546040805163098bf59d60e01b81526001600160a01b03898116600483018190528982166024840152604483018990526064830152915191909216935063098bf59d9250608480830192600092919082900301818387803b1580156123a757600080fd5b505af11580156123bb573d6000803e3d6000fd5b5050600854604080516309f4173d60e11b81526001600160a01b038981166004830181905260248301529151600095509190921692506313e82e7a9160448082019260209290919082900301818787803b15801561241857600080fd5b505af115801561242c573d6000803e3d6000fd5b505050506040513d602081101561244257600080fd5b5051905080156124cc5760095460055460408051631e42d69b60e21b81526001600160a01b038981166004830181905260248301529283166044820152606481018590529051919092169163790b5a6c91608480830192600092919082900301818387803b1580156124b357600080fd5b505af11580156124c7573d6000803e3d6000fd5b505050505b60095460055460408051637aeceb1f60e11b81526001600160a01b03898116600483015292831660248201529051600093929092169163f5d9d63e91604480820192602092909190829003018186803b15801561252857600080fd5b505afa15801561253c573d6000803e3d6000fd5b505050506040513d602081101561255257600080fd5b5051905080156126655760006125728461256c8488612a76565b90612ad8565b6009546005546040805163098bf59d60e01b81526001600160a01b038c8116600483018190529381166024830152604482018690526064820193909352905193945091169163098bf59d9160848082019260009290919082900301818387803b1580156125de57600080fd5b505af11580156125f2573d6000803e3d6000fd5b505060055460408051632770a7eb60e21b81526001600160a01b038c81166004830152602482018790529151919092169350639dc29fac9250604480830192600092919082900301818387803b15801561264b57600080fd5b505af115801561265f573d6000803e3d6000fd5b50505050505b604080516001600160a01b03881681526020810186905281517fe9da6f830e88eb523af6d57c34cc795daaafe1ab891b6ec4f276a550532124a5929181900390910190a1505050505050565b60008111612706576040805162461bcd60e51b815260206004820152601d60248201527f526577617264526f757465723a20696e76616c6964205f616d6f756e74000000604482015290519081900360640190fd5b60075460408051631e42d69b60e21b81526001600160a01b03878116600483015286811660248301528581166044830152606482018590529151919092169163790b5a6c91608480830192600092919082900301818387803b15801561276b57600080fd5b505af115801561277f573d6000803e3d6000fd5b505060085460075460408051631e42d69b60e21b81526001600160a01b03898116600483018190526024830152928316604482015260648101879052905191909216935063790b5a6c9250608480830192600092919082900301818387803b1580156127ea57600080fd5b505af11580156127fe573d6000803e3d6000fd5b505060095460085460408051631e42d69b60e21b81526001600160a01b03898116600483018190526024830152928316604482015260648101879052905191909216935063790b5a6c9250608480830192600092919082900301818387803b15801561286957600080fd5b505af115801561287d573d6000803e3d6000fd5b5050604080516001600160a01b03871681526020810185905281517f277a108bb56dcaa99fe060708d8fdf34a9ad95c3f857452c0a2621154ec90b789450908190039091019150a150505050565b6128d481612b1a565b6128dd81612cd2565b50565b80471015612935576040805162461bcd60e51b815260206004820152601d60248201527f416464726573733a20696e73756666696369656e742062616c616e6365000000604482015290519081900360640190fd5b6040516000906001600160a01b0384169083908381818185875af1925050503d8060008114612980576040519150601f19603f3d011682016040523d82523d6000602084013e612985565b606091505b50509050806109385760405162461bcd60e51b815260040180806020018281038252603a815260200180613041603a913960400191505060405180910390fd5b6060612a1a826040518060400160405280602081526020017f5361666545524332303a206c6f772d6c6576656c2063616c6c206661696c6564815250856001600160a01b0316612d7d9092919063ffffffff16565b80519091501561093857808060200190516020811015612a3957600080fd5b50516109385760405162461bcd60e51b815260040180806020018281038252602a8152602001806130e3602a913960400191505060405180910390fd5b600082612a8557506000612ad2565b82820282848281612a9257fe5b0414612acf5760405162461bcd60e51b81526004018080602001828103825260218152602001806130c26021913960400191505060405180910390fd5b90505b92915050565b6000612acf83836040518060400160405280601a81526020017f536166654d6174683a206469766973696f6e206279207a65726f000000000000815250612d96565b600754604080516309f4173d60e11b81526001600160a01b03848116600483018190526024830152915160009392909216916313e82e7a9160448082019260209290919082900301818787803b158015612b7357600080fd5b505af1158015612b87573d6000803e3d6000fd5b505050506040513d6020811015612b9d57600080fd5b505190508015612bc157600454612bc190839081906001600160a01b0316846126b1565b600854604080516309f4173d60e11b81526001600160a01b03858116600483018190526024830152915160009392909216916313e82e7a9160448082019260209290919082900301818787803b158015612c1a57600080fd5b505af1158015612c2e573d6000803e3d6000fd5b505050506040513d6020811015612c4457600080fd5b5051905080156109385760095460055460408051631e42d69b60e21b81526001600160a01b038781166004830181905260248301529283166044820152606481018590529051919092169163790b5a6c91608480830192600092919082900301818387803b158015612cb557600080fd5b505af1158015612cc9573d6000803e3d6000fd5b50505050505050565b600a54604080516309f4173d60e11b81526001600160a01b03848116600483018190526024830152915160009392909216916313e82e7a9160448082019260209290919082900301818787803b158015612d2b57600080fd5b505af1158015612d3f573d6000803e3d6000fd5b505050506040513d6020811015612d5557600080fd5b505190508015612d7957600454612d7990839081906001600160a01b0316846126b1565b5050565b6060612d8c8484600085612e38565b90505b9392505050565b60008183612e225760405162461bcd60e51b81526004018080602001828103825283818151815260200191508051906020019080838360005b83811015612de7578181015183820152602001612dcf565b50505050905090810190601f168015612e145780820380516001836020036101000a031916815260200191505b509250505060405180910390fd5b506000838581612e2e57fe5b0495945050505050565b606082471015612e795760405162461bcd60e51b815260040180806020018281038252602681526020018061309c6026913960400191505060405180910390fd5b612e8285612f94565b612ed3576040805162461bcd60e51b815260206004820152601d60248201527f416464726573733a2063616c6c20746f206e6f6e2d636f6e7472616374000000604482015290519081900360640190fd5b60006060866001600160a01b031685876040518082805190602001908083835b60208310612f125780518252601f199092019160209182019101612ef3565b6001836020036101000a03801982511681845116808217855250505050505090500191505060006040518083038185875af1925050503d8060008114612f74576040519150601f19603f3d011682016040523d82523d6000602084013e612f79565b606091505b5091509150612f89828286612f9a565b979650505050505050565b3b151590565b60608315612fa9575081612d8f565b825115612fb95782518084602001fd5b60405162461bcd60e51b8152602060048201818152845160248401528451859391928392604401919085019080838360008315612de7578181015183820152602001612dcf56fe5265656e7472616e637947756172643a207265656e7472616e742063616c6c00476f7665726e61626c653a20666f7262696464656e0000000000000000000000416464726573733a20756e61626c6520746f2073656e642076616c75652c20726563697069656e74206d61792068617665207265766572746564526577617264526f757465723a20616c726561647920696e697469616c697a6564416464726573733a20696e73756666696369656e742062616c616e636520666f722063616c6c536166654d6174683a206d756c7469706c69636174696f6e206f766572666c6f775361666545524332303a204552433230206f7065726174696f6e20646964206e6f742073756363656564a2646970667358221220c06ae8113a89cfecfbba10c38a8a52f9ba4cac3da7b71897c3f7318f4a8de95164736f6c634300060c0033",
    "linkReferences": {}
  },
  "methodIdentifiers": {
    "batchCompoundForAccounts(address[])": "1af276a6",
    "batchStakeGmxForAccount(address[],uint256[])": "0db79e52",
    "bnGmx()": "e102f564",
    "bonusGmxTracker()": "1fcd60e5",
    "claim()": "4e71d92d",
    "claimEsGmx()": "5fe3945f",
    "claimFees()": "d294f093",
    "compound()": "f69e2046",
    "compoundForAccount(address)": "2a9f4083",
    "esGmx()": "6a192a78",
    "feeGlpTracker()": "e1c363b7",
    "feeGmxTracker()": "51c3e3b4",
    "glp()": "78a207ee",
    "glpManager()": "fa6db1bc",
    "gmx()": "31e67c71",
    "gov()": "12d43a51",
    "initialize(address,address,address,address,address,address,address,address,address,address,address)": "76902b83",
    "isInitialized()": "392e53cd",
    "mintAndStakeGlp(address,uint256,uint256,uint256)": "364e2311",
    "mintAndStakeGlpETH(uint256,uint256)": "53a8aa03",
    "setGov(address)": "cfad57a2",
    "stakeEsGmx(uint256)": "ef8c5994",
    "stakeGmx(uint256)": "f3daeacc",
    "stakeGmxForAccount(address,uint256)": "5da4b8dd",
    "stakedGlpTracker()": "af394d00",
    "stakedGmxTracker()": "0ce4018a",
    "unstakeAndRedeemGlp(address,uint256,uint256,address)": "0f3aa554",
    "unstakeAndRedeemGlpETH(uint256,uint256,address)": "abb5e5e2",
    "unstakeEsGmx(uint256)": "64f64467",
    "unstakeGmx(uint256)": "078580d2",
    "weth()": "3fc8cef3",
    "withdrawToken(address,address,uint256)": "01e33667"
  },
  "id": 114
}