{"abi":[{"type":"constructor","inputs":[{"name":"_sender","type":"address","internalType":"address"},{"name":"_brrr","type":"address","internalType":"address"},{"name":"_stakedBrrrTracker","type":"address","internalType":"address"}],"stateMutability":"nonpayable"},{"type":"function","name":"brrr","inputs":[],"outputs":[{"name":"","type":"address","internalType":"address"}],"stateMutability":"view"},{"type":"function","name":"disable","inputs":[],"outputs":[],"stateMutability":"nonpayable"},{"type":"function","name":"gov","inputs":[],"outputs":[{"name":"","type":"address","internalType":"address"}],"stateMutability":"view"},{"type":"function","name":"isEnabled","inputs":[],"outputs":[{"name":"","type":"bool","internalType":"bool"}],"stateMutability":"view"},{"type":"function","name":"sender","inputs":[],"outputs":[{"name":"","type":"address","internalType":"address"}],"stateMutability":"view"},{"type":"function","name":"setGov","inputs":[{"name":"_gov","type":"address","internalType":"address"}],"outputs":[],"stateMutability":"nonpayable"},{"type":"function","name":"stakedBrrrTracker","inputs":[],"outputs":[{"name":"","type":"address","internalType":"address"}],"stateMutability":"view"},{"type":"function","name":"transfer","inputs":[{"name":"_recipient","type":"address","internalType":"address"},{"name":"_amount","type":"uint256","internalType":"uint256"}],"outputs":[],"stateMutability":"nonpayable"}],"bytecode":{"object":"0x60806040526003805460ff60a01b1916600160a01b17905534801561002357600080fd5b5060405161066d38038061066d833981016040819052610042916100ab565b600080546001600160a01b03199081163317909155600180546001600160a01b039586169083161790556002805493851693821693909317909255600380549190931691161790556100ee565b80516001600160a01b03811681146100a657600080fd5b919050565b6000806000606084860312156100c057600080fd5b6100c98461008f565b92506100d76020850161008f565b91506100e56040850161008f565b90509250925092565b610570806100fd6000396000f3fe608060405234801561001057600080fd5b50600436106100885760003560e01c806396a67d251161005b57806396a67d25146100fe578063a9059cbb14610111578063cfad57a214610124578063ebb071be1461013757600080fd5b806312d43a511461008d5780632f2770db146100bd57806367e404ce146100c75780636aa633b6146100da575b600080fd5b6000546100a0906001600160a01b031681565b6040516001600160a01b0390911681526020015b60405180910390f35b6100c561014a565b005b6001546100a0906001600160a01b031681565b6003546100ee90600160a01b900460ff1681565b60405190151581526020016100b4565b6002546100a0906001600160a01b031681565b6100c561011f3660046104bf565b61018c565b6100c56101323660046104e9565b6101d1565b6003546100a0906001600160a01b031681565b6000546001600160a01b0316331461017d5760405162461bcd60e51b81526004016101749061050b565b60405180910390fd5b6003805460ff60a01b19169055565b6000546001600160a01b031633146101b65760405162461bcd60e51b81526004016101749061050b565b6001546101cd906001600160a01b03168383610273565b5050565b6000546001600160a01b031633146101fb5760405162461bcd60e51b81526004016101749061050b565b6001600160a01b0381166102515760405162461bcd60e51b815260206004820181905260248201527f476f7665726e61626c653a205f676f76206973207a65726f20616464726573736044820152606401610174565b600080546001600160a01b0319166001600160a01b0392909216919091179055565b600354600160a01b900460ff166102cc5760405162461bcd60e51b815260206004820152601f60248201527f5374616b6564427272724d69677261746f723a206e6f7420656e61626c6564006044820152606401610174565b6001600160a01b03831661033d5760405162461bcd60e51b815260206004820152603260248201527f5374616b6564427272724d69677261746f723a207472616e736665722066726f6044820152716d20746865207a65726f206164647265737360701b6064820152608401610174565b6001600160a01b0382166103ac5760405162461bcd60e51b815260206004820152603060248201527f5374616b6564427272724d69677261746f723a207472616e7366657220746f2060448201526f746865207a65726f206164647265737360801b6064820152608401610174565b60035460025460405163098bf59d60e01b81526001600160a01b0386811660048301819052928116602483015260448201859052606482019290925291169063098bf59d90608401600060405180830381600087803b15801561040e57600080fd5b505af1158015610422573d6000803e3d6000fd5b5050600354600254604051631e42d69b60e21b81526001600160a01b03888116600483015287811660248301529182166044820152606481018690529116925063790b5a6c9150608401600060405180830381600087803b15801561048657600080fd5b505af115801561049a573d6000803e3d6000fd5b50505050505050565b80356001600160a01b03811681146104ba57600080fd5b919050565b600080604083850312156104d257600080fd5b6104db836104a3565b946020939093013593505050565b6000602082840312156104fb57600080fd5b610504826104a3565b9392505050565b60208082526015908201527423b7bb32b93730b136329d103337b93134b23232b760591b60408201526060019056fea26469706673582212204949f275203daef648b0247e3aca1c8653dd69b5518aaec09e81a99109b7733964736f6c63430008120033","linkReferences":{}},"methodIdentifiers":{"brrr()":"96a67d25","disable()":"2f2770db","gov()":"12d43a51","isEnabled()":"6aa633b6","sender()":"67e404ce","setGov(address)":"cfad57a2","stakedBrrrTracker()":"ebb071be","transfer(address,uint256)":"a9059cbb"},"id":110}