{"abi":[{"type":"constructor","inputs":[],"stateMutability":"nonpayable"},{"type":"receive","stateMutability":"payable"},{"type":"function","name":"PRICE_PRECISION","inputs":[],"outputs":[{"name":"","type":"uint256","internalType":"uint256"}],"stateMutability":"view"},{"type":"function","name":"USDP_PRECISION","inputs":[],"outputs":[{"name":"","type":"uint256","internalType":"uint256"}],"stateMutability":"view"},{"type":"function","name":"cancelDecreaseOrder","inputs":[{"name":"_orderIndex","type":"uint256","internalType":"uint256"}],"outputs":[],"stateMutability":"nonpayable"},{"type":"function","name":"cancelIncreaseOrder","inputs":[{"name":"_orderIndex","type":"uint256","internalType":"uint256"}],"outputs":[],"stateMutability":"nonpayable"},{"type":"function","name":"cancelMultiple","inputs":[{"name":"_swapOrderIndexes","type":"uint256[]","internalType":"uint256[]"},{"name":"_increaseOrderIndexes","type":"uint256[]","internalType":"uint256[]"},{"name":"_decreaseOrderIndexes","type":"uint256[]","internalType":"uint256[]"}],"outputs":[],"stateMutability":"nonpayable"},{"type":"function","name":"cancelSwapOrder","inputs":[{"name":"_orderIndex","type":"uint256","internalType":"uint256"}],"outputs":[],"stateMutability":"nonpayable"},{"type":"function","name":"createDecreaseOrder","inputs":[{"name":"_indexToken","type":"address","internalType":"address"},{"name":"_sizeDelta","type":"uint256","internalType":"uint256"},{"name":"_collateralToken","type":"address","internalType":"address"},{"name":"_collateralDelta","type":"uint256","internalType":"uint256"},{"name":"_isLong","type":"bool","internalType":"bool"},{"name":"_triggerPrice","type":"uint256","internalType":"uint256"},{"name":"_triggerAboveThreshold","type":"bool","internalType":"bool"}],"outputs":[],"stateMutability":"payable"},{"type":"function","name":"createIncreaseOrder","inputs":[{"name":"_path","type":"address[]","internalType":"address[]"},{"name":"_amountIn","type":"uint256","internalType":"uint256"},{"name":"_indexToken","type":"address","internalType":"address"},{"name":"_minOut","type":"uint256","internalType":"uint256"},{"name":"_sizeDelta","type":"uint256","internalType":"uint256"},{"name":"_collateralToken","type":"address","internalType":"address"},{"name":"_isLong","type":"bool","internalType":"bool"},{"name":"_triggerPrice","type":"uint256","internalType":"uint256"},{"name":"_triggerAboveThreshold","type":"bool","internalType":"bool"},{"name":"_executionFee","type":"uint256","internalType":"uint256"},{"name":"_shouldWrap","type":"bool","internalType":"bool"}],"outputs":[],"stateMutability":"payable"},{"type":"function","name":"createSwapOrder","inputs":[{"name":"_path","type":"address[]","internalType":"address[]"},{"name":"_amountIn","type":"uint256","internalType":"uint256"},{"name":"_minOut","type":"uint256","internalType":"uint256"},{"name":"_triggerRatio","type":"uint256","internalType":"uint256"},{"name":"_triggerAboveThreshold","type":"bool","internalType":"bool"},{"name":"_executionFee","type":"uint256","internalType":"uint256"},{"name":"_shouldWrap","type":"bool","internalType":"bool"},{"name":"_shouldUnwrap","type":"bool","internalType":"bool"}],"outputs":[],"stateMutability":"payable"},{"type":"function","name":"decreaseOrders","inputs":[{"name":"","type":"address","internalType":"address"},{"name":"","type":"uint256","internalType":"uint256"}],"outputs":[{"name":"account","type":"address","internalType":"address"},{"name":"collateralToken","type":"address","internalType":"address"},{"name":"collateralDelta","type":"uint256","internalType":"uint256"},{"name":"indexToken","type":"address","internalType":"address"},{"name":"sizeDelta","type":"uint256","internalType":"uint256"},{"name":"isLong","type":"bool","internalType":"bool"},{"name":"triggerPrice","type":"uint256","internalType":"uint256"},{"name":"triggerAboveThreshold","type":"bool","internalType":"bool"},{"name":"executionFee","type":"uint256","internalType":"uint256"}],"stateMutability":"view"},{"type":"function","name":"decreaseOrdersIndex","inputs":[{"name":"","type":"address","internalType":"address"}],"outputs":[{"name":"","type":"uint256","internalType":"uint256"}],"stateMutability":"view"},{"type":"function","name":"executeDecreaseOrder","inputs":[{"name":"_address","type":"address","internalType":"address"},{"name":"_orderIndex","type":"uint256","internalType":"uint256"},{"name":"_feeReceiver","type":"address","internalType":"address payable"}],"outputs":[],"stateMutability":"nonpayable"},{"type":"function","name":"executeIncreaseOrder","inputs":[{"name":"_address","type":"address","internalType":"address"},{"name":"_orderIndex","type":"uint256","internalType":"uint256"},{"name":"_feeReceiver","type":"address","internalType":"address payable"}],"outputs":[],"stateMutability":"nonpayable"},{"type":"function","name":"executeSwapOrder","inputs":[{"name":"_account","type":"address","internalType":"address"},{"name":"_orderIndex","type":"uint256","internalType":"uint256"},{"name":"_feeReceiver","type":"address","internalType":"address payable"}],"outputs":[],"stateMutability":"nonpayable"},{"type":"function","name":"getDecreaseOrder","inputs":[{"name":"_account","type":"address","internalType":"address"},{"name":"_orderIndex","type":"uint256","internalType":"uint256"}],"outputs":[{"name":"collateralToken","type":"address","internalType":"address"},{"name":"collateralDelta","type":"uint256","internalType":"uint256"},{"name":"indexToken","type":"address","internalType":"address"},{"name":"sizeDelta","type":"uint256","internalType":"uint256"},{"name":"isLong","type":"bool","internalType":"bool"},{"name":"triggerPrice","type":"uint256","internalType":"uint256"},{"name":"triggerAboveThreshold","type":"bool","internalType":"bool"},{"name":"executionFee","type":"uint256","internalType":"uint256"}],"stateMutability":"view"},{"type":"function","name":"getIncreaseOrder","inputs":[{"name":"_account","type":"address","internalType":"address"},{"name":"_orderIndex","type":"uint256","internalType":"uint256"}],"outputs":[{"name":"purchaseToken","type":"address","internalType":"address"},{"name":"purchaseTokenAmount","type":"uint256","internalType":"uint256"},{"name":"collateralToken","type":"address","internalType":"address"},{"name":"indexToken","type":"address","internalType":"address"},{"name":"sizeDelta","type":"uint256","internalType":"uint256"},{"name":"isLong","type":"bool","internalType":"bool"},{"name":"triggerPrice","type":"uint256","internalType":"uint256"},{"name":"triggerAboveThreshold","type":"bool","internalType":"bool"},{"name":"executionFee","type":"uint256","internalType":"uint256"}],"stateMutability":"view"},{"type":"function","name":"getSwapOrder","inputs":[{"name":"_account","type":"address","internalType":"address"},{"name":"_orderIndex","type":"uint256","internalType":"uint256"}],"outputs":[{"name":"path0","type":"address","internalType":"address"},{"name":"path1","type":"address","internalType":"address"},{"name":"path2","type":"address","internalType":"address"},{"name":"amountIn","type":"uint256","internalType":"uint256"},{"name":"minOut","type":"uint256","internalType":"uint256"},{"name":"triggerRatio","type":"uint256","internalType":"uint256"},{"name":"triggerAboveThreshold","type":"bool","internalType":"bool"},{"name":"shouldUnwrap","type":"bool","internalType":"bool"},{"name":"executionFee","type":"uint256","internalType":"uint256"}],"stateMutability":"view"},{"type":"function","name":"getUsdpMinPrice","inputs":[{"name":"_otherToken","type":"address","internalType":"address"}],"outputs":[{"name":"","type":"uint256","internalType":"uint256"}],"stateMutability":"view"},{"type":"function","name":"gov","inputs":[],"outputs":[{"name":"","type":"address","internalType":"address"}],"stateMutability":"view"},{"type":"function","name":"increaseOrders","inputs":[{"name":"","type":"address","internalType":"address"},{"name":"","type":"uint256","internalType":"uint256"}],"outputs":[{"name":"account","type":"address","internalType":"address"},{"name":"purchaseToken","type":"address","internalType":"address"},{"name":"purchaseTokenAmount","type":"uint256","internalType":"uint256"},{"name":"collateralToken","type":"address","internalType":"address"},{"name":"indexToken","type":"address","internalType":"address"},{"name":"sizeDelta","type":"uint256","internalType":"uint256"},{"name":"isLong","type":"bool","internalType":"bool"},{"name":"triggerPrice","type":"uint256","internalType":"uint256"},{"name":"triggerAboveThreshold","type":"bool","internalType":"bool"},{"name":"executionFee","type":"uint256","internalType":"uint256"}],"stateMutability":"view"},{"type":"function","name":"increaseOrdersIndex","inputs":[{"name":"","type":"address","internalType":"address"}],"outputs":[{"name":"","type":"uint256","internalType":"uint256"}],"stateMutability":"view"},{"type":"function","name":"initialize","inputs":[{"name":"_router","type":"address","internalType":"address"},{"name":"_vault","type":"address","internalType":"address"},{"name":"_weth","type":"address","internalType":"address"},{"name":"_usdp","type":"address","internalType":"address"},{"name":"_minExecutionFee","type":"uint256","internalType":"uint256"},{"name":"_minPurchaseTokenAmountUsd","type":"uint256","internalType":"uint256"}],"outputs":[],"stateMutability":"nonpayable"},{"type":"function","name":"isInitialized","inputs":[],"outputs":[{"name":"","type":"bool","internalType":"bool"}],"stateMutability":"view"},{"type":"function","name":"minExecutionFee","inputs":[],"outputs":[{"name":"","type":"uint256","internalType":"uint256"}],"stateMutability":"view"},{"type":"function","name":"minPurchaseTokenAmountUsd","inputs":[],"outputs":[{"name":"","type":"uint256","internalType":"uint256"}],"stateMutability":"view"},{"type":"function","name":"router","inputs":[],"outputs":[{"name":"","type":"address","internalType":"address"}],"stateMutability":"view"},{"type":"function","name":"setGov","inputs":[{"name":"_gov","type":"address","internalType":"address"}],"outputs":[],"stateMutability":"nonpayable"},{"type":"function","name":"setMinExecutionFee","inputs":[{"name":"_minExecutionFee","type":"uint256","internalType":"uint256"}],"outputs":[],"stateMutability":"nonpayable"},{"type":"function","name":"setMinPurchaseTokenAmountUsd","inputs":[{"name":"_minPurchaseTokenAmountUsd","type":"uint256","internalType":"uint256"}],"outputs":[],"stateMutability":"nonpayable"},{"type":"function","name":"swapOrders","inputs":[{"name":"","type":"address","internalType":"address"},{"name":"","type":"uint256","internalType":"uint256"}],"outputs":[{"name":"account","type":"address","internalType":"address"},{"name":"amountIn","type":"uint256","internalType":"uint256"},{"name":"minOut","type":"uint256","internalType":"uint256"},{"name":"triggerRatio","type":"uint256","internalType":"uint256"},{"name":"triggerAboveThreshold","type":"bool","internalType":"bool"},{"name":"shouldUnwrap","type":"bool","internalType":"bool"},{"name":"executionFee","type":"uint256","internalType":"uint256"}],"stateMutability":"view"},{"type":"function","name":"swapOrdersIndex","inputs":[{"name":"","type":"address","internalType":"address"}],"outputs":[{"name":"","type":"uint256","internalType":"uint256"}],"stateMutability":"view"},{"type":"function","name":"updateDecreaseOrder","inputs":[{"name":"_orderIndex","type":"uint256","internalType":"uint256"},{"name":"_collateralDelta","type":"uint256","internalType":"uint256"},{"name":"_sizeDelta","type":"uint256","internalType":"uint256"},{"name":"_triggerPrice","type":"uint256","internalType":"uint256"},{"name":"_triggerAboveThreshold","type":"bool","internalType":"bool"}],"outputs":[],"stateMutability":"nonpayable"},{"type":"function","name":"updateIncreaseOrder","inputs":[{"name":"_orderIndex","type":"uint256","internalType":"uint256"},{"name":"_sizeDelta","type":"uint256","internalType":"uint256"},{"name":"_triggerPrice","type":"uint256","internalType":"uint256"},{"name":"_triggerAboveThreshold","type":"bool","internalType":"bool"}],"outputs":[],"stateMutability":"nonpayable"},{"type":"function","name":"updateSwapOrder","inputs":[{"name":"_orderIndex","type":"uint256","internalType":"uint256"},{"name":"_minOut","type":"uint256","internalType":"uint256"},{"name":"_triggerRatio","type":"uint256","internalType":"uint256"},{"name":"_triggerAboveThreshold","type":"bool","internalType":"bool"}],"outputs":[],"stateMutability":"nonpayable"},{"type":"function","name":"usdp","inputs":[],"outputs":[{"name":"","type":"address","internalType":"address"}],"stateMutability":"view"},{"type":"function","name":"validatePositionOrderPrice","inputs":[{"name":"_triggerAboveThreshold","type":"bool","internalType":"bool"},{"name":"_triggerPrice","type":"uint256","internalType":"uint256"},{"name":"_indexToken","type":"address","internalType":"address"},{"name":"_maximizePrice","type":"bool","internalType":"bool"},{"name":"_raise","type":"bool","internalType":"bool"}],"outputs":[{"name":"","type":"uint256","internalType":"uint256"},{"name":"","type":"bool","internalType":"bool"}],"stateMutability":"view"},{"type":"function","name":"validateSwapOrderPriceWithTriggerAboveThreshold","inputs":[{"name":"_path","type":"address[]","internalType":"address[]"},{"name":"_triggerRatio","type":"uint256","internalType":"uint256"}],"outputs":[{"name":"","type":"bool","internalType":"bool"}],"stateMutability":"view"},{"type":"function","name":"vault","inputs":[],"outputs":[{"name":"","type":"address","internalType":"address"}],"stateMutability":"view"},{"type":"function","name":"weth","inputs":[],"outputs":[{"name":"","type":"address","internalType":"address"}],"stateMutability":"view"},{"type":"event","name":"CancelDecreaseOrder","inputs":[{"name":"account","type":"address","indexed":true,"internalType":"address"},{"name":"orderIndex","type":"uint256","indexed":false,"internalType":"uint256"},{"name":"collateralToken","type":"address","indexed":false,"internalType":"address"},{"name":"collateralDelta","type":"uint256","indexed":false,"internalType":"uint256"},{"name":"indexToken","type":"address","indexed":false,"internalType":"address"},{"name":"sizeDelta","type":"uint256","indexed":false,"internalType":"uint256"},{"name":"isLong","type":"bool","indexed":false,"internalType":"bool"},{"name":"triggerPrice","type":"uint256","indexed":false,"internalType":"uint256"},{"name":"triggerAboveThreshold","type":"bool","indexed":false,"internalType":"bool"},{"name":"executionFee","type":"uint256","indexed":false,"internalType":"uint256"}],"anonymous":false},{"type":"event","name":"CancelIncreaseOrder","inputs":[{"name":"account","type":"address","indexed":true,"internalType":"address"},{"name":"orderIndex","type":"uint256","indexed":false,"internalType":"uint256"},{"name":"purchaseToken","type":"address","indexed":false,"internalType":"address"},{"name":"purchaseTokenAmount","type":"uint256","indexed":false,"internalType":"uint256"},{"name":"collateralToken","type":"address","indexed":false,"internalType":"address"},{"name":"indexToken","type":"address","indexed":false,"internalType":"address"},{"name":"sizeDelta","type":"uint256","indexed":false,"internalType":"uint256"},{"name":"isLong","type":"bool","indexed":false,"internalType":"bool"},{"name":"triggerPrice","type":"uint256","indexed":false,"internalType":"uint256"},{"name":"triggerAboveThreshold","type":"bool","indexed":false,"internalType":"bool"},{"name":"executionFee","type":"uint256","indexed":false,"internalType":"uint256"}],"anonymous":false},{"type":"event","name":"CancelSwapOrder","inputs":[{"name":"account","type":"address","indexed":true,"internalType":"address"},{"name":"orderIndex","type":"uint256","indexed":false,"internalType":"uint256"},{"name":"path","type":"address[]","indexed":false,"internalType":"address[]"},{"name":"amountIn","type":"uint256","indexed":false,"internalType":"uint256"},{"name":"minOut","type":"uint256","indexed":false,"internalType":"uint256"},{"name":"triggerRatio","type":"uint256","indexed":false,"internalType":"uint256"},{"name":"triggerAboveThreshold","type":"bool","indexed":false,"internalType":"bool"},{"name":"shouldUnwrap","type":"bool","indexed":false,"internalType":"bool"},{"name":"executionFee","type":"uint256","indexed":false,"internalType":"uint256"}],"anonymous":false},{"type":"event","name":"CreateDecreaseOrder","inputs":[{"name":"account","type":"address","indexed":true,"internalType":"address"},{"name":"orderIndex","type":"uint256","indexed":false,"internalType":"uint256"},{"name":"collateralToken","type":"address","indexed":false,"internalType":"address"},{"name":"collateralDelta","type":"uint256","indexed":false,"internalType":"uint256"},{"name":"indexToken","type":"address","indexed":false,"internalType":"address"},{"name":"sizeDelta","type":"uint256","indexed":false,"internalType":"uint256"},{"name":"isLong","type":"bool","indexed":false,"internalType":"bool"},{"name":"triggerPrice","type":"uint256","indexed":false,"internalType":"uint256"},{"name":"triggerAboveThreshold","type":"bool","indexed":false,"internalType":"bool"},{"name":"executionFee","type":"uint256","indexed":false,"internalType":"uint256"}],"anonymous":false},{"type":"event","name":"CreateIncreaseOrder","inputs":[{"name":"account","type":"address","indexed":true,"internalType":"address"},{"name":"orderIndex","type":"uint256","indexed":false,"internalType":"uint256"},{"name":"purchaseToken","type":"address","indexed":false,"internalType":"address"},{"name":"purchaseTokenAmount","type":"uint256","indexed":false,"internalType":"uint256"},{"name":"collateralToken","type":"address","indexed":false,"internalType":"address"},{"name":"indexToken","type":"address","indexed":false,"internalType":"address"},{"name":"sizeDelta","type":"uint256","indexed":false,"internalType":"uint256"},{"name":"isLong","type":"bool","indexed":false,"internalType":"bool"},{"name":"triggerPrice","type":"uint256","indexed":false,"internalType":"uint256"},{"name":"triggerAboveThreshold","type":"bool","indexed":false,"internalType":"bool"},{"name":"executionFee","type":"uint256","indexed":false,"internalType":"uint256"}],"anonymous":false},{"type":"event","name":"CreateSwapOrder","inputs":[{"name":"account","type":"address","indexed":true,"internalType":"address"},{"name":"orderIndex","type":"uint256","indexed":false,"internalType":"uint256"},{"name":"path","type":"address[]","indexed":false,"internalType":"address[]"},{"name":"amountIn","type":"uint256","indexed":false,"internalType":"uint256"},{"name":"minOut","type":"uint256","indexed":false,"internalType":"uint256"},{"name":"triggerRatio","type":"uint256","indexed":false,"internalType":"uint256"},{"name":"triggerAboveThreshold","type":"bool","indexed":false,"internalType":"bool"},{"name":"shouldUnwrap","type":"bool","indexed":false,"internalType":"bool"},{"name":"executionFee","type":"uint256","indexed":false,"internalType":"uint256"}],"anonymous":false},{"type":"event","name":"ExecuteDecreaseOrder","inputs":[{"name":"account","type":"address","indexed":true,"internalType":"address"},{"name":"orderIndex","type":"uint256","indexed":false,"internalType":"uint256"},{"name":"collateralToken","type":"address","indexed":false,"internalType":"address"},{"name":"collateralDelta","type":"uint256","indexed":false,"internalType":"uint256"},{"name":"indexToken","type":"address","indexed":false,"internalType":"address"},{"name":"sizeDelta","type":"uint256","indexed":false,"internalType":"uint256"},{"name":"isLong","type":"bool","indexed":false,"internalType":"bool"},{"name":"triggerPrice","type":"uint256","indexed":false,"internalType":"uint256"},{"name":"triggerAboveThreshold","type":"bool","indexed":false,"internalType":"bool"},{"name":"executionFee","type":"uint256","indexed":false,"internalType":"uint256"},{"name":"executionPrice","type":"uint256","indexed":false,"internalType":"uint256"}],"anonymous":false},{"type":"event","name":"ExecuteIncreaseOrder","inputs":[{"name":"account","type":"address","indexed":true,"internalType":"address"},{"name":"orderIndex","type":"uint256","indexed":false,"internalType":"uint256"},{"name":"purchaseToken","type":"address","indexed":false,"internalType":"address"},{"name":"purchaseTokenAmount","type":"uint256","indexed":false,"internalType":"uint256"},{"name":"collateralToken","type":"address","indexed":false,"internalType":"address"},{"name":"indexToken","type":"address","indexed":false,"internalType":"address"},{"name":"sizeDelta","type":"uint256","indexed":false,"internalType":"uint256"},{"name":"isLong","type":"bool","indexed":false,"internalType":"bool"},{"name":"triggerPrice","type":"uint256","indexed":false,"internalType":"uint256"},{"name":"triggerAboveThreshold","type":"bool","indexed":false,"internalType":"bool"},{"name":"executionFee","type":"uint256","indexed":false,"internalType":"uint256"},{"name":"executionPrice","type":"uint256","indexed":false,"internalType":"uint256"}],"anonymous":false},{"type":"event","name":"ExecuteSwapOrder","inputs":[{"name":"account","type":"address","indexed":true,"internalType":"address"},{"name":"orderIndex","type":"uint256","indexed":false,"internalType":"uint256"},{"name":"path","type":"address[]","indexed":false,"internalType":"address[]"},{"name":"amountIn","type":"uint256","indexed":false,"internalType":"uint256"},{"name":"minOut","type":"uint256","indexed":false,"internalType":"uint256"},{"name":"amountOut","type":"uint256","indexed":false,"internalType":"uint256"},{"name":"triggerRatio","type":"uint256","indexed":false,"internalType":"uint256"},{"name":"triggerAboveThreshold","type":"bool","indexed":false,"internalType":"bool"},{"name":"shouldUnwrap","type":"bool","indexed":false,"internalType":"bool"},{"name":"executionFee","type":"uint256","indexed":false,"internalType":"uint256"}],"anonymous":false},{"type":"event","name":"Initialize","inputs":[{"name":"router","type":"address","indexed":false,"internalType":"address"},{"name":"vault","type":"address","indexed":false,"internalType":"address"},{"name":"weth","type":"address","indexed":false,"internalType":"address"},{"name":"usdp","type":"address","indexed":false,"internalType":"address"},{"name":"minExecutionFee","type":"uint256","indexed":false,"internalType":"uint256"},{"name":"minPurchaseTokenAmountUsd","type":"uint256","indexed":false,"internalType":"uint256"}],"anonymous":false},{"type":"event","name":"UpdateDecreaseOrder","inputs":[{"name":"account","type":"address","indexed":true,"internalType":"address"},{"name":"orderIndex","type":"uint256","indexed":false,"internalType":"uint256"},{"name":"collateralToken","type":"address","indexed":false,"internalType":"address"},{"name":"collateralDelta","type":"uint256","indexed":false,"internalType":"uint256"},{"name":"indexToken","type":"address","indexed":false,"internalType":"address"},{"name":"sizeDelta","type":"uint256","indexed":false,"internalType":"uint256"},{"name":"isLong","type":"bool","indexed":false,"internalType":"bool"},{"name":"triggerPrice","type":"uint256","indexed":false,"internalType":"uint256"},{"name":"triggerAboveThreshold","type":"bool","indexed":false,"internalType":"bool"}],"anonymous":false},{"type":"event","name":"UpdateGov","inputs":[{"name":"gov","type":"address","indexed":false,"internalType":"address"}],"anonymous":false},{"type":"event","name":"UpdateIncreaseOrder","inputs":[{"name":"account","type":"address","indexed":true,"internalType":"address"},{"name":"orderIndex","type":"uint256","indexed":false,"internalType":"uint256"},{"name":"collateralToken","type":"address","indexed":false,"internalType":"address"},{"name":"indexToken","type":"address","indexed":false,"internalType":"address"},{"name":"isLong","type":"bool","indexed":false,"internalType":"bool"},{"name":"sizeDelta","type":"uint256","indexed":false,"internalType":"uint256"},{"name":"triggerPrice","type":"uint256","indexed":false,"internalType":"uint256"},{"name":"triggerAboveThreshold","type":"bool","indexed":false,"internalType":"bool"}],"anonymous":false},{"type":"event","name":"UpdateMinExecutionFee","inputs":[{"name":"minExecutionFee","type":"uint256","indexed":false,"internalType":"uint256"}],"anonymous":false},{"type":"event","name":"UpdateMinPurchaseTokenAmountUsd","inputs":[{"name":"minPurchaseTokenAmountUsd","type":"uint256","indexed":false,"internalType":"uint256"}],"anonymous":false},{"type":"event","name":"UpdateSwapOrder","inputs":[{"name":"account","type":"address","indexed":true,"internalType":"address"},{"name":"ordexIndex","type":"uint256","indexed":false,"internalType":"uint256"},{"name":"path","type":"address[]","indexed":false,"internalType":"address[]"},{"name":"amountIn","type":"uint256","indexed":false,"internalType":"uint256"},{"name":"minOut","type":"uint256","indexed":false,"internalType":"uint256"},{"name":"triggerRatio","type":"uint256","indexed":false,"internalType":"uint256"},{"name":"triggerAboveThreshold","type":"bool","indexed":false,"internalType":"bool"},{"name":"shouldUnwrap","type":"bool","indexed":false,"internalType":"bool"},{"name":"executionFee","type":"uint256","indexed":false,"internalType":"uint256"}],"anonymous":false},{"type":"error","name":"AddressEmptyCode","inputs":[{"name":"target","type":"address","internalType":"address"}]},{"type":"error","name":"AddressInsufficientBalance","inputs":[{"name":"account","type":"address","internalType":"address"}]},{"type":"error","name":"FailedInnerCall","inputs":[]},{"type":"error","name":"ReentrancyGuardReentrantCall","inputs":[]},{"type":"error","name":"SafeERC20FailedOperation","inputs":[{"name":"token","type":"address","internalType":"address"}]}],"bytecode":{"object":"0x6080604052600e805460ff1916905534801561001a57600080fd5b506001600055600780546001600160a01b03191633179055614823806100416000396000f3fe6080604052600436106102335760003560e01c80639983ee1b1161012e578063d0d40cd6116100ab578063f2d2e01b1161006f578063f2d2e01b14610ae3578063f882ac0714610bbe578063f887ea4014610bde578063fbfa77cf14610bfe578063fc2cee6214610c1e57600080fd5b8063d0d40cd6146108c1578063d38ab5191461093a578063d3bab1d11461095a578063d566d0ca14610a96578063d7c41c7914610ac357600080fd5b8063c16cde8a116100f2578063c16cde8a1461082e578063c4a1821b14610841578063c86b0f7d14610861578063ce356b1014610881578063cfad57a2146108a157600080fd5b80639983ee1b1461078e5780639e71b0f0146107ae578063a397ea54146107ce578063aec22455146107ee578063b142a4b01461081b57600080fd5b80633c14269a116101bc57806374e6076c1161018057806374e6076c1461066557806379221fa214610685578063807c5600146107375780638de10c2e1461075757806395082d251461076d57600080fd5b80633c14269a146105be5780633fc8cef3146105da57806347e0bbd0146105fa5780634c54f0b01461061a57806363ae21031461064f57600080fd5b806311d9444a1161020357806311d9444a1461043d57806312d43a511461045d578063269ae6c2146104955780632b7d6290146104a8578063392e53cd1461059457600080fd5b8062cf066b1461029e578063026032ee146102de57806307c7edc3146103fd5780630d5cc9381461041d57600080fd5b36610299576008546001600160a01b031633146102975760405162461bcd60e51b815260206004820152601960248201527f4f72646572426f6f6b3a20696e76616c69642073656e6465720000000000000060448201526064015b60405180910390fd5b005b600080fd5b3480156102aa57600080fd5b506102cb6102b9366004613bd7565b60066020526000908152604090205481565b6040519081526020015b60405180910390f35b3480156102ea57600080fd5b506103ad6102f9366004613bf4565b6001600160a01b039182166000908152600360208181526040808420948452938152918390208351610120810185528154861681526001820154861693810184905260028201549481018590529181015490941660608201819052600485015460808301819052600586015460ff908116151560a08501819052600688015460c086018190526007890154909216151560e08601819052600890980154610100909501859052949795969295919493909291565b604080516001600160a01b03998a1681526020810198909852959097169486019490945260608501929092521515608084015260a0830152151560c082015260e0810191909152610100016102d5565b34801561040957600080fd5b50610297610418366004613c20565b610c3e565b34801561042957600080fd5b50610297610438366004613c62565b610f64565b34801561044957600080fd5b50610297610458366004613c20565b610fca565b34801561046957600080fd5b5060075461047d906001600160a01b031681565b6040516001600160a01b0390911681526020016102d5565b6102976104a3366004613d78565b61130a565b3480156104b457600080fd5b506105356104c3366004613bf4565b6001602081815260009384526040808520909152918352912080549181015460028201546003830154600484015460058501546006860154600787015460088801546009909801546001600160a01b03998a1699978816989697958616969490951694929360ff92831693919216908a565b604080516001600160a01b039b8c168152998b1660208b0152890197909752948816606088015296909216608086015260a0850152151560c084015260e0830193909352911515610100820152610120810191909152610140016102d5565b3480156105a057600080fd5b50600e546105ae9060ff1681565b60405190151581526020016102d5565b3480156105ca57600080fd5b506102cb670de0b6b3a764000081565b3480156105e657600080fd5b5060085461047d906001600160a01b031681565b34801561060657600080fd5b50610297610615366004613c62565b6115bb565b34801561062657600080fd5b5061063a610635366004613e16565b6117fe565b604080519283529015156020830152016102d5565b34801561065b57600080fd5b506102cb600c5481565b34801561067157600080fd5b5060095461047d906001600160a01b031681565b34801561069157600080fd5b506106f46106a0366004613bf4565b600560208181526000938452604080852090915291835291208054600282015460038301546004840154948401546006909401546001600160a01b03909316949193909260ff808316926101009004169087565b604080516001600160a01b039098168852602088019690965294860193909352606085019190915215156080840152151560a083015260c082015260e0016102d5565b34801561074357600080fd5b50610297610752366004613ed9565b611931565b34801561076357600080fd5b506102cb600d5481565b34801561077957600080fd5b506102cb6c0c9f2c9cd04674edea4000000081565b34801561079a57600080fd5b506102976107a9366004613f61565b6119f9565b3480156107ba57600080fd5b506102976107c9366004613c62565b611aef565b3480156107da57600080fd5b506102976107e9366004613fa2565b611c9b565b3480156107fa57600080fd5b506102cb610809366004613bd7565b60026020526000908152604090205481565b610297610829366004613fe1565b611da3565b61029761083c3660046140a9565b612107565b34801561084d57600080fd5b506105ae61085c366004614124565b61215b565b34801561086d57600080fd5b5061029761087c366004613f61565b61236f565b34801561088d57600080fd5b506102cb61089c366004613bd7565b61242a565b3480156108ad57600080fd5b506102976108bc366004613bd7565b6125bc565b3480156108cd57600080fd5b506108e16108dc366004613bf4565b612634565b604080516001600160a01b039a8b168152988a1660208a015296909816958701959095526060860193909352608085019190915260a0840152151560c0830152151560e0820152610100810191909152610120016102d5565b34801561094657600080fd5b50610297610955366004613c20565b612801565b34801561096657600080fd5b50610a3c610975366004613bf4565b6001600160a01b0391821660009081526001602081815260408084209484529381529183902083516101408101855281548616815291810154851692820183905260028101549382018490526003810154851660608301819052600482015490951660808301819052600582015460a08401819052600683015460ff908116151560c08601819052600785015460e0870181905260088601549092161515610100870181905260099095015461012090960186905295989697969295919491939092909190565b604080516001600160a01b039a8b1681526020810199909952968916968801969096529690931660608601526080850191909152151560a084015260c083015291151560e0820152610100810191909152610120016102d5565b348015610aa257600080fd5b506102cb610ab1366004613bd7565b60046020526000908152604090205481565b348015610acf57600080fd5b50610297610ade366004614169565b612bec565b348015610aef57600080fd5b50610b68610afe366004613bf4565b600360208181526000938452604080852090915291835291208054600182015460028301549383015460048401546005850154600686015460078701546008909701546001600160a01b039687169895871697959690941694929360ff9283169391929091169089565b604080516001600160a01b039a8b168152988a1660208a01528801969096529690931660608601526080850191909152151560a084015260c083015291151560e0820152610100810191909152610120016102d5565b348015610bca57600080fd5b50610297610bd9366004613c62565b612d2b565b348015610bea57600080fd5b50600a5461047d906001600160a01b031681565b348015610c0a57600080fd5b50600b5461047d906001600160a01b031681565b348015610c2a57600080fd5b50610297610c39366004613c62565b612f81565b610c46612fe0565b6001600160a01b0380841660009081526005602090815260408083208684528252808320815161010081018352815490951685526001810180548351818602810186019094528084529495949193858101939290830182828015610cd357602002820191906000526020600020905b81546001600160a01b03168152600190910190602001808311610cb5575b5050509183525050600282015460208201526003820154604082015260048201546060820152600582015460ff8082161515608084015261010090910416151560a082015260069091015460c09091015280519091506001600160a01b0316610d4e5760405162461bcd60e51b815260040161028e906141d7565b8060a0015115610d8657610d6a8160200151826080015161215b565b610d865760405162461bcd60e51b815260040161028e9061420e565b6001600160a01b0384166000908152600560209081526040808320868452909152812080546001600160a01b031916815590610dc56001830182613b2a565b50600060028201819055600382018190556004820181905560058201805461ffff191690556006909101819055600b54604083015160208401518051610e3e946001600160a01b039094169390610e1e57610e1e614254565b60200260200101516001600160a01b031661300a9092919063ffffffff16565b600854602082015180516000926001600160a01b03169190610e6290600190614280565b81518110610e7257610e72614254565b60200260200101516001600160a01b0316148015610e9157508160c001515b15610ebe57610ea9826020015183606001513061305c565b9050610eb9818360000151613190565b610ed8565b610ed582602001518360600151846000015161305c565b90505b610ee68260e0015184613190565b846001600160a01b03167f7e1fe496989eea92b738a562dbf9c0ae6aa6fcf3f1ef09e95ee4f7603721706b858460200151856040015186606001518688608001518960a001518a60c001518b60e00151604051610f4b999897969594939291906142d7565b60405180910390a25050610f5f6001600055565b505050565b6007546001600160a01b03163314610f8e5760405162461bcd60e51b815260040161028e9061432e565b600d8190556040518181527fe46d9daf6d25f7615efa1d0183b90ac6759d85014b598e409aadf0fd918d59a6906020015b60405180910390a150565b610fd2612fe0565b6001600160a01b03808416600090815260036020818152604080842087855282529283902083516101208101855281548616808252600183015487169382019390935260028201549481019490945291820154909316606083015260048101546080830152600581015460ff908116151560a0840152600682015460c0840152600782015416151560e083015260080154610100820152906110865760405162461bcd60e51b815260040161028e906141d7565b60006110a78260e001518360c0015184606001518560a001511560016117fe565b506001600160a01b0386811660009081526003602081815260408084208a8552825280842080546001600160a01b0319908116825560018201805482169055600282018690559381018054909416909355600480840185905560058401805460ff199081169091556006850186905560078501805490911690556008909301849055600a5488519289015160608a01518a84015160808c015160a08d01519551632662166b60e01b8152968a169787019790975291881660248601528716604485015260648401526084830193909352151560a48201523060c48201529394509092911690632662166b9060e4016020604051808303816000875af11580156111b4573d6000803e3d6000fd5b505050506040513d601f19601f820116820180604052508101906111d8919061435c565b60085460208501519192506001600160a01b0390811691160361120857611203818460000151613190565b611225565b82516020840151611225916001600160a01b03909116908361300a565b61123483610100015185613190565b82600001516001600160a01b03167f9a382661d6573da86db000471303be6f0b2b1bb66089b08e3c16a85d7b6e94f88685602001518660400151876060015188608001518960a001518a60c001518b60e001518c61010001518c6040516112f59a99989796959493929190998a526001600160a01b0398891660208b015260408a01979097529490961660608801526080870192909252151560a086015260c085015291151560e08401526101008301919091526101208201526101400190565b60405180910390a2505050610f5f6001600055565b611312612fe0565b875160021480611323575087516003145b61133f5760405162461bcd60e51b815260040161028e90614375565b876001895161134e9190614280565b8151811061135e5761135e614254565b60200260200101516001600160a01b03168860008151811061138257611382614254565b60200260200101516001600160a01b0316036113db5760405162461bcd60e51b815260206004820152601860248201527709ee4c8cae484deded67440d2dcecc2d8d2c840bee0c2e8d60431b604482015260640161028e565b6000871161142b5760405162461bcd60e51b815260206004820152601c60248201527f4f72646572426f6f6b3a20696e76616c6964205f616d6f756e74496e00000000604482015260640161028e565b600c5483101561144d5760405162461bcd60e51b815260040161028e906143ac565b611455613206565b81156114d85760085488516001600160a01b0390911690899060009061147d5761147d614254565b60200260200101516001600160a01b0316146114ab5760405162461bcd60e51b815260040161028e906143f1565b6114b58784614436565b34146114d35760405162461bcd60e51b815260040161028e90614449565b611597565b8234146114f75760405162461bcd60e51b815260040161028e9061448f565b600a5488516001600160a01b0390911690631b827878908a9060009061151f5761151f614254565b60209081029190910101516040516001600160e01b031960e084901b1681526001600160a01b039091166004820152336024820152306044820152606481018a9052608401600060405180830381600087803b15801561157e57600080fd5b505af1158015611592573d6000803e3d6000fd5b505050505b6115a7338989898989878a613272565b6115b16001600055565b5050505050505050565b6115c3612fe0565b33600090815260016020818152604080842085855282529283902083516101408101855281546001600160a01b039081168083529483015481169382019390935260028201549481019490945260038101548216606085015260048101549091166080840152600581015460a0840152600681015460ff908116151560c0850152600782015460e08501526008820154161515610100840152600901546101208301526116825760405162461bcd60e51b815260040161028e906141d7565b3360009081526001602081815260408084208685528252832080546001600160a01b0319908116825592810180548416905560028101849055600381018054841690556004810180549093169092556005820183905560068201805460ff19908116909155600783018490556008808401805490921690915560099092019290925554908201516001600160a01b0391821691160361173e5761173981604001518261012001516117339190614436565b33613190565b611773565b61176433826040015183602001516001600160a01b031661300a9092919063ffffffff16565b61177381610120015133613190565b80600001516001600160a01b03167fd500f34e0ec655b7614ae42e1d9c666d5e4dde909a1297829f8c5ecf00805d328383602001518460400151856060015186608001518760a001518860c001518960e001518a61010001518b61012001516040516117e89a999897969594939291906144dd565b60405180910390a2506117fb6001600055565b50565b60008060008461187b57600b546040516340d3096b60e11b81526001600160a01b038881166004830152909116906381a612d690602401602060405180830381865afa158015611852573d6000803e3d6000fd5b505050506040513d601f19601f82011682018060405250810190611876919061435c565b6118e9565b600b54604051637092736960e11b81526001600160a01b0388811660048301529091169063e124e6d290602401602060405180830381865afa1580156118c5573d6000803e3d6000fd5b505050506040513d601f19601f820116820180604052508101906118e9919061435c565b90506000886118fa578782106118fe565b8782115b9050841561192357806119235760405162461bcd60e51b815260040161028e9061420e565b909890975095505050505050565b60005b83518110156119715761195f84828151811061195257611952614254565b6020026020010151612d2b565b8061196981614534565b915050611934565b5060005b82518110156119b2576119a083828151811061199357611993614254565b60200260200101516115bb565b806119aa81614534565b915050611975565b5060005b81518110156119f3576119e18282815181106119d4576119d4614254565b6020026020010151611aef565b806119eb81614534565b9150506119b6565b50505050565b611a01612fe0565b336000908152600160209081526040808320878452909152902080546001600160a01b0316611a425760405162461bcd60e51b815260040161028e906141d7565b6007810183905560088101805460ff191683151590811790915560058201859055600382015460048301546006840154604080518a81526001600160a01b039485166020820152939092169183019190915260ff16151560608201526080810186905260a0810185905260c081019190915233907f0a0360dd5c354235bbf8d386ba3b24ef8134088e0785677de1504df219d9149a9060e0015b60405180910390a2506119f36001600055565b611af7612fe0565b33600090815260036020818152604080842085855282529283902083516101208101855281546001600160a01b03908116808352600184015482169483019490945260028301549582019590955292810154909316606083015260048301546080830152600583015460ff908116151560a0840152600684015460c0840152600784015416151560e083015260089092015461010082015290611bac5760405162461bcd60e51b815260040161028e906141d7565b336000818152600360208181526040808420878552909152822080546001600160a01b03199081168255600182018054821690556002820184905591810180549092169091556004810182905560058101805460ff1990811690915560068201839055600782018054909116905560080155610100820151611c2d91613190565b80600001516001600160a01b03167f1154174c82984656b028c8021671988f60a346497e56fe02554761184f82a0758383602001518460400151856060015186608001518760a001518860c001518960e001518a61010001516040516117e89998979695949392919061454d565b611ca3612fe0565b336000908152600360209081526040808320888452909152902080546001600160a01b0316611ce45760405162461bcd60e51b815260040161028e906141d7565b6006810183905560078101805460ff19168315159081179091556004820185905560028201869055600182015460038301546005840154604080518b81526001600160a01b0394851660208201529081018a90529290911660608301526080820187905260ff16151560a082015260c0810185905260e081019190915233907f75781255bc71c83f89f29e5a2599f2c174a562d2cd8f2e818a47f132e7280498906101000160405180910390a250611d9c6001600055565b5050505050565b611dab612fe0565b611db3613206565b600c54821015611dd55760405162461bcd60e51b815260040161028e906143ac565b8015611e58576008548b516001600160a01b03909116908c90600090611dfd57611dfd614254565b60200260200101516001600160a01b031614611e2b5760405162461bcd60e51b815260040161028e906143f1565b611e358a83614436565b3414611e535760405162461bcd60e51b815260040161028e90614449565b611f17565b813414611e775760405162461bcd60e51b815260040161028e9061448f565b600a548b516001600160a01b0390911690631b827878908d90600090611e9f57611e9f614254565b60209081029190910101516040516001600160e01b031960e084901b1681526001600160a01b039091166004820152336024820152306044820152606481018d9052608401600060405180830381600087803b158015611efe57600080fd5b505af1158015611f12573d6000803e3d6000fd5b505050505b60008b60018d51611f289190614280565b81518110611f3857611f38614254565b60200260200101519050600060018d51111561200357816001600160a01b03168d600081518110611f6b57611f6b614254565b60200260200101516001600160a01b031603611fc45760405162461bcd60e51b815260206004820152601860248201527709ee4c8cae484deded67440d2dcecc2d8d2c840bee0c2e8d60431b604482015260640161028e565b611ff1600b60009054906101000a90046001600160a01b03168d8f600081518110610e1e57610e1e614254565b611ffc8d8b3061305c565b9050612006565b508a5b600b54604051630a48d5a960e01b81526001600160a01b038481166004830152602482018490526000921690630a48d5a990604401602060405180830381865afa158015612058573d6000803e3d6000fd5b505050506040513d601f19601f8201168201806040525081019061207c919061435c565b9050600d548110156120db5760405162461bcd60e51b815260206004820152602260248201527f4f72646572426f6f6b3a20696e73756666696369656e7420636f6c6c61746572604482015261185b60f21b606482015260840161028e565b506120ee3383838b8f8e8d8d8d8d6133ec565b50506120fa6001600055565b5050505050505050505050565b61210f612fe0565b612117613206565b600c5434116121385760405162461bcd60e51b815260040161028e906143ac565b6121483386868a8a8888886135a4565b6121526001600055565b50505050505050565b600082516002148061216e575082516003145b61218a5760405162461bcd60e51b815260040161028e90614375565b60008360008151811061219f5761219f614254565b60200260200101519050600084600186516121ba9190614280565b815181106121ca576121ca614254565b60200260200101519050600080600960009054906101000a90046001600160a01b03166001600160a01b0316846001600160a01b03160361222f576122288760018151811061221b5761221b614254565b602002602001015161242a565b91506122a0565b600b546040516340d3096b60e11b81526001600160a01b038681166004830152909116906381a612d690602401602060405180830381865afa158015612279573d6000803e3d6000fd5b505050506040513d601f19601f8201168201806040525081019061229d919061435c565b91505b6009546001600160a01b03908116908416036122ca57506c0c9f2c9cd04674edea4000000061233b565b600b54604051637092736960e11b81526001600160a01b0385811660048301529091169063e124e6d290602401602060405180830381865afa158015612314573d6000803e3d6000fd5b505050506040513d601f19601f82011682018060405250810190612338919061435c565b90505b6000826123556c0c9f2c9cd04674edea400000008461459d565b61235f91906145b4565b8710955050505050505b92915050565b612377612fe0565b336000908152600560209081526040808320878452909152902080546001600160a01b03166123b85760405162461bcd60e51b815260040161028e906141d7565b600381018490556004810183905560058101805460ff191683151517908190556002820154600683015460405133937fa7f9f4a25eb76f5ec01b1a429d95d6a00833f0f137c88827c58799a1c1ff0dfe93611adc938b9360018901938c928c928c9260ff6101009091041691906145d6565b600b54604051632c668ec160e01b81526001600160a01b038381166004830152670de0b6b3a764000060248301526000928392911690632c668ec190604401602060405180830381865afa158015612486573d6000803e3d6000fd5b505050506040513d601f19601f820116820180604052508101906124aa919061435c565b600b546040516340d3096b60e11b81526001600160a01b038681166004830152929350600092909116906381a612d690602401602060405180830381865afa1580156124fa573d6000803e3d6000fd5b505050506040513d601f19601f8201168201806040525081019061251e919061435c565b600b546040516323b95ceb60e21b81526001600160a01b03878116600483015292935060009290911690638ee573ac90602401602060405180830381865afa15801561256e573d6000803e3d6000fd5b505050506040513d601f19601f82011682018060405250810190612592919061435c565b905061259f81600a614746565b6125a9838561459d565b6125b391906145b4565b95945050505050565b6007546001600160a01b031633146125e65760405162461bcd60e51b815260040161028e9061432e565b600780546001600160a01b0319166001600160a01b0383169081179091556040519081527fe24c39186e9137521953beaa8446e71f55b8f12296984f9d4273ceb1af728d9090602001610fbf565b6001600160a01b0380831660009081526005602090815260408083208584528252808320815161010081018352815490951685526001810180548351818602810186019094528084529495869586958695869586958695869586958695929493858201939290918301828280156126d457602002820191906000526020600020905b81546001600160a01b031681526001909101906020018083116126b6575b505050918352505060028201546020808301919091526003830154604083015260048301546060830152600583015460ff8082161515608085015261010090910416151560a083015260069092015460c0909101528101515190915061273b57600061275b565b806020015160008151811061275257612752614254565b60200260200101515b60018260200151511161276f57600061278f565b816020015160018151811061278657612786614254565b60200260200101515b6002836020015151116127a35760006127c3565b82602001516002815181106127ba576127ba614254565b60200260200101515b8360400151846060015185608001518660a001518760c001518860e00151995099509950995099509950995099509950509295985092959850929598565b612809612fe0565b6001600160a01b038084166000908152600160208181526040808420878552825292839020835161014081018552815486168082529382015486169281019290925260028101549382019390935260038301548416606082015260048301549093166080840152600582015460a0840152600682015460ff908116151560c0850152600783015460e085015260088301541615156101008401526009909101546101208301526128cb5760405162461bcd60e51b815260040161028e906141d7565b60006128ec8261010001518360e0015184608001518560c0015160016117fe565b506001600160a01b0380871660009081526001602081815260408084208a8552825280842080546001600160a01b0319908116825593810180548516905560028101859055600381018054851690556004810180549094169093556005830184905560068301805460ff19908116909155600784018590556008840180549091169055600990920192909255600b54908601519186015193945061299493831692169061300a565b81606001516001600160a01b031682602001516001600160a01b031614612a79576040805160028082526060820183526000926020830190803683370190505090508260200151816000815181106129ee576129ee614254565b60200260200101906001600160a01b031690816001600160a01b031681525050826060015181600181518110612a2657612a26614254565b60200260200101906001600160a01b031690816001600160a01b0316815250506000612a548260003061305c565b600b546060860151919250612a76916001600160a01b0390811691168361300a565b50505b600a5482516060840151608085015160a086015160c0870151604051630f8ee8bb60e11b81526001600160a01b03958616600482015293851660248501529184166044840152606483015215156084820152911690631f1dd1769060a401600060405180830381600087803b158015612af157600080fd5b505af1158015612b05573d6000803e3d6000fd5b50505050612b1882610120015184613190565b81600001516001600160a01b03167f7fb1c74d1ea6aa1c9c585e17ce8274c8ff98745e85e7459b73f87d784494f58e8584602001518560400151866060015187608001518860a001518960c001518a60e001518b61010001518c61012001518c604051610f4b9b9a999897969594939291909a8b526001600160a01b03998a1660208c015260408b019890985295881660608a015293909616608088015260a0870191909152151560c086015260e08501939093529115156101008401526101208301919091526101408201526101600190565b6007546001600160a01b03163314612c165760405162461bcd60e51b815260040161028e9061432e565b600e5460ff1615612c695760405162461bcd60e51b815260206004820152601e60248201527f4f72646572426f6f6b3a20616c726561647920696e697469616c697a65640000604482015260640161028e565b600e805460ff19166001179055600a80546001600160a01b038881166001600160a01b03199283168117909355600b8054898316908416811790915560088054898416908516811790915560098054938916939094168317909355600c869055600d85905560408051948552602085019190915283019190915260608201526080810183905260a081018290527fcfb7ef8749fafc8da2af1ba3d025479ffc4e58f7dc420113e112512a3bda59639060c00160405180910390a1505050505050565b612d33612fe0565b336000908152600560209081526040808320848452825280832081516101008101835281546001600160a01b031681526001820180548451818702810187019095528085529194929385840193909290830182828015612dbc57602002820191906000526020600020905b81546001600160a01b03168152600190910190602001808311612d9e575b5050509183525050600282015460208201526003820154604082015260048201546060820152600582015460ff8082161515608084015261010090910416151560a082015260069091015460c09091015280519091506001600160a01b0316612e375760405162461bcd60e51b815260040161028e906141d7565b336000908152600560209081526040808320858452909152812080546001600160a01b031916815590612e6d6001830182613b2a565b50600060028201819055600382018190556004820181905560058201805461ffff191690556006909101819055600854602083015180516001600160a01b03909216929091612ebe57612ebe614254565b60200260200101516001600160a01b031603612ef057612eeb81604001518260e001516117339190614436565b612f1e565b612f103382604001518360200151600081518110610e1e57610e1e614254565b612f1e8160e0015133613190565b336001600160a01b03167fefd66d4f9c2f880c70aedeb5b26a44fb474cea07e5d6c533f2d27c303d5d94538383602001518460400151856060015186608001518760a001518860c001518960e001516040516117e8989796959493929190614752565b6007546001600160a01b03163314612fab5760405162461bcd60e51b815260040161028e9061432e565b600c8190556040518181527fbde5eafdc37b81830d70124cddccaaa6d034e71dda3c8fc18a959ca76a7cbcfc90602001610fbf565b60026000540361300357604051633ee5aeb560e01b815260040160405180910390fd5b6002600055565b604080516001600160a01b038416602482015260448082018490528251808303909101815260649091019091526020810180516001600160e01b031663a9059cbb60e01b179052610f5f908490613725565b600083516002036130ae576130a78460008151811061307d5761307d614254565b60200260200101518560018151811061309857613098614254565b60200260200101518585613788565b9050613189565b83516003036131715760006130fa856000815181106130cf576130cf614254565b6020026020010151866001815181106130ea576130ea614254565b6020026020010151600030613788565b9050613129600b60009054906101000a90046001600160a01b03168287600181518110610e1e57610e1e614254565b6131698560018151811061313f5761313f614254565b60200260200101518660028151811061315a5761315a614254565b60200260200101518686613788565b915050613189565b60405162461bcd60e51b815260040161028e90614375565b9392505050565b600854604051632e1a7d4d60e01b8152600481018490526001600160a01b0390911690632e1a7d4d90602401600060405180830381600087803b1580156131d657600080fd5b505af11580156131ea573d6000803e3d6000fd5b50613202925050506001600160a01b0382168361395b565b5050565b341561327057600860009054906101000a90046001600160a01b03166001600160a01b031663d0e30db0346040518263ffffffff1660e01b81526004016000604051808303818588803b15801561325c57600080fd5b505af1158015611d9c573d6000803e3d6000fd5b565b6001600160a01b038816600081815260066020908152604091829020548251610100810184529384529083018a9052908201889052606082018790526080820186905284151560a083015283151560c083015260e08201839052906132d8826001614436565b6001600160a01b038b8116600090815260066020908152604080832094909455600581528382208683528152929020835181546001600160a01b03191692169190911781558282015180518493613336926001850192910190613b48565b506040828101516002830155606083015160038301556080830151600483015560a083015160058301805460c086015115156101000261ff00199315159390931661ffff199091161791909117905560e090920151600690910155516001600160a01b038b16907fdf06bb56ffc4029dc0b62b68bb5bbadea93a38b530cefc9b81afb742a6555d88906133d89085908d908d908d908d908d908d908d90614752565b60405180910390a250505050505050505050565b33600090815260026020908152604091829020548251610140810184526001600160a01b038e811682528d8116938201939093529283018b90528982166060840152908816608083015260a0820187905285151560c083015260e08201859052831515610100830152610120820183905290613469826001614436565b6001600160a01b03808e166000818152600260208181526040808420969096556001808252868420898552825292869020875181549087166001600160a01b0319918216178255918801519381018054948716948316949094179093558686015191830191909155606086015160038301805491861691831691909117905560808601516004830180549190951691161790925560a0840151600583015560c084015160068301805491151560ff1992831617905560e085015160078401556101008501516008840180549115159190921617905561012084015160099092019190915590517fb27b9afe3043b93788c40cfc3cc73f5d928a2e40f3ba01820b246426de8fa1b99061358e9085908f908f908f908f908f908f908f908f908f906144dd565b60405180910390a2505050505050505050505050565b6001600160a01b03808916600081815260046020908152604091829020548251610120810184529384528b85169184019190915290820189905291871660608201526080810186905284151560a082015260c0810184905282151560e082015234610100820152613616826001614436565b6001600160a01b03808c166000818152600460208181526040808420969096556003808252868420898552825292869020875181549087166001600160a01b0319918216178255918801516001820180549188169184169190911790558787015160028201556060880151938101805494909616939091169290921790935560808501519281019290925560a084015160058301805491151560ff1992831617905560c0850151600684015560e08501516007840180549115159190921617905561010084015160089092019190915590517f48ee333d2a65cc45fdb83bc012920d89181c3377390cd239d2b63f2bef67a02d906133d89085908d908d908d908d908d908d908d90349061454d565b600061373a6001600160a01b038416836139f2565b9050805160001415801561375f57508080602001905181019061375d91906147a1565b155b15610f5f57604051635274afe760e01b81526001600160a01b038416600482015260240161028e565b60095460009081906001600160a01b039081169086160361382357600b5460405163734aaa3760e11b81526001600160a01b03888116600483015285811660248301529091169063e695546e906044015b6020604051808303816000875af11580156137f8573d6000803e3d6000fd5b505050506040513d601f19601f8201168201806040525081019061381c919061435c565b90506138f6565b6009546001600160a01b039081169087160361387357600b54604051633b699bdd60e21b81526001600160a01b03878116600483015285811660248301529091169063eda66f74906044016137d9565b600b54604051634998b10960e11b81526001600160a01b03888116600483015287811660248301528581166044830152909116906393316212906064016020604051808303816000875af11580156138cf573d6000803e3d6000fd5b505050506040513d601f19601f820116820180604052508101906138f3919061435c565b90505b838110156139505760405162461bcd60e51b815260206004820152602160248201527f4f72646572426f6f6b3a20696e73756666696369656e7420616d6f756e744f756044820152601d60fa1b606482015260840161028e565b90505b949350505050565b8047101561397e5760405163cd78605960e01b815230600482015260240161028e565b6000826001600160a01b03168260405160006040518083038185875af1925050503d80600081146139cb576040519150601f19603f3d011682016040523d82523d6000602084013e6139d0565b606091505b5050905080610f5f57604051630a12f52160e11b815260040160405180910390fd5b606061318983836000613a03613a1c565b604051630a12f52160e11b815260040160405180910390fd5b606082471015613a415760405163cd78605960e01b815230600482015260240161028e565b600080866001600160a01b03168587604051613a5d91906147be565b60006040518083038185875af1925050503d8060008114613a9a576040519150601f19603f3d011682016040523d82523d6000602084013e613a9f565b606091505b5091509150613ab087838387613abb565b979650505050505050565b60608315613b09578251600003613b0257846001600160a01b03163b600003613b0257604051639996b31560e01b81526001600160a01b038616600482015260240161028e565b5081613953565b6139538383815115613b1e5781518083602001fd5b613a038163ffffffff16565b50805460008255906000526020600020908101906117fb9190613bad565b828054828255906000526020600020908101928215613b9d579160200282015b82811115613b9d57825182546001600160a01b0319166001600160a01b03909116178255602090920191600190910190613b68565b50613ba9929150613bad565b5090565b5b80821115613ba95760008155600101613bae565b6001600160a01b03811681146117fb57600080fd5b600060208284031215613be957600080fd5b813561318981613bc2565b60008060408385031215613c0757600080fd5b8235613c1281613bc2565b946020939093013593505050565b600080600060608486031215613c3557600080fd5b8335613c4081613bc2565b9250602084013591506040840135613c5781613bc2565b809150509250925092565b600060208284031215613c7457600080fd5b5035919050565b634e487b7160e01b600052604160045260246000fd5b604051601f8201601f1916810167ffffffffffffffff81118282101715613cba57613cba613c7b565b604052919050565b600067ffffffffffffffff821115613cdc57613cdc613c7b565b5060051b60200190565b600082601f830112613cf757600080fd5b81356020613d0c613d0783613cc2565b613c91565b82815260059290921b84018101918181019086841115613d2b57600080fd5b8286015b84811015613d4f578035613d4281613bc2565b8352918301918301613d2f565b509695505050505050565b80151581146117fb57600080fd5b8035613d7381613d5a565b919050565b600080600080600080600080610100898b031215613d9557600080fd5b883567ffffffffffffffff811115613dac57600080fd5b613db88b828c01613ce6565b9850506020890135965060408901359550606089013594506080890135613dde81613d5a565b935060a0890135925060c0890135613df581613d5a565b915060e0890135613e0581613d5a565b809150509295985092959890939650565b600080600080600060a08688031215613e2e57600080fd5b8535613e3981613d5a565b9450602086013593506040860135613e5081613bc2565b92506060860135613e6081613d5a565b91506080860135613e7081613d5a565b809150509295509295909350565b600082601f830112613e8f57600080fd5b81356020613e9f613d0783613cc2565b82815260059290921b84018101918181019086841115613ebe57600080fd5b8286015b84811015613d4f5780358352918301918301613ec2565b600080600060608486031215613eee57600080fd5b833567ffffffffffffffff80821115613f0657600080fd5b613f1287838801613e7e565b94506020860135915080821115613f2857600080fd5b613f3487838801613e7e565b93506040860135915080821115613f4a57600080fd5b50613f5786828701613e7e565b9150509250925092565b60008060008060808587031215613f7757600080fd5b8435935060208501359250604085013591506060850135613f9781613d5a565b939692955090935050565b600080600080600060a08688031215613fba57600080fd5b853594506020860135935060408601359250606086013591506080860135613e7081613d5a565b60008060008060008060008060008060006101608c8e03121561400357600080fd5b8b3567ffffffffffffffff81111561401a57600080fd5b6140268e828f01613ce6565b9b505060208c0135995060408c013561403e81613bc2565b985060608c0135975060808c0135965060a08c013561405c81613bc2565b955061406a60c08d01613d68565b945060e08c013593506140806101008d01613d68565b92506101208c013591506140976101408d01613d68565b90509295989b509295989b9093969950565b600080600080600080600060e0888a0312156140c457600080fd5b87356140cf81613bc2565b96506020880135955060408801356140e681613bc2565b94506060880135935060808801356140fd81613d5a565b925060a0880135915060c088013561411481613d5a565b8091505092959891949750929550565b6000806040838503121561413757600080fd5b823567ffffffffffffffff81111561414e57600080fd5b61415a85828601613ce6565b95602094909401359450505050565b60008060008060008060c0878903121561418257600080fd5b863561418d81613bc2565b9550602087013561419d81613bc2565b945060408701356141ad81613bc2565b935060608701356141bd81613bc2565b9598949750929560808101359460a0909101359350915050565b6020808252601d908201527f4f72646572426f6f6b3a206e6f6e2d6578697374656e74206f72646572000000604082015260600190565b60208082526026908201527f4f72646572426f6f6b3a20696e76616c696420707269636520666f722065786560408201526531baba34b7b760d11b606082015260800190565b634e487b7160e01b600052603260045260246000fd5b634e487b7160e01b600052601160045260246000fd5b818103818111156123695761236961426a565b600081518084526020808501945080840160005b838110156142cc5781516001600160a01b0316875295820195908201906001016142a7565b509495945050505050565b60006101208b83528060208401526142f18184018c614293565b604084019a909a5250506060810196909652608086019490945260a0850192909252151560c0840152151560e08301526101009091015292915050565b60208082526014908201527327b93232b92137b7b59d103337b93134b23232b760611b604082015260600190565b60006020828403121561436e57600080fd5b5051919050565b6020808252601f908201527f4f72646572426f6f6b3a20696e76616c6964205f706174682e6c656e67746800604082015260600190565b60208082526025908201527f4f72646572426f6f6b3a20696e73756666696369656e7420657865637574696f6040820152646e2066656560d81b606082015260800190565b60208082526025908201527f4f72646572426f6f6b3a206f6e6c79207765746820636f756c64206265207772604082015264185c1c195960da1b606082015260800190565b808201808211156123695761236961426a565b60208082526026908201527f4f72646572426f6f6b3a20696e636f72726563742076616c7565207472616e7360408201526519995c9c995960d21b606082015260800190565b6020808252602e908201527f4f72646572426f6f6b3a20696e636f727265637420657865637574696f6e206660408201526d1959481d1c985b9cd9995c9c995960921b606082015260800190565b998a526001600160a01b0398891660208b015260408a0197909752948716606089015292909516608087015260a086015292151560c085015260e08401929092529015156101008301526101208201526101400190565b6000600182016145465761454661426a565b5060010190565b9889526001600160a01b0397881660208a015260408901969096529390951660608701526080860191909152151560a085015260c084019290925290151560e08301526101008201526101200190565b80820281158282048414176123695761236961426a565b6000826145d157634e487b7160e01b600052601260045260246000fd5b500490565b8881526101006020808301829052895491830182905260008a8152818120909261012085019290845b818110156146245783546001600160a01b0316855293820193600193840193016145ff565b505050508091505087604083015286606083015285608083015261464c60a083018615159052565b92151560c082015260e001529695505050505050565b600181815b8085111561469d5781600019048211156146835761468361426a565b8085161561469057918102915b93841c9390800290614667565b509250929050565b6000826146b457506001612369565b816146c157506000612369565b81600181146146d757600281146146e1576146fd565b6001915050612369565b60ff8411156146f2576146f261426a565b50506001821b612369565b5060208310610133831016604e8410600b8410161715614720575081810a612369565b61472a8383614662565b806000190482111561473e5761473e61426a565b029392505050565b600061318983836146a5565b60006101008a835280602084015261476c8184018b614293565b604084019990995250506060810195909552608085019390935290151560a0840152151560c083015260e09091015292915050565b6000602082840312156147b357600080fd5b815161318981613d5a565b6000825160005b818110156147df57602081860181015185830152016147c5565b50600092019182525091905056fea2646970667358221220ae8c70e3ccc8a8d30b52d272283002bdcf09110a097496b6a637f00f5c34622e64736f6c63430008120033","linkReferences":{}},"methodIdentifiers":{"PRICE_PRECISION()":"95082d25","USDP_PRECISION()":"3c14269a","cancelDecreaseOrder(uint256)":"9e71b0f0","cancelIncreaseOrder(uint256)":"47e0bbd0","cancelMultiple(uint256[],uint256[],uint256[])":"807c5600","cancelSwapOrder(uint256)":"f882ac07","createDecreaseOrder(address,uint256,address,uint256,bool,uint256,bool)":"c16cde8a","createIncreaseOrder(address[],uint256,address,uint256,uint256,address,bool,uint256,bool,uint256,bool)":"b142a4b0","createSwapOrder(address[],uint256,uint256,uint256,bool,uint256,bool,bool)":"269ae6c2","decreaseOrders(address,uint256)":"f2d2e01b","decreaseOrdersIndex(address)":"d566d0ca","executeDecreaseOrder(address,uint256,address)":"11d9444a","executeIncreaseOrder(address,uint256,address)":"d38ab519","executeSwapOrder(address,uint256,address)":"07c7edc3","getDecreaseOrder(address,uint256)":"026032ee","getIncreaseOrder(address,uint256)":"d3bab1d1","getSwapOrder(address,uint256)":"d0d40cd6","getUsdpMinPrice(address)":"ce356b10","gov()":"12d43a51","increaseOrders(address,uint256)":"2b7d6290","increaseOrdersIndex(address)":"aec22455","initialize(address,address,address,address,uint256,uint256)":"d7c41c79","isInitialized()":"392e53cd","minExecutionFee()":"63ae2103","minPurchaseTokenAmountUsd()":"8de10c2e","router()":"f887ea40","setGov(address)":"cfad57a2","setMinExecutionFee(uint256)":"fc2cee62","setMinPurchaseTokenAmountUsd(uint256)":"0d5cc938","swapOrders(address,uint256)":"79221fa2","swapOrdersIndex(address)":"00cf066b","updateDecreaseOrder(uint256,uint256,uint256,uint256,bool)":"a397ea54","updateIncreaseOrder(uint256,uint256,uint256,bool)":"9983ee1b","updateSwapOrder(uint256,uint256,uint256,bool)":"c86b0f7d","usdp()":"74e6076c","validatePositionOrderPrice(bool,uint256,address,bool,bool)":"4c54f0b0","validateSwapOrderPriceWithTriggerAboveThreshold(address[],uint256)":"c4a1821b","vault()":"fbfa77cf","weth()":"3fc8cef3"},"id":31}