{"abi":[{"type":"constructor","inputs":[{"name":"_brrrManager","type":"address","internalType":"contract IBrrrManager"},{"name":"_stakedBrrrTracker","type":"address","internalType":"address"}],"stateMutability":"nonpayable"},{"type":"function","name":"allowance","inputs":[{"name":"_owner","type":"address","internalType":"address"},{"name":"_spender","type":"address","internalType":"address"}],"outputs":[{"name":"","type":"uint256","internalType":"uint256"}],"stateMutability":"view"},{"type":"function","name":"allowances","inputs":[{"name":"","type":"address","internalType":"address"},{"name":"","type":"address","internalType":"address"}],"outputs":[{"name":"","type":"uint256","internalType":"uint256"}],"stateMutability":"view"},{"type":"function","name":"approve","inputs":[{"name":"_spender","type":"address","internalType":"address"},{"name":"_amount","type":"uint256","internalType":"uint256"}],"outputs":[{"name":"","type":"bool","internalType":"bool"}],"stateMutability":"nonpayable"},{"type":"function","name":"brrrManager","inputs":[],"outputs":[{"name":"","type":"address","internalType":"contract IBrrrManager"}],"stateMutability":"view"},{"type":"function","name":"stakedBrrrTracker","inputs":[],"outputs":[{"name":"","type":"address","internalType":"address"}],"stateMutability":"view"},{"type":"function","name":"transfer","inputs":[{"name":"_recipient","type":"address","internalType":"address"},{"name":"_amount","type":"uint256","internalType":"uint256"}],"outputs":[{"name":"","type":"bool","internalType":"bool"}],"stateMutability":"nonpayable"},{"type":"function","name":"transferFrom","inputs":[{"name":"_sender","type":"address","internalType":"address"},{"name":"_recipient","type":"address","internalType":"address"},{"name":"_amount","type":"uint256","internalType":"uint256"}],"outputs":[{"name":"","type":"bool","internalType":"bool"}],"stateMutability":"nonpayable"},{"type":"event","name":"Approval","inputs":[{"name":"owner","type":"address","indexed":true,"internalType":"address"},{"name":"spender","type":"address","indexed":true,"internalType":"address"},{"name":"value","type":"uint256","indexed":false,"internalType":"uint256"}],"anonymous":false}],"bytecode":{"object":"0x608060405234801561001057600080fd5b5060405161080538038061080583398101604081905261002f91610078565b600080546001600160a01b039384166001600160a01b031991821617909155600180549290931691161790556100b2565b6001600160a01b038116811461007557600080fd5b50565b6000806040838503121561008b57600080fd5b825161009681610060565b60208401519092506100a781610060565b809150509250929050565b610744806100c16000396000f3fe608060405234801561001057600080fd5b506004361061007d5760003560e01c8063a9059cbb1161005b578063a9059cbb146100f6578063dd62ed3e14610109578063e76ab00f14610142578063ebb071be1461016d57600080fd5b8063095ea7b31461008257806323b872dd146100aa57806355b6ed5c146100bd575b600080fd5b6100956100903660046105f7565b610180565b60405190151581526020015b60405180910390f35b6100956100b8366004610621565b610197565b6100e86100cb36600461065d565b600260209081526000928352604080842090915290825290205481565b6040519081526020016100a1565b6100956101043660046105f7565b6101eb565b6100e861011736600461065d565b6001600160a01b03918216600090815260026020908152604080832093909416825291909152205490565b600054610155906001600160a01b031681565b6040516001600160a01b0390911681526020016100a1565b600154610155906001600160a01b031681565b600061018d3384846101f8565b5060015b92915050565b6001600160a01b038316600090815260026020908152604080832033845290915281205481906101c89084906106a6565b90506101d58533836101f8565b6101e085858561032e565b506001949350505050565b600061018d33848461032e565b6001600160a01b0383166102665760405162461bcd60e51b815260206004820152602a60248201527f4272727242616c616e63653a20617070726f76652066726f6d20746865207a65604482015269726f206164647265737360b01b60648201526084015b60405180910390fd5b6001600160a01b0382166102cd5760405162461bcd60e51b815260206004820152602860248201527f4272727242616c616e63653a20617070726f766520746f20746865207a65726f604482015267206164647265737360c01b606482015260840161025d565b6001600160a01b0383811660008181526002602090815260408083209487168084529482529182902085905590518481527f8c5be1e5ebec7d5bd14f71427d1e84f3dd0314c0f7b2291e5b200ac8c7c3b925910160405180910390a3505050565b6001600160a01b0383166103985760405162461bcd60e51b815260206004820152602b60248201527f4272727242616c616e63653a207472616e736665722066726f6d20746865207a60448201526a65726f206164647265737360a81b606482015260840161025d565b6001600160a01b0382166104005760405162461bcd60e51b815260206004820152602960248201527f4272727242616c616e63653a207472616e7366657220746f20746865207a65726044820152686f206164647265737360b81b606482015260840161025d565b4260008054906101000a90046001600160a01b03166001600160a01b031663352693156040518163ffffffff1660e01b81526004016020604051808303816000875af1158015610454573d6000803e3d6000fd5b505050506040513d601f19601f8201168201806040525081019061047891906106b9565b600054604051638b770e1160e01b81526001600160a01b03878116600483015290911690638b770e11906024016020604051808303816000875af11580156104c4573d6000803e3d6000fd5b505050506040513d601f19601f820116820180604052508101906104e891906106b9565b6104f291906106d2565b11156105565760405162461bcd60e51b815260206004820152602d60248201527f4272727242616c616e63653a20636f6f6c646f776e206475726174696f6e206e60448201526c1bdd081e595d081c185cdcd959609a1b606482015260840161025d565b6001546040516323b872dd60e01b81526001600160a01b038581166004830152848116602483015260448201849052909116906323b872dd906064016020604051808303816000875af11580156105b1573d6000803e3d6000fd5b505050506040513d601f19601f820116820180604052508101906105d591906106e5565b50505050565b80356001600160a01b03811681146105f257600080fd5b919050565b6000806040838503121561060a57600080fd5b610613836105db565b946020939093013593505050565b60008060006060848603121561063657600080fd5b61063f846105db565b925061064d602085016105db565b9150604084013590509250925092565b6000806040838503121561067057600080fd5b610679836105db565b9150610687602084016105db565b90509250929050565b634e487b7160e01b600052601160045260246000fd5b8181038181111561019157610191610690565b6000602082840312156106cb57600080fd5b5051919050565b8082018082111561019157610191610690565b6000602082840312156106f757600080fd5b8151801515811461070757600080fd5b939250505056fea26469706673582212206b27cd5cec4566995543a3fc5ae5be5729754fc93fb0866f3956a884e97fb41a64736f6c63430008120033","linkReferences":{}},"methodIdentifiers":{"allowance(address,address)":"dd62ed3e","allowances(address,address)":"55b6ed5c","approve(address,uint256)":"095ea7b3","brrrManager()":"e76ab00f","stakedBrrrTracker()":"ebb071be","transfer(address,uint256)":"a9059cbb","transferFrom(address,address,uint256)":"23b872dd"},"id":114}