{"abi":[{"type":"constructor","inputs":[],"stateMutability":"nonpayable"},{"type":"function","name":"gov","inputs":[],"outputs":[{"name":"","type":"address","internalType":"address"}],"stateMutability":"view"},{"type":"function","name":"setGov","inputs":[{"name":"_gov","type":"address","internalType":"address"}],"outputs":[],"stateMutability":"nonpayable"}],"bytecode":{"object":"0x608060405234801561001057600080fd5b50600080546001600160a01b031916331790556101b4806100326000396000f3fe608060405234801561001057600080fd5b50600436106100365760003560e01c806312d43a511461003b578063cfad57a21461006a575b600080fd5b60005461004e906001600160a01b031681565b6040516001600160a01b03909116815260200160405180910390f35b61007d61007836600461014e565b61007f565b005b6000546001600160a01b031633146100d65760405162461bcd60e51b815260206004820152601560248201527423b7bb32b93730b136329d103337b93134b23232b760591b60448201526064015b60405180910390fd5b6001600160a01b03811661012c5760405162461bcd60e51b815260206004820181905260248201527f476f7665726e61626c653a205f676f76206973207a65726f206164647265737360448201526064016100cd565b600080546001600160a01b0319166001600160a01b0392909216919091179055565b60006020828403121561016057600080fd5b81356001600160a01b038116811461017757600080fd5b939250505056fea2646970667358221220e11955668cf6b3e191782bc2b908ec0aaff4bdc03aaa2e431bc9d0518ed549cb64736f6c63430008120033","linkReferences":{}},"methodIdentifiers":{"gov()":"12d43a51","setGov(address)":"cfad57a2"},"id":30}