{
  "abi": [
    {
      "inputs": [],
      "stateMutability": "nonpayable",
      "type": "constructor"
    },
    {
      "inputs": [],
      "name": "BASIS_POINTS_DIVISOR",
      "outputs": [
        {
          "internalType": "uint256",
          "name": "",
          "type": "uint256"
        }
      ],
      "stateMutability": "view",
      "type": "function"
    },
    {
      "inputs": [],
      "name": "MAX_ADJUSTMENT_BASIS_POINTS",
      "outputs": [
        {
          "internalType": "uint256",
          "name": "",
          "type": "uint256"
        }
      ],
      "stateMutability": "view",
      "type": "function"
    },
    {
      "inputs": [],
      "name": "MAX_ADJUSTMENT_INTERVAL",
      "outputs": [
        {
          "internalType": "uint256",
          "name": "",
          "type": "uint256"
        }
      ],
      "stateMutability": "view",
      "type": "function"
    },
    {
      "inputs": [],
      "name": "MAX_SPREAD_BASIS_POINTS",
      "outputs": [
        {
          "internalType": "uint256",
          "name": "",
          "type": "uint256"
        }
      ],
      "stateMutability": "view",
      "type": "function"
    },
    {
      "inputs": [],
      "name": "ONE_USD",
      "outputs": [
        {
          "internalType": "uint256",
          "name": "",
          "type": "uint256"
        }
      ],
      "stateMutability": "view",
      "type": "function"
    },
    {
      "inputs": [],
      "name": "PRICE_PRECISION",
      "outputs": [
        {
          "internalType": "uint256",
          "name": "",
          "type": "uint256"
        }
      ],
      "stateMutability": "view",
      "type": "function"
    },
    {
      "inputs": [
        {
          "internalType": "address",
          "name": "",
          "type": "address"
        }
      ],
      "name": "adjustmentBasisPoints",
      "outputs": [
        {
          "internalType": "uint256",
          "name": "",
          "type": "uint256"
        }
      ],
      "stateMutability": "view",
      "type": "function"
    },
    {
      "inputs": [],
      "name": "bnb",
      "outputs": [
        {
          "internalType": "address",
          "name": "",
          "type": "address"
        }
      ],
      "stateMutability": "view",
      "type": "function"
    },
    {
      "inputs": [],
      "name": "bnbBusd",
      "outputs": [
        {
          "internalType": "address",
          "name": "",
          "type": "address"
        }
      ],
      "stateMutability": "view",
      "type": "function"
    },
    {
      "inputs": [],
      "name": "btc",
      "outputs": [
        {
          "internalType": "address",
          "name": "",
          "type": "address"
        }
      ],
      "stateMutability": "view",
      "type": "function"
    },
    {
      "inputs": [],
      "name": "btcBnb",
      "outputs": [
        {
          "internalType": "address",
          "name": "",
          "type": "address"
        }
      ],
      "stateMutability": "view",
      "type": "function"
    },
    {
      "inputs": [],
      "name": "eth",
      "outputs": [
        {
          "internalType": "address",
          "name": "",
          "type": "address"
        }
      ],
      "stateMutability": "view",
      "type": "function"
    },
    {
      "inputs": [],
      "name": "ethBnb",
      "outputs": [
        {
          "internalType": "address",
          "name": "",
          "type": "address"
        }
      ],
      "stateMutability": "view",
      "type": "function"
    },
    {
      "inputs": [],
      "name": "favorPrimaryPrice",
      "outputs": [
        {
          "internalType": "bool",
          "name": "",
          "type": "bool"
        }
      ],
      "stateMutability": "view",
      "type": "function"
    },
    {
      "inputs": [
        {
          "internalType": "address",
          "name": "_token",
          "type": "address"
        }
      ],
      "name": "getAmmPrice",
      "outputs": [
        {
          "internalType": "uint256",
          "name": "",
          "type": "uint256"
        }
      ],
      "stateMutability": "view",
      "type": "function"
    },
    {
      "inputs": [
        {
          "internalType": "address",
          "name": "_token",
          "type": "address"
        },
        {
          "internalType": "bool",
          "name": "_maximise",
          "type": "bool"
        },
        {
          "internalType": "uint256",
          "name": "_primaryPrice",
          "type": "uint256"
        }
      ],
      "name": "getAmmPriceV2",
      "outputs": [
        {
          "internalType": "uint256",
          "name": "",
          "type": "uint256"
        }
      ],
      "stateMutability": "view",
      "type": "function"
    },
    {
      "inputs": [
        {
          "internalType": "address",
          "name": "_token",
          "type": "address"
        }
      ],
      "name": "getLatestPrimaryPrice",
      "outputs": [
        {
          "internalType": "uint256",
          "name": "",
          "type": "uint256"
        }
      ],
      "stateMutability": "view",
      "type": "function"
    },
    {
      "inputs": [
        {
          "internalType": "address",
          "name": "_pair",
          "type": "address"
        },
        {
          "internalType": "bool",
          "name": "_divByReserve0",
          "type": "bool"
        }
      ],
      "name": "getPairPrice",
      "outputs": [
        {
          "internalType": "uint256",
          "name": "",
          "type": "uint256"
        }
      ],
      "stateMutability": "view",
      "type": "function"
    },
    {
      "inputs": [
        {
          "internalType": "address",
          "name": "_token",
          "type": "address"
        },
        {
          "internalType": "bool",
          "name": "_maximise",
          "type": "bool"
        },
        {
          "internalType": "bool",
          "name": "_includeAmmPrice",
          "type": "bool"
        },
        {
          "internalType": "bool",
          "name": "",
          "type": "bool"
        }
      ],
      "name": "getPrice",
      "outputs": [
        {
          "internalType": "uint256",
          "name": "",
          "type": "uint256"
        }
      ],
      "stateMutability": "view",
      "type": "function"
    },
    {
      "inputs": [
        {
          "internalType": "address",
          "name": "_token",
          "type": "address"
        },
        {
          "internalType": "bool",
          "name": "_maximise",
          "type": "bool"
        },
        {
          "internalType": "bool",
          "name": "_includeAmmPrice",
          "type": "bool"
        }
      ],
      "name": "getPriceV1",
      "outputs": [
        {
          "internalType": "uint256",
          "name": "",
          "type": "uint256"
        }
      ],
      "stateMutability": "view",
      "type": "function"
    },
    {
      "inputs": [
        {
          "internalType": "address",
          "name": "_token",
          "type": "address"
        },
        {
          "internalType": "bool",
          "name": "_maximise",
          "type": "bool"
        },
        {
          "internalType": "bool",
          "name": "_includeAmmPrice",
          "type": "bool"
        }
      ],
      "name": "getPriceV2",
      "outputs": [
        {
          "internalType": "uint256",
          "name": "",
          "type": "uint256"
        }
      ],
      "stateMutability": "view",
      "type": "function"
    },
    {
      "inputs": [
        {
          "internalType": "address",
          "name": "_token",
          "type": "address"
        },
        {
          "internalType": "bool",
          "name": "_maximise",
          "type": "bool"
        }
      ],
      "name": "getPrimaryPrice",
      "outputs": [
        {
          "internalType": "uint256",
          "name": "",
          "type": "uint256"
        }
      ],
      "stateMutability": "view",
      "type": "function"
    },
    {
      "inputs": [
        {
          "internalType": "address",
          "name": "_token",
          "type": "address"
        },
        {
          "internalType": "uint256",
          "name": "_referencePrice",
          "type": "uint256"
        },
        {
          "internalType": "bool",
          "name": "_maximise",
          "type": "bool"
        }
      ],
      "name": "getSecondaryPrice",
      "outputs": [
        {
          "internalType": "uint256",
          "name": "",
          "type": "uint256"
        }
      ],
      "stateMutability": "view",
      "type": "function"
    },
    {
      "inputs": [],
      "name": "gov",
      "outputs": [
        {
          "internalType": "address",
          "name": "",
          "type": "address"
        }
      ],
      "stateMutability": "view",
      "type": "function"
    },
    {
      "inputs": [
        {
          "internalType": "address",
          "name": "",
          "type": "address"
        }
      ],
      "name": "isAdjustmentAdditive",
      "outputs": [
        {
          "internalType": "bool",
          "name": "",
          "type": "bool"
        }
      ],
      "stateMutability": "view",
      "type": "function"
    },
    {
      "inputs": [],
      "name": "isAmmEnabled",
      "outputs": [
        {
          "internalType": "bool",
          "name": "",
          "type": "bool"
        }
      ],
      "stateMutability": "view",
      "type": "function"
    },
    {
      "inputs": [],
      "name": "isSecondaryPriceEnabled",
      "outputs": [
        {
          "internalType": "bool",
          "name": "",
          "type": "bool"
        }
      ],
      "stateMutability": "view",
      "type": "function"
    },
    {
      "inputs": [
        {
          "internalType": "address",
          "name": "",
          "type": "address"
        }
      ],
      "name": "lastAdjustmentTimings",
      "outputs": [
        {
          "internalType": "uint256",
          "name": "",
          "type": "uint256"
        }
      ],
      "stateMutability": "view",
      "type": "function"
    },
    {
      "inputs": [],
      "name": "maxStrictPriceDeviation",
      "outputs": [
        {
          "internalType": "uint256",
          "name": "",
          "type": "uint256"
        }
      ],
      "stateMutability": "view",
      "type": "function"
    },
    {
      "inputs": [
        {
          "internalType": "address",
          "name": "",
          "type": "address"
        }
      ],
      "name": "priceDecimals",
      "outputs": [
        {
          "internalType": "uint256",
          "name": "",
          "type": "uint256"
        }
      ],
      "stateMutability": "view",
      "type": "function"
    },
    {
      "inputs": [
        {
          "internalType": "address",
          "name": "",
          "type": "address"
        }
      ],
      "name": "priceFeeds",
      "outputs": [
        {
          "internalType": "address",
          "name": "",
          "type": "address"
        }
      ],
      "stateMutability": "view",
      "type": "function"
    },
    {
      "inputs": [],
      "name": "priceSampleSpace",
      "outputs": [
        {
          "internalType": "uint256",
          "name": "",
          "type": "uint256"
        }
      ],
      "stateMutability": "view",
      "type": "function"
    },
    {
      "inputs": [],
      "name": "secondaryPriceFeed",
      "outputs": [
        {
          "internalType": "address",
          "name": "",
          "type": "address"
        }
      ],
      "stateMutability": "view",
      "type": "function"
    },
    {
      "inputs": [
        {
          "internalType": "address",
          "name": "_token",
          "type": "address"
        },
        {
          "internalType": "bool",
          "name": "_isAdditive",
          "type": "bool"
        },
        {
          "internalType": "uint256",
          "name": "_adjustmentBps",
          "type": "uint256"
        }
      ],
      "name": "setAdjustment",
      "outputs": [],
      "stateMutability": "nonpayable",
      "type": "function"
    },
    {
      "inputs": [
        {
          "internalType": "bool",
          "name": "_favorPrimaryPrice",
          "type": "bool"
        }
      ],
      "name": "setFavorPrimaryPrice",
      "outputs": [],
      "stateMutability": "nonpayable",
      "type": "function"
    },
    {
      "inputs": [
        {
          "internalType": "address",
          "name": "_gov",
          "type": "address"
        }
      ],
      "name": "setGov",
      "outputs": [],
      "stateMutability": "nonpayable",
      "type": "function"
    },
    {
      "inputs": [
        {
          "internalType": "bool",
          "name": "_isEnabled",
          "type": "bool"
        }
      ],
      "name": "setIsAmmEnabled",
      "outputs": [],
      "stateMutability": "nonpayable",
      "type": "function"
    },
    {
      "inputs": [
        {
          "internalType": "bool",
          "name": "_isEnabled",
          "type": "bool"
        }
      ],
      "name": "setIsSecondaryPriceEnabled",
      "outputs": [],
      "stateMutability": "nonpayable",
      "type": "function"
    },
    {
      "inputs": [
        {
          "internalType": "uint256",
          "name": "_maxStrictPriceDeviation",
          "type": "uint256"
        }
      ],
      "name": "setMaxStrictPriceDeviation",
      "outputs": [],
      "stateMutability": "nonpayable",
      "type": "function"
    },
    {
      "inputs": [
        {
          "internalType": "address",
          "name": "_bnbBusd",
          "type": "address"
        },
        {
          "internalType": "address",
          "name": "_ethBnb",
          "type": "address"
        },
        {
          "internalType": "address",
          "name": "_btcBnb",
          "type": "address"
        }
      ],
      "name": "setPairs",
      "outputs": [],
      "stateMutability": "nonpayable",
      "type": "function"
    },
    {
      "inputs": [
        {
          "internalType": "uint256",
          "name": "_priceSampleSpace",
          "type": "uint256"
        }
      ],
      "name": "setPriceSampleSpace",
      "outputs": [],
      "stateMutability": "nonpayable",
      "type": "function"
    },
    {
      "inputs": [
        {
          "internalType": "address",
          "name": "_secondaryPriceFeed",
          "type": "address"
        }
      ],
      "name": "setSecondaryPriceFeed",
      "outputs": [],
      "stateMutability": "nonpayable",
      "type": "function"
    },
    {
      "inputs": [
        {
          "internalType": "address",
          "name": "_token",
          "type": "address"
        },
        {
          "internalType": "uint256",
          "name": "_spreadBasisPoints",
          "type": "uint256"
        }
      ],
      "name": "setSpreadBasisPoints",
      "outputs": [],
      "stateMutability": "nonpayable",
      "type": "function"
    },
    {
      "inputs": [
        {
          "internalType": "uint256",
          "name": "_spreadThresholdBasisPoints",
          "type": "uint256"
        }
      ],
      "name": "setSpreadThresholdBasisPoints",
      "outputs": [],
      "stateMutability": "nonpayable",
      "type": "function"
    },
    {
      "inputs": [
        {
          "internalType": "address",
          "name": "_token",
          "type": "address"
        },
        {
          "internalType": "address",
          "name": "_priceFeed",
          "type": "address"
        },
        {
          "internalType": "uint256",
          "name": "_priceDecimals",
          "type": "uint256"
        },
        {
          "internalType": "bool",
          "name": "_isStrictStable",
          "type": "bool"
        }
      ],
      "name": "setTokenConfig",
      "outputs": [],
      "stateMutability": "nonpayable",
      "type": "function"
    },
    {
      "inputs": [
        {
          "internalType": "address",
          "name": "_btc",
          "type": "address"
        },
        {
          "internalType": "address",
          "name": "_eth",
          "type": "address"
        },
        {
          "internalType": "address",
          "name": "_bnb",
          "type": "address"
        }
      ],
      "name": "setTokens",
      "outputs": [],
      "stateMutability": "nonpayable",
      "type": "function"
    },
    {
      "inputs": [
        {
          "internalType": "bool",
          "name": "_useV2Pricing",
          "type": "bool"
        }
      ],
      "name": "setUseV2Pricing",
      "outputs": [],
      "stateMutability": "nonpayable",
      "type": "function"
    },
    {
      "inputs": [
        {
          "internalType": "address",
          "name": "",
          "type": "address"
        }
      ],
      "name": "spreadBasisPoints",
      "outputs": [
        {
          "internalType": "uint256",
          "name": "",
          "type": "uint256"
        }
      ],
      "stateMutability": "view",
      "type": "function"
    },
    {
      "inputs": [],
      "name": "spreadThresholdBasisPoints",
      "outputs": [
        {
          "internalType": "uint256",
          "name": "",
          "type": "uint256"
        }
      ],
      "stateMutability": "view",
      "type": "function"
    },
    {
      "inputs": [
        {
          "internalType": "address",
          "name": "",
          "type": "address"
        }
      ],
      "name": "strictStableTokens",
      "outputs": [
        {
          "internalType": "bool",
          "name": "",
          "type": "bool"
        }
      ],
      "stateMutability": "view",
      "type": "function"
    },
    {
      "inputs": [],
      "name": "useV2Pricing",
      "outputs": [
        {
          "internalType": "bool",
          "name": "",
          "type": "bool"
        }
      ],
      "stateMutability": "view",
      "type": "function"
    }
  ],
  "bytecode": {
    "object": "0x60806040526000805463ffffffff60a01b191661010160a01b1781556003600155600255601e60045534801561003457600080fd5b50600080546001600160a01b03191633179055611d39806100566000396000f3fe608060405234801561001057600080fd5b50600436106102f15760003560e01c8063717cfe7a1161019d578063a27ea386116100e9578063b8f61105116100a2578063cfad57a21161007c578063cfad57a2146106c3578063d694376c146106d6578063eb1c92a9146106e9578063fd34ec40146106fc57600080fd5b8063b8f611051461066d578063c2138d8c14610690578063cefe0f21146106a357600080fd5b8063a27ea386146105f8578063a28d57d814610618578063a2ad7b931461062b578063a39c73a31461063e578063b02a2de414610647578063b731dd871461065a57600080fd5b8063971bd396116101565780639a0a6635116101305780639a0a6635146105a05780639b18dc47146105b35780639b889380146105bc5780639dcb511a146105cf57600080fd5b8063971bd3961461056757806397dfade71461057a5780639917dc741461058d57600080fd5b8063717cfe7a146104fb578063732391b41461051b5780638b86616c1461052e5780638c7c9e0c1461054157806393f690741461055457806395082d25146104bc57600080fd5b80633f0c3bb71161025c57806356bf9de411610215578063604f37e9116101ef578063604f37e9146104a957806367781c0e146104bc5780636ce8a44b146104cf5780636fc80708146104f257600080fd5b806356bf9de41461046f57806356c8c2c114610482578063593d9e801461049557600080fd5b80633f0c3bb7146103fa578063443be2091461040e57806348cac2771461042157806349a876e4146104415780634a4b1f4f146104545780634b9ade471461045c57600080fd5b80632fc3a70a116102ae5780632fc3a70a1461038057806330536ee514610393578063378e7bf7146103b75780633d949c5f146103c05780633eba8d36146103d35780633ebbc601146103e657600080fd5b80630957aed9146102f65780631193c80914610311578063126082cf1461033c57806312d43a51146103455780632fa03b8f146103585780632fbfe3d31461036d575b600080fd5b6102fe603281565b6040519081526020015b60405180910390f35b600954610324906001600160a01b031681565b6040516001600160a01b039091168152602001610308565b6102fe61271081565b600054610324906001600160a01b031681565b61036b610366366004611745565b61070f565b005b61036b61037b366004611745565b6107a9565b6102fe61038e36600461178a565b6107d8565b6000546103a790600160b01b900460ff1681565b6040519015158152602001610308565b6102fe60025481565b6102fe6103ce3660046117de565b6108a3565b6102fe6103e1366004611821565b610a8c565b6000546103a790600160a81b900460ff1681565b6000546103a790600160a01b900460ff1681565b61036b61041c366004611854565b610b2b565b6102fe61042f36600461188e565b600f6020526000908152604090205481565b600754610324906001600160a01b031681565b6102fe601481565b61036b61046a3660046118a9565b610b94565b6102fe61047d36600461188e565b610c13565b6102fe6104903660046118eb565b610cd8565b6000546103a790600160b81b900460ff1681565b61036b6104b736600461191e565b610ffc565b6102fe68327cb2734119d3b7a9601e1b81565b6103a76104dd36600461188e565b60106020526000908152604090205460ff1681565b6102fe60015481565b6102fe61050936600461188e565b60116020526000908152604090205481565b6102fe6105293660046117de565b611044565b600354610324906001600160a01b031681565b600654610324906001600160a01b031681565b61036b610562366004611854565b611099565b600a54610324906001600160a01b031681565b600854610324906001600160a01b031681565b61036b61059b36600461191e565b611102565b61036b6105ae36600461188e565b61114a565b6102fe611c2081565b61036b6105ca366004611939565b611196565b6103246105dd36600461188e565b600b602052600090815260409020546001600160a01b031681565b6102fe61060636600461188e565b600d6020526000908152604090205481565b600554610324906001600160a01b031681565b6102fe6106393660046118eb565b611240565b6102fe60045481565b6102fe610655366004611963565b61133e565b61036b610668366004611745565b611402565b6103a761067b36600461188e565b600e6020526000908152604090205460ff1681565b6102fe61069e36600461188e565b611431565b6102fe6106b136600461188e565b600c6020526000908152604090205481565b61036b6106d136600461188e565b611526565b61036b6106e4366004611963565b611572565b61036b6106f736600461191e565b6116b5565b61036b61070a36600461191e565b6116fd565b6000546001600160a01b031633146107425760405162461bcd60e51b81526004016107399061199f565b60405180910390fd5b600081116107a45760405162461bcd60e51b815260206004820152602960248201527f5661756c745072696365466565643a20696e76616c6964205f707269636553616044820152686d706c65537061636560b81b6064820152608401610739565b600155565b6000546001600160a01b031633146107d35760405162461bcd60e51b81526004016107399061199f565b600255565b600080548190600160b01b900460ff166107fc576107f78686866108a3565b610807565b610807868686611044565b6001600160a01b0387166000908152600f60205260409020549091508015610899576001600160a01b03871660009081526010602052604090205460ff1680156108735761271061085883826119ec565b61086290856119ff565b61086c9190611a16565b9250610897565b6127106108808382611a38565b61088a90856119ff565b6108949190611a16565b92505b505b5095945050505050565b6000806108b08585610cd8565b90508280156108c85750600054600160a01b900460ff165b1561090d5760006108d886611431565b9050801561090b578480156108ec57508181115b156108f5578091505b8415801561090257508181105b1561090b578091505b505b600054600160a81b900460ff161561092d5761092a858286610a8c565b90505b6001600160a01b0385166000908152600e602052604090205460ff1615610a1657600068327cb2734119d3b7a9601e1b821161097e576109798268327cb2734119d3b7a9601e1b611a38565b610994565b61099468327cb2734119d3b7a9601e1b83611a38565b905060025481116109b55768327cb2734119d3b7a9601e1b92505050610a85565b8480156109cd575068327cb2734119d3b7a9601e1b82115b156109da57509050610a85565b841580156109f3575068327cb2734119d3b7a9601e1b82105b15610a0057509050610a85565b68327cb2734119d3b7a9601e1b92505050610a85565b6001600160a01b0385166000908152600d60205260409020548415610a5f57612710610a4282826119ec565b610a4c90846119ff565b610a569190611a16565b92505050610a85565b612710610a6c8282611a38565b610a7690846119ff565b610a809190611a16565b925050505b9392505050565b6003546000906001600160a01b0316610aa6575081610a85565b600354604051630ffd9c6d60e31b81526001600160a01b03868116600483015260248201869052841515604483015290911690637fece36890606401602060405180830381865afa158015610aff573d6000803e3d6000fd5b505050506040513d601f19601f82011682018060405250810190610b239190611a4b565b949350505050565b6000546001600160a01b03163314610b555760405162461bcd60e51b81526004016107399061199f565b600580546001600160a01b039485166001600160a01b031991821617909155600680549385169382169390931790925560078054919093169116179055565b6000546001600160a01b03163314610bbe5760405162461bcd60e51b81526004016107399061199f565b6001600160a01b039384166000908152600b6020908152604080832080546001600160a01b0319169690971695909517909555600c855283812092909255600e90935220805460ff1916911515919091179055565b6001600160a01b038082166000908152600b602052604081205490911680610c4d5760405162461bcd60e51b815260040161073990611a64565b60008190506000816001600160a01b03166350d25bcd6040518163ffffffff1660e01b8152600401602060405180830381865afa158015610c92573d6000803e3d6000fd5b505050506040513d601f19601f82011682018060405250810190610cb69190611a4b565b905060008113610b235760405162461bcd60e51b815260040161073990611aa6565b6001600160a01b038083166000908152600b602052604081205490911680610d125760405162461bcd60e51b815260040161073990611a64565b6000819050600080826001600160a01b031663668a0f026040518163ffffffff1660e01b8152600401602060405180830381865afa158015610d58573d6000803e3d6000fd5b505050506040513d601f19601f82011682018060405250810190610d7c9190611af4565b905060005b600154816001600160501b03161015610f4b57806001600160501b0316826001600160501b03161115610f4b576000816001600160501b0316600003610e4e576000856001600160a01b03166350d25bcd6040518163ffffffff1660e01b8152600401602060405180830381865afa158015610e01573d6000803e3d6000fd5b505050506040513d601f19601f82011682018060405250810190610e259190611a4b565b905060008113610e475760405162461bcd60e51b815260040161073990611aa6565b9050610efa565b60006001600160a01b038616639a6fc8f5610e698587611b0f565b6040516001600160e01b031960e084901b1681526001600160501b03909116600482015260240160a060405180830381865afa158015610ead573d6000803e3d6000fd5b505050506040513d601f19601f82011682018060405250810190610ed19190611b36565b50505091505060008113610ef75760405162461bcd60e51b815260040161073990611aa6565b90505b83600003610f09579250610f39565b878015610f1557508381115b15610f21579250610f39565b87158015610f2e57508381105b15610f37578093505b505b80610f4381611b86565b915050610d81565b5060008211610faa5760405162461bcd60e51b815260206004820152602560248201527f5661756c745072696365466565643a20636f756c64206e6f7420666574636820604482015264707269636560d81b6064820152608401610739565b6001600160a01b0387166000908152600c6020526040902054610fce81600a611c90565b610fe468327cb2734119d3b7a9601e1b856119ff565b610fee9190611a16565b955050505050505b92915050565b6000546001600160a01b031633146110265760405162461bcd60e51b81526004016107399061199f565b60008054911515600160b81b0260ff60b81b19909216919091179055565b6000806110518585610cd8565b90508280156110695750600054600160a01b900460ff165b1561090d5761107985858361133e565b905060005460ff600160a81b909104161561092d5761092a858286610a8c565b6000546001600160a01b031633146110c35760405162461bcd60e51b81526004016107399061199f565b600880546001600160a01b039485166001600160a01b0319918216179091556009805493851693821693909317909255600a8054919093169116179055565b6000546001600160a01b0316331461112c5760405162461bcd60e51b81526004016107399061199f565b60008054911515600160a01b0260ff60a01b19909216919091179055565b6000546001600160a01b031633146111745760405162461bcd60e51b81526004016107399061199f565b600380546001600160a01b0319166001600160a01b0392909216919091179055565b6000546001600160a01b031633146111c05760405162461bcd60e51b81526004016107399061199f565b60328111156112245760405162461bcd60e51b815260206004820152602a60248201527f5661756c745072696365466565643a20696e76616c6964205f7370726561644260448201526961736973506f696e747360b01b6064820152608401610739565b6001600160a01b039091166000908152600d6020526040902055565b6000806000846001600160a01b0316630902f1ac6040518163ffffffff1660e01b8152600401606060405180830381865afa158015611283573d6000803e3d6000fd5b505050506040513d601f19601f820116820180604052508101906112a79190611cb3565b506001600160701b031691506001600160701b03169150831561130157816000036112d757600092505050610ff6565b816112ee68327cb2734119d3b7a9601e1b836119ff565b6112f89190611a16565b92505050610ff6565b8060000361131457600092505050610ff6565b8061132b68327cb2734119d3b7a9601e1b846119ff565b6113359190611a16565b95945050505050565b60008061134a85611431565b90508060000361135d5782915050610a85565b6000838211611375576113708285611a38565b61137f565b61137f8483611a38565b90506004548461138f91906119ff565b61139b612710836119ff565b10156113c557600054600160b81b900460ff16156113bd578392505050610a85565b509050610a85565b8480156113d157508382115b156113de57509050610a85565b841580156113eb57508382105b156113f857509050610a85565b5091949350505050565b6000546001600160a01b0316331461142c5760405162461bcd60e51b81526004016107399061199f565b600455565b6007546000906001600160a01b039081169083160361146157600854610ff6906001600160a01b03166001611240565b6006546001600160a01b03908116908316036114d157600854600090611491906001600160a01b03166001611240565b6009549091506000906114ae906001600160a01b03166001611240565b905068327cb2734119d3b7a9601e1b6114c782846119ff565b610b239190611a16565b6005546001600160a01b039081169083160361151e57600854600090611501906001600160a01b03166001611240565b600a549091506000906114ae906001600160a01b03166001611240565b506000919050565b6000546001600160a01b031633146115505760405162461bcd60e51b81526004016107399061199f565b600080546001600160a01b0319166001600160a01b0392909216919091179055565b6000546001600160a01b0316331461159c5760405162461bcd60e51b81526004016107399061199f565b6001600160a01b03831660009081526011602052604090205442906115c490611c20906119ec565b106116275760405162461bcd60e51b815260206004820152602d60248201527f5661756c745072696365466565643a2061646a7573746d656e7420667265717560448201526c195b98de48195e18d959591959609a1b6064820152608401610739565b60148111156116715760405162461bcd60e51b8152602060048201526016602482015275696e76616c6964205f61646a7573746d656e7442707360501b6044820152606401610739565b6001600160a01b03929092166000908152601060209081526040808320805460ff191694151594909417909355600f81528282209390935560119092529020429055565b6000546001600160a01b031633146116df5760405162461bcd60e51b81526004016107399061199f565b60008054911515600160a81b0260ff60a81b19909216919091179055565b6000546001600160a01b031633146117275760405162461bcd60e51b81526004016107399061199f565b60008054911515600160b01b0260ff60b01b19909216919091179055565b60006020828403121561175757600080fd5b5035919050565b80356001600160a01b038116811461177557600080fd5b919050565b8035801515811461177557600080fd5b600080600080608085870312156117a057600080fd5b6117a98561175e565b93506117b76020860161177a565b92506117c56040860161177a565b91506117d36060860161177a565b905092959194509250565b6000806000606084860312156117f357600080fd5b6117fc8461175e565b925061180a6020850161177a565b91506118186040850161177a565b90509250925092565b60008060006060848603121561183657600080fd5b61183f8461175e565b9250602084013591506118186040850161177a565b60008060006060848603121561186957600080fd5b6118728461175e565b92506118806020850161175e565b91506118186040850161175e565b6000602082840312156118a057600080fd5b610a858261175e565b600080600080608085870312156118bf57600080fd5b6118c88561175e565b93506118d66020860161175e565b9250604085013591506117d36060860161177a565b600080604083850312156118fe57600080fd5b6119078361175e565b91506119156020840161177a565b90509250929050565b60006020828403121561193057600080fd5b610a858261177a565b6000806040838503121561194c57600080fd5b6119558361175e565b946020939093013593505050565b60008060006060848603121561197857600080fd5b6119818461175e565b925061198f6020850161177a565b9150604084013590509250925092565b60208082526019908201527f5661756c745072696365466565643a20666f7262696464656e00000000000000604082015260600190565b634e487b7160e01b600052601160045260246000fd5b80820180821115610ff657610ff66119d6565b8082028115828204841417610ff657610ff66119d6565b600082611a3357634e487b7160e01b600052601260045260246000fd5b500490565b81810381811115610ff657610ff66119d6565b600060208284031215611a5d57600080fd5b5051919050565b60208082526022908201527f5661756c745072696365466565643a20696e76616c6964207072696365206665604082015261195960f21b606082015260800190565b6020808252601d908201527f5661756c745072696365466565643a20696e76616c6964207072696365000000604082015260600190565b80516001600160501b038116811461177557600080fd5b600060208284031215611b0657600080fd5b610a8582611add565b6001600160501b03828116828216039080821115611b2f57611b2f6119d6565b5092915050565b600080600080600060a08688031215611b4e57600080fd5b611b5786611add565b9450602086015193506040860151925060608601519150611b7a60808701611add565b90509295509295909350565b60006001600160501b03808316818103611ba257611ba26119d6565b6001019392505050565b600181815b80851115611be7578160001904821115611bcd57611bcd6119d6565b80851615611bda57918102915b93841c9390800290611bb1565b509250929050565b600082611bfe57506001610ff6565b81611c0b57506000610ff6565b8160018114611c215760028114611c2b57611c47565b6001915050610ff6565b60ff841115611c3c57611c3c6119d6565b50506001821b610ff6565b5060208310610133831016604e8410600b8410161715611c6a575081810a610ff6565b611c748383611bac565b8060001904821115611c8857611c886119d6565b029392505050565b6000610a858383611bef565b80516001600160701b038116811461177557600080fd5b600080600060608486031215611cc857600080fd5b611cd184611c9c565b9250611cdf60208501611c9c565b9150604084015163ffffffff81168114611cf857600080fd5b80915050925092509256fea26469706673582212208f4d5a899a158fead6e57d0fa1970caf15c65a22afb49a82da8e3add72a8cca164736f6c63430008120033",
    "linkReferences": {}
  },
  "methodIdentifiers": {
    "BASIS_POINTS_DIVISOR()": "126082cf",
    "MAX_ADJUSTMENT_BASIS_POINTS()": "4a4b1f4f",
    "MAX_ADJUSTMENT_INTERVAL()": "9b18dc47",
    "MAX_SPREAD_BASIS_POINTS()": "0957aed9",
    "ONE_USD()": "67781c0e",
    "PRICE_PRECISION()": "95082d25",
    "adjustmentBasisPoints(address)": "48cac277",
    "bnb()": "49a876e4",
    "bnbBusd()": "97dfade7",
    "btc()": "a28d57d8",
    "btcBnb()": "971bd396",
    "eth()": "8c7c9e0c",
    "ethBnb()": "1193c809",
    "favorPrimaryPrice()": "593d9e80",
    "getAmmPrice(address)": "c2138d8c",
    "getAmmPriceV2(address,bool,uint256)": "b02a2de4",
    "getLatestPrimaryPrice(address)": "56bf9de4",
    "getPairPrice(address,bool)": "a2ad7b93",
    "getPrice(address,bool,bool,bool)": "2fc3a70a",
    "getPriceV1(address,bool,bool)": "3d949c5f",
    "getPriceV2(address,bool,bool)": "732391b4",
    "getPrimaryPrice(address,bool)": "56c8c2c1",
    "getSecondaryPrice(address,uint256,bool)": "3eba8d36",
    "gov()": "12d43a51",
    "isAdjustmentAdditive(address)": "6ce8a44b",
    "isAmmEnabled()": "3f0c3bb7",
    "isSecondaryPriceEnabled()": "3ebbc601",
    "lastAdjustmentTimings(address)": "717cfe7a",
    "maxStrictPriceDeviation()": "378e7bf7",
    "priceDecimals(address)": "cefe0f21",
    "priceFeeds(address)": "9dcb511a",
    "priceSampleSpace()": "6fc80708",
    "secondaryPriceFeed()": "8b86616c",
    "setAdjustment(address,bool,uint256)": "d694376c",
    "setFavorPrimaryPrice(bool)": "604f37e9",
    "setGov(address)": "cfad57a2",
    "setIsAmmEnabled(bool)": "9917dc74",
    "setIsSecondaryPriceEnabled(bool)": "eb1c92a9",
    "setMaxStrictPriceDeviation(uint256)": "2fbfe3d3",
    "setPairs(address,address,address)": "93f69074",
    "setPriceSampleSpace(uint256)": "2fa03b8f",
    "setSecondaryPriceFeed(address)": "9a0a6635",
    "setSpreadBasisPoints(address,uint256)": "9b889380",
    "setSpreadThresholdBasisPoints(uint256)": "b731dd87",
    "setTokenConfig(address,address,uint256,bool)": "4b9ade47",
    "setTokens(address,address,address)": "443be209",
    "setUseV2Pricing(bool)": "fd34ec40",
    "spreadBasisPoints(address)": "a27ea386",
    "spreadThresholdBasisPoints()": "a39c73a3",
    "strictStableTokens(address)": "b8f61105",
    "useV2Pricing()": "30536ee5"
  },
  "id": 47
}