{"abi":[{"type":"constructor","inputs":[],"stateMutability":"nonpayable"},{"type":"function","name":"BASIS_POINTS_DIVISOR","inputs":[],"outputs":[{"name":"","type":"uint256","internalType":"uint256"}],"stateMutability":"view"},{"type":"function","name":"MAX_ADJUSTMENT_BASIS_POINTS","inputs":[],"outputs":[{"name":"","type":"uint256","internalType":"uint256"}],"stateMutability":"view"},{"type":"function","name":"MAX_ADJUSTMENT_INTERVAL","inputs":[],"outputs":[{"name":"","type":"uint256","internalType":"uint256"}],"stateMutability":"view"},{"type":"function","name":"MAX_SPREAD_BASIS_POINTS","inputs":[],"outputs":[{"name":"","type":"uint256","internalType":"uint256"}],"stateMutability":"view"},{"type":"function","name":"ONE_USD","inputs":[],"outputs":[{"name":"","type":"uint256","internalType":"uint256"}],"stateMutability":"view"},{"type":"function","name":"PRICE_PRECISION","inputs":[],"outputs":[{"name":"","type":"uint256","internalType":"uint256"}],"stateMutability":"view"},{"type":"function","name":"adjustmentBasisPoints","inputs":[{"name":"","type":"address","internalType":"address"}],"outputs":[{"name":"","type":"uint256","internalType":"uint256"}],"stateMutability":"view"},{"type":"function","name":"bnb","inputs":[],"outputs":[{"name":"","type":"address","internalType":"address"}],"stateMutability":"view"},{"type":"function","name":"bnbBusd","inputs":[],"outputs":[{"name":"","type":"address","internalType":"address"}],"stateMutability":"view"},{"type":"function","name":"btc","inputs":[],"outputs":[{"name":"","type":"address","internalType":"address"}],"stateMutability":"view"},{"type":"function","name":"btcBnb","inputs":[],"outputs":[{"name":"","type":"address","internalType":"address"}],"stateMutability":"view"},{"type":"function","name":"eth","inputs":[],"outputs":[{"name":"","type":"address","internalType":"address"}],"stateMutability":"view"},{"type":"function","name":"ethBnb","inputs":[],"outputs":[{"name":"","type":"address","internalType":"address"}],"stateMutability":"view"},{"type":"function","name":"favorPrimaryPrice","inputs":[],"outputs":[{"name":"","type":"bool","internalType":"bool"}],"stateMutability":"view"},{"type":"function","name":"getAmmPrice","inputs":[{"name":"_token","type":"address","internalType":"address"}],"outputs":[{"name":"","type":"uint256","internalType":"uint256"}],"stateMutability":"view"},{"type":"function","name":"getAmmPriceV2","inputs":[{"name":"_token","type":"address","internalType":"address"},{"name":"_maximise","type":"bool","internalType":"bool"},{"name":"_primaryPrice","type":"uint256","internalType":"uint256"}],"outputs":[{"name":"","type":"uint256","internalType":"uint256"}],"stateMutability":"view"},{"type":"function","name":"getLatestPrimaryPrice","inputs":[{"name":"_token","type":"address","internalType":"address"}],"outputs":[{"name":"","type":"uint256","internalType":"uint256"}],"stateMutability":"view"},{"type":"function","name":"getPairPrice","inputs":[{"name":"_pair","type":"address","internalType":"address"},{"name":"_divByReserve0","type":"bool","internalType":"bool"}],"outputs":[{"name":"","type":"uint256","internalType":"uint256"}],"stateMutability":"view"},{"type":"function","name":"getPrice","inputs":[{"name":"_token","type":"address","internalType":"address"},{"name":"_maximise","type":"bool","internalType":"bool"},{"name":"_includeAmmPrice","type":"bool","internalType":"bool"},{"name":"","type":"bool","internalType":"bool"}],"outputs":[{"name":"","type":"uint256","internalType":"uint256"}],"stateMutability":"view"},{"type":"function","name":"getPriceV1","inputs":[{"name":"_token","type":"address","internalType":"address"},{"name":"_maximise","type":"bool","internalType":"bool"},{"name":"_includeAmmPrice","type":"bool","internalType":"bool"}],"outputs":[{"name":"","type":"uint256","internalType":"uint256"}],"stateMutability":"view"},{"type":"function","name":"getPriceV2","inputs":[{"name":"_token","type":"address","internalType":"address"},{"name":"_maximise","type":"bool","internalType":"bool"},{"name":"_includeAmmPrice","type":"bool","internalType":"bool"}],"outputs":[{"name":"","type":"uint256","internalType":"uint256"}],"stateMutability":"view"},{"type":"function","name":"getPrimaryPrice","inputs":[{"name":"_token","type":"address","internalType":"address"},{"name":"_maximise","type":"bool","internalType":"bool"}],"outputs":[{"name":"","type":"uint256","internalType":"uint256"}],"stateMutability":"view"},{"type":"function","name":"getSecondaryPrice","inputs":[{"name":"_token","type":"address","internalType":"address"},{"name":"_referencePrice","type":"uint256","internalType":"uint256"},{"name":"_maximise","type":"bool","internalType":"bool"}],"outputs":[{"name":"","type":"uint256","internalType":"uint256"}],"stateMutability":"view"},{"type":"function","name":"gov","inputs":[],"outputs":[{"name":"","type":"address","internalType":"address"}],"stateMutability":"view"},{"type":"function","name":"isAdjustmentAdditive","inputs":[{"name":"","type":"address","internalType":"address"}],"outputs":[{"name":"","type":"bool","internalType":"bool"}],"stateMutability":"view"},{"type":"function","name":"isAmmEnabled","inputs":[],"outputs":[{"name":"","type":"bool","internalType":"bool"}],"stateMutability":"view"},{"type":"function","name":"isSecondaryPriceEnabled","inputs":[],"outputs":[{"name":"","type":"bool","internalType":"bool"}],"stateMutability":"view"},{"type":"function","name":"lastAdjustmentTimings","inputs":[{"name":"","type":"address","internalType":"address"}],"outputs":[{"name":"","type":"uint256","internalType":"uint256"}],"stateMutability":"view"},{"type":"function","name":"maxStrictPriceDeviation","inputs":[],"outputs":[{"name":"","type":"uint256","internalType":"uint256"}],"stateMutability":"view"},{"type":"function","name":"priceDecimals","inputs":[{"name":"","type":"address","internalType":"address"}],"outputs":[{"name":"","type":"uint256","internalType":"uint256"}],"stateMutability":"view"},{"type":"function","name":"priceFeeds","inputs":[{"name":"","type":"address","internalType":"address"}],"outputs":[{"name":"","type":"address","internalType":"address"}],"stateMutability":"view"},{"type":"function","name":"priceSampleSpace","inputs":[],"outputs":[{"name":"","type":"uint256","internalType":"uint256"}],"stateMutability":"view"},{"type":"function","name":"secondaryPriceFeed","inputs":[],"outputs":[{"name":"","type":"address","internalType":"address"}],"stateMutability":"view"},{"type":"function","name":"sequencerUptimeFeed","inputs":[],"outputs":[{"name":"","type":"address","internalType":"address"}],"stateMutability":"view"},{"type":"function","name":"setAdjustment","inputs":[{"name":"_token","type":"address","internalType":"address"},{"name":"_isAdditive","type":"bool","internalType":"bool"},{"name":"_adjustmentBps","type":"uint256","internalType":"uint256"}],"outputs":[],"stateMutability":"nonpayable"},{"type":"function","name":"setFavorPrimaryPrice","inputs":[{"name":"_favorPrimaryPrice","type":"bool","internalType":"bool"}],"outputs":[],"stateMutability":"nonpayable"},{"type":"function","name":"setGov","inputs":[{"name":"_gov","type":"address","internalType":"address"}],"outputs":[],"stateMutability":"nonpayable"},{"type":"function","name":"setIsAmmEnabled","inputs":[{"name":"_isEnabled","type":"bool","internalType":"bool"}],"outputs":[],"stateMutability":"nonpayable"},{"type":"function","name":"setIsSecondaryPriceEnabled","inputs":[{"name":"_isEnabled","type":"bool","internalType":"bool"}],"outputs":[],"stateMutability":"nonpayable"},{"type":"function","name":"setMaxStrictPriceDeviation","inputs":[{"name":"_maxStrictPriceDeviation","type":"uint256","internalType":"uint256"}],"outputs":[],"stateMutability":"nonpayable"},{"type":"function","name":"setPairs","inputs":[{"name":"_bnbBusd","type":"address","internalType":"address"},{"name":"_ethBnb","type":"address","internalType":"address"},{"name":"_btcBnb","type":"address","internalType":"address"}],"outputs":[],"stateMutability":"nonpayable"},{"type":"function","name":"setPriceSampleSpace","inputs":[{"name":"_priceSampleSpace","type":"uint256","internalType":"uint256"}],"outputs":[],"stateMutability":"nonpayable"},{"type":"function","name":"setSecondaryPriceFeed","inputs":[{"name":"_secondaryPriceFeed","type":"address","internalType":"address"}],"outputs":[],"stateMutability":"nonpayable"},{"type":"function","name":"setSequencerUptimeFeed","inputs":[{"name":"_sequencerUptimeFeed","type":"address","internalType":"address"}],"outputs":[],"stateMutability":"nonpayable"},{"type":"function","name":"setSpreadBasisPoints","inputs":[{"name":"_token","type":"address","internalType":"address"},{"name":"_spreadBasisPoints","type":"uint256","internalType":"uint256"}],"outputs":[],"stateMutability":"nonpayable"},{"type":"function","name":"setSpreadThresholdBasisPoints","inputs":[{"name":"_spreadThresholdBasisPoints","type":"uint256","internalType":"uint256"}],"outputs":[],"stateMutability":"nonpayable"},{"type":"function","name":"setTokenConfig","inputs":[{"name":"_token","type":"address","internalType":"address"},{"name":"_priceFeed","type":"address","internalType":"address"},{"name":"_priceDecimals","type":"uint256","internalType":"uint256"},{"name":"_isStrictStable","type":"bool","internalType":"bool"}],"outputs":[],"stateMutability":"nonpayable"},{"type":"function","name":"setTokens","inputs":[{"name":"_btc","type":"address","internalType":"address"},{"name":"_eth","type":"address","internalType":"address"},{"name":"_bnb","type":"address","internalType":"address"}],"outputs":[],"stateMutability":"nonpayable"},{"type":"function","name":"setUseV2Pricing","inputs":[{"name":"_useV2Pricing","type":"bool","internalType":"bool"}],"outputs":[],"stateMutability":"nonpayable"},{"type":"function","name":"spreadBasisPoints","inputs":[{"name":"","type":"address","internalType":"address"}],"outputs":[{"name":"","type":"uint256","internalType":"uint256"}],"stateMutability":"view"},{"type":"function","name":"spreadThresholdBasisPoints","inputs":[],"outputs":[{"name":"","type":"uint256","internalType":"uint256"}],"stateMutability":"view"},{"type":"function","name":"strictStableTokens","inputs":[{"name":"","type":"address","internalType":"address"}],"outputs":[{"name":"","type":"bool","internalType":"bool"}],"stateMutability":"view"},{"type":"function","name":"useV2Pricing","inputs":[],"outputs":[{"name":"","type":"bool","internalType":"bool"}],"stateMutability":"view"}],"bytecode":{"object":"0x60806040526001805463ffffffff60a01b191661010160a01b1790556003600281905560009055601e60055534801561003757600080fd5b50600080546001600160a01b03191633179055611ec9806100596000396000f3fe608060405234801561001057600080fd5b50600436106103275760003560e01c8063732391b4116101b8578063a28d57d811610104578063b8f61105116100a2578063cfad57a21161007c578063cfad57a21461071f578063d694376c14610732578063eb1c92a914610745578063fd34ec401461075857600080fd5b8063b8f61105146106c9578063c2138d8c146106ec578063cefe0f21146106ff57600080fd5b8063a7264705116100de578063a72647051461067d578063b02a2de414610690578063b731dd87146106a3578063b8f44963146106b657600080fd5b8063a28d57d81461064e578063a2ad7b9314610661578063a39c73a31461067457600080fd5b806397dfade7116101715780639b18dc471161014b5780639b18dc47146105e95780639b889380146105f25780639dcb511a14610605578063a27ea3861461062e57600080fd5b806397dfade7146105b05780639917dc74146105c35780639a0a6635146105d657600080fd5b8063732391b4146105515780638b86616c146105645780638c7c9e0c1461057757806393f690741461058a57806395082d25146104f2578063971bd3961461059d57600080fd5b8063443be2091161027757806356c8c2c11161023057806367781c0e1161020a57806367781c0e146104f25780636ce8a44b146105055780636fc8070814610528578063717cfe7a1461053157600080fd5b806356c8c2c1146104b8578063593d9e80146104cb578063604f37e9146104df57600080fd5b8063443be2091461044457806348cac2771461045757806349a876e4146104775780634a4b1f4f1461048a5780634b9ade471461049257806356bf9de4146104a557600080fd5b80632fc3a70a116102e45780633d949c5f116102be5780633d949c5f146103f65780633eba8d36146104095780633ebbc6011461041c5780633f0c3bb71461043057600080fd5b80632fc3a70a146103b657806330536ee5146103c9578063378e7bf7146103ed57600080fd5b80630957aed91461032c5780631193c80914610347578063126082cf1461037257806312d43a511461037b5780632fa03b8f1461038e5780632fbfe3d3146103a3575b600080fd5b610334603281565b6040519081526020015b60405180910390f35b600a5461035a906001600160a01b031681565b6040516001600160a01b03909116815260200161033e565b61033461271081565b60005461035a906001600160a01b031681565b6103a161039c3660046118d5565b61076b565b005b6103a16103b13660046118d5565b610805565b6103346103c436600461191a565b610834565b6001546103dd90600160b01b900460ff1681565b604051901515815260200161033e565b61033460035481565b61033461040436600461196e565b610901565b6103346104173660046119b1565b610aea565b6001546103dd90600160a81b900460ff1681565b6001546103dd90600160a01b900460ff1681565b6103a16104523660046119e4565b610b8b565b610334610465366004611a1e565b60106020526000908152604090205481565b60085461035a906001600160a01b031681565b610334601481565b6103a16104a0366004611a39565b610bf4565b6103346104b3366004611a1e565b610c73565b6103346104c6366004611a7b565b610d38565b6001546103dd90600160b81b900460ff1681565b6103a16104ed366004611aae565b611140565b61033468327cb2734119d3b7a9601e1b81565b6103dd610513366004611a1e565b60116020526000908152604090205460ff1681565b61033460025481565b61033461053f366004611a1e565b60126020526000908152604090205481565b61033461055f36600461196e565b611188565b60045461035a906001600160a01b031681565b60075461035a906001600160a01b031681565b6103a16105983660046119e4565b6111dd565b600b5461035a906001600160a01b031681565b60095461035a906001600160a01b031681565b6103a16105d1366004611aae565b611246565b6103a16105e4366004611a1e565b61128e565b610334611c2081565b6103a1610600366004611ac9565b6112da565b61035a610613366004611a1e565b600c602052600090815260409020546001600160a01b031681565b61033461063c366004611a1e565b600e6020526000908152604090205481565b60065461035a906001600160a01b031681565b61033461066f366004611a7b565b611384565b61033460055481565b60015461035a906001600160a01b031681565b61033461069e366004611af3565b611482565b6103a16106b13660046118d5565b611546565b6103a16106c4366004611a1e565b611575565b6103dd6106d7366004611a1e565b600f6020526000908152604090205460ff1681565b6103346106fa366004611a1e565b6115c1565b61033461070d366004611a1e565b600d6020526000908152604090205481565b6103a161072d366004611a1e565b6116b6565b6103a1610740366004611af3565b611702565b6103a1610753366004611aae565b611845565b6103a1610766366004611aae565b61188d565b6000546001600160a01b0316331461079e5760405162461bcd60e51b815260040161079590611b2f565b60405180910390fd5b600081116108005760405162461bcd60e51b815260206004820152602960248201527f5661756c745072696365466565643a20696e76616c6964205f707269636553616044820152686d706c65537061636560b81b6064820152608401610795565b600255565b6000546001600160a01b0316331461082f5760405162461bcd60e51b815260040161079590611b2f565b600355565b6001546000908190600160b01b900460ff1661085a57610855868686610901565b610865565b610865868686611188565b6001600160a01b03871660009081526010602052604090205490915080156108f7576001600160a01b03871660009081526011602052604090205460ff1680156108d1576127106108b68382611b7c565b6108c09085611b8f565b6108ca9190611ba6565b92506108f5565b6127106108de8382611bc8565b6108e89085611b8f565b6108f29190611ba6565b92505b505b5095945050505050565b60008061090e8585610d38565b90508280156109265750600154600160a01b900460ff165b1561096b576000610936866115c1565b905080156109695784801561094a57508181115b15610953578091505b8415801561096057508181105b15610969578091505b505b600154600160a81b900460ff161561098b57610988858286610aea565b90505b6001600160a01b0385166000908152600f602052604090205460ff1615610a7457600068327cb2734119d3b7a9601e1b82116109dc576109d78268327cb2734119d3b7a9601e1b611bc8565b6109f2565b6109f268327cb2734119d3b7a9601e1b83611bc8565b90506003548111610a135768327cb2734119d3b7a9601e1b92505050610ae3565b848015610a2b575068327cb2734119d3b7a9601e1b82115b15610a3857509050610ae3565b84158015610a51575068327cb2734119d3b7a9601e1b82105b15610a5e57509050610ae3565b68327cb2734119d3b7a9601e1b92505050610ae3565b6001600160a01b0385166000908152600e60205260409020548415610abd57612710610aa08282611b7c565b610aaa9084611b8f565b610ab49190611ba6565b92505050610ae3565b612710610aca8282611bc8565b610ad49084611b8f565b610ade9190611ba6565b925050505b9392505050565b6004546000906001600160a01b0316610b04575081610ae3565b60048054604051630ffd9c6d60e31b81526001600160a01b0387811693820193909352602481018690528415156044820152911690637fece36890606401602060405180830381865afa158015610b5f573d6000803e3d6000fd5b505050506040513d601f19601f82011682018060405250810190610b839190611bdb565b949350505050565b6000546001600160a01b03163314610bb55760405162461bcd60e51b815260040161079590611b2f565b600680546001600160a01b039485166001600160a01b031991821617909155600780549385169382169390931790925560088054919093169116179055565b6000546001600160a01b03163314610c1e5760405162461bcd60e51b815260040161079590611b2f565b6001600160a01b039384166000908152600c6020908152604080832080546001600160a01b0319169690971695909517909555600d855283812092909255600f90935220805460ff1916911515919091179055565b6001600160a01b038082166000908152600c602052604081205490911680610cad5760405162461bcd60e51b815260040161079590611bf4565b60008190506000816001600160a01b03166350d25bcd6040518163ffffffff1660e01b8152600401602060405180830381865afa158015610cf2573d6000803e3d6000fd5b505050506040513d601f19601f82011682018060405250810190610d169190611bdb565b905060008113610b835760405162461bcd60e51b815260040161079590611c36565b6001600160a01b038083166000908152600c602052604081205490911680610d725760405162461bcd60e51b815260040161079590611bf4565b6001546001600160a01b031615610e565760015460408051633fabe5a360e21b815290516000926001600160a01b03169163feaf968c9160048083019260a09291908290030181865afa158015610dcd573d6000803e3d6000fd5b505050506040513d601f19601f82011682018060405250810190610df19190611c84565b509193505082159150819050610e535760405162461bcd60e51b815260206004820152602160248201527f5661756c745072696365466565643a2053657175656e63657220697320646f776044820152603760f91b6064820152608401610795565b50505b6000819050600080826001600160a01b031663668a0f026040518163ffffffff1660e01b8152600401602060405180830381865afa158015610e9c573d6000803e3d6000fd5b505050506040513d601f19601f82011682018060405250810190610ec09190611cd4565b905060005b600254816001600160501b0316101561108f57806001600160501b0316826001600160501b0316111561108f576000816001600160501b0316600003610f92576000856001600160a01b03166350d25bcd6040518163ffffffff1660e01b8152600401602060405180830381865afa158015610f45573d6000803e3d6000fd5b505050506040513d601f19601f82011682018060405250810190610f699190611bdb565b905060008113610f8b5760405162461bcd60e51b815260040161079590611c36565b905061103e565b60006001600160a01b038616639a6fc8f5610fad8587611cef565b6040516001600160e01b031960e084901b1681526001600160501b03909116600482015260240160a060405180830381865afa158015610ff1573d6000803e3d6000fd5b505050506040513d601f19601f820116820180604052508101906110159190611c84565b5050509150506000811361103b5760405162461bcd60e51b815260040161079590611c36565b90505b8360000361104d57925061107d565b87801561105957508381115b1561106557925061107d565b8715801561107257508381105b1561107b578093505b505b8061108781611d16565b915050610ec5565b50600082116110ee5760405162461bcd60e51b815260206004820152602560248201527f5661756c745072696365466565643a20636f756c64206e6f7420666574636820604482015264707269636560d81b6064820152608401610795565b6001600160a01b0387166000908152600d602052604090205461111281600a611e20565b61112868327cb2734119d3b7a9601e1b85611b8f565b6111329190611ba6565b955050505050505b92915050565b6000546001600160a01b0316331461116a5760405162461bcd60e51b815260040161079590611b2f565b60018054911515600160b81b0260ff60b81b19909216919091179055565b6000806111958585610d38565b90508280156111ad5750600154600160a01b900460ff165b1561096b576111bd858583611482565b905060015460ff600160a81b909104161561098b57610988858286610aea565b6000546001600160a01b031633146112075760405162461bcd60e51b815260040161079590611b2f565b600980546001600160a01b039485166001600160a01b031991821617909155600a805493851693821693909317909255600b8054919093169116179055565b6000546001600160a01b031633146112705760405162461bcd60e51b815260040161079590611b2f565b60018054911515600160a01b0260ff60a01b19909216919091179055565b6000546001600160a01b031633146112b85760405162461bcd60e51b815260040161079590611b2f565b600480546001600160a01b0319166001600160a01b0392909216919091179055565b6000546001600160a01b031633146113045760405162461bcd60e51b815260040161079590611b2f565b60328111156113685760405162461bcd60e51b815260206004820152602a60248201527f5661756c745072696365466565643a20696e76616c6964205f7370726561644260448201526961736973506f696e747360b01b6064820152608401610795565b6001600160a01b039091166000908152600e6020526040902055565b6000806000846001600160a01b0316630902f1ac6040518163ffffffff1660e01b8152600401606060405180830381865afa1580156113c7573d6000803e3d6000fd5b505050506040513d601f19601f820116820180604052508101906113eb9190611e43565b506001600160701b031691506001600160701b031691508315611445578160000361141b5760009250505061113a565b8161143268327cb2734119d3b7a9601e1b83611b8f565b61143c9190611ba6565b9250505061113a565b806000036114585760009250505061113a565b8061146f68327cb2734119d3b7a9601e1b84611b8f565b6114799190611ba6565b95945050505050565b60008061148e856115c1565b9050806000036114a15782915050610ae3565b60008382116114b9576114b48285611bc8565b6114c3565b6114c38483611bc8565b9050600554846114d39190611b8f565b6114df61271083611b8f565b101561150957600154600160b81b900460ff1615611501578392505050610ae3565b509050610ae3565b84801561151557508382115b1561152257509050610ae3565b8415801561152f57508382105b1561153c57509050610ae3565b5091949350505050565b6000546001600160a01b031633146115705760405162461bcd60e51b815260040161079590611b2f565b600555565b6000546001600160a01b0316331461159f5760405162461bcd60e51b815260040161079590611b2f565b600180546001600160a01b0319166001600160a01b0392909216919091179055565b6008546000906001600160a01b03908116908316036115f15760095461113a906001600160a01b03166001611384565b6007546001600160a01b039081169083160361166157600954600090611621906001600160a01b03166001611384565b600a5490915060009061163e906001600160a01b03166001611384565b905068327cb2734119d3b7a9601e1b6116578284611b8f565b610b839190611ba6565b6006546001600160a01b03908116908316036116ae57600954600090611691906001600160a01b03166001611384565b600b5490915060009061163e906001600160a01b03166001611384565b506000919050565b6000546001600160a01b031633146116e05760405162461bcd60e51b815260040161079590611b2f565b600080546001600160a01b0319166001600160a01b0392909216919091179055565b6000546001600160a01b0316331461172c5760405162461bcd60e51b815260040161079590611b2f565b6001600160a01b038316600090815260126020526040902054429061175490611c2090611b7c565b106117b75760405162461bcd60e51b815260206004820152602d60248201527f5661756c745072696365466565643a2061646a7573746d656e7420667265717560448201526c195b98de48195e18d959591959609a1b6064820152608401610795565b60148111156118015760405162461bcd60e51b8152602060048201526016602482015275696e76616c6964205f61646a7573746d656e7442707360501b6044820152606401610795565b6001600160a01b03929092166000908152601160209081526040808320805460ff191694151594909417909355601081528282209390935560129092529020429055565b6000546001600160a01b0316331461186f5760405162461bcd60e51b815260040161079590611b2f565b60018054911515600160a81b0260ff60a81b19909216919091179055565b6000546001600160a01b031633146118b75760405162461bcd60e51b815260040161079590611b2f565b60018054911515600160b01b0260ff60b01b19909216919091179055565b6000602082840312156118e757600080fd5b5035919050565b80356001600160a01b038116811461190557600080fd5b919050565b8035801515811461190557600080fd5b6000806000806080858703121561193057600080fd5b611939856118ee565b93506119476020860161190a565b92506119556040860161190a565b91506119636060860161190a565b905092959194509250565b60008060006060848603121561198357600080fd5b61198c846118ee565b925061199a6020850161190a565b91506119a86040850161190a565b90509250925092565b6000806000606084860312156119c657600080fd5b6119cf846118ee565b9250602084013591506119a86040850161190a565b6000806000606084860312156119f957600080fd5b611a02846118ee565b9250611a10602085016118ee565b91506119a8604085016118ee565b600060208284031215611a3057600080fd5b610ae3826118ee565b60008060008060808587031215611a4f57600080fd5b611a58856118ee565b9350611a66602086016118ee565b9250604085013591506119636060860161190a565b60008060408385031215611a8e57600080fd5b611a97836118ee565b9150611aa56020840161190a565b90509250929050565b600060208284031215611ac057600080fd5b610ae38261190a565b60008060408385031215611adc57600080fd5b611ae5836118ee565b946020939093013593505050565b600080600060608486031215611b0857600080fd5b611b11846118ee565b9250611b1f6020850161190a565b9150604084013590509250925092565b60208082526019908201527f5661756c745072696365466565643a20666f7262696464656e00000000000000604082015260600190565b634e487b7160e01b600052601160045260246000fd5b8082018082111561113a5761113a611b66565b808202811582820484141761113a5761113a611b66565b600082611bc357634e487b7160e01b600052601260045260246000fd5b500490565b8181038181111561113a5761113a611b66565b600060208284031215611bed57600080fd5b5051919050565b60208082526022908201527f5661756c745072696365466565643a20696e76616c6964207072696365206665604082015261195960f21b606082015260800190565b6020808252601d908201527f5661756c745072696365466565643a20696e76616c6964207072696365000000604082015260600190565b80516001600160501b038116811461190557600080fd5b600080600080600060a08688031215611c9c57600080fd5b611ca586611c6d565b9450602086015193506040860151925060608601519150611cc860808701611c6d565b90509295509295909350565b600060208284031215611ce657600080fd5b610ae382611c6d565b6001600160501b03828116828216039080821115611d0f57611d0f611b66565b5092915050565b60006001600160501b03808316818103611d3257611d32611b66565b6001019392505050565b600181815b80851115611d77578160001904821115611d5d57611d5d611b66565b80851615611d6a57918102915b93841c9390800290611d41565b509250929050565b600082611d8e5750600161113a565b81611d9b5750600061113a565b8160018114611db15760028114611dbb57611dd7565b600191505061113a565b60ff841115611dcc57611dcc611b66565b50506001821b61113a565b5060208310610133831016604e8410600b8410161715611dfa575081810a61113a565b611e048383611d3c565b8060001904821115611e1857611e18611b66565b029392505050565b6000610ae38383611d7f565b80516001600160701b038116811461190557600080fd5b600080600060608486031215611e5857600080fd5b611e6184611e2c565b9250611e6f60208501611e2c565b9150604084015163ffffffff81168114611e8857600080fd5b80915050925092509256fea264697066735822122014a05b9f1a7f2dfc9c60b4cdf2be4c97bc08fc2c03dcf1be07f2d36b14f1c41264736f6c63430008120033","linkReferences":{}},"methodIdentifiers":{"BASIS_POINTS_DIVISOR()":"126082cf","MAX_ADJUSTMENT_BASIS_POINTS()":"4a4b1f4f","MAX_ADJUSTMENT_INTERVAL()":"9b18dc47","MAX_SPREAD_BASIS_POINTS()":"0957aed9","ONE_USD()":"67781c0e","PRICE_PRECISION()":"95082d25","adjustmentBasisPoints(address)":"48cac277","bnb()":"49a876e4","bnbBusd()":"97dfade7","btc()":"a28d57d8","btcBnb()":"971bd396","eth()":"8c7c9e0c","ethBnb()":"1193c809","favorPrimaryPrice()":"593d9e80","getAmmPrice(address)":"c2138d8c","getAmmPriceV2(address,bool,uint256)":"b02a2de4","getLatestPrimaryPrice(address)":"56bf9de4","getPairPrice(address,bool)":"a2ad7b93","getPrice(address,bool,bool,bool)":"2fc3a70a","getPriceV1(address,bool,bool)":"3d949c5f","getPriceV2(address,bool,bool)":"732391b4","getPrimaryPrice(address,bool)":"56c8c2c1","getSecondaryPrice(address,uint256,bool)":"3eba8d36","gov()":"12d43a51","isAdjustmentAdditive(address)":"6ce8a44b","isAmmEnabled()":"3f0c3bb7","isSecondaryPriceEnabled()":"3ebbc601","lastAdjustmentTimings(address)":"717cfe7a","maxStrictPriceDeviation()":"378e7bf7","priceDecimals(address)":"cefe0f21","priceFeeds(address)":"9dcb511a","priceSampleSpace()":"6fc80708","secondaryPriceFeed()":"8b86616c","sequencerUptimeFeed()":"a7264705","setAdjustment(address,bool,uint256)":"d694376c","setFavorPrimaryPrice(bool)":"604f37e9","setGov(address)":"cfad57a2","setIsAmmEnabled(bool)":"9917dc74","setIsSecondaryPriceEnabled(bool)":"eb1c92a9","setMaxStrictPriceDeviation(uint256)":"2fbfe3d3","setPairs(address,address,address)":"93f69074","setPriceSampleSpace(uint256)":"2fa03b8f","setSecondaryPriceFeed(address)":"9a0a6635","setSequencerUptimeFeed(address)":"b8f44963","setSpreadBasisPoints(address,uint256)":"9b889380","setSpreadThresholdBasisPoints(uint256)":"b731dd87","setTokenConfig(address,address,uint256,bool)":"4b9ade47","setTokens(address,address,address)":"443be209","setUseV2Pricing(bool)":"fd34ec40","spreadBasisPoints(address)":"a27ea386","spreadThresholdBasisPoints()":"a39c73a3","strictStableTokens(address)":"b8f61105","useV2Pricing()":"30536ee5"},"id":51}