{"abi":[{"type":"constructor","inputs":[{"name":"_vault","type":"address","internalType":"address"}],"stateMutability":"nonpayable"},{"type":"function","name":"addAdmin","inputs":[{"name":"_account","type":"address","internalType":"address"}],"outputs":[],"stateMutability":"nonpayable"},{"type":"function","name":"addNonStakingAccount","inputs":[{"name":"_account","type":"address","internalType":"address"}],"outputs":[],"stateMutability":"nonpayable"},{"type":"function","name":"addVault","inputs":[{"name":"_vault","type":"address","internalType":"address"}],"outputs":[],"stateMutability":"nonpayable"},{"type":"function","name":"admins","inputs":[{"name":"","type":"address","internalType":"address"}],"outputs":[{"name":"","type":"bool","internalType":"bool"}],"stateMutability":"view"},{"type":"function","name":"allowance","inputs":[{"name":"_owner","type":"address","internalType":"address"},{"name":"_spender","type":"address","internalType":"address"}],"outputs":[{"name":"","type":"uint256","internalType":"uint256"}],"stateMutability":"view"},{"type":"function","name":"allowances","inputs":[{"name":"","type":"address","internalType":"address"},{"name":"","type":"address","internalType":"address"}],"outputs":[{"name":"","type":"uint256","internalType":"uint256"}],"stateMutability":"view"},{"type":"function","name":"approve","inputs":[{"name":"_spender","type":"address","internalType":"address"},{"name":"_amount","type":"uint256","internalType":"uint256"}],"outputs":[{"name":"","type":"bool","internalType":"bool"}],"stateMutability":"nonpayable"},{"type":"function","name":"balanceOf","inputs":[{"name":"_account","type":"address","internalType":"address"}],"outputs":[{"name":"","type":"uint256","internalType":"uint256"}],"stateMutability":"view"},{"type":"function","name":"balances","inputs":[{"name":"","type":"address","internalType":"address"}],"outputs":[{"name":"","type":"uint256","internalType":"uint256"}],"stateMutability":"view"},{"type":"function","name":"burn","inputs":[{"name":"_account","type":"address","internalType":"address"},{"name":"_amount","type":"uint256","internalType":"uint256"}],"outputs":[],"stateMutability":"nonpayable"},{"type":"function","name":"claim","inputs":[{"name":"_receiver","type":"address","internalType":"address"}],"outputs":[],"stateMutability":"nonpayable"},{"type":"function","name":"decimals","inputs":[],"outputs":[{"name":"","type":"uint8","internalType":"uint8"}],"stateMutability":"view"},{"type":"function","name":"gov","inputs":[],"outputs":[{"name":"","type":"address","internalType":"address"}],"stateMutability":"view"},{"type":"function","name":"inWhitelistMode","inputs":[],"outputs":[{"name":"","type":"bool","internalType":"bool"}],"stateMutability":"view"},{"type":"function","name":"mint","inputs":[{"name":"_account","type":"address","internalType":"address"},{"name":"_amount","type":"uint256","internalType":"uint256"}],"outputs":[],"stateMutability":"nonpayable"},{"type":"function","name":"name","inputs":[],"outputs":[{"name":"","type":"string","internalType":"string"}],"stateMutability":"view"},{"type":"function","name":"nonStakingAccounts","inputs":[{"name":"","type":"address","internalType":"address"}],"outputs":[{"name":"","type":"bool","internalType":"bool"}],"stateMutability":"view"},{"type":"function","name":"nonStakingSupply","inputs":[],"outputs":[{"name":"","type":"uint256","internalType":"uint256"}],"stateMutability":"view"},{"type":"function","name":"recoverClaim","inputs":[{"name":"_account","type":"address","internalType":"address"},{"name":"_receiver","type":"address","internalType":"address"}],"outputs":[],"stateMutability":"nonpayable"},{"type":"function","name":"removeAdmin","inputs":[{"name":"_account","type":"address","internalType":"address"}],"outputs":[],"stateMutability":"nonpayable"},{"type":"function","name":"removeNonStakingAccount","inputs":[{"name":"_account","type":"address","internalType":"address"}],"outputs":[],"stateMutability":"nonpayable"},{"type":"function","name":"removeVault","inputs":[{"name":"_vault","type":"address","internalType":"address"}],"outputs":[],"stateMutability":"nonpayable"},{"type":"function","name":"setGov","inputs":[{"name":"_gov","type":"address","internalType":"address"}],"outputs":[],"stateMutability":"nonpayable"},{"type":"function","name":"setInWhitelistMode","inputs":[{"name":"_inWhitelistMode","type":"bool","internalType":"bool"}],"outputs":[],"stateMutability":"nonpayable"},{"type":"function","name":"setInfo","inputs":[{"name":"_name","type":"string","internalType":"string"},{"name":"_symbol","type":"string","internalType":"string"}],"outputs":[],"stateMutability":"nonpayable"},{"type":"function","name":"setWhitelistedHandler","inputs":[{"name":"_handler","type":"address","internalType":"address"},{"name":"_isWhitelisted","type":"bool","internalType":"bool"}],"outputs":[],"stateMutability":"nonpayable"},{"type":"function","name":"setYieldTrackers","inputs":[{"name":"_yieldTrackers","type":"address[]","internalType":"address[]"}],"outputs":[],"stateMutability":"nonpayable"},{"type":"function","name":"stakedBalance","inputs":[{"name":"_account","type":"address","internalType":"address"}],"outputs":[{"name":"","type":"uint256","internalType":"uint256"}],"stateMutability":"view"},{"type":"function","name":"symbol","inputs":[],"outputs":[{"name":"","type":"string","internalType":"string"}],"stateMutability":"view"},{"type":"function","name":"totalStaked","inputs":[],"outputs":[{"name":"","type":"uint256","internalType":"uint256"}],"stateMutability":"view"},{"type":"function","name":"totalSupply","inputs":[],"outputs":[{"name":"","type":"uint256","internalType":"uint256"}],"stateMutability":"view"},{"type":"function","name":"transfer","inputs":[{"name":"_recipient","type":"address","internalType":"address"},{"name":"_amount","type":"uint256","internalType":"uint256"}],"outputs":[{"name":"","type":"bool","internalType":"bool"}],"stateMutability":"nonpayable"},{"type":"function","name":"transferFrom","inputs":[{"name":"_sender","type":"address","internalType":"address"},{"name":"_recipient","type":"address","internalType":"address"},{"name":"_amount","type":"uint256","internalType":"uint256"}],"outputs":[{"name":"","type":"bool","internalType":"bool"}],"stateMutability":"nonpayable"},{"type":"function","name":"vaults","inputs":[{"name":"","type":"address","internalType":"address"}],"outputs":[{"name":"","type":"bool","internalType":"bool"}],"stateMutability":"view"},{"type":"function","name":"whitelistedHandlers","inputs":[{"name":"","type":"address","internalType":"address"}],"outputs":[{"name":"","type":"bool","internalType":"bool"}],"stateMutability":"view"},{"type":"function","name":"withdrawToken","inputs":[{"name":"_token","type":"address","internalType":"address"},{"name":"_account","type":"address","internalType":"address"},{"name":"_amount","type":"uint256","internalType":"uint256"}],"outputs":[],"stateMutability":"nonpayable"},{"type":"function","name":"yieldTrackers","inputs":[{"name":"","type":"uint256","internalType":"uint256"}],"outputs":[{"name":"","type":"address","internalType":"address"}],"stateMutability":"view"},{"type":"event","name":"Approval","inputs":[{"name":"owner","type":"address","indexed":true,"internalType":"address"},{"name":"spender","type":"address","indexed":true,"internalType":"address"},{"name":"value","type":"uint256","indexed":false,"internalType":"uint256"}],"anonymous":false},{"type":"event","name":"Transfer","inputs":[{"name":"from","type":"address","indexed":true,"internalType":"address"},{"name":"to","type":"address","indexed":true,"internalType":"address"},{"name":"value","type":"uint256","indexed":false,"internalType":"uint256"}],"anonymous":false},{"type":"error","name":"AddressEmptyCode","inputs":[{"name":"target","type":"address","internalType":"address"}]},{"type":"error","name":"AddressInsufficientBalance","inputs":[{"name":"account","type":"address","internalType":"address"}]},{"type":"error","name":"FailedInnerCall","inputs":[]},{"type":"error","name":"SafeERC20FailedOperation","inputs":[{"name":"token","type":"address","internalType":"address"}]}],"bytecode":{"object":"0x60806040523480156200001157600080fd5b5060405162002209380380620022098339810160408190526200003491620002dd565b6040518060400160405280600b81526020016a2aa9a210282924a72a19a960a91b815250604051806040016040528060048152602001630555344560e41b81525060008260009081620000889190620003b4565b506001620000978382620003b4565b50600480546001600160a01b031916339081179091556000818152600960205260409020805460ff19166001179055620000d29082620000fd565b5050506001600160a01b03166000908152600c60205260409020805460ff19166001179055620004e4565b6001600160a01b038216620001645760405162461bcd60e51b8152602060048201526024808201527f5969656c64546f6b656e3a206d696e7420746f20746865207a65726f206164646044820152637265737360e01b606482015260840160405180910390fd5b6200016f826200022f565b806002546200017f919062000496565b6002556001600160a01b038216600090815260056020526040902054620001a890829062000496565b6001600160a01b03831660009081526005602090815260408083209390935560089052205460ff1615620001ea5780600354620001e6919062000496565b6003555b6040518181526001600160a01b038316906000907fddf252ad1be2c89b69c2b068fc378daa952ba7f163c4a11628f55a4df523b3ef9060200160405180910390a35050565b60005b600754811015620002d957600060078281548110620002555762000255620004b2565b600091825260209091200154604051635fd6196560e01b81526001600160a01b03858116600483015290911691508190635fd6196590602401600060405180830381600087803b158015620002a957600080fd5b505af1158015620002be573d6000803e3d6000fd5b50505050508080620002d090620004c8565b91505062000232565b5050565b600060208284031215620002f057600080fd5b81516001600160a01b03811681146200030857600080fd5b9392505050565b634e487b7160e01b600052604160045260246000fd5b600181811c908216806200033a57607f821691505b6020821081036200035b57634e487b7160e01b600052602260045260246000fd5b50919050565b601f821115620003af57600081815260208120601f850160051c810160208610156200038a5750805b601f850160051c820191505b81811015620003ab5782815560010162000396565b5050505b505050565b81516001600160401b03811115620003d057620003d06200030f565b620003e881620003e1845462000325565b8462000361565b602080601f831160018114620004205760008415620004075750858301515b600019600386901b1c1916600185901b178555620003ab565b600085815260208120601f198616915b82811015620004515788860151825594840194600190910190840162000430565b5085821015620004705787850151600019600388901b60f8161c191681555b5050505050600190811b01905550565b634e487b7160e01b600052601160045260246000fd5b80820180821115620004ac57620004ac62000480565b92915050565b634e487b7160e01b600052603260045260246000fd5b600060018201620004dd57620004dd62000480565b5060010190565b611d1580620004f46000396000f3fe608060405234801561001057600080fd5b50600436106102275760003560e01c806355b6ed5c116101305780639dc29fac116100b8578063ceb68c231161007c578063ceb68c2314610521578063cfad57a214610534578063d92fc87e14610547578063dd62ed3e1461055a578063fb30d9161461059357600080fd5b80639dc29fac146104bc578063a622ee7c146104cf578063a9059cbb146104f2578063a923fc4014610505578063c93be6361461051857600080fd5b806370a08231116100ff57806370a082311461044d578063817b1cd2146104765780639554381a1461047e57806395d89b41146104a1578063996f11ee146104a957600080fd5b806355b6ed5c146103e957806360217267146104145780636228907714610427578063704802751461043a57600080fd5b8063276eab4e116101b35780633630005111610182578063363000511461036a57806340c10f191461038d578063429b62e5146103a05780634cb5bbe3146103c357806352cd38d9146103d657600080fd5b8063276eab4e1461031057806327e235e314610323578063293d698714610343578063313ce5671461035057600080fd5b80631785f53c116101fa5780631785f53c146102ad57806318160ddd146102c05780631e83409a146102d757806323b872dd146102ea578063256b5a02146102fd57600080fd5b806301e336671461022c57806306fdde0314610241578063095ea7b31461025f57806312d43a5114610282575b600080fd5b61023f61023a36600461175a565b6105a6565b005b6102496105f2565b60405161025691906117ba565b60405180910390f35b61027261026d3660046117ed565b610680565b6040519015158152602001610256565b600454610295906001600160a01b031681565b6040516001600160a01b039091168152602001610256565b61023f6102bb366004611817565b610697565b6102c960025481565b604051908152602001610256565b61023f6102e5366004611817565b6106e2565b6102726102f836600461175a565b61079f565b61023f61030b366004611817565b6107f3565b61023f61031e366004611879565b610841565b6102c9610331366004611817565b60056020526000908152604090205481565b600a546102729060ff1681565b610358601281565b60405160ff9091168152602001610256565b610272610378366004611817565b600b6020526000908152604090205460ff1681565b61023f61039b3660046117ed565b61087e565b6102726103ae366004611817565b60096020526000908152604090205460ff1681565b61023f6103d1366004611937565b6108d9565b6102956103e4366004611954565b610916565b6102c96103f736600461196d565b600660209081526000928352604080842090915290825290205481565b6102c9610422366004611817565b610940565b61023f610435366004611817565b610985565b61023f610448366004611817565b610a73565b6102c961045b366004611817565b6001600160a01b031660009081526005602052604090205490565b6102c9610ac1565b61027261048c366004611817565b60086020526000908152604090205460ff1681565b610249610ad8565b61023f6104b736600461196d565b610ae5565b61023f6104ca3660046117ed565b610bcf565b6102726104dd366004611817565b600c6020526000908152604090205460ff1681565b6102726105003660046117ed565b610c2a565b61023f610513366004611a10565b610c37565b6102c960035481565b61023f61052f366004611817565b610c7a565b61023f610542366004611817565b610cc5565b61023f610555366004611a74565b610d11565b6102c961056836600461196d565b6001600160a01b03918216600090815260066020908152604080832093909416825291909152205490565b61023f6105a1366004611817565b610d66565b6004546001600160a01b031633146105d95760405162461bcd60e51b81526004016105d090611aab565b60405180910390fd5b6105ed6001600160a01b0384168383610e3e565b505050565b600080546105ff90611ada565b80601f016020809104026020016040519081016040528092919081815260200182805461062b90611ada565b80156106785780601f1061064d57610100808354040283529160200191610678565b820191906000526020600020905b81548152906001019060200180831161065b57829003601f168201915b505050505081565b600061068d338484610e90565b5060015b92915050565b6004546001600160a01b031633146106c15760405162461bcd60e51b81526004016105d090611aab565b6001600160a01b03166000908152600960205260409020805460ff19169055565b60005b60075481101561079b5760006007828154811061070457610704611b14565b6000918252602090912001546040516310e059a160e11b81523360048201526001600160a01b038581166024830152909116915081906321c0b342906044016020604051808303816000875af1158015610762573d6000803e3d6000fd5b505050506040513d601f19601f820116820180604052508101906107869190611b2a565b5050808061079390611b59565b9150506106e5565b5050565b6001600160a01b038316600090815260066020908152604080832033845290915281205481906107d0908490611b72565b90506107dd853383610e90565b6107e8858585610fc0565b506001949350505050565b6004546001600160a01b0316331461081d5760405162461bcd60e51b81526004016105d090611aab565b6001600160a01b03166000908152600c60205260409020805460ff19166001179055565b6004546001600160a01b0316331461086b5760405162461bcd60e51b81526004016105d090611aab565b805161079b9060079060208401906116c4565b336000908152600c602052604090205460ff166108cf5760405162461bcd60e51b815260206004820152600f60248201526e2aa9a2281d103337b93134b23232b760891b60448201526064016105d0565b61079b828261122d565b6004546001600160a01b031633146109035760405162461bcd60e51b81526004016105d090611aab565b600a805460ff1916911515919091179055565b6007818154811061092657600080fd5b6000918252602090912001546001600160a01b0316905081565b6001600160a01b03811660009081526008602052604081205460ff161561096957506000919050565b506001600160a01b031660009081526005602052604090205490565b3360009081526009602052604090205460ff166109b45760405162461bcd60e51b81526004016105d090611aab565b6001600160a01b03811660009081526008602052604090205460ff1615610a295760405162461bcd60e51b815260206004820152602360248201527f5969656c64546f6b656e3a205f6163636f756e7420616c7265616479206d61726044820152621ad95960ea1b60648201526084016105d0565b610a3281611352565b6001600160a01b0381166000908152600860209081526040808320805460ff191660011790556005909152902054600354610a6d9190611b85565b60035550565b6004546001600160a01b03163314610a9d5760405162461bcd60e51b81526004016105d090611aab565b6001600160a01b03166000908152600960205260409020805460ff19166001179055565b6000600354600254610ad39190611b72565b905090565b600180546105ff90611ada565b3360009081526009602052604090205460ff16610b145760405162461bcd60e51b81526004016105d090611aab565b60005b6007548110156105ed57600060078281548110610b3657610b36611b14565b6000918252602090912001546040516310e059a160e11b81526001600160a01b0386811660048301528581166024830152909116915081906321c0b342906044016020604051808303816000875af1158015610b96573d6000803e3d6000fd5b505050506040513d601f19601f82011682018060405250810190610bba9190611b2a565b50508080610bc790611b59565b915050610b17565b336000908152600c602052604090205460ff16610c205760405162461bcd60e51b815260206004820152600f60248201526e2aa9a2281d103337b93134b23232b760891b60448201526064016105d0565b61079b82826113f3565b600061068d338484610fc0565b6004546001600160a01b03163314610c615760405162461bcd60e51b81526004016105d090611aab565b6000610c6d8382611be6565b5060016105ed8282611be6565b6004546001600160a01b03163314610ca45760405162461bcd60e51b81526004016105d090611aab565b6001600160a01b03166000908152600c60205260409020805460ff19169055565b6004546001600160a01b03163314610cef5760405162461bcd60e51b81526004016105d090611aab565b600480546001600160a01b0319166001600160a01b0392909216919091179055565b6004546001600160a01b03163314610d3b5760405162461bcd60e51b81526004016105d090611aab565b6001600160a01b03919091166000908152600b60205260409020805460ff1916911515919091179055565b3360009081526009602052604090205460ff16610d955760405162461bcd60e51b81526004016105d090611aab565b6001600160a01b03811660009081526008602052604090205460ff16610dfd5760405162461bcd60e51b815260206004820152601f60248201527f5969656c64546f6b656e3a205f6163636f756e74206e6f74206d61726b65640060448201526064016105d0565b610e0681611352565b6001600160a01b0381166000908152600860209081526040808320805460ff191690556005909152902054600354610a6d9190611b72565b604080516001600160a01b038416602482015260448082018490528251808303909101815260649091019091526020810180516001600160e01b031663a9059cbb60e01b1790526105ed908490611520565b6001600160a01b038316610ef85760405162461bcd60e51b815260206004820152602960248201527f5969656c64546f6b656e3a20617070726f76652066726f6d20746865207a65726044820152686f206164647265737360b81b60648201526084016105d0565b6001600160a01b038216610f5e5760405162461bcd60e51b815260206004820152602760248201527f5969656c64546f6b656e3a20617070726f766520746f20746865207a65726f206044820152666164647265737360c81b60648201526084016105d0565b6001600160a01b0383811660008181526006602090815260408083209487168084529482529182902085905590518481527f8c5be1e5ebec7d5bd14f71427d1e84f3dd0314c0f7b2291e5b200ac8c7c3b92591015b60405180910390a3505050565b6001600160a01b0383166110295760405162461bcd60e51b815260206004820152602a60248201527f5969656c64546f6b656e3a207472616e736665722066726f6d20746865207a65604482015269726f206164647265737360b01b60648201526084016105d0565b6001600160a01b0382166110905760405162461bcd60e51b815260206004820152602860248201527f5969656c64546f6b656e3a207472616e7366657220746f20746865207a65726f604482015267206164647265737360c01b60648201526084016105d0565b600a5460ff161561110957336000908152600b602052604090205460ff166111095760405162461bcd60e51b815260206004820152602660248201527f5969656c64546f6b656e3a206d73672e73656e646572206e6f742077686974656044820152651b1a5cdd195960d21b60648201526084016105d0565b61111283611352565b61111b82611352565b6001600160a01b03831660009081526005602052604090205461113f908290611b72565b6001600160a01b03808516600090815260056020526040808220939093559084168152205461116f908290611b85565b6001600160a01b0380841660009081526005602090815260408083209490945591861681526008909152205460ff16156111b557806003546111b19190611b72565b6003555b6001600160a01b03821660009081526008602052604090205460ff16156111e857806003546111e49190611b85565b6003555b816001600160a01b0316836001600160a01b03167fddf252ad1be2c89b69c2b068fc378daa952ba7f163c4a11628f55a4df523b3ef83604051610fb391815260200190565b6001600160a01b03821661128f5760405162461bcd60e51b8152602060048201526024808201527f5969656c64546f6b656e3a206d696e7420746f20746865207a65726f206164646044820152637265737360e01b60648201526084016105d0565b61129882611352565b806002546112a69190611b85565b6002556001600160a01b0382166000908152600560205260409020546112cd908290611b85565b6001600160a01b03831660009081526005602090815260408083209390935560089052205460ff161561130c57806003546113089190611b85565b6003555b6040518181526001600160a01b038316906000907fddf252ad1be2c89b69c2b068fc378daa952ba7f163c4a11628f55a4df523b3ef906020015b60405180910390a35050565b60005b60075481101561079b5760006007828154811061137457611374611b14565b600091825260209091200154604051635fd6196560e01b81526001600160a01b03858116600483015290911691508190635fd6196590602401600060405180830381600087803b1580156113c757600080fd5b505af11580156113db573d6000803e3d6000fd5b505050505080806113eb90611b59565b915050611355565b6001600160a01b0382166114585760405162461bcd60e51b815260206004820152602660248201527f5969656c64546f6b656e3a206275726e2066726f6d20746865207a65726f206160448201526564647265737360d01b60648201526084016105d0565b61146182611352565b6001600160a01b038216600090815260056020526040902054611485908290611b72565b6001600160a01b0383166000908152600560205260409020556002546114ac908290611b72565b6002556001600160a01b03821660009081526008602052604090205460ff16156114e257806003546114de9190611b72565b6003555b6040518181526000906001600160a01b038416907fddf252ad1be2c89b69c2b068fc378daa952ba7f163c4a11628f55a4df523b3ef90602001611346565b60006115356001600160a01b03841683611583565b9050805160001415801561155a5750808060200190518101906115589190611ca6565b155b156105ed57604051635274afe760e01b81526001600160a01b03841660048201526024016105d0565b60606115948383600061159b6115b4565b9392505050565b604051630a12f52160e11b815260040160405180910390fd5b6060824710156115d95760405163cd78605960e01b81523060048201526024016105d0565b600080866001600160a01b031685876040516115f59190611cc3565b60006040518083038185875af1925050503d8060008114611632576040519150601f19603f3d011682016040523d82523d6000602084013e611637565b606091505b509150915061164887838387611655565b925050505b949350505050565b606083156116a357825160000361169c57846001600160a01b03163b60000361169c57604051639996b31560e01b81526001600160a01b03861660048201526024016105d0565b508161164d565b61164d83838151156116b85781518083602001fd5b61159b8163ffffffff16565b828054828255906000526020600020908101928215611719579160200282015b8281111561171957825182546001600160a01b0319166001600160a01b039091161782556020909201916001909101906116e4565b50611725929150611729565b5090565b5b80821115611725576000815560010161172a565b80356001600160a01b038116811461175557600080fd5b919050565b60008060006060848603121561176f57600080fd5b6117788461173e565b92506117866020850161173e565b9150604084013590509250925092565b60005b838110156117b1578181015183820152602001611799565b50506000910152565b60208152600082518060208401526117d9816040850160208701611796565b601f01601f19169190910160400192915050565b6000806040838503121561180057600080fd5b6118098361173e565b946020939093013593505050565b60006020828403121561182957600080fd5b6115948261173e565b634e487b7160e01b600052604160045260246000fd5b604051601f8201601f1916810167ffffffffffffffff8111828210171561187157611871611832565b604052919050565b6000602080838503121561188c57600080fd5b823567ffffffffffffffff808211156118a457600080fd5b818501915085601f8301126118b857600080fd5b8135818111156118ca576118ca611832565b8060051b91506118db848301611848565b81815291830184019184810190888411156118f557600080fd5b938501935b8385101561191a5761190b8561173e565b825293850193908501906118fa565b98975050505050505050565b801515811461193457600080fd5b50565b60006020828403121561194957600080fd5b813561159481611926565b60006020828403121561196657600080fd5b5035919050565b6000806040838503121561198057600080fd5b6119898361173e565b91506119976020840161173e565b90509250929050565b600082601f8301126119b157600080fd5b813567ffffffffffffffff8111156119cb576119cb611832565b6119de601f8201601f1916602001611848565b8181528460208386010111156119f357600080fd5b816020850160208301376000918101602001919091529392505050565b60008060408385031215611a2357600080fd5b823567ffffffffffffffff80821115611a3b57600080fd5b611a47868387016119a0565b93506020850135915080821115611a5d57600080fd5b50611a6a858286016119a0565b9150509250929050565b60008060408385031215611a8757600080fd5b611a908361173e565b91506020830135611aa081611926565b809150509250929050565b6020808252601590820152742cb4b2b6322a37b5b2b71d103337b93134b23232b760591b604082015260600190565b600181811c90821680611aee57607f821691505b602082108103611b0e57634e487b7160e01b600052602260045260246000fd5b50919050565b634e487b7160e01b600052603260045260246000fd5b600060208284031215611b3c57600080fd5b5051919050565b634e487b7160e01b600052601160045260246000fd5b600060018201611b6b57611b6b611b43565b5060010190565b8181038181111561069157610691611b43565b8082018082111561069157610691611b43565b601f8211156105ed57600081815260208120601f850160051c81016020861015611bbf5750805b601f850160051c820191505b81811015611bde57828155600101611bcb565b505050505050565b815167ffffffffffffffff811115611c0057611c00611832565b611c1481611c0e8454611ada565b84611b98565b602080601f831160018114611c495760008415611c315750858301515b600019600386901b1c1916600185901b178555611bde565b600085815260208120601f198616915b82811015611c7857888601518255948401946001909101908401611c59565b5085821015611c965787850151600019600388901b60f8161c191681555b5050505050600190811b01905550565b600060208284031215611cb857600080fd5b815161159481611926565b60008251611cd5818460208701611796565b919091019291505056fea264697066735822122037537b42995422f699f9d27602594bf3ddb01202642919753802ff30ecb8816f64736f6c63430008120033","linkReferences":{}},"methodIdentifiers":{"addAdmin(address)":"70480275","addNonStakingAccount(address)":"62289077","addVault(address)":"256b5a02","admins(address)":"429b62e5","allowance(address,address)":"dd62ed3e","allowances(address,address)":"55b6ed5c","approve(address,uint256)":"095ea7b3","balanceOf(address)":"70a08231","balances(address)":"27e235e3","burn(address,uint256)":"9dc29fac","claim(address)":"1e83409a","decimals()":"313ce567","gov()":"12d43a51","inWhitelistMode()":"293d6987","mint(address,uint256)":"40c10f19","name()":"06fdde03","nonStakingAccounts(address)":"9554381a","nonStakingSupply()":"c93be636","recoverClaim(address,address)":"996f11ee","removeAdmin(address)":"1785f53c","removeNonStakingAccount(address)":"fb30d916","removeVault(address)":"ceb68c23","setGov(address)":"cfad57a2","setInWhitelistMode(bool)":"4cb5bbe3","setInfo(string,string)":"a923fc40","setWhitelistedHandler(address,bool)":"d92fc87e","setYieldTrackers(address[])":"276eab4e","stakedBalance(address)":"60217267","symbol()":"95d89b41","totalStaked()":"817b1cd2","totalSupply()":"18160ddd","transfer(address,uint256)":"a9059cbb","transferFrom(address,address,uint256)":"23b872dd","vaults(address)":"a622ee7c","whitelistedHandlers(address)":"36300051","withdrawToken(address,address,uint256)":"01e33667","yieldTrackers(uint256)":"52cd38d9"},"id":138}