{
  "abi": [
    {
      "inputs": [
        {
          "internalType": "address payable",
          "name": "_orderBookAddress",
          "type": "address"
        },
        {
          "internalType": "address",
          "name": "_account",
          "type": "address"
        },
        {
          "internalType": "uint256[]",
          "name": "_indices",
          "type": "uint256[]"
        }
      ],
      "name": "getDecreaseOrders",
      "outputs": [
        {
          "internalType": "uint256[]",
          "name": "",
          "type": "uint256[]"
        },
        {
          "internalType": "address[]",
          "name": "",
          "type": "address[]"
        }
      ],
      "stateMutability": "view",
      "type": "function"
    },
    {
      "inputs": [
        {
          "internalType": "address payable",
          "name": "_orderBookAddress",
          "type": "address"
        },
        {
          "internalType": "address",
          "name": "_account",
          "type": "address"
        },
        {
          "internalType": "uint256[]",
          "name": "_indices",
          "type": "uint256[]"
        }
      ],
      "name": "getIncreaseOrders",
      "outputs": [
        {
          "internalType": "uint256[]",
          "name": "",
          "type": "uint256[]"
        },
        {
          "internalType": "address[]",
          "name": "",
          "type": "address[]"
        }
      ],
      "stateMutability": "view",
      "type": "function"
    },
    {
      "inputs": [
        {
          "internalType": "address payable",
          "name": "_orderBookAddress",
          "type": "address"
        },
        {
          "internalType": "address",
          "name": "_account",
          "type": "address"
        },
        {
          "internalType": "uint256[]",
          "name": "_indices",
          "type": "uint256[]"
        }
      ],
      "name": "getSwapOrders",
      "outputs": [
        {
          "internalType": "uint256[]",
          "name": "",
          "type": "uint256[]"
        },
        {
          "internalType": "address[]",
          "name": "",
          "type": "address[]"
        }
      ],
      "stateMutability": "view",
      "type": "function"
    }
  ],
  "bytecode": {
    "object": "0x608060405234801561001057600080fd5b50611059806100206000396000f3fe608060405234801561001057600080fd5b50600436106100415760003560e01c80630ce933b9146100465780632e18146914610070578063c38ccd5014610083575b600080fd5b610059610054366004610c9b565b610096565b604051610067929190610d80565b60405180910390f35b61005961007e366004610c9b565b610459565b610059610091366004610c9b565b610863565b60608060006040518060a001604052806000815260200160008152602001866001600160a01b0316815260200160058152602001600281525090506000845182606001516100e49190610e1a565b67ffffffffffffffff8111156100fc576100fc610c85565b604051908082528060200260200182016040528015610125578160200160208202803683370190505b50905060008551836080015161013b9190610e1a565b67ffffffffffffffff81111561015357610153610c85565b60405190808252806020026020018201604052801561017c578160200160208202803683370190505b509050875b86518451101561044b57868460000151815181106101a1576101a1610e37565b60200260200101518460200181815250506000806000806000806000876001600160a01b031663026032ee8c604001518d602001516040518363ffffffff1660e01b81526004016102079291906001600160a01b03929092168252602082015260400190565b61010060405180830381865afa158015610225573d6000803e3d6000fd5b505050506040513d601f19601f820116820180604052508101906102499190610e62565b509650965096509650965096509650858a8c606001518d6000015161026e9190610e1a565b8151811061027e5761027e610e37565b602002602001018181525050838a8c606001518d600001516102a09190610e1a565b6102ab906001610ee3565b815181106102bb576102bb610e37565b602002602001018181525050826102d35760006102d6565b60015b60ff168a8c606001518d600001516102ee9190610e1a565b6102f9906002610ee3565b8151811061030957610309610e37565b602002602001018181525050818a8c606001518d6000015161032b9190610e1a565b610336906003610ee3565b8151811061034657610346610e37565b6020026020010181815250508061035e576000610361565b60015b60ff168a8c606001518d600001516103799190610e1a565b610384906004610ee3565b8151811061039457610394610e37565b60200260200101818152505086898c608001518d600001516103b69190610e1a565b815181106103c6576103c6610e37565b60200260200101906001600160a01b031690816001600160a01b03168152505084898c608001518d600001516103fc9190610e1a565b610407906001610ee3565b8151811061041757610417610e37565b6001600160a01b03909216602092830291909101909101528a518b61043b82610ef6565b8152505050505050505050610181565b509097909650945050505050565b60608060006040518060a001604052806000815260200160008152602001866001600160a01b0316815260200160058152602001600381525090506000845182606001516104a79190610e1a565b67ffffffffffffffff8111156104bf576104bf610c85565b6040519080825280602002602001820160405280156104e8578160200160208202803683370190505b5090506000855183608001516104fe9190610e1a565b67ffffffffffffffff81111561051657610516610c85565b60405190808252806020026020018201604052801561053f578160200160208202803683370190505b509050875b86518451101561044b578684600001518151811061056457610564610e37565b6020026020010151846020018181525050600080600080600080600080886001600160a01b031663d0d40cd68d604001518e602001516040518363ffffffff1660e01b81526004016105cb9291906001600160a01b03929092168252602082015260400190565b61012060405180830381865afa1580156105e9573d6000803e3d6000fd5b505050506040513d601f19601f8201168201806040525081019061060d9190610f0f565b5097509750975097509750975097509750848b8d606001518e600001516106349190610e1a565b8151811061064457610644610e37565b602002602001018181525050838b8d606001518e600001516106669190610e1a565b610671906001610ee3565b8151811061068157610681610e37565b602002602001018181525050828b8d606001518e600001516106a39190610e1a565b6106ae906002610ee3565b815181106106be576106be610e37565b602002602001018181525050816106d65760006106d9565b60015b60ff168b8d606001518e600001516106f19190610e1a565b6106fc906003610ee3565b8151811061070c5761070c610e37565b60200260200101818152505080610724576000610727565b60015b60ff168b8d606001518e6000015161073f9190610e1a565b61074a906004610ee3565b8151811061075a5761075a610e37565b602002602001018181525050878a8d608001518e6000015161077c9190610e1a565b8151811061078c5761078c610e37565b60200260200101906001600160a01b031690816001600160a01b031681525050868a8d608001518e600001516107c29190610e1a565b6107cd906001610ee3565b815181106107dd576107dd610e37565b60200260200101906001600160a01b031690816001600160a01b031681525050858a8d608001518e600001516108139190610e1a565b61081e906002610ee3565b8151811061082e5761082e610e37565b6001600160a01b03909216602092830291909101909101528b518c61085282610ef6565b815250505050505050505050610544565b60608060006040518060a001604052806000815260200160008152602001866001600160a01b0316815260200160058152602001600381525090506000845182606001516108b19190610e1a565b67ffffffffffffffff8111156108c9576108c9610c85565b6040519080825280602002602001820160405280156108f2578160200160208202803683370190505b5090506000855183608001516109089190610e1a565b67ffffffffffffffff81111561092057610920610c85565b604051908082528060200260200182016040528015610949578160200160208202803683370190505b509050875b86518451101561044b578684600001518151811061096e5761096e610e37565b6020026020010151846020018181525050600080600080600080600080886001600160a01b031663d3bab1d18d604001518e602001516040518363ffffffff1660e01b81526004016109d59291906001600160a01b03929092168252602082015260400190565b61012060405180830381865afa1580156109f3573d6000803e3d6000fd5b505050506040513d601f19601f82011682018060405250810190610a179190610fa5565b5097509750975097509750975097509750868b8d606001518e60000151610a3e9190610e1a565b81518110610a4e57610a4e610e37565b602002602001018181525050838b8d606001518e60000151610a709190610e1a565b610a7b906001610ee3565b81518110610a8b57610a8b610e37565b60200260200101818152505082610aa3576000610aa6565b60015b60ff168b8d606001518e60000151610abe9190610e1a565b610ac9906002610ee3565b81518110610ad957610ad9610e37565b602002602001018181525050818b8d606001518e60000151610afb9190610e1a565b610b06906003610ee3565b81518110610b1657610b16610e37565b60200260200101818152505080610b2e576000610b31565b60015b60ff168b8d606001518e60000151610b499190610e1a565b610b54906004610ee3565b81518110610b6457610b64610e37565b602002602001018181525050878a8d608001518e60000151610b869190610e1a565b81518110610b9657610b96610e37565b60200260200101906001600160a01b031690816001600160a01b031681525050858a8d608001518e60000151610bcc9190610e1a565b610bd7906001610ee3565b81518110610be757610be7610e37565b60200260200101906001600160a01b031690816001600160a01b031681525050848a8d608001518e60000151610c1d9190610e1a565b610c28906002610ee3565b81518110610c3857610c38610e37565b6001600160a01b03909216602092830291909101909101528b518c610c5c82610ef6565b81525050505050505050505061094e565b6001600160a01b0381168114610c8257600080fd5b50565b634e487b7160e01b600052604160045260246000fd5b600080600060608486031215610cb057600080fd5b8335610cbb81610c6d565b9250602084810135610ccc81610c6d565b9250604085013567ffffffffffffffff80821115610ce957600080fd5b818701915087601f830112610cfd57600080fd5b813581811115610d0f57610d0f610c85565b8060051b604051601f19603f83011681018181108582111715610d3457610d34610c85565b60405291825284820192508381018501918a831115610d5257600080fd5b938501935b82851015610d7057843584529385019392850192610d57565b8096505050505050509250925092565b604080825283519082018190526000906020906060840190828701845b82811015610db957815184529284019290840190600101610d9d565b5050508381038285015284518082528583019183019060005b81811015610df75783516001600160a01b031683529284019291840191600101610dd2565b5090979650505050505050565b634e487b7160e01b600052601160045260246000fd5b8082028115828204841417610e3157610e31610e04565b92915050565b634e487b7160e01b600052603260045260246000fd5b80518015158114610e5d57600080fd5b919050565b600080600080600080600080610100898b031215610e7f57600080fd5b8851610e8a81610c6d565b60208a015160408b01519199509750610ea281610c6d565b60608a01519096509450610eb860808a01610e4d565b935060a08901519250610ecd60c08a01610e4d565b915060e089015190509295985092959890939650565b80820180821115610e3157610e31610e04565b600060018201610f0857610f08610e04565b5060010190565b60008060008060008060008060006101208a8c031215610f2e57600080fd5b8951610f3981610c6d565b60208b0151909950610f4a81610c6d565b60408b0151909850610f5b81610c6d565b8097505060608a0151955060808a0151945060a08a01519350610f8060c08b01610e4d565b9250610f8e60e08b01610e4d565b91506101008a015190509295985092959850929598565b60008060008060008060008060006101208a8c031215610fc457600080fd5b8951610fcf81610c6d565b60208b015160408c0151919a509850610fe781610c6d565b60608b0151909750610ff881610c6d565b60808b0151909650945061100e60a08b01610e4d565b935060c08a01519250610f8e60e08b01610e4d56fea264697066735822122010f9a366f329e841385fb099fb71e2e5c6839a5f7109ffb5b711ef30610f799364736f6c63430008120033",
    "linkReferences": {}
  },
  "methodIdentifiers": {
    "getDecreaseOrders(address,address,uint256[])": "0ce933b9",
    "getIncreaseOrders(address,address,uint256[])": "c38ccd50",
    "getSwapOrders(address,address,uint256[])": "2e181469"
  },
  "id": 90
}