{"abi":[{"type":"constructor","inputs":[{"name":"_token","type":"address","internalType":"address"},{"name":"_wToken","type":"address","internalType":"address"}],"stateMutability":"nonpayable"},{"type":"function","name":"gov","inputs":[],"outputs":[{"name":"","type":"address","internalType":"address"}],"stateMutability":"view"},{"type":"function","name":"setGov","inputs":[{"name":"_gov","type":"address","internalType":"address"}],"outputs":[],"stateMutability":"nonpayable"},{"type":"function","name":"token","inputs":[],"outputs":[{"name":"","type":"address","internalType":"address"}],"stateMutability":"view"},{"type":"function","name":"unwrap","inputs":[{"name":"_amount","type":"uint256","internalType":"uint256"},{"name":"_receiver","type":"address","internalType":"address"}],"outputs":[],"stateMutability":"nonpayable"},{"type":"function","name":"wToken","inputs":[],"outputs":[{"name":"","type":"address","internalType":"address"}],"stateMutability":"view"},{"type":"function","name":"withdrawToken","inputs":[{"name":"_token","type":"address","internalType":"address"},{"name":"_account","type":"address","internalType":"address"},{"name":"_amount","type":"uint256","internalType":"uint256"}],"outputs":[],"stateMutability":"nonpayable"},{"type":"function","name":"wrap","inputs":[{"name":"_amount","type":"uint256","internalType":"uint256"},{"name":"_receiver","type":"address","internalType":"address"}],"outputs":[],"stateMutability":"nonpayable"},{"type":"error","name":"AddressEmptyCode","inputs":[{"name":"target","type":"address","internalType":"address"}]},{"type":"error","name":"AddressInsufficientBalance","inputs":[{"name":"account","type":"address","internalType":"address"}]},{"type":"error","name":"FailedInnerCall","inputs":[]},{"type":"error","name":"ReentrancyGuardReentrantCall","inputs":[]},{"type":"error","name":"SafeERC20FailedOperation","inputs":[{"name":"token","type":"address","internalType":"address"}]}],"bytecode":{"object":"0x608060405234801561001057600080fd5b5060405161073b38038061073b83398101604081905261002f9161008c565b6001600081905580546001600160a01b03199081163317909155600280546001600160a01b03948516908316179055600380549290931691161790556100bf565b80516001600160a01b038116811461008757600080fd5b919050565b6000806040838503121561009f57600080fd5b6100a883610070565b91506100b660208401610070565b90509250929050565b61066d806100ce6000396000f3fe608060405234801561001057600080fd5b506004361061007d5760003560e01c806313bac8201161005b57806313bac820146100d95780637647691d146100ec578063cfad57a2146100ff578063fc0c546a1461011257600080fd5b806301e33667146100825780630babd8641461009757806312d43a51146100c6575b600080fd5b610095610090366004610563565b610125565b005b6003546100aa906001600160a01b031681565b6040516001600160a01b03909116815260200160405180910390f35b6001546100aa906001600160a01b031681565b6100956100e736600461059f565b610195565b6100956100fa36600461059f565b6101da565b61009561010d3660046105cb565b610211565b6002546100aa906001600160a01b031681565b6001546001600160a01b0316331461017c5760405162461bcd60e51b815260206004820152601560248201527423b7bb32b93730b136329d103337b93134b23232b760591b60448201526064015b60405180910390fd5b6101906001600160a01b03841683836102db565b505050565b61019d61033a565b6002546101b5906001600160a01b0316333085610364565b6003546101cc906001600160a01b031682846102db565b6101d66001600055565b5050565b6101e261033a565b6003546101fa906001600160a01b0316333085610364565b6002546101cc906001600160a01b031682846102db565b6001546001600160a01b031633146102635760405162461bcd60e51b815260206004820152601560248201527423b7bb32b93730b136329d103337b93134b23232b760591b6044820152606401610173565b6001600160a01b0381166102b95760405162461bcd60e51b815260206004820181905260248201527f476f7665726e61626c653a205f676f76206973207a65726f20616464726573736044820152606401610173565b600180546001600160a01b0319166001600160a01b0392909216919091179055565b6040516001600160a01b0383811660248301526044820183905261019091859182169063a9059cbb906064015b604051602081830303815290604052915060e01b6020820180516001600160e01b0383818316178352505050506103a3565b60026000540361035d57604051633ee5aeb560e01b815260040160405180910390fd5b6002600055565b6040516001600160a01b03848116602483015283811660448301526064820183905261039d9186918216906323b872dd90608401610308565b50505050565b60006103b86001600160a01b03841683610406565b905080516000141580156103dd5750808060200190518101906103db91906105e6565b155b1561019057604051635274afe760e01b81526001600160a01b0384166004820152602401610173565b60606104178383600061041e610437565b9392505050565b604051630a12f52160e11b815260040160405180910390fd5b60608247101561045c5760405163cd78605960e01b8152306004820152602401610173565b600080866001600160a01b031685876040516104789190610608565b60006040518083038185875af1925050503d80600081146104b5576040519150601f19603f3d011682016040523d82523d6000602084013e6104ba565b606091505b50915091506104cb878383876104d8565b925050505b949350505050565b6060831561052657825160000361051f57846001600160a01b03163b60000361051f57604051639996b31560e01b81526001600160a01b0386166004820152602401610173565b50816104d0565b6104d0838381511561053b5781518083602001fd5b61041e8163ffffffff16565b80356001600160a01b038116811461055e57600080fd5b919050565b60008060006060848603121561057857600080fd5b61058184610547565b925061058f60208501610547565b9150604084013590509250925092565b600080604083850312156105b257600080fd5b823591506105c260208401610547565b90509250929050565b6000602082840312156105dd57600080fd5b61041782610547565b6000602082840312156105f857600080fd5b8151801515811461041757600080fd5b6000825160005b81811015610629576020818601810151858301520161060f565b50600092019182525091905056fea2646970667358221220c07eb4e7a4e4330740ee8fa46e7d43e5a30790b2d8a96156beca52ff3209fa7164736f6c63430008120033","linkReferences":{}},"methodIdentifiers":{"gov()":"12d43a51","setGov(address)":"cfad57a2","token()":"fc0c546a","unwrap(uint256,address)":"7647691d","wToken()":"0babd864","withdrawToken(address,address,uint256)":"01e33667","wrap(uint256,address)":"13bac820"},"id":118}