{
  "abi": [
    {
      "inputs": [
        {
          "internalType": "address",
          "name": "_rewardToken",
          "type": "address"
        },
        {
          "internalType": "address",
          "name": "_rewardTracker",
          "type": "address"
        }
      ],
      "stateMutability": "nonpayable",
      "type": "constructor"
    },
    {
      "anonymous": false,
      "inputs": [
        {
          "indexed": false,
          "internalType": "uint256",
          "name": "amount",
          "type": "uint256"
        }
      ],
      "name": "BonusMultiplierChange",
      "type": "event"
    },
    {
      "anonymous": false,
      "inputs": [
        {
          "indexed": false,
          "internalType": "uint256",
          "name": "amount",
          "type": "uint256"
        }
      ],
      "name": "Distribute",
      "type": "event"
    },
    {
      "inputs": [],
      "name": "BASIS_POINTS_DIVISOR",
      "outputs": [
        {
          "internalType": "uint256",
          "name": "",
          "type": "uint256"
        }
      ],
      "stateMutability": "view",
      "type": "function"
    },
    {
      "inputs": [],
      "name": "BONUS_DURATION",
      "outputs": [
        {
          "internalType": "uint256",
          "name": "",
          "type": "uint256"
        }
      ],
      "stateMutability": "view",
      "type": "function"
    },
    {
      "inputs": [],
      "name": "admin",
      "outputs": [
        {
          "internalType": "address",
          "name": "",
          "type": "address"
        }
      ],
      "stateMutability": "view",
      "type": "function"
    },
    {
      "inputs": [],
      "name": "bonusMultiplierBasisPoints",
      "outputs": [
        {
          "internalType": "uint256",
          "name": "",
          "type": "uint256"
        }
      ],
      "stateMutability": "view",
      "type": "function"
    },
    {
      "inputs": [],
      "name": "distribute",
      "outputs": [
        {
          "internalType": "uint256",
          "name": "",
          "type": "uint256"
        }
      ],
      "stateMutability": "nonpayable",
      "type": "function"
    },
    {
      "inputs": [],
      "name": "gov",
      "outputs": [
        {
          "internalType": "address",
          "name": "",
          "type": "address"
        }
      ],
      "stateMutability": "view",
      "type": "function"
    },
    {
      "inputs": [],
      "name": "lastDistributionTime",
      "outputs": [
        {
          "internalType": "uint256",
          "name": "",
          "type": "uint256"
        }
      ],
      "stateMutability": "view",
      "type": "function"
    },
    {
      "inputs": [],
      "name": "pendingRewards",
      "outputs": [
        {
          "internalType": "uint256",
          "name": "",
          "type": "uint256"
        }
      ],
      "stateMutability": "view",
      "type": "function"
    },
    {
      "inputs": [],
      "name": "rewardToken",
      "outputs": [
        {
          "internalType": "address",
          "name": "",
          "type": "address"
        }
      ],
      "stateMutability": "view",
      "type": "function"
    },
    {
      "inputs": [],
      "name": "rewardTracker",
      "outputs": [
        {
          "internalType": "address",
          "name": "",
          "type": "address"
        }
      ],
      "stateMutability": "view",
      "type": "function"
    },
    {
      "inputs": [
        {
          "internalType": "address",
          "name": "_admin",
          "type": "address"
        }
      ],
      "name": "setAdmin",
      "outputs": [],
      "stateMutability": "nonpayable",
      "type": "function"
    },
    {
      "inputs": [
        {
          "internalType": "uint256",
          "name": "_bonusMultiplierBasisPoints",
          "type": "uint256"
        }
      ],
      "name": "setBonusMultiplier",
      "outputs": [],
      "stateMutability": "nonpayable",
      "type": "function"
    },
    {
      "inputs": [
        {
          "internalType": "address",
          "name": "_gov",
          "type": "address"
        }
      ],
      "name": "setGov",
      "outputs": [],
      "stateMutability": "nonpayable",
      "type": "function"
    },
    {
      "inputs": [],
      "name": "tokensPerInterval",
      "outputs": [
        {
          "internalType": "uint256",
          "name": "",
          "type": "uint256"
        }
      ],
      "stateMutability": "view",
      "type": "function"
    },
    {
      "inputs": [],
      "name": "updateLastDistributionTime",
      "outputs": [],
      "stateMutability": "nonpayable",
      "type": "function"
    },
    {
      "inputs": [
        {
          "internalType": "address",
          "name": "_token",
          "type": "address"
        },
        {
          "internalType": "address",
          "name": "_account",
          "type": "address"
        },
        {
          "internalType": "uint256",
          "name": "_amount",
          "type": "uint256"
        }
      ],
      "name": "withdrawToken",
      "outputs": [],
      "stateMutability": "nonpayable",
      "type": "function"
    }
  ],
  "bytecode": {
    "object": "0x608060405234801561001057600080fd5b50604051610f02380380610f028339818101604052604081101561003357600080fd5b5080516020909101516001600081905580546001600160a01b031990811633908117909255600380546001600160a01b0395861690831617905560058054949093169381169390931790915560068054909216179055610e6a806100986000396000f3fe608060405234801561001057600080fd5b50600436106101005760003560e01c8063a013ad5411610097578063eded3fda11610066578063eded3fda146101ff578063f7c618c114610207578063f851a4401461020f578063fd58e63a1461021757610100565b8063a013ad54146101c1578063a8d93627146101c9578063cfad57a2146101d1578063e4fc6b6d146101f757610100565b80633ae6d6eb116100d35780633ae6d6eb146101835780636bcb411a1461018b578063704b6c021461019357806375b17350146101b957610100565b806301e3366714610105578063126082cf1461013d57806312d43a51146101575780632f6beaa51461017b575b600080fd5b61013b6004803603606081101561011b57600080fd5b506001600160a01b03813581169160208101359091169060400135610234565b005b6101456102a4565b60408051918252519081900360200190f35b61015f6102aa565b604080516001600160a01b039092168252519081900360200190f35b6101456102b9565b61013b6102bf565b61015f610324565b61013b600480360360208110156101a957600080fd5b50356001600160a01b0316610333565b6101456103ac565b6101456103b2565b6101456103ba565b61013b600480360360208110156101e757600080fd5b50356001600160a01b0316610465565b610145610539565b61014561067e565b61015f61074d565b61015f61075c565b61013b6004803603602081101561022d57600080fd5b503561076b565b6001546001600160a01b0316331461028b576040805162461bcd60e51b815260206004820152601560248201527423b7bb32b93730b136329d103337b93134b23232b760591b604482015290519081900360640190fd5b61029f6001600160a01b03841683836108ab565b505050565b61271081565b6001546001600160a01b031681565b60025481565b6006546001600160a01b0316331461031e576040805162461bcd60e51b815260206004820152601b60248201527f426f6e75734469737472696275746f723a20666f7262696464656e0000000000604482015290519081900360640190fd5b42600455565b6005546001600160a01b031681565b6001546001600160a01b0316331461038a576040805162461bcd60e51b815260206004820152601560248201527423b7bb32b93730b136329d103337b93134b23232b760591b604482015290519081900360640190fd5b600680546001600160a01b0319166001600160a01b0392909216919091179055565b60045481565b6301e1338081565b600080600560009054906101000a90046001600160a01b03166001600160a01b03166318160ddd6040518163ffffffff1660e01b815260040160206040518083038186803b15801561040b57600080fd5b505afa15801561041f573d6000803e3d6000fd5b505050506040513d602081101561043557600080fd5b505160025490915061045e906301e13380906104589061271090829086906108fd565b9061095f565b9150505b90565b6001546001600160a01b031633146104bc576040805162461bcd60e51b815260206004820152601560248201527423b7bb32b93730b136329d103337b93134b23232b760591b604482015290519081900360640190fd5b6001600160a01b038116610517576040805162461bcd60e51b815260206004820181905260248201527f476f7665726e61626c653a205f676f76206973207a65726f2061646472657373604482015290519081900360640190fd5b600180546001600160a01b0319166001600160a01b0392909216919091179055565b6005546000906001600160a01b031633146105855760405162461bcd60e51b8152600401808060200182810382526024815260200180610de76024913960400191505060405180910390fd5b600061058f61067e565b9050806105a0576000915050610462565b426004908155600354604080516370a0823160e01b81523093810193909352516000926001600160a01b03909216916370a08231916024808301926020929190829003018186803b1580156105f457600080fd5b505afa158015610608573d6000803e3d6000fd5b505050506040513d602081101561061e57600080fd5b505190508082111561062e578091505b600354610645906001600160a01b031633846108ab565b6040805183815290517f4def474aca53bf221d07d9ab0f675b3f6d8d2494b8427271bcf43c018ef1eead9181900360200190a150905090565b600060045442141561069257506000610462565b600554604080516318160ddd60e01b815290516000926001600160a01b0316916318160ddd916004808301926020929190829003018186803b1580156106d757600080fd5b505afa1580156106eb573d6000803e3d6000fd5b505050506040513d602081101561070157600080fd5b50516004549091506000906107179042906109a1565b90506107466301e1338061045861271061045860025461074088886108fd90919063ffffffff16565b906108fd565b9250505090565b6003546001600160a01b031681565b6006546001600160a01b031681565b6006546001600160a01b031633146107ca576040805162461bcd60e51b815260206004820152601b60248201527f426f6e75734469737472696275746f723a20666f7262696464656e0000000000604482015290519081900360640190fd5b6004546108085760405162461bcd60e51b815260040180806020018281038252602e815260200180610d98602e913960400191505060405180910390fd5b600560009054906101000a90046001600160a01b03166001600160a01b0316633e158b0c6040518163ffffffff1660e01b8152600401600060405180830381600087803b15801561085857600080fd5b505af115801561086c573d6000803e3d6000fd5b5050506002829055506040805182815290517f58585e4edc172f6517d6789356504dc9ad23553d02202c3ac454a8d0733f6b2b9181900360200190a150565b604080516001600160a01b038416602482015260448082018490528251808303909101815260649091019091526020810180516001600160e01b031663a9059cbb60e01b17905261029f9084906109e3565b60008261090c57506000610959565b8282028284828161091957fe5b04146109565760405162461bcd60e51b8152600401808060200182810382526021815260200180610dc66021913960400191505060405180910390fd5b90505b92915050565b600061095683836040518060400160405280601a81526020017f536166654d6174683a206469766973696f6e206279207a65726f000000000000815250610a94565b600061095683836040518060400160405280601e81526020017f536166654d6174683a207375627472616374696f6e206f766572666c6f770000815250610b38565b6060610a38826040518060400160405280602081526020017f5361666545524332303a206c6f772d6c6576656c2063616c6c206661696c6564815250856001600160a01b0316610b929092919063ffffffff16565b80519091501561029f57808060200190516020811015610a5757600080fd5b505161029f5760405162461bcd60e51b815260040180806020018281038252602a815260200180610e0b602a913960400191505060405180910390fd5b60008183610b205760405162461bcd60e51b81526004018080602001828103825283818151815260200191508051906020019080838360005b83811015610ae5578181015183820152602001610acd565b50505050905090810190601f168015610b125780820380516001836020036101000a031916815260200191505b509250505060405180910390fd5b506000838581610b2c57fe5b049150505b9392505050565b60008184841115610b8a5760405162461bcd60e51b8152602060048201818152835160248401528351909283926044909101919085019080838360008315610ae5578181015183820152602001610acd565b505050900390565b6060610ba18484600085610ba9565b949350505050565b606082471015610bea5760405162461bcd60e51b8152600401808060200182810382526026815260200180610d726026913960400191505060405180910390fd5b610bf385610d05565b610c44576040805162461bcd60e51b815260206004820152601d60248201527f416464726573733a2063616c6c20746f206e6f6e2d636f6e7472616374000000604482015290519081900360640190fd5b60006060866001600160a01b031685876040518082805190602001908083835b60208310610c835780518252601f199092019160209182019101610c64565b6001836020036101000a03801982511681845116808217855250505050505090500191505060006040518083038185875af1925050503d8060008114610ce5576040519150601f19603f3d011682016040523d82523d6000602084013e610cea565b606091505b5091509150610cfa828286610d0b565b979650505050505050565b3b151590565b60608315610d1a575081610b31565b825115610d2a5782518084602001fd5b60405162461bcd60e51b8152602060048201818152845160248401528451859391928392604401919085019080838360008315610ae5578181015183820152602001610acd56fe416464726573733a20696e73756666696369656e742062616c616e636520666f722063616c6c426f6e75734469737472696275746f723a20696e76616c6964206c617374446973747269627574696f6e54696d65536166654d6174683a206d756c7469706c69636174696f6e206f766572666c6f77426f6e75734469737472696275746f723a20696e76616c6964206d73672e73656e6465725361666545524332303a204552433230206f7065726174696f6e20646964206e6f742073756363656564a264697066735822122012b43db110e30374bc1e8a30266e39765c122f7d80d87487e4f465f597518e5564736f6c634300060c0033",
    "linkReferences": {}
  },
  "methodIdentifiers": {
    "BASIS_POINTS_DIVISOR()": "126082cf",
    "BONUS_DURATION()": "a013ad54",
    "admin()": "f851a440",
    "bonusMultiplierBasisPoints()": "2f6beaa5",
    "distribute()": "e4fc6b6d",
    "gov()": "12d43a51",
    "lastDistributionTime()": "75b17350",
    "pendingRewards()": "eded3fda",
    "rewardToken()": "f7c618c1",
    "rewardTracker()": "6bcb411a",
    "setAdmin(address)": "704b6c02",
    "setBonusMultiplier(uint256)": "fd58e63a",
    "setGov(address)": "cfad57a2",
    "tokensPerInterval()": "a8d93627",
    "updateLastDistributionTime()": "3ae6d6eb",
    "withdrawToken(address,address,uint256)": "01e33667"
  },
  "id": 111
}