{"abi":[{"type":"function","name":"getVaultTokenInfoV3","inputs":[{"name":"_vault","type":"address","internalType":"address"},{"name":"_positionManager","type":"address","internalType":"address"},{"name":"_weth","type":"address","internalType":"address"},{"name":"_usdpAmount","type":"uint256","internalType":"uint256"},{"name":"_tokens","type":"address[]","internalType":"address[]"}],"outputs":[{"name":"","type":"uint256[]","internalType":"uint256[]"}],"stateMutability":"view"},{"type":"function","name":"getVaultTokenInfoV4","inputs":[{"name":"_vault","type":"address","internalType":"address"},{"name":"_positionManager","type":"address","internalType":"address"},{"name":"_weth","type":"address","internalType":"address"},{"name":"_usdpAmount","type":"uint256","internalType":"uint256"},{"name":"_tokens","type":"address[]","internalType":"address[]"}],"outputs":[{"name":"","type":"uint256[]","internalType":"uint256[]"}],"stateMutability":"view"}],"bytecode":{"object":"0x608060405234801561001057600080fd5b506116e6806100206000396000f3fe608060405234801561001057600080fd5b50600436106100365760003560e01c8063d3f3265c1461003b578063f75e810114610064575b600080fd5b61004e6100493660046114b1565b610077565b60405161005b91906115ba565b60405180910390f35b61004e6100723660046114b1565b610aca565b60606000600f905060008790506000816001600160a01b031663741bef1a6040518163ffffffff1660e01b8152600401602060405180830381865afa1580156100c4573d6000803e3d6000fd5b505050506040513d601f19601f820116820180604052508101906100e891906115fe565b9050600088905060008487516100fe9190611638565b67ffffffffffffffff8111156101165761011661149b565b60405190808252806020026020018201604052801561013f578160200160208202803683370190505b50905060005b8751811015610abb57600088828151811061016257610162611655565b6020026020010151905060006001600160a01b0316816001600160a01b0316036101895750895b6040516352f55eed60e01b81526001600160a01b0382811660048301528716906352f55eed90602401602060405180830381865afa1580156101cf573d6000803e3d6000fd5b505050506040513d601f19601f820116820180604052508101906101f3919061166b565b836101fe8985611638565b8151811061020e5761020e611655565b602090810291909101015260405163c3c7b9e960e01b81526001600160a01b03828116600483015287169063c3c7b9e990602401602060405180830381865afa15801561025f573d6000803e3d6000fd5b505050506040513d601f19601f82011682018060405250810190610283919061166b565b8361028e8985611638565b610299906001611684565b815181106102a9576102a9611655565b602090810291909101015260405163345a947960e11b81526001600160a01b0382811660048301528716906368b528f290602401602060405180830381865afa1580156102fa573d6000803e3d6000fd5b505050506040513d601f19601f8201168201806040525081019061031e919061166b565b836103298985611638565b610334906002611684565b8151811061034457610344611655565b6020908102919091010152604051632c668ec160e01b81526001600160a01b038281166004830152602482018c9052871690632c668ec190604401602060405180830381865afa15801561039c573d6000803e3d6000fd5b505050506040513d601f19601f820116820180604052508101906103c0919061166b565b836103cb8985611638565b6103d6906003611684565b815181106103e6576103e6611655565b6020908102919091010152604051632acbceb560e21b81526001600160a01b03828116600483015287169063ab2f3ad490602401602060405180830381865afa158015610437573d6000803e3d6000fd5b505050506040513d601f19601f8201168201806040525081019061045b919061166b565b836104668985611638565b610471906004611684565b8151811061048157610481611655565b6020908102919091010152604051634a993ee960e01b81526001600160a01b038281166004830152871690634a993ee990602401602060405180830381865afa1580156104d2573d6000803e3d6000fd5b505050506040513d601f19601f820116820180604052508101906104f6919061166b565b836105018985611638565b61050c906005611684565b8151811061051c5761051c611655565b602090810291909101015260405163c6baf66160e01b81526001600160a01b03828116600483015287169063c6baf66190602401602060405180830381865afa15801561056d573d6000803e3d6000fd5b505050506040513d601f19601f82011682018060405250810190610591919061166b565b8361059c8985611638565b6105a7906006611684565b815181106105b7576105b7611655565b602090810291909101015260405163114f1b5560e31b81526001600160a01b038281166004830152871690638a78daa890602401602060405180830381865afa158015610608573d6000803e3d6000fd5b505050506040513d601f19601f8201168201806040525081019061062c919061166b565b836106378985611638565b610642906007611684565b8151811061065257610652611655565b6020908102919091010152604051634b4c692d60e11b81526001600160a01b038281166004830152851690639698d25a90602401602060405180830381865afa1580156106a3573d6000803e3d6000fd5b505050506040513d601f19601f820116820180604052508101906106c7919061166b565b836106d28985611638565b6106dd906008611684565b815181106106ed576106ed611655565b6020908102919091010152604051630822e3a760e11b81526001600160a01b038281166004830152851690631045c74e90602401602060405180830381865afa15801561073e573d6000803e3d6000fd5b505050506040513d601f19601f82011682018060405250810190610762919061166b565b8361076d8985611638565b610778906009611684565b8151811061078857610788611655565b60209081029190910101526040516340d3096b60e11b81526001600160a01b0382811660048301528716906381a612d690602401602060405180830381865afa1580156107d9573d6000803e3d6000fd5b505050506040513d601f19601f820116820180604052508101906107fd919061166b565b836108088985611638565b61081390600a611684565b8151811061082357610823611655565b6020908102919091010152604051637092736960e11b81526001600160a01b03828116600483015287169063e124e6d290602401602060405180830381865afa158015610874573d6000803e3d6000fd5b505050506040513d601f19601f82011682018060405250810190610898919061166b565b836108a38985611638565b6108ae90600b611684565b815181106108be576108be611655565b602090810291909101015260405163783a2b6760e11b81526001600160a01b03828116600483015287169063f07456ce90602401602060405180830381865afa15801561090f573d6000803e3d6000fd5b505050506040513d601f19601f82011682018060405250810190610933919061166b565b8361093e8985611638565b61094990600c611684565b8151811061095957610959611655565b60209081029190910101526040516356c8c2c160e01b81526001600160a01b038281166004830152600060248301528616906356c8c2c190604401602060405180830381865afa1580156109b1573d6000803e3d6000fd5b505050506040513d601f19601f820116820180604052508101906109d5919061166b565b836109e08985611638565b6109eb90600d611684565b815181106109fb576109fb611655565b60209081029190910101526040516356c8c2c160e01b81526001600160a01b038281166004830152600160248301528616906356c8c2c190604401602060405180830381865afa158015610a53573d6000803e3d6000fd5b505050506040513d601f19601f82011682018060405250810190610a77919061166b565b83610a828985611638565b610a8d90600e611684565b81518110610a9d57610a9d611655565b60209081029190910101525080610ab381611697565b915050610145565b509a9950505050505050505050565b60606000600e905060008790506000816001600160a01b031663741bef1a6040518163ffffffff1660e01b8152600401602060405180830381865afa158015610b17573d6000803e3d6000fd5b505050506040513d601f19601f82011682018060405250810190610b3b91906115fe565b905060008890506000848751610b519190611638565b67ffffffffffffffff811115610b6957610b6961149b565b604051908082528060200260200182016040528015610b92578160200160208202803683370190505b50905060005b8751811015610abb576000888281518110610bb557610bb5611655565b6020026020010151905060006001600160a01b0316816001600160a01b031603610bdc5750895b6040516352f55eed60e01b81526001600160a01b0382811660048301528716906352f55eed90602401602060405180830381865afa158015610c22573d6000803e3d6000fd5b505050506040513d601f19601f82011682018060405250810190610c46919061166b565b83610c518985611638565b81518110610c6157610c61611655565b602090810291909101015260405163c3c7b9e960e01b81526001600160a01b03828116600483015287169063c3c7b9e990602401602060405180830381865afa158015610cb2573d6000803e3d6000fd5b505050506040513d601f19601f82011682018060405250810190610cd6919061166b565b83610ce18985611638565b610cec906001611684565b81518110610cfc57610cfc611655565b602090810291909101015260405163345a947960e11b81526001600160a01b0382811660048301528716906368b528f290602401602060405180830381865afa158015610d4d573d6000803e3d6000fd5b505050506040513d601f19601f82011682018060405250810190610d71919061166b565b83610d7c8985611638565b610d87906002611684565b81518110610d9757610d97611655565b6020908102919091010152604051632c668ec160e01b81526001600160a01b038281166004830152602482018c9052871690632c668ec190604401602060405180830381865afa158015610def573d6000803e3d6000fd5b505050506040513d601f19601f82011682018060405250810190610e13919061166b565b83610e1e8985611638565b610e29906003611684565b81518110610e3957610e39611655565b6020908102919091010152604051632acbceb560e21b81526001600160a01b03828116600483015287169063ab2f3ad490602401602060405180830381865afa158015610e8a573d6000803e3d6000fd5b505050506040513d601f19601f82011682018060405250810190610eae919061166b565b83610eb98985611638565b610ec4906004611684565b81518110610ed457610ed4611655565b6020908102919091010152604051634a993ee960e01b81526001600160a01b038281166004830152871690634a993ee990602401602060405180830381865afa158015610f25573d6000803e3d6000fd5b505050506040513d601f19601f82011682018060405250810190610f49919061166b565b83610f548985611638565b610f5f906005611684565b81518110610f6f57610f6f611655565b602090810291909101015260405163c6baf66160e01b81526001600160a01b03828116600483015287169063c6baf66190602401602060405180830381865afa158015610fc0573d6000803e3d6000fd5b505050506040513d601f19601f82011682018060405250810190610fe4919061166b565b83610fef8985611638565b610ffa906006611684565b8151811061100a5761100a611655565b602090810291909101015260405163114f1b5560e31b81526001600160a01b038281166004830152871690638a78daa890602401602060405180830381865afa15801561105b573d6000803e3d6000fd5b505050506040513d601f19601f8201168201806040525081019061107f919061166b565b8361108a8985611638565b611095906007611684565b815181106110a5576110a5611655565b6020908102919091010152604051634b4c692d60e11b81526001600160a01b038281166004830152851690639698d25a90602401602060405180830381865afa1580156110f6573d6000803e3d6000fd5b505050506040513d601f19601f8201168201806040525081019061111a919061166b565b836111258985611638565b611130906008611684565b8151811061114057611140611655565b60209081029190910101526040516340d3096b60e11b81526001600160a01b0382811660048301528716906381a612d690602401602060405180830381865afa158015611191573d6000803e3d6000fd5b505050506040513d601f19601f820116820180604052508101906111b5919061166b565b836111c08985611638565b6111cb906009611684565b815181106111db576111db611655565b6020908102919091010152604051637092736960e11b81526001600160a01b03828116600483015287169063e124e6d290602401602060405180830381865afa15801561122c573d6000803e3d6000fd5b505050506040513d601f19601f82011682018060405250810190611250919061166b565b8361125b8985611638565b61126690600a611684565b8151811061127657611276611655565b602090810291909101015260405163783a2b6760e11b81526001600160a01b03828116600483015287169063f07456ce90602401602060405180830381865afa1580156112c7573d6000803e3d6000fd5b505050506040513d601f19601f820116820180604052508101906112eb919061166b565b836112f68985611638565b61130190600b611684565b8151811061131157611311611655565b60209081029190910101526040516356c8c2c160e01b81526001600160a01b038281166004830152600060248301528616906356c8c2c190604401602060405180830381865afa158015611369573d6000803e3d6000fd5b505050506040513d601f19601f8201168201806040525081019061138d919061166b565b836113988985611638565b6113a390600c611684565b815181106113b3576113b3611655565b60209081029190910101526040516356c8c2c160e01b81526001600160a01b038281166004830152600160248301528616906356c8c2c190604401602060405180830381865afa15801561140b573d6000803e3d6000fd5b505050506040513d601f19601f8201168201806040525081019061142f919061166b565b8361143a8985611638565b61144590600d611684565b8151811061145557611455611655565b6020908102919091010152508061146b81611697565b915050610b98565b6001600160a01b038116811461148857600080fd5b50565b803561149681611473565b919050565b634e487b7160e01b600052604160045260246000fd5b600080600080600060a086880312156114c957600080fd5b85356114d481611473565b94506020868101356114e581611473565b945060408701356114f581611473565b935060608701359250608087013567ffffffffffffffff8082111561151957600080fd5b818901915089601f83011261152d57600080fd5b81358181111561153f5761153f61149b565b8060051b604051601f19603f830116810181811085821117156115645761156461149b565b60405291825284820192508381018501918c83111561158257600080fd5b938501935b828510156115a7576115988561148b565b84529385019392850192611587565b8096505050505050509295509295909350565b6020808252825182820181905260009190848201906040850190845b818110156115f2578351835292840192918401916001016115d6565b50909695505050505050565b60006020828403121561161057600080fd5b815161161b81611473565b9392505050565b634e487b7160e01b600052601160045260246000fd5b808202811582820484141761164f5761164f611622565b92915050565b634e487b7160e01b600052603260045260246000fd5b60006020828403121561167d57600080fd5b5051919050565b8082018082111561164f5761164f611622565b6000600182016116a9576116a9611622565b506001019056fea26469706673582212207fb99c79622e25e858ebfd305d71ddb9d3549352983c4330a2b8d674ab5c9cab64736f6c63430008120033","linkReferences":{}},"methodIdentifiers":{"getVaultTokenInfoV3(address,address,address,uint256,address[])":"f75e8101","getVaultTokenInfoV4(address,address,address,uint256,address[])":"d3f3265c"},"id":106}