{"abi":[{"type":"function","name":"collect","inputs":[{"name":"params","type":"tuple","internalType":"struct UniNftManager.CollectParams","components":[{"name":"tokenId","type":"uint256","internalType":"uint256"},{"name":"recipient","type":"address","internalType":"address"},{"name":"amount0Max","type":"uint128","internalType":"uint128"},{"name":"amount1Max","type":"uint128","internalType":"uint128"}]}],"outputs":[{"name":"amount0","type":"uint256","internalType":"uint256"},{"name":"amount1","type":"uint256","internalType":"uint256"}],"stateMutability":"nonpayable"},{"type":"function","name":"ownerOf","inputs":[{"name":"tokenId","type":"uint256","internalType":"uint256"}],"outputs":[{"name":"","type":"address","internalType":"address"}],"stateMutability":"view"},{"type":"function","name":"positions","inputs":[{"name":"","type":"uint256","internalType":"uint256"}],"outputs":[{"name":"nonce","type":"uint96","internalType":"uint96"},{"name":"operator","type":"address","internalType":"address"},{"name":"token0","type":"address","internalType":"address"},{"name":"token1","type":"address","internalType":"address"},{"name":"fee","type":"uint24","internalType":"uint24"},{"name":"tickLower","type":"int24","internalType":"int24"},{"name":"tickUpper","type":"int24","internalType":"int24"},{"name":"liquidity","type":"uint128","internalType":"uint128"},{"name":"feeGrowthInside0LastX128","type":"uint256","internalType":"uint256"},{"name":"feeGrowthInside1LastX128","type":"uint256","internalType":"uint256"},{"name":"tokensOwed0","type":"uint128","internalType":"uint128"},{"name":"tokensOwed1","type":"uint128","internalType":"uint128"}],"stateMutability":"pure"}],"bytecode":{"object":"0x608060405234801561001057600080fd5b506101f1806100206000396000f3fe608060405234801561001057600080fd5b50600436106100415760003560e01c80636352211e1461004657806399fbab8814610077578063fc6f7865146100b9575b600080fd5b61005a6100543660046100e4565b50600090565b6040516001600160a01b0390911681526020015b60405180910390f35b6100a16100853660046100e4565b6000808080808080808080808091939597999b5091939597999b565b60405161006e9c9b9a999897969594939291906100fd565b6100cf6100c73660046101a3565b600080915091565b6040805192835260208301919091520161006e565b6000602082840312156100f657600080fd5b5035919050565b6bffffffffffffffffffffffff8d1681526001600160a01b038c811660208301528b811660408301528a16606082015262ffffff89166080820152600288810b60a083015287900b60c082015261018081016001600160801b03871660e083015285610100830152846101208301526101826101408301856001600160801b03169052565b6001600160801b0383166101608301529d9c50505050505050505050505050565b6000608082840312156101b557600080fd5b5091905056fea264697066735822122095f0e92ed3703c667768d50617be158703eb830db9ba1906fa81817dc1013c6e64736f6c63430008120033","linkReferences":{}},"methodIdentifiers":{"collect((uint256,address,uint128,uint128))":"fc6f7865","ownerOf(uint256)":"6352211e","positions(uint256)":"99fbab88"},"id":23}