{"abi":[{"type":"function","name":"getPool","inputs":[{"name":"","type":"address","internalType":"address"},{"name":"","type":"address","internalType":"address"},{"name":"","type":"uint24","internalType":"uint24"}],"outputs":[{"name":"","type":"address","internalType":"address"}],"stateMutability":"view"}],"bytecode":{"object":"0x608060405234801561001057600080fd5b50610119806100206000396000f3fe6080604052348015600f57600080fd5b506004361060285760003560e01c80631698ee8214602d575b600080fd5b60636038366004609a565b600060208181529381526040808220855292815282812090935282529020546001600160a01b031681565b6040516001600160a01b03909116815260200160405180910390f35b80356001600160a01b0381168114609557600080fd5b919050565b60008060006060848603121560ae57600080fd5b60b584607f565b925060c160208501607f565b9150604084013562ffffff8116811460d857600080fd5b80915050925092509256fea2646970667358221220c7bf2962feb4d8ce40a62b15616e05749df15ef32c9e95dd187faf039d603a7b64736f6c63430008120033","linkReferences":{}},"methodIdentifiers":{"getPool(address,address,uint24)":"1698ee82"},"id":22}