{
  "abi": [
    {
      "inputs": [
        {
          "internalType": "address",
          "name": "_admin",
          "type": "address"
        },
        {
          "internalType": "uint256",
          "name": "_buffer",
          "type": "uint256"
        },
        {
          "internalType": "address",
          "name": "_tokenManager",
          "type": "address"
        },
        {
          "internalType": "address",
          "name": "_brrrManager",
          "type": "address"
        },
        {
          "internalType": "address",
          "name": "_rewardRouter",
          "type": "address"
        },
        {
          "internalType": "address",
          "name": "_rewardDistributor",
          "type": "address"
        }
      ],
      "stateMutability": "nonpayable",
      "type": "constructor"
    },
    {
      "anonymous": false,
      "inputs": [
        {
          "indexed": false,
          "internalType": "bytes32",
          "name": "action",
          "type": "bytes32"
        }
      ],
      "name": "ClearAction",
      "type": "event"
    },
    {
      "anonymous": false,
      "inputs": [
        {
          "indexed": false,
          "internalType": "address",
          "name": "token",
          "type": "address"
        },
        {
          "indexed": false,
          "internalType": "address",
          "name": "spender",
          "type": "address"
        },
        {
          "indexed": false,
          "internalType": "uint256",
          "name": "amount",
          "type": "uint256"
        },
        {
          "indexed": false,
          "internalType": "bytes32",
          "name": "action",
          "type": "bytes32"
        }
      ],
      "name": "SignalApprove",
      "type": "event"
    },
    {
      "anonymous": false,
      "inputs": [
        {
          "indexed": false,
          "internalType": "bytes32",
          "name": "action",
          "type": "bytes32"
        }
      ],
      "name": "SignalPendingAction",
      "type": "event"
    },
    {
      "anonymous": false,
      "inputs": [
        {
          "indexed": false,
          "internalType": "address",
          "name": "target",
          "type": "address"
        },
        {
          "indexed": false,
          "internalType": "address",
          "name": "token",
          "type": "address"
        },
        {
          "indexed": false,
          "internalType": "bytes32",
          "name": "action",
          "type": "bytes32"
        }
      ],
      "name": "SignalRecoverTokens",
      "type": "event"
    },
    {
      "anonymous": false,
      "inputs": [
        {
          "indexed": false,
          "internalType": "address",
          "name": "target",
          "type": "address"
        },
        {
          "indexed": false,
          "internalType": "address",
          "name": "gov",
          "type": "address"
        },
        {
          "indexed": false,
          "internalType": "bytes32",
          "name": "action",
          "type": "bytes32"
        }
      ],
      "name": "SignalSetGov",
      "type": "event"
    },
    {
      "anonymous": false,
      "inputs": [
        {
          "indexed": false,
          "internalType": "address",
          "name": "target",
          "type": "address"
        },
        {
          "indexed": false,
          "internalType": "address",
          "name": "handler",
          "type": "address"
        },
        {
          "indexed": false,
          "internalType": "bool",
          "name": "isActive",
          "type": "bool"
        },
        {
          "indexed": false,
          "internalType": "bytes32",
          "name": "action",
          "type": "bytes32"
        }
      ],
      "name": "SignalSetHandler",
      "type": "event"
    },
    {
      "anonymous": false,
      "inputs": [
        {
          "indexed": false,
          "internalType": "address",
          "name": "target",
          "type": "address"
        },
        {
          "indexed": false,
          "internalType": "bool",
          "name": "inPrivateTransferMode",
          "type": "bool"
        },
        {
          "indexed": false,
          "internalType": "bool",
          "name": "inPrivateStakingMode",
          "type": "bool"
        },
        {
          "indexed": false,
          "internalType": "bool",
          "name": "inPrivateClaimingMode",
          "type": "bool"
        },
        {
          "indexed": false,
          "internalType": "bytes32",
          "name": "action",
          "type": "bytes32"
        }
      ],
      "name": "SignalSetPrivacy",
      "type": "event"
    },
    {
      "anonymous": false,
      "inputs": [
        {
          "indexed": false,
          "internalType": "address",
          "name": "target",
          "type": "address"
        },
        {
          "indexed": false,
          "internalType": "uint256",
          "name": "value",
          "type": "uint256"
        },
        {
          "indexed": false,
          "internalType": "bytes32",
          "name": "action",
          "type": "bytes32"
        }
      ],
      "name": "SignalUpdateXpPerSecond",
      "type": "event"
    },
    {
      "inputs": [],
      "name": "MAX_BUFFER",
      "outputs": [
        {
          "internalType": "uint256",
          "name": "",
          "type": "uint256"
        }
      ],
      "stateMutability": "view",
      "type": "function"
    },
    {
      "inputs": [],
      "name": "admin",
      "outputs": [
        {
          "internalType": "address",
          "name": "",
          "type": "address"
        }
      ],
      "stateMutability": "view",
      "type": "function"
    },
    {
      "inputs": [
        {
          "internalType": "address",
          "name": "_token",
          "type": "address"
        },
        {
          "internalType": "address",
          "name": "_spender",
          "type": "address"
        },
        {
          "internalType": "uint256",
          "name": "_amount",
          "type": "uint256"
        }
      ],
      "name": "approve",
      "outputs": [],
      "stateMutability": "nonpayable",
      "type": "function"
    },
    {
      "inputs": [],
      "name": "brrrManager",
      "outputs": [
        {
          "internalType": "address",
          "name": "",
          "type": "address"
        }
      ],
      "stateMutability": "view",
      "type": "function"
    },
    {
      "inputs": [],
      "name": "buffer",
      "outputs": [
        {
          "internalType": "uint256",
          "name": "",
          "type": "uint256"
        }
      ],
      "stateMutability": "view",
      "type": "function"
    },
    {
      "inputs": [
        {
          "internalType": "bytes32",
          "name": "_action",
          "type": "bytes32"
        }
      ],
      "name": "cancelAction",
      "outputs": [],
      "stateMutability": "nonpayable",
      "type": "function"
    },
    {
      "inputs": [
        {
          "internalType": "address",
          "name": "",
          "type": "address"
        }
      ],
      "name": "isHandler",
      "outputs": [
        {
          "internalType": "bool",
          "name": "",
          "type": "bool"
        }
      ],
      "stateMutability": "view",
      "type": "function"
    },
    {
      "inputs": [
        {
          "internalType": "address",
          "name": "",
          "type": "address"
        }
      ],
      "name": "isKeeper",
      "outputs": [
        {
          "internalType": "bool",
          "name": "",
          "type": "bool"
        }
      ],
      "stateMutability": "view",
      "type": "function"
    },
    {
      "inputs": [
        {
          "internalType": "bytes32",
          "name": "",
          "type": "bytes32"
        }
      ],
      "name": "pendingActions",
      "outputs": [
        {
          "internalType": "uint256",
          "name": "",
          "type": "uint256"
        }
      ],
      "stateMutability": "view",
      "type": "function"
    },
    {
      "inputs": [
        {
          "internalType": "address",
          "name": "_token",
          "type": "address"
        },
        {
          "internalType": "address",
          "name": "_target",
          "type": "address"
        }
      ],
      "name": "recoverTokens",
      "outputs": [],
      "stateMutability": "nonpayable",
      "type": "function"
    },
    {
      "inputs": [],
      "name": "rewardDistributor",
      "outputs": [
        {
          "internalType": "address",
          "name": "",
          "type": "address"
        }
      ],
      "stateMutability": "view",
      "type": "function"
    },
    {
      "inputs": [],
      "name": "rewardRouter",
      "outputs": [
        {
          "internalType": "address",
          "name": "",
          "type": "address"
        }
      ],
      "stateMutability": "view",
      "type": "function"
    },
    {
      "inputs": [
        {
          "internalType": "address",
          "name": "_admin",
          "type": "address"
        }
      ],
      "name": "setAdmin",
      "outputs": [],
      "stateMutability": "nonpayable",
      "type": "function"
    },
    {
      "inputs": [
        {
          "internalType": "uint256",
          "name": "_buffer",
          "type": "uint256"
        }
      ],
      "name": "setBuffer",
      "outputs": [],
      "stateMutability": "nonpayable",
      "type": "function"
    },
    {
      "inputs": [
        {
          "internalType": "address",
          "name": "_handler",
          "type": "address"
        },
        {
          "internalType": "bool",
          "name": "_isActive",
          "type": "bool"
        }
      ],
      "name": "setContractHandler",
      "outputs": [],
      "stateMutability": "nonpayable",
      "type": "function"
    },
    {
      "inputs": [
        {
          "internalType": "address",
          "name": "_target",
          "type": "address"
        },
        {
          "internalType": "uint256",
          "name": "_tokensPerInterval",
          "type": "uint256"
        }
      ],
      "name": "setDistributorRewards",
      "outputs": [],
      "stateMutability": "nonpayable",
      "type": "function"
    },
    {
      "inputs": [
        {
          "internalType": "address",
          "name": "_target",
          "type": "address"
        },
        {
          "internalType": "address",
          "name": "_admin",
          "type": "address"
        }
      ],
      "name": "setExternalAdmin",
      "outputs": [],
      "stateMutability": "nonpayable",
      "type": "function"
    },
    {
      "inputs": [
        {
          "internalType": "address",
          "name": "_target",
          "type": "address"
        },
        {
          "internalType": "address",
          "name": "_gov",
          "type": "address"
        }
      ],
      "name": "setGov",
      "outputs": [],
      "stateMutability": "nonpayable",
      "type": "function"
    },
    {
      "inputs": [
        {
          "internalType": "address",
          "name": "_target",
          "type": "address"
        },
        {
          "internalType": "address",
          "name": "_handler",
          "type": "address"
        },
        {
          "internalType": "bool",
          "name": "_isActive",
          "type": "bool"
        }
      ],
      "name": "setHandler",
      "outputs": [],
      "stateMutability": "nonpayable",
      "type": "function"
    },
    {
      "inputs": [
        {
          "internalType": "address",
          "name": "_keeper",
          "type": "address"
        },
        {
          "internalType": "bool",
          "name": "_isActive",
          "type": "bool"
        }
      ],
      "name": "setKeeper",
      "outputs": [],
      "stateMutability": "nonpayable",
      "type": "function"
    },
    {
      "inputs": [
        {
          "internalType": "address",
          "name": "_target",
          "type": "address"
        },
        {
          "internalType": "bool",
          "name": "__inPrivateTransferMode",
          "type": "bool"
        },
        {
          "internalType": "bool",
          "name": "_inPrivateStakingMode",
          "type": "bool"
        },
        {
          "internalType": "bool",
          "name": "_inPrivateClaimingMode",
          "type": "bool"
        }
      ],
      "name": "setPrivacy",
      "outputs": [],
      "stateMutability": "nonpayable",
      "type": "function"
    },
    {
      "inputs": [
        {
          "internalType": "address",
          "name": "_tokenManager",
          "type": "address"
        }
      ],
      "name": "setTokenManager",
      "outputs": [],
      "stateMutability": "nonpayable",
      "type": "function"
    },
    {
      "inputs": [
        {
          "internalType": "address",
          "name": "_token",
          "type": "address"
        },
        {
          "internalType": "address",
          "name": "_spender",
          "type": "address"
        },
        {
          "internalType": "uint256",
          "name": "_amount",
          "type": "uint256"
        }
      ],
      "name": "signalApprove",
      "outputs": [],
      "stateMutability": "nonpayable",
      "type": "function"
    },
    {
      "inputs": [
        {
          "internalType": "address",
          "name": "_token",
          "type": "address"
        },
        {
          "internalType": "address",
          "name": "_target",
          "type": "address"
        }
      ],
      "name": "signalRecoverTokens",
      "outputs": [],
      "stateMutability": "nonpayable",
      "type": "function"
    },
    {
      "inputs": [
        {
          "internalType": "address",
          "name": "_target",
          "type": "address"
        },
        {
          "internalType": "address",
          "name": "_gov",
          "type": "address"
        }
      ],
      "name": "signalSetGov",
      "outputs": [],
      "stateMutability": "nonpayable",
      "type": "function"
    },
    {
      "inputs": [
        {
          "internalType": "address",
          "name": "_target",
          "type": "address"
        },
        {
          "internalType": "address",
          "name": "_handler",
          "type": "address"
        },
        {
          "internalType": "bool",
          "name": "_isActive",
          "type": "bool"
        }
      ],
      "name": "signalSetHandler",
      "outputs": [],
      "stateMutability": "nonpayable",
      "type": "function"
    },
    {
      "inputs": [
        {
          "internalType": "address",
          "name": "_target",
          "type": "address"
        },
        {
          "internalType": "bool",
          "name": "__inPrivateTransferMode",
          "type": "bool"
        },
        {
          "internalType": "bool",
          "name": "_inPrivateStakingMode",
          "type": "bool"
        },
        {
          "internalType": "bool",
          "name": "_inPrivateClaimingMode",
          "type": "bool"
        }
      ],
      "name": "signalSetPrivacy",
      "outputs": [],
      "stateMutability": "nonpayable",
      "type": "function"
    },
    {
      "inputs": [
        {
          "internalType": "uint256",
          "name": "_value",
          "type": "uint256"
        },
        {
          "internalType": "address",
          "name": "_target",
          "type": "address"
        }
      ],
      "name": "signalUpdateXpPerSecond",
      "outputs": [],
      "stateMutability": "nonpayable",
      "type": "function"
    },
    {
      "inputs": [
        {
          "internalType": "address",
          "name": "_target",
          "type": "address"
        },
        {
          "internalType": "address",
          "name": "_token",
          "type": "address"
        },
        {
          "internalType": "address",
          "name": "_account",
          "type": "address"
        },
        {
          "internalType": "uint256",
          "name": "_amount",
          "type": "uint256"
        }
      ],
      "name": "signalWithdrawal",
      "outputs": [],
      "stateMutability": "nonpayable",
      "type": "function"
    },
    {
      "inputs": [],
      "name": "tokenManager",
      "outputs": [
        {
          "internalType": "address",
          "name": "",
          "type": "address"
        }
      ],
      "stateMutability": "view",
      "type": "function"
    },
    {
      "inputs": [
        {
          "internalType": "address",
          "name": "_sender",
          "type": "address"
        },
        {
          "internalType": "address",
          "name": "_token",
          "type": "address"
        },
        {
          "internalType": "uint256",
          "name": "_amount",
          "type": "uint256"
        }
      ],
      "name": "transferIn",
      "outputs": [],
      "stateMutability": "nonpayable",
      "type": "function"
    },
    {
      "inputs": [
        {
          "internalType": "uint256",
          "name": "_value",
          "type": "uint256"
        },
        {
          "internalType": "address",
          "name": "_target",
          "type": "address"
        }
      ],
      "name": "updateXpPerSecond",
      "outputs": [],
      "stateMutability": "nonpayable",
      "type": "function"
    },
    {
      "inputs": [
        {
          "internalType": "address",
          "name": "_target",
          "type": "address"
        },
        {
          "internalType": "address",
          "name": "_token",
          "type": "address"
        },
        {
          "internalType": "address",
          "name": "_account",
          "type": "address"
        },
        {
          "internalType": "uint256",
          "name": "_amount",
          "type": "uint256"
        }
      ],
      "name": "withdrawTokens",
      "outputs": [],
      "stateMutability": "nonpayable",
      "type": "function"
    }
  ],
  "bytecode": {
    "object": "0x60806040523480156200001157600080fd5b5060405162001c8238038062001c82833981016040819052620000349162000111565b620697808511156200008c5760405162461bcd60e51b815260206004820152601f60248201527f52657761726454696d656c6f636b3a20696e76616c6964205f62756666657200604482015260640160405180910390fd5b600180546001600160a01b03199081166001600160a01b03988916179091556000959095556002805486169487169490941790935560038054851691861691909117905560048054841691851691909117905560058054909216921691909117905562000189565b80516001600160a01b03811681146200010c57600080fd5b919050565b60008060008060008060c087890312156200012b57600080fd5b6200013687620000f4565b9550602087015194506200014d60408801620000f4565b93506200015d60608801620000f4565b92506200016d60808801620000f4565b91506200017d60a08801620000f4565b90509295509295509295565b611ae980620001996000396000f3fe608060405234801561001057600080fd5b50600436106101fb5760003560e01c8063996a7a1e1161011a578063dce6e18d116100ad578063e76ab00f1161007c578063e76ab00f14610475578063edaafe2014610488578063f816724c14610491578063f851a440146104a4578063fab24621146104b757600080fd5b8063dce6e18d1461041c578063e1f21c671461042f578063e30569e514610442578063e4652f491461046257600080fd5b8063adc7ea37116100e9578063adc7ea37146103d0578063af0d4952146103e3578063b1607f03146103f6578063d1b9e8531461040957600080fd5b8063996a7a1e14610384578063a07b21ed14610397578063a32e25dc146103aa578063acc2166a146103bd57600080fd5b806351a6de0d116101925780636ba42aaa116101615780636ba42aaa14610328578063704b6c021461034b578063781cc3d31461035e5780637cb2b79c1461037157600080fd5b806351a6de0d146102d757806355ef1395146102ea5780635a3bb989146102fd57806361d075691461031057600080fd5b806324ccbe30116101ce57806324ccbe301461024e5780632a709b141461026157806346ea87af146102915780634e1cfe29146102c457600080fd5b8063056097ac146102005780630d0263b9146102155780631154e80814610228578063185051c11461023b575b600080fd5b61021361020e36600461163d565b6104ca565b005b61021361022336600461167e565b61059d565b6102136102363660046116d8565b610667565b61021361024936600461171f565b61073b565b61021361025c3660046116d8565b610790565b600254610274906001600160a01b031681565b6040516001600160a01b0390911681526020015b60405180910390f35b6102b461029f366004611756565b60076020526000908152604090205460ff1681565b6040519015158152602001610288565b6102136102d2366004611778565b61084f565b6102136102e536600461163d565b6108e6565b6102136102f836600461163d565b61097d565b600354610274906001600160a01b031681565b61031a6206978081565b604051908152602001610288565b6102b4610336366004611756565b60086020526000908152604090205460ff1681565b610213610359366004611756565b610a5f565b61021361036c3660046117c3565b610aab565b61021361037f366004611756565b610ae1565b61021361039236600461163d565b610b2d565b6102136103a53660046117dc565b610bcd565b6102136103b83660046117ff565b610c74565b600554610274906001600160a01b031681565b6102136103de3660046117c3565b610d1e565b6102136103f1366004611778565b610e04565b61021361040436600461167e565b610eda565b61021361041736600461171f565b61102a565b61021361042a366004611829565b61107f565b61021361043d366004611829565b611130565b61031a6104503660046117c3565b60066020526000908152604090205481565b610213610470366004611829565b611215565b600454610274906001600160a01b031681565b61031a60005481565b61021361049f3660046117dc565b6112b8565b600154610274906001600160a01b031681565b6102136104c536600461163d565b61134e565b6001546001600160a01b031633146104fd5760405162461bcd60e51b81526004016104f490611865565b60405180910390fd5b6000828260405160200161051292919061189c565b604051602081830303815290604052805190602001209050610533816113e1565b61053c816114ba565b6040516316114acd60e01b81526001600160a01b0384811660048301528316906316114acd906024015b600060405180830381600087803b15801561058057600080fd5b505af1158015610594573d6000803e3d6000fd5b50505050505050565b6001546001600160a01b031633146105c75760405162461bcd60e51b81526004016104f490611865565b6000848484846040516020016105e094939291906118d4565b60405160208183030381529060405280519060200120905061060181611565565b604080516001600160a01b03871681528515156020820152841515918101919091528215156060820152608081018290527fb02de7c1d87c250be1de9a69b3100cb07e6e729613537590f88a9fba0b85c5649060a0015b60405180910390a15050505050565b6001546001600160a01b031633146106915760405162461bcd60e51b81526004016104f490611865565b60008383836040516020016106a893929190611920565b6040516020818303038152906040528051906020012090506106c9816113e1565b6106d2816114ba565b604051639cb7de4b60e01b81526001600160a01b0384811660048301528315156024830152851690639cb7de4b90604401600060405180830381600087803b15801561071d57600080fd5b505af1158015610731573d6000803e3d6000fd5b5050505050505050565b6001546001600160a01b031633146107655760405162461bcd60e51b81526004016104f490611865565b6001600160a01b03919091166000908152600760205260409020805460ff1916911515919091179055565b6001546001600160a01b031633146107ba5760405162461bcd60e51b81526004016104f490611865565b60008383836040516020016107d193929190611920565b6040516020818303038152906040528051906020012090506107f281611565565b604080516001600160a01b0380871682528516602082015283151591810191909152606081018290527f1929c4e13b0dbbad7856b9ce1fc9dca98c7bf7cedd56e22c04dd60ad1d34fe4b906080015b60405180910390a150505050565b6001546001600160a01b031633146108795760405162461bcd60e51b81526004016104f490611865565b6000848484846040516020016108929493929190611961565b6040516020818303038152906040528051906020012090506108b381611565565b7f0b6c2c8d33f8b4ce73380fdac404725cc6a9e9faa89e31ea079c5ee3bef586f5858583604051610658939291906119aa565b6001546001600160a01b031633146109105760405162461bcd60e51b81526004016104f490611865565b600082826040516020016109259291906119ce565b604051602081830303815290604052805190602001209050610946816113e1565b61094f816114ba565b6040516367d6abd160e11b81526001600160a01b03838116600483015284169063cfad57a290602401610566565b6001546001600160a01b031633146109a75760405162461bcd60e51b81526004016104f490611865565b306001600160a01b038316036109ff5760405162461bcd60e51b815260206004820152601f60248201527f52657761726454696d656c6f636b3a20696e76616c6964205f7461726765740060448201526064016104f4565b604051633825b60160e11b81526001600160a01b03828116600483015283169063704b6c02906024015b600060405180830381600087803b158015610a4357600080fd5b505af1158015610a57573d6000803e3d6000fd5b505050505050565b6002546001600160a01b03163314610a895760405162461bcd60e51b81526004016104f490611865565b600180546001600160a01b0319166001600160a01b0392909216919091179055565b6001546001600160a01b03163314610ad55760405162461bcd60e51b81526004016104f490611865565b610ade816114ba565b50565b6002546001600160a01b03163314610b0b5760405162461bcd60e51b81526004016104f490611865565b600280546001600160a01b0319166001600160a01b0392909216919091179055565b6001546001600160a01b03163314610b575760405162461bcd60e51b81526004016104f490611865565b60008282604051602001610b6c9291906119ce565b604051602081830303815290604052805190602001209050610b8d81611565565b7f2701a94fd55a560e291f3c54d36580040670d6fde558a77a75d619e38139f713838383604051610bc0939291906119aa565b60405180910390a1505050565b6001546001600160a01b03163314610bf75760405162461bcd60e51b81526004016104f490611865565b60008282604051602001610c0c9291906119ff565b604051602081830303815290604052805190602001209050610c2d81611565565b604080516001600160a01b0384168152602081018590529081018290527faa9146c59950c60dbd6b6df6c1405ab86bd807765dea97d1f35dc48a0b497eef90606001610bc0565b6001546001600160a01b03163314610c9e5760405162461bcd60e51b81526004016104f490611865565b816001600160a01b0316633ae6d6eb6040518163ffffffff1660e01b8152600401600060405180830381600087803b158015610cd957600080fd5b505af1158015610ced573d6000803e3d6000fd5b50506040516318e20a0360e01b8152600481018490526001600160a01b03851692506318e20a039150602401610a29565b6001546001600160a01b03163314610d485760405162461bcd60e51b81526004016104f490611865565b62069780811115610d9b5760405162461bcd60e51b815260206004820152601f60248201527f52657761726454696d656c6f636b3a20696e76616c6964205f6275666665720060448201526064016104f4565b6000548111610dff5760405162461bcd60e51b815260206004820152602a60248201527f52657761726454696d656c6f636b3a206275666665722063616e6e6f7420626560448201526908191958dc99585cd95960b21b60648201526084016104f4565b600055565b6001546001600160a01b03163314610e2e5760405162461bcd60e51b81526004016104f490611865565b600084848484604051602001610e479493929190611961565b604051602081830303815290604052805190602001209050610e68816113e1565b610e71816114ba565b6040516301e3366760e01b81526001600160a01b038616906301e3366790610ea1908790879087906004016119aa565b600060405180830381600087803b158015610ebb57600080fd5b505af1158015610ecf573d6000803e3d6000fd5b505050505050505050565b6001546001600160a01b03163314610f045760405162461bcd60e51b81526004016104f490611865565b600084848484604051602001610f1d94939291906118d4565b604051602081830303815290604052805190602001209050610f3e816113e1565b610f47816114ba565b604051635a47a1a760e01b815284151560048201526001600160a01b03861690635a47a1a790602401600060405180830381600087803b158015610f8a57600080fd5b505af1158015610f9e573d6000803e3d6000fd5b505060405163074c356f60e21b815285151560048201526001600160a01b0388169250631d30d5bc9150602401600060405180830381600087803b158015610fe557600080fd5b505af1158015610ff9573d6000803e3d6000fd5b5050604051623cd7f760e81b815284151560048201526001600160a01b0388169250633cd7f7009150602401610ea1565b6001546001600160a01b031633146110545760405162461bcd60e51b81526004016104f490611865565b6001600160a01b03919091166000908152600860205260409020805460ff1916911515919091179055565b6001546001600160a01b031633146110a95760405162461bcd60e51b81526004016104f490611865565b60008383836040516020016110c093929190611a36565b6040516020818303038152906040528051906020012090506110e181611565565b604080516001600160a01b03808716825285166020820152908101839052606081018290527f6af9d86ba7407a934e941ed8ae5f779369a88fe8ba2cd1c204185d6f8a8287fd90608001610841565b6001546001600160a01b0316331461115a5760405162461bcd60e51b81526004016104f490611865565b600083838360405160200161117193929190611a36565b604051602081830303815290604052805190602001209050611192816113e1565b61119b816114ba565b60405163095ea7b360e01b81526001600160a01b0384811660048301526024820184905285169063095ea7b3906044016020604051808303816000875af11580156111ea573d6000803e3d6000fd5b505050506040513d601f19601f8201168201806040525081019061120e9190611a6f565b5050505050565b6001546001600160a01b0316331461123f5760405162461bcd60e51b81526004016104f490611865565b6040516323b872dd60e01b81526001600160a01b038316906323b872dd9061126f908690309086906004016119aa565b6020604051808303816000875af115801561128e573d6000803e3d6000fd5b505050506040513d601f19601f820116820180604052508101906112b29190611a6f565b50505050565b6001546001600160a01b031633146112e25760405162461bcd60e51b81526004016104f490611865565b600082826040516020016112f79291906119ff565b604051602081830303815290604052805190602001209050611318816113e1565b611321816114ba565b60405163242c581b60e01b8152600481018490526001600160a01b0383169063242c581b90602401610566565b6001546001600160a01b031633146113785760405162461bcd60e51b81526004016104f490611865565b6000828260405160200161138d92919061189c565b6040516020818303038152906040528051906020012090506113ae81611565565b7f0b6c2c8d33f8b4ce73380fdac404725cc6a9e9faa89e31ea079c5ee3bef586f5838383604051610bc0939291906119aa565b600081815260066020526040812054900361144a5760405162461bcd60e51b8152602060048201526024808201527f52657761726454696d656c6f636b3a20616374696f6e206e6f74207369676e616044820152631b1b195960e21b60648201526084016104f4565b6000818152600660205260409020544211610ade5760405162461bcd60e51b815260206004820152602a60248201527f52657761726454696d656c6f636b3a20616374696f6e2074696d65206e6f74206044820152691e595d081c185cdcd95960b21b60648201526084016104f4565b60008181526006602052604081205490036115175760405162461bcd60e51b815260206004820152601f60248201527f52657761726454696d656c6f636b3a20696e76616c6964205f616374696f6e0060448201526064016104f4565b60008181526006602052604080822091909155517f194ed6dd5e37e2acc44a19455c3f208c4831ee695fe362d9c4ef2d316bc53aec9061155a9083815260200190565b60405180910390a150565b600081815260066020526040902054156115d25760405162461bcd60e51b815260206004820152602860248201527f52657761726454696d656c6f636b3a20616374696f6e20616c726561647920736044820152671a59db985b1b195960c21b60648201526084016104f4565b6000546115df9042611a8c565b60008281526006602090815260409182902092909255518281527f5fb9c0ecf7b4a28c4c480212e868f9da7f373a2ed4d23498b0be6aadf35242fb910161155a565b80356001600160a01b038116811461163857600080fd5b919050565b6000806040838503121561165057600080fd5b61165983611621565b915061166760208401611621565b90509250929050565b8015158114610ade57600080fd5b6000806000806080858703121561169457600080fd5b61169d85611621565b935060208501356116ad81611670565b925060408501356116bd81611670565b915060608501356116cd81611670565b939692955090935050565b6000806000606084860312156116ed57600080fd5b6116f684611621565b925061170460208501611621565b9150604084013561171481611670565b809150509250925092565b6000806040838503121561173257600080fd5b61173b83611621565b9150602083013561174b81611670565b809150509250929050565b60006020828403121561176857600080fd5b61177182611621565b9392505050565b6000806000806080858703121561178e57600080fd5b61179785611621565b93506117a560208601611621565b92506117b360408601611621565b9396929550929360600135925050565b6000602082840312156117d557600080fd5b5035919050565b600080604083850312156117ef57600080fd5b8235915061166760208401611621565b6000806040838503121561181257600080fd5b61181b83611621565b946020939093013593505050565b60008060006060848603121561183e57600080fd5b61184784611621565b925061185560208501611621565b9150604084013590509250925092565b60208082526019908201527f52657761726454696d656c6f636b3a20666f7262696464656e00000000000000604082015260600190565b6c7265636f766572546f6b656e7360981b81526001600160601b0319606093841b8116600d8301529190921b16602182015260350190565b697365745072697661637960b01b815260609490941b6001600160601b031916600a85015291151560f890811b601e850152901515811b601f840152901515901b602082015260210190565b6939b2ba2430b7323632b960b11b81526001600160601b0319606094851b8116600a8301529290931b909116601e830152151560f81b603282015260330190565b691dda5d1a191c985dd85b60b21b81526001600160601b0319606095861b8116600a83015293851b8416601e8201529190931b9091166032820152604681019190915260660190565b6001600160a01b039384168152919092166020820152604081019190915260600190565b6539b2ba23b7bb60d11b81526001600160601b0319606093841b811660068301529190921b16601a820152602e0190565b701d5c19185d19561c14195c94d958dbdb99607a1b8152601181019290925260601b6001600160601b031916603182015260450190565b66617070726f766560c81b81526001600160601b0319606094851b811660078301529290931b909116601b830152602f820152604f0190565b600060208284031215611a8157600080fd5b815161177181611670565b80820180821115611aad57634e487b7160e01b600052601160045260246000fd5b9291505056fea2646970667358221220e2a442e751783d86fee6efc83c36072f335e801476220f320d5be6a28989be2964736f6c63430008120033",
    "linkReferences": {}
  },
  "methodIdentifiers": {
    "MAX_BUFFER()": "61d07569",
    "admin()": "f851a440",
    "approve(address,address,uint256)": "e1f21c67",
    "brrrManager()": "e76ab00f",
    "buffer()": "edaafe20",
    "cancelAction(bytes32)": "781cc3d3",
    "isHandler(address)": "46ea87af",
    "isKeeper(address)": "6ba42aaa",
    "pendingActions(bytes32)": "e30569e5",
    "recoverTokens(address,address)": "056097ac",
    "rewardDistributor()": "acc2166a",
    "rewardRouter()": "5a3bb989",
    "setAdmin(address)": "704b6c02",
    "setBuffer(uint256)": "adc7ea37",
    "setContractHandler(address,bool)": "185051c1",
    "setDistributorRewards(address,uint256)": "a32e25dc",
    "setExternalAdmin(address,address)": "55ef1395",
    "setGov(address,address)": "51a6de0d",
    "setHandler(address,address,bool)": "1154e808",
    "setKeeper(address,bool)": "d1b9e853",
    "setPrivacy(address,bool,bool,bool)": "b1607f03",
    "setTokenManager(address)": "7cb2b79c",
    "signalApprove(address,address,uint256)": "dce6e18d",
    "signalRecoverTokens(address,address)": "fab24621",
    "signalSetGov(address,address)": "996a7a1e",
    "signalSetHandler(address,address,bool)": "24ccbe30",
    "signalSetPrivacy(address,bool,bool,bool)": "0d0263b9",
    "signalUpdateXpPerSecond(uint256,address)": "a07b21ed",
    "signalWithdrawal(address,address,address,uint256)": "4e1cfe29",
    "tokenManager()": "2a709b14",
    "transferIn(address,address,uint256)": "e4652f49",
    "updateXpPerSecond(uint256,address)": "f816724c",
    "withdrawTokens(address,address,address,uint256)": "af0d4952"
  },
  "id": 67
}