{"abi":[{"type":"constructor","inputs":[{"name":"_addresses","type":"address[]","internalType":"address[]"}],"stateMutability":"nonpayable"},{"type":"function","name":"bnb","inputs":[],"outputs":[{"name":"","type":"address","internalType":"address"}],"stateMutability":"view"},{"type":"function","name":"bnbBusdPair","inputs":[],"outputs":[{"name":"","type":"address","internalType":"address"}],"stateMutability":"view"},{"type":"function","name":"btc","inputs":[],"outputs":[{"name":"","type":"address","internalType":"address"}],"stateMutability":"view"},{"type":"function","name":"btcBnbPair","inputs":[],"outputs":[{"name":"","type":"address","internalType":"address"}],"stateMutability":"view"},{"type":"function","name":"busd","inputs":[],"outputs":[{"name":"","type":"address","internalType":"address"}],"stateMutability":"view"},{"type":"function","name":"getPair","inputs":[{"name":"tokenA","type":"address","internalType":"address"},{"name":"tokenB","type":"address","internalType":"address"}],"outputs":[{"name":"","type":"address","internalType":"address"}],"stateMutability":"view"}],"bytecode":{"object":"0x608060405234801561001057600080fd5b506040516104d63803806104d683398101604081905261002f916101ab565b806000815181106100425761004261026f565b60200260200101516000806101000a8154816001600160a01b0302191690836001600160a01b03160217905550806001815181106100825761008261026f565b6020026020010151600160006101000a8154816001600160a01b0302191690836001600160a01b03160217905550806002815181106100c3576100c361026f565b6020026020010151600260006101000a8154816001600160a01b0302191690836001600160a01b03160217905550806003815181106101045761010461026f565b6020026020010151600360006101000a8154816001600160a01b0302191690836001600160a01b03160217905550806004815181106101455761014561026f565b6020026020010151600460006101000a8154816001600160a01b0302191690836001600160a01b0316021790555050610285565b634e487b7160e01b600052604160045260246000fd5b80516001600160a01b03811681146101a657600080fd5b919050565b600060208083850312156101be57600080fd5b82516001600160401b03808211156101d557600080fd5b818501915085601f8301126101e957600080fd5b8151818111156101fb576101fb610179565b8060051b604051601f19603f8301168101818110858211171561022057610220610179565b60405291825284820192508381018501918883111561023e57600080fd5b938501935b82851015610263576102548561018f565b84529385019392850192610243565b98975050505050505050565b634e487b7160e01b600052603260045260246000fd5b610242806102946000396000f3fe608060405234801561001057600080fd5b50600436106100625760003560e01c80633ca5b2341461006757806349a876e414610096578063a28d57d8146100a9578063e6a43905146100bc578063f4a68087146100cf578063fddc93ca146100e2575b600080fd5b60025461007a906001600160a01b031681565b6040516001600160a01b03909116815260200160405180910390f35b60015461007a906001600160a01b031681565b60005461007a906001600160a01b031681565b61007a6100ca3660046101d9565b6100f5565b60045461007a906001600160a01b031681565b60035461007a906001600160a01b031681565b6002546000906001600160a01b03848116911614801561012257506001546001600160a01b038381169116145b1561013957506003546001600160a01b03166101b7565b6001546001600160a01b03848116911614801561016357506000546001600160a01b038381169116145b1561017a57506004546001600160a01b03166101b7565b60405162461bcd60e51b815260206004820152600e60248201526d496e76616c696420746f6b656e7360901b604482015260640160405180910390fd5b92915050565b80356001600160a01b03811681146101d457600080fd5b919050565b600080604083850312156101ec57600080fd5b6101f5836101bd565b9150610203602084016101bd565b9050925092905056fea26469706673582212207e5ad70d96df9bb3bcbed7954cd60b873fed46a6dc03aeccfec57e3e247aa14d64736f6c63430008120033","linkReferences":{}},"methodIdentifiers":{"bnb()":"49a876e4","bnbBusdPair()":"fddc93ca","btc()":"a28d57d8","btcBnbPair()":"f4a68087","busd()":"3ca5b234","getPair(address,address)":"e6a43905"},"id":30}