{
  "abi": [
    {
      "inputs": [
        {
          "internalType": "address",
          "name": "target",
          "type": "address"
        }
      ],
      "name": "AddressEmptyCode",
      "type": "error"
    },
    {
      "inputs": [
        {
          "internalType": "address",
          "name": "account",
          "type": "address"
        }
      ],
      "name": "AddressInsufficientBalance",
      "type": "error"
    },
    {
      "inputs": [],
      "name": "FailedInnerCall",
      "type": "error"
    },
    {
      "inputs": [],
      "name": "ReentrancyGuardReentrantCall",
      "type": "error"
    },
    {
      "inputs": [
        {
          "internalType": "address",
          "name": "token",
          "type": "address"
        }
      ],
      "name": "SafeERC20FailedOperation",
      "type": "error"
    },
    {
      "anonymous": false,
      "inputs": [
        {
          "indexed": false,
          "internalType": "address",
          "name": "account",
          "type": "address"
        },
        {
          "indexed": false,
          "internalType": "uint256",
          "name": "amount",
          "type": "uint256"
        }
      ],
      "name": "StakeGlp",
      "type": "event"
    },
    {
      "anonymous": false,
      "inputs": [
        {
          "indexed": false,
          "internalType": "address",
          "name": "account",
          "type": "address"
        },
        {
          "indexed": false,
          "internalType": "uint256",
          "name": "amount",
          "type": "uint256"
        }
      ],
      "name": "UnstakeGlp",
      "type": "event"
    },
    {
      "inputs": [],
      "name": "bnGmx",
      "outputs": [
        {
          "internalType": "address",
          "name": "",
          "type": "address"
        }
      ],
      "stateMutability": "view",
      "type": "function"
    },
    {
      "inputs": [],
      "name": "claim",
      "outputs": [],
      "stateMutability": "nonpayable",
      "type": "function"
    },
    {
      "inputs": [],
      "name": "esGmx",
      "outputs": [
        {
          "internalType": "address",
          "name": "",
          "type": "address"
        }
      ],
      "stateMutability": "view",
      "type": "function"
    },
    {
      "inputs": [],
      "name": "glp",
      "outputs": [
        {
          "internalType": "address",
          "name": "",
          "type": "address"
        }
      ],
      "stateMutability": "view",
      "type": "function"
    },
    {
      "inputs": [],
      "name": "glpManager",
      "outputs": [
        {
          "internalType": "address",
          "name": "",
          "type": "address"
        }
      ],
      "stateMutability": "view",
      "type": "function"
    },
    {
      "inputs": [],
      "name": "gmx",
      "outputs": [
        {
          "internalType": "address",
          "name": "",
          "type": "address"
        }
      ],
      "stateMutability": "view",
      "type": "function"
    },
    {
      "inputs": [],
      "name": "gov",
      "outputs": [
        {
          "internalType": "address",
          "name": "",
          "type": "address"
        }
      ],
      "stateMutability": "view",
      "type": "function"
    },
    {
      "inputs": [
        {
          "internalType": "bool",
          "name": "_shouldConvertWethToEth",
          "type": "bool"
        }
      ],
      "name": "handleRewards",
      "outputs": [],
      "stateMutability": "nonpayable",
      "type": "function"
    },
    {
      "inputs": [
        {
          "internalType": "address",
          "name": "_weth",
          "type": "address"
        },
        {
          "internalType": "address",
          "name": "_glp",
          "type": "address"
        },
        {
          "internalType": "address",
          "name": "_stakedGlpTracker",
          "type": "address"
        },
        {
          "internalType": "address",
          "name": "_glpManager",
          "type": "address"
        }
      ],
      "name": "initialize",
      "outputs": [],
      "stateMutability": "nonpayable",
      "type": "function"
    },
    {
      "inputs": [],
      "name": "isInitialized",
      "outputs": [
        {
          "internalType": "bool",
          "name": "",
          "type": "bool"
        }
      ],
      "stateMutability": "view",
      "type": "function"
    },
    {
      "inputs": [
        {
          "internalType": "address",
          "name": "_token",
          "type": "address"
        },
        {
          "internalType": "uint256",
          "name": "_amount",
          "type": "uint256"
        },
        {
          "internalType": "uint256",
          "name": "_minUsdg",
          "type": "uint256"
        },
        {
          "internalType": "uint256",
          "name": "_minGlp",
          "type": "uint256"
        }
      ],
      "name": "mintAndStakeGlp",
      "outputs": [
        {
          "internalType": "uint256",
          "name": "",
          "type": "uint256"
        }
      ],
      "stateMutability": "nonpayable",
      "type": "function"
    },
    {
      "inputs": [
        {
          "internalType": "uint256",
          "name": "_minUsdg",
          "type": "uint256"
        },
        {
          "internalType": "uint256",
          "name": "_minGlp",
          "type": "uint256"
        }
      ],
      "name": "mintAndStakeGlpETH",
      "outputs": [
        {
          "internalType": "uint256",
          "name": "",
          "type": "uint256"
        }
      ],
      "stateMutability": "payable",
      "type": "function"
    },
    {
      "inputs": [
        {
          "internalType": "address",
          "name": "_gov",
          "type": "address"
        }
      ],
      "name": "setGov",
      "outputs": [],
      "stateMutability": "nonpayable",
      "type": "function"
    },
    {
      "inputs": [],
      "name": "stakedGlpTracker",
      "outputs": [
        {
          "internalType": "address",
          "name": "",
          "type": "address"
        }
      ],
      "stateMutability": "view",
      "type": "function"
    },
    {
      "inputs": [
        {
          "internalType": "address",
          "name": "_tokenOut",
          "type": "address"
        },
        {
          "internalType": "uint256",
          "name": "_glpAmount",
          "type": "uint256"
        },
        {
          "internalType": "uint256",
          "name": "_minOut",
          "type": "uint256"
        },
        {
          "internalType": "address",
          "name": "_receiver",
          "type": "address"
        }
      ],
      "name": "unstakeAndRedeemGlp",
      "outputs": [
        {
          "internalType": "uint256",
          "name": "",
          "type": "uint256"
        }
      ],
      "stateMutability": "nonpayable",
      "type": "function"
    },
    {
      "inputs": [
        {
          "internalType": "uint256",
          "name": "_glpAmount",
          "type": "uint256"
        },
        {
          "internalType": "uint256",
          "name": "_minOut",
          "type": "uint256"
        },
        {
          "internalType": "address payable",
          "name": "_receiver",
          "type": "address"
        }
      ],
      "name": "unstakeAndRedeemGlpETH",
      "outputs": [
        {
          "internalType": "uint256",
          "name": "",
          "type": "uint256"
        }
      ],
      "stateMutability": "nonpayable",
      "type": "function"
    },
    {
      "inputs": [],
      "name": "weth",
      "outputs": [
        {
          "internalType": "address",
          "name": "",
          "type": "address"
        }
      ],
      "stateMutability": "view",
      "type": "function"
    },
    {
      "inputs": [
        {
          "internalType": "address",
          "name": "_token",
          "type": "address"
        },
        {
          "internalType": "address",
          "name": "_account",
          "type": "address"
        },
        {
          "internalType": "uint256",
          "name": "_amount",
          "type": "uint256"
        }
      ],
      "name": "withdrawToken",
      "outputs": [],
      "stateMutability": "nonpayable",
      "type": "function"
    },
    {
      "stateMutability": "payable",
      "type": "receive"
    }
  ],
  "bytecode": {
    "object": "0x608060405234801561001057600080fd5b506001600081905580546001600160a01b03191633179055611553806100376000396000f3fe60806040526004361061010d5760003560e01c80636a192a7811610095578063cfad57a211610064578063cfad57a214610335578063e102f56414610355578063f15ac6a914610375578063f8c8765e14610395578063fa6db1bc146103b557600080fd5b80636a192a78146102b557806378a207ee146102d5578063abb5e5e2146102f5578063af394d001461031557600080fd5b8063364e2311116100dc578063364e23111461021c578063392e53cd1461023c5780633fc8cef31461026d5780634e71d92d1461028d57806353a8aa03146102a257600080fd5b806301e33667146101715780630f3aa5541461019157806312d43a51146101c457806331e67c71146101fc57600080fd5b3661016c576002546001600160a01b0316331461016a5760405162461bcd60e51b81526020600482015260166024820152752937baba32b91d1034b73b30b634b21039b2b73232b960511b60448201526064015b60405180910390fd5b005b600080fd5b34801561017d57600080fd5b5061016a61018c366004611296565b6103d5565b34801561019d57600080fd5b506101b16101ac3660046112d7565b610418565b6040519081526020015b60405180910390f35b3480156101d057600080fd5b506001546101e4906001600160a01b031681565b6040516001600160a01b0390911681526020016101bb565b34801561020857600080fd5b506003546101e4906001600160a01b031681565b34801561022857600080fd5b506101b1610237366004611321565b6105d8565b34801561024857600080fd5b5060015461025d90600160a01b900460ff1681565b60405190151581526020016101bb565b34801561027957600080fd5b506002546101e4906001600160a01b031681565b34801561029957600080fd5b5061016a61076d565b6101b16102b036600461135c565b6107f9565b3480156102c157600080fd5b506004546101e4906001600160a01b031681565b3480156102e157600080fd5b506006546101e4906001600160a01b031681565b34801561030157600080fd5b506101b161031036600461137e565b610a8c565b34801561032157600080fd5b506007546101e4906001600160a01b031681565b34801561034157600080fd5b5061016a6103503660046113b7565b610cba565b34801561036157600080fd5b506005546101e4906001600160a01b031681565b34801561038157600080fd5b5061016a6103903660046113e2565b610d5c565b3480156103a157600080fd5b5061016a6103b03660046113ff565b610ee2565b3480156103c157600080fd5b506008546101e4906001600160a01b031681565b6001546001600160a01b031633146103ff5760405162461bcd60e51b815260040161016190611450565b6104136001600160a01b0384168383610fd3565b505050565b6000610422611025565b600084116104725760405162461bcd60e51b815260206004820181905260248201527f526577617264526f757465723a20696e76616c6964205f676c70416d6f756e746044820152606401610161565b60075460065460405163098bf59d60e01b815233600482018190526001600160a01b039283166024830152604482018890526064820181905292919091169063098bf59d90608401600060405180830381600087803b1580156104d457600080fd5b505af11580156104e8573d6000803e3d6000fd5b50506008546040516371d597ad60e01b81526001600160a01b0385811660048301528a81166024830152604482018a90526064820189905287811660848301526000945090911691506371d597ad9060a4016020604051808303816000875af1158015610559573d6000803e3d6000fd5b505050506040513d601f19601f8201168201806040525081019061057d919061147f565b604080516001600160a01b0385168152602081018990529192507f1cb6202519b6b6c72ba5ed11e2c3f53af3cea010f96bfc705584e53e75cf034c91015b60405180910390a19150506105d06001600055565b949350505050565b60006105e2611025565b600084116106325760405162461bcd60e51b815260206004820152601d60248201527f526577617264526f757465723a20696e76616c6964205f616d6f756e740000006044820152606401610161565b6008546040516317eb2a1560e01b815233916000916001600160a01b03909116906317eb2a159061067190859081908c908c908c908c90600401611498565b6020604051808303816000875af1158015610690573d6000803e3d6000fd5b505050506040513d601f19601f820116820180604052508101906106b4919061147f565b600754600654604051631e42d69b60e21b81526001600160a01b03868116600483018190526024830152918216604482015260648101849052929350169063790b5a6c90608401600060405180830381600087803b15801561071557600080fd5b505af1158015610729573d6000803e3d6000fd5b5050604080516001600160a01b0386168152602081018590527fa4725d47fa458d9222498e4d63f34527cf7318c1506f89d9092b35fdbcb64f3a93500190506105bb565b610775611025565b6007546040516309f4173d60e11b8152336004820181905260248201819052916001600160a01b0316906313e82e7a906044016020604051808303816000875af11580156107c7573d6000803e3d6000fd5b505050506040513d601f19601f820116820180604052508101906107eb919061147f565b50506107f76001600055565b565b6000610803611025565b600034116108535760405162461bcd60e51b815260206004820152601f60248201527f526577617264526f757465723a20696e76616c6964206d73672e76616c7565006044820152606401610161565b600260009054906101000a90046001600160a01b03166001600160a01b031663d0e30db0346040518263ffffffff1660e01b81526004016000604051808303818588803b1580156108a357600080fd5b505af11580156108b7573d6000803e3d6000fd5b505060025460085460405163095ea7b360e01b81526001600160a01b0391821660048201523460248201529116935063095ea7b3925060440190506020604051808303816000875af1158015610911573d6000803e3d6000fd5b505050506040513d601f19601f8201168201806040525081019061093591906114d1565b506008546002546040516317eb2a1560e01b815233926000926001600160a01b03918216926317eb2a159261097a92309288929091169034908c908c90600401611498565b6020604051808303816000875af1158015610999573d6000803e3d6000fd5b505050506040513d601f19601f820116820180604052508101906109bd919061147f565b600754600654604051631e42d69b60e21b81526001600160a01b03868116600483018190526024830152918216604482015260648101849052929350169063790b5a6c90608401600060405180830381600087803b158015610a1e57600080fd5b505af1158015610a32573d6000803e3d6000fd5b5050604080516001600160a01b0386168152602081018590527fa4725d47fa458d9222498e4d63f34527cf7318c1506f89d9092b35fdbcb64f3a935001905060405180910390a1915050610a866001600055565b92915050565b6000610a96611025565b60008411610ae65760405162461bcd60e51b815260206004820181905260248201527f526577617264526f757465723a20696e76616c6964205f676c70416d6f756e746044820152606401610161565b60075460065460405163098bf59d60e01b815233600482018190526001600160a01b039283166024830152604482018890526064820181905292919091169063098bf59d90608401600060405180830381600087803b158015610b4857600080fd5b505af1158015610b5c573d6000803e3d6000fd5b50506008546002546040516371d597ad60e01b81526001600160a01b0386811660048301529182166024820152604481018a90526064810189905230608482015260009450911691506371d597ad9060a4016020604051808303816000875af1158015610bcd573d6000803e3d6000fd5b505050506040513d601f19601f82011682018060405250810190610bf1919061147f565b600254604051632e1a7d4d60e01b8152600481018390529192506001600160a01b031690632e1a7d4d90602401600060405180830381600087803b158015610c3857600080fd5b505af1158015610c4c573d6000803e3d6000fd5b50610c64925050506001600160a01b0385168261104f565b604080516001600160a01b0384168152602081018890527f1cb6202519b6b6c72ba5ed11e2c3f53af3cea010f96bfc705584e53e75cf034c910160405180910390a1915050610cb36001600055565b9392505050565b6001546001600160a01b03163314610ce45760405162461bcd60e51b815260040161016190611450565b6001600160a01b038116610d3a5760405162461bcd60e51b815260206004820181905260248201527f476f7665726e61626c653a205f676f76206973207a65726f20616464726573736044820152606401610161565b600180546001600160a01b0319166001600160a01b0392909216919091179055565b610d64611025565b338115610e5b576007546040516309f4173d60e11b81526001600160a01b03838116600483015230602483015260009216906313e82e7a906044016020604051808303816000875af1158015610dbe573d6000803e3d6000fd5b505050506040513d601f19601f82011682018060405250810190610de2919061147f565b600254604051632e1a7d4d60e01b8152600481018390529192506001600160a01b031690632e1a7d4d90602401600060405180830381600087803b158015610e2957600080fd5b505af1158015610e3d573d6000803e3d6000fd5b50610e55925050506001600160a01b0383168261104f565b50610ed4565b6007546040516309f4173d60e11b81526001600160a01b03838116600483018190526024830152909116906313e82e7a906044016020604051808303816000875af1158015610eae573d6000803e3d6000fd5b505050506040513d601f19601f82011682018060405250810190610ed2919061147f565b505b50610edf6001600055565b50565b6001546001600160a01b03163314610f0c5760405162461bcd60e51b815260040161016190611450565b600154600160a01b900460ff1615610f705760405162461bcd60e51b815260206004820152602160248201527f526577617264526f757465723a20616c726561647920696e697469616c697a656044820152601960fa1b6064820152608401610161565b6001805460ff60a01b1916600160a01b179055600280546001600160a01b039586166001600160a01b0319918216179091556006805494861694821694909417909355600780549285169284169290921790915560088054919093169116179055565b604080516001600160a01b038416602482015260448082018490528251808303909101815260649091019091526020810180516001600160e01b031663a9059cbb60e01b1790526104139084906110e6565b60026000540361104857604051633ee5aeb560e01b815260040160405180910390fd5b6002600055565b804710156110725760405163cd78605960e01b8152306004820152602401610161565b6000826001600160a01b03168260405160006040518083038185875af1925050503d80600081146110bf576040519150601f19603f3d011682016040523d82523d6000602084013e6110c4565b606091505b505090508061041357604051630a12f52160e11b815260040160405180910390fd5b60006110fb6001600160a01b03841683611149565b9050805160001415801561112057508080602001905181019061111e91906114d1565b155b1561041357604051635274afe760e01b81526001600160a01b0384166004820152602401610161565b6060610cb38383600061115a611173565b604051630a12f52160e11b815260040160405180910390fd5b6060824710156111985760405163cd78605960e01b8152306004820152602401610161565b600080866001600160a01b031685876040516111b491906114ee565b60006040518083038185875af1925050503d80600081146111f1576040519150601f19603f3d011682016040523d82523d6000602084013e6111f6565b606091505b509150915061120787838387611212565b979650505050505050565b6060831561126057825160000361125957846001600160a01b03163b60000361125957604051639996b31560e01b81526001600160a01b0386166004820152602401610161565b50816105d0565b6105d083838151156112755781518083602001fd5b61115a8163ffffffff16565b6001600160a01b0381168114610edf57600080fd5b6000806000606084860312156112ab57600080fd5b83356112b681611281565b925060208401356112c681611281565b929592945050506040919091013590565b600080600080608085870312156112ed57600080fd5b84356112f881611281565b93506020850135925060408501359150606085013561131681611281565b939692955090935050565b6000806000806080858703121561133757600080fd5b843561134281611281565b966020860135965060408601359560600135945092505050565b6000806040838503121561136f57600080fd5b50508035926020909101359150565b60008060006060848603121561139357600080fd5b833592506020840135915060408401356113ac81611281565b809150509250925092565b6000602082840312156113c957600080fd5b8135610cb381611281565b8015158114610edf57600080fd5b6000602082840312156113f457600080fd5b8135610cb3816113d4565b6000806000806080858703121561141557600080fd5b843561142081611281565b9350602085013561143081611281565b9250604085013561144081611281565b9150606085013561131681611281565b60208082526015908201527423b7bb32b93730b136329d103337b93134b23232b760591b604082015260600190565b60006020828403121561149157600080fd5b5051919050565b6001600160a01b03968716815294861660208601529290941660408401526060830152608082019290925260a081019190915260c00190565b6000602082840312156114e357600080fd5b8151610cb3816113d4565b6000825160005b8181101561150f57602081860181015185830152016114f5565b50600092019182525091905056fea264697066735822122099197bd32184df00d91df51129f7ea133057794ed42ca841ee57a8f045be81a964736f6c63430008120033",
    "linkReferences": {}
  },
  "methodIdentifiers": {
    "bnGmx()": "e102f564",
    "claim()": "4e71d92d",
    "esGmx()": "6a192a78",
    "glp()": "78a207ee",
    "glpManager()": "fa6db1bc",
    "gmx()": "31e67c71",
    "gov()": "12d43a51",
    "handleRewards(bool)": "f15ac6a9",
    "initialize(address,address,address,address)": "f8c8765e",
    "isInitialized()": "392e53cd",
    "mintAndStakeGlp(address,uint256,uint256,uint256)": "364e2311",
    "mintAndStakeGlpETH(uint256,uint256)": "53a8aa03",
    "setGov(address)": "cfad57a2",
    "stakedGlpTracker()": "af394d00",
    "unstakeAndRedeemGlp(address,uint256,uint256,address)": "0f3aa554",
    "unstakeAndRedeemGlpETH(uint256,uint256,address)": "abb5e5e2",
    "weth()": "3fc8cef3",
    "withdrawToken(address,address,uint256)": "01e33667"
  },
  "id": 106
}