{
  "abi": [
    {
      "anonymous": false,
      "inputs": [
        {
          "indexed": false,
          "internalType": "address",
          "name": "account",
          "type": "address"
        },
        {
          "indexed": false,
          "internalType": "uint256",
          "name": "amount",
          "type": "uint256"
        }
      ],
      "name": "StakeGlp",
      "type": "event"
    },
    {
      "anonymous": false,
      "inputs": [
        {
          "indexed": false,
          "internalType": "address",
          "name": "account",
          "type": "address"
        },
        {
          "indexed": false,
          "internalType": "uint256",
          "name": "amount",
          "type": "uint256"
        }
      ],
      "name": "UnstakeGlp",
      "type": "event"
    },
    {
      "inputs": [],
      "name": "bnGmx",
      "outputs": [
        {
          "internalType": "address",
          "name": "",
          "type": "address"
        }
      ],
      "stateMutability": "view",
      "type": "function"
    },
    {
      "inputs": [],
      "name": "claim",
      "outputs": [],
      "stateMutability": "nonpayable",
      "type": "function"
    },
    {
      "inputs": [],
      "name": "claimFees",
      "outputs": [],
      "stateMutability": "nonpayable",
      "type": "function"
    },
    {
      "inputs": [],
      "name": "esGmx",
      "outputs": [
        {
          "internalType": "address",
          "name": "",
          "type": "address"
        }
      ],
      "stateMutability": "view",
      "type": "function"
    },
    {
      "inputs": [],
      "name": "feeGlpTracker",
      "outputs": [
        {
          "internalType": "address",
          "name": "",
          "type": "address"
        }
      ],
      "stateMutability": "view",
      "type": "function"
    },
    {
      "inputs": [],
      "name": "glp",
      "outputs": [
        {
          "internalType": "address",
          "name": "",
          "type": "address"
        }
      ],
      "stateMutability": "view",
      "type": "function"
    },
    {
      "inputs": [],
      "name": "glpManager",
      "outputs": [
        {
          "internalType": "address",
          "name": "",
          "type": "address"
        }
      ],
      "stateMutability": "view",
      "type": "function"
    },
    {
      "inputs": [],
      "name": "gmx",
      "outputs": [
        {
          "internalType": "address",
          "name": "",
          "type": "address"
        }
      ],
      "stateMutability": "view",
      "type": "function"
    },
    {
      "inputs": [],
      "name": "gov",
      "outputs": [
        {
          "internalType": "address",
          "name": "",
          "type": "address"
        }
      ],
      "stateMutability": "view",
      "type": "function"
    },
    {
      "inputs": [
        {
          "internalType": "bool",
          "name": "_shouldClaimWeth",
          "type": "bool"
        },
        {
          "internalType": "bool",
          "name": "_shouldConvertWethToEth",
          "type": "bool"
        }
      ],
      "name": "handleRewards",
      "outputs": [],
      "stateMutability": "nonpayable",
      "type": "function"
    },
    {
      "inputs": [
        {
          "internalType": "address",
          "name": "_weth",
          "type": "address"
        },
        {
          "internalType": "address",
          "name": "_glp",
          "type": "address"
        },
        {
          "internalType": "address",
          "name": "_feeGlpTracker",
          "type": "address"
        },
        {
          "internalType": "address",
          "name": "_stakedGlpTracker",
          "type": "address"
        },
        {
          "internalType": "address",
          "name": "_glpManager",
          "type": "address"
        }
      ],
      "name": "initialize",
      "outputs": [],
      "stateMutability": "nonpayable",
      "type": "function"
    },
    {
      "inputs": [],
      "name": "isInitialized",
      "outputs": [
        {
          "internalType": "bool",
          "name": "",
          "type": "bool"
        }
      ],
      "stateMutability": "view",
      "type": "function"
    },
    {
      "inputs": [
        {
          "internalType": "address",
          "name": "_token",
          "type": "address"
        },
        {
          "internalType": "uint256",
          "name": "_amount",
          "type": "uint256"
        },
        {
          "internalType": "uint256",
          "name": "_minUsdg",
          "type": "uint256"
        },
        {
          "internalType": "uint256",
          "name": "_minGlp",
          "type": "uint256"
        }
      ],
      "name": "mintAndStakeGlp",
      "outputs": [
        {
          "internalType": "uint256",
          "name": "",
          "type": "uint256"
        }
      ],
      "stateMutability": "nonpayable",
      "type": "function"
    },
    {
      "inputs": [
        {
          "internalType": "uint256",
          "name": "_minUsdg",
          "type": "uint256"
        },
        {
          "internalType": "uint256",
          "name": "_minGlp",
          "type": "uint256"
        }
      ],
      "name": "mintAndStakeGlpETH",
      "outputs": [
        {
          "internalType": "uint256",
          "name": "",
          "type": "uint256"
        }
      ],
      "stateMutability": "payable",
      "type": "function"
    },
    {
      "inputs": [
        {
          "internalType": "address",
          "name": "_gov",
          "type": "address"
        }
      ],
      "name": "setGov",
      "outputs": [],
      "stateMutability": "nonpayable",
      "type": "function"
    },
    {
      "inputs": [],
      "name": "stakedGlpTracker",
      "outputs": [
        {
          "internalType": "address",
          "name": "",
          "type": "address"
        }
      ],
      "stateMutability": "view",
      "type": "function"
    },
    {
      "inputs": [
        {
          "internalType": "address",
          "name": "_tokenOut",
          "type": "address"
        },
        {
          "internalType": "uint256",
          "name": "_glpAmount",
          "type": "uint256"
        },
        {
          "internalType": "uint256",
          "name": "_minOut",
          "type": "uint256"
        },
        {
          "internalType": "address",
          "name": "_receiver",
          "type": "address"
        }
      ],
      "name": "unstakeAndRedeemGlp",
      "outputs": [
        {
          "internalType": "uint256",
          "name": "",
          "type": "uint256"
        }
      ],
      "stateMutability": "nonpayable",
      "type": "function"
    },
    {
      "inputs": [
        {
          "internalType": "uint256",
          "name": "_glpAmount",
          "type": "uint256"
        },
        {
          "internalType": "uint256",
          "name": "_minOut",
          "type": "uint256"
        },
        {
          "internalType": "address payable",
          "name": "_receiver",
          "type": "address"
        }
      ],
      "name": "unstakeAndRedeemGlpETH",
      "outputs": [
        {
          "internalType": "uint256",
          "name": "",
          "type": "uint256"
        }
      ],
      "stateMutability": "nonpayable",
      "type": "function"
    },
    {
      "inputs": [],
      "name": "weth",
      "outputs": [
        {
          "internalType": "address",
          "name": "",
          "type": "address"
        }
      ],
      "stateMutability": "view",
      "type": "function"
    },
    {
      "inputs": [
        {
          "internalType": "address",
          "name": "_token",
          "type": "address"
        },
        {
          "internalType": "address",
          "name": "_account",
          "type": "address"
        },
        {
          "internalType": "uint256",
          "name": "_amount",
          "type": "uint256"
        }
      ],
      "name": "withdrawToken",
      "outputs": [],
      "stateMutability": "nonpayable",
      "type": "function"
    },
    {
      "stateMutability": "payable",
      "type": "receive"
    }
  ],
  "bytecode": {
    "object": "0x608060405234801561001057600080fd5b506001600081905580546001600160a01b03191633179055611c42806100376000396000f3fe6080604052600436106101235760003560e01c80636a192a78116100a0578063d294f09311610064578063d294f0931461042a578063e102f5641461043f578063e1c363b714610454578063e7cf6c1014610469578063fa6db1bc1461049d57610182565b80636a192a781461037957806378a207ee1461038e578063abb5e5e2146103a3578063af394d00146103e2578063cfad57a2146103f757610182565b8063364e2311116100e7578063364e2311146102be578063392e53cd146103035780633fc8cef31461032c5780634e71d92d1461034157806353a8aa031461035657610182565b806301e33667146101875780630f3aa554146101ca57806312d43a51146102235780631459457a1461025457806331e67c71146102a957610182565b36610182576002546001600160a01b03163314610180576040805162461bcd60e51b81526020600482015260166024820152752937baba32b91d1034b73b30b634b21039b2b73232b960511b604482015290519081900360640190fd5b005b600080fd5b34801561019357600080fd5b50610180600480360360608110156101aa57600080fd5b506001600160a01b038135811691602081013590911690604001356104b2565b3480156101d657600080fd5b50610211600480360360808110156101ed57600080fd5b506001600160a01b0381358116916020810135916040820135916060013516610522565b60408051918252519081900360200190f35b34801561022f57600080fd5b506102386107b6565b604080516001600160a01b039092168252519081900360200190f35b34801561026057600080fd5b50610180600480360360a081101561027757600080fd5b506001600160a01b038135811691602081013582169160408201358116916060810135821691608090910135166107c5565b3480156102b557600080fd5b506102386108d8565b3480156102ca57600080fd5b50610211600480360360808110156102e157600080fd5b506001600160a01b0381351690602081013590604081013590606001356108e7565b34801561030f57600080fd5b50610318610b79565b604080519115158252519081900360200190f35b34801561033857600080fd5b50610238610b89565b34801561034d57600080fd5b50610180610b98565b6102116004803603604081101561036c57600080fd5b5080359060200135610cf3565b34801561038557600080fd5b50610238611070565b34801561039a57600080fd5b5061023861107f565b3480156103af57600080fd5b50610211600480360360608110156103c657600080fd5b50803590602081013590604001356001600160a01b031661108e565b3480156103ee57600080fd5b5061023861139b565b34801561040357600080fd5b506101806004803603602081101561041a57600080fd5b50356001600160a01b03166113aa565b34801561043657600080fd5b5061018061147e565b34801561044b57600080fd5b50610238611523565b34801561046057600080fd5b50610238611532565b34801561047557600080fd5b506101806004803603604081101561048c57600080fd5b508035151590602001351515611541565b3480156104a957600080fd5b5061023861172b565b6001546001600160a01b03163314610509576040805162461bcd60e51b815260206004820152601560248201527423b7bb32b93730b136329d103337b93134b23232b760591b604482015290519081900360640190fd5b61051d6001600160a01b038416838361173a565b505050565b60006002600054141561056a576040805162461bcd60e51b815260206004820152601f6024820152600080516020611b42833981519152604482015290519081900360640190fd5b6002600055836105c1576040805162461bcd60e51b815260206004820181905260248201527f526577617264526f757465723a20696e76616c6964205f676c70416d6f756e74604482015290519081900360640190fd5b6007546008546040805163098bf59d60e01b815233600482018190526001600160a01b039384166024830152604482018990526064820181905291519193929092169163098bf59d91608480830192600092919082900301818387803b15801561062a57600080fd5b505af115801561063e573d6000803e3d6000fd5b50506008546006546040805163098bf59d60e01b81526001600160a01b03878116600483018190529381166024830152604482018c90526064820193909352905191909216935063098bf59d9250608480830192600092919082900301818387803b1580156106ac57600080fd5b505af11580156106c0573d6000803e3d6000fd5b5050600954604080516371d597ad60e01b81526001600160a01b0386811660048301528b81166024830152604482018b9052606482018a905288811660848301529151600095509190921692506371d597ad9160a48082019260209290919082900301818787803b15801561073457600080fd5b505af1158015610748573d6000803e3d6000fd5b505050506040513d602081101561075e57600080fd5b5051604080516001600160a01b03851681526020810189905281519293507f1cb6202519b6b6c72ba5ed11e2c3f53af3cea010f96bfc705584e53e75cf034c929081900390910190a160016000559695505050505050565b6001546001600160a01b031681565b6001546001600160a01b0316331461081c576040805162461bcd60e51b815260206004820152601560248201527423b7bb32b93730b136329d103337b93134b23232b760591b604482015290519081900360640190fd5b600154600160a01b900460ff16156108655760405162461bcd60e51b8152600401808060200182810382526021815260200180611b9c6021913960400191505060405180910390fd5b6001805460ff60a01b1916600160a01b179055600280546001600160a01b039687166001600160a01b031991821617909155600680549587169582169590951790945560088054938616938516939093179092556007805491851691841691909117905560098054919093169116179055565b6003546001600160a01b031681565b60006002600054141561092f576040805162461bcd60e51b815260206004820152601f6024820152600080516020611b42833981519152604482015290519081900360640190fd5b600260005583610986576040805162461bcd60e51b815260206004820152601d60248201527f526577617264526f757465723a20696e76616c6964205f616d6f756e74000000604482015290519081900360640190fd5b600954604080516317eb2a1560e01b81523360048201819052602482018190526001600160a01b038981166044840152606483018990526084830188905260a483018790529251909360009316916317eb2a159160c480830192602092919082900301818787803b1580156109fa57600080fd5b505af1158015610a0e573d6000803e3d6000fd5b505050506040513d6020811015610a2457600080fd5b505160085460065460408051631e42d69b60e21b81526001600160a01b03878116600483018190526024830152928316604482015260648101859052905193945091169163790b5a6c9160848082019260009290919082900301818387803b158015610a8f57600080fd5b505af1158015610aa3573d6000803e3d6000fd5b505060075460085460408051631e42d69b60e21b81526001600160a01b03888116600483018190526024830152928316604482015260648101879052905191909216935063790b5a6c9250608480830192600092919082900301818387803b158015610b0e57600080fd5b505af1158015610b22573d6000803e3d6000fd5b5050604080516001600160a01b03861681526020810185905281517fa4725d47fa458d9222498e4d63f34527cf7318c1506f89d9092b35fdbcb64f3a9450908190039091019150a160016000559695505050505050565b600154600160a01b900460ff1681565b6002546001600160a01b031681565b60026000541415610bde576040805162461bcd60e51b815260206004820152601f6024820152600080516020611b42833981519152604482015290519081900360640190fd5b60026000908155600854604080516309f4173d60e11b8152336004820181905260248201819052915191936001600160a01b03909316926313e82e7a926044808401936020939083900390910190829087803b158015610c3d57600080fd5b505af1158015610c51573d6000803e3d6000fd5b505050506040513d6020811015610c6757600080fd5b5050600754604080516309f4173d60e11b81526001600160a01b03848116600483018190526024830152915191909216916313e82e7a9160448083019260209291908290030181600087803b158015610cbf57600080fd5b505af1158015610cd3573d6000803e3d6000fd5b505050506040513d6020811015610ce957600080fd5b5050600160005550565b600060026000541415610d3b576040805162461bcd60e51b815260206004820152601f6024820152600080516020611b42833981519152604482015290519081900360640190fd5b600260005534610d92576040805162461bcd60e51b815260206004820152601f60248201527f526577617264526f757465723a20696e76616c6964206d73672e76616c756500604482015290519081900360640190fd5b600260009054906101000a90046001600160a01b03166001600160a01b031663d0e30db0346040518263ffffffff1660e01b81526004016000604051808303818588803b158015610de257600080fd5b505af1158015610df6573d6000803e3d6000fd5b50506002546009546040805163095ea7b360e01b81526001600160a01b039283166004820152346024820152905191909216945063095ea7b39350604480830193506020928290030181600087803b158015610e5157600080fd5b505af1158015610e65573d6000803e3d6000fd5b505050506040513d6020811015610e7b57600080fd5b5050600954600254604080516317eb2a1560e01b815230600482015233602482018190526001600160a01b0393841660448301523460648301526084820188905260a482018790529151919360009316916317eb2a159160c48082019260209290919082900301818787803b158015610ef357600080fd5b505af1158015610f07573d6000803e3d6000fd5b505050506040513d6020811015610f1d57600080fd5b505160085460065460408051631e42d69b60e21b81526001600160a01b03878116600483018190526024830152928316604482015260648101859052905193945091169163790b5a6c9160848082019260009290919082900301818387803b158015610f8857600080fd5b505af1158015610f9c573d6000803e3d6000fd5b505060075460085460408051631e42d69b60e21b81526001600160a01b03888116600483018190526024830152928316604482015260648101879052905191909216935063790b5a6c9250608480830192600092919082900301818387803b15801561100757600080fd5b505af115801561101b573d6000803e3d6000fd5b5050604080516001600160a01b03861681526020810185905281517fa4725d47fa458d9222498e4d63f34527cf7318c1506f89d9092b35fdbcb64f3a9450908190039091019150a16001600055949350505050565b6004546001600160a01b031681565b6006546001600160a01b031681565b6000600260005414156110d6576040805162461bcd60e51b815260206004820152601f6024820152600080516020611b42833981519152604482015290519081900360640190fd5b60026000558361112d576040805162461bcd60e51b815260206004820181905260248201527f526577617264526f757465723a20696e76616c6964205f676c70416d6f756e74604482015290519081900360640190fd5b6007546008546040805163098bf59d60e01b815233600482018190526001600160a01b039384166024830152604482018990526064820181905291519193929092169163098bf59d91608480830192600092919082900301818387803b15801561119657600080fd5b505af11580156111aa573d6000803e3d6000fd5b50506008546006546040805163098bf59d60e01b81526001600160a01b03878116600483018190529381166024830152604482018c90526064820193909352905191909216935063098bf59d9250608480830192600092919082900301818387803b15801561121857600080fd5b505af115801561122c573d6000803e3d6000fd5b5050600954600254604080516371d597ad60e01b81526001600160a01b0387811660048301529283166024820152604481018b9052606481018a90523060848201529051600095509190921692506371d597ad9160a48082019260209290919082900301818787803b1580156112a157600080fd5b505af11580156112b5573d6000803e3d6000fd5b505050506040513d60208110156112cb57600080fd5b505160025460408051632e1a7d4d60e01b81526004810184905290519293506001600160a01b0390911691632e1a7d4d9160248082019260009290919082900301818387803b15801561131d57600080fd5b505af1158015611331573d6000803e3d6000fd5b50611349925050506001600160a01b0385168261178c565b604080516001600160a01b03841681526020810188905281517f1cb6202519b6b6c72ba5ed11e2c3f53af3cea010f96bfc705584e53e75cf034c929181900390910190a1600160005595945050505050565b6007546001600160a01b031681565b6001546001600160a01b03163314611401576040805162461bcd60e51b815260206004820152601560248201527423b7bb32b93730b136329d103337b93134b23232b760591b604482015290519081900360640190fd5b6001600160a01b03811661145c576040805162461bcd60e51b815260206004820181905260248201527f476f7665726e61626c653a205f676f76206973207a65726f2061646472657373604482015290519081900360640190fd5b600180546001600160a01b0319166001600160a01b0392909216919091179055565b600260005414156114c4576040805162461bcd60e51b815260206004820152601f6024820152600080516020611b42833981519152604482015290519081900360640190fd5b60026000908155600854604080516309f4173d60e11b8152336004820181905260248201819052915191936001600160a01b03909316926313e82e7a926044808401936020939083900390910190829087803b158015610cbf57600080fd5b6005546001600160a01b031681565b6008546001600160a01b031681565b60026000541415611587576040805162461bcd60e51b815260206004820152601f6024820152600080516020611b42833981519152604482015290519081900360640190fd5b6002600055338215610ce957811561169f57600854604080516309f4173d60e11b81526001600160a01b038481166004830152306024830152915160009392909216916313e82e7a9160448082019260209290919082900301818787803b1580156115f157600080fd5b505af1158015611605573d6000803e3d6000fd5b505050506040513d602081101561161b57600080fd5b505160025460408051632e1a7d4d60e01b81526004810184905290519293506001600160a01b0390911691632e1a7d4d9160248082019260009290919082900301818387803b15801561166d57600080fd5b505af1158015611681573d6000803e3d6000fd5b50611699925050506001600160a01b0383168261178c565b50610ce9565b600854604080516309f4173d60e11b81526001600160a01b03848116600483018190526024830152915191909216916313e82e7a9160448083019260209291908290030181600087803b1580156116f557600080fd5b505af1158015611709573d6000803e3d6000fd5b505050506040513d602081101561171f57600080fd5b50505050600160005550565b6009546001600160a01b031681565b604080516001600160a01b038416602482015260448082018490528251808303909101815260649091019091526020810180516001600160e01b031663a9059cbb60e01b17905261051d908490611871565b804710156117e1576040805162461bcd60e51b815260206004820152601d60248201527f416464726573733a20696e73756666696369656e742062616c616e6365000000604482015290519081900360640190fd5b6040516000906001600160a01b0384169083908381818185875af1925050503d806000811461182c576040519150601f19603f3d011682016040523d82523d6000602084013e611831565b606091505b505090508061051d5760405162461bcd60e51b815260040180806020018281038252603a815260200180611b62603a913960400191505060405180910390fd5b60606118c6826040518060400160405280602081526020017f5361666545524332303a206c6f772d6c6576656c2063616c6c206661696c6564815250856001600160a01b03166119229092919063ffffffff16565b80519091501561051d578080602001905160208110156118e557600080fd5b505161051d5760405162461bcd60e51b815260040180806020018281038252602a815260200180611be3602a913960400191505060405180910390fd5b6060611931848460008561193b565b90505b9392505050565b60608247101561197c5760405162461bcd60e51b8152600401808060200182810382526026815260200180611bbd6026913960400191505060405180910390fd5b61198585611a97565b6119d6576040805162461bcd60e51b815260206004820152601d60248201527f416464726573733a2063616c6c20746f206e6f6e2d636f6e7472616374000000604482015290519081900360640190fd5b60006060866001600160a01b031685876040518082805190602001908083835b60208310611a155780518252601f1990920191602091820191016119f6565b6001836020036101000a03801982511681845116808217855250505050505090500191505060006040518083038185875af1925050503d8060008114611a77576040519150601f19603f3d011682016040523d82523d6000602084013e611a7c565b606091505b5091509150611a8c828286611a9d565b979650505050505050565b3b151590565b60608315611aac575081611934565b825115611abc5782518084602001fd5b8160405162461bcd60e51b81526004018080602001828103825283818151815260200191508051906020019080838360005b83811015611b06578181015183820152602001611aee565b50505050905090810190601f168015611b335780820380516001836020036101000a031916815260200191505b509250505060405180910390fdfe5265656e7472616e637947756172643a207265656e7472616e742063616c6c00416464726573733a20756e61626c6520746f2073656e642076616c75652c20726563697069656e74206d61792068617665207265766572746564526577617264526f757465723a20616c726561647920696e697469616c697a6564416464726573733a20696e73756666696369656e742062616c616e636520666f722063616c6c5361666545524332303a204552433230206f7065726174696f6e20646964206e6f742073756363656564a2646970667358221220bc63c100c4767be92c4b7da9e0d3eb55a187e987e4c83d3745c468cfd8e3082064736f6c634300060c0033",
    "linkReferences": {}
  },
  "methodIdentifiers": {
    "bnGmx()": "e102f564",
    "claim()": "4e71d92d",
    "claimFees()": "d294f093",
    "esGmx()": "6a192a78",
    "feeGlpTracker()": "e1c363b7",
    "glp()": "78a207ee",
    "glpManager()": "fa6db1bc",
    "gmx()": "31e67c71",
    "gov()": "12d43a51",
    "handleRewards(bool,bool)": "e7cf6c10",
    "initialize(address,address,address,address,address)": "1459457a",
    "isInitialized()": "392e53cd",
    "mintAndStakeGlp(address,uint256,uint256,uint256)": "364e2311",
    "mintAndStakeGlpETH(uint256,uint256)": "53a8aa03",
    "setGov(address)": "cfad57a2",
    "stakedGlpTracker()": "af394d00",
    "unstakeAndRedeemGlp(address,uint256,uint256,address)": "0f3aa554",
    "unstakeAndRedeemGlpETH(uint256,uint256,address)": "abb5e5e2",
    "weth()": "3fc8cef3",
    "withdrawToken(address,address,uint256)": "01e33667"
  },
  "id": 9
}