{"abi":[{"type":"constructor","inputs":[{"name":"_yieldToken","type":"address","internalType":"address"}],"stateMutability":"nonpayable"},{"type":"function","name":"PRECISION","inputs":[],"outputs":[{"name":"","type":"uint256","internalType":"uint256"}],"stateMutability":"view"},{"type":"function","name":"claim","inputs":[{"name":"_account","type":"address","internalType":"address"},{"name":"_receiver","type":"address","internalType":"address"}],"outputs":[{"name":"","type":"uint256","internalType":"uint256"}],"stateMutability":"nonpayable"},{"type":"function","name":"claimable","inputs":[{"name":"_account","type":"address","internalType":"address"}],"outputs":[{"name":"","type":"uint256","internalType":"uint256"}],"stateMutability":"view"},{"type":"function","name":"claimableReward","inputs":[{"name":"","type":"address","internalType":"address"}],"outputs":[{"name":"","type":"uint256","internalType":"uint256"}],"stateMutability":"view"},{"type":"function","name":"cumulativeRewardPerToken","inputs":[],"outputs":[{"name":"","type":"uint256","internalType":"uint256"}],"stateMutability":"view"},{"type":"function","name":"distributor","inputs":[],"outputs":[{"name":"","type":"address","internalType":"address"}],"stateMutability":"view"},{"type":"function","name":"getTokensPerInterval","inputs":[],"outputs":[{"name":"","type":"uint256","internalType":"uint256"}],"stateMutability":"view"},{"type":"function","name":"gov","inputs":[],"outputs":[{"name":"","type":"address","internalType":"address"}],"stateMutability":"view"},{"type":"function","name":"previousCumulatedRewardPerToken","inputs":[{"name":"","type":"address","internalType":"address"}],"outputs":[{"name":"","type":"uint256","internalType":"uint256"}],"stateMutability":"view"},{"type":"function","name":"setDistributor","inputs":[{"name":"_distributor","type":"address","internalType":"address"}],"outputs":[],"stateMutability":"nonpayable"},{"type":"function","name":"setGov","inputs":[{"name":"_gov","type":"address","internalType":"address"}],"outputs":[],"stateMutability":"nonpayable"},{"type":"function","name":"updateRewards","inputs":[{"name":"_account","type":"address","internalType":"address"}],"outputs":[],"stateMutability":"nonpayable"},{"type":"function","name":"withdrawToken","inputs":[{"name":"_token","type":"address","internalType":"address"},{"name":"_account","type":"address","internalType":"address"},{"name":"_amount","type":"uint256","internalType":"uint256"}],"outputs":[],"stateMutability":"nonpayable"},{"type":"function","name":"yieldToken","inputs":[],"outputs":[{"name":"","type":"address","internalType":"address"}],"stateMutability":"view"},{"type":"event","name":"Claim","inputs":[{"name":"receiver","type":"address","indexed":false,"internalType":"address"},{"name":"amount","type":"uint256","indexed":false,"internalType":"uint256"}],"anonymous":false},{"type":"error","name":"AddressEmptyCode","inputs":[{"name":"target","type":"address","internalType":"address"}]},{"type":"error","name":"AddressInsufficientBalance","inputs":[{"name":"account","type":"address","internalType":"address"}]},{"type":"error","name":"FailedInnerCall","inputs":[]},{"type":"error","name":"ReentrancyGuardReentrantCall","inputs":[]},{"type":"error","name":"SafeERC20FailedOperation","inputs":[{"name":"token","type":"address","internalType":"address"}]}],"bytecode":{"object":"0x608060405234801561001057600080fd5b50604051610e32380380610e3283398101604081905261002f91610067565b600160008190558054336001600160a01b031991821617909155600280549091166001600160a01b0392909216919091179055610097565b60006020828403121561007957600080fd5b81516001600160a01b038116811461009057600080fd5b9392505050565b610d8c806100a66000396000f3fe608060405234801561001057600080fd5b50600436106100ea5760003560e01c806375619ab51161008c578063bfe1092811610066578063bfe10928146101dd578063cfad57a2146101f0578063e950342514610203578063f5fc50761461022357600080fd5b806375619ab5146101a357806376d5de85146101b6578063aaf5eb68146101c957600080fd5b80632459f51d116100c85780632459f51d14610155578063402914f51461015d57806344a08411146101705780635fd619651461019057600080fd5b806301e33667146100ef57806312d43a511461010457806321c0b34214610134575b600080fd5b6101026100fd366004610b8c565b61022c565b005b600154610117906001600160a01b031681565b6040516001600160a01b0390911681526020015b60405180910390f35b610147610142366004610bcd565b610278565b60405190815260200161012b565b610147610396565b61014761016b366004610c06565b610407565b61014761017e366004610c06565b60066020526000908152604090205481565b61010261019e366004610c06565b610634565b6101026101b1366004610c06565b6108bf565b600254610117906001600160a01b031681565b6101476c0c9f2c9cd04674edea4000000081565b600354610117906001600160a01b031681565b6101026101fe366004610c06565b61090b565b610147610211366004610c06565b60056020526000908152604090205481565b61014760045481565b6001546001600160a01b0316331461025f5760405162461bcd60e51b815260040161025690610c23565b60405180910390fd5b6102736001600160a01b0384168383610957565b505050565b6002546000906001600160a01b031633146102a55760405162461bcd60e51b815260040161025690610c23565b6102ae83610634565b6001600160a01b038381166000908152600560205260408082208054908390556003549151633b83c43960e11b815230600482015290939190911690637707887290602401602060405180830381865afa158015610310573d6000803e3d6000fd5b505050506040513d601f19601f820116820180604052508101906103349190610c5a565b905061034a6001600160a01b0382168584610957565b604080516001600160a01b0387168152602081018490527f47cee97cb7acd717b3c0aa1435d004cd5b3c8c57d70dbceb4e4458bbd60e39d4910160405180910390a15090505b92915050565b600354604051629c368960e61b81523060048201526000916001600160a01b03169063270da24090602401602060405180830381865afa1580156103de573d6000803e3d6000fd5b505050506040513d601f19601f820116820180604052508101906104029190610c77565b905090565b600254604051636021726760e01b81526001600160a01b0383811660048301526000928392911690636021726790602401602060405180830381865afa158015610455573d6000803e3d6000fd5b505050506040513d601f19601f820116820180604052508101906104799190610c77565b9050806000036104a05750506001600160a01b031660009081526005602052604090205490565b600354604051635bfdd4fb60e11b81523060048201526000916c0c9f2c9cd04674edea40000000916001600160a01b039091169063b7fba9f690602401602060405180830381865afa1580156104fa573d6000803e3d6000fd5b505050506040513d601f19601f8201168201806040525081019061051e9190610c77565b6105289190610ca6565b90506000600260009054906101000a90046001600160a01b03166001600160a01b031663817b1cd26040518163ffffffff1660e01b8152600401602060405180830381865afa15801561057f573d6000803e3d6000fd5b505050506040513d601f19601f820116820180604052508101906105a39190610c77565b905060006105b18284610cbd565b6004546105be9190610cdf565b6001600160a01b0387166000908152600660205260409020549091506c0c9f2c9cd04674edea40000000906105f39083610cf2565b6105fd9086610ca6565b6106079190610cbd565b6001600160a01b03871660009081526005602052604090205461062a9190610cdf565b9695505050505050565b61063c6109a9565b6003546000906001600160a01b0316156106cc57600360009054906101000a90046001600160a01b03166001600160a01b031663e4fc6b6d6040518163ffffffff1660e01b81526004016020604051808303816000875af11580156106a5573d6000803e3d6000fd5b505050506040513d601f19601f820116820180604052508101906106c99190610c77565b90505b60048054600254604080516340bd8e6960e11b8152905192936000936001600160a01b039093169263817b1cd29280830192602092918290030181865afa15801561071b573d6000803e3d6000fd5b505050506040513d601f19601f8201168201806040525081019061073f9190610c77565b90506000811180156107515750600083115b1561078a578061076e6c0c9f2c9cd04674edea4000000085610ca6565b6107789190610cbd565b6107829083610cdf565b600481905591505b8160000361079a575050506108b2565b6001600160a01b038416156108ae57600254604051636021726760e01b81526001600160a01b0386811660048301526000921690636021726790602401602060405180830381865afa1580156107f4573d6000803e3d6000fd5b505050506040513d601f19601f820116820180604052508101906108189190610c77565b6001600160a01b0386166000908152600660205260408120549192506c0c9f2c9cd04674edea4000000061084c8387610cf2565b6108569085610ca6565b6108609190610cbd565b6001600160a01b0388166000908152600560205260409020546108839190610cdf565b6001600160a01b03881660009081526005602090815260408083209390935560069052208590555050505b5050505b6108bc6001600055565b50565b6001546001600160a01b031633146108e95760405162461bcd60e51b815260040161025690610c23565b600380546001600160a01b0319166001600160a01b0392909216919091179055565b6001546001600160a01b031633146109355760405162461bcd60e51b815260040161025690610c23565b600180546001600160a01b0319166001600160a01b0392909216919091179055565b604080516001600160a01b038416602482015260448082018490528251808303909101815260649091019091526020810180516001600160e01b031663a9059cbb60e01b1790526102739084906109d3565b6002600054036109cc57604051633ee5aeb560e01b815260040160405180910390fd5b6002600055565b60006109e86001600160a01b03841683610a36565b90508051600014158015610a0d575080806020019051810190610a0b9190610d05565b155b1561027357604051635274afe760e01b81526001600160a01b0384166004820152602401610256565b6060610a4783836000610a4e610a67565b9392505050565b604051630a12f52160e11b815260040160405180910390fd5b606082471015610a8c5760405163cd78605960e01b8152306004820152602401610256565b600080866001600160a01b03168587604051610aa89190610d27565b60006040518083038185875af1925050503d8060008114610ae5576040519150601f19603f3d011682016040523d82523d6000602084013e610aea565b606091505b5091509150610afb87838387610b08565b925050505b949350505050565b60608315610b56578251600003610b4f57846001600160a01b03163b600003610b4f57604051639996b31560e01b81526001600160a01b0386166004820152602401610256565b5081610b00565b610b008383815115610b6b5781518083602001fd5b610a4e8163ffffffff16565b6001600160a01b03811681146108bc57600080fd5b600080600060608486031215610ba157600080fd5b8335610bac81610b77565b92506020840135610bbc81610b77565b929592945050506040919091013590565b60008060408385031215610be057600080fd5b8235610beb81610b77565b91506020830135610bfb81610b77565b809150509250929050565b600060208284031215610c1857600080fd5b8135610a4781610b77565b60208082526017908201527f5969656c64547261636b65723a20666f7262696464656e000000000000000000604082015260600190565b600060208284031215610c6c57600080fd5b8151610a4781610b77565b600060208284031215610c8957600080fd5b5051919050565b634e487b7160e01b600052601160045260246000fd5b808202811582820484141761039057610390610c90565b600082610cda57634e487b7160e01b600052601260045260246000fd5b500490565b8082018082111561039057610390610c90565b8181038181111561039057610390610c90565b600060208284031215610d1757600080fd5b81518015158114610a4757600080fd5b6000825160005b81811015610d485760208186018101518583015201610d2e565b50600092019182525091905056fea264697066735822122002c22cc4832be6196c76a71ac6b7f7cae12903f6e38da472bd59e83db012e6e964736f6c63430008120033","linkReferences":{}},"methodIdentifiers":{"PRECISION()":"aaf5eb68","claim(address,address)":"21c0b342","claimable(address)":"402914f5","claimableReward(address)":"e9503425","cumulativeRewardPerToken()":"f5fc5076","distributor()":"bfe10928","getTokensPerInterval()":"2459f51d","gov()":"12d43a51","previousCumulatedRewardPerToken(address)":"44a08411","setDistributor(address)":"75619ab5","setGov(address)":"cfad57a2","updateRewards(address)":"5fd61965","withdrawToken(address,address,uint256)":"01e33667","yieldToken()":"76d5de85"},"id":140}