{
  "abi": [
    {
      "inputs": [
        {
          "internalType": "address",
          "name": "_glp",
          "type": "address"
        },
        {
          "internalType": "contract IGlpManager",
          "name": "_glpManager",
          "type": "address"
        },
        {
          "internalType": "address",
          "name": "_stakedGlpTracker",
          "type": "address"
        }
      ],
      "stateMutability": "nonpayable",
      "type": "constructor"
    },
    {
      "anonymous": false,
      "inputs": [
        {
          "indexed": true,
          "internalType": "address",
          "name": "owner",
          "type": "address"
        },
        {
          "indexed": true,
          "internalType": "address",
          "name": "spender",
          "type": "address"
        },
        {
          "indexed": false,
          "internalType": "uint256",
          "name": "value",
          "type": "uint256"
        }
      ],
      "name": "Approval",
      "type": "event"
    },
    {
      "inputs": [
        {
          "internalType": "address",
          "name": "_owner",
          "type": "address"
        },
        {
          "internalType": "address",
          "name": "_spender",
          "type": "address"
        }
      ],
      "name": "allowance",
      "outputs": [
        {
          "internalType": "uint256",
          "name": "",
          "type": "uint256"
        }
      ],
      "stateMutability": "view",
      "type": "function"
    },
    {
      "inputs": [
        {
          "internalType": "address",
          "name": "",
          "type": "address"
        },
        {
          "internalType": "address",
          "name": "",
          "type": "address"
        }
      ],
      "name": "allowances",
      "outputs": [
        {
          "internalType": "uint256",
          "name": "",
          "type": "uint256"
        }
      ],
      "stateMutability": "view",
      "type": "function"
    },
    {
      "inputs": [
        {
          "internalType": "address",
          "name": "_spender",
          "type": "address"
        },
        {
          "internalType": "uint256",
          "name": "_amount",
          "type": "uint256"
        }
      ],
      "name": "approve",
      "outputs": [
        {
          "internalType": "bool",
          "name": "",
          "type": "bool"
        }
      ],
      "stateMutability": "nonpayable",
      "type": "function"
    },
    {
      "inputs": [
        {
          "internalType": "address",
          "name": "_account",
          "type": "address"
        }
      ],
      "name": "balanceOf",
      "outputs": [
        {
          "internalType": "uint256",
          "name": "",
          "type": "uint256"
        }
      ],
      "stateMutability": "view",
      "type": "function"
    },
    {
      "inputs": [],
      "name": "decimals",
      "outputs": [
        {
          "internalType": "uint8",
          "name": "",
          "type": "uint8"
        }
      ],
      "stateMutability": "view",
      "type": "function"
    },
    {
      "inputs": [],
      "name": "glp",
      "outputs": [
        {
          "internalType": "address",
          "name": "",
          "type": "address"
        }
      ],
      "stateMutability": "view",
      "type": "function"
    },
    {
      "inputs": [],
      "name": "glpManager",
      "outputs": [
        {
          "internalType": "contract IGlpManager",
          "name": "",
          "type": "address"
        }
      ],
      "stateMutability": "view",
      "type": "function"
    },
    {
      "inputs": [],
      "name": "name",
      "outputs": [
        {
          "internalType": "string",
          "name": "",
          "type": "string"
        }
      ],
      "stateMutability": "view",
      "type": "function"
    },
    {
      "inputs": [],
      "name": "stakedGlpTracker",
      "outputs": [
        {
          "internalType": "address",
          "name": "",
          "type": "address"
        }
      ],
      "stateMutability": "view",
      "type": "function"
    },
    {
      "inputs": [],
      "name": "symbol",
      "outputs": [
        {
          "internalType": "string",
          "name": "",
          "type": "string"
        }
      ],
      "stateMutability": "view",
      "type": "function"
    },
    {
      "inputs": [],
      "name": "totalSupply",
      "outputs": [
        {
          "internalType": "uint256",
          "name": "",
          "type": "uint256"
        }
      ],
      "stateMutability": "view",
      "type": "function"
    },
    {
      "inputs": [
        {
          "internalType": "address",
          "name": "_recipient",
          "type": "address"
        },
        {
          "internalType": "uint256",
          "name": "_amount",
          "type": "uint256"
        }
      ],
      "name": "transfer",
      "outputs": [
        {
          "internalType": "bool",
          "name": "",
          "type": "bool"
        }
      ],
      "stateMutability": "nonpayable",
      "type": "function"
    },
    {
      "inputs": [
        {
          "internalType": "address",
          "name": "_sender",
          "type": "address"
        },
        {
          "internalType": "address",
          "name": "_recipient",
          "type": "address"
        },
        {
          "internalType": "uint256",
          "name": "_amount",
          "type": "uint256"
        }
      ],
      "name": "transferFrom",
      "outputs": [
        {
          "internalType": "bool",
          "name": "",
          "type": "bool"
        }
      ],
      "stateMutability": "nonpayable",
      "type": "function"
    }
  ],
  "bytecode": {
    "object": "0x608060405234801561001057600080fd5b50604051610ba4380380610ba48339818101604052606081101561003357600080fd5b5080516020820151604090920151600080546001600160a01b039384166001600160a01b0319918216179091556001805494841694821694909417909355600280549290911691909216179055610b158061008f6000396000f3fe608060405234801561001057600080fd5b50600436106100cf5760003560e01c806370a082311161008c578063a9059cbb11610066578063a9059cbb1461027f578063af394d00146102ab578063dd62ed3e146102b3578063fa6db1bc146102e1576100cf565b806370a082311461022d57806378a207ee1461025357806395d89b4114610277576100cf565b806306fdde03146100d4578063095ea7b31461015157806318160ddd1461019157806323b872dd146101ab578063313ce567146101e157806355b6ed5c146101ff575b600080fd5b6100dc6102e9565b6040805160208082528351818301528351919283929083019185019080838360005b838110156101165781810151838201526020016100fe565b50505050905090810190601f1680156101435780820380516001836020036101000a031916815260200191505b509250505060405180910390f35b61017d6004803603604081101561016757600080fd5b506001600160a01b03813516906020013561030e565b604080519115158252519081900360200190f35b610199610324565b60408051918252519081900360200190f35b61017d600480360360608110156101c157600080fd5b506001600160a01b0381358116916020810135909116906040013561039a565b6101e9610408565b6040805160ff9092168252519081900360200190f35b6101996004803603604081101561021557600080fd5b506001600160a01b038135811691602001351661040d565b6101996004803603602081101561024357600080fd5b50356001600160a01b031661042a565b61025b6104b8565b604080516001600160a01b039092168252519081900360200190f35b6100dc6104c7565b61017d6004803603604081101561029557600080fd5b506001600160a01b0381351690602001356104e7565b61025b6104f4565b610199600480360360408110156102c957600080fd5b506001600160a01b0381358116916020013516610503565b61025b61052e565b6040518060400160405280600981526020016805374616b6564476c760bc1b81525081565b600061031b33848461053d565b50600192915050565b600254604080516318160ddd60e01b815290516000926001600160a01b0316916318160ddd916004808301926020929190829003018186803b15801561036957600080fd5b505afa15801561037d573d6000803e3d6000fd5b505050506040513d602081101561039357600080fd5b5051905090565b6000806103e5836040518060600160405280602c8152602001610a89602c91396001600160a01b03881660009081526003602090815260408083203384529091529020549190610629565b90506103f285338361053d565b6103fd8585856106c0565b506001949350505050565b601281565b600360209081526000928352604080842090915290825290205481565b6002546000805460408051637aeceb1f60e11b81526001600160a01b038681166004830152928316602482015290519293919091169163f5d9d63e91604480820192602092909190829003018186803b15801561048657600080fd5b505afa15801561049a573d6000803e3d6000fd5b505050506040513d60208110156104b057600080fd5b505192915050565b6000546001600160a01b031681565b60405180604001604052806004815260200163073474c560e41b81525081565b600061031b3384846106c0565b6002546001600160a01b031681565b6001600160a01b03918216600090815260036020908152604080832093909416825291909152205490565b6001546001600160a01b031681565b6001600160a01b0383166105825760405162461bcd60e51b8152600401808060200182810382526028815260200180610a146028913960400191505060405180910390fd5b6001600160a01b0382166105c75760405162461bcd60e51b8152600401808060200182810382526026815260200180610a3c6026913960400191505060405180910390fd5b6001600160a01b03808416600081815260036020908152604080832094871680845294825291829020859055815185815291517f8c5be1e5ebec7d5bd14f71427d1e84f3dd0314c0f7b2291e5b200ac8c7c3b9259281900390910190a3505050565b600081848411156106b85760405162461bcd60e51b81526004018080602001828103825283818151815260200191508051906020019080838360005b8381101561067d578181015183820152602001610665565b50505050905090810190601f1680156106aa5780820380516001836020036101000a031916815260200191505b509250505060405180910390fd5b505050900390565b6001600160a01b0383166107055760405162461bcd60e51b81526004018080602001828103825260298152602001806109eb6029913960400191505060405180910390fd5b6001600160a01b03821661074a5760405162461bcd60e51b8152600401808060200182810382526027815260200180610a626027913960400191505060405180910390fd5b4261084b600160009054906101000a90046001600160a01b03166001600160a01b031663352693156040518163ffffffff1660e01b8152600401602060405180830381600087803b15801561079e57600080fd5b505af11580156107b2573d6000803e3d6000fd5b505050506040513d60208110156107c857600080fd5b505160015460408051638b770e1160e01b81526001600160a01b03898116600483015291519190921691638b770e119160248083019260209291908290030181600087803b15801561081957600080fd5b505af115801561082d573d6000803e3d6000fd5b505050506040513d602081101561084357600080fd5b505190610989565b11156108885760405162461bcd60e51b815260040180806020018281038252602b815260200180610ab5602b913960400191505060405180910390fd5b600254600080546040805163098bf59d60e01b81526001600160a01b038881166004830181905293811660248301526044820187905260648201939093529051919093169263098bf59d92608480830193919282900301818387803b1580156108f057600080fd5b505af1158015610904573d6000803e3d6000fd5b50506002546000805460408051631e42d69b60e21b81526001600160a01b038a811660048301528981166024830152928316604482015260648101889052905191909316945063790b5a6c935060848084019382900301818387803b15801561096c57600080fd5b505af1158015610980573d6000803e3d6000fd5b50505050505050565b6000828201838110156109e3576040805162461bcd60e51b815260206004820152601b60248201527f536166654d6174683a206164646974696f6e206f766572666c6f770000000000604482015290519081900360640190fd5b939250505056fe5374616b6564476c703a207472616e736665722066726f6d20746865207a65726f20616464726573735374616b6564476c703a20617070726f76652066726f6d20746865207a65726f20616464726573735374616b6564476c703a20617070726f766520746f20746865207a65726f20616464726573735374616b6564476c703a207472616e7366657220746f20746865207a65726f20616464726573735374616b6564476c703a207472616e7366657220616d6f756e74206578636565647320616c6c6f77616e63655374616b6564476c703a20636f6f6c646f776e206475726174696f6e206e6f742079657420706173736564a26469706673582212202ac5a145e38abc5841a104c1da62722b74b8630d0181bc50a6af1b8b02f098ca64736f6c634300060c0033",
    "linkReferences": {}
  },
  "methodIdentifiers": {
    "allowance(address,address)": "dd62ed3e",
    "allowances(address,address)": "55b6ed5c",
    "approve(address,uint256)": "095ea7b3",
    "balanceOf(address)": "70a08231",
    "decimals()": "313ce567",
    "glp()": "78a207ee",
    "glpManager()": "fa6db1bc",
    "name()": "06fdde03",
    "stakedGlpTracker()": "af394d00",
    "symbol()": "95d89b41",
    "totalSupply()": "18160ddd",
    "transfer(address,uint256)": "a9059cbb",
    "transferFrom(address,address,uint256)": "23b872dd"
  },
  "id": 10
}