{"abi":[{"type":"constructor","inputs":[{"name":"_amplifier","type":"address","internalType":"address"},{"name":"_tracker","type":"address","internalType":"address"}],"stateMutability":"nonpayable"},{"type":"function","name":"brrrXpAmplifier","inputs":[],"outputs":[{"name":"","type":"address","internalType":"contract IBrrrXpAmplifier"}],"stateMutability":"view"},{"type":"function","name":"claimAllPendingRewards","inputs":[],"outputs":[{"name":"","type":"uint256","internalType":"uint256"},{"name":"","type":"uint256","internalType":"uint256"}],"stateMutability":"nonpayable"},{"type":"function","name":"rewardTracker","inputs":[],"outputs":[{"name":"","type":"address","internalType":"contract IRewardTracker"}],"stateMutability":"view"},{"type":"event","name":"RewardsClaimed","inputs":[{"name":"user","type":"address","indexed":true,"internalType":"address"},{"name":"tokenAmount","type":"uint256","indexed":true,"internalType":"uint256"},{"name":"xpAmount","type":"uint256","indexed":true,"internalType":"uint256"}],"anonymous":false}],"bytecode":{"object":"0x60c060405234801561001057600080fd5b506040516103a53803806103a583398101604081905261002f91610062565b6001600160a01b039182166080521660a052610095565b80516001600160a01b038116811461005d57600080fd5b919050565b6000806040838503121561007557600080fd5b61007e83610046565b915061008c60208401610046565b90509250929050565b60805160a0516102e06100c560003960008181604b015260f9015260008181608f015261018b01526102e06000f3fe608060405234801561001057600080fd5b50600436106100415760003560e01c80636bcb411a14610046578063bcf36ffb1461008a578063f825b6c9146100b1575b600080fd5b61006d7f000000000000000000000000000000000000000000000000000000000000000081565b6040516001600160a01b0390911681526020015b60405180910390f35b61006d7f000000000000000000000000000000000000000000000000000000000000000081565b6100b96100ce565b60408051928352602083019190915201610081565b6040516309f4173d60e11b815233600482018190526024820152600090819081906001600160a01b037f000000000000000000000000000000000000000000000000000000000000000016906313e82e7a906044016020604051808303816000875af1158015610142573d6000803e3d6000fd5b505050506040513d601f19601f820116820180604052508101906101669190610246565b604051631928dabf60e01b815233600482015290915060009081906001600160a01b037f00000000000000000000000000000000000000000000000000000000000000001690631928dabf9060240160408051808303816000875af11580156101d3573d6000803e3d6000fd5b505050506040513d601f19601f820116820180604052508101906101f7919061025f565b9092509050806102078385610283565b60405133907fdacbdde355ba930696a362ea6738feb9f8bd52dfb3d81947558fd3217e23e32590600090a461023c8284610283565b9590945092505050565b60006020828403121561025857600080fd5b5051919050565b6000806040838503121561027257600080fd5b505080516020909101519092909150565b808201808211156102a457634e487b7160e01b600052601160045260246000fd5b9291505056fea2646970667358221220562d6ad176ea09167f4da9885ab51d92104f2e538e22f8f9a5d4b20875ec80fb64736f6c63430008120033","linkReferences":{}},"methodIdentifiers":{"brrrXpAmplifier()":"bcf36ffb","claimAllPendingRewards()":"f825b6c9","rewardTracker()":"6bcb411a"},"id":120}