{
  "abi": [
    {
      "inputs": [
        {
          "internalType": "address",
          "name": "_brrr",
          "type": "address"
        },
        {
          "internalType": "contract IBrrrManager",
          "name": "_brrrManager",
          "type": "address"
        },
        {
          "internalType": "address",
          "name": "_stakedBrrrTracker",
          "type": "address"
        }
      ],
      "stateMutability": "nonpayable",
      "type": "constructor"
    },
    {
      "anonymous": false,
      "inputs": [
        {
          "indexed": true,
          "internalType": "address",
          "name": "owner",
          "type": "address"
        },
        {
          "indexed": true,
          "internalType": "address",
          "name": "spender",
          "type": "address"
        },
        {
          "indexed": false,
          "internalType": "uint256",
          "name": "value",
          "type": "uint256"
        }
      ],
      "name": "Approval",
      "type": "event"
    },
    {
      "inputs": [
        {
          "internalType": "address",
          "name": "_owner",
          "type": "address"
        },
        {
          "internalType": "address",
          "name": "_spender",
          "type": "address"
        }
      ],
      "name": "allowance",
      "outputs": [
        {
          "internalType": "uint256",
          "name": "",
          "type": "uint256"
        }
      ],
      "stateMutability": "view",
      "type": "function"
    },
    {
      "inputs": [
        {
          "internalType": "address",
          "name": "",
          "type": "address"
        },
        {
          "internalType": "address",
          "name": "",
          "type": "address"
        }
      ],
      "name": "allowances",
      "outputs": [
        {
          "internalType": "uint256",
          "name": "",
          "type": "uint256"
        }
      ],
      "stateMutability": "view",
      "type": "function"
    },
    {
      "inputs": [
        {
          "internalType": "address",
          "name": "_spender",
          "type": "address"
        },
        {
          "internalType": "uint256",
          "name": "_amount",
          "type": "uint256"
        }
      ],
      "name": "approve",
      "outputs": [
        {
          "internalType": "bool",
          "name": "",
          "type": "bool"
        }
      ],
      "stateMutability": "nonpayable",
      "type": "function"
    },
    {
      "inputs": [
        {
          "internalType": "address",
          "name": "_account",
          "type": "address"
        }
      ],
      "name": "balanceOf",
      "outputs": [
        {
          "internalType": "uint256",
          "name": "",
          "type": "uint256"
        }
      ],
      "stateMutability": "view",
      "type": "function"
    },
    {
      "inputs": [],
      "name": "brrr",
      "outputs": [
        {
          "internalType": "address",
          "name": "",
          "type": "address"
        }
      ],
      "stateMutability": "view",
      "type": "function"
    },
    {
      "inputs": [],
      "name": "brrrManager",
      "outputs": [
        {
          "internalType": "contract IBrrrManager",
          "name": "",
          "type": "address"
        }
      ],
      "stateMutability": "view",
      "type": "function"
    },
    {
      "inputs": [],
      "name": "decimals",
      "outputs": [
        {
          "internalType": "uint8",
          "name": "",
          "type": "uint8"
        }
      ],
      "stateMutability": "view",
      "type": "function"
    },
    {
      "inputs": [],
      "name": "name",
      "outputs": [
        {
          "internalType": "string",
          "name": "",
          "type": "string"
        }
      ],
      "stateMutability": "view",
      "type": "function"
    },
    {
      "inputs": [],
      "name": "stakedBrrrTracker",
      "outputs": [
        {
          "internalType": "address",
          "name": "",
          "type": "address"
        }
      ],
      "stateMutability": "view",
      "type": "function"
    },
    {
      "inputs": [],
      "name": "symbol",
      "outputs": [
        {
          "internalType": "string",
          "name": "",
          "type": "string"
        }
      ],
      "stateMutability": "view",
      "type": "function"
    },
    {
      "inputs": [],
      "name": "totalSupply",
      "outputs": [
        {
          "internalType": "uint256",
          "name": "",
          "type": "uint256"
        }
      ],
      "stateMutability": "view",
      "type": "function"
    },
    {
      "inputs": [
        {
          "internalType": "address",
          "name": "_recipient",
          "type": "address"
        },
        {
          "internalType": "uint256",
          "name": "_amount",
          "type": "uint256"
        }
      ],
      "name": "transfer",
      "outputs": [
        {
          "internalType": "bool",
          "name": "",
          "type": "bool"
        }
      ],
      "stateMutability": "nonpayable",
      "type": "function"
    },
    {
      "inputs": [
        {
          "internalType": "address",
          "name": "_sender",
          "type": "address"
        },
        {
          "internalType": "address",
          "name": "_recipient",
          "type": "address"
        },
        {
          "internalType": "uint256",
          "name": "_amount",
          "type": "uint256"
        }
      ],
      "name": "transferFrom",
      "outputs": [
        {
          "internalType": "bool",
          "name": "",
          "type": "bool"
        }
      ],
      "stateMutability": "nonpayable",
      "type": "function"
    }
  ],
  "bytecode": {
    "object": "0x608060405234801561001057600080fd5b50604051610aea380380610aea83398101604081905261002f91610089565b600080546001600160a01b039485166001600160a01b0319918216179091556001805493851693821693909317909255600280549190931691161790556100d6565b6001600160a01b038116811461008657600080fd5b50565b60008060006060848603121561009e57600080fd5b83516100a981610071565b60208501519093506100ba81610071565b60408501519092506100cb81610071565b809150509250925092565b610a05806100e56000396000f3fe608060405234801561001057600080fd5b50600436106100cf5760003560e01c806370a082311161008c578063a9059cbb11610066578063a9059cbb1461020f578063dd62ed3e14610222578063e76ab00f1461025b578063ebb071be1461026e57600080fd5b806370a08231146101ac57806395d89b41146101bf57806396a67d25146101e457600080fd5b806306fdde03146100d4578063095ea7b31461011b57806318160ddd1461013e57806323b872dd14610154578063313ce5671461016757806355b6ed5c14610181575b600080fd5b610105604051806040016040528060128152602001712a3930b739b332b929ba30b5b2b22139393960711b81525081565b6040516101129190610855565b60405180910390f35b61012e6101293660046108bf565b610281565b6040519015158152602001610112565b610146610298565b604051908152602001610112565b61012e6101623660046108e9565b61030b565b61016f601281565b60405160ff9091168152602001610112565b61014661018f366004610925565b600360209081526000928352604080842090915290825290205481565b6101466101ba366004610958565b61035f565b610105604051806040016040528060068152602001653a39a129292960d11b81525081565b6000546101f7906001600160a01b031681565b6040516001600160a01b039091168152602001610112565b61012e61021d3660046108bf565b6103d9565b610146610230366004610925565b6001600160a01b03918216600090815260036020908152604080832093909416825291909152205490565b6001546101f7906001600160a01b031681565b6002546101f7906001600160a01b031681565b600061028e3384846103e6565b5060015b92915050565b600254604080516318160ddd60e01b815290516000926001600160a01b0316916318160ddd9160048083019260209291908290030181865afa1580156102e2573d6000803e3d6000fd5b505050506040513d601f19601f82011682018060405250810190610306919061097a565b905090565b6001600160a01b0383166000908152600360209081526040808320338452909152812054819061033c9084906109a9565b90506103498533836103e6565b61035485858561052a565b506001949350505050565b60025460008054604051637aeceb1f60e11b81526001600160a01b03858116600483015291821660248201529192169063f5d9d63e90604401602060405180830381865afa1580156103b5573d6000803e3d6000fd5b505050506040513d601f19601f82011682018060405250810190610292919061097a565b600061028e33848461052a565b6001600160a01b03831661045b5760405162461bcd60e51b815260206004820152603160248201527f5472616e736665725374616b6564427272723a20617070726f76652066726f6d60448201527020746865207a65726f206164647265737360781b60648201526084015b60405180910390fd5b6001600160a01b0382166104c95760405162461bcd60e51b815260206004820152602f60248201527f5472616e736665725374616b6564427272723a20617070726f766520746f207460448201526e6865207a65726f206164647265737360881b6064820152608401610452565b6001600160a01b0383811660008181526003602090815260408083209487168084529482529182902085905590518481527f8c5be1e5ebec7d5bd14f71427d1e84f3dd0314c0f7b2291e5b200ac8c7c3b925910160405180910390a3505050565b6001600160a01b03831661059b5760405162461bcd60e51b815260206004820152603260248201527f5472616e736665725374616b6564427272723a207472616e736665722066726f6044820152716d20746865207a65726f206164647265737360701b6064820152608401610452565b6001600160a01b03821661060a5760405162461bcd60e51b815260206004820152603060248201527f5472616e736665725374616b6564427272723a207472616e7366657220746f2060448201526f746865207a65726f206164647265737360801b6064820152608401610452565b60015460408051633526931560e01b8152905142926001600160a01b031691633526931591600480830192602092919082900301816000875af1158015610655573d6000803e3d6000fd5b505050506040513d601f19601f82011682018060405250810190610679919061097a565b600154604051638b770e1160e01b81526001600160a01b03878116600483015290911690638b770e11906024016020604051808303816000875af11580156106c5573d6000803e3d6000fd5b505050506040513d601f19601f820116820180604052508101906106e9919061097a565b6106f391906109bc565b111561075e5760405162461bcd60e51b815260206004820152603460248201527f5472616e736665725374616b6564427272723a20636f6f6c646f776e20647572604482015273185d1a5bdb881b9bdd081e595d081c185cdcd95960621b6064820152608401610452565b60025460005460405163098bf59d60e01b81526001600160a01b0386811660048301819052928116602483015260448201859052606482019290925291169063098bf59d90608401600060405180830381600087803b1580156107c057600080fd5b505af11580156107d4573d6000803e3d6000fd5b5050600254600054604051631e42d69b60e21b81526001600160a01b03888116600483015287811660248301529182166044820152606481018690529116925063790b5a6c9150608401600060405180830381600087803b15801561083857600080fd5b505af115801561084c573d6000803e3d6000fd5b50505050505050565b600060208083528351808285015260005b8181101561088257858101830151858201604001528201610866565b506000604082860101526040601f19601f8301168501019250505092915050565b80356001600160a01b03811681146108ba57600080fd5b919050565b600080604083850312156108d257600080fd5b6108db836108a3565b946020939093013593505050565b6000806000606084860312156108fe57600080fd5b610907846108a3565b9250610915602085016108a3565b9150604084013590509250925092565b6000806040838503121561093857600080fd5b610941836108a3565b915061094f602084016108a3565b90509250929050565b60006020828403121561096a57600080fd5b610973826108a3565b9392505050565b60006020828403121561098c57600080fd5b5051919050565b634e487b7160e01b600052601160045260246000fd5b8181038181111561029257610292610993565b808201808211156102925761029261099356fea26469706673582212200a05caea2dd3cc0366b753ca8cc6ef1a29471dcf212772c4d705457ee4b0ea4864736f6c63430008120033",
    "linkReferences": {}
  },
  "methodIdentifiers": {
    "allowance(address,address)": "dd62ed3e",
    "allowances(address,address)": "55b6ed5c",
    "approve(address,uint256)": "095ea7b3",
    "balanceOf(address)": "70a08231",
    "brrr()": "96a67d25",
    "brrrManager()": "e76ab00f",
    "decimals()": "313ce567",
    "name()": "06fdde03",
    "stakedBrrrTracker()": "ebb071be",
    "symbol()": "95d89b41",
    "totalSupply()": "18160ddd",
    "transfer(address,uint256)": "a9059cbb",
    "transferFrom(address,address,uint256)": "23b872dd"
  },
  "id": 94
}