{
  "abi": [
    {
      "inputs": [
        {
          "internalType": "address",
          "name": "_rewardToken",
          "type": "address"
        },
        {
          "internalType": "address",
          "name": "_rewardTracker",
          "type": "address"
        }
      ],
      "stateMutability": "nonpayable",
      "type": "constructor"
    },
    {
      "inputs": [
        {
          "internalType": "address",
          "name": "target",
          "type": "address"
        }
      ],
      "name": "AddressEmptyCode",
      "type": "error"
    },
    {
      "inputs": [
        {
          "internalType": "address",
          "name": "account",
          "type": "address"
        }
      ],
      "name": "AddressInsufficientBalance",
      "type": "error"
    },
    {
      "inputs": [],
      "name": "FailedInnerCall",
      "type": "error"
    },
    {
      "inputs": [],
      "name": "ReentrancyGuardReentrantCall",
      "type": "error"
    },
    {
      "inputs": [
        {
          "internalType": "address",
          "name": "token",
          "type": "address"
        }
      ],
      "name": "SafeERC20FailedOperation",
      "type": "error"
    },
    {
      "anonymous": false,
      "inputs": [
        {
          "indexed": false,
          "internalType": "uint256",
          "name": "amount",
          "type": "uint256"
        }
      ],
      "name": "Distribute",
      "type": "event"
    },
    {
      "anonymous": false,
      "inputs": [
        {
          "indexed": false,
          "internalType": "uint256",
          "name": "amount",
          "type": "uint256"
        }
      ],
      "name": "TokensPerIntervalChange",
      "type": "event"
    },
    {
      "inputs": [],
      "name": "admin",
      "outputs": [
        {
          "internalType": "address",
          "name": "",
          "type": "address"
        }
      ],
      "stateMutability": "view",
      "type": "function"
    },
    {
      "inputs": [],
      "name": "distribute",
      "outputs": [
        {
          "internalType": "uint256",
          "name": "",
          "type": "uint256"
        }
      ],
      "stateMutability": "nonpayable",
      "type": "function"
    },
    {
      "inputs": [],
      "name": "gov",
      "outputs": [
        {
          "internalType": "address",
          "name": "",
          "type": "address"
        }
      ],
      "stateMutability": "view",
      "type": "function"
    },
    {
      "inputs": [],
      "name": "lastDistributionTime",
      "outputs": [
        {
          "internalType": "uint256",
          "name": "",
          "type": "uint256"
        }
      ],
      "stateMutability": "view",
      "type": "function"
    },
    {
      "inputs": [],
      "name": "pendingRewards",
      "outputs": [
        {
          "internalType": "uint256",
          "name": "",
          "type": "uint256"
        }
      ],
      "stateMutability": "view",
      "type": "function"
    },
    {
      "inputs": [],
      "name": "rewardToken",
      "outputs": [
        {
          "internalType": "address",
          "name": "",
          "type": "address"
        }
      ],
      "stateMutability": "view",
      "type": "function"
    },
    {
      "inputs": [],
      "name": "rewardTracker",
      "outputs": [
        {
          "internalType": "address",
          "name": "",
          "type": "address"
        }
      ],
      "stateMutability": "view",
      "type": "function"
    },
    {
      "inputs": [
        {
          "internalType": "address",
          "name": "_admin",
          "type": "address"
        }
      ],
      "name": "setAdmin",
      "outputs": [],
      "stateMutability": "nonpayable",
      "type": "function"
    },
    {
      "inputs": [
        {
          "internalType": "address",
          "name": "_gov",
          "type": "address"
        }
      ],
      "name": "setGov",
      "outputs": [],
      "stateMutability": "nonpayable",
      "type": "function"
    },
    {
      "inputs": [
        {
          "internalType": "uint256",
          "name": "_amount",
          "type": "uint256"
        }
      ],
      "name": "setTokensPerInterval",
      "outputs": [],
      "stateMutability": "nonpayable",
      "type": "function"
    },
    {
      "inputs": [],
      "name": "tokensPerInterval",
      "outputs": [
        {
          "internalType": "uint256",
          "name": "",
          "type": "uint256"
        }
      ],
      "stateMutability": "view",
      "type": "function"
    },
    {
      "inputs": [],
      "name": "updateLastDistributionTime",
      "outputs": [],
      "stateMutability": "nonpayable",
      "type": "function"
    },
    {
      "inputs": [
        {
          "internalType": "address",
          "name": "_token",
          "type": "address"
        },
        {
          "internalType": "address",
          "name": "_account",
          "type": "address"
        },
        {
          "internalType": "uint256",
          "name": "_amount",
          "type": "uint256"
        }
      ],
      "name": "withdrawToken",
      "outputs": [],
      "stateMutability": "nonpayable",
      "type": "function"
    }
  ],
  "bytecode": {
    "object": "0x608060405234801561001057600080fd5b50604051610ac6380380610ac683398101604081905261002f9161009c565b600160008190558054336001600160a01b031991821681179092556002805482166001600160a01b0395861617905560058054821693909416929092179092556006805490911690911790556100cf565b80516001600160a01b038116811461009757600080fd5b919050565b600080604083850312156100af57600080fd5b6100b883610080565b91506100c660208401610080565b90509250929050565b6109e8806100de6000396000f3fe608060405234801561001057600080fd5b50600436106100cf5760003560e01c806375b173501161008c578063e4fc6b6d11610066578063e4fc6b6d1461018d578063eded3fda14610195578063f7c618c11461019d578063f851a440146101b057600080fd5b806375b173501461015a578063a8d9362714610171578063cfad57a21461017a57600080fd5b806301e33667146100d457806312d43a51146100e957806318e20a03146101195780633ae6d6eb1461012c5780636bcb411a14610134578063704b6c0214610147575b600080fd5b6100e76100e2366004610862565b6101c3565b005b6001546100fc906001600160a01b031681565b6040516001600160a01b0390911681526020015b60405180910390f35b6100e761012736600461089e565b61020f565b6100e7610376565b6005546100fc906001600160a01b031681565b6100e76101553660046108b7565b6103d6565b61016360045481565b604051908152602001610110565b61016360035481565b6100e76101883660046108b7565b610422565b6101636104c4565b610163610620565b6002546100fc906001600160a01b031681565b6006546100fc906001600160a01b031681565b6001546001600160a01b031633146101f65760405162461bcd60e51b81526004016101ed906108d2565b60405180910390fd5b61020a6001600160a01b0384168383610657565b505050565b6006546001600160a01b031633146102695760405162461bcd60e51b815260206004820152601c60248201527f5265776172644469737472696275746f723a20666f7262696464656e0000000060448201526064016101ed565b6004546000036102d35760405162461bcd60e51b815260206004820152602f60248201527f5265776172644469737472696275746f723a20696e76616c6964206c6173744460448201526e6973747269627574696f6e54696d6560881b60648201526084016101ed565b600560009054906101000a90046001600160a01b03166001600160a01b0316633e158b0c6040518163ffffffff1660e01b8152600401600060405180830381600087803b15801561032357600080fd5b505af1158015610337573d6000803e3d6000fd5b5050506003829055506040518181527f98dc76c39aa5a5dcb749f8750a65db3dfa1e14bcc1591a9c16a7420e5da748f89060200160405180910390a150565b6006546001600160a01b031633146103d05760405162461bcd60e51b815260206004820152601c60248201527f5265776172644469737472696275746f723a20666f7262696464656e0000000060448201526064016101ed565b42600455565b6001546001600160a01b031633146104005760405162461bcd60e51b81526004016101ed906108d2565b600680546001600160a01b0319166001600160a01b0392909216919091179055565b6001546001600160a01b0316331461044c5760405162461bcd60e51b81526004016101ed906108d2565b6001600160a01b0381166104a25760405162461bcd60e51b815260206004820181905260248201527f476f7665726e61626c653a205f676f76206973207a65726f206164647265737360448201526064016101ed565b600180546001600160a01b0319166001600160a01b0392909216919091179055565b6005546000906001600160a01b0316331461052f5760405162461bcd60e51b815260206004820152602560248201527f5265776172644469737472696275746f723a20696e76616c6964206d73672e7360448201526432b73232b960d91b60648201526084016101ed565b6000610539610620565b90508060000361054b57600091505090565b4260049081556002546040516370a0823160e01b815230928101929092526000916001600160a01b03909116906370a0823190602401602060405180830381865afa15801561059e573d6000803e3d6000fd5b505050506040513d601f19601f820116820180604052508101906105c29190610901565b9050808211156105d0578091505b6002546105e7906001600160a01b03163384610657565b6040518281527f4def474aca53bf221d07d9ab0f675b3f6d8d2494b8427271bcf43c018ef1eead9060200160405180910390a150919050565b600060045442036106315750600090565b6000600454426106419190610930565b9050806003546106519190610943565b91505090565b604080516001600160a01b03848116602483015260448083018590528351808403909101815260649092019092526020810180516001600160e01b031663a9059cbb60e01b17905261020a918591906000906106b590841683610703565b905080516000141580156106da5750808060200190518101906106d8919061095a565b155b1561020a57604051635274afe760e01b81526001600160a01b03841660048201526024016101ed565b60606107148383600061071d610736565b90505b92915050565b604051630a12f52160e11b815260040160405180910390fd5b60608247101561075b5760405163cd78605960e01b81523060048201526024016101ed565b600080866001600160a01b031685876040516107779190610983565b60006040518083038185875af1925050503d80600081146107b4576040519150601f19603f3d011682016040523d82523d6000602084013e6107b9565b606091505b50915091506107ca878383876107d7565b925050505b949350505050565b6060831561082557825160000361081e57846001600160a01b03163b60000361081e57604051639996b31560e01b81526001600160a01b03861660048201526024016101ed565b50816107cf565b6107cf838381511561083a5781518083602001fd5b61071d8163ffffffff16565b80356001600160a01b038116811461085d57600080fd5b919050565b60008060006060848603121561087757600080fd5b61088084610846565b925061088e60208501610846565b9150604084013590509250925092565b6000602082840312156108b057600080fd5b5035919050565b6000602082840312156108c957600080fd5b61071482610846565b60208082526015908201527423b7bb32b93730b136329d103337b93134b23232b760591b604082015260600190565b60006020828403121561091357600080fd5b5051919050565b634e487b7160e01b600052601160045260246000fd5b818103818111156107175761071761091a565b80820281158282048414176107175761071761091a565b60006020828403121561096c57600080fd5b8151801515811461097c57600080fd5b9392505050565b6000825160005b818110156109a4576020818601810151858301520161098a565b50600092019182525091905056fea26469706673582212208e0a5b3e7dcb5f822fe5fa9088ac95ace779feec50d966e692c66f142fe479b664736f6c63430008120033",
    "linkReferences": {}
  },
  "methodIdentifiers": {
    "admin()": "f851a440",
    "distribute()": "e4fc6b6d",
    "gov()": "12d43a51",
    "lastDistributionTime()": "75b17350",
    "pendingRewards()": "eded3fda",
    "rewardToken()": "f7c618c1",
    "rewardTracker()": "6bcb411a",
    "setAdmin(address)": "704b6c02",
    "setGov(address)": "cfad57a2",
    "setTokensPerInterval(uint256)": "18e20a03",
    "tokensPerInterval()": "a8d93627",
    "updateLastDistributionTime()": "3ae6d6eb",
    "withdrawToken(address,address,uint256)": "01e33667"
  },
  "id": 82
}