{"abi":[{"type":"function","name":"emitPriceEvent","inputs":[{"name":"_token","type":"address","internalType":"address"},{"name":"_price","type":"uint256","internalType":"uint256"}],"outputs":[],"stateMutability":"nonpayable"},{"type":"function","name":"gov","inputs":[],"outputs":[{"name":"","type":"address","internalType":"address"}],"stateMutability":"view"},{"type":"function","name":"isPriceFeed","inputs":[{"name":"","type":"address","internalType":"address"}],"outputs":[{"name":"","type":"bool","internalType":"bool"}],"stateMutability":"view"},{"type":"function","name":"setGov","inputs":[{"name":"_gov","type":"address","internalType":"address"}],"outputs":[],"stateMutability":"nonpayable"},{"type":"function","name":"setIsPriceFeed","inputs":[{"name":"_priceFeed","type":"address","internalType":"address"},{"name":"_isPriceFeed","type":"bool","internalType":"bool"}],"outputs":[],"stateMutability":"nonpayable"},{"type":"event","name":"PriceUpdate","inputs":[{"name":"token","type":"address","indexed":false,"internalType":"address"},{"name":"price","type":"uint256","indexed":false,"internalType":"uint256"},{"name":"priceFeed","type":"address","indexed":false,"internalType":"address"}],"anonymous":false}],"bytecode":{"object":"0x608060405234801561001057600080fd5b50600080546001600160a01b031916331790556103cb806100326000396000f3fe608060405234801561001057600080fd5b50600436106100575760003560e01c806312d43a511461005c57806357a94beb1461008c57806369d4c924146100bf578063cfad57a2146100d4578063e0409c71146100e7575b600080fd5b60005461006f906001600160a01b031681565b6040516001600160a01b0390911681526020015b60405180910390f35b6100af61009a36600461030d565b60016020526000908152604090205460ff1681565b6040519015158152602001610083565b6100d26100cd36600461032f565b6100fa565b005b6100d26100e236600461030d565b61017c565b6100d26100f536600461036b565b610246565b6000546001600160a01b031633146101515760405162461bcd60e51b815260206004820152601560248201527423b7bb32b93730b136329d103337b93134b23232b760591b60448201526064015b60405180910390fd5b6001600160a01b03919091166000908152600160205260409020805460ff1916911515919091179055565b6000546001600160a01b031633146101ce5760405162461bcd60e51b815260206004820152601560248201527423b7bb32b93730b136329d103337b93134b23232b760591b6044820152606401610148565b6001600160a01b0381166102245760405162461bcd60e51b815260206004820181905260248201527f476f7665726e61626c653a205f676f76206973207a65726f20616464726573736044820152606401610148565b600080546001600160a01b0319166001600160a01b0392909216919091179055565b3360009081526001602052604090205460ff166102a55760405162461bcd60e51b815260206004820152601f60248201527f4661737450726963654576656e74733a20696e76616c69642073656e646572006044820152606401610148565b604080516001600160a01b038416815260208101839052338183015290517fc37a77b91cc3fc2d0e4b43fd2f347ec67adda10e39215de4742836cc3e42c97a9181900360600190a15050565b80356001600160a01b038116811461030857600080fd5b919050565b60006020828403121561031f57600080fd5b610328826102f1565b9392505050565b6000806040838503121561034257600080fd5b61034b836102f1565b91506020830135801515811461036057600080fd5b809150509250929050565b6000806040838503121561037e57600080fd5b610387836102f1565b94602093909301359350505056fea2646970667358221220ea7375f0e961116a7e3408db51903c5c3a2502fb795ada27543b240a1113e2a264736f6c63430008120033","linkReferences":{}},"methodIdentifiers":{"emitPriceEvent(address,uint256)":"e0409c71","gov()":"12d43a51","isPriceFeed(address)":"57a94beb","setGov(address)":"cfad57a2","setIsPriceFeed(address,bool)":"69d4c924"},"id":89}