{"abi":[{"type":"constructor","inputs":[],"stateMutability":"nonpayable"},{"type":"function","name":"gov","inputs":[],"outputs":[{"name":"","type":"address","internalType":"address"}],"stateMutability":"view"},{"type":"function","name":"isHandler","inputs":[{"name":"","type":"address","internalType":"address"}],"outputs":[{"name":"","type":"bool","internalType":"bool"}],"stateMutability":"view"},{"type":"function","name":"send","inputs":[{"name":"_token","type":"address","internalType":"contract IERC20"},{"name":"_accounts","type":"address[]","internalType":"address[]"},{"name":"_amounts","type":"uint256[]","internalType":"uint256[]"}],"outputs":[],"stateMutability":"nonpayable"},{"type":"function","name":"sendAndEmit","inputs":[{"name":"_token","type":"address","internalType":"contract IERC20"},{"name":"_accounts","type":"address[]","internalType":"address[]"},{"name":"_amounts","type":"uint256[]","internalType":"uint256[]"},{"name":"_typeId","type":"uint256","internalType":"uint256"}],"outputs":[],"stateMutability":"nonpayable"},{"type":"function","name":"setGov","inputs":[{"name":"_gov","type":"address","internalType":"address"}],"outputs":[],"stateMutability":"nonpayable"},{"type":"function","name":"setHandler","inputs":[{"name":"_handler","type":"address","internalType":"address"},{"name":"_isActive","type":"bool","internalType":"bool"}],"outputs":[],"stateMutability":"nonpayable"},{"type":"event","name":"BatchSend","inputs":[{"name":"typeId","type":"uint256","indexed":true,"internalType":"uint256"},{"name":"token","type":"address","indexed":true,"internalType":"address"},{"name":"accounts","type":"address[]","indexed":false,"internalType":"address[]"},{"name":"amounts","type":"uint256[]","indexed":false,"internalType":"uint256[]"}],"anonymous":false}],"bytecode":{"object":"0x608060405234801561001057600080fd5b50600080546001600160a01b0319163390811782558152600160208190526040909120805460ff191690911790556108248061004d6000396000f3fe608060405234801561001057600080fd5b50600436106100625760003560e01c806312d43a511461006757806346ea87af14610097578063745ae40b146100ca5780639cb7de4b146100df578063cfad57a2146100f2578063f8129cd214610105575b600080fd5b60005461007a906001600160a01b031681565b6040516001600160a01b0390911681526020015b60405180910390f35b6100ba6100a5366004610477565b60016020526000908152604090205460ff1681565b604051901515815260200161008e565b6100dd6100d83660046105d5565b610118565b005b6100dd6100ed366004610661565b610187565b6100dd610100366004610477565b610204565b6100dd61011336600461069a565b6102ce565b3360009081526001602052604090205460ff166101755760405162461bcd60e51b81526020600482015260166024820152752130ba31b429b2b73232b91d103337b93134b23232b760511b60448201526064015b60405180910390fd5b61018184848484610338565b50505050565b6000546001600160a01b031633146101d95760405162461bcd60e51b815260206004820152601560248201527423b7bb32b93730b136329d103337b93134b23232b760591b604482015260640161016c565b6001600160a01b03919091166000908152600160205260409020805460ff1916911515919091179055565b6000546001600160a01b031633146102565760405162461bcd60e51b815260206004820152601560248201527423b7bb32b93730b136329d103337b93134b23232b760591b604482015260640161016c565b6001600160a01b0381166102ac5760405162461bcd60e51b815260206004820181905260248201527f476f7665726e61626c653a205f676f76206973207a65726f2061646472657373604482015260640161016c565b600080546001600160a01b0319166001600160a01b0392909216919091179055565b3360009081526001602052604090205460ff166103265760405162461bcd60e51b81526020600482015260166024820152752130ba31b429b2b73232b91d103337b93134b23232b760511b604482015260640161016c565b6103338383836000610338565b505050565b60005b835181101561041457600084828151811061035857610358610710565b60200260200101519050600084838151811061037657610376610710565b60209081029190910101516040516323b872dd60e01b81523360048201526001600160a01b03848116602483015260448201839052919250908816906323b872dd906064016020604051808303816000875af11580156103da573d6000803e3d6000fd5b505050506040513d601f19601f820116820180604052508101906103fe9190610726565b505050808061040c90610743565b91505061033b565b50836001600160a01b0316817fa1552778fd4edc5098fd82f614c100bf0f42c781e7926907643e2894679da0f3858560405161045192919061076a565b60405180910390a350505050565b6001600160a01b038116811461047457600080fd5b50565b60006020828403121561048957600080fd5b81356104948161045f565b9392505050565b634e487b7160e01b600052604160045260246000fd5b604051601f8201601f1916810167ffffffffffffffff811182821017156104da576104da61049b565b604052919050565b600067ffffffffffffffff8211156104fc576104fc61049b565b5060051b60200190565b600082601f83011261051757600080fd5b8135602061052c610527836104e2565b6104b1565b82815260059290921b8401810191818101908684111561054b57600080fd5b8286015b8481101561056f5780356105628161045f565b835291830191830161054f565b509695505050505050565b600082601f83011261058b57600080fd5b8135602061059b610527836104e2565b82815260059290921b840181019181810190868411156105ba57600080fd5b8286015b8481101561056f57803583529183019183016105be565b600080600080608085870312156105eb57600080fd5b84356105f68161045f565b9350602085013567ffffffffffffffff8082111561061357600080fd5b61061f88838901610506565b9450604087013591508082111561063557600080fd5b506106428782880161057a565b949793965093946060013593505050565b801515811461047457600080fd5b6000806040838503121561067457600080fd5b823561067f8161045f565b9150602083013561068f81610653565b809150509250929050565b6000806000606084860312156106af57600080fd5b83356106ba8161045f565b9250602084013567ffffffffffffffff808211156106d757600080fd5b6106e387838801610506565b935060408601359150808211156106f957600080fd5b506107068682870161057a565b9150509250925092565b634e487b7160e01b600052603260045260246000fd5b60006020828403121561073857600080fd5b815161049481610653565b60006001820161076357634e487b7160e01b600052601160045260246000fd5b5060010190565b604080825283519082018190526000906020906060840190828701845b828110156107ac5781516001600160a01b031684529284019290840190600101610787565b5050508381038285015284518082528583019183019060005b818110156107e1578351835292840192918401916001016107c5565b509097965050505050505056fea2646970667358221220ae7f7ecb959f363b547fd1abcea1642bbef0fad8590cbec6e17e7431a45c445564736f6c63430008120033","linkReferences":{}},"methodIdentifiers":{"gov()":"12d43a51","isHandler(address)":"46ea87af","send(address,address[],uint256[])":"f8129cd2","sendAndEmit(address,address[],uint256[],uint256)":"745ae40b","setGov(address)":"cfad57a2","setHandler(address,bool)":"9cb7de4b"},"id":97}