{
  "abi": [
    {
      "inputs": [
        {
          "internalType": "address",
          "name": "_glp",
          "type": "address"
        },
        {
          "internalType": "contract IGlpManager",
          "name": "_glpManager",
          "type": "address"
        },
        {
          "internalType": "address",
          "name": "_stakedGlpTracker",
          "type": "address"
        }
      ],
      "stateMutability": "nonpayable",
      "type": "constructor"
    },
    {
      "anonymous": false,
      "inputs": [
        {
          "indexed": true,
          "internalType": "address",
          "name": "owner",
          "type": "address"
        },
        {
          "indexed": true,
          "internalType": "address",
          "name": "spender",
          "type": "address"
        },
        {
          "indexed": false,
          "internalType": "uint256",
          "name": "value",
          "type": "uint256"
        }
      ],
      "name": "Approval",
      "type": "event"
    },
    {
      "inputs": [
        {
          "internalType": "address",
          "name": "_owner",
          "type": "address"
        },
        {
          "internalType": "address",
          "name": "_spender",
          "type": "address"
        }
      ],
      "name": "allowance",
      "outputs": [
        {
          "internalType": "uint256",
          "name": "",
          "type": "uint256"
        }
      ],
      "stateMutability": "view",
      "type": "function"
    },
    {
      "inputs": [
        {
          "internalType": "address",
          "name": "",
          "type": "address"
        },
        {
          "internalType": "address",
          "name": "",
          "type": "address"
        }
      ],
      "name": "allowances",
      "outputs": [
        {
          "internalType": "uint256",
          "name": "",
          "type": "uint256"
        }
      ],
      "stateMutability": "view",
      "type": "function"
    },
    {
      "inputs": [
        {
          "internalType": "address",
          "name": "_spender",
          "type": "address"
        },
        {
          "internalType": "uint256",
          "name": "_amount",
          "type": "uint256"
        }
      ],
      "name": "approve",
      "outputs": [
        {
          "internalType": "bool",
          "name": "",
          "type": "bool"
        }
      ],
      "stateMutability": "nonpayable",
      "type": "function"
    },
    {
      "inputs": [
        {
          "internalType": "address",
          "name": "_account",
          "type": "address"
        }
      ],
      "name": "balanceOf",
      "outputs": [
        {
          "internalType": "uint256",
          "name": "",
          "type": "uint256"
        }
      ],
      "stateMutability": "view",
      "type": "function"
    },
    {
      "inputs": [],
      "name": "decimals",
      "outputs": [
        {
          "internalType": "uint8",
          "name": "",
          "type": "uint8"
        }
      ],
      "stateMutability": "view",
      "type": "function"
    },
    {
      "inputs": [],
      "name": "glp",
      "outputs": [
        {
          "internalType": "address",
          "name": "",
          "type": "address"
        }
      ],
      "stateMutability": "view",
      "type": "function"
    },
    {
      "inputs": [],
      "name": "glpManager",
      "outputs": [
        {
          "internalType": "contract IGlpManager",
          "name": "",
          "type": "address"
        }
      ],
      "stateMutability": "view",
      "type": "function"
    },
    {
      "inputs": [],
      "name": "name",
      "outputs": [
        {
          "internalType": "string",
          "name": "",
          "type": "string"
        }
      ],
      "stateMutability": "view",
      "type": "function"
    },
    {
      "inputs": [],
      "name": "stakedGlpTracker",
      "outputs": [
        {
          "internalType": "address",
          "name": "",
          "type": "address"
        }
      ],
      "stateMutability": "view",
      "type": "function"
    },
    {
      "inputs": [],
      "name": "symbol",
      "outputs": [
        {
          "internalType": "string",
          "name": "",
          "type": "string"
        }
      ],
      "stateMutability": "view",
      "type": "function"
    },
    {
      "inputs": [],
      "name": "totalSupply",
      "outputs": [
        {
          "internalType": "uint256",
          "name": "",
          "type": "uint256"
        }
      ],
      "stateMutability": "view",
      "type": "function"
    },
    {
      "inputs": [
        {
          "internalType": "address",
          "name": "_recipient",
          "type": "address"
        },
        {
          "internalType": "uint256",
          "name": "_amount",
          "type": "uint256"
        }
      ],
      "name": "transfer",
      "outputs": [
        {
          "internalType": "bool",
          "name": "",
          "type": "bool"
        }
      ],
      "stateMutability": "nonpayable",
      "type": "function"
    },
    {
      "inputs": [
        {
          "internalType": "address",
          "name": "_sender",
          "type": "address"
        },
        {
          "internalType": "address",
          "name": "_recipient",
          "type": "address"
        },
        {
          "internalType": "uint256",
          "name": "_amount",
          "type": "uint256"
        }
      ],
      "name": "transferFrom",
      "outputs": [
        {
          "internalType": "bool",
          "name": "",
          "type": "bool"
        }
      ],
      "stateMutability": "nonpayable",
      "type": "function"
    }
  ],
  "bytecode": {
    "object": "0x608060405234801561001057600080fd5b50604051610ae3380380610ae383398101604081905261002f91610089565b600080546001600160a01b039485166001600160a01b0319918216179091556001805493851693821693909317909255600280549190931691161790556100d6565b6001600160a01b038116811461008657600080fd5b50565b60008060006060848603121561009e57600080fd5b83516100a981610071565b60208501519093506100ba81610071565b60408501519092506100cb81610071565b809150509250925092565b6109fe806100e56000396000f3fe608060405234801561001057600080fd5b50600436106100cf5760003560e01c806370a082311161008c578063a9059cbb11610066578063a9059cbb1461020d578063af394d0014610220578063dd62ed3e14610233578063fa6db1bc1461026c57600080fd5b806370a08231146101ab57806378a207ee146101be57806395d89b41146101e957600080fd5b806306fdde03146100d4578063095ea7b31461011a57806318160ddd1461013d57806323b872dd14610153578063313ce5671461016657806355b6ed5c14610180575b600080fd5b6101046040518060400160405280601181526020017005472616e736665725374616b6564476c7607c1b81525081565b604051610111919061084e565b60405180910390f35b61012d6101283660046108b8565b61027f565b6040519015158152602001610111565b610145610296565b604051908152602001610111565b61012d6101613660046108e2565b610309565b61016e601281565b60405160ff9091168152602001610111565b61014561018e36600461091e565b600360209081526000928352604080842090915290825290205481565b6101456101b9366004610951565b61035d565b6000546101d1906001600160a01b031681565b6040516001600160a01b039091168152602001610111565b6101046040518060400160405280600581526020016407473474c560dc1b81525081565b61012d61021b3660046108b8565b6103d7565b6002546101d1906001600160a01b031681565b61014561024136600461091e565b6001600160a01b03918216600090815260036020908152604080832093909416825291909152205490565b6001546101d1906001600160a01b031681565b600061028c3384846103e4565b5060015b92915050565b600254604080516318160ddd60e01b815290516000926001600160a01b0316916318160ddd9160048083019260209291908290030181865afa1580156102e0573d6000803e3d6000fd5b505050506040513d601f19601f820116820180604052508101906103049190610973565b905090565b6001600160a01b0383166000908152600360209081526040808320338452909152812054819061033a9084906109a2565b90506103478533836103e4565b610352858585610526565b506001949350505050565b60025460008054604051637aeceb1f60e11b81526001600160a01b03858116600483015291821660248201529192169063f5d9d63e90604401602060405180830381865afa1580156103b3573d6000803e3d6000fd5b505050506040513d601f19601f820116820180604052508101906102909190610973565b600061028c338484610526565b6001600160a01b0383166104585760405162461bcd60e51b815260206004820152603060248201527f5472616e736665725374616b6564476c703a20617070726f76652066726f6d2060448201526f746865207a65726f206164647265737360801b60648201526084015b60405180910390fd5b6001600160a01b0382166104c55760405162461bcd60e51b815260206004820152602e60248201527f5472616e736665725374616b6564476c703a20617070726f766520746f20746860448201526d65207a65726f206164647265737360901b606482015260840161044f565b6001600160a01b0383811660008181526003602090815260408083209487168084529482529182902085905590518481527f8c5be1e5ebec7d5bd14f71427d1e84f3dd0314c0f7b2291e5b200ac8c7c3b925910160405180910390a3505050565b6001600160a01b0383166105965760405162461bcd60e51b815260206004820152603160248201527f5472616e736665725374616b6564476c703a207472616e736665722066726f6d60448201527020746865207a65726f206164647265737360781b606482015260840161044f565b6001600160a01b0382166106045760405162461bcd60e51b815260206004820152602f60248201527f5472616e736665725374616b6564476c703a207472616e7366657220746f207460448201526e6865207a65726f206164647265737360881b606482015260840161044f565b60015460408051633526931560e01b8152905142926001600160a01b031691633526931591600480830192602092919082900301816000875af115801561064f573d6000803e3d6000fd5b505050506040513d601f19601f820116820180604052508101906106739190610973565b600154604051638b770e1160e01b81526001600160a01b03878116600483015290911690638b770e11906024016020604051808303816000875af11580156106bf573d6000803e3d6000fd5b505050506040513d601f19601f820116820180604052508101906106e39190610973565b6106ed91906109b5565b11156107575760405162461bcd60e51b815260206004820152603360248201527f5472616e736665725374616b6564476c703a20636f6f6c646f776e20647572616044820152721d1a5bdb881b9bdd081e595d081c185cdcd959606a1b606482015260840161044f565b60025460005460405163098bf59d60e01b81526001600160a01b0386811660048301819052928116602483015260448201859052606482019290925291169063098bf59d90608401600060405180830381600087803b1580156107b957600080fd5b505af11580156107cd573d6000803e3d6000fd5b5050600254600054604051631e42d69b60e21b81526001600160a01b03888116600483015287811660248301529182166044820152606481018690529116925063790b5a6c9150608401600060405180830381600087803b15801561083157600080fd5b505af1158015610845573d6000803e3d6000fd5b50505050505050565b600060208083528351808285015260005b8181101561087b5785810183015185820160400152820161085f565b506000604082860101526040601f19601f8301168501019250505092915050565b80356001600160a01b03811681146108b357600080fd5b919050565b600080604083850312156108cb57600080fd5b6108d48361089c565b946020939093013593505050565b6000806000606084860312156108f757600080fd5b6109008461089c565b925061090e6020850161089c565b9150604084013590509250925092565b6000806040838503121561093157600080fd5b61093a8361089c565b91506109486020840161089c565b90509250929050565b60006020828403121561096357600080fd5b61096c8261089c565b9392505050565b60006020828403121561098557600080fd5b5051919050565b634e487b7160e01b600052601160045260246000fd5b818103818111156102905761029061098c565b808201808211156102905761029061098c56fea2646970667358221220b0de8b5ad5707f6cfd8f1e012d72becc543c35fb5f2535dfdcbfa744b8a8ecd464736f6c63430008120033",
    "linkReferences": {}
  },
  "methodIdentifiers": {
    "allowance(address,address)": "dd62ed3e",
    "allowances(address,address)": "55b6ed5c",
    "approve(address,uint256)": "095ea7b3",
    "balanceOf(address)": "70a08231",
    "decimals()": "313ce567",
    "glp()": "78a207ee",
    "glpManager()": "fa6db1bc",
    "name()": "06fdde03",
    "stakedGlpTracker()": "af394d00",
    "symbol()": "95d89b41",
    "totalSupply()": "18160ddd",
    "transfer(address,uint256)": "a9059cbb",
    "transferFrom(address,address,uint256)": "23b872dd"
  },
  "id": 111
}