{"abi":[{"type":"constructor","inputs":[{"name":"_vault","type":"address","internalType":"address"},{"name":"_router","type":"address","internalType":"address"},{"name":"_shortsTracker","type":"address","internalType":"address"},{"name":"_weth","type":"address","internalType":"address"},{"name":"_depositFee","type":"uint256","internalType":"uint256"}],"stateMutability":"nonpayable"},{"type":"receive","stateMutability":"payable"},{"type":"function","name":"BASIS_POINTS_DIVISOR","inputs":[],"outputs":[{"name":"","type":"uint256","internalType":"uint256"}],"stateMutability":"view"},{"type":"function","name":"admin","inputs":[],"outputs":[{"name":"","type":"address","internalType":"address"}],"stateMutability":"view"},{"type":"function","name":"approve","inputs":[{"name":"_token","type":"address","internalType":"address"},{"name":"_spender","type":"address","internalType":"address"},{"name":"_amount","type":"uint256","internalType":"uint256"}],"outputs":[],"stateMutability":"nonpayable"},{"type":"function","name":"depositFee","inputs":[],"outputs":[{"name":"","type":"uint256","internalType":"uint256"}],"stateMutability":"view"},{"type":"function","name":"ethTransferGasLimit","inputs":[],"outputs":[{"name":"","type":"uint256","internalType":"uint256"}],"stateMutability":"view"},{"type":"function","name":"feeReserves","inputs":[{"name":"","type":"address","internalType":"address"}],"outputs":[{"name":"","type":"uint256","internalType":"uint256"}],"stateMutability":"view"},{"type":"function","name":"gov","inputs":[],"outputs":[{"name":"","type":"address","internalType":"address"}],"stateMutability":"view"},{"type":"function","name":"increasePositionBufferBps","inputs":[],"outputs":[{"name":"","type":"uint256","internalType":"uint256"}],"stateMutability":"view"},{"type":"function","name":"maxGlobalLongSizes","inputs":[{"name":"","type":"address","internalType":"address"}],"outputs":[{"name":"","type":"uint256","internalType":"uint256"}],"stateMutability":"view"},{"type":"function","name":"maxGlobalShortSizes","inputs":[{"name":"","type":"address","internalType":"address"}],"outputs":[{"name":"","type":"uint256","internalType":"uint256"}],"stateMutability":"view"},{"type":"function","name":"referralStorage","inputs":[],"outputs":[{"name":"","type":"address","internalType":"address"}],"stateMutability":"view"},{"type":"function","name":"router","inputs":[],"outputs":[{"name":"","type":"address","internalType":"address"}],"stateMutability":"view"},{"type":"function","name":"sendValue","inputs":[{"name":"_receiver","type":"address","internalType":"address payable"},{"name":"_amount","type":"uint256","internalType":"uint256"}],"outputs":[],"stateMutability":"nonpayable"},{"type":"function","name":"setAdmin","inputs":[{"name":"_admin","type":"address","internalType":"address"}],"outputs":[],"stateMutability":"nonpayable"},{"type":"function","name":"setDepositFee","inputs":[{"name":"_depositFee","type":"uint256","internalType":"uint256"}],"outputs":[],"stateMutability":"nonpayable"},{"type":"function","name":"setEthTransferGasLimit","inputs":[{"name":"_ethTransferGasLimit","type":"uint256","internalType":"uint256"}],"outputs":[],"stateMutability":"nonpayable"},{"type":"function","name":"setGov","inputs":[{"name":"_gov","type":"address","internalType":"address"}],"outputs":[],"stateMutability":"nonpayable"},{"type":"function","name":"setIncreasePositionBufferBps","inputs":[{"name":"_increasePositionBufferBps","type":"uint256","internalType":"uint256"}],"outputs":[],"stateMutability":"nonpayable"},{"type":"function","name":"setMaxGlobalSizes","inputs":[{"name":"_tokens","type":"address[]","internalType":"address[]"},{"name":"_longSizes","type":"uint256[]","internalType":"uint256[]"},{"name":"_shortSizes","type":"uint256[]","internalType":"uint256[]"}],"outputs":[],"stateMutability":"nonpayable"},{"type":"function","name":"setReferralStorage","inputs":[{"name":"_referralStorage","type":"address","internalType":"address"}],"outputs":[],"stateMutability":"nonpayable"},{"type":"function","name":"shortsTracker","inputs":[],"outputs":[{"name":"","type":"address","internalType":"address"}],"stateMutability":"view"},{"type":"function","name":"vault","inputs":[],"outputs":[{"name":"","type":"address","internalType":"address"}],"stateMutability":"view"},{"type":"function","name":"weth","inputs":[],"outputs":[{"name":"","type":"address","internalType":"address"}],"stateMutability":"view"},{"type":"function","name":"withdrawFees","inputs":[{"name":"_token","type":"address","internalType":"address"},{"name":"_receiver","type":"address","internalType":"address"}],"outputs":[],"stateMutability":"nonpayable"},{"type":"event","name":"DecreasePositionReferral","inputs":[{"name":"account","type":"address","indexed":false,"internalType":"address"},{"name":"sizeDelta","type":"uint256","indexed":false,"internalType":"uint256"},{"name":"marginFeeBasisPoints","type":"uint256","indexed":false,"internalType":"uint256"},{"name":"referralCode","type":"bytes32","indexed":false,"internalType":"bytes32"},{"name":"referrer","type":"address","indexed":false,"internalType":"address"}],"anonymous":false},{"type":"event","name":"IncreasePositionReferral","inputs":[{"name":"account","type":"address","indexed":false,"internalType":"address"},{"name":"sizeDelta","type":"uint256","indexed":false,"internalType":"uint256"},{"name":"marginFeeBasisPoints","type":"uint256","indexed":false,"internalType":"uint256"},{"name":"referralCode","type":"bytes32","indexed":false,"internalType":"bytes32"},{"name":"referrer","type":"address","indexed":false,"internalType":"address"}],"anonymous":false},{"type":"event","name":"SetAdmin","inputs":[{"name":"admin","type":"address","indexed":false,"internalType":"address"}],"anonymous":false},{"type":"event","name":"SetDepositFee","inputs":[{"name":"depositFee","type":"uint256","indexed":false,"internalType":"uint256"}],"anonymous":false},{"type":"event","name":"SetEthTransferGasLimit","inputs":[{"name":"ethTransferGasLimit","type":"uint256","indexed":false,"internalType":"uint256"}],"anonymous":false},{"type":"event","name":"SetIncreasePositionBufferBps","inputs":[{"name":"increasePositionBufferBps","type":"uint256","indexed":false,"internalType":"uint256"}],"anonymous":false},{"type":"event","name":"SetMaxGlobalSizes","inputs":[{"name":"tokens","type":"address[]","indexed":false,"internalType":"address[]"},{"name":"longSizes","type":"uint256[]","indexed":false,"internalType":"uint256[]"},{"name":"shortSizes","type":"uint256[]","indexed":false,"internalType":"uint256[]"}],"anonymous":false},{"type":"event","name":"SetReferralStorage","inputs":[{"name":"referralStorage","type":"address","indexed":false,"internalType":"address"}],"anonymous":false},{"type":"event","name":"WithdrawFees","inputs":[{"name":"token","type":"address","indexed":false,"internalType":"address"},{"name":"receiver","type":"address","indexed":false,"internalType":"address"},{"name":"amount","type":"uint256","indexed":false,"internalType":"uint256"}],"anonymous":false},{"type":"error","name":"AddressEmptyCode","inputs":[{"name":"target","type":"address","internalType":"address"}]},{"type":"error","name":"AddressInsufficientBalance","inputs":[{"name":"account","type":"address","internalType":"address"}]},{"type":"error","name":"FailedInnerCall","inputs":[]},{"type":"error","name":"ReentrancyGuardReentrantCall","inputs":[]},{"type":"error","name":"SafeERC20FailedOperation","inputs":[{"name":"token","type":"address","internalType":"address"}]}],"bytecode":{"object":"0x60806040526207a12060075560646009553480156200001d57600080fd5b5060405162001294380380620012948339810160408190526200004091620000d2565b600160008190558054336001600160a01b031991821681179092556003805482166001600160a01b039889161790556005805482169688169690961790955560068054861693871693909317909255600855600480548416929094169190911790925560028054909116909117905562000139565b80516001600160a01b0381168114620000cd57600080fd5b919050565b600080600080600060a08688031215620000eb57600080fd5b620000f686620000b5565b94506200010660208701620000b5565b93506200011660408701620000b5565b92506200012660608701620000b5565b9150608086015190509295509295909350565b61114b80620001496000396000f3fe60806040526004361061014e5760003560e01c806367a52793116100b6578063e1f21c671161006f578063e1f21c6714610414578063ef12c67e14610434578063f255527814610454578063f851a44014610474578063f887ea4014610494578063fbfa77cf146104b457600080fd5b806367a527931461035b578063704b6c02146103715780639698d25a1461039157806398d1e03a146103be578063ae4d7f9a146103d4578063cfad57a2146103f457600080fd5b806324a084df1161010857806324a084df146102a55780632d79cf42146102c55780633a9b52ad146102db5780633fc8cef3146102fb578063490ae2101461031b578063657bc5d01461033b57600080fd5b80626cc35e146101aa5780631045c74e146101e7578063126082cf1461022257806312d43a51146102385780631ce9cb8f14610258578063233bfe3b1461028557600080fd5b366101a5576006546001600160a01b031633146101a35760405162461bcd60e51b815260206004820152600e60248201526d34b73b30b634b21039b2b73232b960911b60448201526064015b60405180910390fd5b005b600080fd5b3480156101b657600080fd5b50600a546101ca906001600160a01b031681565b6040516001600160a01b0390911681526020015b60405180910390f35b3480156101f357600080fd5b50610214610202366004610ced565b600c6020526000908152604090205481565b6040519081526020016101de565b34801561022e57600080fd5b5061021461271081565b34801561024457600080fd5b506001546101ca906001600160a01b031681565b34801561026457600080fd5b50610214610273366004610ced565b600b6020526000908152604090205481565b34801561029157600080fd5b506101a36102a0366004610d0a565b6104d4565b3480156102b157600080fd5b506101a36102c0366004610d23565b61053a565b3480156102d157600080fd5b5061021460075481565b3480156102e757600080fd5b506101a36102f6366004610d0a565b61057b565b34801561030757600080fd5b506006546101ca906001600160a01b031681565b34801561032757600080fd5b506101a3610336366004610d0a565b6105da565b34801561034757600080fd5b506004546101ca906001600160a01b031681565b34801561036757600080fd5b5061021460085481565b34801561037d57600080fd5b506101a361038c366004610ced565b610639565b34801561039d57600080fd5b506102146103ac366004610ced565b600d6020526000908152604090205481565b3480156103ca57600080fd5b5061021460095481565b3480156103e057600080fd5b506101a36103ef366004610ced565b6106b1565b34801561040057600080fd5b506101a361040f366004610ced565b610729565b34801561042057600080fd5b506101a361042f366004610d4f565b6107cb565b34801561044057600080fd5b506101a361044f366004610e66565b61086e565b34801561046057600080fd5b506101a361046f366004610f4c565b610990565b34801561048057600080fd5b506002546101ca906001600160a01b031681565b3480156104a057600080fd5b506005546101ca906001600160a01b031681565b3480156104c057600080fd5b506003546101ca906001600160a01b031681565b6002546001600160a01b031633146104fe5760405162461bcd60e51b815260040161019a90610f85565b60098190556040518181527f21167d0d4661af93817ebce920f18986eed3d75d5e1c03f2aed05efcbafbc452906020015b60405180910390a150565b6001546001600160a01b031633146105645760405162461bcd60e51b815260040161019a90610fa8565b6105776001600160a01b03831682610a4c565b5050565b6002546001600160a01b031633146105a55760405162461bcd60e51b815260040161019a90610f85565b60078190556040518181527f4d371d598d3a13f99ce992a17975bbaf1e1c256e072ec7d2f93ce88e40d9ba1c9060200161052f565b6002546001600160a01b031633146106045760405162461bcd60e51b815260040161019a90610f85565b60088190556040518181527f974fd3c1fcb4653dfc4fb740c4c692cd212d55c28f163f310128cb64d83006759060200161052f565b6001546001600160a01b031633146106635760405162461bcd60e51b815260040161019a90610fa8565b600280546001600160a01b0319166001600160a01b0383169081179091556040519081527f5a272403b402d892977df56625f4164ccaf70ca3863991c43ecfe76a6905b0a19060200161052f565b6002546001600160a01b031633146106db5760405162461bcd60e51b815260040161019a90610f85565b600a80546001600160a01b0319166001600160a01b0383169081179091556040519081527f828abcccea18192c21d645e575652c49e20b986dab777906fc473d056b01b6a89060200161052f565b6001546001600160a01b031633146107535760405162461bcd60e51b815260040161019a90610fa8565b6001600160a01b0381166107a95760405162461bcd60e51b815260206004820181905260248201527f476f7665726e61626c653a205f676f76206973207a65726f2061646472657373604482015260640161019a565b600180546001600160a01b0319166001600160a01b0392909216919091179055565b6001546001600160a01b031633146107f55760405162461bcd60e51b815260040161019a90610fa8565b60405163095ea7b360e01b81526001600160a01b0383811660048301526024820183905284169063095ea7b3906044016020604051808303816000875af1158015610844573d6000803e3d6000fd5b505050506040513d601f19601f820116820180604052508101906108689190610fd7565b50505050565b6002546001600160a01b031633146108985760405162461bcd60e51b815260040161019a90610f85565b60005b835181101561094f5760008482815181106108b8576108b8610ff9565b602002602001015190508382815181106108d4576108d4610ff9565b6020026020010151600c6000836001600160a01b03166001600160a01b031681526020019081526020016000208190555082828151811061091757610917610ff9565b6020908102919091018101516001600160a01b039092166000908152600d9091526040902055806109478161100f565b91505061089b565b507fae32d569b058895b9620d6552b09aaffedc9a6f396be4d595a224ad09f8b213983838360405161098393929190611071565b60405180910390a1505050565b6002546001600160a01b031633146109ba5760405162461bcd60e51b815260040161019a90610f85565b6001600160a01b0382166000908152600b6020526040812054908190036109e057505050565b6001600160a01b0383166000818152600b6020526040812055610a04908383610ae8565b604080516001600160a01b038086168252841660208201529081018290527f4f1b51dd7a2fcb861aa2670f668be66835c4ee12b4bbbf037e4d0018f39819e490606001610983565b80471015610a6f5760405163cd78605960e01b815230600482015260240161019a565b6000826001600160a01b03168260405160006040518083038185875af1925050503d8060008114610abc576040519150601f19603f3d011682016040523d82523d6000602084013e610ac1565b606091505b5050905080610ae357604051630a12f52160e11b815260040160405180910390fd5b505050565b604080516001600160a01b03848116602483015260448083018590528351808403909101815260649092019092526020810180516001600160e01b031663a9059cbb60e01b179052610ae391859190600090610b4690841683610b94565b90508051600014158015610b6b575080806020019051810190610b699190610fd7565b155b15610ae357604051635274afe760e01b81526001600160a01b038416600482015260240161019a565b6060610ba583836000610bac610bc5565b9392505050565b604051630a12f52160e11b815260040160405180910390fd5b606082471015610bea5760405163cd78605960e01b815230600482015260240161019a565b600080866001600160a01b03168587604051610c0691906110e6565b60006040518083038185875af1925050503d8060008114610c43576040519150601f19603f3d011682016040523d82523d6000602084013e610c48565b606091505b5091509150610c5987838387610c66565b925050505b949350505050565b60608315610cb4578251600003610cad57846001600160a01b03163b600003610cad57604051639996b31560e01b81526001600160a01b038616600482015260240161019a565b5081610c5e565b610c5e8383815115610cc95781518083602001fd5b610bac8163ffffffff16565b6001600160a01b0381168114610cea57600080fd5b50565b600060208284031215610cff57600080fd5b8135610ba581610cd5565b600060208284031215610d1c57600080fd5b5035919050565b60008060408385031215610d3657600080fd5b8235610d4181610cd5565b946020939093013593505050565b600080600060608486031215610d6457600080fd5b8335610d6f81610cd5565b92506020840135610d7f81610cd5565b929592945050506040919091013590565b634e487b7160e01b600052604160045260246000fd5b604051601f8201601f1916810167ffffffffffffffff81118282101715610dcf57610dcf610d90565b604052919050565b600067ffffffffffffffff821115610df157610df1610d90565b5060051b60200190565b600082601f830112610e0c57600080fd5b81356020610e21610e1c83610dd7565b610da6565b82815260059290921b84018101918181019086841115610e4057600080fd5b8286015b84811015610e5b5780358352918301918301610e44565b509695505050505050565b600080600060608486031215610e7b57600080fd5b833567ffffffffffffffff80821115610e9357600080fd5b818601915086601f830112610ea757600080fd5b81356020610eb7610e1c83610dd7565b82815260059290921b8401810191818101908a841115610ed657600080fd5b948201945b83861015610efd578535610eee81610cd5565b82529482019490820190610edb565b97505087013592505080821115610f1357600080fd5b610f1f87838801610dfb565b93506040860135915080821115610f3557600080fd5b50610f4286828701610dfb565b9150509250925092565b60008060408385031215610f5f57600080fd5b8235610f6a81610cd5565b91506020830135610f7a81610cd5565b809150509250929050565b6020808252600990820152683337b93134b23232b760b91b604082015260600190565b60208082526015908201527423b7bb32b93730b136329d103337b93134b23232b760591b604082015260600190565b600060208284031215610fe957600080fd5b81518015158114610ba557600080fd5b634e487b7160e01b600052603260045260246000fd5b60006001820161102f57634e487b7160e01b600052601160045260246000fd5b5060010190565b600081518084526020808501945080840160005b838110156110665781518752958201959082019060010161104a565b509495945050505050565b606080825284519082018190526000906020906080840190828801845b828110156110b35781516001600160a01b03168452928401929084019060010161108e565b505050838103828501526110c78187611036565b91505082810360408401526110dc8185611036565b9695505050505050565b6000825160005b8181101561110757602081860181015185830152016110ed565b50600092019182525091905056fea2646970667358221220502d721ec1bbf070a34be556a0bd926bf91c0ff73cafffefb713f58774dcbdba64736f6c63430008120033","linkReferences":{}},"methodIdentifiers":{"BASIS_POINTS_DIVISOR()":"126082cf","admin()":"f851a440","approve(address,address,uint256)":"e1f21c67","depositFee()":"67a52793","ethTransferGasLimit()":"2d79cf42","feeReserves(address)":"1ce9cb8f","gov()":"12d43a51","increasePositionBufferBps()":"98d1e03a","maxGlobalLongSizes(address)":"1045c74e","maxGlobalShortSizes(address)":"9698d25a","referralStorage()":"006cc35e","router()":"f887ea40","sendValue(address,uint256)":"24a084df","setAdmin(address)":"704b6c02","setDepositFee(uint256)":"490ae210","setEthTransferGasLimit(uint256)":"3a9b52ad","setGov(address)":"cfad57a2","setIncreasePositionBufferBps(uint256)":"233bfe3b","setMaxGlobalSizes(address[],uint256[],uint256[])":"ef12c67e","setReferralStorage(address)":"ae4d7f9a","shortsTracker()":"657bc5d0","vault()":"fbfa77cf","weth()":"3fc8cef3","withdrawFees(address,address)":"f2555278"},"id":43}