{
  "abi": [
    {
      "inputs": [],
      "stateMutability": "nonpayable",
      "type": "constructor"
    },
    {
      "inputs": [
        {
          "internalType": "address",
          "name": "target",
          "type": "address"
        }
      ],
      "name": "AddressEmptyCode",
      "type": "error"
    },
    {
      "inputs": [
        {
          "internalType": "address",
          "name": "account",
          "type": "address"
        }
      ],
      "name": "AddressInsufficientBalance",
      "type": "error"
    },
    {
      "inputs": [],
      "name": "FailedInnerCall",
      "type": "error"
    },
    {
      "inputs": [],
      "name": "ReentrancyGuardReentrantCall",
      "type": "error"
    },
    {
      "inputs": [
        {
          "internalType": "address",
          "name": "token",
          "type": "address"
        }
      ],
      "name": "SafeERC20FailedOperation",
      "type": "error"
    },
    {
      "anonymous": false,
      "inputs": [
        {
          "indexed": false,
          "internalType": "address",
          "name": "account",
          "type": "address"
        },
        {
          "indexed": false,
          "internalType": "address",
          "name": "token",
          "type": "address"
        },
        {
          "indexed": false,
          "internalType": "uint256",
          "name": "tokenAmount",
          "type": "uint256"
        },
        {
          "indexed": false,
          "internalType": "uint256",
          "name": "usdpAmount",
          "type": "uint256"
        },
        {
          "indexed": false,
          "internalType": "uint256",
          "name": "feeBasisPoints",
          "type": "uint256"
        }
      ],
      "name": "BuyUSDP",
      "type": "event"
    },
    {
      "anonymous": false,
      "inputs": [
        {
          "indexed": false,
          "internalType": "bytes32",
          "name": "key",
          "type": "bytes32"
        },
        {
          "indexed": false,
          "internalType": "uint256",
          "name": "size",
          "type": "uint256"
        },
        {
          "indexed": false,
          "internalType": "uint256",
          "name": "collateral",
          "type": "uint256"
        },
        {
          "indexed": false,
          "internalType": "uint256",
          "name": "averagePrice",
          "type": "uint256"
        },
        {
          "indexed": false,
          "internalType": "uint256",
          "name": "entryFundingRate",
          "type": "uint256"
        },
        {
          "indexed": false,
          "internalType": "uint256",
          "name": "reserveAmount",
          "type": "uint256"
        },
        {
          "indexed": false,
          "internalType": "int256",
          "name": "realisedPnl",
          "type": "int256"
        }
      ],
      "name": "ClosePosition",
      "type": "event"
    },
    {
      "anonymous": false,
      "inputs": [
        {
          "indexed": false,
          "internalType": "address",
          "name": "token",
          "type": "address"
        },
        {
          "indexed": false,
          "internalType": "uint256",
          "name": "feeUsd",
          "type": "uint256"
        },
        {
          "indexed": false,
          "internalType": "uint256",
          "name": "feeTokens",
          "type": "uint256"
        }
      ],
      "name": "CollectMarginFees",
      "type": "event"
    },
    {
      "anonymous": false,
      "inputs": [
        {
          "indexed": false,
          "internalType": "address",
          "name": "token",
          "type": "address"
        },
        {
          "indexed": false,
          "internalType": "uint256",
          "name": "feeUsd",
          "type": "uint256"
        },
        {
          "indexed": false,
          "internalType": "uint256",
          "name": "feeTokens",
          "type": "uint256"
        }
      ],
      "name": "CollectSwapFees",
      "type": "event"
    },
    {
      "anonymous": false,
      "inputs": [
        {
          "indexed": false,
          "internalType": "bytes32",
          "name": "key",
          "type": "bytes32"
        },
        {
          "indexed": false,
          "internalType": "address",
          "name": "account",
          "type": "address"
        },
        {
          "indexed": false,
          "internalType": "address",
          "name": "collateralToken",
          "type": "address"
        },
        {
          "indexed": false,
          "internalType": "address",
          "name": "indexToken",
          "type": "address"
        },
        {
          "indexed": false,
          "internalType": "uint256",
          "name": "collateralDelta",
          "type": "uint256"
        },
        {
          "indexed": false,
          "internalType": "uint256",
          "name": "sizeDelta",
          "type": "uint256"
        },
        {
          "indexed": false,
          "internalType": "bool",
          "name": "isLong",
          "type": "bool"
        },
        {
          "indexed": false,
          "internalType": "uint256",
          "name": "price",
          "type": "uint256"
        },
        {
          "indexed": false,
          "internalType": "uint256",
          "name": "fee",
          "type": "uint256"
        }
      ],
      "name": "DecreasePosition",
      "type": "event"
    },
    {
      "anonymous": false,
      "inputs": [
        {
          "indexed": false,
          "internalType": "bytes32",
          "name": "key",
          "type": "bytes32"
        },
        {
          "indexed": false,
          "internalType": "address",
          "name": "account",
          "type": "address"
        },
        {
          "indexed": false,
          "internalType": "address",
          "name": "collateralToken",
          "type": "address"
        },
        {
          "indexed": false,
          "internalType": "address",
          "name": "indexToken",
          "type": "address"
        },
        {
          "indexed": false,
          "internalType": "uint256",
          "name": "collateralDelta",
          "type": "uint256"
        },
        {
          "indexed": false,
          "internalType": "uint256",
          "name": "sizeDelta",
          "type": "uint256"
        },
        {
          "indexed": false,
          "internalType": "bool",
          "name": "isLong",
          "type": "bool"
        },
        {
          "indexed": false,
          "internalType": "uint256",
          "name": "price",
          "type": "uint256"
        },
        {
          "indexed": false,
          "internalType": "uint256",
          "name": "fee",
          "type": "uint256"
        }
      ],
      "name": "IncreasePosition",
      "type": "event"
    },
    {
      "anonymous": false,
      "inputs": [
        {
          "indexed": false,
          "internalType": "bytes32",
          "name": "key",
          "type": "bytes32"
        },
        {
          "indexed": false,
          "internalType": "address",
          "name": "account",
          "type": "address"
        },
        {
          "indexed": false,
          "internalType": "address",
          "name": "collateralToken",
          "type": "address"
        },
        {
          "indexed": false,
          "internalType": "address",
          "name": "indexToken",
          "type": "address"
        },
        {
          "indexed": false,
          "internalType": "bool",
          "name": "isLong",
          "type": "bool"
        },
        {
          "indexed": false,
          "internalType": "uint256",
          "name": "size",
          "type": "uint256"
        },
        {
          "indexed": false,
          "internalType": "uint256",
          "name": "collateral",
          "type": "uint256"
        },
        {
          "indexed": false,
          "internalType": "uint256",
          "name": "reserveAmount",
          "type": "uint256"
        },
        {
          "indexed": false,
          "internalType": "int256",
          "name": "realisedPnl",
          "type": "int256"
        },
        {
          "indexed": false,
          "internalType": "uint256",
          "name": "markPrice",
          "type": "uint256"
        }
      ],
      "name": "LiquidatePosition",
      "type": "event"
    },
    {
      "anonymous": false,
      "inputs": [
        {
          "indexed": false,
          "internalType": "address",
          "name": "account",
          "type": "address"
        },
        {
          "indexed": false,
          "internalType": "address",
          "name": "token",
          "type": "address"
        },
        {
          "indexed": false,
          "internalType": "uint256",
          "name": "usdpAmount",
          "type": "uint256"
        },
        {
          "indexed": false,
          "internalType": "uint256",
          "name": "tokenAmount",
          "type": "uint256"
        },
        {
          "indexed": false,
          "internalType": "uint256",
          "name": "feeBasisPoints",
          "type": "uint256"
        }
      ],
      "name": "SellUSDP",
      "type": "event"
    },
    {
      "anonymous": false,
      "inputs": [
        {
          "indexed": false,
          "internalType": "address",
          "name": "account",
          "type": "address"
        },
        {
          "indexed": false,
          "internalType": "address",
          "name": "tokenIn",
          "type": "address"
        },
        {
          "indexed": false,
          "internalType": "address",
          "name": "tokenOut",
          "type": "address"
        },
        {
          "indexed": false,
          "internalType": "uint256",
          "name": "amountIn",
          "type": "uint256"
        },
        {
          "indexed": false,
          "internalType": "uint256",
          "name": "amountOut",
          "type": "uint256"
        },
        {
          "indexed": false,
          "internalType": "uint256",
          "name": "amountOutAfterFees",
          "type": "uint256"
        },
        {
          "indexed": false,
          "internalType": "uint256",
          "name": "feeBasisPoints",
          "type": "uint256"
        }
      ],
      "name": "Swap",
      "type": "event"
    },
    {
      "anonymous": false,
      "inputs": [
        {
          "indexed": false,
          "internalType": "address",
          "name": "token",
          "type": "address"
        },
        {
          "indexed": false,
          "internalType": "uint256",
          "name": "fundingRate",
          "type": "uint256"
        }
      ],
      "name": "UpdateFundingRate",
      "type": "event"
    },
    {
      "anonymous": false,
      "inputs": [
        {
          "indexed": false,
          "internalType": "bytes32",
          "name": "key",
          "type": "bytes32"
        },
        {
          "indexed": false,
          "internalType": "bool",
          "name": "hasProfit",
          "type": "bool"
        },
        {
          "indexed": false,
          "internalType": "uint256",
          "name": "delta",
          "type": "uint256"
        }
      ],
      "name": "UpdatePnl",
      "type": "event"
    },
    {
      "anonymous": false,
      "inputs": [
        {
          "indexed": false,
          "internalType": "bytes32",
          "name": "key",
          "type": "bytes32"
        },
        {
          "indexed": false,
          "internalType": "uint256",
          "name": "size",
          "type": "uint256"
        },
        {
          "indexed": false,
          "internalType": "uint256",
          "name": "collateral",
          "type": "uint256"
        },
        {
          "indexed": false,
          "internalType": "uint256",
          "name": "averagePrice",
          "type": "uint256"
        },
        {
          "indexed": false,
          "internalType": "uint256",
          "name": "entryFundingRate",
          "type": "uint256"
        },
        {
          "indexed": false,
          "internalType": "uint256",
          "name": "reserveAmount",
          "type": "uint256"
        },
        {
          "indexed": false,
          "internalType": "int256",
          "name": "realisedPnl",
          "type": "int256"
        },
        {
          "indexed": false,
          "internalType": "uint256",
          "name": "markPrice",
          "type": "uint256"
        }
      ],
      "name": "UpdatePosition",
      "type": "event"
    },
    {
      "inputs": [],
      "name": "BASIS_POINTS_DIVISOR",
      "outputs": [
        {
          "internalType": "uint256",
          "name": "",
          "type": "uint256"
        }
      ],
      "stateMutability": "view",
      "type": "function"
    },
    {
      "inputs": [],
      "name": "FUNDING_RATE_PRECISION",
      "outputs": [
        {
          "internalType": "uint256",
          "name": "",
          "type": "uint256"
        }
      ],
      "stateMutability": "view",
      "type": "function"
    },
    {
      "inputs": [],
      "name": "MAX_FEE_BASIS_POINTS",
      "outputs": [
        {
          "internalType": "uint256",
          "name": "",
          "type": "uint256"
        }
      ],
      "stateMutability": "view",
      "type": "function"
    },
    {
      "inputs": [],
      "name": "MAX_FUNDING_RATE_FACTOR",
      "outputs": [
        {
          "internalType": "uint256",
          "name": "",
          "type": "uint256"
        }
      ],
      "stateMutability": "view",
      "type": "function"
    },
    {
      "inputs": [],
      "name": "MAX_LIQUIDATION_FEE_USD",
      "outputs": [
        {
          "internalType": "uint256",
          "name": "",
          "type": "uint256"
        }
      ],
      "stateMutability": "view",
      "type": "function"
    },
    {
      "inputs": [],
      "name": "MIN_FUNDING_RATE_INTERVAL",
      "outputs": [
        {
          "internalType": "uint256",
          "name": "",
          "type": "uint256"
        }
      ],
      "stateMutability": "view",
      "type": "function"
    },
    {
      "inputs": [],
      "name": "MIN_LEVERAGE",
      "outputs": [
        {
          "internalType": "uint256",
          "name": "",
          "type": "uint256"
        }
      ],
      "stateMutability": "view",
      "type": "function"
    },
    {
      "inputs": [],
      "name": "PRICE_PRECISION",
      "outputs": [
        {
          "internalType": "uint256",
          "name": "",
          "type": "uint256"
        }
      ],
      "stateMutability": "view",
      "type": "function"
    },
    {
      "inputs": [],
      "name": "USDP_DECIMALS",
      "outputs": [
        {
          "internalType": "uint256",
          "name": "",
          "type": "uint256"
        }
      ],
      "stateMutability": "view",
      "type": "function"
    },
    {
      "inputs": [
        {
          "internalType": "address",
          "name": "_router",
          "type": "address"
        }
      ],
      "name": "addRouter",
      "outputs": [],
      "stateMutability": "nonpayable",
      "type": "function"
    },
    {
      "inputs": [
        {
          "internalType": "uint256",
          "name": "_amount",
          "type": "uint256"
        },
        {
          "internalType": "address",
          "name": "_tokenDiv",
          "type": "address"
        },
        {
          "internalType": "address",
          "name": "_tokenMul",
          "type": "address"
        }
      ],
      "name": "adjustForDecimals",
      "outputs": [
        {
          "internalType": "uint256",
          "name": "",
          "type": "uint256"
        }
      ],
      "stateMutability": "view",
      "type": "function"
    },
    {
      "inputs": [
        {
          "internalType": "uint256",
          "name": "",
          "type": "uint256"
        }
      ],
      "name": "allWhitelistedTokens",
      "outputs": [
        {
          "internalType": "address",
          "name": "",
          "type": "address"
        }
      ],
      "stateMutability": "view",
      "type": "function"
    },
    {
      "inputs": [],
      "name": "allWhitelistedTokensLength",
      "outputs": [
        {
          "internalType": "uint256",
          "name": "",
          "type": "uint256"
        }
      ],
      "stateMutability": "view",
      "type": "function"
    },
    {
      "inputs": [
        {
          "internalType": "address",
          "name": "",
          "type": "address"
        },
        {
          "internalType": "address",
          "name": "",
          "type": "address"
        }
      ],
      "name": "approvedRouters",
      "outputs": [
        {
          "internalType": "bool",
          "name": "",
          "type": "bool"
        }
      ],
      "stateMutability": "view",
      "type": "function"
    },
    {
      "inputs": [
        {
          "internalType": "address",
          "name": "",
          "type": "address"
        }
      ],
      "name": "bufferAmounts",
      "outputs": [
        {
          "internalType": "uint256",
          "name": "",
          "type": "uint256"
        }
      ],
      "stateMutability": "view",
      "type": "function"
    },
    {
      "inputs": [
        {
          "internalType": "address",
          "name": "_token",
          "type": "address"
        },
        {
          "internalType": "address",
          "name": "_receiver",
          "type": "address"
        }
      ],
      "name": "buyUSDP",
      "outputs": [
        {
          "internalType": "uint256",
          "name": "",
          "type": "uint256"
        }
      ],
      "stateMutability": "nonpayable",
      "type": "function"
    },
    {
      "inputs": [
        {
          "internalType": "address",
          "name": "_token",
          "type": "address"
        }
      ],
      "name": "clearTokenConfig",
      "outputs": [],
      "stateMutability": "nonpayable",
      "type": "function"
    },
    {
      "inputs": [
        {
          "internalType": "address",
          "name": "",
          "type": "address"
        }
      ],
      "name": "cumulativeFundingRates",
      "outputs": [
        {
          "internalType": "uint256",
          "name": "",
          "type": "uint256"
        }
      ],
      "stateMutability": "view",
      "type": "function"
    },
    {
      "inputs": [
        {
          "internalType": "address",
          "name": "_account",
          "type": "address"
        },
        {
          "internalType": "address",
          "name": "_collateralToken",
          "type": "address"
        },
        {
          "internalType": "address",
          "name": "_indexToken",
          "type": "address"
        },
        {
          "internalType": "uint256",
          "name": "_collateralDelta",
          "type": "uint256"
        },
        {
          "internalType": "uint256",
          "name": "_sizeDelta",
          "type": "uint256"
        },
        {
          "internalType": "bool",
          "name": "_isLong",
          "type": "bool"
        },
        {
          "internalType": "address",
          "name": "_receiver",
          "type": "address"
        }
      ],
      "name": "decreasePosition",
      "outputs": [
        {
          "internalType": "uint256",
          "name": "",
          "type": "uint256"
        }
      ],
      "stateMutability": "nonpayable",
      "type": "function"
    },
    {
      "inputs": [
        {
          "internalType": "address",
          "name": "_token",
          "type": "address"
        }
      ],
      "name": "directPoolDeposit",
      "outputs": [],
      "stateMutability": "nonpayable",
      "type": "function"
    },
    {
      "inputs": [],
      "name": "errorController",
      "outputs": [
        {
          "internalType": "address",
          "name": "",
          "type": "address"
        }
      ],
      "stateMutability": "view",
      "type": "function"
    },
    {
      "inputs": [
        {
          "internalType": "uint256",
          "name": "",
          "type": "uint256"
        }
      ],
      "name": "errors",
      "outputs": [
        {
          "internalType": "string",
          "name": "",
          "type": "string"
        }
      ],
      "stateMutability": "view",
      "type": "function"
    },
    {
      "inputs": [
        {
          "internalType": "address",
          "name": "",
          "type": "address"
        }
      ],
      "name": "feeReserves",
      "outputs": [
        {
          "internalType": "uint256",
          "name": "",
          "type": "uint256"
        }
      ],
      "stateMutability": "view",
      "type": "function"
    },
    {
      "inputs": [],
      "name": "fundingInterval",
      "outputs": [
        {
          "internalType": "uint256",
          "name": "",
          "type": "uint256"
        }
      ],
      "stateMutability": "view",
      "type": "function"
    },
    {
      "inputs": [],
      "name": "fundingRateFactor",
      "outputs": [
        {
          "internalType": "uint256",
          "name": "",
          "type": "uint256"
        }
      ],
      "stateMutability": "view",
      "type": "function"
    },
    {
      "inputs": [
        {
          "internalType": "address",
          "name": "_indexToken",
          "type": "address"
        },
        {
          "internalType": "uint256",
          "name": "_size",
          "type": "uint256"
        },
        {
          "internalType": "uint256",
          "name": "_averagePrice",
          "type": "uint256"
        },
        {
          "internalType": "bool",
          "name": "_isLong",
          "type": "bool"
        },
        {
          "internalType": "uint256",
          "name": "_lastIncreasedTime",
          "type": "uint256"
        }
      ],
      "name": "getDelta",
      "outputs": [
        {
          "internalType": "bool",
          "name": "",
          "type": "bool"
        },
        {
          "internalType": "uint256",
          "name": "",
          "type": "uint256"
        }
      ],
      "stateMutability": "view",
      "type": "function"
    },
    {
      "inputs": [
        {
          "internalType": "address",
          "name": "_collateralToken",
          "type": "address"
        },
        {
          "internalType": "address",
          "name": "_indexToken",
          "type": "address"
        },
        {
          "internalType": "bool",
          "name": "_isLong",
          "type": "bool"
        }
      ],
      "name": "getEntryFundingRate",
      "outputs": [
        {
          "internalType": "uint256",
          "name": "",
          "type": "uint256"
        }
      ],
      "stateMutability": "view",
      "type": "function"
    },
    {
      "inputs": [
        {
          "internalType": "address",
          "name": "_token",
          "type": "address"
        },
        {
          "internalType": "uint256",
          "name": "_usdpDelta",
          "type": "uint256"
        },
        {
          "internalType": "uint256",
          "name": "_feeBasisPoints",
          "type": "uint256"
        },
        {
          "internalType": "uint256",
          "name": "_taxBasisPoints",
          "type": "uint256"
        },
        {
          "internalType": "bool",
          "name": "_increment",
          "type": "bool"
        }
      ],
      "name": "getFeeBasisPoints",
      "outputs": [
        {
          "internalType": "uint256",
          "name": "",
          "type": "uint256"
        }
      ],
      "stateMutability": "view",
      "type": "function"
    },
    {
      "inputs": [
        {
          "internalType": "address",
          "name": "_account",
          "type": "address"
        },
        {
          "internalType": "address",
          "name": "_collateralToken",
          "type": "address"
        },
        {
          "internalType": "address",
          "name": "_indexToken",
          "type": "address"
        },
        {
          "internalType": "bool",
          "name": "_isLong",
          "type": "bool"
        },
        {
          "internalType": "uint256",
          "name": "_size",
          "type": "uint256"
        },
        {
          "internalType": "uint256",
          "name": "_entryFundingRate",
          "type": "uint256"
        }
      ],
      "name": "getFundingFee",
      "outputs": [
        {
          "internalType": "uint256",
          "name": "",
          "type": "uint256"
        }
      ],
      "stateMutability": "view",
      "type": "function"
    },
    {
      "inputs": [
        {
          "internalType": "address",
          "name": "_token",
          "type": "address"
        }
      ],
      "name": "getGlobalShortDelta",
      "outputs": [
        {
          "internalType": "bool",
          "name": "",
          "type": "bool"
        },
        {
          "internalType": "uint256",
          "name": "",
          "type": "uint256"
        }
      ],
      "stateMutability": "view",
      "type": "function"
    },
    {
      "inputs": [
        {
          "internalType": "address",
          "name": "_token",
          "type": "address"
        }
      ],
      "name": "getMaxPrice",
      "outputs": [
        {
          "internalType": "uint256",
          "name": "",
          "type": "uint256"
        }
      ],
      "stateMutability": "view",
      "type": "function"
    },
    {
      "inputs": [
        {
          "internalType": "address",
          "name": "_token",
          "type": "address"
        }
      ],
      "name": "getMinPrice",
      "outputs": [
        {
          "internalType": "uint256",
          "name": "",
          "type": "uint256"
        }
      ],
      "stateMutability": "view",
      "type": "function"
    },
    {
      "inputs": [
        {
          "internalType": "address",
          "name": "_indexToken",
          "type": "address"
        },
        {
          "internalType": "uint256",
          "name": "_size",
          "type": "uint256"
        },
        {
          "internalType": "uint256",
          "name": "_averagePrice",
          "type": "uint256"
        },
        {
          "internalType": "bool",
          "name": "_isLong",
          "type": "bool"
        },
        {
          "internalType": "uint256",
          "name": "_nextPrice",
          "type": "uint256"
        },
        {
          "internalType": "uint256",
          "name": "_sizeDelta",
          "type": "uint256"
        },
        {
          "internalType": "uint256",
          "name": "_lastIncreasedTime",
          "type": "uint256"
        }
      ],
      "name": "getNextAveragePrice",
      "outputs": [
        {
          "internalType": "uint256",
          "name": "",
          "type": "uint256"
        }
      ],
      "stateMutability": "view",
      "type": "function"
    },
    {
      "inputs": [
        {
          "internalType": "address",
          "name": "_token",
          "type": "address"
        }
      ],
      "name": "getNextFundingRate",
      "outputs": [
        {
          "internalType": "uint256",
          "name": "",
          "type": "uint256"
        }
      ],
      "stateMutability": "view",
      "type": "function"
    },
    {
      "inputs": [
        {
          "internalType": "address",
          "name": "_indexToken",
          "type": "address"
        },
        {
          "internalType": "uint256",
          "name": "_nextPrice",
          "type": "uint256"
        },
        {
          "internalType": "uint256",
          "name": "_sizeDelta",
          "type": "uint256"
        }
      ],
      "name": "getNextGlobalShortAveragePrice",
      "outputs": [
        {
          "internalType": "uint256",
          "name": "",
          "type": "uint256"
        }
      ],
      "stateMutability": "view",
      "type": "function"
    },
    {
      "inputs": [
        {
          "internalType": "address",
          "name": "_account",
          "type": "address"
        },
        {
          "internalType": "address",
          "name": "_collateralToken",
          "type": "address"
        },
        {
          "internalType": "address",
          "name": "_indexToken",
          "type": "address"
        },
        {
          "internalType": "bool",
          "name": "_isLong",
          "type": "bool"
        }
      ],
      "name": "getPosition",
      "outputs": [
        {
          "internalType": "uint256",
          "name": "",
          "type": "uint256"
        },
        {
          "internalType": "uint256",
          "name": "",
          "type": "uint256"
        },
        {
          "internalType": "uint256",
          "name": "",
          "type": "uint256"
        },
        {
          "internalType": "uint256",
          "name": "",
          "type": "uint256"
        },
        {
          "internalType": "uint256",
          "name": "",
          "type": "uint256"
        },
        {
          "internalType": "uint256",
          "name": "",
          "type": "uint256"
        },
        {
          "internalType": "bool",
          "name": "",
          "type": "bool"
        },
        {
          "internalType": "uint256",
          "name": "",
          "type": "uint256"
        }
      ],
      "stateMutability": "view",
      "type": "function"
    },
    {
      "inputs": [
        {
          "internalType": "address",
          "name": "_account",
          "type": "address"
        },
        {
          "internalType": "address",
          "name": "_collateralToken",
          "type": "address"
        },
        {
          "internalType": "address",
          "name": "_indexToken",
          "type": "address"
        },
        {
          "internalType": "bool",
          "name": "_isLong",
          "type": "bool"
        }
      ],
      "name": "getPositionDelta",
      "outputs": [
        {
          "internalType": "bool",
          "name": "",
          "type": "bool"
        },
        {
          "internalType": "uint256",
          "name": "",
          "type": "uint256"
        }
      ],
      "stateMutability": "view",
      "type": "function"
    },
    {
      "inputs": [
        {
          "internalType": "address",
          "name": "_account",
          "type": "address"
        },
        {
          "internalType": "address",
          "name": "_collateralToken",
          "type": "address"
        },
        {
          "internalType": "address",
          "name": "_indexToken",
          "type": "address"
        },
        {
          "internalType": "bool",
          "name": "_isLong",
          "type": "bool"
        },
        {
          "internalType": "uint256",
          "name": "_sizeDelta",
          "type": "uint256"
        }
      ],
      "name": "getPositionFee",
      "outputs": [
        {
          "internalType": "uint256",
          "name": "",
          "type": "uint256"
        }
      ],
      "stateMutability": "view",
      "type": "function"
    },
    {
      "inputs": [
        {
          "internalType": "address",
          "name": "_account",
          "type": "address"
        },
        {
          "internalType": "address",
          "name": "_collateralToken",
          "type": "address"
        },
        {
          "internalType": "address",
          "name": "_indexToken",
          "type": "address"
        },
        {
          "internalType": "bool",
          "name": "_isLong",
          "type": "bool"
        }
      ],
      "name": "getPositionKey",
      "outputs": [
        {
          "internalType": "bytes32",
          "name": "",
          "type": "bytes32"
        }
      ],
      "stateMutability": "pure",
      "type": "function"
    },
    {
      "inputs": [
        {
          "internalType": "address",
          "name": "_account",
          "type": "address"
        },
        {
          "internalType": "address",
          "name": "_collateralToken",
          "type": "address"
        },
        {
          "internalType": "address",
          "name": "_indexToken",
          "type": "address"
        },
        {
          "internalType": "bool",
          "name": "_isLong",
          "type": "bool"
        }
      ],
      "name": "getPositionLeverage",
      "outputs": [
        {
          "internalType": "uint256",
          "name": "",
          "type": "uint256"
        }
      ],
      "stateMutability": "view",
      "type": "function"
    },
    {
      "inputs": [
        {
          "internalType": "address",
          "name": "_token",
          "type": "address"
        },
        {
          "internalType": "uint256",
          "name": "_usdpAmount",
          "type": "uint256"
        }
      ],
      "name": "getRedemptionAmount",
      "outputs": [
        {
          "internalType": "uint256",
          "name": "",
          "type": "uint256"
        }
      ],
      "stateMutability": "view",
      "type": "function"
    },
    {
      "inputs": [
        {
          "internalType": "address",
          "name": "_token",
          "type": "address"
        }
      ],
      "name": "getRedemptionCollateral",
      "outputs": [
        {
          "internalType": "uint256",
          "name": "",
          "type": "uint256"
        }
      ],
      "stateMutability": "view",
      "type": "function"
    },
    {
      "inputs": [
        {
          "internalType": "address",
          "name": "_token",
          "type": "address"
        }
      ],
      "name": "getRedemptionCollateralUsd",
      "outputs": [
        {
          "internalType": "uint256",
          "name": "",
          "type": "uint256"
        }
      ],
      "stateMutability": "view",
      "type": "function"
    },
    {
      "inputs": [
        {
          "internalType": "address",
          "name": "_token",
          "type": "address"
        }
      ],
      "name": "getTargetUsdpAmount",
      "outputs": [
        {
          "internalType": "uint256",
          "name": "",
          "type": "uint256"
        }
      ],
      "stateMutability": "view",
      "type": "function"
    },
    {
      "inputs": [
        {
          "internalType": "address",
          "name": "_token",
          "type": "address"
        }
      ],
      "name": "getUtilisation",
      "outputs": [
        {
          "internalType": "uint256",
          "name": "",
          "type": "uint256"
        }
      ],
      "stateMutability": "view",
      "type": "function"
    },
    {
      "inputs": [
        {
          "internalType": "address",
          "name": "",
          "type": "address"
        }
      ],
      "name": "globalShortAveragePrices",
      "outputs": [
        {
          "internalType": "uint256",
          "name": "",
          "type": "uint256"
        }
      ],
      "stateMutability": "view",
      "type": "function"
    },
    {
      "inputs": [
        {
          "internalType": "address",
          "name": "",
          "type": "address"
        }
      ],
      "name": "globalShortSizes",
      "outputs": [
        {
          "internalType": "uint256",
          "name": "",
          "type": "uint256"
        }
      ],
      "stateMutability": "view",
      "type": "function"
    },
    {
      "inputs": [],
      "name": "gov",
      "outputs": [
        {
          "internalType": "address",
          "name": "",
          "type": "address"
        }
      ],
      "stateMutability": "view",
      "type": "function"
    },
    {
      "inputs": [
        {
          "internalType": "address",
          "name": "",
          "type": "address"
        }
      ],
      "name": "guaranteedUsd",
      "outputs": [
        {
          "internalType": "uint256",
          "name": "",
          "type": "uint256"
        }
      ],
      "stateMutability": "view",
      "type": "function"
    },
    {
      "inputs": [],
      "name": "hasDynamicFees",
      "outputs": [
        {
          "internalType": "bool",
          "name": "",
          "type": "bool"
        }
      ],
      "stateMutability": "view",
      "type": "function"
    },
    {
      "inputs": [],
      "name": "inManagerMode",
      "outputs": [
        {
          "internalType": "bool",
          "name": "",
          "type": "bool"
        }
      ],
      "stateMutability": "view",
      "type": "function"
    },
    {
      "inputs": [],
      "name": "inPrivateLiquidationMode",
      "outputs": [
        {
          "internalType": "bool",
          "name": "",
          "type": "bool"
        }
      ],
      "stateMutability": "view",
      "type": "function"
    },
    {
      "inputs": [],
      "name": "includeAmmPrice",
      "outputs": [
        {
          "internalType": "bool",
          "name": "",
          "type": "bool"
        }
      ],
      "stateMutability": "view",
      "type": "function"
    },
    {
      "inputs": [
        {
          "internalType": "address",
          "name": "_account",
          "type": "address"
        },
        {
          "internalType": "address",
          "name": "_collateralToken",
          "type": "address"
        },
        {
          "internalType": "address",
          "name": "_indexToken",
          "type": "address"
        },
        {
          "internalType": "uint256",
          "name": "_sizeDelta",
          "type": "uint256"
        },
        {
          "internalType": "bool",
          "name": "_isLong",
          "type": "bool"
        }
      ],
      "name": "increasePosition",
      "outputs": [],
      "stateMutability": "nonpayable",
      "type": "function"
    },
    {
      "inputs": [
        {
          "internalType": "address",
          "name": "_router",
          "type": "address"
        },
        {
          "internalType": "address",
          "name": "_usdp",
          "type": "address"
        },
        {
          "internalType": "address",
          "name": "_priceFeed",
          "type": "address"
        },
        {
          "internalType": "uint256",
          "name": "_liquidationFeeUsd",
          "type": "uint256"
        },
        {
          "internalType": "uint256",
          "name": "_fundingRateFactor",
          "type": "uint256"
        },
        {
          "internalType": "uint256",
          "name": "_stableFundingRateFactor",
          "type": "uint256"
        }
      ],
      "name": "initialize",
      "outputs": [],
      "stateMutability": "nonpayable",
      "type": "function"
    },
    {
      "inputs": [],
      "name": "isInitialized",
      "outputs": [
        {
          "internalType": "bool",
          "name": "",
          "type": "bool"
        }
      ],
      "stateMutability": "view",
      "type": "function"
    },
    {
      "inputs": [],
      "name": "isLeverageEnabled",
      "outputs": [
        {
          "internalType": "bool",
          "name": "",
          "type": "bool"
        }
      ],
      "stateMutability": "view",
      "type": "function"
    },
    {
      "inputs": [
        {
          "internalType": "address",
          "name": "",
          "type": "address"
        }
      ],
      "name": "isLiquidator",
      "outputs": [
        {
          "internalType": "bool",
          "name": "",
          "type": "bool"
        }
      ],
      "stateMutability": "view",
      "type": "function"
    },
    {
      "inputs": [
        {
          "internalType": "address",
          "name": "",
          "type": "address"
        }
      ],
      "name": "isManager",
      "outputs": [
        {
          "internalType": "bool",
          "name": "",
          "type": "bool"
        }
      ],
      "stateMutability": "view",
      "type": "function"
    },
    {
      "inputs": [],
      "name": "isSwapEnabled",
      "outputs": [
        {
          "internalType": "bool",
          "name": "",
          "type": "bool"
        }
      ],
      "stateMutability": "view",
      "type": "function"
    },
    {
      "inputs": [
        {
          "internalType": "address",
          "name": "",
          "type": "address"
        }
      ],
      "name": "lastFundingTimes",
      "outputs": [
        {
          "internalType": "uint256",
          "name": "",
          "type": "uint256"
        }
      ],
      "stateMutability": "view",
      "type": "function"
    },
    {
      "inputs": [
        {
          "internalType": "address",
          "name": "_account",
          "type": "address"
        },
        {
          "internalType": "address",
          "name": "_collateralToken",
          "type": "address"
        },
        {
          "internalType": "address",
          "name": "_indexToken",
          "type": "address"
        },
        {
          "internalType": "bool",
          "name": "_isLong",
          "type": "bool"
        },
        {
          "internalType": "address",
          "name": "_feeReceiver",
          "type": "address"
        }
      ],
      "name": "liquidatePosition",
      "outputs": [],
      "stateMutability": "nonpayable",
      "type": "function"
    },
    {
      "inputs": [],
      "name": "liquidationFeeUsd",
      "outputs": [
        {
          "internalType": "uint256",
          "name": "",
          "type": "uint256"
        }
      ],
      "stateMutability": "view",
      "type": "function"
    },
    {
      "inputs": [],
      "name": "marginFeeBasisPoints",
      "outputs": [
        {
          "internalType": "uint256",
          "name": "",
          "type": "uint256"
        }
      ],
      "stateMutability": "view",
      "type": "function"
    },
    {
      "inputs": [],
      "name": "maxGasPrice",
      "outputs": [
        {
          "internalType": "uint256",
          "name": "",
          "type": "uint256"
        }
      ],
      "stateMutability": "view",
      "type": "function"
    },
    {
      "inputs": [
        {
          "internalType": "address",
          "name": "",
          "type": "address"
        }
      ],
      "name": "maxGlobalShortSizes",
      "outputs": [
        {
          "internalType": "uint256",
          "name": "",
          "type": "uint256"
        }
      ],
      "stateMutability": "view",
      "type": "function"
    },
    {
      "inputs": [],
      "name": "maxLeverage",
      "outputs": [
        {
          "internalType": "uint256",
          "name": "",
          "type": "uint256"
        }
      ],
      "stateMutability": "view",
      "type": "function"
    },
    {
      "inputs": [
        {
          "internalType": "address",
          "name": "",
          "type": "address"
        }
      ],
      "name": "maxUsdpAmounts",
      "outputs": [
        {
          "internalType": "uint256",
          "name": "",
          "type": "uint256"
        }
      ],
      "stateMutability": "view",
      "type": "function"
    },
    {
      "inputs": [
        {
          "internalType": "address",
          "name": "",
          "type": "address"
        }
      ],
      "name": "minProfitBasisPoints",
      "outputs": [
        {
          "internalType": "uint256",
          "name": "",
          "type": "uint256"
        }
      ],
      "stateMutability": "view",
      "type": "function"
    },
    {
      "inputs": [],
      "name": "minProfitTime",
      "outputs": [
        {
          "internalType": "uint256",
          "name": "",
          "type": "uint256"
        }
      ],
      "stateMutability": "view",
      "type": "function"
    },
    {
      "inputs": [],
      "name": "mintBurnFeeBasisPoints",
      "outputs": [
        {
          "internalType": "uint256",
          "name": "",
          "type": "uint256"
        }
      ],
      "stateMutability": "view",
      "type": "function"
    },
    {
      "inputs": [
        {
          "internalType": "address",
          "name": "",
          "type": "address"
        }
      ],
      "name": "poolAmounts",
      "outputs": [
        {
          "internalType": "uint256",
          "name": "",
          "type": "uint256"
        }
      ],
      "stateMutability": "view",
      "type": "function"
    },
    {
      "inputs": [
        {
          "internalType": "bytes32",
          "name": "",
          "type": "bytes32"
        }
      ],
      "name": "positions",
      "outputs": [
        {
          "internalType": "uint256",
          "name": "size",
          "type": "uint256"
        },
        {
          "internalType": "uint256",
          "name": "collateral",
          "type": "uint256"
        },
        {
          "internalType": "uint256",
          "name": "averagePrice",
          "type": "uint256"
        },
        {
          "internalType": "uint256",
          "name": "entryFundingRate",
          "type": "uint256"
        },
        {
          "internalType": "uint256",
          "name": "reserveAmount",
          "type": "uint256"
        },
        {
          "internalType": "int256",
          "name": "realisedPnl",
          "type": "int256"
        },
        {
          "internalType": "uint256",
          "name": "lastIncreasedTime",
          "type": "uint256"
        }
      ],
      "stateMutability": "view",
      "type": "function"
    },
    {
      "inputs": [],
      "name": "priceFeed",
      "outputs": [
        {
          "internalType": "address",
          "name": "",
          "type": "address"
        }
      ],
      "stateMutability": "view",
      "type": "function"
    },
    {
      "inputs": [
        {
          "internalType": "address",
          "name": "_router",
          "type": "address"
        }
      ],
      "name": "removeRouter",
      "outputs": [],
      "stateMutability": "nonpayable",
      "type": "function"
    },
    {
      "inputs": [
        {
          "internalType": "address",
          "name": "",
          "type": "address"
        }
      ],
      "name": "reservedAmounts",
      "outputs": [
        {
          "internalType": "uint256",
          "name": "",
          "type": "uint256"
        }
      ],
      "stateMutability": "view",
      "type": "function"
    },
    {
      "inputs": [],
      "name": "router",
      "outputs": [
        {
          "internalType": "address",
          "name": "",
          "type": "address"
        }
      ],
      "stateMutability": "view",
      "type": "function"
    },
    {
      "inputs": [
        {
          "internalType": "address",
          "name": "_token",
          "type": "address"
        },
        {
          "internalType": "address",
          "name": "_receiver",
          "type": "address"
        }
      ],
      "name": "sellUSDP",
      "outputs": [
        {
          "internalType": "uint256",
          "name": "",
          "type": "uint256"
        }
      ],
      "stateMutability": "nonpayable",
      "type": "function"
    },
    {
      "inputs": [
        {
          "internalType": "address",
          "name": "_token",
          "type": "address"
        },
        {
          "internalType": "uint256",
          "name": "_amount",
          "type": "uint256"
        }
      ],
      "name": "setBufferAmount",
      "outputs": [],
      "stateMutability": "nonpayable",
      "type": "function"
    },
    {
      "inputs": [
        {
          "internalType": "uint256",
          "name": "_errorCode",
          "type": "uint256"
        },
        {
          "internalType": "string",
          "name": "_error",
          "type": "string"
        }
      ],
      "name": "setError",
      "outputs": [],
      "stateMutability": "nonpayable",
      "type": "function"
    },
    {
      "inputs": [
        {
          "internalType": "address",
          "name": "_errorController",
          "type": "address"
        }
      ],
      "name": "setErrorController",
      "outputs": [],
      "stateMutability": "nonpayable",
      "type": "function"
    },
    {
      "inputs": [
        {
          "internalType": "uint256",
          "name": "_taxBasisPoints",
          "type": "uint256"
        },
        {
          "internalType": "uint256",
          "name": "_stableTaxBasisPoints",
          "type": "uint256"
        },
        {
          "internalType": "uint256",
          "name": "_mintBurnFeeBasisPoints",
          "type": "uint256"
        },
        {
          "internalType": "uint256",
          "name": "_swapFeeBasisPoints",
          "type": "uint256"
        },
        {
          "internalType": "uint256",
          "name": "_stableSwapFeeBasisPoints",
          "type": "uint256"
        },
        {
          "internalType": "uint256",
          "name": "_marginFeeBasisPoints",
          "type": "uint256"
        },
        {
          "internalType": "uint256",
          "name": "_liquidationFeeUsd",
          "type": "uint256"
        },
        {
          "internalType": "uint256",
          "name": "_minProfitTime",
          "type": "uint256"
        },
        {
          "internalType": "bool",
          "name": "_hasDynamicFees",
          "type": "bool"
        }
      ],
      "name": "setFees",
      "outputs": [],
      "stateMutability": "nonpayable",
      "type": "function"
    },
    {
      "inputs": [
        {
          "internalType": "uint256",
          "name": "_fundingInterval",
          "type": "uint256"
        },
        {
          "internalType": "uint256",
          "name": "_fundingRateFactor",
          "type": "uint256"
        },
        {
          "internalType": "uint256",
          "name": "_stableFundingRateFactor",
          "type": "uint256"
        }
      ],
      "name": "setFundingRate",
      "outputs": [],
      "stateMutability": "nonpayable",
      "type": "function"
    },
    {
      "inputs": [
        {
          "internalType": "address",
          "name": "_gov",
          "type": "address"
        }
      ],
      "name": "setGov",
      "outputs": [],
      "stateMutability": "nonpayable",
      "type": "function"
    },
    {
      "inputs": [
        {
          "internalType": "bool",
          "name": "_inManagerMode",
          "type": "bool"
        }
      ],
      "name": "setInManagerMode",
      "outputs": [],
      "stateMutability": "nonpayable",
      "type": "function"
    },
    {
      "inputs": [
        {
          "internalType": "bool",
          "name": "_inPrivateLiquidationMode",
          "type": "bool"
        }
      ],
      "name": "setInPrivateLiquidationMode",
      "outputs": [],
      "stateMutability": "nonpayable",
      "type": "function"
    },
    {
      "inputs": [
        {
          "internalType": "bool",
          "name": "_isLeverageEnabled",
          "type": "bool"
        }
      ],
      "name": "setIsLeverageEnabled",
      "outputs": [],
      "stateMutability": "nonpayable",
      "type": "function"
    },
    {
      "inputs": [
        {
          "internalType": "bool",
          "name": "_isSwapEnabled",
          "type": "bool"
        }
      ],
      "name": "setIsSwapEnabled",
      "outputs": [],
      "stateMutability": "nonpayable",
      "type": "function"
    },
    {
      "inputs": [
        {
          "internalType": "address",
          "name": "_liquidator",
          "type": "address"
        },
        {
          "internalType": "bool",
          "name": "_isActive",
          "type": "bool"
        }
      ],
      "name": "setLiquidator",
      "outputs": [],
      "stateMutability": "nonpayable",
      "type": "function"
    },
    {
      "inputs": [
        {
          "internalType": "address",
          "name": "_manager",
          "type": "address"
        },
        {
          "internalType": "bool",
          "name": "_isManager",
          "type": "bool"
        }
      ],
      "name": "setManager",
      "outputs": [],
      "stateMutability": "nonpayable",
      "type": "function"
    },
    {
      "inputs": [
        {
          "internalType": "uint256",
          "name": "_maxGasPrice",
          "type": "uint256"
        }
      ],
      "name": "setMaxGasPrice",
      "outputs": [],
      "stateMutability": "nonpayable",
      "type": "function"
    },
    {
      "inputs": [
        {
          "internalType": "address",
          "name": "_token",
          "type": "address"
        },
        {
          "internalType": "uint256",
          "name": "_amount",
          "type": "uint256"
        }
      ],
      "name": "setMaxGlobalShortSize",
      "outputs": [],
      "stateMutability": "nonpayable",
      "type": "function"
    },
    {
      "inputs": [
        {
          "internalType": "uint256",
          "name": "_maxLeverage",
          "type": "uint256"
        }
      ],
      "name": "setMaxLeverage",
      "outputs": [],
      "stateMutability": "nonpayable",
      "type": "function"
    },
    {
      "inputs": [
        {
          "internalType": "address",
          "name": "_priceFeed",
          "type": "address"
        }
      ],
      "name": "setPriceFeed",
      "outputs": [],
      "stateMutability": "nonpayable",
      "type": "function"
    },
    {
      "inputs": [
        {
          "internalType": "address",
          "name": "_token",
          "type": "address"
        },
        {
          "internalType": "uint256",
          "name": "_tokenDecimals",
          "type": "uint256"
        },
        {
          "internalType": "uint256",
          "name": "_tokenWeight",
          "type": "uint256"
        },
        {
          "internalType": "uint256",
          "name": "_minProfitBps",
          "type": "uint256"
        },
        {
          "internalType": "uint256",
          "name": "_maxUsdpAmount",
          "type": "uint256"
        },
        {
          "internalType": "bool",
          "name": "_isStable",
          "type": "bool"
        },
        {
          "internalType": "bool",
          "name": "_isShortable",
          "type": "bool"
        }
      ],
      "name": "setTokenConfig",
      "outputs": [],
      "stateMutability": "nonpayable",
      "type": "function"
    },
    {
      "inputs": [
        {
          "internalType": "address",
          "name": "_token",
          "type": "address"
        },
        {
          "internalType": "uint256",
          "name": "_amount",
          "type": "uint256"
        }
      ],
      "name": "setUsdpAmount",
      "outputs": [],
      "stateMutability": "nonpayable",
      "type": "function"
    },
    {
      "inputs": [
        {
          "internalType": "contract IVaultUtils",
          "name": "_vaultUtils",
          "type": "address"
        }
      ],
      "name": "setVaultUtils",
      "outputs": [],
      "stateMutability": "nonpayable",
      "type": "function"
    },
    {
      "inputs": [
        {
          "internalType": "address",
          "name": "",
          "type": "address"
        }
      ],
      "name": "shortableTokens",
      "outputs": [
        {
          "internalType": "bool",
          "name": "",
          "type": "bool"
        }
      ],
      "stateMutability": "view",
      "type": "function"
    },
    {
      "inputs": [],
      "name": "stableFundingRateFactor",
      "outputs": [
        {
          "internalType": "uint256",
          "name": "",
          "type": "uint256"
        }
      ],
      "stateMutability": "view",
      "type": "function"
    },
    {
      "inputs": [],
      "name": "stableSwapFeeBasisPoints",
      "outputs": [
        {
          "internalType": "uint256",
          "name": "",
          "type": "uint256"
        }
      ],
      "stateMutability": "view",
      "type": "function"
    },
    {
      "inputs": [],
      "name": "stableTaxBasisPoints",
      "outputs": [
        {
          "internalType": "uint256",
          "name": "",
          "type": "uint256"
        }
      ],
      "stateMutability": "view",
      "type": "function"
    },
    {
      "inputs": [
        {
          "internalType": "address",
          "name": "",
          "type": "address"
        }
      ],
      "name": "stableTokens",
      "outputs": [
        {
          "internalType": "bool",
          "name": "",
          "type": "bool"
        }
      ],
      "stateMutability": "view",
      "type": "function"
    },
    {
      "inputs": [
        {
          "internalType": "address",
          "name": "_tokenIn",
          "type": "address"
        },
        {
          "internalType": "address",
          "name": "_tokenOut",
          "type": "address"
        },
        {
          "internalType": "address",
          "name": "_receiver",
          "type": "address"
        }
      ],
      "name": "swap",
      "outputs": [
        {
          "internalType": "uint256",
          "name": "",
          "type": "uint256"
        }
      ],
      "stateMutability": "nonpayable",
      "type": "function"
    },
    {
      "inputs": [],
      "name": "swapFeeBasisPoints",
      "outputs": [
        {
          "internalType": "uint256",
          "name": "",
          "type": "uint256"
        }
      ],
      "stateMutability": "view",
      "type": "function"
    },
    {
      "inputs": [],
      "name": "taxBasisPoints",
      "outputs": [
        {
          "internalType": "uint256",
          "name": "",
          "type": "uint256"
        }
      ],
      "stateMutability": "view",
      "type": "function"
    },
    {
      "inputs": [
        {
          "internalType": "address",
          "name": "",
          "type": "address"
        }
      ],
      "name": "tokenBalances",
      "outputs": [
        {
          "internalType": "uint256",
          "name": "",
          "type": "uint256"
        }
      ],
      "stateMutability": "view",
      "type": "function"
    },
    {
      "inputs": [
        {
          "internalType": "address",
          "name": "",
          "type": "address"
        }
      ],
      "name": "tokenDecimals",
      "outputs": [
        {
          "internalType": "uint256",
          "name": "",
          "type": "uint256"
        }
      ],
      "stateMutability": "view",
      "type": "function"
    },
    {
      "inputs": [
        {
          "internalType": "address",
          "name": "_token",
          "type": "address"
        },
        {
          "internalType": "uint256",
          "name": "_tokenAmount",
          "type": "uint256"
        }
      ],
      "name": "tokenToUsdMin",
      "outputs": [
        {
          "internalType": "uint256",
          "name": "",
          "type": "uint256"
        }
      ],
      "stateMutability": "view",
      "type": "function"
    },
    {
      "inputs": [
        {
          "internalType": "address",
          "name": "",
          "type": "address"
        }
      ],
      "name": "tokenWeights",
      "outputs": [
        {
          "internalType": "uint256",
          "name": "",
          "type": "uint256"
        }
      ],
      "stateMutability": "view",
      "type": "function"
    },
    {
      "inputs": [],
      "name": "totalTokenWeights",
      "outputs": [
        {
          "internalType": "uint256",
          "name": "",
          "type": "uint256"
        }
      ],
      "stateMutability": "view",
      "type": "function"
    },
    {
      "inputs": [
        {
          "internalType": "address",
          "name": "_collateralToken",
          "type": "address"
        },
        {
          "internalType": "address",
          "name": "_indexToken",
          "type": "address"
        }
      ],
      "name": "updateCumulativeFundingRate",
      "outputs": [],
      "stateMutability": "nonpayable",
      "type": "function"
    },
    {
      "inputs": [
        {
          "internalType": "address",
          "name": "_newVault",
          "type": "address"
        },
        {
          "internalType": "address",
          "name": "_token",
          "type": "address"
        },
        {
          "internalType": "uint256",
          "name": "_amount",
          "type": "uint256"
        }
      ],
      "name": "upgradeVault",
      "outputs": [],
      "stateMutability": "nonpayable",
      "type": "function"
    },
    {
      "inputs": [
        {
          "internalType": "address",
          "name": "_token",
          "type": "address"
        },
        {
          "internalType": "uint256",
          "name": "_usdAmount",
          "type": "uint256"
        },
        {
          "internalType": "uint256",
          "name": "_price",
          "type": "uint256"
        }
      ],
      "name": "usdToToken",
      "outputs": [
        {
          "internalType": "uint256",
          "name": "",
          "type": "uint256"
        }
      ],
      "stateMutability": "view",
      "type": "function"
    },
    {
      "inputs": [
        {
          "internalType": "address",
          "name": "_token",
          "type": "address"
        },
        {
          "internalType": "uint256",
          "name": "_usdAmount",
          "type": "uint256"
        }
      ],
      "name": "usdToTokenMax",
      "outputs": [
        {
          "internalType": "uint256",
          "name": "",
          "type": "uint256"
        }
      ],
      "stateMutability": "view",
      "type": "function"
    },
    {
      "inputs": [
        {
          "internalType": "address",
          "name": "_token",
          "type": "address"
        },
        {
          "internalType": "uint256",
          "name": "_usdAmount",
          "type": "uint256"
        }
      ],
      "name": "usdToTokenMin",
      "outputs": [
        {
          "internalType": "uint256",
          "name": "",
          "type": "uint256"
        }
      ],
      "stateMutability": "view",
      "type": "function"
    },
    {
      "inputs": [],
      "name": "usdp",
      "outputs": [
        {
          "internalType": "address",
          "name": "",
          "type": "address"
        }
      ],
      "stateMutability": "view",
      "type": "function"
    },
    {
      "inputs": [
        {
          "internalType": "address",
          "name": "",
          "type": "address"
        }
      ],
      "name": "usdpAmounts",
      "outputs": [
        {
          "internalType": "uint256",
          "name": "",
          "type": "uint256"
        }
      ],
      "stateMutability": "view",
      "type": "function"
    },
    {
      "inputs": [],
      "name": "useSwapPricing",
      "outputs": [
        {
          "internalType": "bool",
          "name": "",
          "type": "bool"
        }
      ],
      "stateMutability": "view",
      "type": "function"
    },
    {
      "inputs": [
        {
          "internalType": "address",
          "name": "_account",
          "type": "address"
        },
        {
          "internalType": "address",
          "name": "_collateralToken",
          "type": "address"
        },
        {
          "internalType": "address",
          "name": "_indexToken",
          "type": "address"
        },
        {
          "internalType": "bool",
          "name": "_isLong",
          "type": "bool"
        },
        {
          "internalType": "bool",
          "name": "_raise",
          "type": "bool"
        }
      ],
      "name": "validateLiquidation",
      "outputs": [
        {
          "internalType": "uint256",
          "name": "",
          "type": "uint256"
        },
        {
          "internalType": "uint256",
          "name": "",
          "type": "uint256"
        }
      ],
      "stateMutability": "view",
      "type": "function"
    },
    {
      "inputs": [],
      "name": "vaultUtils",
      "outputs": [
        {
          "internalType": "contract IVaultUtils",
          "name": "",
          "type": "address"
        }
      ],
      "stateMutability": "view",
      "type": "function"
    },
    {
      "inputs": [],
      "name": "whitelistedTokenCount",
      "outputs": [
        {
          "internalType": "uint256",
          "name": "",
          "type": "uint256"
        }
      ],
      "stateMutability": "view",
      "type": "function"
    },
    {
      "inputs": [
        {
          "internalType": "address",
          "name": "",
          "type": "address"
        }
      ],
      "name": "whitelistedTokens",
      "outputs": [
        {
          "internalType": "bool",
          "name": "",
          "type": "bool"
        }
      ],
      "stateMutability": "view",
      "type": "function"
    },
    {
      "inputs": [
        {
          "internalType": "address",
          "name": "_token",
          "type": "address"
        },
        {
          "internalType": "address",
          "name": "_receiver",
          "type": "address"
        }
      ],
      "name": "withdrawFees",
      "outputs": [
        {
          "internalType": "uint256",
          "name": "",
          "type": "uint256"
        }
      ],
      "stateMutability": "nonpayable",
      "type": "function"
    }
  ],
  "bytecode": {
    "object": "0x60806040526001805462ffff001916620101001781556207a1206008556032600a9081556014600b55601e600c819055600d556004600e55600f556011805460ff191690556170806012556016805463ffffffff1916909117905534801561006657600080fd5b506001600055600680546001600160a01b03191633179055615867806200008e6000396000f3fe608060405234801561001057600080fd5b50600436106107595760003560e01c80638585f4d2116103c9578063c7e074c3116101ff578063e124e6d211610125578063f2555278116100b8578063fbfded6d11610087578063fbfded6d146111cf578063fce28c10146111e2578063fdaf6ac3146111eb578063fed1a606146111fe57600080fd5b8063f255527814611173578063f3ae241514611186578063f887ea40146111a9578063fa12dbc0146111bc57600080fd5b8063eda66f74116100f4578063eda66f741461111a578063efa10a6e1461112d578063f07456ce14611140578063f07bbf771461116057600080fd5b8063e124e6d2146110ce578063e468baf0146110e1578063e67f59a7146110f4578063e695546e1461110757600080fd5b8063d9ac42251161019d578063db97495f1161016c578063db97495f14611096578063dc8f5fac146110a9578063de2ea948146110b2578063df73a267146110c557600080fd5b8063d9ac422514611035578063da76524c1461103e578063daf9c21014611051578063db3555fb1461107457600080fd5b8063d2fa635e116101d9578063d2fa635e14610fc7578063d3127e6314610fda578063d54d5a9f14610fed578063d8f897c31461101557600080fd5b8063c7e074c314610f8e578063cea0c32814610fa1578063cfad57a214610fb457600080fd5b80639f392eb3116102ef578063b06423f311610282578063c3c7b9e911610251578063c3c7b9e914610f25578063c4f718bf14610f45578063c65bc7b114610f4e578063c6baf66114610f6e57600080fd5b8063b06423f314610eda578063b136ca4914610eec578063b1cc53ab14610eff578063b364accb14610f1257600080fd5b8063a93acac2116102be578063a93acac214610e91578063ab08c1c614610ea4578063ab2f3ad414610eb1578063ae3302c214610ed157600080fd5b80639f392eb314610e55578063a22f239214610e62578063a42ab3d214610e6b578063a5e90eee14610e7e57600080fd5b80638f7b8404116103675780639698d25a116103365780639698d25a14610e065780639849e41214610e265780639899cd0214610e2f5780639d7432ca14610e4257600080fd5b80638f7b840414610dba5780639060b1ca14610dcd5780639331621214610de057806395082d2514610df357600080fd5b80638a39735a116103a35780638a39735a146107b05780638a78daa814610d725780638baf820d14610d925780638ee573ac14610d9a57600080fd5b80638585f4d214610d2c57806388b1fbdf14610d3f5780638a27d46814610d5f57600080fd5b806348d91abf1161059e57806362287a32116104c4578063724e78da116104575780637a210a2b116104265780637a210a2b14610cea5780637c2eb9f714610cf357806381a612d614610d0657806382a0849014610d1957600080fd5b8063724e78da14610c9e578063728cdbca14610cb1578063741bef1a14610cc457806374e6076c14610cd757600080fd5b80636abbe0c8116104935780636abbe0c814610c2b5780636ae0b15414610c455780636be6026b14610c8157806371089f4d14610c8b57600080fd5b806362287a3214610bcf5780636274980314610bd85780636616ba9414610bf857806368b528f214610c0b57600080fd5b806351723e821161053c5780635385b2d51161050b5780635385b2d514610b685780635c07eaab14610b7b5780635f7bc11914610b8e5780636092219914610ba157600080fd5b806351723e8214610af2578063523fba7f14610b05578063529a356f14610b2557806352f55eed14610b4857600080fd5b80634a993ee9116105785780634a993ee914610a405780634befe2ca14610a605780634d47b30414610a69578063514ea4bf14610a7257600080fd5b806348d91abf146109ca57806348f35cbb146109dd5780634a3f088d146109f057600080fd5b80632c668ec1116106835780633c5a6e351161062157806342152873116105f0578063421528731461095757806342b60b031461096a5780634453a3741461098d57806345a6f370146109a057600080fd5b80633c5a6e35146109155780633de39c11146109285780633e72a2621461093157806340eb38021461094457600080fd5b8063318bc6891161065d578063318bc689146108ed57806334c1557d146107b0578063351a964d146108f6578063392e53cd1461090857600080fd5b80632c668ec1146108b45780632d4b0576146108c757806330455ede146108da57600080fd5b8063134ca63b116106fb57806324b0c04d116106ca57806324b0c04d1461083a57806324ca984e1461084f57806328e67be51461088e57806329ff9615146108a157600080fd5b8063134ca63b146107e4578063174d2694146107ed578063181e210e146107f65780631ce9cb8f1461081a57600080fd5b80630a48d5a9116107375780630a48d5a91461079457806310eb56c2146107a7578063126082cf146107b057806312d43a51146107b957600080fd5b806304fef1db1461075e57806307c58752146107845780630842b0761461078c575b600080fd5b61077161076c366004614b90565b61121e565b6040519081526020015b60405180910390f35b610771611281565b601b54610771565b6107716107a2366004614bad565b61129b565b610771600b5481565b61077161271081565b6006546107cc906001600160a01b031681565b6040516001600160a01b03909116815260200161077b565b61077160145481565b61077160095481565b60165461080a906301000000900460ff1681565b604051901515815260200161077b565b610771610828366004614b90565b602c6020526000908152604090205481565b61084d610848366004614be7565b6112fe565b005b61084d61085d366004614b90565b3360009081526018602090815260408083206001600160a01b0394909416835292905220805460ff19166001179055565b61084d61089c366004614c04565b611322565b6107716108af366004614b90565b6113a0565b6107716108c2366004614bad565b6113af565b6107716108d5366004614c80565b6113fb565b61084d6108e8366004614be7565b61145d565b610771600f5481565b60015461080a90610100900460ff1681565b60015461080a9060ff1681565b61084d610923366004614cdc565b61147f565b61077160175481565b60015461080a9062010000900460ff1681565b61084d610952366004614d4e565b6115c0565b610771610965366004614dc2565b611683565b61080a610978366004614b90565b601f6020526000908152604090205460ff1681565b61084d61099b366004614e04565b611730565b6109b36109ae366004614c80565b611763565b60408051921515835260208301919091520161077b565b61084d6109d8366004614e3d565b6117f6565b6002546107cc906001600160a01b031681565b610a036109fe366004614c80565b611bc4565b604080519889526020890197909752958701949094526060860192909252608085015260a0840152151560c083015260e08201526101000161077b565b610771610a4e366004614b90565b60276020526000908152604090205481565b6107716101f481565b610771600c5481565b610abd610a80366004614ea5565b602b602052600090815260409020805460018201546002830154600384015460048501546005860154600690960154949593949293919290919087565b604080519788526020880196909652948601939093526060850191909152608084015260a083015260c082015260e00161077b565b610771610b00366004614c80565b611cad565b610771610b13366004614b90565b60216020526000908152604090205481565b61080a610b33366004614b90565b60196020526000908152604090205460ff1681565b610771610b56366004614b90565b60256020526000908152604090205481565b610771610b76366004614b90565b611d52565b6109b3610b89366004614ebe565b611e0f565b61084d610b9c366004614b90565b611f07565b61080a610baf366004614f10565b601860209081526000928352604080842090915290825290205460ff1681565b61077160075481565b610771610be6366004614b90565b602e6020526000908152604090205481565b61084d610c06366004614bad565b611f69565b610771610c19366004614b90565b60236020526000908152604090205481565b6001546107cc90630100000090046001600160a01b031681565b61084d610c53366004614b90565b3360009081526018602090815260408083206001600160a01b0394909416835292905220805460ff19169055565b610771620f424081565b61084d610c99366004614b90565b611fbd565b61084d610cac366004614b90565b611ff1565b61084d610cbf366004614f3e565b61201b565b6004546107cc906001600160a01b031681565b6005546107cc906001600160a01b031681565b610771600a5481565b61084d610d01366004614be7565b612092565b610771610d14366004614b90565b6120b6565b610771610d27366004614fa3565b612152565b61084d610d3a366004614bad565b612188565b610771610d4d366004614b90565b601e6020526000908152604090205481565b61084d610d6d366004615017565b6121ac565b610771610d80366004614b90565b602d6020526000908152604090205481565b610771601281565b610771610da8366004614b90565b601d6020526000908152604090205481565b61084d610dc8366004614b90565b6121f2565b60165461080a9062010000900460ff1681565b610771610dee366004615043565b61221c565b61077168327cb2734119d3b7a9601e1b81565b610771610e14366004614b90565b602f6020526000908152604090205481565b61077160125481565b610771610e3d366004614bad565b6124c3565b610771610e50366004615073565b6124e3565b60115461080a9060ff1681565b610771600d5481565b610771610e79366004614bad565b61259a565b61084d610e8c366004614e04565b6125ba565b610771610e9f366004614b90565b6125ed565b60165461080a9060ff1681565b610771610ebf366004614b90565b60226020526000908152604090205481565b61077160085481565b60165461080a90610100900460ff1681565b610771610efa366004614b90565b6126f8565b610771610f0d3660046150a8565b612796565b6109b3610f20366004614b90565b61281c565b610771610f33366004614b90565b60266020526000908152604090205481565b61077160135481565b610771610f5c366004614b90565b60296020526000908152604090205481565b610771610f7c366004614b90565b60246020526000908152604090205481565b610771610f9c3660046150e8565b6128bb565b61084d610faf366004615130565b61294f565b61084d610fc2366004614b90565b61296b565b61084d610fd5366004614ea5565b612995565b61084d610fe8366004614ea5565b6129a2565b611000610ffb366004615171565b6129be565b6040805192835260208301919091520161077b565b610771611023366004614b90565b602a6020526000908152604090205481565b61077160105481565b61077161104c3660046151d4565b612a66565b61080a61105f366004614b90565b601c6020526000908152604090205460ff1681565b61080a611082366004614b90565b602080526000908152604090205460ff1681565b6107716110a4366004615242565b612b02565b61077160155481565b61084d6110c03660046152a7565b612b9a565b610771600e5481565b6107716110dc366004614b90565b612f25565b6107cc6110ef366004614ea5565b612f83565b61084d611102366004614b90565b612fad565b610771611115366004614f10565b613082565b610771611128366004614f10565b61330a565b61084d61113b366004614bad565b613548565b61077161114e366004614b90565b60286020526000908152604090205481565b61084d61116e366004614be7565b61356c565b610771611181366004614f10565b613592565b61080a611194366004614b90565b601a6020526000908152604090205460ff1681565b6003546107cc906001600160a01b031681565b6107716111ca366004615073565b6135eb565b61084d6111dd366004614f10565b61362c565b610771610e1081565b6107716111f936600461530a565b613805565b61121161120c366004614ea5565b61385e565b60405161077b9190615381565b6001600160a01b0381166000908152602560205260408120548082036112475750600092915050565b6001600160a01b038316600090815260266020526040902054819061127090620f4240906153ca565b61127a91906153e1565b9392505050565b61129868327cb2734119d3b7a9601e1b60646153ca565b81565b6000816000036112ad575060006112f8565b60006112b8846120b6565b6001600160a01b0385166000908152601d60205260409020549091506112df81600a6154e7565b6112e983866153ca565b6112f391906153e1565b925050505b92915050565b6113066138f8565b60168054911515620100000262ff000019909216919091179055565b6002546001600160a01b031633146113815760405162461bcd60e51b815260206004820152601e60248201527f5661756c743a20696e76616c6964206572726f72436f6e74726f6c6c6572000060448201526064015b60405180910390fd5b600083815260306020526040902061139a828483615591565b50505050565b60006112f8826107a2846126f8565b6000806113bb84612f25565b90506000816113d668327cb2734119d3b7a9601e1b866153ca565b6113e091906153e1565b6005549091506112f39082906001600160a01b031687611683565b6040516bffffffffffffffffffffffff19606086811b8216602084015285811b8216603484015284901b16604882015281151560f81b605c820152600090605d016040516020818303038152906040528051906020012090505b949350505050565b6114656138f8565b600180549115156101000261ff0019909216919091179055565b6114876138f8565b6001600160a01b0387166000908152601c602052604090205460ff16611504576007546114b5906001615651565b600755601b80546001810182556000919091527f3ad8aa4f87544323a9d1e5dd902f40c356527a7955687113db5f9a85ad579dc10180546001600160a01b0319166001600160a01b0389161790555b6015546001600160a01b03881660009081526022602052604090205461152a9082615664565b6001600160a01b0389166000908152601c602090815260408083208054600160ff1991821617909155601d83528184208c9055602283528184208b9055601e83528184208a905560248352818420899055601f835281842080548216891515179055918052909120805490911684151517905590506115a98682615651565b6015556115b588612f25565b505050505050505050565b6115c86138f8565b6115d86101f48a11156003613913565b6115e86101f48911156004613913565b6115f86101f48811156005613913565b6116086101f48711156006613913565b6116186101f48611156007613913565b6116286101f48511156008613913565b61164c61164268327cb2734119d3b7a9601e1b60646153ca565b8411156009613913565b600a98909855600b96909655600c94909455600d92909255600e55600f556009556010556011805460ff1916911515919091179055565b60055460009081906001600160a01b038581169116146116bb576001600160a01b0384166000908152601d60205260409020546116be565b60125b6005549091506000906001600160a01b038581169116146116f7576001600160a01b0384166000908152601d60205260409020546116fa565b60125b905061170782600a6154e7565b61171282600a6154e7565b61171c90886153ca565b61172691906153e1565b9695505050505050565b6117386138f8565b6001600160a01b03919091166000908152601960205260409020805460ff1916911515919091179055565b6000806000611774878787876113fb565b6000818152602b6020908152604091829020825160e081018452815480825260018301549382019390935260028201549381018490526003820154606082015260048201546080820152600582015460a082015260069091015460c08201819052939450926117e7928992918990611e0f565b93509350505094509492505050565b6117fe61393f565b6001546118159062010000900460ff16601c613913565b61181d613969565b61182685613985565b6118318484836139df565b600154604051634eae147d60e11b81526001600160a01b03878116600483015286811660248301528581166044830152606482018590528315156084830152630100000090920490911690639d5c28fa9060a40160006040518083038186803b15801561189d57600080fd5b505afa1580156118b1573d6000803e3d6000fd5b505050506118bf848461362c565b60006118cd868686856113fb565b6000818152602b60205260408120919250836118f1576118ec866120b6565b6118fa565b6118fa86612f25565b825490915060000361190e57600282018190555b81541580159061191e5750600085115b156119445761193e868360000154846002015487858a8860060154612b02565b60028301555b600061195d898989888a88600001548960030154613aef565b9050600061196a89613bbf565b905060006119788a8361129b565b905080856001015461198a9190615651565b6001860181905561199f90841115601d613913565b8285600101546119af9190615664565b60018601556119bf8a8a89612796565b600386015584546119d1908990615651565b8086554260068701556119e7901515601e613913565b6119f985600001548660010154613c63565b611a078b8b8b8a60016129be565b50506000611a158b8a61259a565b9050808660040154611a279190615651565b6004870155611a368b82613c89565b8715611a7b57611a4f8b611a4a868c615651565b613ce2565b611a598b83613d26565b611a638b84613d4a565b611a768b611a718d876124c3565b613e11565b611ae9565b6001600160a01b038a166000908152602d60205260408120549003611aba576001600160a01b038a166000908152602e60205260409020859055611adf565b611ac58a868b6124e3565b6001600160a01b038b166000908152602e60205260409020555b611ae98a8a613e68565b7f2fe68525253654c21998f35787a8d0f361905ef647c854092430ab65f2f15022878d8d8d868e8e8c8c604051611b2899989796959493929190615677565b60405180910390a1855460018701546002880154600389015460048a015460058b0154604080518e815260208101979097528601949094526060850192909252608084015260a083015260c082015260e081018690527f20853733b590dce729d9f4628682ebd9a34d2354e72679e66f43a008fc03b773906101000160405180910390a150505050505050611bbd6001600055565b5050505050565b6000806000806000806000806000611bde8d8d8d8d6113fb565b6000818152602b60209081526040808320815160e081018352815481526001820154938101939093526002810154918301919091526003810154606083015260048101546080830152600581015460a0830181905260069091015460c0830152929350918112611c5b578160a00151611c56906156c5565b611c61565b8160a001515b9050816000015182602001518360400151846060015185608001518560008860a0015112158860c001519a509a509a509a509a509a509a509a5050505094995094995094999196509450565b600080611cbc868686866113fb565b6000818152602b6020908152604091829020825160e0810184528154815260018201549281018390526002820154938101939093526003810154606084015260048101546080840152600581015460a08401526006015460c083015291925090611d299015156025613913565b60208101518151611d3d90612710906153ca565b611d4791906153e1565b979650505050505050565b600080600560009054906101000a90046001600160a01b03166001600160a01b03166318160ddd6040518163ffffffff1660e01b8152600401602060405180830381865afa158015611da8573d6000803e3d6000fd5b505050506040513d601f19601f82011682018060405250810190611dcc91906156e1565b905080600003611ddf5750600092915050565b6001600160a01b038316600090815260226020526040902054601554611e0583836153ca565b61145591906153e1565b600080611e20600086116026613913565b600084611e3557611e3088612f25565b611e3e565b611e3e886120b6565b90506000818711611e5857611e538783615664565b611e62565b611e628288615664565b9050600087611e71838b6153ca565b611e7b91906153e1565b905060008715611e8e5750878311611e93565b508288115b600060105488611ea39190615651565b4211611ec7576001600160a01b038c166000908152601e6020526040902054611eca565b60005b9050818015611eed5750611ede818c6153ca565b611eea612710856153ca565b11155b15611ef757600092505b509a909950975050505050505050565b611f0f61393f565b6001600160a01b0381166000908152601c6020526040902054611f369060ff16600e613913565b6000611f4182613bbf565b9050611f5160008211600f613913565b611f5b8282613d4a565b50611f666001600055565b50565b611f716138f8565b6001600160a01b03821660009081526023602052604090205480821115611faa57611fa583611fa08385615664565b613f1f565b505050565b611fa583611fb88484615664565b613f95565b611fc56138f8565b600180546001600160a01b039092166301000000026301000000600160b81b0319909216919091179055565b611ff96138f8565b600480546001600160a01b0319166001600160a01b0392909216919091179055565b6120236138f8565b600180546120379160ff9091161590613913565b6001805460ff191681179055600380546001600160a01b03199081166001600160a01b039889161790915560058054821696881696909617909555600480549095169390951692909217909255600991909155601355601455565b61209a6138f8565b60018054911515620100000262ff000019909216919091179055565b600480546016546040516317e1d38560e11b81526001600160a01b038581169482019490945260006024820181905260ff8084161515604484015261010090930490921615156064820152909290911690632fc3a70a906084015b602060405180830381865afa15801561212e573d6000803e3d6000fd5b505050506040513d601f19601f820116820180604052508101906112f891906156e1565b600061215c61393f565b612164613969565b61216d88613985565b61217c88888888888888613ffc565b9050611d476001600055565b6121906138f8565b6001600160a01b03909116600090815260276020526040902055565b6121b46138f8565b6121c4610e10841015600a613913565b6121d4612710831115600b613913565b6121e4612710821115600c613913565b601292909255601355601455565b6121fa6138f8565b600280546001600160a01b0319166001600160a01b0392909216919091179055565b600061222661393f565b60015461223c90610100900460ff166017613913565b6001600160a01b0384166000908152601c60205260409020546122639060ff166018613913565b6001600160a01b0383166000908152601c602052604090205461228a9060ff166019613913565b6122aa836001600160a01b0316856001600160a01b03161415601a613913565b6016805461ff0019166101001790556122c3848061362c565b6122cd838461362c565b60006122d885613bbf565b90506122e860008211601b613913565b60006122f3866120b6565b9050600061230086612f25565b905060008161230f84866153ca565b61231991906153e1565b9050612326818989611683565b9050600068327cb2734119d3b7a9601e1b61234185876153ca565b61234b91906153e1565b6005549091506123679082908b906001600160a01b0316611683565b600154604051636d099c0b60e11b81526001600160a01b038c811660048301528b811660248301526044820184905292935060009263010000009092049091169063da13381690606401602060405180830381865afa1580156123ce573d6000803e3d6000fd5b505050506040513d601f19601f820116820180604052508101906123f291906156e1565b905060006124018a8584614440565b905061240d8b84613f1f565b6124178a84613f95565b6124218b88613d4a565b61242b8a85613e11565b6124348a614510565b61243f8a828b614583565b604080516001600160a01b038b811682528d811660208301528c1681830152606081018990526080810186905260a0810183905260c0810184905290517f0874b2d545cb271cdbda4e093020c452328b24af12382ed62c4d00f5c26709db9181900360e00190a16016805461ff0019169055965050505050505061127a6001600055565b6000816000036124d5575060006112f8565b61127a83836111ca86612f25565b6001600160a01b0383166000908152602d6020908152604080832054602e9092528220548285821161251e576125198287615664565b612528565b6125288683615664565b905060008261253783866153ca565b61254191906153e1565b9050868311600061255288876153ca565b905060008261256a576125658483615651565b612574565b6125748483615664565b905080612581838c6153ca565b61258b91906153e1565b9b9a5050505050505050505050565b6000816000036125ac575060006112f8565b61127a83836111ca866120b6565b6125c26138f8565b6001600160a01b03919091166000908152601a60205260409020805460ff1916911515919091179055565b6012546001600160a01b0382166000908152602a6020526040812054909142916126179190615651565b111561262557506000919050565b6012546001600160a01b0383166000908152602a602052604081205490919061264e9042615664565b61265891906153e1565b6001600160a01b038416600090815260256020526040812054919250819003612685575060009392505050565b6001600160a01b0384166000908152601f602052604081205460ff166126ad576013546126b1565b6014545b6001600160a01b038616600090815260266020526040902054909150829084906126db90846153ca565b6126e591906153ca565b6126ef91906153e1565b95945050505050565b6001600160a01b0381166000908152601f602052604081205460ff161561273557506001600160a01b031660009081526025602052604090205490565b6001600160a01b0382166000908152602860205260408120546127599084906124c3565b6001600160a01b0384166000908152602660209081526040808320546025909252909120549192509061278c9083615651565b61127a9190615664565b60015460405163b1cc53ab60e01b81526001600160a01b0385811660048301528481166024830152831515604483015260009263010000009004169063b1cc53ab90606401602060405180830381865afa1580156127f8573d6000803e3d6000fd5b505050506040513d601f19601f8201168201806040525081019061145591906156e1565b6001600160a01b0381166000908152602d6020526040812054819080820361284a5750600093849350915050565b600061285585612f25565b6001600160a01b0386166000908152602e6020526040812054919250828211612887576128828284615664565b612891565b6128918383615664565b90506000826128a083876153ca565b6128aa91906153e1565b939092119792965091945050505050565b60015460405163c7e074c360e01b81526001600160a01b038781166004830152602482018790526044820186905260648201859052831515608483015260009263010000009004169063c7e074c39060a4015b602060405180830381865afa15801561292b573d6000803e3d6000fd5b505050506040513d601f19601f8201168201806040525081019061172691906156e1565b6129576138f8565b611fa56001600160a01b0383168483614620565b6129736138f8565b600680546001600160a01b0319166001600160a01b0392909216919091179055565b61299d6138f8565b601755565b6129aa6138f8565b6129b961271082116002613913565b600855565b60015460405163d54d5a9f60e01b81526001600160a01b0387811660048301528681166024830152858116604483015284151560648301528315156084830152600092839263010000009091049091169063d54d5a9f9060a4016040805180830381865afa158015612a34573d6000803e3d6000fd5b505050506040513d601f19601f82011682018060405250810190612a5891906156fa565b915091509550959350505050565b60015460405163369d949360e21b81526001600160a01b0388811660048301528781166024830152868116604483015285151560648301526084820185905260a4820184905260009263010000009004169063da76524c9060c401602060405180830381865afa158015612ade573d6000803e3d6000fd5b505050506040513d601f19601f82011682018060405250810190611d4791906156e1565b6000806000612b148a8a8a8a88611e0f565b90925090506000612b25868b615651565b905060008815612b545783612b4357612b3e8383615664565b612b4d565b612b4d8383615651565b9050612b75565b83612b6857612b638383615651565b612b72565b612b728383615664565b90505b80612b80838a6153ca565b612b8a91906153e1565b9c9b505050505050505050505050565b612ba261393f565b6016546301000000900460ff1615612bd25733600090815260196020526040902054612bd29060ff166022613913565b6016805460ff19169055612be6848461362c565b6000612bf4868686866113fb565b6000818152602b6020908152604091829020825160e08101845281548082526001830154938201939093526002820154938101939093526003810154606084015260048101546080840152600581015460a08401526006015460c083015291925090612c639015156023613913565b600080612c748989898960006129be565b91509150612c8782600014156024613913565b81600203612cbb57612ca3898989600087600001518b8f613ffc565b50506016805460ff1916600117905550612f1b915050565b6000612cc789836124c3565b6001600160a01b038a166000908152602c6020526040902054909150612cee908290615651565b6001600160a01b038a166000818152602c60209081526040918290209390935580519182529181018490529081018290527f5d0c0019d3d45fadeb74eff9d2c9924d146d000ac6bcf3c28bf0ac3c9baa011a9060600160405180910390a1612d5a898560800151614672565b8615612d8b57612d7d8985602001518660000151612d789190615664565b613d26565b612d8b89611a718b856124c3565b600087612da057612d9b89612f25565b612da9565b612da9896120b6565b90507f2e1f85a64a2f22cf2f0c42584e7c919ed4abe8d53675cff0f62bf1e95a1c676f868c8c8c8c8a600001518b602001518c608001518d60a001518a604051612e4b9a99989796959493929190998a526001600160a01b0398891660208b015296881660408a0152949096166060880152911515608087015260a086015260c085015260e08401929092526101008301919091526101208201526101400190565b60405180910390a187158015612e645750846020015183105b15612e92576000838660200151612e7b9190615664565b9050612e908b612e8b8d846124c3565b613d4a565b505b87612ea557612ea58986600001516146b6565b6000868152602b60205260408120818155600181018290556002810182905560038101829055600481018290556005810182905560060155600954612ef1908b90611a719082906124c3565b612f078a612f018c6009546124c3565b89614583565b50506016805460ff19166001179055505050505b611bbd6001600055565b600480546016546040516317e1d38560e11b81526001600160a01b03858116948201949094526001602482015260ff808316151560448301526101009092049091161515606482015260009290911690632fc3a70a90608401612111565b601b8181548110612f9357600080fd5b6000918252602090912001546001600160a01b0316905081565b612fb56138f8565b6001600160a01b0381166000908152601c6020526040902054612fdc9060ff16600d613913565b6001600160a01b0381166000908152602260205260409020546015546130029190615664565b6015556001600160a01b0381166000908152601c60209081526040808320805460ff19908116909155601d835281842084905560228352818420849055601e835281842084905560248352818420849055601f83528184208054821690559180529091208054909116905560075461307c90600190615664565b60075550565b600061308c61393f565b61309461471e565b6001600160a01b0383166000908152601c60205260409020546130bb9060ff166010613913565b6016805461ff00191661010017905560006130d584613bbf565b90506130e5600082116011613913565b6130ef848561362c565b60006130fa856120b6565b9050600068327cb2734119d3b7a9601e1b61311583856153ca565b61311f91906153e1565b60055490915061313b90829088906001600160a01b0316611683565b905061314b600082116012613913565b6001546040516338dd20af60e11b81526001600160a01b038881166004830152602482018490526000926301000000900416906371ba415e90604401602060405180830381865afa1580156131a4573d6000803e3d6000fd5b505050506040513d601f19601f820116820180604052508101906131c891906156e1565b905060006131d7888684614440565b9050600068327cb2734119d3b7a9601e1b6131f286846153ca565b6131fc91906153e1565b6005549091506132189082908b906001600160a01b0316611683565b90506132248982613f1f565b61322e8983613d4a565b6005546040516340c10f1960e01b81526001600160a01b038a8116600483015260248201849052909116906340c10f1990604401600060405180830381600087803b15801561327c57600080fd5b505af1158015613290573d6000803e3d6000fd5b5050604080516001600160a01b03808d1682528d16602082015290810189905260608101849052608081018690527f892688465d895beb1d8bdd5e01a638b349b056174bc0eef0d6f622d77cf58604925060a001905060405180910390a16016805461ff0019169055955050505050506112f86001600055565b600061331461393f565b61331c61471e565b6001600160a01b0383166000908152601c60205260409020546133439060ff166013613913565b6016805461ff00191661010017905560055460009061336a906001600160a01b0316613bbf565b905061337a600082116014613913565b613384848561362c565b600061339085836113af565b90506133a0600082116015613913565b6133aa8583613f95565b6133b48582613e11565b600554604051632770a7eb60e21b8152306004820152602481018490526001600160a01b0390911690639dc29fac90604401600060405180830381600087803b15801561340057600080fd5b505af1158015613414573d6000803e3d6000fd5b505060055461342e92506001600160a01b0316905061474d565b600154604051632d9cb64960e11b81526001600160a01b03878116600483015260248201859052600092630100000090041690635b396c9290604401602060405180830381865afa158015613487573d6000803e3d6000fd5b505050506040513d601f19601f820116820180604052508101906134ab91906156e1565b905060006134ba878484614440565b90506134ca600082116016613913565b6134d5878288614583565b604080516001600160a01b0380891682528916602082015290810185905260608101829052608081018390527f77d652ae2906830c7e074a965ed97f1163b917f9db7ba0ff264bc039af7f67df9060a00160405180910390a16016805461ff001916905593505050506112f86001600055565b6135506138f8565b6001600160a01b039091166000908152602f6020526040902055565b6135746138f8565b6016805491151563010000000263ff00000019909216919091179055565b600061359c6138f8565b6001600160a01b0383166000908152602c6020526040812054908190036135c75760009150506112f8565b6001600160a01b0384166000908152602c602052604081205561127a848285614583565b6000826000036135fd5750600061127a565b6001600160a01b0384166000908152601d60205260409020548261362282600a6154e7565b6126e590866153ca565b60015460405163fbfded6d60e01b81526001600160a01b038481166004830152838116602483015260009263010000009004169063fbfded6d906044016020604051808303816000875af1158015613688573d6000803e3d6000fd5b505050506040513d601f19601f820116820180604052508101906136ac919061571e565b9050806136b857505050565b6001600160a01b0383166000908152602a6020526040812054900361370f576012546136e481426153e1565b6136ee91906153ca565b6001600160a01b039093166000908152602a60205260409020929092555050565b6012546001600160a01b0384166000908152602a6020526040902054429161373691615651565b111561374157505050565b600061374c846125ed565b6001600160a01b038516600090815260296020526040902054909150613773908290615651565b6001600160a01b03851660009081526029602052604090205560125461379981426153e1565b6137a391906153ca565b6001600160a01b0385166000818152602a60209081526040808320949094556029815290839020548351928352908201527fa146fc154e1913322e9817d49f0d5c37466c24326e15de10e739a948be815eab910160405180910390a150505050565b60015460405163fdaf6ac360e01b81526001600160a01b0387811660048301528681166024830152858116604483015284151560648301526084820184905260009263010000009004169063fdaf6ac39060a40161290e565b6030602052600090815260409020805461387790615509565b80601f01602080910402602001604051908101604052809291908181526020018280546138a390615509565b80156138f05780601f106138c5576101008083540402835291602001916138f0565b820191906000526020600020905b8154815290600101906020018083116138d357829003601f168201915b505050505081565b600654613911906001600160a01b031633146035613913565b565b600081815260306020526040902082611fa55760405162461bcd60e51b8152600401611378919061573b565b60026000540361396257604051633ee5aeb560e01b815260040160405180910390fd5b6002600055565b60175460000361397557565b6139116017543a11156037613913565b6001600160a01b03811633036139985750565b6003546001600160a01b031633036139ad5750565b6001600160a01b0381166000908152601860209081526040808320338452909152902054611f669060ff166029613913565b8015613a5357613a04826001600160a01b0316846001600160a01b031614602a613913565b6001600160a01b0383166000908152601c6020526040902054613a2b9060ff16602b613913565b6001600160a01b0383166000908152601f6020526040902054611fa59060ff1615602c613913565b6001600160a01b0383166000908152601c6020526040902054613a7a9060ff16602d613913565b6001600160a01b0383166000908152601f6020526040902054613aa19060ff16602e613913565b6001600160a01b0382166000908152601f6020526040902054613ac99060ff1615602f613913565b6001600160a01b0382166000908152602080526040902054611fa59060ff166030613913565b600080613aff8989898989613805565b90506000613b118a8a8a8a8989612a66565b9050613b1d8183615651565b91506000613b2b8a846124c3565b6001600160a01b038b166000908152602c6020526040902054909150613b52908290615651565b6001600160a01b038b166000818152602c60209081526040918290209390935580519182529181018590529081018290527f5d0c0019d3d45fadeb74eff9d2c9924d146d000ac6bcf3c28bf0ac3c9baa011a9060600160405180910390a150909998505050505050505050565b6001600160a01b0381166000818152602160205260408082205490516370a0823160e01b8152306004820152919290918391906370a0823190602401602060405180830381865afa158015613c18573d6000803e3d6000fd5b505050506040513d601f19601f82011682018060405250810190613c3c91906156e1565b6001600160a01b038516600090815260216020526040902081905590506114558282615664565b81600003613c7b57613c7781156027613913565b5050565b613c77818310156028613913565b6001600160a01b038216600090815260266020526040902054613cad908290615651565b6001600160a01b038316600090815260266020818152604080842085905560258252909220549152613c779111156034613913565b6001600160a01b038216600090815260286020526040902054613d06908290615651565b6001600160a01b0390921660009081526028602052604090209190915550565b6001600160a01b038216600090815260286020526040902054613d06908290615664565b6001600160a01b038216600090815260256020526040902054613d6e908290615651565b6001600160a01b0383166000818152602560205260408082209390935591516370a0823160e01b81523060048201526370a0823190602401602060405180830381865afa158015613dc3573d6000803e3d6000fd5b505050506040513d601f19601f82011682018060405250810190613de791906156e1565b6001600160a01b038416600090815260256020526040902054909150611fa5908210156031613913565b6001600160a01b038216600090815260256020526040902054613e35908290615664565b6001600160a01b03831660009081526025602090815260408083208490556026909152902054613c779110156032613913565b6001600160a01b0382166000908152602d6020526040902054613e8c908290615651565b6001600160a01b0383166000908152602d6020908152604080832093909355602f905220548015611fa5576001600160a01b0383166000908152602d6020526040902054811015611fa55760405162461bcd60e51b815260206004820152601a60248201527f5661756c743a206d61782073686f7274732065786365656465640000000000006044820152606401611378565b6001600160a01b038216600090815260236020526040902054613f43908290615651565b6001600160a01b0383166000908152602360209081526040808320939093556024905220548015611fa5576001600160a01b038316600090815260236020526040902054611fa5908210156033613913565b6001600160a01b038216600090815260236020526040902054818111613fd15750506001600160a01b0316600090815260236020526040812055565b613fdb8282615664565b6001600160a01b039093166000908152602360205260409020929092555050565b6001546040516381d11a2360e01b81526001600160a01b03898116600483015288811660248301528781166044830152606482018790526084820186905284151560a483015283811660c48301526000926301000000900416906381d11a239060e40160006040518083038186803b15801561407757600080fd5b505afa15801561408b573d6000803e3d6000fd5b50505050614099878761362c565b60006140a7898989876113fb565b6000818152602b602052604090208054919250906140c8901515601f613913565b6140da86826000015410156020613913565b6140ec87826001015410156021613913565b60018101548154600483015460009190614107908a906153ca565b61411191906153e1565b90508083600401546141239190615664565b60048401556141328b82614672565b506000806141448d8d8d8d8d8d6147d8565b8554919350915089146142a65761415c8c8c8a612796565b6003850155835461416e908a90615664565b80855560018501546141809190613c63565b61418e8d8d8d8b60016129be565b505087156141b4576141aa8c856001015485611a4a9190615664565b6141b48c8a613d26565b6000886141c9576141c48c612f25565b6141d2565b6141d28c6120b6565b90507f93d75d64d1f84fc6f430a64fc578bdd4c1e090e90ea2d51773e626d19de56d30868f8f8f8f8f8f886142078b8d615664565b60405161421c99989796959493929190615677565b60405180910390a18454600186015460028701546003880154600489015460058a0154604080518d815260208101979097528601949094526060850192909252608084015260a083015260c082015260e081018290527f20853733b590dce729d9f4628682ebd9a34d2354e72679e66f43a008fc03b773906101000160405180910390a1506143de565b87156142c0576142b68c84613ce2565b6142c08c8a613d26565b6000886142d5576142d08c612f25565b6142de565b6142de8c6120b6565b90507f93d75d64d1f84fc6f430a64fc578bdd4c1e090e90ea2d51773e626d19de56d30868f8f8f8f8f8f886143138b8d615664565b60405161432899989796959493929190615677565b60405180910390a18454600186015460028701546003880154600489015460058a0154604080518d815260208101979097528601949094526060850192909252608084015260a083015260c08201527f73af1d417d82c240fdb6d319b34ad884487c6bf2845d98980cc52ad9171cb4559060e00160405180910390a1506000858152602b602052604081208181556001810182905560028101829055600381018290556004810182905560058101829055600601555b876143ed576143ed8b8a6146b6565b811561442d578715614407576144078c611a718e856124c3565b60006144138d836124c3565b90506144208d828a614583565b9550611d47945050505050565b5060009c9b505050505050505050505050565b6000806127106144508482615664565b61445a90866153ca565b61446491906153e1565b905060006144728286615664565b6001600160a01b0387166000908152602c6020526040902054909150614499908290615651565b6001600160a01b0387166000908152602c60205260409020557f47cd9dda0e50ce30bcaaacd0488452b596221c07ac402a581cfae4d3933cac2b866144de818461129b565b604080516001600160a01b0390931683526020830191909152810183905260600160405180910390a150949350505050565b6001600160a01b0381166000908152602760209081526040808320546025909252909120541015611f665760405162461bcd60e51b815260206004820152601a60248201527f5661756c743a20706f6f6c416d6f756e74203c206275666665720000000000006044820152606401611378565b6145976001600160a01b0384168284614620565b6040516370a0823160e01b81523060048201526001600160a01b038416906370a0823190602401602060405180830381865afa1580156145db573d6000803e3d6000fd5b505050506040513d601f19601f820116820180604052508101906145ff91906156e1565b6001600160a01b039093166000908152602160205260409020929092555050565b604080516001600160a01b038416602482015260448082018490528251808303909101815260649091019091526020810180516001600160e01b031663a9059cbb60e01b179052611fa59084906149f0565b6001600160a01b038216600090815260266020526040902054614696908290615664565b6001600160a01b0390921660009081526026602052604090209190915550565b6001600160a01b0382166000908152602d6020526040902054808211156146f35750506001600160a01b03166000908152602d6020526040812055565b6146fd8282615664565b6001600160a01b039093166000908152602d60205260409020929092555050565b60165462010000900460ff161561391157336000908152601a60205260409020546139119060ff166036613913565b6040516370a0823160e01b81523060048201526000906001600160a01b038316906370a0823190602401602060405180830381865afa158015614794573d6000803e3d6000fd5b505050506040513d601f19601f820116820180604052508101906147b891906156e1565b6001600160a01b0390921660009081526021602052604090209190915550565b60008060006147e9898989876113fb565b6000818152602b60205260408120805460038201549394509092614816918d918d918d918b918d91613aef565b90506000806000806148378d876000015488600201548d8a60060154611e0f565b8754919550859350915061484b828d6153ca565b61485591906153e1565b9250505060008280156148685750600082115b156148a45781905081856005015461488091906157c6565b6005860155886148a45760006148968e846124c3565b90506148a28e82613e11565b505b821580156148b25750600082115b15614901578185600101546148c79190615664565b6001860155886148eb5760006148dd8e846124c3565b90506148e98e82613d4a565b505b8185600501546148fb91906157ee565b60058601555b8a15614929576149118b82615651565b90508a85600101546149239190615664565b60018601555b84548a900361494b5760018501546149419082615651565b6000600187015590505b80848111156149655761495e8583615664565b905061499a565b8486600101546149759190615664565b6001870155891561499a57600061498c8f876124c3565b90506149988f82613e11565b505b6040805188815285151560208201529081018490527f3ff41bdde87755b687ae83d0221a232b6be51a803330ed9661c1b5d0105e0d8a9060600160405180910390a1909e909d509b505050505050505050505050565b6000614a056001600160a01b03841683614a53565b90508051600014158015614a2a575080806020019051810190614a28919061571e565b155b15611fa557604051635274afe760e01b81526001600160a01b0384166004820152602401611378565b606061127a83836000614a64614a7d565b604051630a12f52160e11b815260040160405180910390fd5b606082471015614aa25760405163cd78605960e01b8152306004820152602401611378565b600080866001600160a01b03168587604051614abe9190615815565b60006040518083038185875af1925050503d8060008114614afb576040519150601f19603f3d011682016040523d82523d6000602084013e614b00565b606091505b5091509150611d478783838760608315614b5a578251600003614b5357846001600160a01b03163b600003614b5357604051639996b31560e01b81526001600160a01b0386166004820152602401611378565b5081611455565b6114558383815115614b6f5781518083602001fd5b614a648163ffffffff16565b6001600160a01b0381168114611f6657600080fd5b600060208284031215614ba257600080fd5b813561127a81614b7b565b60008060408385031215614bc057600080fd5b8235614bcb81614b7b565b946020939093013593505050565b8015158114611f6657600080fd5b600060208284031215614bf957600080fd5b813561127a81614bd9565b600080600060408486031215614c1957600080fd5b83359250602084013567ffffffffffffffff80821115614c3857600080fd5b818601915086601f830112614c4c57600080fd5b813581811115614c5b57600080fd5b876020828501011115614c6d57600080fd5b6020830194508093505050509250925092565b60008060008060808587031215614c9657600080fd5b8435614ca181614b7b565b93506020850135614cb181614b7b565b92506040850135614cc181614b7b565b91506060850135614cd181614bd9565b939692955090935050565b600080600080600080600060e0888a031215614cf757600080fd5b8735614d0281614b7b565b96506020880135955060408801359450606088013593506080880135925060a0880135614d2e81614bd9565b915060c0880135614d3e81614bd9565b8091505092959891949750929550565b60008060008060008060008060006101208a8c031215614d6d57600080fd5b8935985060208a0135975060408a0135965060608a0135955060808a0135945060a08a0135935060c08a0135925060e08a013591506101008a0135614db181614bd9565b809150509295985092959850929598565b600080600060608486031215614dd757600080fd5b833592506020840135614de981614b7b565b91506040840135614df981614b7b565b809150509250925092565b60008060408385031215614e1757600080fd5b8235614e2281614b7b565b91506020830135614e3281614bd9565b809150509250929050565b600080600080600060a08688031215614e5557600080fd5b8535614e6081614b7b565b94506020860135614e7081614b7b565b93506040860135614e8081614b7b565b9250606086013591506080860135614e9781614bd9565b809150509295509295909350565b600060208284031215614eb757600080fd5b5035919050565b600080600080600060a08688031215614ed657600080fd5b8535614ee181614b7b565b945060208601359350604086013592506060860135614eff81614bd9565b949793965091946080013592915050565b60008060408385031215614f2357600080fd5b8235614f2e81614b7b565b91506020830135614e3281614b7b565b60008060008060008060c08789031215614f5757600080fd5b8635614f6281614b7b565b95506020870135614f7281614b7b565b94506040870135614f8281614b7b565b959894975094956060810135955060808101359460a0909101359350915050565b600080600080600080600060e0888a031215614fbe57600080fd5b8735614fc981614b7b565b96506020880135614fd981614b7b565b95506040880135614fe981614b7b565b9450606088013593506080880135925060a088013561500781614bd9565b915060c0880135614d3e81614b7b565b60008060006060848603121561502c57600080fd5b505081359360208301359350604090920135919050565b60008060006060848603121561505857600080fd5b833561506381614b7b565b92506020840135614de981614b7b565b60008060006060848603121561508857600080fd5b833561509381614b7b565b95602085013595506040909401359392505050565b6000806000606084860312156150bd57600080fd5b83356150c881614b7b565b925060208401356150d881614b7b565b91506040840135614df981614bd9565b600080600080600060a0868803121561510057600080fd5b853561510b81614b7b565b94506020860135935060408601359250606086013591506080860135614e9781614bd9565b60008060006060848603121561514557600080fd5b833561515081614b7b565b9250602084013561516081614b7b565b929592945050506040919091013590565b600080600080600060a0868803121561518957600080fd5b853561519481614b7b565b945060208601356151a481614b7b565b935060408601356151b481614b7b565b925060608601356151c481614bd9565b91506080860135614e9781614bd9565b60008060008060008060c087890312156151ed57600080fd5b86356151f881614b7b565b9550602087013561520881614b7b565b9450604087013561521881614b7b565b9350606087013561522881614bd9565b9598949750929560808101359460a0909101359350915050565b600080600080600080600060e0888a03121561525d57600080fd5b873561526881614b7b565b96506020880135955060408801359450606088013561528681614bd9565b9699959850939660808101359560a0820135955060c0909101359350915050565b600080600080600060a086880312156152bf57600080fd5b85356152ca81614b7b565b945060208601356152da81614b7b565b935060408601356152ea81614b7b565b925060608601356152fa81614bd9565b91506080860135614e9781614b7b565b600080600080600060a0868803121561532257600080fd5b853561532d81614b7b565b9450602086013561533d81614b7b565b9350604086013561534d81614b7b565b92506060860135614eff81614bd9565b60005b83811015615378578181015183820152602001615360565b50506000910152565b60208152600082518060208401526153a081604085016020870161535d565b601f01601f19169190910160400192915050565b634e487b7160e01b600052601160045260246000fd5b80820281158282048414176112f8576112f86153b4565b6000826153fe57634e487b7160e01b600052601260045260246000fd5b500490565b600181815b8085111561543e578160001904821115615424576154246153b4565b8085161561543157918102915b93841c9390800290615408565b509250929050565b600082615455575060016112f8565b81615462575060006112f8565b816001811461547857600281146154825761549e565b60019150506112f8565b60ff841115615493576154936153b4565b50506001821b6112f8565b5060208310610133831016604e8410600b84101617156154c1575081810a6112f8565b6154cb8383615403565b80600019048211156154df576154df6153b4565b029392505050565b600061127a8383615446565b634e487b7160e01b600052604160045260246000fd5b600181811c9082168061551d57607f821691505b60208210810361553d57634e487b7160e01b600052602260045260246000fd5b50919050565b601f821115611fa557600081815260208120601f850160051c8101602086101561556a5750805b601f850160051c820191505b8181101561558957828155600101615576565b505050505050565b67ffffffffffffffff8311156155a9576155a96154f3565b6155bd836155b78354615509565b83615543565b6000601f8411600181146155f157600085156155d95750838201355b600019600387901b1c1916600186901b178355611bbd565b600083815260209020601f19861690835b828110156156225786850135825560209485019460019092019101615602565b508682101561563f5760001960f88860031b161c19848701351681555b505060018560011b0183555050505050565b808201808211156112f8576112f86153b4565b818103818111156112f8576112f86153b4565b9889526001600160a01b0397881660208a01529587166040890152939095166060870152608086019190915260a085015291151560c084015260e08301919091526101008201526101200190565b6000600160ff1b82016156da576156da6153b4565b5060000390565b6000602082840312156156f357600080fd5b5051919050565b6000806040838503121561570d57600080fd5b505080516020909101519092909150565b60006020828403121561573057600080fd5b815161127a81614bd9565b600060208083526000845461574f81615509565b80848701526040600180841660008114615770576001811461578a576157b8565b60ff1985168984015283151560051b8901830195506157b8565b896000528660002060005b858110156157b05781548b8201860152908301908801615795565b8a0184019650505b509398975050505050505050565b80820182811260008312801582168215821617156157e6576157e66153b4565b505092915050565b818103600083128015838313168383128216171561580e5761580e6153b4565b5092915050565b6000825161582781846020870161535d565b919091019291505056fea2646970667358221220f22d8871fc16bb30f3cf32181d79ea0981dc60d5c97e8465f09858844a2e973464736f6c63430008120033",
    "linkReferences": {}
  },
  "methodIdentifiers": {
    "BASIS_POINTS_DIVISOR()": "126082cf",
    "FUNDING_RATE_PRECISION()": "6be6026b",
    "MAX_FEE_BASIS_POINTS()": "4befe2ca",
    "MAX_FUNDING_RATE_FACTOR()": "8a39735a",
    "MAX_LIQUIDATION_FEE_USD()": "07c58752",
    "MIN_FUNDING_RATE_INTERVAL()": "fce28c10",
    "MIN_LEVERAGE()": "34c1557d",
    "PRICE_PRECISION()": "95082d25",
    "USDP_DECIMALS()": "8baf820d",
    "addRouter(address)": "24ca984e",
    "adjustForDecimals(uint256,address,address)": "42152873",
    "allWhitelistedTokens(uint256)": "e468baf0",
    "allWhitelistedTokensLength()": "0842b076",
    "approvedRouters(address,address)": "60922199",
    "bufferAmounts(address)": "4a993ee9",
    "buyUSDP(address,address)": "e695546e",
    "clearTokenConfig(address)": "e67f59a7",
    "cumulativeFundingRates(address)": "c65bc7b1",
    "decreasePosition(address,address,address,uint256,uint256,bool,address)": "82a08490",
    "directPoolDeposit(address)": "5f7bc119",
    "errorController()": "48f35cbb",
    "errors(uint256)": "fed1a606",
    "feeReserves(address)": "1ce9cb8f",
    "fundingInterval()": "9849e412",
    "fundingRateFactor()": "c4f718bf",
    "getDelta(address,uint256,uint256,bool,uint256)": "5c07eaab",
    "getEntryFundingRate(address,address,bool)": "b1cc53ab",
    "getFeeBasisPoints(address,uint256,uint256,uint256,bool)": "c7e074c3",
    "getFundingFee(address,address,address,bool,uint256,uint256)": "da76524c",
    "getGlobalShortDelta(address)": "b364accb",
    "getMaxPrice(address)": "e124e6d2",
    "getMinPrice(address)": "81a612d6",
    "getNextAveragePrice(address,uint256,uint256,bool,uint256,uint256,uint256)": "db97495f",
    "getNextFundingRate(address)": "a93acac2",
    "getNextGlobalShortAveragePrice(address,uint256,uint256)": "9d7432ca",
    "getPosition(address,address,address,bool)": "4a3f088d",
    "getPositionDelta(address,address,address,bool)": "45a6f370",
    "getPositionFee(address,address,address,bool,uint256)": "fdaf6ac3",
    "getPositionKey(address,address,address,bool)": "2d4b0576",
    "getPositionLeverage(address,address,address,bool)": "51723e82",
    "getRedemptionAmount(address,uint256)": "2c668ec1",
    "getRedemptionCollateral(address)": "b136ca49",
    "getRedemptionCollateralUsd(address)": "29ff9615",
    "getTargetUsdpAmount(address)": "5385b2d5",
    "getUtilisation(address)": "04fef1db",
    "globalShortAveragePrices(address)": "62749803",
    "globalShortSizes(address)": "8a78daa8",
    "gov()": "12d43a51",
    "guaranteedUsd(address)": "f07456ce",
    "hasDynamicFees()": "9f392eb3",
    "inManagerMode()": "9060b1ca",
    "inPrivateLiquidationMode()": "181e210e",
    "includeAmmPrice()": "ab08c1c6",
    "increasePosition(address,address,address,uint256,bool)": "48d91abf",
    "initialize(address,address,address,uint256,uint256,uint256)": "728cdbca",
    "isInitialized()": "392e53cd",
    "isLeverageEnabled()": "3e72a262",
    "isLiquidator(address)": "529a356f",
    "isManager(address)": "f3ae2415",
    "isSwapEnabled()": "351a964d",
    "lastFundingTimes(address)": "d8f897c3",
    "liquidatePosition(address,address,address,bool,address)": "de2ea948",
    "liquidationFeeUsd()": "174d2694",
    "marginFeeBasisPoints()": "318bc689",
    "maxGasPrice()": "3de39c11",
    "maxGlobalShortSizes(address)": "9698d25a",
    "maxLeverage()": "ae3302c2",
    "maxUsdpAmounts(address)": "c6baf661",
    "minProfitBasisPoints(address)": "88b1fbdf",
    "minProfitTime()": "d9ac4225",
    "mintBurnFeeBasisPoints()": "4d47b304",
    "poolAmounts(address)": "52f55eed",
    "positions(bytes32)": "514ea4bf",
    "priceFeed()": "741bef1a",
    "removeRouter(address)": "6ae0b154",
    "reservedAmounts(address)": "c3c7b9e9",
    "router()": "f887ea40",
    "sellUSDP(address,address)": "eda66f74",
    "setBufferAmount(address,uint256)": "8585f4d2",
    "setError(uint256,string)": "28e67be5",
    "setErrorController(address)": "8f7b8404",
    "setFees(uint256,uint256,uint256,uint256,uint256,uint256,uint256,uint256,bool)": "40eb3802",
    "setFundingRate(uint256,uint256,uint256)": "8a27d468",
    "setGov(address)": "cfad57a2",
    "setInManagerMode(bool)": "24b0c04d",
    "setInPrivateLiquidationMode(bool)": "f07bbf77",
    "setIsLeverageEnabled(bool)": "7c2eb9f7",
    "setIsSwapEnabled(bool)": "30455ede",
    "setLiquidator(address,bool)": "4453a374",
    "setManager(address,bool)": "a5e90eee",
    "setMaxGasPrice(uint256)": "d2fa635e",
    "setMaxGlobalShortSize(address,uint256)": "efa10a6e",
    "setMaxLeverage(uint256)": "d3127e63",
    "setPriceFeed(address)": "724e78da",
    "setTokenConfig(address,uint256,uint256,uint256,uint256,bool,bool)": "3c5a6e35",
    "setUsdpAmount(address,uint256)": "6616ba94",
    "setVaultUtils(address)": "71089f4d",
    "shortableTokens(address)": "db3555fb",
    "stableFundingRateFactor()": "134ca63b",
    "stableSwapFeeBasisPoints()": "df73a267",
    "stableTaxBasisPoints()": "10eb56c2",
    "stableTokens(address)": "42b60b03",
    "swap(address,address,address)": "93316212",
    "swapFeeBasisPoints()": "a22f2392",
    "taxBasisPoints()": "7a210a2b",
    "tokenBalances(address)": "523fba7f",
    "tokenDecimals(address)": "8ee573ac",
    "tokenToUsdMin(address,uint256)": "0a48d5a9",
    "tokenWeights(address)": "ab2f3ad4",
    "totalTokenWeights()": "dc8f5fac",
    "updateCumulativeFundingRate(address,address)": "fbfded6d",
    "upgradeVault(address,address,uint256)": "cea0c328",
    "usdToToken(address,uint256,uint256)": "fa12dbc0",
    "usdToTokenMax(address,uint256)": "a42ab3d2",
    "usdToTokenMin(address,uint256)": "9899cd02",
    "usdp()": "74e6076c",
    "usdpAmounts(address)": "68b528f2",
    "useSwapPricing()": "b06423f3",
    "validateLiquidation(address,address,address,bool,bool)": "d54d5a9f",
    "vaultUtils()": "6abbe0c8",
    "whitelistedTokenCount()": "62287a32",
    "whitelistedTokens(address)": "daf9c210",
    "withdrawFees(address,address)": "f2555278"
  },
  "id": 34
}