{"abi":[{"type":"constructor","inputs":[],"stateMutability":"nonpayable"},{"type":"function","name":"BASIS_POINTS_DIVISOR","inputs":[],"outputs":[{"name":"","type":"uint256","internalType":"uint256"}],"stateMutability":"view"},{"type":"function","name":"FUNDING_RATE_PRECISION","inputs":[],"outputs":[{"name":"","type":"uint256","internalType":"uint256"}],"stateMutability":"view"},{"type":"function","name":"MAX_FEE_BASIS_POINTS","inputs":[],"outputs":[{"name":"","type":"uint256","internalType":"uint256"}],"stateMutability":"view"},{"type":"function","name":"MAX_FUNDING_RATE_FACTOR","inputs":[],"outputs":[{"name":"","type":"uint256","internalType":"uint256"}],"stateMutability":"view"},{"type":"function","name":"MAX_LIQUIDATION_FEE_USD","inputs":[],"outputs":[{"name":"","type":"uint256","internalType":"uint256"}],"stateMutability":"view"},{"type":"function","name":"MIN_FUNDING_RATE_INTERVAL","inputs":[],"outputs":[{"name":"","type":"uint256","internalType":"uint256"}],"stateMutability":"view"},{"type":"function","name":"MIN_LEVERAGE","inputs":[],"outputs":[{"name":"","type":"uint256","internalType":"uint256"}],"stateMutability":"view"},{"type":"function","name":"PRICE_PRECISION","inputs":[],"outputs":[{"name":"","type":"uint256","internalType":"uint256"}],"stateMutability":"view"},{"type":"function","name":"USDP_DECIMALS","inputs":[],"outputs":[{"name":"","type":"uint256","internalType":"uint256"}],"stateMutability":"view"},{"type":"function","name":"addRouter","inputs":[{"name":"_router","type":"address","internalType":"address"}],"outputs":[],"stateMutability":"nonpayable"},{"type":"function","name":"adjustForDecimals","inputs":[{"name":"_amount","type":"uint256","internalType":"uint256"},{"name":"_tokenDiv","type":"address","internalType":"address"},{"name":"_tokenMul","type":"address","internalType":"address"}],"outputs":[{"name":"","type":"uint256","internalType":"uint256"}],"stateMutability":"view"},{"type":"function","name":"allWhitelistedTokens","inputs":[{"name":"","type":"uint256","internalType":"uint256"}],"outputs":[{"name":"","type":"address","internalType":"address"}],"stateMutability":"view"},{"type":"function","name":"allWhitelistedTokensLength","inputs":[],"outputs":[{"name":"","type":"uint256","internalType":"uint256"}],"stateMutability":"view"},{"type":"function","name":"approvedRouters","inputs":[{"name":"","type":"address","internalType":"address"},{"name":"","type":"address","internalType":"address"}],"outputs":[{"name":"","type":"bool","internalType":"bool"}],"stateMutability":"view"},{"type":"function","name":"bufferAmounts","inputs":[{"name":"","type":"address","internalType":"address"}],"outputs":[{"name":"","type":"uint256","internalType":"uint256"}],"stateMutability":"view"},{"type":"function","name":"buyUSDP","inputs":[{"name":"_token","type":"address","internalType":"address"},{"name":"_receiver","type":"address","internalType":"address"}],"outputs":[{"name":"","type":"uint256","internalType":"uint256"}],"stateMutability":"nonpayable"},{"type":"function","name":"clearTokenConfig","inputs":[{"name":"_token","type":"address","internalType":"address"}],"outputs":[],"stateMutability":"nonpayable"},{"type":"function","name":"cumulativeFundingRates","inputs":[{"name":"","type":"address","internalType":"address"}],"outputs":[{"name":"","type":"uint256","internalType":"uint256"}],"stateMutability":"view"},{"type":"function","name":"decreasePosition","inputs":[{"name":"_account","type":"address","internalType":"address"},{"name":"_collateralToken","type":"address","internalType":"address"},{"name":"_indexToken","type":"address","internalType":"address"},{"name":"_collateralDelta","type":"uint256","internalType":"uint256"},{"name":"_sizeDelta","type":"uint256","internalType":"uint256"},{"name":"_isLong","type":"bool","internalType":"bool"},{"name":"_receiver","type":"address","internalType":"address"}],"outputs":[{"name":"","type":"uint256","internalType":"uint256"}],"stateMutability":"nonpayable"},{"type":"function","name":"directPoolDeposit","inputs":[{"name":"_token","type":"address","internalType":"address"}],"outputs":[],"stateMutability":"nonpayable"},{"type":"function","name":"errorController","inputs":[],"outputs":[{"name":"","type":"address","internalType":"address"}],"stateMutability":"view"},{"type":"function","name":"errors","inputs":[{"name":"","type":"uint256","internalType":"uint256"}],"outputs":[{"name":"","type":"string","internalType":"string"}],"stateMutability":"view"},{"type":"function","name":"feeReserves","inputs":[{"name":"","type":"address","internalType":"address"}],"outputs":[{"name":"","type":"uint256","internalType":"uint256"}],"stateMutability":"view"},{"type":"function","name":"fundingInterval","inputs":[],"outputs":[{"name":"","type":"uint256","internalType":"uint256"}],"stateMutability":"view"},{"type":"function","name":"fundingRateFactor","inputs":[],"outputs":[{"name":"","type":"uint256","internalType":"uint256"}],"stateMutability":"view"},{"type":"function","name":"getDelta","inputs":[{"name":"_indexToken","type":"address","internalType":"address"},{"name":"_size","type":"uint256","internalType":"uint256"},{"name":"_averagePrice","type":"uint256","internalType":"uint256"},{"name":"_isLong","type":"bool","internalType":"bool"},{"name":"_lastIncreasedTime","type":"uint256","internalType":"uint256"}],"outputs":[{"name":"","type":"bool","internalType":"bool"},{"name":"","type":"uint256","internalType":"uint256"}],"stateMutability":"view"},{"type":"function","name":"getEntryFundingRate","inputs":[{"name":"_collateralToken","type":"address","internalType":"address"},{"name":"_indexToken","type":"address","internalType":"address"},{"name":"_isLong","type":"bool","internalType":"bool"}],"outputs":[{"name":"","type":"uint256","internalType":"uint256"}],"stateMutability":"view"},{"type":"function","name":"getFeeBasisPoints","inputs":[{"name":"_token","type":"address","internalType":"address"},{"name":"_usdpDelta","type":"uint256","internalType":"uint256"},{"name":"_feeBasisPoints","type":"uint256","internalType":"uint256"},{"name":"_taxBasisPoints","type":"uint256","internalType":"uint256"},{"name":"_increment","type":"bool","internalType":"bool"}],"outputs":[{"name":"","type":"uint256","internalType":"uint256"}],"stateMutability":"view"},{"type":"function","name":"getFundingFee","inputs":[{"name":"_account","type":"address","internalType":"address"},{"name":"_collateralToken","type":"address","internalType":"address"},{"name":"_indexToken","type":"address","internalType":"address"},{"name":"_isLong","type":"bool","internalType":"bool"},{"name":"_size","type":"uint256","internalType":"uint256"},{"name":"_entryFundingRate","type":"uint256","internalType":"uint256"}],"outputs":[{"name":"","type":"uint256","internalType":"uint256"}],"stateMutability":"view"},{"type":"function","name":"getGlobalShortDelta","inputs":[{"name":"_token","type":"address","internalType":"address"}],"outputs":[{"name":"","type":"bool","internalType":"bool"},{"name":"","type":"uint256","internalType":"uint256"}],"stateMutability":"view"},{"type":"function","name":"getMaxPrice","inputs":[{"name":"_token","type":"address","internalType":"address"}],"outputs":[{"name":"","type":"uint256","internalType":"uint256"}],"stateMutability":"view"},{"type":"function","name":"getMinPrice","inputs":[{"name":"_token","type":"address","internalType":"address"}],"outputs":[{"name":"","type":"uint256","internalType":"uint256"}],"stateMutability":"view"},{"type":"function","name":"getNextAveragePrice","inputs":[{"name":"_indexToken","type":"address","internalType":"address"},{"name":"_size","type":"uint256","internalType":"uint256"},{"name":"_averagePrice","type":"uint256","internalType":"uint256"},{"name":"_isLong","type":"bool","internalType":"bool"},{"name":"_nextPrice","type":"uint256","internalType":"uint256"},{"name":"_sizeDelta","type":"uint256","internalType":"uint256"},{"name":"_lastIncreasedTime","type":"uint256","internalType":"uint256"}],"outputs":[{"name":"","type":"uint256","internalType":"uint256"}],"stateMutability":"view"},{"type":"function","name":"getNextFundingRate","inputs":[{"name":"_token","type":"address","internalType":"address"}],"outputs":[{"name":"","type":"uint256","internalType":"uint256"}],"stateMutability":"view"},{"type":"function","name":"getNextGlobalShortAveragePrice","inputs":[{"name":"_indexToken","type":"address","internalType":"address"},{"name":"_nextPrice","type":"uint256","internalType":"uint256"},{"name":"_sizeDelta","type":"uint256","internalType":"uint256"}],"outputs":[{"name":"","type":"uint256","internalType":"uint256"}],"stateMutability":"view"},{"type":"function","name":"getPosition","inputs":[{"name":"_account","type":"address","internalType":"address"},{"name":"_collateralToken","type":"address","internalType":"address"},{"name":"_indexToken","type":"address","internalType":"address"},{"name":"_isLong","type":"bool","internalType":"bool"}],"outputs":[{"name":"","type":"uint256","internalType":"uint256"},{"name":"","type":"uint256","internalType":"uint256"},{"name":"","type":"uint256","internalType":"uint256"},{"name":"","type":"uint256","internalType":"uint256"},{"name":"","type":"uint256","internalType":"uint256"},{"name":"","type":"uint256","internalType":"uint256"},{"name":"","type":"bool","internalType":"bool"},{"name":"","type":"uint256","internalType":"uint256"}],"stateMutability":"view"},{"type":"function","name":"getPositionDelta","inputs":[{"name":"_account","type":"address","internalType":"address"},{"name":"_collateralToken","type":"address","internalType":"address"},{"name":"_indexToken","type":"address","internalType":"address"},{"name":"_isLong","type":"bool","internalType":"bool"}],"outputs":[{"name":"","type":"bool","internalType":"bool"},{"name":"","type":"uint256","internalType":"uint256"}],"stateMutability":"view"},{"type":"function","name":"getPositionFee","inputs":[{"name":"_account","type":"address","internalType":"address"},{"name":"_collateralToken","type":"address","internalType":"address"},{"name":"_indexToken","type":"address","internalType":"address"},{"name":"_isLong","type":"bool","internalType":"bool"},{"name":"_sizeDelta","type":"uint256","internalType":"uint256"}],"outputs":[{"name":"","type":"uint256","internalType":"uint256"}],"stateMutability":"view"},{"type":"function","name":"getPositionKey","inputs":[{"name":"_account","type":"address","internalType":"address"},{"name":"_collateralToken","type":"address","internalType":"address"},{"name":"_indexToken","type":"address","internalType":"address"},{"name":"_isLong","type":"bool","internalType":"bool"}],"outputs":[{"name":"","type":"bytes32","internalType":"bytes32"}],"stateMutability":"pure"},{"type":"function","name":"getPositionLeverage","inputs":[{"name":"_account","type":"address","internalType":"address"},{"name":"_collateralToken","type":"address","internalType":"address"},{"name":"_indexToken","type":"address","internalType":"address"},{"name":"_isLong","type":"bool","internalType":"bool"}],"outputs":[{"name":"","type":"uint256","internalType":"uint256"}],"stateMutability":"view"},{"type":"function","name":"getRedemptionAmount","inputs":[{"name":"_token","type":"address","internalType":"address"},{"name":"_usdpAmount","type":"uint256","internalType":"uint256"}],"outputs":[{"name":"","type":"uint256","internalType":"uint256"}],"stateMutability":"view"},{"type":"function","name":"getRedemptionCollateral","inputs":[{"name":"_token","type":"address","internalType":"address"}],"outputs":[{"name":"","type":"uint256","internalType":"uint256"}],"stateMutability":"view"},{"type":"function","name":"getRedemptionCollateralUsd","inputs":[{"name":"_token","type":"address","internalType":"address"}],"outputs":[{"name":"","type":"uint256","internalType":"uint256"}],"stateMutability":"view"},{"type":"function","name":"getTargetUsdpAmount","inputs":[{"name":"_token","type":"address","internalType":"address"}],"outputs":[{"name":"","type":"uint256","internalType":"uint256"}],"stateMutability":"view"},{"type":"function","name":"getUtilisation","inputs":[{"name":"_token","type":"address","internalType":"address"}],"outputs":[{"name":"","type":"uint256","internalType":"uint256"}],"stateMutability":"view"},{"type":"function","name":"globalShortAveragePrices","inputs":[{"name":"","type":"address","internalType":"address"}],"outputs":[{"name":"","type":"uint256","internalType":"uint256"}],"stateMutability":"view"},{"type":"function","name":"globalShortSizes","inputs":[{"name":"","type":"address","internalType":"address"}],"outputs":[{"name":"","type":"uint256","internalType":"uint256"}],"stateMutability":"view"},{"type":"function","name":"gov","inputs":[],"outputs":[{"name":"","type":"address","internalType":"address"}],"stateMutability":"view"},{"type":"function","name":"guaranteedUsd","inputs":[{"name":"","type":"address","internalType":"address"}],"outputs":[{"name":"","type":"uint256","internalType":"uint256"}],"stateMutability":"view"},{"type":"function","name":"hasDynamicFees","inputs":[],"outputs":[{"name":"","type":"bool","internalType":"bool"}],"stateMutability":"view"},{"type":"function","name":"inManagerMode","inputs":[],"outputs":[{"name":"","type":"bool","internalType":"bool"}],"stateMutability":"view"},{"type":"function","name":"inPrivateLiquidationMode","inputs":[],"outputs":[{"name":"","type":"bool","internalType":"bool"}],"stateMutability":"view"},{"type":"function","name":"includeAmmPrice","inputs":[],"outputs":[{"name":"","type":"bool","internalType":"bool"}],"stateMutability":"view"},{"type":"function","name":"increasePosition","inputs":[{"name":"_account","type":"address","internalType":"address"},{"name":"_collateralToken","type":"address","internalType":"address"},{"name":"_indexToken","type":"address","internalType":"address"},{"name":"_sizeDelta","type":"uint256","internalType":"uint256"},{"name":"_isLong","type":"bool","internalType":"bool"}],"outputs":[],"stateMutability":"nonpayable"},{"type":"function","name":"initialize","inputs":[{"name":"_router","type":"address","internalType":"address"},{"name":"_usdp","type":"address","internalType":"address"},{"name":"_priceFeed","type":"address","internalType":"address"},{"name":"_liquidationFeeUsd","type":"uint256","internalType":"uint256"},{"name":"_fundingRateFactor","type":"uint256","internalType":"uint256"},{"name":"_stableFundingRateFactor","type":"uint256","internalType":"uint256"}],"outputs":[],"stateMutability":"nonpayable"},{"type":"function","name":"isInitialized","inputs":[],"outputs":[{"name":"","type":"bool","internalType":"bool"}],"stateMutability":"view"},{"type":"function","name":"isLeverageEnabled","inputs":[],"outputs":[{"name":"","type":"bool","internalType":"bool"}],"stateMutability":"view"},{"type":"function","name":"isLiquidator","inputs":[{"name":"","type":"address","internalType":"address"}],"outputs":[{"name":"","type":"bool","internalType":"bool"}],"stateMutability":"view"},{"type":"function","name":"isManager","inputs":[{"name":"","type":"address","internalType":"address"}],"outputs":[{"name":"","type":"bool","internalType":"bool"}],"stateMutability":"view"},{"type":"function","name":"isSwapEnabled","inputs":[],"outputs":[{"name":"","type":"bool","internalType":"bool"}],"stateMutability":"view"},{"type":"function","name":"lastFundingTimes","inputs":[{"name":"","type":"address","internalType":"address"}],"outputs":[{"name":"","type":"uint256","internalType":"uint256"}],"stateMutability":"view"},{"type":"function","name":"liquidatePosition","inputs":[{"name":"_account","type":"address","internalType":"address"},{"name":"_collateralToken","type":"address","internalType":"address"},{"name":"_indexToken","type":"address","internalType":"address"},{"name":"_isLong","type":"bool","internalType":"bool"},{"name":"_feeReceiver","type":"address","internalType":"address"}],"outputs":[],"stateMutability":"nonpayable"},{"type":"function","name":"liquidationFeeUsd","inputs":[],"outputs":[{"name":"","type":"uint256","internalType":"uint256"}],"stateMutability":"view"},{"type":"function","name":"marginFeeBasisPoints","inputs":[],"outputs":[{"name":"","type":"uint256","internalType":"uint256"}],"stateMutability":"view"},{"type":"function","name":"maxGasPrice","inputs":[],"outputs":[{"name":"","type":"uint256","internalType":"uint256"}],"stateMutability":"view"},{"type":"function","name":"maxGlobalShortSizes","inputs":[{"name":"","type":"address","internalType":"address"}],"outputs":[{"name":"","type":"uint256","internalType":"uint256"}],"stateMutability":"view"},{"type":"function","name":"maxLeverage","inputs":[],"outputs":[{"name":"","type":"uint256","internalType":"uint256"}],"stateMutability":"view"},{"type":"function","name":"maxUsdpAmounts","inputs":[{"name":"","type":"address","internalType":"address"}],"outputs":[{"name":"","type":"uint256","internalType":"uint256"}],"stateMutability":"view"},{"type":"function","name":"minProfitBasisPoints","inputs":[{"name":"","type":"address","internalType":"address"}],"outputs":[{"name":"","type":"uint256","internalType":"uint256"}],"stateMutability":"view"},{"type":"function","name":"minProfitTime","inputs":[],"outputs":[{"name":"","type":"uint256","internalType":"uint256"}],"stateMutability":"view"},{"type":"function","name":"mintBurnFeeBasisPoints","inputs":[],"outputs":[{"name":"","type":"uint256","internalType":"uint256"}],"stateMutability":"view"},{"type":"function","name":"poolAmounts","inputs":[{"name":"","type":"address","internalType":"address"}],"outputs":[{"name":"","type":"uint256","internalType":"uint256"}],"stateMutability":"view"},{"type":"function","name":"positions","inputs":[{"name":"","type":"bytes32","internalType":"bytes32"}],"outputs":[{"name":"size","type":"uint256","internalType":"uint256"},{"name":"collateral","type":"uint256","internalType":"uint256"},{"name":"averagePrice","type":"uint256","internalType":"uint256"},{"name":"entryFundingRate","type":"uint256","internalType":"uint256"},{"name":"reserveAmount","type":"uint256","internalType":"uint256"},{"name":"realisedPnl","type":"int256","internalType":"int256"},{"name":"lastIncreasedTime","type":"uint256","internalType":"uint256"}],"stateMutability":"view"},{"type":"function","name":"priceFeed","inputs":[],"outputs":[{"name":"","type":"address","internalType":"address"}],"stateMutability":"view"},{"type":"function","name":"removeRouter","inputs":[{"name":"_router","type":"address","internalType":"address"}],"outputs":[],"stateMutability":"nonpayable"},{"type":"function","name":"reservedAmounts","inputs":[{"name":"","type":"address","internalType":"address"}],"outputs":[{"name":"","type":"uint256","internalType":"uint256"}],"stateMutability":"view"},{"type":"function","name":"router","inputs":[],"outputs":[{"name":"","type":"address","internalType":"address"}],"stateMutability":"view"},{"type":"function","name":"sellUSDP","inputs":[{"name":"_token","type":"address","internalType":"address"},{"name":"_receiver","type":"address","internalType":"address"}],"outputs":[{"name":"","type":"uint256","internalType":"uint256"}],"stateMutability":"nonpayable"},{"type":"function","name":"setBufferAmount","inputs":[{"name":"_token","type":"address","internalType":"address"},{"name":"_amount","type":"uint256","internalType":"uint256"}],"outputs":[],"stateMutability":"nonpayable"},{"type":"function","name":"setError","inputs":[{"name":"_errorCode","type":"uint256","internalType":"uint256"},{"name":"_error","type":"string","internalType":"string"}],"outputs":[],"stateMutability":"nonpayable"},{"type":"function","name":"setErrorController","inputs":[{"name":"_errorController","type":"address","internalType":"address"}],"outputs":[],"stateMutability":"nonpayable"},{"type":"function","name":"setFees","inputs":[{"name":"_taxBasisPoints","type":"uint256","internalType":"uint256"},{"name":"_stableTaxBasisPoints","type":"uint256","internalType":"uint256"},{"name":"_mintBurnFeeBasisPoints","type":"uint256","internalType":"uint256"},{"name":"_swapFeeBasisPoints","type":"uint256","internalType":"uint256"},{"name":"_stableSwapFeeBasisPoints","type":"uint256","internalType":"uint256"},{"name":"_marginFeeBasisPoints","type":"uint256","internalType":"uint256"},{"name":"_liquidationFeeUsd","type":"uint256","internalType":"uint256"},{"name":"_minProfitTime","type":"uint256","internalType":"uint256"},{"name":"_hasDynamicFees","type":"bool","internalType":"bool"}],"outputs":[],"stateMutability":"nonpayable"},{"type":"function","name":"setFundingRate","inputs":[{"name":"_fundingInterval","type":"uint256","internalType":"uint256"},{"name":"_fundingRateFactor","type":"uint256","internalType":"uint256"},{"name":"_stableFundingRateFactor","type":"uint256","internalType":"uint256"}],"outputs":[],"stateMutability":"nonpayable"},{"type":"function","name":"setGov","inputs":[{"name":"_gov","type":"address","internalType":"address"}],"outputs":[],"stateMutability":"nonpayable"},{"type":"function","name":"setInManagerMode","inputs":[{"name":"_inManagerMode","type":"bool","internalType":"bool"}],"outputs":[],"stateMutability":"nonpayable"},{"type":"function","name":"setInPrivateLiquidationMode","inputs":[{"name":"_inPrivateLiquidationMode","type":"bool","internalType":"bool"}],"outputs":[],"stateMutability":"nonpayable"},{"type":"function","name":"setIsLeverageEnabled","inputs":[{"name":"_isLeverageEnabled","type":"bool","internalType":"bool"}],"outputs":[],"stateMutability":"nonpayable"},{"type":"function","name":"setIsSwapEnabled","inputs":[{"name":"_isSwapEnabled","type":"bool","internalType":"bool"}],"outputs":[],"stateMutability":"nonpayable"},{"type":"function","name":"setLiquidator","inputs":[{"name":"_liquidator","type":"address","internalType":"address"},{"name":"_isActive","type":"bool","internalType":"bool"}],"outputs":[],"stateMutability":"nonpayable"},{"type":"function","name":"setManager","inputs":[{"name":"_manager","type":"address","internalType":"address"},{"name":"_isManager","type":"bool","internalType":"bool"}],"outputs":[],"stateMutability":"nonpayable"},{"type":"function","name":"setMaxGasPrice","inputs":[{"name":"_maxGasPrice","type":"uint256","internalType":"uint256"}],"outputs":[],"stateMutability":"nonpayable"},{"type":"function","name":"setMaxGlobalShortSize","inputs":[{"name":"_token","type":"address","internalType":"address"},{"name":"_amount","type":"uint256","internalType":"uint256"}],"outputs":[],"stateMutability":"nonpayable"},{"type":"function","name":"setMaxLeverage","inputs":[{"name":"_maxLeverage","type":"uint256","internalType":"uint256"}],"outputs":[],"stateMutability":"nonpayable"},{"type":"function","name":"setPriceFeed","inputs":[{"name":"_priceFeed","type":"address","internalType":"address"}],"outputs":[],"stateMutability":"nonpayable"},{"type":"function","name":"setTokenConfig","inputs":[{"name":"_token","type":"address","internalType":"address"},{"name":"_tokenDecimals","type":"uint256","internalType":"uint256"},{"name":"_tokenWeight","type":"uint256","internalType":"uint256"},{"name":"_minProfitBps","type":"uint256","internalType":"uint256"},{"name":"_maxUsdpAmount","type":"uint256","internalType":"uint256"},{"name":"_isStable","type":"bool","internalType":"bool"},{"name":"_isShortable","type":"bool","internalType":"bool"}],"outputs":[],"stateMutability":"nonpayable"},{"type":"function","name":"setUsdpAmount","inputs":[{"name":"_token","type":"address","internalType":"address"},{"name":"_amount","type":"uint256","internalType":"uint256"}],"outputs":[],"stateMutability":"nonpayable"},{"type":"function","name":"setVaultUtils","inputs":[{"name":"_vaultUtils","type":"address","internalType":"contract IVaultUtils"}],"outputs":[],"stateMutability":"nonpayable"},{"type":"function","name":"shortableTokens","inputs":[{"name":"","type":"address","internalType":"address"}],"outputs":[{"name":"","type":"bool","internalType":"bool"}],"stateMutability":"view"},{"type":"function","name":"stableFundingRateFactor","inputs":[],"outputs":[{"name":"","type":"uint256","internalType":"uint256"}],"stateMutability":"view"},{"type":"function","name":"stableSwapFeeBasisPoints","inputs":[],"outputs":[{"name":"","type":"uint256","internalType":"uint256"}],"stateMutability":"view"},{"type":"function","name":"stableTaxBasisPoints","inputs":[],"outputs":[{"name":"","type":"uint256","internalType":"uint256"}],"stateMutability":"view"},{"type":"function","name":"stableTokens","inputs":[{"name":"","type":"address","internalType":"address"}],"outputs":[{"name":"","type":"bool","internalType":"bool"}],"stateMutability":"view"},{"type":"function","name":"swap","inputs":[{"name":"_tokenIn","type":"address","internalType":"address"},{"name":"_tokenOut","type":"address","internalType":"address"},{"name":"_receiver","type":"address","internalType":"address"}],"outputs":[{"name":"","type":"uint256","internalType":"uint256"}],"stateMutability":"nonpayable"},{"type":"function","name":"swapFeeBasisPoints","inputs":[],"outputs":[{"name":"","type":"uint256","internalType":"uint256"}],"stateMutability":"view"},{"type":"function","name":"taxBasisPoints","inputs":[],"outputs":[{"name":"","type":"uint256","internalType":"uint256"}],"stateMutability":"view"},{"type":"function","name":"tokenBalances","inputs":[{"name":"","type":"address","internalType":"address"}],"outputs":[{"name":"","type":"uint256","internalType":"uint256"}],"stateMutability":"view"},{"type":"function","name":"tokenDecimals","inputs":[{"name":"","type":"address","internalType":"address"}],"outputs":[{"name":"","type":"uint256","internalType":"uint256"}],"stateMutability":"view"},{"type":"function","name":"tokenToUsdMin","inputs":[{"name":"_token","type":"address","internalType":"address"},{"name":"_tokenAmount","type":"uint256","internalType":"uint256"}],"outputs":[{"name":"","type":"uint256","internalType":"uint256"}],"stateMutability":"view"},{"type":"function","name":"tokenWeights","inputs":[{"name":"","type":"address","internalType":"address"}],"outputs":[{"name":"","type":"uint256","internalType":"uint256"}],"stateMutability":"view"},{"type":"function","name":"totalTokenWeights","inputs":[],"outputs":[{"name":"","type":"uint256","internalType":"uint256"}],"stateMutability":"view"},{"type":"function","name":"updateCumulativeFundingRate","inputs":[{"name":"_collateralToken","type":"address","internalType":"address"},{"name":"_indexToken","type":"address","internalType":"address"}],"outputs":[],"stateMutability":"nonpayable"},{"type":"function","name":"upgradeVault","inputs":[{"name":"_newVault","type":"address","internalType":"address"},{"name":"_token","type":"address","internalType":"address"},{"name":"_amount","type":"uint256","internalType":"uint256"}],"outputs":[],"stateMutability":"nonpayable"},{"type":"function","name":"usdToToken","inputs":[{"name":"_token","type":"address","internalType":"address"},{"name":"_usdAmount","type":"uint256","internalType":"uint256"},{"name":"_price","type":"uint256","internalType":"uint256"}],"outputs":[{"name":"","type":"uint256","internalType":"uint256"}],"stateMutability":"view"},{"type":"function","name":"usdToTokenMax","inputs":[{"name":"_token","type":"address","internalType":"address"},{"name":"_usdAmount","type":"uint256","internalType":"uint256"}],"outputs":[{"name":"","type":"uint256","internalType":"uint256"}],"stateMutability":"view"},{"type":"function","name":"usdToTokenMin","inputs":[{"name":"_token","type":"address","internalType":"address"},{"name":"_usdAmount","type":"uint256","internalType":"uint256"}],"outputs":[{"name":"","type":"uint256","internalType":"uint256"}],"stateMutability":"view"},{"type":"function","name":"usdp","inputs":[],"outputs":[{"name":"","type":"address","internalType":"address"}],"stateMutability":"view"},{"type":"function","name":"usdpAmounts","inputs":[{"name":"","type":"address","internalType":"address"}],"outputs":[{"name":"","type":"uint256","internalType":"uint256"}],"stateMutability":"view"},{"type":"function","name":"useSwapPricing","inputs":[],"outputs":[{"name":"","type":"bool","internalType":"bool"}],"stateMutability":"view"},{"type":"function","name":"validateLiquidation","inputs":[{"name":"_account","type":"address","internalType":"address"},{"name":"_collateralToken","type":"address","internalType":"address"},{"name":"_indexToken","type":"address","internalType":"address"},{"name":"_isLong","type":"bool","internalType":"bool"},{"name":"_raise","type":"bool","internalType":"bool"}],"outputs":[{"name":"","type":"uint256","internalType":"uint256"},{"name":"","type":"uint256","internalType":"uint256"}],"stateMutability":"view"},{"type":"function","name":"vaultUtils","inputs":[],"outputs":[{"name":"","type":"address","internalType":"contract IVaultUtils"}],"stateMutability":"view"},{"type":"function","name":"whitelistedTokenCount","inputs":[],"outputs":[{"name":"","type":"uint256","internalType":"uint256"}],"stateMutability":"view"},{"type":"function","name":"whitelistedTokens","inputs":[{"name":"","type":"address","internalType":"address"}],"outputs":[{"name":"","type":"bool","internalType":"bool"}],"stateMutability":"view"},{"type":"function","name":"withdrawFees","inputs":[{"name":"_token","type":"address","internalType":"address"},{"name":"_receiver","type":"address","internalType":"address"}],"outputs":[{"name":"","type":"uint256","internalType":"uint256"}],"stateMutability":"nonpayable"},{"type":"event","name":"BuyUSDP","inputs":[{"name":"account","type":"address","indexed":false,"internalType":"address"},{"name":"token","type":"address","indexed":false,"internalType":"address"},{"name":"tokenAmount","type":"uint256","indexed":false,"internalType":"uint256"},{"name":"usdpAmount","type":"uint256","indexed":false,"internalType":"uint256"},{"name":"feeBasisPoints","type":"uint256","indexed":false,"internalType":"uint256"}],"anonymous":false},{"type":"event","name":"ClosePosition","inputs":[{"name":"key","type":"bytes32","indexed":false,"internalType":"bytes32"},{"name":"size","type":"uint256","indexed":false,"internalType":"uint256"},{"name":"collateral","type":"uint256","indexed":false,"internalType":"uint256"},{"name":"averagePrice","type":"uint256","indexed":false,"internalType":"uint256"},{"name":"entryFundingRate","type":"uint256","indexed":false,"internalType":"uint256"},{"name":"reserveAmount","type":"uint256","indexed":false,"internalType":"uint256"},{"name":"realisedPnl","type":"int256","indexed":false,"internalType":"int256"}],"anonymous":false},{"type":"event","name":"CollectMarginFees","inputs":[{"name":"token","type":"address","indexed":false,"internalType":"address"},{"name":"feeUsd","type":"uint256","indexed":false,"internalType":"uint256"},{"name":"feeTokens","type":"uint256","indexed":false,"internalType":"uint256"}],"anonymous":false},{"type":"event","name":"CollectSwapFees","inputs":[{"name":"token","type":"address","indexed":false,"internalType":"address"},{"name":"feeUsd","type":"uint256","indexed":false,"internalType":"uint256"},{"name":"feeTokens","type":"uint256","indexed":false,"internalType":"uint256"}],"anonymous":false},{"type":"event","name":"DecreaseGuaranteedUsd","inputs":[{"name":"token","type":"address","indexed":false,"internalType":"address"},{"name":"amount","type":"uint256","indexed":false,"internalType":"uint256"}],"anonymous":false},{"type":"event","name":"DecreasePoolAmount","inputs":[{"name":"token","type":"address","indexed":false,"internalType":"address"},{"name":"amount","type":"uint256","indexed":false,"internalType":"uint256"}],"anonymous":false},{"type":"event","name":"DecreasePosition","inputs":[{"name":"key","type":"bytes32","indexed":false,"internalType":"bytes32"},{"name":"account","type":"address","indexed":false,"internalType":"address"},{"name":"collateralToken","type":"address","indexed":false,"internalType":"address"},{"name":"indexToken","type":"address","indexed":false,"internalType":"address"},{"name":"collateralDelta","type":"uint256","indexed":false,"internalType":"uint256"},{"name":"sizeDelta","type":"uint256","indexed":false,"internalType":"uint256"},{"name":"isLong","type":"bool","indexed":false,"internalType":"bool"},{"name":"price","type":"uint256","indexed":false,"internalType":"uint256"},{"name":"fee","type":"uint256","indexed":false,"internalType":"uint256"}],"anonymous":false},{"type":"event","name":"DecreaseReservedAmount","inputs":[{"name":"token","type":"address","indexed":false,"internalType":"address"},{"name":"amount","type":"uint256","indexed":false,"internalType":"uint256"}],"anonymous":false},{"type":"event","name":"DecreaseUsdpAmount","inputs":[{"name":"token","type":"address","indexed":false,"internalType":"address"},{"name":"amount","type":"uint256","indexed":false,"internalType":"uint256"}],"anonymous":false},{"type":"event","name":"DirectPoolDeposit","inputs":[{"name":"token","type":"address","indexed":false,"internalType":"address"},{"name":"amount","type":"uint256","indexed":false,"internalType":"uint256"}],"anonymous":false},{"type":"event","name":"IncreaseGuaranteedUsd","inputs":[{"name":"token","type":"address","indexed":false,"internalType":"address"},{"name":"amount","type":"uint256","indexed":false,"internalType":"uint256"}],"anonymous":false},{"type":"event","name":"IncreasePoolAmount","inputs":[{"name":"token","type":"address","indexed":false,"internalType":"address"},{"name":"amount","type":"uint256","indexed":false,"internalType":"uint256"}],"anonymous":false},{"type":"event","name":"IncreasePosition","inputs":[{"name":"key","type":"bytes32","indexed":false,"internalType":"bytes32"},{"name":"account","type":"address","indexed":false,"internalType":"address"},{"name":"collateralToken","type":"address","indexed":false,"internalType":"address"},{"name":"indexToken","type":"address","indexed":false,"internalType":"address"},{"name":"collateralDelta","type":"uint256","indexed":false,"internalType":"uint256"},{"name":"sizeDelta","type":"uint256","indexed":false,"internalType":"uint256"},{"name":"isLong","type":"bool","indexed":false,"internalType":"bool"},{"name":"price","type":"uint256","indexed":false,"internalType":"uint256"},{"name":"fee","type":"uint256","indexed":false,"internalType":"uint256"}],"anonymous":false},{"type":"event","name":"IncreaseReservedAmount","inputs":[{"name":"token","type":"address","indexed":false,"internalType":"address"},{"name":"amount","type":"uint256","indexed":false,"internalType":"uint256"}],"anonymous":false},{"type":"event","name":"IncreaseUsdpAmount","inputs":[{"name":"token","type":"address","indexed":false,"internalType":"address"},{"name":"amount","type":"uint256","indexed":false,"internalType":"uint256"}],"anonymous":false},{"type":"event","name":"LiquidatePosition","inputs":[{"name":"key","type":"bytes32","indexed":false,"internalType":"bytes32"},{"name":"account","type":"address","indexed":false,"internalType":"address"},{"name":"collateralToken","type":"address","indexed":false,"internalType":"address"},{"name":"indexToken","type":"address","indexed":false,"internalType":"address"},{"name":"isLong","type":"bool","indexed":false,"internalType":"bool"},{"name":"size","type":"uint256","indexed":false,"internalType":"uint256"},{"name":"collateral","type":"uint256","indexed":false,"internalType":"uint256"},{"name":"reserveAmount","type":"uint256","indexed":false,"internalType":"uint256"},{"name":"realisedPnl","type":"int256","indexed":false,"internalType":"int256"},{"name":"markPrice","type":"uint256","indexed":false,"internalType":"uint256"}],"anonymous":false},{"type":"event","name":"SellUSDP","inputs":[{"name":"account","type":"address","indexed":false,"internalType":"address"},{"name":"token","type":"address","indexed":false,"internalType":"address"},{"name":"usdpAmount","type":"uint256","indexed":false,"internalType":"uint256"},{"name":"tokenAmount","type":"uint256","indexed":false,"internalType":"uint256"},{"name":"feeBasisPoints","type":"uint256","indexed":false,"internalType":"uint256"}],"anonymous":false},{"type":"event","name":"Swap","inputs":[{"name":"account","type":"address","indexed":false,"internalType":"address"},{"name":"tokenIn","type":"address","indexed":false,"internalType":"address"},{"name":"tokenOut","type":"address","indexed":false,"internalType":"address"},{"name":"amountIn","type":"uint256","indexed":false,"internalType":"uint256"},{"name":"amountOut","type":"uint256","indexed":false,"internalType":"uint256"},{"name":"amountOutAfterFees","type":"uint256","indexed":false,"internalType":"uint256"},{"name":"feeBasisPoints","type":"uint256","indexed":false,"internalType":"uint256"}],"anonymous":false},{"type":"event","name":"UpdateFundingRate","inputs":[{"name":"token","type":"address","indexed":false,"internalType":"address"},{"name":"fundingRate","type":"uint256","indexed":false,"internalType":"uint256"}],"anonymous":false},{"type":"event","name":"UpdatePnl","inputs":[{"name":"key","type":"bytes32","indexed":false,"internalType":"bytes32"},{"name":"hasProfit","type":"bool","indexed":false,"internalType":"bool"},{"name":"delta","type":"uint256","indexed":false,"internalType":"uint256"}],"anonymous":false},{"type":"event","name":"UpdatePosition","inputs":[{"name":"key","type":"bytes32","indexed":false,"internalType":"bytes32"},{"name":"size","type":"uint256","indexed":false,"internalType":"uint256"},{"name":"collateral","type":"uint256","indexed":false,"internalType":"uint256"},{"name":"averagePrice","type":"uint256","indexed":false,"internalType":"uint256"},{"name":"entryFundingRate","type":"uint256","indexed":false,"internalType":"uint256"},{"name":"reserveAmount","type":"uint256","indexed":false,"internalType":"uint256"},{"name":"realisedPnl","type":"int256","indexed":false,"internalType":"int256"},{"name":"markPrice","type":"uint256","indexed":false,"internalType":"uint256"}],"anonymous":false},{"type":"error","name":"AddressEmptyCode","inputs":[{"name":"target","type":"address","internalType":"address"}]},{"type":"error","name":"AddressInsufficientBalance","inputs":[{"name":"account","type":"address","internalType":"address"}]},{"type":"error","name":"FailedInnerCall","inputs":[]},{"type":"error","name":"ReentrancyGuardReentrantCall","inputs":[]},{"type":"error","name":"SafeERC20FailedOperation","inputs":[{"name":"token","type":"address","internalType":"address"}]}],"bytecode":{"object":"0x60806040526001805462ffff001916620101001781556207a1206008556032600a9081556014600b55601e600c819055600d556004600e55600f556011805460ff191690556170806012556016805463ffffffff1916909117905534801561006657600080fd5b506001600055600680546001600160a01b03191633179055615a70806200008e6000396000f3fe608060405234801561001057600080fd5b50600436106107595760003560e01c80638585f4d2116103c9578063c7e074c3116101ff578063e124e6d211610125578063f2555278116100b8578063fbfded6d11610087578063fbfded6d146111cf578063fce28c10146111e2578063fdaf6ac3146111eb578063fed1a606146111fe57600080fd5b8063f255527814611173578063f3ae241514611186578063f887ea40146111a9578063fa12dbc0146111bc57600080fd5b8063eda66f74116100f4578063eda66f741461111a578063efa10a6e1461112d578063f07456ce14611140578063f07bbf771461116057600080fd5b8063e124e6d2146110ce578063e468baf0146110e1578063e67f59a7146110f4578063e695546e1461110757600080fd5b8063d9ac42251161019d578063db97495f1161016c578063db97495f14611096578063dc8f5fac146110a9578063de2ea948146110b2578063df73a267146110c557600080fd5b8063d9ac422514611035578063da76524c1461103e578063daf9c21014611051578063db3555fb1461107457600080fd5b8063d2fa635e116101d9578063d2fa635e14610fc7578063d3127e6314610fda578063d54d5a9f14610fed578063d8f897c31461101557600080fd5b8063c7e074c314610f8e578063cea0c32814610fa1578063cfad57a214610fb457600080fd5b80639f392eb3116102ef578063b06423f311610282578063c3c7b9e911610251578063c3c7b9e914610f25578063c4f718bf14610f45578063c65bc7b114610f4e578063c6baf66114610f6e57600080fd5b8063b06423f314610eda578063b136ca4914610eec578063b1cc53ab14610eff578063b364accb14610f1257600080fd5b8063a93acac2116102be578063a93acac214610e91578063ab08c1c614610ea4578063ab2f3ad414610eb1578063ae3302c214610ed157600080fd5b80639f392eb314610e55578063a22f239214610e62578063a42ab3d214610e6b578063a5e90eee14610e7e57600080fd5b80638f7b8404116103675780639698d25a116103365780639698d25a14610e065780639849e41214610e265780639899cd0214610e2f5780639d7432ca14610e4257600080fd5b80638f7b840414610dba5780639060b1ca14610dcd5780639331621214610de057806395082d2514610df357600080fd5b80638a39735a116103a35780638a39735a146107b05780638a78daa814610d725780638baf820d14610d925780638ee573ac14610d9a57600080fd5b80638585f4d214610d2c57806388b1fbdf14610d3f5780638a27d46814610d5f57600080fd5b806348d91abf1161059e57806362287a32116104c4578063724e78da116104575780637a210a2b116104265780637a210a2b14610cea5780637c2eb9f714610cf357806381a612d614610d0657806382a0849014610d1957600080fd5b8063724e78da14610c9e578063728cdbca14610cb1578063741bef1a14610cc457806374e6076c14610cd757600080fd5b80636abbe0c8116104935780636abbe0c814610c2b5780636ae0b15414610c455780636be6026b14610c8157806371089f4d14610c8b57600080fd5b806362287a3214610bcf5780636274980314610bd85780636616ba9414610bf857806368b528f214610c0b57600080fd5b806351723e821161053c5780635385b2d51161050b5780635385b2d514610b685780635c07eaab14610b7b5780635f7bc11914610b8e5780636092219914610ba157600080fd5b806351723e8214610af2578063523fba7f14610b05578063529a356f14610b2557806352f55eed14610b4857600080fd5b80634a993ee9116105785780634a993ee914610a405780634befe2ca14610a605780634d47b30414610a69578063514ea4bf14610a7257600080fd5b806348d91abf146109ca57806348f35cbb146109dd5780634a3f088d146109f057600080fd5b80632c668ec1116106835780633c5a6e351161062157806342152873116105f0578063421528731461095757806342b60b031461096a5780634453a3741461098d57806345a6f370146109a057600080fd5b80633c5a6e35146109155780633de39c11146109285780633e72a2621461093157806340eb38021461094457600080fd5b8063318bc6891161065d578063318bc689146108ed57806334c1557d146107b0578063351a964d146108f6578063392e53cd1461090857600080fd5b80632c668ec1146108b45780632d4b0576146108c757806330455ede146108da57600080fd5b8063134ca63b116106fb57806324b0c04d116106ca57806324b0c04d1461083a57806324ca984e1461084f57806328e67be51461088e57806329ff9615146108a157600080fd5b8063134ca63b146107e4578063174d2694146107ed578063181e210e146107f65780631ce9cb8f1461081a57600080fd5b80630a48d5a9116107375780630a48d5a91461079457806310eb56c2146107a7578063126082cf146107b057806312d43a51146107b957600080fd5b806304fef1db1461075e57806307c58752146107845780630842b0761461078c575b600080fd5b61077161076c366004614d80565b61121e565b6040519081526020015b60405180910390f35b610771611281565b601b54610771565b6107716107a2366004614d9d565b61129b565b610771600b5481565b61077161271081565b6006546107cc906001600160a01b031681565b6040516001600160a01b03909116815260200161077b565b61077160145481565b61077160095481565b60165461080a906301000000900460ff1681565b604051901515815260200161077b565b610771610828366004614d80565b602c6020526000908152604090205481565b61084d610848366004614dd7565b6112fe565b005b61084d61085d366004614d80565b3360009081526018602090815260408083206001600160a01b0394909416835292905220805460ff19166001179055565b61084d61089c366004614df4565b611322565b6107716108af366004614d80565b6113a0565b6107716108c2366004614d9d565b6113af565b6107716108d5366004614e70565b6113fb565b61084d6108e8366004614dd7565b61145d565b610771600f5481565b60015461080a90610100900460ff1681565b60015461080a9060ff1681565b61084d610923366004614ecc565b61147f565b61077160175481565b60015461080a9062010000900460ff1681565b61084d610952366004614f3e565b6115c0565b610771610965366004614fb2565b611683565b61080a610978366004614d80565b601f6020526000908152604090205460ff1681565b61084d61099b366004614ff4565b611730565b6109b36109ae366004614e70565b611763565b60408051921515835260208301919091520161077b565b61084d6109d836600461502d565b6117f6565b6002546107cc906001600160a01b031681565b610a036109fe366004614e70565b611bc4565b604080519889526020890197909752958701949094526060860192909252608085015260a0840152151560c083015260e08201526101000161077b565b610771610a4e366004614d80565b60276020526000908152604090205481565b6107716101f481565b610771600c5481565b610abd610a80366004615095565b602b602052600090815260409020805460018201546002830154600384015460048501546005860154600690960154949593949293919290919087565b604080519788526020880196909652948601939093526060850191909152608084015260a083015260c082015260e00161077b565b610771610b00366004614e70565b611cad565b610771610b13366004614d80565b60216020526000908152604090205481565b61080a610b33366004614d80565b60196020526000908152604090205460ff1681565b610771610b56366004614d80565b60256020526000908152604090205481565b610771610b76366004614d80565b611d52565b6109b3610b893660046150ae565b611e0f565b61084d610b9c366004614d80565b611f07565b61080a610baf366004615100565b601860209081526000928352604080842090915290825290205460ff1681565b61077160075481565b610771610be6366004614d80565b602e6020526000908152604090205481565b61084d610c06366004614d9d565b611fa2565b610771610c19366004614d80565b60236020526000908152604090205481565b6001546107cc90630100000090046001600160a01b031681565b61084d610c53366004614d80565b3360009081526018602090815260408083206001600160a01b0394909416835292905220805460ff19169055565b610771620f424081565b61084d610c99366004614d80565b611ff6565b61084d610cac366004614d80565b61202a565b61084d610cbf36600461512e565b612054565b6004546107cc906001600160a01b031681565b6005546107cc906001600160a01b031681565b610771600a5481565b61084d610d01366004614dd7565b6120cb565b610771610d14366004614d80565b6120ef565b610771610d27366004615193565b61218b565b61084d610d3a366004614d9d565b6121c1565b610771610d4d366004614d80565b601e6020526000908152604090205481565b61084d610d6d366004615207565b6121e5565b610771610d80366004614d80565b602d6020526000908152604090205481565b610771601281565b610771610da8366004614d80565b601d6020526000908152604090205481565b61084d610dc8366004614d80565b61222b565b60165461080a9062010000900460ff1681565b610771610dee366004615233565b612255565b61077168327cb2734119d3b7a9601e1b81565b610771610e14366004614d80565b602f6020526000908152604090205481565b61077160125481565b610771610e3d366004614d9d565b6124fc565b610771610e50366004615263565b61251c565b60115461080a9060ff1681565b610771600d5481565b610771610e79366004614d9d565b6125d3565b61084d610e8c366004614ff4565b6125f3565b610771610e9f366004614d80565b612626565b60165461080a9060ff1681565b610771610ebf366004614d80565b60226020526000908152604090205481565b61077160085481565b60165461080a90610100900460ff1681565b610771610efa366004614d80565b612731565b610771610f0d366004615298565b6127cf565b6109b3610f20366004614d80565b612855565b610771610f33366004614d80565b60266020526000908152604090205481565b61077160135481565b610771610f5c366004614d80565b60296020526000908152604090205481565b610771610f7c366004614d80565b60246020526000908152604090205481565b610771610f9c3660046152d8565b6128f4565b61084d610faf366004615320565b612988565b61084d610fc2366004614d80565b6129a4565b61084d610fd5366004615095565b6129ce565b61084d610fe8366004615095565b6129db565b611000610ffb366004615361565b6129f7565b6040805192835260208301919091520161077b565b610771611023366004614d80565b602a6020526000908152604090205481565b61077160105481565b61077161104c3660046153c4565b612a9f565b61080a61105f366004614d80565b601c6020526000908152604090205460ff1681565b61080a611082366004614d80565b602080526000908152604090205460ff1681565b6107716110a4366004615432565b612b3b565b61077160155481565b61084d6110c0366004615497565b612bd3565b610771600e5481565b6107716110dc366004614d80565b612f5e565b6107cc6110ef366004615095565b612fbc565b61084d611102366004614d80565b612fe6565b610771611115366004615100565b6130bb565b610771611128366004615100565b61333f565b61084d61113b366004614d9d565b61357b565b61077161114e366004614d80565b60286020526000908152604090205481565b61084d61116e366004614dd7565b61359f565b610771611181366004615100565b6135c5565b61080a611194366004614d80565b601a6020526000908152604090205460ff1681565b6003546107cc906001600160a01b031681565b6107716111ca366004615263565b61361e565b61084d6111dd366004615100565b61365f565b610771610e1081565b6107716111f93660046154fa565b61383b565b61121161120c366004615095565b613894565b60405161077b9190615571565b6001600160a01b0381166000908152602560205260408120548082036112475750600092915050565b6001600160a01b038316600090815260266020526040902054819061127090620f4240906155ba565b61127a91906155d1565b9392505050565b61129868327cb2734119d3b7a9601e1b60646155ba565b81565b6000816000036112ad575060006112f8565b60006112b8846120ef565b6001600160a01b0385166000908152601d60205260409020549091506112df81600a6156d7565b6112e983866155ba565b6112f391906155d1565b925050505b92915050565b61130661392e565b60168054911515620100000262ff000019909216919091179055565b6002546001600160a01b031633146113815760405162461bcd60e51b815260206004820152601e60248201527f5661756c743a20696e76616c6964206572726f72436f6e74726f6c6c6572000060448201526064015b60405180910390fd5b600083815260306020526040902061139a828483615781565b50505050565b60006112f8826107a284612731565b6000806113bb84612f5e565b90506000816113d668327cb2734119d3b7a9601e1b866155ba565b6113e091906155d1565b6005549091506112f39082906001600160a01b031687611683565b6040516bffffffffffffffffffffffff19606086811b8216602084015285811b8216603484015284901b16604882015281151560f81b605c820152600090605d016040516020818303038152906040528051906020012090505b949350505050565b61146561392e565b600180549115156101000261ff0019909216919091179055565b61148761392e565b6001600160a01b0387166000908152601c602052604090205460ff16611504576007546114b5906001615841565b600755601b80546001810182556000919091527f3ad8aa4f87544323a9d1e5dd902f40c356527a7955687113db5f9a85ad579dc10180546001600160a01b0319166001600160a01b0389161790555b6015546001600160a01b03881660009081526022602052604090205461152a9082615854565b6001600160a01b0389166000908152601c602090815260408083208054600160ff1991821617909155601d83528184208c9055602283528184208b9055601e83528184208a905560248352818420899055601f835281842080548216891515179055918052909120805490911684151517905590506115a98682615841565b6015556115b588612f5e565b505050505050505050565b6115c861392e565b6115d86101f48a11156003613949565b6115e86101f48911156004613949565b6115f86101f48811156005613949565b6116086101f48711156006613949565b6116186101f48611156007613949565b6116286101f48511156008613949565b61164c61164268327cb2734119d3b7a9601e1b60646155ba565b8411156009613949565b600a98909855600b96909655600c94909455600d92909255600e55600f556009556010556011805460ff1916911515919091179055565b60055460009081906001600160a01b038581169116146116bb576001600160a01b0384166000908152601d60205260409020546116be565b60125b6005549091506000906001600160a01b038581169116146116f7576001600160a01b0384166000908152601d60205260409020546116fa565b60125b905061170782600a6156d7565b61171282600a6156d7565b61171c90886155ba565b61172691906155d1565b9695505050505050565b61173861392e565b6001600160a01b03919091166000908152601960205260409020805460ff1916911515919091179055565b6000806000611774878787876113fb565b6000818152602b6020908152604091829020825160e081018452815480825260018301549382019390935260028201549381018490526003820154606082015260048201546080820152600582015460a082015260069091015460c08201819052939450926117e7928992918990611e0f565b93509350505094509492505050565b6117fe613975565b6001546118159062010000900460ff16601c613949565b61181d61399f565b611826856139bb565b611831848483613a15565b600154604051634eae147d60e11b81526001600160a01b03878116600483015286811660248301528581166044830152606482018590528315156084830152630100000090920490911690639d5c28fa9060a40160006040518083038186803b15801561189d57600080fd5b505afa1580156118b1573d6000803e3d6000fd5b505050506118bf848461365f565b60006118cd868686856113fb565b6000818152602b60205260408120919250836118f1576118ec866120ef565b6118fa565b6118fa86612f5e565b825490915060000361190e57600282018190555b81541580159061191e5750600085115b156119445761193e868360000154846002015487858a8860060154612b3b565b60028301555b600061195d898989888a88600001548960030154613b25565b9050600061196a89613bf5565b905060006119788a8361129b565b905080856001015461198a9190615841565b6001860181905561199f90841115601d613949565b8285600101546119af9190615854565b60018601556119bf8a8a896127cf565b600386015584546119d1908990615841565b8086554260068701556119e7901515601e613949565b6119f985600001548660010154613c99565b611a078b8b8b8a60016129f7565b50506000611a158b8a6125d3565b9050808660040154611a279190615841565b6004870155611a368b82613cbf565b8715611a7b57611a4f8b611a4a868c615841565b613d55565b611a598b83613dc7565b611a638b84613e39565b611a768b611a718d876124fc565b613f3e565b611ae9565b6001600160a01b038a166000908152602d60205260408120549003611aba576001600160a01b038a166000908152602e60205260409020859055611adf565b611ac58a868b61251c565b6001600160a01b038b166000908152602e60205260409020555b611ae98a8a613fc6565b7f2fe68525253654c21998f35787a8d0f361905ef647c854092430ab65f2f15022878d8d8d868e8e8c8c604051611b2899989796959493929190615867565b60405180910390a1855460018701546002880154600389015460048a015460058b0154604080518e815260208101979097528601949094526060850192909252608084015260a083015260c082015260e081018690527f20853733b590dce729d9f4628682ebd9a34d2354e72679e66f43a008fc03b773906101000160405180910390a150505050505050611bbd6001600055565b5050505050565b6000806000806000806000806000611bde8d8d8d8d6113fb565b6000818152602b60209081526040808320815160e081018352815481526001820154938101939093526002810154918301919091526003810154606083015260048101546080830152600581015460a0830181905260069091015460c0830152929350918112611c5b578160a00151611c56906158b5565b611c61565b8160a001515b9050816000015182602001518360400151846060015185608001518560008860a0015112158860c001519a509a509a509a509a509a509a509a5050505094995094995094999196509450565b600080611cbc868686866113fb565b6000818152602b6020908152604091829020825160e0810184528154815260018201549281018390526002820154938101939093526003810154606084015260048101546080840152600581015460a08401526006015460c083015291925090611d299015156025613949565b60208101518151611d3d90612710906155ba565b611d4791906155d1565b979650505050505050565b600080600560009054906101000a90046001600160a01b03166001600160a01b03166318160ddd6040518163ffffffff1660e01b8152600401602060405180830381865afa158015611da8573d6000803e3d6000fd5b505050506040513d601f19601f82011682018060405250810190611dcc91906158d1565b905080600003611ddf5750600092915050565b6001600160a01b038316600090815260226020526040902054601554611e0583836155ba565b61145591906155d1565b600080611e20600086116026613949565b600084611e3557611e3088612f5e565b611e3e565b611e3e886120ef565b90506000818711611e5857611e538783615854565b611e62565b611e628288615854565b9050600087611e71838b6155ba565b611e7b91906155d1565b905060008715611e8e5750878311611e93565b508288115b600060105488611ea39190615841565b4211611ec7576001600160a01b038c166000908152601e6020526040902054611eca565b60005b9050818015611eed5750611ede818c6155ba565b611eea612710856155ba565b11155b15611ef757600092505b509a909950975050505050505050565b611f0f613975565b6001600160a01b0381166000908152601c6020526040902054611f369060ff16600e613949565b6000611f4182613bf5565b9050611f5160008211600f613949565b611f5b8282613e39565b7fa5a389190ebf6170a133bda5c769b77f4d6715b8aa172ec0ddf8473d0b4944bd8282604051611f8c9291906158ea565b60405180910390a150611f9f6001600055565b50565b611faa61392e565b6001600160a01b03821660009081526023602052604090205480821115611fe357611fde83611fd98385615854565b61407d565b505050565b611fde83611ff18484615854565b614124565b611ffe61392e565b600180546001600160a01b039092166301000000026301000000600160b81b0319909216919091179055565b61203261392e565b600480546001600160a01b0319166001600160a01b0392909216919091179055565b61205c61392e565b600180546120709160ff9091161590613949565b6001805460ff191681179055600380546001600160a01b03199081166001600160a01b039889161790915560058054821696881696909617909555600480549095169390951692909217909255600991909155601355601455565b6120d361392e565b60018054911515620100000262ff000019909216919091179055565b600480546016546040516317e1d38560e11b81526001600160a01b038581169482019490945260006024820181905260ff8084161515604484015261010090930490921615156064820152909290911690632fc3a70a906084015b602060405180830381865afa158015612167573d6000803e3d6000fd5b505050506040513d601f19601f820116820180604052508101906112f891906158d1565b6000612195613975565b61219d61399f565b6121a6886139bb565b6121b5888888888888886141b8565b9050611d476001600055565b6121c961392e565b6001600160a01b03909116600090815260276020526040902055565b6121ed61392e565b6121fd610e10841015600a613949565b61220d612710831115600b613949565b61221d612710821115600c613949565b601292909255601355601455565b61223361392e565b600280546001600160a01b0319166001600160a01b0392909216919091179055565b600061225f613975565b60015461227590610100900460ff166017613949565b6001600160a01b0384166000908152601c602052604090205461229c9060ff166018613949565b6001600160a01b0383166000908152601c60205260409020546122c39060ff166019613949565b6122e3836001600160a01b0316856001600160a01b03161415601a613949565b6016805461ff0019166101001790556122fc848061365f565b612306838461365f565b600061231185613bf5565b905061232160008211601b613949565b600061232c866120ef565b9050600061233986612f5e565b905060008161234884866155ba565b61235291906155d1565b905061235f818989611683565b9050600068327cb2734119d3b7a9601e1b61237a85876155ba565b61238491906155d1565b6005549091506123a09082908b906001600160a01b0316611683565b600154604051636d099c0b60e11b81526001600160a01b038c811660048301528b811660248301526044820184905292935060009263010000009092049091169063da13381690606401602060405180830381865afa158015612407573d6000803e3d6000fd5b505050506040513d601f19601f8201168201806040525081019061242b91906158d1565b9050600061243a8a85846145fc565b90506124468b8461407d565b6124508a84614124565b61245a8b88613e39565b6124648a85613f3e565b61246d8a6146cc565b6124788a828b61473f565b604080516001600160a01b038b811682528d811660208301528c1681830152606081018990526080810186905260a0810183905260c0810184905290517f0874b2d545cb271cdbda4e093020c452328b24af12382ed62c4d00f5c26709db9181900360e00190a16016805461ff0019169055965050505050505061127a6001600055565b60008160000361250e575060006112f8565b61127a83836111ca86612f5e565b6001600160a01b0383166000908152602d6020908152604080832054602e90925282205482858211612557576125528287615854565b612561565b6125618683615854565b905060008261257083866155ba565b61257a91906155d1565b9050868311600061258b8887615841565b90506000826125a35761259e8483615841565b6125ad565b6125ad8483615854565b9050806125ba838c6155ba565b6125c491906155d1565b9b9a5050505050505050505050565b6000816000036125e5575060006112f8565b61127a83836111ca866120ef565b6125fb61392e565b6001600160a01b03919091166000908152601a60205260409020805460ff1916911515919091179055565b6012546001600160a01b0382166000908152602a6020526040812054909142916126509190615841565b111561265e57506000919050565b6012546001600160a01b0383166000908152602a60205260408120549091906126879042615854565b61269191906155d1565b6001600160a01b0384166000908152602560205260408120549192508190036126be575060009392505050565b6001600160a01b0384166000908152601f602052604081205460ff166126e6576013546126ea565b6014545b6001600160a01b0386166000908152602660205260409020549091508290849061271490846155ba565b61271e91906155ba565b61272891906155d1565b95945050505050565b6001600160a01b0381166000908152601f602052604081205460ff161561276e57506001600160a01b031660009081526025602052604090205490565b6001600160a01b0382166000908152602860205260408120546127929084906124fc565b6001600160a01b038416600090815260266020908152604080832054602590925290912054919250906127c59083615841565b61127a9190615854565b60015460405163b1cc53ab60e01b81526001600160a01b0385811660048301528481166024830152831515604483015260009263010000009004169063b1cc53ab90606401602060405180830381865afa158015612831573d6000803e3d6000fd5b505050506040513d601f19601f8201168201806040525081019061145591906158d1565b6001600160a01b0381166000908152602d602052604081205481908082036128835750600093849350915050565b600061288e85612f5e565b6001600160a01b0386166000908152602e60205260408120549192508282116128c0576128bb8284615854565b6128ca565b6128ca8383615854565b90506000826128d983876155ba565b6128e391906155d1565b939092119792965091945050505050565b60015460405163c7e074c360e01b81526001600160a01b038781166004830152602482018790526044820186905260648201859052831515608483015260009263010000009004169063c7e074c39060a4015b602060405180830381865afa158015612964573d6000803e3d6000fd5b505050506040513d601f19601f8201168201806040525081019061172691906158d1565b61299061392e565b611fde6001600160a01b03831684836147dc565b6129ac61392e565b600680546001600160a01b0319166001600160a01b0392909216919091179055565b6129d661392e565b601755565b6129e361392e565b6129f261271082116002613949565b600855565b60015460405163d54d5a9f60e01b81526001600160a01b0387811660048301528681166024830152858116604483015284151560648301528315156084830152600092839263010000009091049091169063d54d5a9f9060a4016040805180830381865afa158015612a6d573d6000803e3d6000fd5b505050506040513d601f19601f82011682018060405250810190612a919190615903565b915091509550959350505050565b60015460405163369d949360e21b81526001600160a01b0388811660048301528781166024830152868116604483015285151560648301526084820185905260a4820184905260009263010000009004169063da76524c9060c401602060405180830381865afa158015612b17573d6000803e3d6000fd5b505050506040513d601f19601f82011682018060405250810190611d4791906158d1565b6000806000612b4d8a8a8a8a88611e0f565b90925090506000612b5e868b615841565b905060008815612b8d5783612b7c57612b778383615854565b612b86565b612b868383615841565b9050612bae565b83612ba157612b9c8383615841565b612bab565b612bab8383615854565b90505b80612bb9838a6155ba565b612bc391906155d1565b9c9b505050505050505050505050565b612bdb613975565b6016546301000000900460ff1615612c0b5733600090815260196020526040902054612c0b9060ff166022613949565b6016805460ff19169055612c1f848461365f565b6000612c2d868686866113fb565b6000818152602b6020908152604091829020825160e08101845281548082526001830154938201939093526002820154938101939093526003810154606084015260048101546080840152600581015460a08401526006015460c083015291925090612c9c9015156023613949565b600080612cad8989898960006129f7565b91509150612cc082600014156024613949565b81600203612cf457612cdc898989600087600001518b8f6141b8565b50506016805460ff1916600117905550612f54915050565b6000612d0089836124fc565b6001600160a01b038a166000908152602c6020526040902054909150612d27908290615841565b6001600160a01b038a166000818152602c60209081526040918290209390935580519182529181018490529081018290527f5d0c0019d3d45fadeb74eff9d2c9924d146d000ac6bcf3c28bf0ac3c9baa011a9060600160405180910390a1612d93898560800151614834565b8615612dc457612db68985602001518660000151612db19190615854565b613dc7565b612dc489611a718b856124fc565b600087612dd957612dd489612f5e565b612de2565b612de2896120ef565b90507f2e1f85a64a2f22cf2f0c42584e7c919ed4abe8d53675cff0f62bf1e95a1c676f868c8c8c8c8a600001518b602001518c608001518d60a001518a604051612e849a99989796959493929190998a526001600160a01b0398891660208b015296881660408a0152949096166060880152911515608087015260a086015260c085015260e08401929092526101008301919091526101208201526101400190565b60405180910390a187158015612e9d5750846020015183105b15612ecb576000838660200151612eb49190615854565b9050612ec98b612ec48d846124fc565b613e39565b505b87612ede57612ede8986600001516148a6565b6000868152602b60205260408120818155600181018290556002810182905560038101829055600481018290556005810182905560060155600954612f2a908b90611a719082906124fc565b612f408a612f3a8c6009546124fc565b8961473f565b50506016805460ff19166001179055505050505b611bbd6001600055565b600480546016546040516317e1d38560e11b81526001600160a01b03858116948201949094526001602482015260ff808316151560448301526101009092049091161515606482015260009290911690632fc3a70a9060840161214a565b601b8181548110612fcc57600080fd5b6000918252602090912001546001600160a01b0316905081565b612fee61392e565b6001600160a01b0381166000908152601c60205260409020546130159060ff16600d613949565b6001600160a01b03811660009081526022602052604090205460155461303b9190615854565b6015556001600160a01b0381166000908152601c60209081526040808320805460ff19908116909155601d835281842084905560228352818420849055601e835281842084905560248352818420849055601f8352818420805482169055918052909120805490911690556007546130b590600190615854565b60075550565b60006130c5613975565b6130cd61490e565b6001600160a01b0383166000908152601c60205260409020546130f49060ff166010613949565b6016805461ff001916610100179055600061310e84613bf5565b905061311e600082116011613949565b613128848561365f565b6000613133856120ef565b9050600068327cb2734119d3b7a9601e1b61314e83856155ba565b61315891906155d1565b60055490915061317490829088906001600160a01b0316611683565b9050613184600082116012613949565b6001546040516338dd20af60e11b8152600091630100000090046001600160a01b0316906371ba415e906131be908a9086906004016158ea565b602060405180830381865afa1580156131db573d6000803e3d6000fd5b505050506040513d601f19601f820116820180604052508101906131ff91906158d1565b9050600061320e8886846145fc565b9050600068327cb2734119d3b7a9601e1b61322986846155ba565b61323391906155d1565b60055490915061324f9082908b906001600160a01b0316611683565b905061325b898261407d565b6132658983613e39565b6005546040516340c10f1960e01b81526001600160a01b03909116906340c10f1990613297908b9085906004016158ea565b600060405180830381600087803b1580156132b157600080fd5b505af11580156132c5573d6000803e3d6000fd5b5050604080516001600160a01b03808d1682528d16602082015290810189905260608101849052608081018690527f892688465d895beb1d8bdd5e01a638b349b056174bc0eef0d6f622d77cf58604925060a001905060405180910390a16016805461ff0019169055955050505050506112f86001600055565b6000613349613975565b61335161490e565b6001600160a01b0383166000908152601c60205260409020546133789060ff166013613949565b6016805461ff00191661010017905560055460009061339f906001600160a01b0316613bf5565b90506133af600082116014613949565b6133b9848561365f565b60006133c585836113af565b90506133d5600082116015613949565b6133df8583614124565b6133e98582613f3e565b600554604051632770a7eb60e21b81526001600160a01b0390911690639dc29fac9061341b90309086906004016158ea565b600060405180830381600087803b15801561343557600080fd5b505af1158015613449573d6000803e3d6000fd5b505060055461346392506001600160a01b0316905061493d565b600154604051632d9cb64960e11b8152600091630100000090046001600160a01b031690635b396c929061349d90899087906004016158ea565b602060405180830381865afa1580156134ba573d6000803e3d6000fd5b505050506040513d601f19601f820116820180604052508101906134de91906158d1565b905060006134ed8784846145fc565b90506134fd600082116016613949565b61350887828861473f565b604080516001600160a01b0380891682528916602082015290810185905260608101829052608081018390527f77d652ae2906830c7e074a965ed97f1163b917f9db7ba0ff264bc039af7f67df9060a00160405180910390a16016805461ff001916905593505050506112f86001600055565b61358361392e565b6001600160a01b039091166000908152602f6020526040902055565b6135a761392e565b6016805491151563010000000263ff00000019909216919091179055565b60006135cf61392e565b6001600160a01b0383166000908152602c6020526040812054908190036135fa5760009150506112f8565b6001600160a01b0384166000908152602c602052604081205561127a84828561473f565b6000826000036136305750600061127a565b6001600160a01b0384166000908152601d60205260409020548261365582600a6156d7565b61271e90866155ba565b60015460405163fbfded6d60e01b81526001600160a01b038481166004830152838116602483015260009263010000009004169063fbfded6d906044016020604051808303816000875af11580156136bb573d6000803e3d6000fd5b505050506040513d601f19601f820116820180604052508101906136df9190615927565b9050806136eb57505050565b6001600160a01b0383166000908152602a602052604081205490036137425760125461371781426155d1565b61372191906155ba565b6001600160a01b039093166000908152602a60205260409020929092555050565b6012546001600160a01b0384166000908152602a6020526040902054429161376991615841565b111561377457505050565b600061377f84612626565b6001600160a01b0385166000908152602960205260409020549091506137a6908290615841565b6001600160a01b0385166000908152602960205260409020556012546137cc81426155d1565b6137d691906155ba565b6001600160a01b0385166000908152602a6020908152604080832093909355602990528190205490517fa146fc154e1913322e9817d49f0d5c37466c24326e15de10e739a948be815eab9161382d918791906158ea565b60405180910390a150505050565b60015460405163fdaf6ac360e01b81526001600160a01b0387811660048301528681166024830152858116604483015284151560648301526084820184905260009263010000009004169063fdaf6ac39060a401612947565b603060205260009081526040902080546138ad906156f9565b80601f01602080910402602001604051908101604052809291908181526020018280546138d9906156f9565b80156139265780601f106138fb57610100808354040283529160200191613926565b820191906000526020600020905b81548152906001019060200180831161390957829003601f168201915b505050505081565b600654613947906001600160a01b031633146035613949565b565b600081815260306020526040902082611fde5760405162461bcd60e51b81526004016113789190615944565b60026000540361399857604051633ee5aeb560e01b815260040160405180910390fd5b6002600055565b6017546000036139ab57565b6139476017543a11156037613949565b6001600160a01b03811633036139ce5750565b6003546001600160a01b031633036139e35750565b6001600160a01b0381166000908152601860209081526040808320338452909152902054611f9f9060ff166029613949565b8015613a8957613a3a826001600160a01b0316846001600160a01b031614602a613949565b6001600160a01b0383166000908152601c6020526040902054613a619060ff16602b613949565b6001600160a01b0383166000908152601f6020526040902054611fde9060ff1615602c613949565b6001600160a01b0383166000908152601c6020526040902054613ab09060ff16602d613949565b6001600160a01b0383166000908152601f6020526040902054613ad79060ff16602e613949565b6001600160a01b0382166000908152601f6020526040902054613aff9060ff1615602f613949565b6001600160a01b0382166000908152602080526040902054611fde9060ff166030613949565b600080613b35898989898961383b565b90506000613b478a8a8a8a8989612a9f565b9050613b538183615841565b91506000613b618a846124fc565b6001600160a01b038b166000908152602c6020526040902054909150613b88908290615841565b6001600160a01b038b166000818152602c60209081526040918290209390935580519182529181018590529081018290527f5d0c0019d3d45fadeb74eff9d2c9924d146d000ac6bcf3c28bf0ac3c9baa011a9060600160405180910390a150909998505050505050505050565b6001600160a01b0381166000818152602160205260408082205490516370a0823160e01b8152306004820152919290918391906370a0823190602401602060405180830381865afa158015613c4e573d6000803e3d6000fd5b505050506040513d601f19601f82011682018060405250810190613c7291906158d1565b6001600160a01b038516600090815260216020526040902081905590506114558282615854565b81600003613cb157613cad81156027613949565b5050565b613cad818310156028613949565b6001600160a01b038216600090815260266020526040902054613ce3908290615841565b6001600160a01b038316600090815260266020818152604080842085905560258252909220549152613d189111156034613949565b7faa5649d82f5462be9d19b0f2b31a59b2259950a6076550bac9f3a1c07db9f66d8282604051613d499291906158ea565b60405180910390a15050565b6001600160a01b038216600090815260286020526040902054613d79908290615841565b6001600160a01b0383166000908152602860205260409081902091909155517fd9d4761f75e0d0103b5cbeab941eeb443d7a56a35b5baf2a0787c03f03f4e47490613d4990849084906158ea565b6001600160a01b038216600090815260286020526040902054613deb908290615854565b6001600160a01b0383166000908152602860205260409081902091909155517f34e07158b9db50df5613e591c44ea2ebc82834eff4a4dc3a46e000e608261d6890613d4990849084906158ea565b6001600160a01b038216600090815260256020526040902054613e5d908290615841565b6001600160a01b0383166000818152602560205260408082209390935591516370a0823160e01b81523060048201526370a0823190602401602060405180830381865afa158015613eb2573d6000803e3d6000fd5b505050506040513d601f19601f82011682018060405250810190613ed691906158d1565b6001600160a01b038416600090815260256020526040902054909150613f00908210156031613949565b7f976177fbe09a15e5e43f848844963a42b41ef919ef17ff21a17a5421de8f47378383604051613f319291906158ea565b60405180910390a1505050565b6001600160a01b038216600090815260256020526040902054613f62908290615854565b6001600160a01b03831660009081526025602090815260408083208490556026909152902054613f959110156032613949565b7f112726233fbeaeed0f5b1dba5cb0b2b81883dee49fb35ff99fd98ed9f6d31eb08282604051613d499291906158ea565b6001600160a01b0382166000908152602d6020526040902054613fea908290615841565b6001600160a01b0383166000908152602d6020908152604080832093909355602f905220548015611fde576001600160a01b0383166000908152602d6020526040902054811015611fde5760405162461bcd60e51b815260206004820152601a60248201527f5661756c743a206d61782073686f7274732065786365656465640000000000006044820152606401611378565b6001600160a01b0382166000908152602360205260409020546140a1908290615841565b6001600160a01b03831660009081526023602090815260408083209390935560249052205480156140f3576001600160a01b0383166000908152602360205260409020546140f3908210156033613949565b7f7d906317dccf920980ba8c95c128f300745353cfeabaabaa9f096173c9019a9c8383604051613f319291906158ea565b6001600160a01b0382166000908152602360205260409020548181116141605750506001600160a01b0316600090815260236020526040812055565b61416a8282615854565b6001600160a01b0384166000908152602360205260409081902091909155517f16d38e69f42b87f905c0e8b0ac38bb3027f7547f2c4dfa756b30b3a01bdd56c090613f3190859085906158ea565b6001546040516381d11a2360e01b81526001600160a01b03898116600483015288811660248301528781166044830152606482018790526084820186905284151560a483015283811660c48301526000926301000000900416906381d11a239060e40160006040518083038186803b15801561423357600080fd5b505afa158015614247573d6000803e3d6000fd5b50505050614255878761365f565b6000614263898989876113fb565b6000818152602b60205260409020805491925090614284901515601f613949565b61429686826000015410156020613949565b6142a887826001015410156021613949565b600181015481546004830154600091906142c3908a906155ba565b6142cd91906155d1565b90508083600401546142df9190615854565b60048401556142ee8b82614834565b506000806143008d8d8d8d8d8d6149c8565b855491935091508914614462576143188c8c8a6127cf565b6003850155835461432a908a90615854565b808555600185015461433c9190613c99565b61434a8d8d8d8b60016129f7565b50508715614370576143668c856001015485611a4a9190615854565b6143708c8a613dc7565b600088614385576143808c612f5e565b61438e565b61438e8c6120ef565b90507f93d75d64d1f84fc6f430a64fc578bdd4c1e090e90ea2d51773e626d19de56d30868f8f8f8f8f8f886143c38b8d615854565b6040516143d899989796959493929190615867565b60405180910390a18454600186015460028701546003880154600489015460058a0154604080518d815260208101979097528601949094526060850192909252608084015260a083015260c082015260e081018290527f20853733b590dce729d9f4628682ebd9a34d2354e72679e66f43a008fc03b773906101000160405180910390a15061459a565b871561447c576144728c84613d55565b61447c8c8a613dc7565b6000886144915761448c8c612f5e565b61449a565b61449a8c6120ef565b90507f93d75d64d1f84fc6f430a64fc578bdd4c1e090e90ea2d51773e626d19de56d30868f8f8f8f8f8f886144cf8b8d615854565b6040516144e499989796959493929190615867565b60405180910390a18454600186015460028701546003880154600489015460058a0154604080518d815260208101979097528601949094526060850192909252608084015260a083015260c08201527f73af1d417d82c240fdb6d319b34ad884487c6bf2845d98980cc52ad9171cb4559060e00160405180910390a1506000858152602b602052604081208181556001810182905560028101829055600381018290556004810182905560058101829055600601555b876145a9576145a98b8a6148a6565b81156145e95787156145c3576145c38c611a718e856124fc565b60006145cf8d836124fc565b90506145dc8d828a61473f565b9550611d47945050505050565b5060009c9b505050505050505050505050565b60008061271061460c8482615854565b61461690866155ba565b61462091906155d1565b9050600061462e8286615854565b6001600160a01b0387166000908152602c6020526040902054909150614655908290615841565b6001600160a01b0387166000908152602c60205260409020557f47cd9dda0e50ce30bcaaacd0488452b596221c07ac402a581cfae4d3933cac2b8661469a818461129b565b604080516001600160a01b0390931683526020830191909152810183905260600160405180910390a150949350505050565b6001600160a01b0381166000908152602760209081526040808320546025909252909120541015611f9f5760405162461bcd60e51b815260206004820152601a60248201527f5661756c743a20706f6f6c416d6f756e74203c206275666665720000000000006044820152606401611378565b6147536001600160a01b03841682846147dc565b6040516370a0823160e01b81523060048201526001600160a01b038416906370a0823190602401602060405180830381865afa158015614797573d6000803e3d6000fd5b505050506040513d601f19601f820116820180604052508101906147bb91906158d1565b6001600160a01b039093166000908152602160205260409020929092555050565b611fde83846001600160a01b031663a9059cbb85856040516024016148029291906158ea565b604051602081830303815290604052915060e01b6020820180516001600160e01b038381831617835250505050614be0565b6001600160a01b038216600090815260266020526040902054614858908290615854565b6001600160a01b0383166000908152602660205260409081902091909155517f533cb5ed32be6a90284e96b5747a1bfc2d38fdb5768a6b5f67ff7d62144ed67b90613d4990849084906158ea565b6001600160a01b0382166000908152602d6020526040902054808211156148e35750506001600160a01b03166000908152602d6020526040812055565b6148ed8282615854565b6001600160a01b039093166000908152602d60205260409020929092555050565b60165462010000900460ff161561394757336000908152601a60205260409020546139479060ff166036613949565b6040516370a0823160e01b81523060048201526000906001600160a01b038316906370a0823190602401602060405180830381865afa158015614984573d6000803e3d6000fd5b505050506040513d601f19601f820116820180604052508101906149a891906158d1565b6001600160a01b0390921660009081526021602052604090209190915550565b60008060006149d9898989876113fb565b6000818152602b60205260408120805460038201549394509092614a06918d918d918d918b918d91613b25565b9050600080600080614a278d876000015488600201548d8a60060154611e0f565b87549195508593509150614a3b828d6155ba565b614a4591906155d1565b925050506000828015614a585750600082115b15614a9457819050818560050154614a7091906159cf565b600586015588614a94576000614a868e846124fc565b9050614a928e82613f3e565b505b82158015614aa25750600082115b15614af157818560010154614ab79190615854565b600186015588614adb576000614acd8e846124fc565b9050614ad98e82613e39565b505b818560050154614aeb91906159f7565b60058601555b8a15614b1957614b018b82615841565b90508a8560010154614b139190615854565b60018601555b84548a9003614b3b576001850154614b319082615841565b6000600187015590505b8084811115614b5557614b4e8583615854565b9050614b8a565b848660010154614b659190615854565b60018701558915614b8a576000614b7c8f876124fc565b9050614b888f82613f3e565b505b6040805188815285151560208201529081018490527f3ff41bdde87755b687ae83d0221a232b6be51a803330ed9661c1b5d0105e0d8a9060600160405180910390a1909e909d509b505050505050505050505050565b6000614bf56001600160a01b03841683614c43565b90508051600014158015614c1a575080806020019051810190614c189190615927565b155b15611fde57604051635274afe760e01b81526001600160a01b0384166004820152602401611378565b606061127a83836000614c54614c6d565b604051630a12f52160e11b815260040160405180910390fd5b606082471015614c925760405163cd78605960e01b8152306004820152602401611378565b600080866001600160a01b03168587604051614cae9190615a1e565b60006040518083038185875af1925050503d8060008114614ceb576040519150601f19603f3d011682016040523d82523d6000602084013e614cf0565b606091505b5091509150611d478783838760608315614d4a578251600003614d4357846001600160a01b03163b600003614d4357604051639996b31560e01b81526001600160a01b0386166004820152602401611378565b5081611455565b6114558383815115614d5f5781518083602001fd5b614c548163ffffffff16565b6001600160a01b0381168114611f9f57600080fd5b600060208284031215614d9257600080fd5b813561127a81614d6b565b60008060408385031215614db057600080fd5b8235614dbb81614d6b565b946020939093013593505050565b8015158114611f9f57600080fd5b600060208284031215614de957600080fd5b813561127a81614dc9565b600080600060408486031215614e0957600080fd5b83359250602084013567ffffffffffffffff80821115614e2857600080fd5b818601915086601f830112614e3c57600080fd5b813581811115614e4b57600080fd5b876020828501011115614e5d57600080fd5b6020830194508093505050509250925092565b60008060008060808587031215614e8657600080fd5b8435614e9181614d6b565b93506020850135614ea181614d6b565b92506040850135614eb181614d6b565b91506060850135614ec181614dc9565b939692955090935050565b600080600080600080600060e0888a031215614ee757600080fd5b8735614ef281614d6b565b96506020880135955060408801359450606088013593506080880135925060a0880135614f1e81614dc9565b915060c0880135614f2e81614dc9565b8091505092959891949750929550565b60008060008060008060008060006101208a8c031215614f5d57600080fd5b8935985060208a0135975060408a0135965060608a0135955060808a0135945060a08a0135935060c08a0135925060e08a013591506101008a0135614fa181614dc9565b809150509295985092959850929598565b600080600060608486031215614fc757600080fd5b833592506020840135614fd981614d6b565b91506040840135614fe981614d6b565b809150509250925092565b6000806040838503121561500757600080fd5b823561501281614d6b565b9150602083013561502281614dc9565b809150509250929050565b600080600080600060a0868803121561504557600080fd5b853561505081614d6b565b9450602086013561506081614d6b565b9350604086013561507081614d6b565b925060608601359150608086013561508781614dc9565b809150509295509295909350565b6000602082840312156150a757600080fd5b5035919050565b600080600080600060a086880312156150c657600080fd5b85356150d181614d6b565b9450602086013593506040860135925060608601356150ef81614dc9565b949793965091946080013592915050565b6000806040838503121561511357600080fd5b823561511e81614d6b565b9150602083013561502281614d6b565b60008060008060008060c0878903121561514757600080fd5b863561515281614d6b565b9550602087013561516281614d6b565b9450604087013561517281614d6b565b959894975094956060810135955060808101359460a0909101359350915050565b600080600080600080600060e0888a0312156151ae57600080fd5b87356151b981614d6b565b965060208801356151c981614d6b565b955060408801356151d981614d6b565b9450606088013593506080880135925060a08801356151f781614dc9565b915060c0880135614f2e81614d6b565b60008060006060848603121561521c57600080fd5b505081359360208301359350604090920135919050565b60008060006060848603121561524857600080fd5b833561525381614d6b565b92506020840135614fd981614d6b565b60008060006060848603121561527857600080fd5b833561528381614d6b565b95602085013595506040909401359392505050565b6000806000606084860312156152ad57600080fd5b83356152b881614d6b565b925060208401356152c881614d6b565b91506040840135614fe981614dc9565b600080600080600060a086880312156152f057600080fd5b85356152fb81614d6b565b9450602086013593506040860135925060608601359150608086013561508781614dc9565b60008060006060848603121561533557600080fd5b833561534081614d6b565b9250602084013561535081614d6b565b929592945050506040919091013590565b600080600080600060a0868803121561537957600080fd5b853561538481614d6b565b9450602086013561539481614d6b565b935060408601356153a481614d6b565b925060608601356153b481614dc9565b9150608086013561508781614dc9565b60008060008060008060c087890312156153dd57600080fd5b86356153e881614d6b565b955060208701356153f881614d6b565b9450604087013561540881614d6b565b9350606087013561541881614dc9565b9598949750929560808101359460a0909101359350915050565b600080600080600080600060e0888a03121561544d57600080fd5b873561545881614d6b565b96506020880135955060408801359450606088013561547681614dc9565b9699959850939660808101359560a0820135955060c0909101359350915050565b600080600080600060a086880312156154af57600080fd5b85356154ba81614d6b565b945060208601356154ca81614d6b565b935060408601356154da81614d6b565b925060608601356154ea81614dc9565b9150608086013561508781614d6b565b600080600080600060a0868803121561551257600080fd5b853561551d81614d6b565b9450602086013561552d81614d6b565b9350604086013561553d81614d6b565b925060608601356150ef81614dc9565b60005b83811015615568578181015183820152602001615550565b50506000910152565b602081526000825180602084015261559081604085016020870161554d565b601f01601f19169190910160400192915050565b634e487b7160e01b600052601160045260246000fd5b80820281158282048414176112f8576112f86155a4565b6000826155ee57634e487b7160e01b600052601260045260246000fd5b500490565b600181815b8085111561562e578160001904821115615614576156146155a4565b8085161561562157918102915b93841c93908002906155f8565b509250929050565b600082615645575060016112f8565b81615652575060006112f8565b816001811461566857600281146156725761568e565b60019150506112f8565b60ff841115615683576156836155a4565b50506001821b6112f8565b5060208310610133831016604e8410600b84101617156156b1575081810a6112f8565b6156bb83836155f3565b80600019048211156156cf576156cf6155a4565b029392505050565b600061127a8383615636565b634e487b7160e01b600052604160045260246000fd5b600181811c9082168061570d57607f821691505b60208210810361572d57634e487b7160e01b600052602260045260246000fd5b50919050565b601f821115611fde57600081815260208120601f850160051c8101602086101561575a5750805b601f850160051c820191505b8181101561577957828155600101615766565b505050505050565b67ffffffffffffffff831115615799576157996156e3565b6157ad836157a783546156f9565b83615733565b6000601f8411600181146157e157600085156157c95750838201355b600019600387901b1c1916600186901b178355611bbd565b600083815260209020601f19861690835b8281101561581257868501358255602094850194600190920191016157f2565b508682101561582f5760001960f88860031b161c19848701351681555b505060018560011b0183555050505050565b808201808211156112f8576112f86155a4565b818103818111156112f8576112f86155a4565b9889526001600160a01b0397881660208a01529587166040890152939095166060870152608086019190915260a085015291151560c084015260e08301919091526101008201526101200190565b6000600160ff1b82016158ca576158ca6155a4565b5060000390565b6000602082840312156158e357600080fd5b5051919050565b6001600160a01b03929092168252602082015260400190565b6000806040838503121561591657600080fd5b505080516020909101519092909150565b60006020828403121561593957600080fd5b815161127a81614dc9565b6000602080835260008454615958816156f9565b808487015260406001808416600081146159795760018114615993576159c1565b60ff1985168984015283151560051b8901830195506159c1565b896000528660002060005b858110156159b95781548b820186015290830190880161599e565b8a0184019650505b509398975050505050505050565b80820182811260008312801582168215821617156159ef576159ef6155a4565b505092915050565b8181036000831280158383131683831282161715615a1757615a176155a4565b5092915050565b60008251615a3081846020870161554d565b919091019291505056fea26469706673582212209138475714df3323d23fdc023cda4908a908d11c141a2f578695c820ac35836764736f6c63430008120033","linkReferences":{}},"methodIdentifiers":{"BASIS_POINTS_DIVISOR()":"126082cf","FUNDING_RATE_PRECISION()":"6be6026b","MAX_FEE_BASIS_POINTS()":"4befe2ca","MAX_FUNDING_RATE_FACTOR()":"8a39735a","MAX_LIQUIDATION_FEE_USD()":"07c58752","MIN_FUNDING_RATE_INTERVAL()":"fce28c10","MIN_LEVERAGE()":"34c1557d","PRICE_PRECISION()":"95082d25","USDP_DECIMALS()":"8baf820d","addRouter(address)":"24ca984e","adjustForDecimals(uint256,address,address)":"42152873","allWhitelistedTokens(uint256)":"e468baf0","allWhitelistedTokensLength()":"0842b076","approvedRouters(address,address)":"60922199","bufferAmounts(address)":"4a993ee9","buyUSDP(address,address)":"e695546e","clearTokenConfig(address)":"e67f59a7","cumulativeFundingRates(address)":"c65bc7b1","decreasePosition(address,address,address,uint256,uint256,bool,address)":"82a08490","directPoolDeposit(address)":"5f7bc119","errorController()":"48f35cbb","errors(uint256)":"fed1a606","feeReserves(address)":"1ce9cb8f","fundingInterval()":"9849e412","fundingRateFactor()":"c4f718bf","getDelta(address,uint256,uint256,bool,uint256)":"5c07eaab","getEntryFundingRate(address,address,bool)":"b1cc53ab","getFeeBasisPoints(address,uint256,uint256,uint256,bool)":"c7e074c3","getFundingFee(address,address,address,bool,uint256,uint256)":"da76524c","getGlobalShortDelta(address)":"b364accb","getMaxPrice(address)":"e124e6d2","getMinPrice(address)":"81a612d6","getNextAveragePrice(address,uint256,uint256,bool,uint256,uint256,uint256)":"db97495f","getNextFundingRate(address)":"a93acac2","getNextGlobalShortAveragePrice(address,uint256,uint256)":"9d7432ca","getPosition(address,address,address,bool)":"4a3f088d","getPositionDelta(address,address,address,bool)":"45a6f370","getPositionFee(address,address,address,bool,uint256)":"fdaf6ac3","getPositionKey(address,address,address,bool)":"2d4b0576","getPositionLeverage(address,address,address,bool)":"51723e82","getRedemptionAmount(address,uint256)":"2c668ec1","getRedemptionCollateral(address)":"b136ca49","getRedemptionCollateralUsd(address)":"29ff9615","getTargetUsdpAmount(address)":"5385b2d5","getUtilisation(address)":"04fef1db","globalShortAveragePrices(address)":"62749803","globalShortSizes(address)":"8a78daa8","gov()":"12d43a51","guaranteedUsd(address)":"f07456ce","hasDynamicFees()":"9f392eb3","inManagerMode()":"9060b1ca","inPrivateLiquidationMode()":"181e210e","includeAmmPrice()":"ab08c1c6","increasePosition(address,address,address,uint256,bool)":"48d91abf","initialize(address,address,address,uint256,uint256,uint256)":"728cdbca","isInitialized()":"392e53cd","isLeverageEnabled()":"3e72a262","isLiquidator(address)":"529a356f","isManager(address)":"f3ae2415","isSwapEnabled()":"351a964d","lastFundingTimes(address)":"d8f897c3","liquidatePosition(address,address,address,bool,address)":"de2ea948","liquidationFeeUsd()":"174d2694","marginFeeBasisPoints()":"318bc689","maxGasPrice()":"3de39c11","maxGlobalShortSizes(address)":"9698d25a","maxLeverage()":"ae3302c2","maxUsdpAmounts(address)":"c6baf661","minProfitBasisPoints(address)":"88b1fbdf","minProfitTime()":"d9ac4225","mintBurnFeeBasisPoints()":"4d47b304","poolAmounts(address)":"52f55eed","positions(bytes32)":"514ea4bf","priceFeed()":"741bef1a","removeRouter(address)":"6ae0b154","reservedAmounts(address)":"c3c7b9e9","router()":"f887ea40","sellUSDP(address,address)":"eda66f74","setBufferAmount(address,uint256)":"8585f4d2","setError(uint256,string)":"28e67be5","setErrorController(address)":"8f7b8404","setFees(uint256,uint256,uint256,uint256,uint256,uint256,uint256,uint256,bool)":"40eb3802","setFundingRate(uint256,uint256,uint256)":"8a27d468","setGov(address)":"cfad57a2","setInManagerMode(bool)":"24b0c04d","setInPrivateLiquidationMode(bool)":"f07bbf77","setIsLeverageEnabled(bool)":"7c2eb9f7","setIsSwapEnabled(bool)":"30455ede","setLiquidator(address,bool)":"4453a374","setManager(address,bool)":"a5e90eee","setMaxGasPrice(uint256)":"d2fa635e","setMaxGlobalShortSize(address,uint256)":"efa10a6e","setMaxLeverage(uint256)":"d3127e63","setPriceFeed(address)":"724e78da","setTokenConfig(address,uint256,uint256,uint256,uint256,bool,bool)":"3c5a6e35","setUsdpAmount(address,uint256)":"6616ba94","setVaultUtils(address)":"71089f4d","shortableTokens(address)":"db3555fb","stableFundingRateFactor()":"134ca63b","stableSwapFeeBasisPoints()":"df73a267","stableTaxBasisPoints()":"10eb56c2","stableTokens(address)":"42b60b03","swap(address,address,address)":"93316212","swapFeeBasisPoints()":"a22f2392","taxBasisPoints()":"7a210a2b","tokenBalances(address)":"523fba7f","tokenDecimals(address)":"8ee573ac","tokenToUsdMin(address,uint256)":"0a48d5a9","tokenWeights(address)":"ab2f3ad4","totalTokenWeights()":"dc8f5fac","updateCumulativeFundingRate(address,address)":"fbfded6d","upgradeVault(address,address,uint256)":"cea0c328","usdToToken(address,uint256,uint256)":"fa12dbc0","usdToTokenMax(address,uint256)":"a42ab3d2","usdToTokenMin(address,uint256)":"9899cd02","usdp()":"74e6076c","usdpAmounts(address)":"68b528f2","useSwapPricing()":"b06423f3","validateLiquidation(address,address,address,bool,bool)":"d54d5a9f","vaultUtils()":"6abbe0c8","whitelistedTokenCount()":"62287a32","whitelistedTokens(address)":"daf9c210","withdrawFees(address,address)":"f2555278"},"id":52}