{
  "abi": [
    {
      "inputs": [
        {
          "internalType": "uint256",
          "name": "_minAuthorizations",
          "type": "uint256"
        }
      ],
      "stateMutability": "nonpayable",
      "type": "constructor"
    },
    {
      "anonymous": false,
      "inputs": [
        {
          "indexed": false,
          "internalType": "bytes32",
          "name": "action",
          "type": "bytes32"
        },
        {
          "indexed": false,
          "internalType": "uint256",
          "name": "nonce",
          "type": "uint256"
        }
      ],
      "name": "ClearAction",
      "type": "event"
    },
    {
      "anonymous": false,
      "inputs": [
        {
          "indexed": false,
          "internalType": "bytes32",
          "name": "action",
          "type": "bytes32"
        },
        {
          "indexed": false,
          "internalType": "uint256",
          "name": "nonce",
          "type": "uint256"
        }
      ],
      "name": "SignAction",
      "type": "event"
    },
    {
      "anonymous": false,
      "inputs": [
        {
          "indexed": false,
          "internalType": "address",
          "name": "token",
          "type": "address"
        },
        {
          "indexed": false,
          "internalType": "address",
          "name": "spender",
          "type": "address"
        },
        {
          "indexed": false,
          "internalType": "uint256",
          "name": "amount",
          "type": "uint256"
        },
        {
          "indexed": false,
          "internalType": "bytes32",
          "name": "action",
          "type": "bytes32"
        },
        {
          "indexed": false,
          "internalType": "uint256",
          "name": "nonce",
          "type": "uint256"
        }
      ],
      "name": "SignalApprove",
      "type": "event"
    },
    {
      "anonymous": false,
      "inputs": [
        {
          "indexed": false,
          "internalType": "bytes32",
          "name": "action",
          "type": "bytes32"
        },
        {
          "indexed": false,
          "internalType": "uint256",
          "name": "nonce",
          "type": "uint256"
        }
      ],
      "name": "SignalPendingAction",
      "type": "event"
    },
    {
      "inputs": [],
      "name": "actionsNonce",
      "outputs": [
        {
          "internalType": "uint256",
          "name": "",
          "type": "uint256"
        }
      ],
      "stateMutability": "view",
      "type": "function"
    },
    {
      "inputs": [],
      "name": "admin",
      "outputs": [
        {
          "internalType": "address",
          "name": "",
          "type": "address"
        }
      ],
      "stateMutability": "view",
      "type": "function"
    },
    {
      "inputs": [],
      "name": "ammRouter",
      "outputs": [
        {
          "internalType": "address",
          "name": "",
          "type": "address"
        }
      ],
      "stateMutability": "view",
      "type": "function"
    },
    {
      "inputs": [
        {
          "internalType": "address",
          "name": "_token",
          "type": "address"
        },
        {
          "internalType": "address",
          "name": "_spender",
          "type": "address"
        },
        {
          "internalType": "uint256",
          "name": "_amount",
          "type": "uint256"
        },
        {
          "internalType": "uint256",
          "name": "_nonce",
          "type": "uint256"
        }
      ],
      "name": "approve",
      "outputs": [],
      "stateMutability": "nonpayable",
      "type": "function"
    },
    {
      "inputs": [
        {
          "internalType": "address",
          "name": "",
          "type": "address"
        }
      ],
      "name": "caps",
      "outputs": [
        {
          "internalType": "uint256",
          "name": "",
          "type": "uint256"
        }
      ],
      "stateMutability": "view",
      "type": "function"
    },
    {
      "inputs": [],
      "name": "endMigration",
      "outputs": [],
      "stateMutability": "nonpayable",
      "type": "function"
    },
    {
      "inputs": [
        {
          "internalType": "address",
          "name": "_token",
          "type": "address"
        }
      ],
      "name": "getIouToken",
      "outputs": [
        {
          "internalType": "address",
          "name": "",
          "type": "address"
        }
      ],
      "stateMutability": "view",
      "type": "function"
    },
    {
      "inputs": [
        {
          "internalType": "address[]",
          "name": "_tokens",
          "type": "address[]"
        }
      ],
      "name": "getTokenAmounts",
      "outputs": [
        {
          "internalType": "uint256[]",
          "name": "",
          "type": "uint256[]"
        }
      ],
      "stateMutability": "view",
      "type": "function"
    },
    {
      "inputs": [
        {
          "internalType": "address",
          "name": "_token",
          "type": "address"
        }
      ],
      "name": "getTokenPrice",
      "outputs": [
        {
          "internalType": "uint256",
          "name": "",
          "type": "uint256"
        }
      ],
      "stateMutability": "view",
      "type": "function"
    },
    {
      "inputs": [],
      "name": "gmxPrice",
      "outputs": [
        {
          "internalType": "uint256",
          "name": "",
          "type": "uint256"
        }
      ],
      "stateMutability": "view",
      "type": "function"
    },
    {
      "inputs": [],
      "name": "hasMaxMigrationLimit",
      "outputs": [
        {
          "internalType": "bool",
          "name": "",
          "type": "bool"
        }
      ],
      "stateMutability": "view",
      "type": "function"
    },
    {
      "inputs": [
        {
          "internalType": "address",
          "name": "_ammRouter",
          "type": "address"
        },
        {
          "internalType": "uint256",
          "name": "_gmxPrice",
          "type": "uint256"
        },
        {
          "internalType": "address[]",
          "name": "_signers",
          "type": "address[]"
        },
        {
          "internalType": "address[]",
          "name": "_whitelistedTokens",
          "type": "address[]"
        },
        {
          "internalType": "address[]",
          "name": "_iouTokens",
          "type": "address[]"
        },
        {
          "internalType": "uint256[]",
          "name": "_prices",
          "type": "uint256[]"
        },
        {
          "internalType": "uint256[]",
          "name": "_caps",
          "type": "uint256[]"
        },
        {
          "internalType": "address[]",
          "name": "_lpTokens",
          "type": "address[]"
        },
        {
          "internalType": "address[]",
          "name": "_lpTokenAs",
          "type": "address[]"
        },
        {
          "internalType": "address[]",
          "name": "_lpTokenBs",
          "type": "address[]"
        }
      ],
      "name": "initialize",
      "outputs": [],
      "stateMutability": "nonpayable",
      "type": "function"
    },
    {
      "inputs": [
        {
          "internalType": "address",
          "name": "",
          "type": "address"
        }
      ],
      "name": "iouTokens",
      "outputs": [
        {
          "internalType": "address",
          "name": "",
          "type": "address"
        }
      ],
      "stateMutability": "view",
      "type": "function"
    },
    {
      "inputs": [],
      "name": "isInitialized",
      "outputs": [
        {
          "internalType": "bool",
          "name": "",
          "type": "bool"
        }
      ],
      "stateMutability": "view",
      "type": "function"
    },
    {
      "inputs": [],
      "name": "isMigrationActive",
      "outputs": [
        {
          "internalType": "bool",
          "name": "",
          "type": "bool"
        }
      ],
      "stateMutability": "view",
      "type": "function"
    },
    {
      "inputs": [
        {
          "internalType": "address",
          "name": "",
          "type": "address"
        }
      ],
      "name": "isSigner",
      "outputs": [
        {
          "internalType": "bool",
          "name": "",
          "type": "bool"
        }
      ],
      "stateMutability": "view",
      "type": "function"
    },
    {
      "inputs": [
        {
          "internalType": "address",
          "name": "",
          "type": "address"
        }
      ],
      "name": "lpTokenAs",
      "outputs": [
        {
          "internalType": "address",
          "name": "",
          "type": "address"
        }
      ],
      "stateMutability": "view",
      "type": "function"
    },
    {
      "inputs": [
        {
          "internalType": "address",
          "name": "",
          "type": "address"
        }
      ],
      "name": "lpTokenBs",
      "outputs": [
        {
          "internalType": "address",
          "name": "",
          "type": "address"
        }
      ],
      "stateMutability": "view",
      "type": "function"
    },
    {
      "inputs": [
        {
          "internalType": "address",
          "name": "",
          "type": "address"
        }
      ],
      "name": "lpTokens",
      "outputs": [
        {
          "internalType": "bool",
          "name": "",
          "type": "bool"
        }
      ],
      "stateMutability": "view",
      "type": "function"
    },
    {
      "inputs": [
        {
          "internalType": "address",
          "name": "",
          "type": "address"
        },
        {
          "internalType": "address",
          "name": "",
          "type": "address"
        }
      ],
      "name": "maxMigrationAmounts",
      "outputs": [
        {
          "internalType": "uint256",
          "name": "",
          "type": "uint256"
        }
      ],
      "stateMutability": "view",
      "type": "function"
    },
    {
      "inputs": [
        {
          "internalType": "address",
          "name": "_token",
          "type": "address"
        },
        {
          "internalType": "uint256",
          "name": "_tokenAmount",
          "type": "uint256"
        }
      ],
      "name": "migrate",
      "outputs": [],
      "stateMutability": "nonpayable",
      "type": "function"
    },
    {
      "inputs": [
        {
          "internalType": "address",
          "name": "",
          "type": "address"
        },
        {
          "internalType": "address",
          "name": "",
          "type": "address"
        }
      ],
      "name": "migratedAmounts",
      "outputs": [
        {
          "internalType": "uint256",
          "name": "",
          "type": "uint256"
        }
      ],
      "stateMutability": "view",
      "type": "function"
    },
    {
      "inputs": [],
      "name": "minAuthorizations",
      "outputs": [
        {
          "internalType": "uint256",
          "name": "",
          "type": "uint256"
        }
      ],
      "stateMutability": "view",
      "type": "function"
    },
    {
      "inputs": [
        {
          "internalType": "bytes32",
          "name": "",
          "type": "bytes32"
        }
      ],
      "name": "pendingActions",
      "outputs": [
        {
          "internalType": "bool",
          "name": "",
          "type": "bool"
        }
      ],
      "stateMutability": "view",
      "type": "function"
    },
    {
      "inputs": [
        {
          "internalType": "address",
          "name": "",
          "type": "address"
        }
      ],
      "name": "prices",
      "outputs": [
        {
          "internalType": "uint256",
          "name": "",
          "type": "uint256"
        }
      ],
      "stateMutability": "view",
      "type": "function"
    },
    {
      "inputs": [
        {
          "internalType": "bool",
          "name": "_hasMaxMigrationLimit",
          "type": "bool"
        }
      ],
      "name": "setHasMaxMigrationLimit",
      "outputs": [],
      "stateMutability": "nonpayable",
      "type": "function"
    },
    {
      "inputs": [
        {
          "internalType": "address",
          "name": "_account",
          "type": "address"
        },
        {
          "internalType": "address",
          "name": "_token",
          "type": "address"
        },
        {
          "internalType": "uint256",
          "name": "_maxMigrationAmount",
          "type": "uint256"
        }
      ],
      "name": "setMaxMigrationAmount",
      "outputs": [],
      "stateMutability": "nonpayable",
      "type": "function"
    },
    {
      "inputs": [
        {
          "internalType": "address",
          "name": "_token",
          "type": "address"
        },
        {
          "internalType": "address",
          "name": "_spender",
          "type": "address"
        },
        {
          "internalType": "uint256",
          "name": "_amount",
          "type": "uint256"
        },
        {
          "internalType": "uint256",
          "name": "_nonce",
          "type": "uint256"
        }
      ],
      "name": "signApprove",
      "outputs": [],
      "stateMutability": "nonpayable",
      "type": "function"
    },
    {
      "inputs": [
        {
          "internalType": "address",
          "name": "_token",
          "type": "address"
        },
        {
          "internalType": "address",
          "name": "_spender",
          "type": "address"
        },
        {
          "internalType": "uint256",
          "name": "_amount",
          "type": "uint256"
        }
      ],
      "name": "signalApprove",
      "outputs": [],
      "stateMutability": "nonpayable",
      "type": "function"
    },
    {
      "inputs": [
        {
          "internalType": "address",
          "name": "",
          "type": "address"
        },
        {
          "internalType": "bytes32",
          "name": "",
          "type": "bytes32"
        }
      ],
      "name": "signedActions",
      "outputs": [
        {
          "internalType": "bool",
          "name": "",
          "type": "bool"
        }
      ],
      "stateMutability": "view",
      "type": "function"
    },
    {
      "inputs": [
        {
          "internalType": "uint256",
          "name": "",
          "type": "uint256"
        }
      ],
      "name": "signers",
      "outputs": [
        {
          "internalType": "address",
          "name": "",
          "type": "address"
        }
      ],
      "stateMutability": "view",
      "type": "function"
    },
    {
      "inputs": [
        {
          "internalType": "address",
          "name": "",
          "type": "address"
        }
      ],
      "name": "tokenAmounts",
      "outputs": [
        {
          "internalType": "uint256",
          "name": "",
          "type": "uint256"
        }
      ],
      "stateMutability": "view",
      "type": "function"
    },
    {
      "inputs": [
        {
          "internalType": "address",
          "name": "",
          "type": "address"
        }
      ],
      "name": "whitelistedTokens",
      "outputs": [
        {
          "internalType": "bool",
          "name": "",
          "type": "bool"
        }
      ],
      "stateMutability": "view",
      "type": "function"
    }
  ],
  "bytecode": {
    "object": "0x60806040526001805462ff00001961ff00199091166101001716905534801561002757600080fd5b506040516126d13803806126d18339818101604052602081101561004a57600080fd5b50516001600055600680546001600160a01b0319163317905560025561265c806100756000396000f3fe608060405234801561001057600080fd5b50600436106101fb5760003560e01c806390b3c4e71161011a578063ceb6250e116100ad578063dce6e18d1161007c578063dce6e18d14610a98578063e30569e514610ace578063e699e04814610aeb578063f52dc4f714610b11578063f851a44014610b4d576101fb565b8063ceb6250e146109f8578063cfed246b14610a26578063d02641a014610a4c578063daf9c21014610a72576101fb565b8063a758f6dd116100e9578063a758f6dd14610970578063a9d878ee1461099e578063ad68ebf7146109a6578063b17b658d146109d2576101fb565b806390b3c4e714610904578063918355271461090c578063a0e2e5f614610942578063a4c04bb714610968576101fb565b80635183a7ca116101925780637b0365a7116101615780637b0365a71461079b5780637df73e271461088c5780637efdec32146108b257806387c6d4f9146108d8576101fb565b80635183a7ca1461032057806364d4b1731461032857806366d97b211461076d5780636c525d0414610793576101fb565b8063392e53cd116101ce578063392e53cd1461029057806341410d4a1461029857806343b45f35146102be5780634dc5ecb3146102e4576101fb565b80630122f868146102005780630e913a6c146102215780632079fb9a1461023d578063287800c914610276575b600080fd5b61021f6004803603602081101561021657600080fd5b50351515610b55565b005b610229610bbe565b604080519115158252519081900360200190f35b61025a6004803603602081101561025357600080fd5b5035610bcc565b604080516001600160a01b039092168252519081900360200190f35b61027e610bf3565b60408051918252519081900360200190f35b610229610bf9565b61025a600480360360208110156102ae57600080fd5b50356001600160a01b0316610c02565b61025a600480360360208110156102d457600080fd5b50356001600160a01b0316610c1d565b61021f600480360360808110156102fa57600080fd5b506001600160a01b03813581169160208101359091169060408101359060600135610c38565b610229610dd8565b61021f600480360361014081101561033f57600080fd5b6001600160a01b0382351691602081013591810190606081016040820135600160201b81111561036e57600080fd5b82018360208201111561038057600080fd5b803590602001918460208302840111600160201b831117156103a157600080fd5b9190808060200260200160405190810160405280939291908181526020018383602002808284376000920191909152509295949360208101935035915050600160201b8111156103f057600080fd5b82018360208201111561040257600080fd5b803590602001918460208302840111600160201b8311171561042357600080fd5b9190808060200260200160405190810160405280939291908181526020018383602002808284376000920191909152509295949360208101935035915050600160201b81111561047257600080fd5b82018360208201111561048457600080fd5b803590602001918460208302840111600160201b831117156104a557600080fd5b9190808060200260200160405190810160405280939291908181526020018383602002808284376000920191909152509295949360208101935035915050600160201b8111156104f457600080fd5b82018360208201111561050657600080fd5b803590602001918460208302840111600160201b8311171561052757600080fd5b9190808060200260200160405190810160405280939291908181526020018383602002808284376000920191909152509295949360208101935035915050600160201b81111561057657600080fd5b82018360208201111561058857600080fd5b803590602001918460208302840111600160201b831117156105a957600080fd5b9190808060200260200160405190810160405280939291908181526020018383602002808284376000920191909152509295949360208101935035915050600160201b8111156105f857600080fd5b82018360208201111561060a57600080fd5b803590602001918460208302840111600160201b8311171561062b57600080fd5b9190808060200260200160405190810160405280939291908181526020018383602002808284376000920191909152509295949360208101935035915050600160201b81111561067a57600080fd5b82018360208201111561068c57600080fd5b803590602001918460208302840111600160201b831117156106ad57600080fd5b9190808060200260200160405190810160405280939291908181526020018383602002808284376000920191909152509295949360208101935035915050600160201b8111156106fc57600080fd5b82018360208201111561070e57600080fd5b803590602001918460208302840111600160201b8311171561072f57600080fd5b919080806020026020016040519081016040528093929190818152602001838360200280828437600092019190915250929550610de7945050505050565b61027e6004803603602081101561078357600080fd5b50356001600160a01b0316611290565b61021f6112a2565b61083c600480360360208110156107b157600080fd5b810190602081018135600160201b8111156107cb57600080fd5b8201836020820111156107dd57600080fd5b803590602001918460208302840111600160201b831117156107fe57600080fd5b9190808060200260200160405190810160405280939291908181526020018383602002808284376000920191909152509295506112fc945050505050565b60408051602080825283518183015283519192839290830191858101910280838360005b83811015610878578181015183820152602001610860565b505050509050019250505060405180910390f35b610229600480360360208110156108a257600080fd5b50356001600160a01b03166113b5565b61025a600480360360208110156108c857600080fd5b50356001600160a01b03166113ca565b610229600480360360408110156108ee57600080fd5b506001600160a01b03813516906020013561143f565b61025a61145f565b61021f6004803603606081101561092257600080fd5b506001600160a01b0381358116916020810135909116906040013561146e565b61027e6004803603602081101561095857600080fd5b50356001600160a01b03166114e7565b61027e6114f9565b61027e6004803603604081101561098657600080fd5b506001600160a01b03813581169160200135166114ff565b61027e61151c565b61021f600480360360408110156109bc57600080fd5b506001600160a01b038135169060200135611522565b610229600480360360208110156109e857600080fd5b50356001600160a01b0316611b7c565b61027e60048036036040811015610a0e57600080fd5b506001600160a01b0381358116916020013516611b91565b61027e60048036036020811015610a3c57600080fd5b50356001600160a01b0316611bae565b61027e60048036036020811015610a6257600080fd5b50356001600160a01b0316611bc0565b61022960048036036020811015610a8857600080fd5b50356001600160a01b0316611c2b565b61021f60048036036060811015610aae57600080fd5b506001600160a01b03813581169160208101359091169060400135611c40565b61022960048036036020811015610ae457600080fd5b5035611dad565b61025a60048036036020811015610b0157600080fd5b50356001600160a01b0316611dc2565b61021f60048036036080811015610b2757600080fd5b506001600160a01b03813581169160208101359091169060408101359060600135611ddd565b61025a611fb8565b6006546001600160a01b03163314610ba2576040805162461bcd60e51b8152602060048201526016602482015260008051602061256b833981519152604482015290519081900360640190fd5b60018054911515620100000262ff000019909216919091179055565b600154610100900460ff1681565b60078181548110610bd957fe5b6000918252602090912001546001600160a01b0316905081565b60025481565b60015460ff1681565b600c602052600090815260409020546001600160a01b031681565b6010602052600090815260409020546001600160a01b031681565b60026000541415610c7e576040805162461bcd60e51b815260206004820152601f6024820152600080516020612432833981519152604482015290519081900360640190fd5b60026000556006546001600160a01b03163314610cd0576040805162461bcd60e51b8152602060048201526016602482015260008051602061256b833981519152604482015290519081900360640190fd5b6040805166617070726f766560c81b6020808301919091526001600160601b0319606088811b8216602785015287901b16603b830152604f8201859052606f80830185905283518084039091018152608f9092019092528051910120610d3581611fc7565b610d3e81612017565b846001600160a01b031663095ea7b385856040518363ffffffff1660e01b815260040180836001600160a01b0316815260200182815260200192505050602060405180830381600087803b158015610d9557600080fd5b505af1158015610da9573d6000803e3d6000fd5b505050506040513d6020811015610dbf57600080fd5b50610dcc905081836120fd565b50506001600055505050565b60015462010000900460ff1681565b6006546001600160a01b03163314610e34576040805162461bcd60e51b8152602060048201526016602482015260008051602061256b833981519152604482015290519081900360640190fd5b60015460ff1615610e8c576040805162461bcd60e51b815260206004820181905260248201527f476d784d69677261746f723a20616c726561647920696e697469616c697a6564604482015290519081900360640190fd5b8551875114610ecc5760405162461bcd60e51b81526004018080602001828103825260268152602001806125b16026913960400191505060405180910390fd5b8451875114610f0c5760405162461bcd60e51b81526004018080602001828103825260238152602001806125486023913960400191505060405180910390fd5b8351875114610f4c5760405162461bcd60e51b81526004018080602001828103825260218152602001806124e46021913960400191505060405180910390fd5b8151835114610f8c5760405162461bcd60e51b815260040180806020018281038252602681526020018061258b6026913960400191505060405180910390fd5b8051835114610fcc5760405162461bcd60e51b81526004018080602001828103825260268152602001806125d76026913960400191505060405180910390fd5b6001805460ff191681179055600380546001600160a01b0319166001600160a01b038c161790556004899055875161100b9060079060208b01906123ad565b5060005b885181101561106257600089828151811061102657fe5b6020908102919091018101516001600160a01b03166000908152600890915260409020805460ff1916600190811790915591909101905061100f565b5060005b875181101561118657600088828151811061107d57fe5b6020908102919091018101516001600160a01b0381166000908152600b9092526040909120805460ff1916600117905588519091508890839081106110be57fe5b6020026020010151600c6000836001600160a01b03166001600160a01b0316815260200190815260200160002060006101000a8154816001600160a01b0302191690836001600160a01b0316021790555086828151811061111b57fe5b6020026020010151600d6000836001600160a01b03166001600160a01b031681526020019081526020016000208190555085828151811061115857fe5b6020908102919091018101516001600160a01b039092166000908152600e9091526040902055600101611066565b5060005b83518110156112835760008482815181106111a157fe5b6020908102919091018101516001600160a01b0381166000908152600f9092526040909120805460ff1916600117905584519091508490839081106111e257fe5b602002602001015160106000836001600160a01b03166001600160a01b0316815260200190815260200160002060006101000a8154816001600160a01b0302191690836001600160a01b0316021790555082828151811061123f57fe5b6020908102919091018101516001600160a01b0392831660009081526011909252604090912080546001600160a01b0319169290911691909117905560010161118a565b5050505050505050505050565b600e6020526000908152604090205481565b6006546001600160a01b031633146112ef576040805162461bcd60e51b8152602060048201526016602482015260008051602061256b833981519152604482015290519081900360640190fd5b6001805461ff0019169055565b606080825167ffffffffffffffff8111801561131757600080fd5b50604051908082528060200260200182016040528015611341578160200160208202803683370190505b50905060005b83518110156113ae57600084828151811061135e57fe5b6020026020010151905060126000826001600160a01b03166001600160a01b031681526020019081526020016000205483838151811061139a57fe5b602090810291909101015250600101611347565b5092915050565b60086020526000908152604090205460ff1681565b6001600160a01b038082166000908152600c602052604081205490911680611439576040805162461bcd60e51b815260206004820152601e60248201527f476d784d69677261746f723a20696e76616c696420696f7520746f6b656e0000604482015290519081900360640190fd5b92915050565b600a60209081526000928352604080842090915290825290205460ff1681565b6003546001600160a01b031681565b6006546001600160a01b031633146114bb576040805162461bcd60e51b8152602060048201526016602482015260008051602061256b833981519152604482015290519081900360640190fd5b6001600160a01b0392831660009081526014602090815260408083209490951682529290925291902055565b60126020526000908152604090205481565b60055481565b601360209081526000928352604080842090915290825290205481565b60045481565b60026000541415611568576040805162461bcd60e51b815260206004820152601f6024820152600080516020612432833981519152604482015290519081900360640190fd5b6002600055600154610100900460ff166115b35760405162461bcd60e51b815260040180806020018281038252602a8152602001806125fd602a913960400191505060405180910390fd5b6001600160a01b0382166000908152600b602052604090205460ff1661160a5760405162461bcd60e51b81526004018080602001828103825260228152602001806125056022913960400191505060405180910390fd5b6000811161165f576040805162461bcd60e51b815260206004820181905260248201527f476d784d69677261746f723a20696e76616c696420746f6b656e416d6f756e74604482015290519081900360640190fd5b60015462010000900460ff161561171a573360009081526013602090815260408083206001600160a01b038616845290915290205461169e90826121b6565b3360008181526013602090815260408083206001600160a01b0388168085528184528285208790559484526014835281842094845293825290912054919052101561171a5760405162461bcd60e51b81526004018080602001828103825260288152602001806124bc6028913960400191505060405180910390fd5b600061172583611bc0565b90506000611748600454611742848661221790919063ffffffff16565b90612270565b90506000811161179f576040805162461bcd60e51b815260206004820152601f60248201527f476d784d69677261746f723a20696e76616c6964206d696e74416d6f756e7400604482015290519081900360640190fd5b6001600160a01b0384166000908152601260205260409020546117c290846121b6565b6001600160a01b0385166000908152601260208181526040808420859055600e82529092205491521161183c576040805162461bcd60e51b815260206004820152601f60248201527f476d784d69677261746f723a20746f6b656e2063617020657863656564656400604482015290519081900360640190fd5b604080516323b872dd60e01b81523360048201523060248201526044810185905290516001600160a01b038616916323b872dd9160648083019260209291908290030181600087803b15801561189157600080fd5b505af11580156118a5573d6000803e3d6000fd5b505050506040513d60208110156118bb57600080fd5b50506001600160a01b0384166000908152600f602052604090205460ff1615611ae0576001600160a01b0380851660009081526010602090815260408083205460119092529091205490821691168161195b576040805162461bcd60e51b815260206004820152601b60248201527f476d784d69677261746f723a20696e76616c696420746f6b656e410000000000604482015290519081900360640190fd5b6001600160a01b0381166119b6576040805162461bcd60e51b815260206004820152601b60248201527f476d784d69677261746f723a20696e76616c696420746f6b656e420000000000604482015290519081900360640190fd5b6003546040805163095ea7b360e01b81526001600160a01b0392831660048201526024810188905290519188169163095ea7b3916044808201926020929091908290030181600087803b158015611a0c57600080fd5b505af1158015611a20573d6000803e3d6000fd5b505050506040513d6020811015611a3657600080fd5b505060035460408051635d5155ef60e11b81526001600160a01b038581166004830152848116602483015260448201899052600060648301819052608483018190523060a48401524260c48401528351919094169363baa2abde9360e480850194919392918390030190829087803b158015611ab157600080fd5b505af1158015611ac5573d6000803e3d6000fd5b505050506040513d6040811015611adb57600080fd5b505050505b6000611aeb856113ca565b9050806001600160a01b03166340c10f1933846040518363ffffffff1660e01b815260040180836001600160a01b0316815260200182815260200192505050602060405180830381600087803b158015611b4457600080fd5b505af1158015611b58573d6000803e3d6000fd5b505050506040513d6020811015611b6e57600080fd5b505060016000555050505050565b600f6020526000908152604090205460ff1681565b601460209081526000928352604080842090915290825290205481565b600d6020526000908152604090205481565b6001600160a01b0381166000908152600d602052604081205480611439576040805162461bcd60e51b815260206004820181905260248201527f476d784d69677261746f723a20696e76616c696420746f6b656e207072696365604482015290519081900360640190fd5b600b6020526000908152604090205460ff1681565b60026000541415611c86576040805162461bcd60e51b815260206004820152601f6024820152600080516020612432833981519152604482015290519081900360640190fd5b60026000556006546001600160a01b03163314611cd8576040805162461bcd60e51b8152602060048201526016602482015260008051602061256b833981519152604482015290519081900360640190fd5b60058054600101908190556040805166617070726f766560c81b6020808301919091526001600160601b0319606088811b8216602785015287901b16603b830152604f8201859052606f80830185905283518084039091018152608f9092019092528051910120611d4981836122b2565b604080516001600160a01b03808816825286166020820152808201859052606081018390526080810184905290517fc19251bf5f704ddc3d5babe6f4e5bde0dded20b19f7844716861821ab3163cd79181900360a00190a150506001600055505050565b60096020526000908152604090205460ff1681565b6011602052600090815260409020546001600160a01b031681565b60026000541415611e23576040805162461bcd60e51b815260206004820152601f6024820152600080516020612432833981519152604482015290519081900360640190fd5b600260009081553381526008602052604090205460ff16611e79576040805162461bcd60e51b8152602060048201526016602482015260008051602061256b833981519152604482015290519081900360640190fd5b6040805166617070726f766560c81b6020808301919091526001600160601b0319606088811b8216602785015287901b16603b830152604f8201859052606f80830185905283518084039091018152608f9092019092528051910120611ede81611fc7565b336000908152600a6020908152604080832084845290915290205460ff1615611f4e576040805162461bcd60e51b815260206004820152601b60248201527f476d784d69677261746f723a20616c7265616479207369676e65640000000000604482015290519081900360640190fd5b336000908152600a60209081526040808320848452825291829020805460ff19166001179055815183815290810184905281517faae28fe5531fe5dfb8d12409392ec67b50c825dd06233312cb6aeaddd16cbd22929181900390910190a150506001600055505050565b6006546001600160a01b031681565b60008181526009602052604090205460ff166120145760405162461bcd60e51b81526004018080602001828103825260218152602001806124526021913960400191505060405180910390fd5b50565b6000805b60075481101561207b5760006007828154811061203457fe5b60009182526020808320909101546001600160a01b0316808352600a8252604080842088855290925291205490915060ff1615612072576001909201915b5060010161201b565b50806120b85760405162461bcd60e51b815260040180806020018281038252602281526020018061249a6022913960400191505060405180910390fd5b6002548110156120f95760405162461bcd60e51b81526004018080602001828103825260278152602001806124736027913960400191505060405180910390fd5b5050565b60008281526009602052604090205460ff16612160576040805162461bcd60e51b815260206004820152601c60248201527f476d784d69677261746f723a20696e76616c6964205f616374696f6e00000000604482015290519081900360640190fd5b600082815260096020908152604091829020805460ff19169055815184815290810183905281517ff4640d39061e643d9b802cb3725953405344555ad6dbb1cbdb0495f3eccb8e68929181900390910190a15050565b600082820183811015612210576040805162461bcd60e51b815260206004820152601b60248201527f536166654d6174683a206164646974696f6e206f766572666c6f770000000000604482015290519081900360640190fd5b9392505050565b60008261222657506000611439565b8282028284828161223357fe5b04146122105760405162461bcd60e51b81526004018080602001828103825260218152602001806125276021913960400191505060405180910390fd5b600061221083836040518060400160405280601a81526020017f536166654d6174683a206469766973696f6e206279207a65726f00000000000081525061230b565b600082815260096020908152604091829020805460ff19166001179055815184815290810183905281517f64df01c46eb530dc540770a0b88cc32f0b8c2b371a546ae0b13cc8ca6671fff9929181900390910190a15050565b600081836123975760405162461bcd60e51b81526004018080602001828103825283818151815260200191508051906020019080838360005b8381101561235c578181015183820152602001612344565b50505050905090810190601f1680156123895780820380516001836020036101000a031916815260200191505b509250505060405180910390fd5b5060008385816123a357fe5b0495945050505050565b828054828255906000526020600020908101928215612402579160200282015b8281111561240257825182546001600160a01b0319166001600160a01b039091161782556020909201916001909101906123cd565b5061240e929150612412565b5090565b5b8082111561240e5780546001600160a01b031916815560010161241356fe5265656e7472616e637947756172643a207265656e7472616e742063616c6c00476d784d69677261746f723a20616374696f6e206e6f74207369676e616c6c6564476d784d69677261746f723a20696e73756666696369656e7420617574686f72697a6174696f6e476d784d69677261746f723a20616374696f6e206e6f7420617574686f72697a6564476d784d69677261746f723a206d61784d6967726174696f6e416d6f756e74206578636565646564476d784d69677261746f723a20696e76616c6964205f636170732e6c656e677468476d784d69677261746f723a20746f6b656e206e6f742077686974656c6973746564536166654d6174683a206d756c7469706c69636174696f6e206f766572666c6f77476d784d69677261746f723a20696e76616c6964205f7072696365732e6c656e677468476d784d69677261746f723a20666f7262696464656e00000000000000000000476d784d69677261746f723a20696e76616c6964205f6c70546f6b656e41732e6c656e677468476d784d69677261746f723a20696e76616c6964205f696f75546f6b656e732e6c656e677468476d784d69677261746f723a20696e76616c6964205f6c70546f6b656e42732e6c656e677468476d784d69677261746f723a206d6967726174696f6e206973206e6f206c6f6e67657220616374697665a2646970667358221220487161f78142125d0f8bbaa076f0cb6dc78cfd335a2d0aeecf722c78c54256b264736f6c634300060c0033",
    "linkReferences": {}
  },
  "methodIdentifiers": {
    "actionsNonce()": "a4c04bb7",
    "admin()": "f851a440",
    "ammRouter()": "90b3c4e7",
    "approve(address,address,uint256,uint256)": "4dc5ecb3",
    "caps(address)": "66d97b21",
    "endMigration()": "6c525d04",
    "getIouToken(address)": "7efdec32",
    "getTokenAmounts(address[])": "7b0365a7",
    "getTokenPrice(address)": "d02641a0",
    "gmxPrice()": "a9d878ee",
    "hasMaxMigrationLimit()": "5183a7ca",
    "initialize(address,uint256,address[],address[],address[],uint256[],uint256[],address[],address[],address[])": "64d4b173",
    "iouTokens(address)": "41410d4a",
    "isInitialized()": "392e53cd",
    "isMigrationActive()": "0e913a6c",
    "isSigner(address)": "7df73e27",
    "lpTokenAs(address)": "43b45f35",
    "lpTokenBs(address)": "e699e048",
    "lpTokens(address)": "b17b658d",
    "maxMigrationAmounts(address,address)": "ceb6250e",
    "migrate(address,uint256)": "ad68ebf7",
    "migratedAmounts(address,address)": "a758f6dd",
    "minAuthorizations()": "287800c9",
    "pendingActions(bytes32)": "e30569e5",
    "prices(address)": "cfed246b",
    "setHasMaxMigrationLimit(bool)": "0122f868",
    "setMaxMigrationAmount(address,address,uint256)": "91835527",
    "signApprove(address,address,uint256,uint256)": "f52dc4f7",
    "signalApprove(address,address,uint256)": "dce6e18d",
    "signedActions(address,bytes32)": "87c6d4f9",
    "signers(uint256)": "2079fb9a",
    "tokenAmounts(address)": "a0e2e5f6",
    "whitelistedTokens(address)": "daf9c210"
  },
  "id": 60
}