{"abi":[{"type":"constructor","inputs":[{"name":"_vault","type":"address","internalType":"address"},{"name":"_orderBook","type":"address","internalType":"address"}],"stateMutability":"nonpayable"},{"type":"function","name":"BASIS_POINTS_DIVISOR","inputs":[],"outputs":[{"name":"","type":"uint256","internalType":"uint256"}],"stateMutability":"view"},{"type":"function","name":"executeDecreaseOrder","inputs":[{"name":"_address","type":"address","internalType":"address"},{"name":"_orderIndex","type":"uint256","internalType":"uint256"},{"name":"_feeReceiver","type":"address","internalType":"address payable"}],"outputs":[],"stateMutability":"nonpayable"},{"type":"function","name":"executeIncreaseOrder","inputs":[{"name":"_address","type":"address","internalType":"address"},{"name":"_orderIndex","type":"uint256","internalType":"uint256"},{"name":"_feeReceiver","type":"address","internalType":"address payable"}],"outputs":[],"stateMutability":"nonpayable"},{"type":"function","name":"executeSwapOrder","inputs":[{"name":"_account","type":"address","internalType":"address"},{"name":"_orderIndex","type":"uint256","internalType":"uint256"},{"name":"_feeReceiver","type":"address","internalType":"address payable"}],"outputs":[],"stateMutability":"nonpayable"},{"type":"function","name":"orderBook","inputs":[],"outputs":[{"name":"","type":"address","internalType":"address"}],"stateMutability":"view"},{"type":"function","name":"vault","inputs":[],"outputs":[{"name":"","type":"address","internalType":"address"}],"stateMutability":"view"}],"bytecode":{"object":"0x608060405234801561001057600080fd5b506040516109cf3803806109cf83398101604081905261002f916100ec565b6001600160a01b0382161580159061004f57506001600160a01b03811615155b61009f5760405162461bcd60e51b815260206004820152601e60248201527f4f726465724578656375746f723a20696e76616c696420616464726573730000604482015260640160405180910390fd5b600080546001600160a01b039384166001600160a01b0319918216179091556001805492909316911617905561011f565b80516001600160a01b03811681146100e757600080fd5b919050565b600080604083850312156100ff57600080fd5b610108836100d0565b9150610116602084016100d0565b90509250929050565b6108a18061012e6000396000f3fe608060405234801561001057600080fd5b50600436106100625760003560e01c806307c7edc31461006757806311d9444a1461007c578063126082cf1461008f578063776af5ba146100ab578063d38ab519146100d6578063fbfa77cf146100e9575b600080fd5b61007a610075366004610674565b6100fc565b005b61007a61008a366004610674565b610170565b61009861271081565b6040519081526020015b60405180910390f35b6001546100be906001600160a01b031681565b6040516001600160a01b0390911681526020016100a2565b61007a6100e4366004610674565b6101b1565b6000546100be906001600160a01b031681565b6001546040516307c7edc360e01b81526001600160a01b038581166004830152602482018590528381166044830152909116906307c7edc3906064015b600060405180830381600087803b15801561015357600080fd5b505af1158015610167573d6000803e3d6000fd5b50505050505050565b6001546040516308eca22560e11b81526001600160a01b038581166004830152602482018590528381166044830152909116906311d9444a90606401610139565b6101bb8383610376565b60008060009054906101000a90046001600160a01b03166001600160a01b03166312d43a516040518163ffffffff1660e01b8152600401602060405180830381865afa15801561020f573d6000803e3d6000fd5b505050506040513d601f19601f8201168201806040525081019061023391906106b6565b600054604051630cd2b12360e41b81526001600160a01b0391821660048201526001602482015291925082169063cd2b123090604401600060405180830381600087803b15801561028357600080fd5b505af1158015610297573d6000803e3d6000fd5b505060015460405163d38ab51960e01b81526001600160a01b038881166004830152602482018890528681166044830152909116925063d38ab5199150606401600060405180830381600087803b1580156102f157600080fd5b505af1158015610305573d6000803e3d6000fd5b505060008054604051630cd2b12360e41b81526001600160a01b03918216600482015260248101929092528416925063cd2b12309150604401600060405180830381600087803b15801561035857600080fd5b505af115801561036c573d6000803e3d6000fd5b5050505050505050565b60015460405163d3bab1d160e01b81526001600160a01b03848116600483015260248201849052600092839283928392839283929091169063d3bab1d19060440161012060405180830381865afa1580156103d5573d6000803e3d6000fd5b505050506040513d601f19601f820116820180604052508101906103f991906106ef565b50505095509550955095509550955080610417575050505050505050565b6000821161046c5760405162461bcd60e51b815260206004820152601b60248201527f4f726465724578656375746f723a206c6f6e67206465706f736974000000000060448201526064015b60405180910390fd5b60008054604051634a3f088d60e01b81526001600160a01b038b81166004830152878116602483015286811660448301528415156064830152909116919081908390634a3f088d9060840161010060405180830381865afa1580156104d5573d6000803e3d6000fd5b505050506040513d601f19601f820116820180604052508101906104f99190610784565b5050505050509150915081600003610518575050505050505050505050565b60006105248684610800565b604051630a48d5a960e01b81526001600160a01b038c81166004830152602482018c9052919250600091861690630a48d5a990604401602060405180830381865afa158015610577573d6000803e3d6000fd5b505050506040513d601f19601f8201168201806040525081019061059b9190610819565b905060006105a98285610800565b90506000846105ba61271088610832565b6105c49190610849565b90506000826105d66127106064610800565b6105e09087610832565b6105ea9190610849565b90508181101561064a5760405162461bcd60e51b815260206004820152602560248201527f4f726465724578656375746f723a206c6f6e67206c6576657261676520646563604482015264726561736560d81b6064820152608401610463565b50505050505050505050505050505050565b6001600160a01b038116811461067157600080fd5b50565b60008060006060848603121561068957600080fd5b83356106948161065c565b92506020840135915060408401356106ab8161065c565b809150509250925092565b6000602082840312156106c857600080fd5b81516106d38161065c565b9392505050565b805180151581146106ea57600080fd5b919050565b60008060008060008060008060006101208a8c03121561070e57600080fd5b89516107198161065c565b60208b015160408c0151919a5098506107318161065c565b60608b01519097506107428161065c565b60808b0151909650945061075860a08b016106da565b935060c08a0151925061076d60e08b016106da565b91506101008a015190509295985092959850929598565b600080600080600080600080610100898b0312156107a157600080fd5b885197506020890151965060408901519550606089015194506080890151935060a089015192506107d460c08a016106da565b915060e089015190509295985092959890939650565b634e487b7160e01b600052601160045260246000fd5b80820180821115610813576108136107ea565b92915050565b60006020828403121561082b57600080fd5b5051919050565b8082028115828204841417610813576108136107ea565b60008261086657634e487b7160e01b600052601260045260246000fd5b50049056fea264697066735822122061848b2b676b42509c94a8ab465eccb0a329e4a448cd5fc44103a1f2bf627a0364736f6c63430008120033","linkReferences":{}},"methodIdentifiers":{"BASIS_POINTS_DIVISOR()":"126082cf","executeDecreaseOrder(address,uint256,address)":"11d9444a","executeIncreaseOrder(address,uint256,address)":"d38ab519","executeSwapOrder(address,uint256,address)":"07c7edc3","orderBook()":"776af5ba","vault()":"fbfa77cf"},"id":46}