{
  "abi": [
    {
      "inputs": [
        {
          "internalType": "address",
          "name": "_positionRouter",
          "type": "address"
        },
        {
          "internalType": "uint256",
          "name": "_endIndex",
          "type": "uint256"
        }
      ],
      "name": "getTransferTokenOfIncreasePositionRequests",
      "outputs": [
        {
          "internalType": "uint256[]",
          "name": "",
          "type": "uint256[]"
        },
        {
          "internalType": "address[]",
          "name": "",
          "type": "address[]"
        }
      ],
      "stateMutability": "view",
      "type": "function"
    }
  ],
  "bytecode": {
    "object": "0x608060405234801561001057600080fd5b506105a0806100206000396000f3fe608060405234801561001057600080fd5b506004361061002b5760003560e01c80630e0deb1a14610030575b600080fd5b61004361003e366004610322565b61005a565b60405161005192919061034e565b60405180910390f35b6060806000849050600080826001600160a01b031663f2cea6a56040518163ffffffff1660e01b8152600401608060405180830381865afa1580156100a3573d6000803e3d6000fd5b505050506040513d601f19601f820116820180604052508101906100c791906103d2565b505091509150808611156100d9578095505b60006100e5838861041e565b67ffffffffffffffff8111156100fd576100fd610437565b604051908082528060200260200182016040528015610126578160200160208202803683370190505b5090506000610135848961041e565b67ffffffffffffffff81111561014d5761014d610437565b604051908082528060200260200182016040528015610176578160200160208202803683370190505b50905060005b888510156102fb57604051630108965560e21b8152600481018690526000906001600160a01b03881690630422595490602401602060405180830381865afa1580156101cc573d6000803e3d6000fd5b505050506040513d601f19601f820116820180604052508101906101f0919061044d565b6040516395e9bbd760e01b8152600481018290529091506000906001600160a01b038916906395e9bbd790602401600060405180830381865afa15801561023b573d6000803e3d6000fd5b505050506040513d6000823e601f3d908101601f191682016040526102639190810190610476565b8051909150156102bb57806000815181106102805761028061053b565b602002602001015184848151811061029a5761029a61053b565b60200260200101906001600160a01b031690816001600160a01b0316815250505b868584815181106102ce576102ce61053b565b6020908102919091010152826102e381610551565b93505086806102f190610551565b975050505061017c565b50909890975095505050505050565b6001600160a01b038116811461031f57600080fd5b50565b6000806040838503121561033557600080fd5b82356103408161030a565b946020939093013593505050565b604080825283519082018190526000906020906060840190828701845b828110156103875781518452928401929084019060010161036b565b5050508381038285015284518082528583019183019060005b818110156103c55783516001600160a01b0316835292840192918401916001016103a0565b5090979650505050505050565b600080600080608085870312156103e857600080fd5b505082516020840151604085015160609095015191969095509092509050565b634e487b7160e01b600052601160045260246000fd5b8181038181111561043157610431610408565b92915050565b634e487b7160e01b600052604160045260246000fd5b60006020828403121561045f57600080fd5b5051919050565b80516104718161030a565b919050565b6000602080838503121561048957600080fd5b825167ffffffffffffffff808211156104a157600080fd5b818501915085601f8301126104b557600080fd5b8151818111156104c7576104c7610437565b8060051b604051601f19603f830116810181811085821117156104ec576104ec610437565b60405291825284820192508381018501918883111561050a57600080fd5b938501935b8285101561052f5761052085610466565b8452938501939285019261050f565b98975050505050505050565b634e487b7160e01b600052603260045260246000fd5b60006001820161056357610563610408565b506001019056fea264697066735822122063cc3094b9c4ef44bcca048455c68d8f0e7f10928fb7c578ff009061db93cd9e64736f6c63430008120033",
    "linkReferences": {}
  },
  "methodIdentifiers": {
    "getTransferTokenOfIncreasePositionRequests(address,uint256)": "0e0deb1a"
  },
  "id": 70
}