{"abi":[{"type":"function","name":"BASIS_POINTS_DIVISOR","inputs":[],"outputs":[{"name":"","type":"uint256","internalType":"uint256"}],"stateMutability":"view"},{"type":"event","name":"LeverageDecreased","inputs":[{"name":"collateralDelta","type":"uint256","indexed":false,"internalType":"uint256"},{"name":"prevLeverage","type":"uint256","indexed":false,"internalType":"uint256"},{"name":"nextLeverage","type":"uint256","indexed":false,"internalType":"uint256"}],"anonymous":false}],"bytecode":{"object":"0x610a2161003a600b82828239805160001a60731461002d57634e487b7160e01b600052600060045260246000fd5b30600052607381538281f3fe730000000000000000000000000000000000000000301460806040526004361061004b5760003560e01c8063126082cf14610050578063be1e78781461006c578063e0cab5501461008e575b600080fd5b61005961271081565b6040519081526020015b60405180910390f35b81801561007857600080fd5b5061008c6100873660046106c9565b6100be565b005b81801561009a57600080fd5b506100ae6100a9366004610789565b610465565b6040519015158152602001610063565b600082610134576040516340d3096b60e11b81526001600160a01b0386811660048301528b16906381a612d690602401602060405180830381865afa15801561010b573d6000803e3d6000fd5b505050506040513d601f19601f8201168201806040525081019061012f91906108b3565b61019e565b604051637092736960e11b81526001600160a01b0386811660048301528b169063e124e6d290602401602060405180830381865afa15801561017a573d6000803e3d6000fd5b505050506040513d601f19601f8201168201806040525081019061019e91906108b3565b905082156101f457818111156101ef5760405162461bcd60e51b81526020600482015260116024820152706d61726b5072696365203e20707269636560781b60448201526064015b60405180910390fd5b610238565b818110156102385760405162461bcd60e51b81526020600482015260116024820152706d61726b5072696365203c20707269636560781b60448201526064016101e6565b60008a6001600160a01b03166312d43a516040518163ffffffff1660e01b8152600401602060405180830381865afa158015610278573d6000803e3d6000fd5b505050506040513d601f19601f8201168201806040525081019061029c91906108cc565b604051633cc8e33b60e21b81526001600160a01b038a811660048301528981166024830152888116604483015286151560648301526084820188905260a48201859052600160c4830152919250908a169063f3238cec9060e401600060405180830381600087803b15801561031057600080fd5b505af1158015610324573d6000803e3d6000fd5b50506040516306d63c1d60e41b81526001600160a01b038e8116600483015284169250636d63c1d09150602401600060405180830381600087803b15801561036b57600080fd5b505af115801561037f573d6000803e3d6000fd5b5050604051630f8ee8bb60e11b81526001600160a01b038b811660048301528a8116602483015289811660448301526064820189905287151560848301528d169250631f1dd176915060a401600060405180830381600087803b1580156103e557600080fd5b505af11580156103f9573d6000803e3d6000fd5b505060405163d3c87bbb60e01b81526001600160a01b038e811660048301528416925063d3c87bbb9150602401600060405180830381600087803b15801561044057600080fd5b505af1158015610454573d6000803e3d6000fd5b505050505050505050505050505050565b6000836104745750600061067c565b826000036104845750600161067c565b600087600189516104959190610906565b815181106104a5576104a561091f565b6020908102919091010151604051634a3f088d60e01b81526001600160a01b038b811660048301528083166024830152888116604483015287151560648301529192508b916000918291841690634a3f088d9060840161010060405180830381865afa158015610519573d6000803e3d6000fd5b505050506040513d601f19601f8201168201806040525081019061053d9190610935565b505050505050915091508160000361055c57600094505050505061067c565b6000610568888461099f565b604051630a48d5a960e01b81526001600160a01b038781166004830152602482018e9052919250600091861690630a48d5a990604401602060405180830381865afa1580156105bb573d6000803e3d6000fd5b505050506040513d601f19601f820116820180604052508101906105df91906108b3565b905060006105ed828561099f565b90506000846105fe612710886109b2565b61060891906109c9565b90506000826106198c61271061099f565b61062390876109b2565b61062d91906109c9565b60408051868152602081018590529081018290529091507f3f6e9241514ae172d9872f51274a73fd6b370b2f8fa612669bb17d933078860c9060600160405180910390a1109750505050505050505b98975050505050505050565b6001600160a01b038116811461069d57600080fd5b50565b80356106ab81610688565b919050565b801515811461069d57600080fd5b80356106ab816106b0565b60008060008060008060008060006101208a8c0312156106e857600080fd5b89356106f381610688565b985060208a013561070381610688565b975060408a013561071381610688565b965060608a013561072381610688565b955060808a013561073381610688565b945060a08a013561074381610688565b935060c08a0135925060e08a013561075a816106b0565b809250506101008a013590509295985092959850929598565b634e487b7160e01b600052604160045260246000fd5b600080600080600080600080610100898b0312156107a657600080fd5b88356107b181610688565b97506020898101356107c281610688565b975060408a013567ffffffffffffffff808211156107df57600080fd5b818c0191508c601f8301126107f357600080fd5b81358181111561080557610805610773565b8060051b604051601f19603f8301168101818110858211171561082a5761082a610773565b60405291825284820192508381018501918f83111561084857600080fd5b938501935b8285101561086d5761085e856106a0565b8452938501939285019261084d565b9a5050505060608b0135965061088891505060808a016106a0565b935061089660a08a016106be565b925060c0890135915060e089013590509295985092959890939650565b6000602082840312156108c557600080fd5b5051919050565b6000602082840312156108de57600080fd5b81516108e981610688565b9392505050565b634e487b7160e01b600052601160045260246000fd5b81810381811115610919576109196108f0565b92915050565b634e487b7160e01b600052603260045260246000fd5b600080600080600080600080610100898b03121561095257600080fd5b885197506020890151965060408901519550606089015194506080890151935060a0890151925060c0890151610987816106b0565b8092505060e089015190509295985092959890939650565b80820180821115610919576109196108f0565b8082028115828204841417610919576109196108f0565b6000826109e657634e487b7160e01b600052601260045260246000fd5b50049056fea26469706673582212208a50f35efa2bf8cc6f35bc74287cab15998133eacf5e625779535e7f977b620a64736f6c63430008120033","linkReferences":{}},"methodIdentifiers":{"BASIS_POINTS_DIVISOR()":"126082cf","increasePosition(address,address,address,address,address,address,uint256,bool,uint256)":"be1e7878","shouldDeductFee(address,address,address[],uint256,address,bool,uint256,uint256)":"e0cab550"},"id":35}