{
  "abi": [
    {
      "inputs": [
        {
          "internalType": "address",
          "name": "_vault",
          "type": "address"
        },
        {
          "internalType": "address",
          "name": "_token",
          "type": "address"
        },
        {
          "internalType": "address",
          "name": "_usdg",
          "type": "address"
        },
        {
          "internalType": "uint256",
          "name": "_usdgAmount",
          "type": "uint256"
        }
      ],
      "name": "updateBalance",
      "outputs": [],
      "stateMutability": "nonpayable",
      "type": "function"
    }
  ],
  "bytecode": {
    "object": "0x608060405234801561001057600080fd5b50610448806100206000396000f3fe608060405234801561001057600080fd5b506004361061002b5760003560e01c806343aaa69014610030575b600080fd5b61004361003e366004610343565b610045565b005b6040516352f55eed60e01b81526001600160a01b03808516600483015285918591600091908416906352f55eed90602401602060405180830381865afa158015610093573d6000803e3d6000fd5b505050506040513d601f19601f820116820180604052508101906100b7919061038e565b604051631ce9cb8f60e01b81526001600160a01b038881166004830152919250600091851690631ce9cb8f90602401602060405180830381865afa158015610103573d6000803e3d6000fd5b505050506040513d601f19601f82011682018060405250810190610127919061038e565b6040516370a0823160e01b81526001600160a01b038a811660048301529192506000918516906370a0823190602401602060405180830381865afa158015610173573d6000803e3d6000fd5b505050506040513d601f19601f82011682018060405250810190610197919061038e565b90506000816101a684866103bd565b6101b091906103d6565b6040516323b872dd60e01b81523360048201526001600160a01b038c8116602483015260448201839052919250908616906323b872dd906064016020604051808303816000875af1158015610209573d6000803e3d6000fd5b505050506040513d601f19601f8201168201806040525081019061022d91906103e9565b506040516323b872dd60e01b81523360048201526001600160a01b038b81166024830152604482018990528916906323b872dd906064016020604051808303816000875af1158015610283573d6000803e3d6000fd5b505050506040513d601f19601f820116820180604052508101906102a791906103e9565b50604051633b699bdd60e21b81526001600160a01b038a8116600483015233602483015287169063eda66f74906044016020604051808303816000875af11580156102f6573d6000803e3d6000fd5b505050506040513d601f19601f8201168201806040525081019061031a919061038e565b5050505050505050505050565b80356001600160a01b038116811461033e57600080fd5b919050565b6000806000806080858703121561035957600080fd5b61036285610327565b935061037060208601610327565b925061037e60408601610327565b9396929550929360600135925050565b6000602082840312156103a057600080fd5b5051919050565b634e487b7160e01b600052601160045260246000fd5b808201808211156103d0576103d06103a7565b92915050565b818103818111156103d0576103d06103a7565b6000602082840312156103fb57600080fd5b8151801515811461040b57600080fd5b939250505056fea2646970667358221220a65656256d50b2c5c6d5ee1cf38bdc3f4a69f0f15ea90ec54ae504e92145b9a364736f6c63430008120033",
    "linkReferences": {}
  },
  "methodIdentifiers": {
    "updateBalance(address,address,address,uint256)": "43aaa690"
  },
  "id": 65
}