{
  "abi": [
    {
      "inputs": [
        {
          "internalType": "address",
          "name": "_admin",
          "type": "address"
        },
        {
          "internalType": "uint256",
          "name": "_buffer",
          "type": "uint256"
        },
        {
          "internalType": "address",
          "name": "_tokenManager",
          "type": "address"
        },
        {
          "internalType": "address",
          "name": "_mintReceiver",
          "type": "address"
        },
        {
          "internalType": "address",
          "name": "_brrrManager",
          "type": "address"
        },
        {
          "internalType": "address",
          "name": "_rewardRouter",
          "type": "address"
        },
        {
          "internalType": "uint256",
          "name": "_maxTokenSupply",
          "type": "uint256"
        },
        {
          "internalType": "uint256",
          "name": "_marginFeeBasisPoints",
          "type": "uint256"
        },
        {
          "internalType": "uint256",
          "name": "_maxMarginFeeBasisPoints",
          "type": "uint256"
        }
      ],
      "stateMutability": "nonpayable",
      "type": "constructor"
    },
    {
      "anonymous": false,
      "inputs": [
        {
          "indexed": false,
          "internalType": "bytes32",
          "name": "action",
          "type": "bytes32"
        }
      ],
      "name": "ClearAction",
      "type": "event"
    },
    {
      "anonymous": false,
      "inputs": [
        {
          "indexed": false,
          "internalType": "address",
          "name": "token",
          "type": "address"
        },
        {
          "indexed": false,
          "internalType": "address",
          "name": "spender",
          "type": "address"
        },
        {
          "indexed": false,
          "internalType": "uint256",
          "name": "amount",
          "type": "uint256"
        },
        {
          "indexed": false,
          "internalType": "bytes32",
          "name": "action",
          "type": "bytes32"
        }
      ],
      "name": "SignalApprove",
      "type": "event"
    },
    {
      "anonymous": false,
      "inputs": [
        {
          "indexed": false,
          "internalType": "address",
          "name": "vault",
          "type": "address"
        },
        {
          "indexed": false,
          "internalType": "address",
          "name": "token",
          "type": "address"
        }
      ],
      "name": "SignalClearSetTokenConfig",
      "type": "event"
    },
    {
      "anonymous": false,
      "inputs": [
        {
          "indexed": false,
          "internalType": "address",
          "name": "token",
          "type": "address"
        },
        {
          "indexed": false,
          "internalType": "address",
          "name": "receiver",
          "type": "address"
        },
        {
          "indexed": false,
          "internalType": "uint256",
          "name": "amount",
          "type": "uint256"
        },
        {
          "indexed": false,
          "internalType": "bytes32",
          "name": "action",
          "type": "bytes32"
        }
      ],
      "name": "SignalMint",
      "type": "event"
    },
    {
      "anonymous": false,
      "inputs": [
        {
          "indexed": false,
          "internalType": "bytes32",
          "name": "action",
          "type": "bytes32"
        }
      ],
      "name": "SignalPendingAction",
      "type": "event"
    },
    {
      "anonymous": false,
      "inputs": [
        {
          "indexed": false,
          "internalType": "address",
          "name": "target",
          "type": "address"
        },
        {
          "indexed": false,
          "internalType": "address",
          "name": "token",
          "type": "address"
        }
      ],
      "name": "SignalRecoverTokens",
      "type": "event"
    },
    {
      "anonymous": false,
      "inputs": [
        {
          "indexed": false,
          "internalType": "address",
          "name": "vault",
          "type": "address"
        },
        {
          "indexed": false,
          "internalType": "address",
          "name": "token",
          "type": "address"
        },
        {
          "indexed": false,
          "internalType": "uint256",
          "name": "amount",
          "type": "uint256"
        }
      ],
      "name": "SignalRedeemUsdp",
      "type": "event"
    },
    {
      "anonymous": false,
      "inputs": [
        {
          "indexed": false,
          "internalType": "address",
          "name": "target",
          "type": "address"
        },
        {
          "indexed": false,
          "internalType": "address",
          "name": "gov",
          "type": "address"
        },
        {
          "indexed": false,
          "internalType": "bytes32",
          "name": "action",
          "type": "bytes32"
        }
      ],
      "name": "SignalSetGov",
      "type": "event"
    },
    {
      "anonymous": false,
      "inputs": [
        {
          "indexed": false,
          "internalType": "address",
          "name": "target",
          "type": "address"
        },
        {
          "indexed": false,
          "internalType": "address",
          "name": "handler",
          "type": "address"
        },
        {
          "indexed": false,
          "internalType": "bool",
          "name": "isActive",
          "type": "bool"
        },
        {
          "indexed": false,
          "internalType": "bytes32",
          "name": "action",
          "type": "bytes32"
        }
      ],
      "name": "SignalSetHandler",
      "type": "event"
    },
    {
      "anonymous": false,
      "inputs": [
        {
          "indexed": false,
          "internalType": "address",
          "name": "vault",
          "type": "address"
        },
        {
          "indexed": false,
          "internalType": "address",
          "name": "priceFeed",
          "type": "address"
        },
        {
          "indexed": false,
          "internalType": "bytes32",
          "name": "action",
          "type": "bytes32"
        }
      ],
      "name": "SignalSetPriceFeed",
      "type": "event"
    },
    {
      "anonymous": false,
      "inputs": [
        {
          "indexed": false,
          "internalType": "address",
          "name": "target",
          "type": "address"
        },
        {
          "indexed": false,
          "internalType": "uint256",
          "name": "value",
          "type": "uint256"
        }
      ],
      "name": "SignalUpdateXpPerSecond",
      "type": "event"
    },
    {
      "anonymous": false,
      "inputs": [
        {
          "indexed": false,
          "internalType": "address",
          "name": "vault",
          "type": "address"
        },
        {
          "indexed": false,
          "internalType": "address",
          "name": "token",
          "type": "address"
        },
        {
          "indexed": false,
          "internalType": "uint256",
          "name": "tokenDecimals",
          "type": "uint256"
        },
        {
          "indexed": false,
          "internalType": "uint256",
          "name": "tokenWeight",
          "type": "uint256"
        },
        {
          "indexed": false,
          "internalType": "uint256",
          "name": "minProfitBps",
          "type": "uint256"
        },
        {
          "indexed": false,
          "internalType": "uint256",
          "name": "maxUsdpAmount",
          "type": "uint256"
        },
        {
          "indexed": false,
          "internalType": "bool",
          "name": "isStable",
          "type": "bool"
        },
        {
          "indexed": false,
          "internalType": "bool",
          "name": "isShortable",
          "type": "bool"
        }
      ],
      "name": "SignalVaultSetTokenConfig",
      "type": "event"
    },
    {
      "anonymous": false,
      "inputs": [
        {
          "indexed": false,
          "internalType": "address",
          "name": "target",
          "type": "address"
        },
        {
          "indexed": false,
          "internalType": "address",
          "name": "token",
          "type": "address"
        },
        {
          "indexed": false,
          "internalType": "address",
          "name": "receiver",
          "type": "address"
        },
        {
          "indexed": false,
          "internalType": "uint256",
          "name": "amount",
          "type": "uint256"
        },
        {
          "indexed": false,
          "internalType": "bytes32",
          "name": "action",
          "type": "bytes32"
        }
      ],
      "name": "SignalWithdrawToken",
      "type": "event"
    },
    {
      "inputs": [],
      "name": "MAX_BUFFER",
      "outputs": [
        {
          "internalType": "uint256",
          "name": "",
          "type": "uint256"
        }
      ],
      "stateMutability": "view",
      "type": "function"
    },
    {
      "inputs": [],
      "name": "MAX_FUNDING_RATE_FACTOR",
      "outputs": [
        {
          "internalType": "uint256",
          "name": "",
          "type": "uint256"
        }
      ],
      "stateMutability": "view",
      "type": "function"
    },
    {
      "inputs": [],
      "name": "MAX_LEVERAGE_VALIDATION",
      "outputs": [
        {
          "internalType": "uint256",
          "name": "",
          "type": "uint256"
        }
      ],
      "stateMutability": "view",
      "type": "function"
    },
    {
      "inputs": [],
      "name": "PRICE_PRECISION",
      "outputs": [
        {
          "internalType": "uint256",
          "name": "",
          "type": "uint256"
        }
      ],
      "stateMutability": "view",
      "type": "function"
    },
    {
      "inputs": [],
      "name": "admin",
      "outputs": [
        {
          "internalType": "address",
          "name": "",
          "type": "address"
        }
      ],
      "stateMutability": "view",
      "type": "function"
    },
    {
      "inputs": [
        {
          "internalType": "address",
          "name": "_token",
          "type": "address"
        },
        {
          "internalType": "address",
          "name": "_spender",
          "type": "address"
        },
        {
          "internalType": "uint256",
          "name": "_amount",
          "type": "uint256"
        }
      ],
      "name": "approve",
      "outputs": [],
      "stateMutability": "nonpayable",
      "type": "function"
    },
    {
      "inputs": [
        {
          "internalType": "address",
          "name": "_vault",
          "type": "address"
        },
        {
          "internalType": "address[]",
          "name": "_tokens",
          "type": "address[]"
        }
      ],
      "name": "batchWithdrawFees",
      "outputs": [],
      "stateMutability": "nonpayable",
      "type": "function"
    },
    {
      "inputs": [],
      "name": "brrrManager",
      "outputs": [
        {
          "internalType": "address",
          "name": "",
          "type": "address"
        }
      ],
      "stateMutability": "view",
      "type": "function"
    },
    {
      "inputs": [],
      "name": "buffer",
      "outputs": [
        {
          "internalType": "uint256",
          "name": "",
          "type": "uint256"
        }
      ],
      "stateMutability": "view",
      "type": "function"
    },
    {
      "inputs": [
        {
          "internalType": "bytes32",
          "name": "_action",
          "type": "bytes32"
        }
      ],
      "name": "cancelAction",
      "outputs": [],
      "stateMutability": "nonpayable",
      "type": "function"
    },
    {
      "inputs": [
        {
          "internalType": "address",
          "name": "_vault",
          "type": "address"
        }
      ],
      "name": "disableLeverage",
      "outputs": [],
      "stateMutability": "nonpayable",
      "type": "function"
    },
    {
      "inputs": [
        {
          "internalType": "address",
          "name": "_vault",
          "type": "address"
        }
      ],
      "name": "enableLeverage",
      "outputs": [],
      "stateMutability": "nonpayable",
      "type": "function"
    },
    {
      "inputs": [
        {
          "internalType": "address",
          "name": "_referralStorage",
          "type": "address"
        },
        {
          "internalType": "bytes32",
          "name": "_code",
          "type": "bytes32"
        },
        {
          "internalType": "address",
          "name": "_newAccount",
          "type": "address"
        }
      ],
      "name": "govSetCodeOwner",
      "outputs": [],
      "stateMutability": "nonpayable",
      "type": "function"
    },
    {
      "inputs": [],
      "name": "initBrrrManager",
      "outputs": [],
      "stateMutability": "nonpayable",
      "type": "function"
    },
    {
      "inputs": [],
      "name": "initRewardRouter",
      "outputs": [],
      "stateMutability": "nonpayable",
      "type": "function"
    },
    {
      "inputs": [
        {
          "internalType": "address",
          "name": "",
          "type": "address"
        }
      ],
      "name": "isHandler",
      "outputs": [
        {
          "internalType": "bool",
          "name": "",
          "type": "bool"
        }
      ],
      "stateMutability": "view",
      "type": "function"
    },
    {
      "inputs": [
        {
          "internalType": "address",
          "name": "",
          "type": "address"
        }
      ],
      "name": "isKeeper",
      "outputs": [
        {
          "internalType": "bool",
          "name": "",
          "type": "bool"
        }
      ],
      "stateMutability": "view",
      "type": "function"
    },
    {
      "inputs": [],
      "name": "marginFeeBasisPoints",
      "outputs": [
        {
          "internalType": "uint256",
          "name": "",
          "type": "uint256"
        }
      ],
      "stateMutability": "view",
      "type": "function"
    },
    {
      "inputs": [],
      "name": "maxMarginFeeBasisPoints",
      "outputs": [
        {
          "internalType": "uint256",
          "name": "",
          "type": "uint256"
        }
      ],
      "stateMutability": "view",
      "type": "function"
    },
    {
      "inputs": [],
      "name": "maxTokenSupply",
      "outputs": [
        {
          "internalType": "uint256",
          "name": "",
          "type": "uint256"
        }
      ],
      "stateMutability": "view",
      "type": "function"
    },
    {
      "inputs": [],
      "name": "mintReceiver",
      "outputs": [
        {
          "internalType": "address",
          "name": "",
          "type": "address"
        }
      ],
      "stateMutability": "view",
      "type": "function"
    },
    {
      "inputs": [
        {
          "internalType": "bytes32",
          "name": "",
          "type": "bytes32"
        }
      ],
      "name": "pendingActions",
      "outputs": [
        {
          "internalType": "uint256",
          "name": "",
          "type": "uint256"
        }
      ],
      "stateMutability": "view",
      "type": "function"
    },
    {
      "inputs": [
        {
          "internalType": "address",
          "name": "_token",
          "type": "address"
        },
        {
          "internalType": "address",
          "name": "_receiver",
          "type": "address"
        },
        {
          "internalType": "uint256",
          "name": "_amount",
          "type": "uint256"
        }
      ],
      "name": "processMint",
      "outputs": [],
      "stateMutability": "nonpayable",
      "type": "function"
    },
    {
      "inputs": [
        {
          "internalType": "address",
          "name": "_token",
          "type": "address"
        },
        {
          "internalType": "address",
          "name": "_target",
          "type": "address"
        }
      ],
      "name": "recoverTokens",
      "outputs": [],
      "stateMutability": "nonpayable",
      "type": "function"
    },
    {
      "inputs": [
        {
          "internalType": "address",
          "name": "_vault",
          "type": "address"
        },
        {
          "internalType": "address",
          "name": "_token",
          "type": "address"
        },
        {
          "internalType": "uint256",
          "name": "_amount",
          "type": "uint256"
        }
      ],
      "name": "redeemUsdp",
      "outputs": [],
      "stateMutability": "nonpayable",
      "type": "function"
    },
    {
      "inputs": [
        {
          "internalType": "address",
          "name": "_token",
          "type": "address"
        },
        {
          "internalType": "address",
          "name": "_account",
          "type": "address"
        }
      ],
      "name": "removeAdmin",
      "outputs": [],
      "stateMutability": "nonpayable",
      "type": "function"
    },
    {
      "inputs": [],
      "name": "rewardRouter",
      "outputs": [
        {
          "internalType": "address",
          "name": "",
          "type": "address"
        }
      ],
      "stateMutability": "view",
      "type": "function"
    },
    {
      "inputs": [
        {
          "internalType": "address",
          "name": "_admin",
          "type": "address"
        }
      ],
      "name": "setAdmin",
      "outputs": [],
      "stateMutability": "nonpayable",
      "type": "function"
    },
    {
      "inputs": [
        {
          "internalType": "uint256",
          "name": "_cooldownDuration",
          "type": "uint256"
        }
      ],
      "name": "setBrrrCooldownDuration",
      "outputs": [],
      "stateMutability": "nonpayable",
      "type": "function"
    },
    {
      "inputs": [
        {
          "internalType": "uint256",
          "name": "_buffer",
          "type": "uint256"
        }
      ],
      "name": "setBuffer",
      "outputs": [],
      "stateMutability": "nonpayable",
      "type": "function"
    },
    {
      "inputs": [
        {
          "internalType": "address",
          "name": "_handler",
          "type": "address"
        },
        {
          "internalType": "bool",
          "name": "_isActive",
          "type": "bool"
        }
      ],
      "name": "setContractHandler",
      "outputs": [],
      "stateMutability": "nonpayable",
      "type": "function"
    },
    {
      "inputs": [
        {
          "internalType": "address",
          "name": "_target",
          "type": "address"
        },
        {
          "internalType": "address",
          "name": "_admin",
          "type": "address"
        }
      ],
      "name": "setExternalAdmin",
      "outputs": [],
      "stateMutability": "nonpayable",
      "type": "function"
    },
    {
      "inputs": [
        {
          "internalType": "address",
          "name": "_vault",
          "type": "address"
        },
        {
          "internalType": "uint256",
          "name": "_taxBasisPoints",
          "type": "uint256"
        },
        {
          "internalType": "uint256",
          "name": "_stableTaxBasisPoints",
          "type": "uint256"
        },
        {
          "internalType": "uint256",
          "name": "_mintBurnFeeBasisPoints",
          "type": "uint256"
        },
        {
          "internalType": "uint256",
          "name": "_swapFeeBasisPoints",
          "type": "uint256"
        },
        {
          "internalType": "uint256",
          "name": "_stableSwapFeeBasisPoints",
          "type": "uint256"
        },
        {
          "internalType": "uint256",
          "name": "_marginFeeBasisPoints",
          "type": "uint256"
        },
        {
          "internalType": "uint256",
          "name": "_liquidationFeeUsd",
          "type": "uint256"
        },
        {
          "internalType": "uint256",
          "name": "_minProfitTime",
          "type": "uint256"
        },
        {
          "internalType": "bool",
          "name": "_hasDynamicFees",
          "type": "bool"
        }
      ],
      "name": "setFees",
      "outputs": [],
      "stateMutability": "nonpayable",
      "type": "function"
    },
    {
      "inputs": [
        {
          "internalType": "address",
          "name": "_vault",
          "type": "address"
        },
        {
          "internalType": "uint256",
          "name": "_fundingInterval",
          "type": "uint256"
        },
        {
          "internalType": "uint256",
          "name": "_fundingRateFactor",
          "type": "uint256"
        },
        {
          "internalType": "uint256",
          "name": "_stableFundingRateFactor",
          "type": "uint256"
        }
      ],
      "name": "setFundingRate",
      "outputs": [],
      "stateMutability": "nonpayable",
      "type": "function"
    },
    {
      "inputs": [
        {
          "internalType": "address",
          "name": "_target",
          "type": "address"
        },
        {
          "internalType": "address",
          "name": "_gov",
          "type": "address"
        }
      ],
      "name": "setGov",
      "outputs": [],
      "stateMutability": "nonpayable",
      "type": "function"
    },
    {
      "inputs": [
        {
          "internalType": "address",
          "name": "_target",
          "type": "address"
        },
        {
          "internalType": "address",
          "name": "_handler",
          "type": "address"
        },
        {
          "internalType": "bool",
          "name": "_isActive",
          "type": "bool"
        }
      ],
      "name": "setHandler",
      "outputs": [],
      "stateMutability": "nonpayable",
      "type": "function"
    },
    {
      "inputs": [
        {
          "internalType": "address",
          "name": "_vault",
          "type": "address"
        },
        {
          "internalType": "bool",
          "name": "_inPrivateLiquidationMode",
          "type": "bool"
        }
      ],
      "name": "setInPrivateLiquidationMode",
      "outputs": [],
      "stateMutability": "nonpayable",
      "type": "function"
    },
    {
      "inputs": [
        {
          "internalType": "address",
          "name": "_token",
          "type": "address"
        },
        {
          "internalType": "bool",
          "name": "_inPrivateTransferMode",
          "type": "bool"
        }
      ],
      "name": "setInPrivateTransferMode",
      "outputs": [],
      "stateMutability": "nonpayable",
      "type": "function"
    },
    {
      "inputs": [
        {
          "internalType": "address",
          "name": "_vault",
          "type": "address"
        },
        {
          "internalType": "bool",
          "name": "_isLeverageEnabled",
          "type": "bool"
        }
      ],
      "name": "setIsLeverageEnabled",
      "outputs": [],
      "stateMutability": "nonpayable",
      "type": "function"
    },
    {
      "inputs": [
        {
          "internalType": "address",
          "name": "_vault",
          "type": "address"
        },
        {
          "internalType": "bool",
          "name": "_isSwapEnabled",
          "type": "bool"
        }
      ],
      "name": "setIsSwapEnabled",
      "outputs": [],
      "stateMutability": "nonpayable",
      "type": "function"
    },
    {
      "inputs": [
        {
          "internalType": "address",
          "name": "_keeper",
          "type": "address"
        },
        {
          "internalType": "bool",
          "name": "_isActive",
          "type": "bool"
        }
      ],
      "name": "setKeeper",
      "outputs": [],
      "stateMutability": "nonpayable",
      "type": "function"
    },
    {
      "inputs": [
        {
          "internalType": "address",
          "name": "_vault",
          "type": "address"
        },
        {
          "internalType": "address",
          "name": "_liquidator",
          "type": "address"
        },
        {
          "internalType": "bool",
          "name": "_isActive",
          "type": "bool"
        }
      ],
      "name": "setLiquidator",
      "outputs": [],
      "stateMutability": "nonpayable",
      "type": "function"
    },
    {
      "inputs": [
        {
          "internalType": "uint256",
          "name": "_marginFeeBasisPoints",
          "type": "uint256"
        },
        {
          "internalType": "uint256",
          "name": "_maxMarginFeeBasisPoints",
          "type": "uint256"
        }
      ],
      "name": "setMarginFeeBasisPoints",
      "outputs": [],
      "stateMutability": "nonpayable",
      "type": "function"
    },
    {
      "inputs": [
        {
          "internalType": "address",
          "name": "_vault",
          "type": "address"
        },
        {
          "internalType": "uint256",
          "name": "_maxGasPrice",
          "type": "uint256"
        }
      ],
      "name": "setMaxGasPrice",
      "outputs": [],
      "stateMutability": "nonpayable",
      "type": "function"
    },
    {
      "inputs": [
        {
          "internalType": "address",
          "name": "_vault",
          "type": "address"
        },
        {
          "internalType": "address",
          "name": "_token",
          "type": "address"
        },
        {
          "internalType": "uint256",
          "name": "_amount",
          "type": "uint256"
        }
      ],
      "name": "setMaxGlobalShortSize",
      "outputs": [],
      "stateMutability": "nonpayable",
      "type": "function"
    },
    {
      "inputs": [
        {
          "internalType": "address",
          "name": "_vault",
          "type": "address"
        },
        {
          "internalType": "uint256",
          "name": "_maxLeverage",
          "type": "uint256"
        }
      ],
      "name": "setMaxLeverage",
      "outputs": [],
      "stateMutability": "nonpayable",
      "type": "function"
    },
    {
      "inputs": [
        {
          "internalType": "address",
          "name": "_vault",
          "type": "address"
        },
        {
          "internalType": "address",
          "name": "_priceFeed",
          "type": "address"
        }
      ],
      "name": "setPriceFeed",
      "outputs": [],
      "stateMutability": "nonpayable",
      "type": "function"
    },
    {
      "inputs": [
        {
          "internalType": "address",
          "name": "_referralStorage",
          "type": "address"
        },
        {
          "internalType": "address",
          "name": "_referrer",
          "type": "address"
        },
        {
          "internalType": "uint256",
          "name": "_tierId",
          "type": "uint256"
        }
      ],
      "name": "setReferrerTier",
      "outputs": [],
      "stateMutability": "nonpayable",
      "type": "function"
    },
    {
      "inputs": [
        {
          "internalType": "uint256",
          "name": "_shortsTrackerAveragePriceWeight",
          "type": "uint256"
        }
      ],
      "name": "setShortsTrackerAveragePriceWeight",
      "outputs": [],
      "stateMutability": "nonpayable",
      "type": "function"
    },
    {
      "inputs": [
        {
          "internalType": "bool",
          "name": "_shouldToggleIsLeverageEnabled",
          "type": "bool"
        }
      ],
      "name": "setShouldToggleIsLeverageEnabled",
      "outputs": [],
      "stateMutability": "nonpayable",
      "type": "function"
    },
    {
      "inputs": [
        {
          "internalType": "address",
          "name": "_vault",
          "type": "address"
        },
        {
          "internalType": "uint256",
          "name": "_taxBasisPoints",
          "type": "uint256"
        },
        {
          "internalType": "uint256",
          "name": "_stableTaxBasisPoints",
          "type": "uint256"
        },
        {
          "internalType": "uint256",
          "name": "_mintBurnFeeBasisPoints",
          "type": "uint256"
        },
        {
          "internalType": "uint256",
          "name": "_swapFeeBasisPoints",
          "type": "uint256"
        },
        {
          "internalType": "uint256",
          "name": "_stableSwapFeeBasisPoints",
          "type": "uint256"
        }
      ],
      "name": "setSwapFees",
      "outputs": [],
      "stateMutability": "nonpayable",
      "type": "function"
    },
    {
      "inputs": [
        {
          "internalType": "address",
          "name": "_referralStorage",
          "type": "address"
        },
        {
          "internalType": "uint256",
          "name": "_tierId",
          "type": "uint256"
        },
        {
          "internalType": "uint256",
          "name": "_totalRebate",
          "type": "uint256"
        },
        {
          "internalType": "uint256",
          "name": "_discountShare",
          "type": "uint256"
        }
      ],
      "name": "setTier",
      "outputs": [],
      "stateMutability": "nonpayable",
      "type": "function"
    },
    {
      "inputs": [
        {
          "internalType": "address",
          "name": "_vault",
          "type": "address"
        },
        {
          "internalType": "address",
          "name": "_token",
          "type": "address"
        },
        {
          "internalType": "uint256",
          "name": "_tokenWeight",
          "type": "uint256"
        },
        {
          "internalType": "uint256",
          "name": "_minProfitBps",
          "type": "uint256"
        },
        {
          "internalType": "uint256",
          "name": "_maxUsdpAmount",
          "type": "uint256"
        },
        {
          "internalType": "uint256",
          "name": "_bufferAmount",
          "type": "uint256"
        },
        {
          "internalType": "uint256",
          "name": "_usdpAmount",
          "type": "uint256"
        }
      ],
      "name": "setTokenConfig",
      "outputs": [],
      "stateMutability": "nonpayable",
      "type": "function"
    },
    {
      "inputs": [
        {
          "internalType": "address",
          "name": "_vault",
          "type": "address"
        },
        {
          "internalType": "address[]",
          "name": "_tokens",
          "type": "address[]"
        },
        {
          "internalType": "uint256[]",
          "name": "_usdpAmounts",
          "type": "uint256[]"
        }
      ],
      "name": "setUsdpAmounts",
      "outputs": [],
      "stateMutability": "nonpayable",
      "type": "function"
    },
    {
      "inputs": [
        {
          "internalType": "address",
          "name": "_vault",
          "type": "address"
        },
        {
          "internalType": "contract IVaultUtils",
          "name": "_vaultUtils",
          "type": "address"
        }
      ],
      "name": "setVaultUtils",
      "outputs": [],
      "stateMutability": "nonpayable",
      "type": "function"
    },
    {
      "inputs": [],
      "name": "shouldToggleIsLeverageEnabled",
      "outputs": [
        {
          "internalType": "bool",
          "name": "",
          "type": "bool"
        }
      ],
      "stateMutability": "view",
      "type": "function"
    },
    {
      "inputs": [
        {
          "internalType": "address",
          "name": "_token",
          "type": "address"
        },
        {
          "internalType": "address",
          "name": "_spender",
          "type": "address"
        },
        {
          "internalType": "uint256",
          "name": "_amount",
          "type": "uint256"
        }
      ],
      "name": "signalApprove",
      "outputs": [],
      "stateMutability": "nonpayable",
      "type": "function"
    },
    {
      "inputs": [
        {
          "internalType": "address",
          "name": "_token",
          "type": "address"
        },
        {
          "internalType": "address",
          "name": "_receiver",
          "type": "address"
        },
        {
          "internalType": "uint256",
          "name": "_amount",
          "type": "uint256"
        }
      ],
      "name": "signalMint",
      "outputs": [],
      "stateMutability": "nonpayable",
      "type": "function"
    },
    {
      "inputs": [
        {
          "internalType": "address",
          "name": "_token",
          "type": "address"
        },
        {
          "internalType": "address",
          "name": "_target",
          "type": "address"
        }
      ],
      "name": "signalRecoverTokens",
      "outputs": [],
      "stateMutability": "nonpayable",
      "type": "function"
    },
    {
      "inputs": [
        {
          "internalType": "address",
          "name": "_vault",
          "type": "address"
        },
        {
          "internalType": "address",
          "name": "_token",
          "type": "address"
        },
        {
          "internalType": "uint256",
          "name": "_amount",
          "type": "uint256"
        }
      ],
      "name": "signalRedeemUsdp",
      "outputs": [],
      "stateMutability": "nonpayable",
      "type": "function"
    },
    {
      "inputs": [
        {
          "internalType": "address",
          "name": "_target",
          "type": "address"
        },
        {
          "internalType": "address",
          "name": "_gov",
          "type": "address"
        }
      ],
      "name": "signalSetGov",
      "outputs": [],
      "stateMutability": "nonpayable",
      "type": "function"
    },
    {
      "inputs": [
        {
          "internalType": "address",
          "name": "_target",
          "type": "address"
        },
        {
          "internalType": "address",
          "name": "_handler",
          "type": "address"
        },
        {
          "internalType": "bool",
          "name": "_isActive",
          "type": "bool"
        }
      ],
      "name": "signalSetHandler",
      "outputs": [],
      "stateMutability": "nonpayable",
      "type": "function"
    },
    {
      "inputs": [
        {
          "internalType": "address",
          "name": "_vault",
          "type": "address"
        },
        {
          "internalType": "address",
          "name": "_priceFeed",
          "type": "address"
        }
      ],
      "name": "signalSetPriceFeed",
      "outputs": [],
      "stateMutability": "nonpayable",
      "type": "function"
    },
    {
      "inputs": [
        {
          "internalType": "uint256",
          "name": "_value",
          "type": "uint256"
        },
        {
          "internalType": "address",
          "name": "_target",
          "type": "address"
        }
      ],
      "name": "signalUpdateXpPerSecond",
      "outputs": [],
      "stateMutability": "nonpayable",
      "type": "function"
    },
    {
      "inputs": [
        {
          "internalType": "address",
          "name": "_vault",
          "type": "address"
        },
        {
          "internalType": "address",
          "name": "_token",
          "type": "address"
        }
      ],
      "name": "signalVaultClearTokenConfig",
      "outputs": [],
      "stateMutability": "nonpayable",
      "type": "function"
    },
    {
      "inputs": [
        {
          "internalType": "address",
          "name": "_vault",
          "type": "address"
        },
        {
          "internalType": "address",
          "name": "_token",
          "type": "address"
        },
        {
          "internalType": "uint256",
          "name": "_tokenDecimals",
          "type": "uint256"
        },
        {
          "internalType": "uint256",
          "name": "_tokenWeight",
          "type": "uint256"
        },
        {
          "internalType": "uint256",
          "name": "_minProfitBps",
          "type": "uint256"
        },
        {
          "internalType": "uint256",
          "name": "_maxUsdpAmount",
          "type": "uint256"
        },
        {
          "internalType": "bool",
          "name": "_isStable",
          "type": "bool"
        },
        {
          "internalType": "bool",
          "name": "_isShortable",
          "type": "bool"
        }
      ],
      "name": "signalVaultSetTokenConfig",
      "outputs": [],
      "stateMutability": "nonpayable",
      "type": "function"
    },
    {
      "inputs": [
        {
          "internalType": "address",
          "name": "_target",
          "type": "address"
        },
        {
          "internalType": "address",
          "name": "_token",
          "type": "address"
        },
        {
          "internalType": "address",
          "name": "_receiver",
          "type": "address"
        },
        {
          "internalType": "uint256",
          "name": "_amount",
          "type": "uint256"
        }
      ],
      "name": "signalWithdrawToken",
      "outputs": [],
      "stateMutability": "nonpayable",
      "type": "function"
    },
    {
      "inputs": [],
      "name": "tokenManager",
      "outputs": [
        {
          "internalType": "address",
          "name": "",
          "type": "address"
        }
      ],
      "stateMutability": "view",
      "type": "function"
    },
    {
      "inputs": [
        {
          "internalType": "address",
          "name": "_sender",
          "type": "address"
        },
        {
          "internalType": "address",
          "name": "_token",
          "type": "address"
        },
        {
          "internalType": "uint256",
          "name": "_amount",
          "type": "uint256"
        }
      ],
      "name": "transferIn",
      "outputs": [],
      "stateMutability": "nonpayable",
      "type": "function"
    },
    {
      "inputs": [
        {
          "internalType": "uint256",
          "name": "usdpAmount",
          "type": "uint256"
        }
      ],
      "name": "updateUsdpSupply",
      "outputs": [],
      "stateMutability": "nonpayable",
      "type": "function"
    },
    {
      "inputs": [
        {
          "internalType": "uint256",
          "name": "_value",
          "type": "uint256"
        },
        {
          "internalType": "address",
          "name": "_target",
          "type": "address"
        }
      ],
      "name": "updateXpPerSecond",
      "outputs": [],
      "stateMutability": "nonpayable",
      "type": "function"
    },
    {
      "inputs": [
        {
          "internalType": "address",
          "name": "_vault",
          "type": "address"
        },
        {
          "internalType": "address",
          "name": "_token",
          "type": "address"
        }
      ],
      "name": "vaultClearTokenConfig",
      "outputs": [],
      "stateMutability": "nonpayable",
      "type": "function"
    },
    {
      "inputs": [
        {
          "internalType": "address",
          "name": "_vault",
          "type": "address"
        },
        {
          "internalType": "address",
          "name": "_token",
          "type": "address"
        },
        {
          "internalType": "uint256",
          "name": "_tokenDecimals",
          "type": "uint256"
        },
        {
          "internalType": "uint256",
          "name": "_tokenWeight",
          "type": "uint256"
        },
        {
          "internalType": "uint256",
          "name": "_minProfitBps",
          "type": "uint256"
        },
        {
          "internalType": "uint256",
          "name": "_maxUsdpAmount",
          "type": "uint256"
        },
        {
          "internalType": "bool",
          "name": "_isStable",
          "type": "bool"
        },
        {
          "internalType": "bool",
          "name": "_isShortable",
          "type": "bool"
        }
      ],
      "name": "vaultSetTokenConfig",
      "outputs": [],
      "stateMutability": "nonpayable",
      "type": "function"
    },
    {
      "inputs": [
        {
          "internalType": "address",
          "name": "_vault",
          "type": "address"
        },
        {
          "internalType": "address",
          "name": "_token",
          "type": "address"
        },
        {
          "internalType": "address",
          "name": "_receiver",
          "type": "address"
        }
      ],
      "name": "withdrawFees",
      "outputs": [],
      "stateMutability": "nonpayable",
      "type": "function"
    },
    {
      "inputs": [
        {
          "internalType": "address",
          "name": "_target",
          "type": "address"
        },
        {
          "internalType": "address",
          "name": "_token",
          "type": "address"
        },
        {
          "internalType": "address",
          "name": "_receiver",
          "type": "address"
        },
        {
          "internalType": "uint256",
          "name": "_amount",
          "type": "uint256"
        }
      ],
      "name": "withdrawToken",
      "outputs": [],
      "stateMutability": "nonpayable",
      "type": "function"
    }
  ],
  "bytecode": {
    "object": "0x60806040523480156200001157600080fd5b506040516200508838038062005088833981016040819052620000349162000120565b620697808811156200008c5760405162461bcd60e51b815260206004820152601960248201527f54696d656c6f636b3a20696e76616c6964205f62756666657200000000000000604482015260640160405180910390fd5b600180546001600160a01b03199081166001600160a01b039b8c1617909155600098909855600280548916978a1697909717909655600380548816958916959095179094556004805487169388169390931790925560058054909516951694909417909255600692909255600755600855620001b7565b80516001600160a01b03811681146200011b57600080fd5b919050565b60008060008060008060008060006101208a8c0312156200014057600080fd5b6200014b8a62000103565b985060208a015197506200016260408b0162000103565b96506200017260608b0162000103565b95506200018260808b0162000103565b94506200019260a08b0162000103565b935060c08a0151925060e08a015191506101008a015190509295985092959850929598565b614ec180620001c76000396000f3fe608060405234801561001057600080fd5b50600436106104495760003560e01c806380894d6211610241578063d3c87bbb1161013b578063e3cbeb0f116100c3578063f58ed35111610087578063f58ed3511461098a578063f67f8e4f1461099d578063f816724c146109b0578063f851a440146109c3578063fab24621146109d657600080fd5b8063e3cbeb0f14610935578063e4652f4914610948578063e76ab00f1461095b578063e8ae22711461096e578063edaafe201461098157600080fd5b8063df3a66d91161010a578063df3a66d9146108c9578063e1f21c67146108dc578063e21b4591146108ef578063e30569e514610902578063e3b6cd071461092257600080fd5b8063d3c87bbb1461087d578063da76231614610890578063db1c8441146108a3578063dce6e18d146108b657600080fd5b8063a07b21ed116101c9578063bc8a8ab91161018d578063bc8a8ab91461081e578063c142940a14610831578063c7bb26a014610844578063cd2b123014610857578063d1b9e8531461086a57600080fd5b8063a07b21ed146107ca578063adc7ea37146107dd578063afd14deb146107f0578063b8361ebb146107f8578063bc476dfd1461080b57600080fd5b80638e34c98f116102105780638e34c98f1461077457806395082d251461078757806398c8a1001461079b578063996a7a1e146107ae578063996e2bc9146107c157600080fd5b806380894d621461073357806386803c72146107465780638a39735a146107595780638bf22c461461076157600080fd5b806346ea87af1161035257806361d07569116102da578063738649441161029e57806373864944146106df57806376e11286146106e7578063781cc3d3146106fa5780637b6f775a1461070d5780637ec7929b1461072057600080fd5b806361d07569146106795780636ba42aaa146106835780636d63c1d0146106a65780636e5227d4146106b9578063704b6c02146106cc57600080fd5b806350f7c2041161032157806350f7c2041461062457806351a6de0d1461062d578063558182941461064057806355ef1395146106535780635a3bb9891461066657600080fd5b806346ea87af146105c857806347de43e2146105eb5780634cd23f3b146105fe5780634f5f6b5e1461061157600080fd5b806321bd0592116103d5578063268959e5116103a4578063268959e5146105565780632a709b14146105695780632ba3725a14610594578063318bc689146105ac578063344085b3146105b557600080fd5b806321bd0592146104fb578063227f03eb1461050e57806323aaad121461052157806324ccbe301461054357600080fd5b80631154e8081161041c5780631154e8081461049c578063117cf204146104af578063185051c1146104c2578063204bbc54146104d557806321754d9e146104e857600080fd5b8063056097ac1461044e57806309cc9a08146104635780630e0dc426146104765780630e9587f314610489575b600080fd5b61046161045c36600461437c565b6109e9565b005b6104616104713660046143b5565b610abc565b6104616104843660046143f6565b610b77565b610461610497366004614458565b610f74565b6104616104aa3660046144b1565b611018565b6104616104bd3660046144f1565b6110e9565b6104616104d03660046144f1565b6111a7565b6104616104e336600461451f565b6111fc565b6104616104f6366004614556565b61128f565b6104616105093660046144f1565b611365565b61046161051c3660046145a7565b6113bd565b60095461052e9060ff1681565b60405190151581526020015b60405180910390f35b6104616105513660046144b1565b611515565b61046161056436600461437c565b6115ca565b60025461057c906001600160a01b031681565b6040516001600160a01b03909116815260200161053a565b61059e6207a12081565b60405190815260200161053a565b61059e60075481565b6104616105c33660046143b5565b611622565b61052e6105d63660046145e2565b600b6020526000908152604090205460ff1681565b6104616105f93660046144b1565b611986565b61046161060c366004614556565b6119de565b61046161061f366004614606565b611aa2565b61059e60065481565b61046161063b36600461437c565b611b2c565b61046161064e3660046145a7565b611bc3565b61046161066136600461437c565b611c5c565b60055461057c906001600160a01b031681565b61059e6206978081565b61052e6106913660046145e2565b600c6020526000908152604090205460ff1681565b6104616106b43660046145e2565b611d0c565b6104616106c736600461461f565b6120fe565b6104616106da3660046145e2565b6121dc565b610461612228565b6104616106f536600461437c565b612491565b610461610708366004614606565b612528565b61046161071b3660046146a7565b61255e565b61046161072e366004614606565b612607565b61046161074136600461437c565b6128d4565b6104616107543660046144f1565b612974565b61059e60c881565b61046161076f3660046146a7565b6129cc565b6104616107823660046146d3565b612a6e565b61059e6c0c9f2c9cd04674edea4000000081565b6104616107a93660046147cf565b612ac5565b6104616107bc36600461437c565b612bd4565b61059e60085481565b6104616107d836600461489b565b612c67565b6104616107eb366004614606565b612cf8565b610461612dd7565b6104616108063660046143b5565b612f0e565b61046161081936600461437c565b612fa3565b61046161082c3660046143b5565b612ffb565b61046161083f3660046143b5565b613071565b60035461057c906001600160a01b031681565b6104616108653660046144f1565b6130fd565b6104616108783660046144f1565b61316f565b61046161088b3660046145e2565b6131c4565b61046161089e3660046148c0565b6134aa565b6104616108b136600461490c565b6136a9565b6104616108c43660046143b5565b613791565b6104616108d73660046143b5565b613842565b6104616108ea3660046143b5565b61389a565b6104616108fd366004614991565b613976565b61059e610910366004614606565b600a6020526000908152604090205481565b610461610930366004614606565b6139c5565b61046161094336600461490c565b613a7b565b6104616109563660046143b5565b613b65565b60045461057c906001600160a01b031681565b61046161097c3660046149b3565b613c02565b61059e60005481565b61046161099836600461437c565b613d24565b6104616109ab36600461437c565b613dc4565b6104616109be36600461489b565b613e5b565b60015461057c906001600160a01b031681565b6104616109e436600461437c565b613ef1565b6001546001600160a01b03163314610a1c5760405162461bcd60e51b8152600401610a1390614a03565b60405180910390fd5b60008282604051602001610a31929190614a30565b604051602081830303815290604052805190602001209050610a5281613f91565b610a5b81614057565b6040516316114acd60e01b81526001600160a01b0384811660048301528316906316114acd906024015b600060405180830381600087803b158015610a9f57600080fd5b505af1158015610ab3573d6000803e3d6000fd5b50505050505050565b6001546001600160a01b03163314610ae65760405162461bcd60e51b8152600401610a1390614a03565b6000838383604051602001610afd93929190614a68565b604051602081830303815290604052805190602001209050610b1e81614102565b604080516001600160a01b03808716825285166020820152908101839052606081018290527f23d37bec99db82564427c9bbfe48ad7434bccf413a40fd357fb838c90a0d6828906080015b60405180910390a150505050565b6001546001600160a01b0316331480610b9f5750336000908152600b602052604090205460ff165b80610bb95750336000908152600c602052604090205460ff165b610bd55760405162461bcd60e51b8152600401610a1390614a03565b6101f4841115610c275760405162461bcd60e51b815260206004820152601f60248201527f54696d656c6f636b3a20696e76616c6964205f6d696e50726f666974427073006044820152606401610a13565b604051630daf9c2160e41b81526001600160a01b03878116600483015288919082169063daf9c21090602401602060405180830381865afa158015610c70573d6000803e3d6000fd5b505050506040513d601f19601f82011682018060405250810190610c949190614a9e565b610cec5760405162461bcd60e51b815260206004820152602360248201527f54696d656c6f636b3a20746f6b656e206e6f74207965742077686974656c69736044820152621d195960ea1b6064820152608401610a13565b6040516323b95ceb60e21b81526001600160a01b03888116600483015260009190831690638ee573ac90602401602060405180830381865afa158015610d36573d6000803e3d6000fd5b505050506040513d601f19601f82011682018060405250810190610d5a9190614abb565b6040516342b60b0360e01b81526001600160a01b038a811660048301529192506000918416906342b60b0390602401602060405180830381865afa158015610da6573d6000803e3d6000fd5b505050506040513d601f19601f82011682018060405250810190610dca9190614a9e565b60405163db3555fb60e01b81526001600160a01b038b8116600483015291925060009185169063db3555fb90602401602060405180830381865afa158015610e16573d6000803e3d6000fd5b505050506040513d601f19601f82011682018060405250810190610e3a9190614a9e565b604051633c5a6e3560e01b81529091506001600160a01b038c1690633c5a6e3590610e75908d9087908e908e908e908a908a90600401614ad4565b600060405180830381600087803b158015610e8f57600080fd5b505af1158015610ea3573d6000803e3d6000fd5b50506040516342c2fa6960e11b81526001600160a01b038e169250638585f4d29150610ed5908d908a90600401614b13565b600060405180830381600087803b158015610eef57600080fd5b505af1158015610f03573d6000803e3d6000fd5b5050604051631985aea560e21b81526001600160a01b038e169250636616ba949150610f35908d908990600401614b13565b600060405180830381600087803b158015610f4f57600080fd5b505af1158015610f63573d6000803e3d6000fd5b505050505050505050505050505050565b6001546001600160a01b03163314610f9e5760405162461bcd60e51b8152600401610a1390614a03565b604051631e4aaa4f60e31b81526001600160a01b038381166004830152828116602483015284169063f2555278906044016020604051808303816000875af1158015610fee573d6000803e3d6000fd5b505050506040513d601f19601f820116820180604052508101906110129190614abb565b50505050565b6001546001600160a01b031633146110425760405162461bcd60e51b8152600401610a1390614a03565b600083838360405160200161105993929190614b2c565b60405160208183030381529060405280519060200120905061107a81613f91565b61108381614057565b604051639cb7de4b60e01b81526001600160a01b03851690639cb7de4b906110b19086908690600401614b6d565b600060405180830381600087803b1580156110cb57600080fd5b505af11580156110df573d6000803e3d6000fd5b5050505050505050565b6001546001600160a01b03163314806111115750336000908152600b602052604090205460ff165b8061112b5750336000908152600c602052604090205460ff165b6111475760405162461bcd60e51b8152600401610a1390614a03565b604051631822af6f60e11b815281151560048201526001600160a01b038316906330455ede906024015b600060405180830381600087803b15801561118b57600080fd5b505af115801561119f573d6000803e3d6000fd5b505050505050565b6001546001600160a01b031633146111d15760405162461bcd60e51b8152600401610a1390614a03565b6001600160a01b03919091166000908152600b60205260409020805460ff1916911515919091179055565b6001546001600160a01b03163314806112245750336000908152600b602052604090205460ff165b8061123e5750336000908152600c602052604090205460ff165b61125a5760405162461bcd60e51b8152600401610a1390614a03565b604051630dfcfa2560e41b8152600481018390526001600160a01b03828116602483015284169063dfcfa25090604401610a85565b6001546001600160a01b031633146112b95760405162461bcd60e51b8152600401610a1390614a03565b6000848484846040516020016112d29493929190614b88565b6040516020818303038152906040528051906020012090506112f381613f91565b6112fc81614057565b6040516301e3366760e01b81526001600160a01b038616906301e336679061132c90879087908790600401614bd4565b600060405180830381600087803b15801561134657600080fd5b505af115801561135a573d6000803e3d6000fd5b505050505050505050565b6001546001600160a01b0316331461138f5760405162461bcd60e51b8152600401610a1390614a03565b60405163f07bbf7760e01b815281151560048201526001600160a01b0383169063f07bbf7790602401611171565b6001546001600160a01b03163314806113e55750336000908152600b602052604090205460ff165b806113ff5750336000908152600c602052604090205460ff165b61141b5760405162461bcd60e51b8152600401610a1390614a03565b60c882106114775760405162461bcd60e51b8152602060048201526024808201527f54696d656c6f636b3a20696e76616c6964205f66756e64696e6752617465466160448201526331ba37b960e11b6064820152608401610a13565b60c881106114da5760405162461bcd60e51b815260206004820152602a60248201527f54696d656c6f636b3a20696e76616c6964205f737461626c6546756e64696e676044820152692930ba32a330b1ba37b960b11b6064820152608401610a13565b604051631144fa8d60e31b81526004810184905260248101839052604481018290526001600160a01b03851690638a27d468906064016110b1565b6001546001600160a01b0316331461153f5760405162461bcd60e51b8152600401610a1390614a03565b600083838360405160200161155693929190614b2c565b60405160208183030381529060405280519060200120905061157781614102565b604080516001600160a01b0380871682528516602082015283151591810191909152606081018290527f1929c4e13b0dbbad7856b9ce1fc9dca98c7bf7cedd56e22c04dd60ad1d34fe4b90608001610b69565b6001546001600160a01b031633146115f45760405162461bcd60e51b8152600401610a1390614a03565b6040516305e17d4f60e21b81526001600160a01b038281166004830152831690631785f53c90602401611171565b6001546001600160a01b0316331461164c5760405162461bcd60e51b8152600401610a1390614a03565b600083838360405160200161166393929190614bf8565b60405160208183030381529060405280519060200120905061168481613f91565b61168d81614057565b6000846001600160a01b03166374e6076c6040518163ffffffff1660e01b8152600401602060405180830381865afa1580156116cd573d6000803e3d6000fd5b505050506040513d601f19601f820116820180604052508101906116f19190614c34565b6040516352f4877760e11b81529091506001600160a01b0386169063a5e90eee90611723903090600190600401614b6d565b600060405180830381600087803b15801561173d57600080fd5b505af1158015611751573d6000803e3d6000fd5b50506040516312b5ad0160e11b81523060048201526001600160a01b038416925063256b5a029150602401600060405180830381600087803b15801561179657600080fd5b505af11580156117aa573d6000803e3d6000fd5b50506040516340c10f1960e01b81526001600160a01b03841692506340c10f1991506117dc9030908790600401614b13565b600060405180830381600087803b1580156117f657600080fd5b505af115801561180a573d6000803e3d6000fd5b505060405163a9059cbb60e01b81526001600160a01b038416925063a9059cbb915061183c9088908790600401614b13565b6020604051808303816000875af115801561185b573d6000803e3d6000fd5b505050506040513d601f19601f8201168201806040525081019061187f9190614a9e565b50600354604051633b699bdd60e21b81526001600160a01b03868116600483015291821660248201529086169063eda66f74906044016020604051808303816000875af11580156118d4573d6000803e3d6000fd5b505050506040513d601f19601f820116820180604052508101906118f89190614abb565b506040516352f4877760e11b81526001600160a01b0386169063a5e90eee90611928903090600090600401614b6d565b600060405180830381600087803b15801561194257600080fd5b505af1158015611956573d6000803e3d6000fd5b505060405163ceb68c2360e01b81523060048201526001600160a01b038416925063ceb68c23915060240161132c565b6001546001600160a01b031633146119b05760405162461bcd60e51b8152600401610a1390614a03565b604051631114e8dd60e21b81526001600160a01b03841690634453a37490610a859085908590600401614b6d565b6001546001600160a01b03163314611a085760405162461bcd60e51b8152600401610a1390614a03565b600084848484604051602001611a219493929190614b88565b604051602081830303815290604052805190602001209050611a4281614102565b604080516001600160a01b0387811682528681166020830152851681830152606081018490526080810183905290517f9ed7b0f07a9eed51079fab67f6d0f141f167f5b17fdb5a23282280e15fcafed39181900360a00190a15050505050565b6001546001600160a01b03163314611acc5760405162461bcd60e51b8152600401610a1390614a03565b600480546040516327afb5af60e11b81529182018390526001600160a01b031690634f5f6b5e906024015b600060405180830381600087803b158015611b1157600080fd5b505af1158015611b25573d6000803e3d6000fd5b5050505050565b6001546001600160a01b03163314611b565760405162461bcd60e51b8152600401610a1390614a03565b60008282604051602001611b6b929190614c51565b604051602081830303815290604052805190602001209050611b8c81613f91565b611b9581614057565b6040516367d6abd160e11b81526001600160a01b03838116600483015284169063cfad57a290602401610a85565b6001546001600160a01b0316331480611beb5750336000908152600b602052604090205460ff165b80611c055750336000908152600c602052604090205460ff165b611c215760405162461bcd60e51b8152600401610a1390614a03565b60405163836a018760e01b81526004810184905260248101839052604481018290526001600160a01b0385169063836a0187906064016110b1565b6001546001600160a01b03163314611c865760405162461bcd60e51b8152600401610a1390614a03565b306001600160a01b03831603611cde5760405162461bcd60e51b815260206004820152601960248201527f54696d656c6f636b3a20696e76616c6964205f746172676574000000000000006044820152606401610a13565b604051633825b60160e11b81526001600160a01b03828116600483015283169063704b6c0290602401611171565b6001546001600160a01b0316331480611d345750336000908152600b602052604090205460ff165b611d505760405162461bcd60e51b8152600401610a1390614a03565b600954819060ff1615611db857604051637c2eb9f760e01b8152600160048201526001600160a01b03821690637c2eb9f790602401600060405180830381600087803b158015611d9f57600080fd5b505af1158015611db3573d6000803e3d6000fd5b505050505b806001600160a01b03166340eb3802826001600160a01b0316637a210a2b6040518163ffffffff1660e01b8152600401602060405180830381865afa158015611e05573d6000803e3d6000fd5b505050506040513d601f19601f82011682018060405250810190611e299190614abb565b836001600160a01b03166310eb56c26040518163ffffffff1660e01b8152600401602060405180830381865afa158015611e67573d6000803e3d6000fd5b505050506040513d601f19601f82011682018060405250810190611e8b9190614abb565b846001600160a01b0316634d47b3046040518163ffffffff1660e01b8152600401602060405180830381865afa158015611ec9573d6000803e3d6000fd5b505050506040513d601f19601f82011682018060405250810190611eed9190614abb565b856001600160a01b031663a22f23926040518163ffffffff1660e01b8152600401602060405180830381865afa158015611f2b573d6000803e3d6000fd5b505050506040513d601f19601f82011682018060405250810190611f4f9190614abb565b866001600160a01b031663df73a2676040518163ffffffff1660e01b8152600401602060405180830381865afa158015611f8d573d6000803e3d6000fd5b505050506040513d601f19601f82011682018060405250810190611fb19190614abb565b600754886001600160a01b031663174d26946040518163ffffffff1660e01b8152600401602060405180830381865afa158015611ff2573d6000803e3d6000fd5b505050506040513d601f19601f820116820180604052508101906120169190614abb565b896001600160a01b031663d9ac42256040518163ffffffff1660e01b8152600401602060405180830381865afa158015612054573d6000803e3d6000fd5b505050506040513d601f19601f820116820180604052508101906120789190614abb565b8a6001600160a01b0316639f392eb36040518163ffffffff1660e01b8152600401602060405180830381865afa1580156120b6573d6000803e3d6000fd5b505050506040513d601f19601f820116820180604052508101906120da9190614a9e565b6040518a63ffffffff1660e01b815260040161117199989796959493929190614c82565b6001546001600160a01b03163314806121265750336000908152600b602052604090205460ff165b806121405750336000908152600c602052604090205460ff165b61215c5760405162461bcd60e51b8152600401610a1390614a03565b60078490556008546040516320759c0160e11b81526001600160a01b038c16916340eb38029161219e918d918d918d918d918d918c908c908c90600401614c82565b600060405180830381600087803b1580156121b857600080fd5b505af11580156121cc573d6000803e3d6000fd5b5050505050505050505050505050565b6002546001600160a01b031633146122065760405162461bcd60e51b8152600401610a1390614a03565b600180546001600160a01b0319166001600160a01b0392909216919091179055565b6001546001600160a01b031633146122525760405162461bcd60e51b8152600401610a1390614a03565b60048054604080516396a67d2560e01b815290516001600160a01b039092169260009284926396a67d2592818101926020929091908290030181865afa1580156122a0573d6000803e3d6000fd5b505050506040513d601f19601f820116820180604052508101906122c49190614c34565b6004805460405163cf456ae760e01b81529293506001600160a01b038085169363cf456ae7936122fb939092169160019101614b6d565b600060405180830381600087803b15801561231557600080fd5b505af1158015612329573d6000803e3d6000fd5b505050506000826001600160a01b03166374e6076c6040518163ffffffff1660e01b8152600401602060405180830381865afa15801561236d573d6000803e3d6000fd5b505050506040513d601f19601f820116820180604052508101906123919190614c34565b600480546040516312b5ad0160e11b81526001600160a01b03918216928101929092529192509082169063256b5a0290602401600060405180830381600087803b1580156123de57600080fd5b505af11580156123f2573d6000803e3d6000fd5b505050506000836001600160a01b031663fbfa77cf6040518163ffffffff1660e01b8152600401602060405180830381865afa158015612436573d6000803e3d6000fd5b505050506040513d601f19601f8201168201806040525081019061245a9190614c34565b600480546040516352f4877760e11b81529293506001600160a01b038085169363a5e90eee936110b1939092169160019101614b6d565b6001546001600160a01b031633146124bb5760405162461bcd60e51b8152600401610a1390614a03565b600082826040516020016124d0929190614cc3565b6040516020818303038152906040528051906020012090506124f181613f91565b6124fa81614057565b6040516339273c6d60e11b81526001600160a01b03838116600483015284169063724e78da90602401610a85565b6001546001600160a01b031633146125525760405162461bcd60e51b8152600401610a1390614a03565b61255b81614057565b50565b6001546001600160a01b031633146125885760405162461bcd60e51b8152600401610a1390614a03565b6207a12081116125da5760405162461bcd60e51b815260206004820152601e60248201527f54696d656c6f636b3a20696e76616c6964205f6d61784c6576657261676500006044820152606401610a13565b60405163d3127e6360e01b8152600481018290526001600160a01b0383169063d3127e6390602401611171565b6001546001600160a01b031633148061262f5750336000908152600b602052604090205460ff165b806126495750336000908152600c602052604090205460ff165b6126655760405162461bcd60e51b8152600401610a1390614a03565b6000600460009054906101000a90046001600160a01b03166001600160a01b03166374e6076c6040518163ffffffff1660e01b8152600401602060405180830381865afa1580156126ba573d6000803e3d6000fd5b505050506040513d601f19601f820116820180604052508101906126de9190614c34565b600480546040516370a0823160e01b81526001600160a01b03918216928101929092529192506000918316906370a0823190602401602060405180830381865afa158015612730573d6000803e3d6000fd5b505050506040513d601f19601f820116820180604052508101906127549190614abb565b6040516312b5ad0160e11b81523060048201529091506001600160a01b0383169063256b5a0290602401600060405180830381600087803b15801561279857600080fd5b505af11580156127ac573d6000803e3d6000fd5b50505050808311156128325760006127c48285614d10565b600480546040516340c10f1960e01b81529293506001600160a01b03808716936340c10f19936127fa9390921691869101614b13565b600060405180830381600087803b15801561281457600080fd5b505af1158015612828573d6000803e3d6000fd5b50505050506128a8565b600061283e8483614d10565b60048054604051632770a7eb60e21b81529293506001600160a01b0380871693639dc29fac936128749390921691869101614b13565b600060405180830381600087803b15801561288e57600080fd5b505af11580156128a2573d6000803e3d6000fd5b50505050505b60405163ceb68c2360e01b81523060048201526001600160a01b0383169063ceb68c2390602401610a85565b6001546001600160a01b031633146128fe5760405162461bcd60e51b8152600401610a1390614a03565b60008282604051602001612913929190614cc3565b60405160208183030381529060405280519060200120905061293481614102565b7fb878dd4b5762f4118ad54995be907dd2bcd915d942e4ac75580fba9b4ee4727f83838360405161296793929190614bd4565b60405180910390a1505050565b6001546001600160a01b0316331461299e5760405162461bcd60e51b8152600401610a1390614a03565b604051635a47a1a760e01b815281151560048201526001600160a01b03831690635a47a1a790602401611171565b6001546001600160a01b031633146129f65760405162461bcd60e51b8152600401610a1390614a03565b64012a05f2008111612a415760405162461bcd60e51b8152602060048201526014602482015273496e76616c6964205f6d6178476173507269636560601b6044820152606401610a13565b60405163697d31af60e11b8152600481018290526001600160a01b0383169063d2fa635e90602401611171565b6001546001600160a01b0316331480612a965750336000908152600b602052604090205460ff165b612ab25760405162461bcd60e51b8152600401610a1390614a03565b6009805460ff1916911515919091179055565b6001546001600160a01b0316331480612aed5750336000908152600b602052604090205460ff165b80612b075750336000908152600c602052604090205460ff165b612b235760405162461bcd60e51b8152600401610a1390614a03565b60005b825181101561101257836001600160a01b0316636616ba94848381518110612b5057612b50614d29565b6020026020010151848481518110612b6a57612b6a614d29565b60200260200101516040518363ffffffff1660e01b8152600401612b8f929190614b13565b600060405180830381600087803b158015612ba957600080fd5b505af1158015612bbd573d6000803e3d6000fd5b505050508080612bcc90614d3f565b915050612b26565b6001546001600160a01b03163314612bfe5760405162461bcd60e51b8152600401610a1390614a03565b60008282604051602001612c13929190614c51565b604051602081830303815290604052805190602001209050612c3481614102565b7f2701a94fd55a560e291f3c54d36580040670d6fde558a77a75d619e38139f71383838360405161296793929190614bd4565b6001546001600160a01b03163314612c915760405162461bcd60e51b8152600401610a1390614a03565b60008282604051602001612ca6929190614d58565b604051602081830303815290604052805190602001209050612cc781614102565b7fc7269e1c1619deb77547203c81188ce08f4edc20f54943a147c8a3a8d617d5508284604051612967929190614b13565b6001546001600160a01b03163314612d225760405162461bcd60e51b8152600401610a1390614a03565b62069780811115612d755760405162461bcd60e51b815260206004820152601960248201527f54696d656c6f636b3a20696e76616c6964205f627566666572000000000000006044820152606401610a13565b6000548111612dd25760405162461bcd60e51b8152602060048201526024808201527f54696d656c6f636b3a206275666665722063616e6e6f74206265206465637265604482015263185cd95960e21b6064820152608401610a13565b600055565b6001546001600160a01b03163314612e015760405162461bcd60e51b8152600401610a1390614a03565b600554604080516375d838df60e11b815290516001600160a01b0390921691829163ebb071be9160048083019260209291908290030181865afa158015612e4c573d6000803e3d6000fd5b505050506040513d601f19601f82011682018060405250810190612e709190614c34565b600554604051639cb7de4b60e01b81526001600160a01b0392831692639cb7de4b92612ea492911690600190600401614b6d565b600060405180830381600087803b158015612ebe57600080fd5b505af1158015612ed2573d6000803e3d6000fd5b505060048054600554604051639cb7de4b60e01b81526001600160a01b039283169550639cb7de4b9450611af793919092169160019101614b6d565b6001546001600160a01b03163314612f385760405162461bcd60e51b8152600401610a1390614a03565b6000838383604051602001612f4f93929190614bf8565b604051602081830303815290604052805190602001209050612f7081614102565b7ff7939bc8b606638d899ab039a0a8cedf853cfea7e9797919f4765e6c7433d491848484604051610b6993929190614bd4565b6001546001600160a01b03163314612fcd5760405162461bcd60e51b8152600401610a1390614a03565b6040516371089f4d60e01b81526001600160a01b0382811660048301528316906371089f4d90602401611171565b6001546001600160a01b031633146130255760405162461bcd60e51b8152600401610a1390614a03565b600083838360405160200161303c93929190614a68565b60405160208183030381529060405280519060200120905061305d81613f91565b61306681614057565b6110128484846141b8565b6001546001600160a01b03163314806130995750336000908152600b602052604090205460ff165b806130b35750336000908152600c602052604090205460ff165b6130cf5760405162461bcd60e51b8152600401610a1390614a03565b604051633fb8b32360e01b81526001600160a01b03841690633fb8b32390610a859085908590600401614b13565b6001546001600160a01b03163314806131255750336000908152600b602052604090205460ff165b6131415760405162461bcd60e51b8152600401610a1390614a03565b604051637c2eb9f760e01b815281151560048201526001600160a01b03831690637c2eb9f790602401611171565b6001546001600160a01b031633146131995760405162461bcd60e51b8152600401610a1390614a03565b6001600160a01b03919091166000908152600c60205260409020805460ff1916911515919091179055565b6001546001600160a01b03163314806131ec5750336000908152600b602052604090205460ff165b6132085760405162461bcd60e51b8152600401610a1390614a03565b600954819060ff161561327057604051637c2eb9f760e01b8152600060048201526001600160a01b03821690637c2eb9f790602401600060405180830381600087803b15801561325757600080fd5b505af115801561326b573d6000803e3d6000fd5b505050505b806001600160a01b03166340eb3802826001600160a01b0316637a210a2b6040518163ffffffff1660e01b8152600401602060405180830381865afa1580156132bd573d6000803e3d6000fd5b505050506040513d601f19601f820116820180604052508101906132e19190614abb565b836001600160a01b03166310eb56c26040518163ffffffff1660e01b8152600401602060405180830381865afa15801561331f573d6000803e3d6000fd5b505050506040513d601f19601f820116820180604052508101906133439190614abb565b846001600160a01b0316634d47b3046040518163ffffffff1660e01b8152600401602060405180830381865afa158015613381573d6000803e3d6000fd5b505050506040513d601f19601f820116820180604052508101906133a59190614abb565b856001600160a01b031663a22f23926040518163ffffffff1660e01b8152600401602060405180830381865afa1580156133e3573d6000803e3d6000fd5b505050506040513d601f19601f820116820180604052508101906134079190614abb565b866001600160a01b031663df73a2676040518163ffffffff1660e01b8152600401602060405180830381865afa158015613445573d6000803e3d6000fd5b505050506040513d601f19601f820116820180604052508101906134699190614abb565b600854886001600160a01b031663174d26946040518163ffffffff1660e01b8152600401602060405180830381865afa158015611ff2573d6000803e3d6000fd5b6001546001600160a01b03163314806134d25750336000908152600b602052604090205460ff165b806134ec5750336000908152600c602052604090205460ff165b6135085760405162461bcd60e51b8152600401610a1390614a03565b6000869050806001600160a01b03166340eb38028787878787600854886001600160a01b031663174d26946040518163ffffffff1660e01b8152600401602060405180830381865afa158015613562573d6000803e3d6000fd5b505050506040513d601f19601f820116820180604052508101906135869190614abb565b896001600160a01b031663d9ac42256040518163ffffffff1660e01b8152600401602060405180830381865afa1580156135c4573d6000803e3d6000fd5b505050506040513d601f19601f820116820180604052508101906135e89190614abb565b8a6001600160a01b0316639f392eb36040518163ffffffff1660e01b8152600401602060405180830381865afa158015613626573d6000803e3d6000fd5b505050506040513d601f19601f8201168201806040525081019061364a9190614a9e565b6040518a63ffffffff1660e01b815260040161366e99989796959493929190614c82565b600060405180830381600087803b15801561368857600080fd5b505af115801561369c573d6000803e3d6000fd5b5050505050505050505050565b6001546001600160a01b031633146136d35760405162461bcd60e51b8152600401610a1390614a03565b600088888888888888886040516020016136f4989796959493929190614d8f565b60405160208183030381529060405280519060200120905061371581614102565b604080516001600160a01b03808c1682528a166020820152908101889052606081018790526080810186905260a0810185905283151560c082015282151560e08201527f3510e9d8245371c6c1061c33781ce16bd0eafa03cd3d0781865036520af4c743906101000160405180910390a1505050505050505050565b6001546001600160a01b031633146137bb5760405162461bcd60e51b8152600401610a1390614a03565b60008383836040516020016137d293929190614dff565b6040516020818303038152906040528051906020012090506137f381614102565b604080516001600160a01b03808716825285166020820152908101839052606081018290527f6af9d86ba7407a934e941ed8ae5f779369a88fe8ba2cd1c204185d6f8a8287fd90608001610b69565b6001546001600160a01b0316331461386c5760405162461bcd60e51b8152600401610a1390614a03565b6040516377d0853760e11b81526001600160a01b0384169063efa10a6e90610a859085908590600401614b13565b6001546001600160a01b031633146138c45760405162461bcd60e51b8152600401610a1390614a03565b60008383836040516020016138db93929190614dff565b6040516020818303038152906040528051906020012090506138fc81613f91565b61390581614057565b60405163095ea7b360e01b81526001600160a01b0385169063095ea7b3906139339086908690600401614b13565b6020604051808303816000875af1158015613952573d6000803e3d6000fd5b505050506040513d601f19601f82011682018060405250810190611b259190614a9e565b6001546001600160a01b031633148061399e5750336000908152600b602052604090205460ff165b6139ba5760405162461bcd60e51b8152600401610a1390614a03565b600791909155600855565b6001546001600160a01b031633146139ef5760405162461bcd60e51b8152600401610a1390614a03565b611c208110613a4c5760405162461bcd60e51b815260206004820152602360248201527f54696d656c6f636b3a20696e76616c6964205f636f6f6c646f776e447572617460448201526234b7b760e91b6064820152608401610a13565b6004805460405163966be07560e01b81529182018390526001600160a01b03169063966be07590602401611af7565b6001546001600160a01b03163314613aa55760405162461bcd60e51b8152600401610a1390614a03565b60008888888888888888604051602001613ac6989796959493929190614d8f565b604051602081830303815290604052805190602001209050613ae781613f91565b613af081614057565b604051633c5a6e3560e01b81526001600160a01b038a1690633c5a6e3590613b28908b908b908b908b908b908b908b90600401614ad4565b600060405180830381600087803b158015613b4257600080fd5b505af1158015613b56573d6000803e3d6000fd5b50505050505050505050505050565b6001546001600160a01b03163314613b8f5760405162461bcd60e51b8152600401610a1390614a03565b6040516323b872dd60e01b81526001600160a01b038316906323b872dd90613bbf90869030908690600401614bd4565b6020604051808303816000875af1158015613bde573d6000803e3d6000fd5b505050506040513d601f19601f820116820180604052508101906110129190614a9e565b6001546001600160a01b0316331480613c2a5750336000908152600b602052604090205460ff165b80613c445750336000908152600c602052604090205460ff165b613c605760405162461bcd60e51b8152600401610a1390614a03565b60005b8151811015613d1f57826001600160a01b031663f2555278838381518110613c8d57613c8d614d29565b602090810291909101015160015460405160e084901b6001600160e01b03191681526001600160a01b039283166004820152911660248201526044016020604051808303816000875af1158015613ce8573d6000803e3d6000fd5b505050506040513d601f19601f82011682018060405250810190613d0c9190614abb565b5080613d1781614d3f565b915050613c63565b505050565b6001546001600160a01b03163314613d4e5760405162461bcd60e51b8152600401610a1390614a03565b60008282604051602001613d63929190614e38565b604051602081830303815290604052805190602001209050613d8481614102565b604080516001600160a01b038086168252841660208201527f92aa148b67771581bf3d7ad5ca4472bb7dea42c9b53ae3d5ea11fc64f58720aa9101612967565b6001546001600160a01b03163314613dee5760405162461bcd60e51b8152600401610a1390614a03565b60008282604051602001613e03929190614e38565b604051602081830303815290604052805190602001209050613e2481613f91565b613e2d81614057565b60405163e67f59a760e01b81526001600160a01b03838116600483015284169063e67f59a790602401610a85565b6001546001600160a01b03163314613e855760405162461bcd60e51b8152600401610a1390614a03565b60008282604051602001613e9a929190614d58565b604051602081830303815290604052805190602001209050613ebb81613f91565b613ec481614057565b60405163242c581b60e01b8152600481018490526001600160a01b0383169063242c581b90602401610a85565b6001546001600160a01b03163314613f1b5760405162461bcd60e51b8152600401610a1390614a03565b60008282604051602001613f30929190614a30565b604051602081830303815290604052805190602001209050613f5181614102565b604080516001600160a01b038086168252841660208201527f7aba17ac07b1ae1f94d7d910ab20e8c9081a2104d3618087be83abe69016451a9101612967565b6000818152600a60205260408120549003613fee5760405162461bcd60e51b815260206004820152601e60248201527f54696d656c6f636b3a20616374696f6e206e6f74207369676e616c6c656400006044820152606401610a13565b6000818152600a6020526040902054421161255b5760405162461bcd60e51b8152602060048201526024808201527f54696d656c6f636b3a20616374696f6e2074696d65206e6f74207965742070616044820152631cdcd95960e21b6064820152608401610a13565b6000818152600a602052604081205490036140b45760405162461bcd60e51b815260206004820152601960248201527f54696d656c6f636b3a20696e76616c6964205f616374696f6e000000000000006044820152606401610a13565b6000818152600a602052604080822091909155517f194ed6dd5e37e2acc44a19455c3f208c4831ee695fe362d9c4ef2d316bc53aec906140f79083815260200190565b60405180910390a150565b6000818152600a6020526040902054156141695760405162461bcd60e51b815260206004820152602260248201527f54696d656c6f636b3a20616374696f6e20616c7265616479207369676e616c6c604482015261195960f21b6064820152608401610a13565b6000546141769042614e78565b6000828152600a602090815260409182902092909255518281527f5fb9c0ecf7b4a28c4c480212e868f9da7f373a2ed4d23498b0be6aadf35242fb91016140f7565b60405163cf456ae760e01b815283906001600160a01b0382169063cf456ae7906141e9903090600190600401614b6d565b600060405180830381600087803b15801561420357600080fd5b505af1158015614217573d6000803e3d6000fd5b50506040516340c10f1960e01b81526001600160a01b03841692506340c10f1991506142499086908690600401614b13565b600060405180830381600087803b15801561426357600080fd5b505af1158015614277573d6000803e3d6000fd5b50505050600654846001600160a01b03166318160ddd6040518163ffffffff1660e01b8152600401602060405180830381865afa1580156142bc573d6000803e3d6000fd5b505050506040513d601f19601f820116820180604052508101906142e09190614abb565b11156143385760405162461bcd60e51b815260206004820152602160248201527f54696d656c6f636b3a206d6178546f6b656e537570706c7920657863656564656044820152601960fa1b6064820152608401610a13565b60405163cf456ae760e01b81526001600160a01b0382169063cf456ae7906110b1903090600090600401614b6d565b6001600160a01b038116811461255b57600080fd5b6000806040838503121561438f57600080fd5b823561439a81614367565b915060208301356143aa81614367565b809150509250929050565b6000806000606084860312156143ca57600080fd5b83356143d581614367565b925060208401356143e581614367565b929592945050506040919091013590565b600080600080600080600060e0888a03121561441157600080fd5b873561441c81614367565b9650602088013561442c81614367565b96999698505050506040850135946060810135946080820135945060a0820135935060c0909101359150565b60008060006060848603121561446d57600080fd5b833561447881614367565b9250602084013561448881614367565b9150604084013561449881614367565b809150509250925092565b801515811461255b57600080fd5b6000806000606084860312156144c657600080fd5b83356144d181614367565b925060208401356144e181614367565b91506040840135614498816144a3565b6000806040838503121561450457600080fd5b823561450f81614367565b915060208301356143aa816144a3565b60008060006060848603121561453457600080fd5b833561453f81614367565b925060208401359150604084013561449881614367565b6000806000806080858703121561456c57600080fd5b843561457781614367565b9350602085013561458781614367565b9250604085013561459781614367565b9396929550929360600135925050565b600080600080608085870312156145bd57600080fd5b84356145c881614367565b966020860135965060408601359560600135945092505050565b6000602082840312156145f457600080fd5b81356145ff81614367565b9392505050565b60006020828403121561461857600080fd5b5035919050565b6000806000806000806000806000806101408b8d03121561463f57600080fd5b8a3561464a81614367565b995060208b0135985060408b0135975060608b0135965060808b0135955060a08b0135945060c08b0135935060e08b013592506101008b013591506101208b0135614694816144a3565b809150509295989b9194979a5092959850565b600080604083850312156146ba57600080fd5b82356146c581614367565b946020939093013593505050565b6000602082840312156146e557600080fd5b81356145ff816144a3565b634e487b7160e01b600052604160045260246000fd5b604051601f8201601f1916810167ffffffffffffffff8111828210171561472f5761472f6146f0565b604052919050565b600067ffffffffffffffff821115614751576147516146f0565b5060051b60200190565b600082601f83011261476c57600080fd5b8135602061478161477c83614737565b614706565b82815260059290921b840181019181810190868411156147a057600080fd5b8286015b848110156147c45780356147b781614367565b83529183019183016147a4565b509695505050505050565b6000806000606084860312156147e457600080fd5b83356147ef81614367565b925060208481013567ffffffffffffffff8082111561480d57600080fd5b6148198883890161475b565b9450604087013591508082111561482f57600080fd5b508501601f8101871361484157600080fd5b803561484f61477c82614737565b81815260059190911b8201830190838101908983111561486e57600080fd5b928401925b8284101561488c57833582529284019290840190614873565b80955050505050509250925092565b600080604083850312156148ae57600080fd5b8235915060208301356143aa81614367565b60008060008060008060c087890312156148d957600080fd5b86356148e481614367565b9860208801359850604088013597606081013597506080810135965060a00135945092505050565b600080600080600080600080610100898b03121561492957600080fd5b883561493481614367565b9750602089013561494481614367565b965060408901359550606089013594506080890135935060a0890135925060c0890135614970816144a3565b915060e0890135614980816144a3565b809150509295985092959890939650565b600080604083850312156149a457600080fd5b50508035926020909101359150565b600080604083850312156149c657600080fd5b82356149d181614367565b9150602083013567ffffffffffffffff8111156149ed57600080fd5b6149f98582860161475b565b9150509250929050565b6020808252601390820152722a34b6b2b637b1b59d103337b93134b23232b760691b604082015260600190565b6c7265636f766572546f6b656e7360981b81526001600160601b0319606093841b8116600d8301529190921b16602182015260350190565b631b5a5b9d60e21b81526001600160601b0319606094851b811660048301529290931b9091166018830152602c820152604c0190565b600060208284031215614ab057600080fd5b81516145ff816144a3565b600060208284031215614acd57600080fd5b5051919050565b6001600160a01b039790971687526020870195909552604086019390935260608501919091526080840152151560a0830152151560c082015260e00190565b6001600160a01b03929092168252602082015260400190565b6939b2ba2430b7323632b960b11b81526001600160601b0319606094851b8116600a8301529290931b909116601e830152151560f81b603282015260330190565b6001600160a01b039290921682521515602082015260400190565b6c3bb4ba34323930bbaa37b5b2b760991b81526001600160601b0319606095861b8116600d83015293851b841660218201529190931b9091166035820152604981019190915260690190565b6001600160a01b039384168152919092166020820152604081019190915260600190565b69072656465656d557364760b41b81526001600160601b0319606094851b8116600a8301529290931b909116601e830152603282015260520190565b600060208284031215614c4657600080fd5b81516145ff81614367565b6539b2ba23b7bb60d11b81526001600160601b0319606093841b811660068301529190921b16601a820152602e0190565b988952602089019790975260408801959095526060870193909352608086019190915260a085015260c084015260e083015215156101008201526101200190565b6b1cd95d141c9a58d95199595960a21b81526001600160601b0319606093841b8116600c8301529190921b16602082015260340190565b634e487b7160e01b600052601160045260246000fd5b81810381811115614d2357614d23614cfa565b92915050565b634e487b7160e01b600052603260045260246000fd5b600060018201614d5157614d51614cfa565b5060010190565b701d5c19185d19561c14195c94d958dbdb99607a1b8152601181019290925260601b6001600160601b031916603182015260450190565b727661756c74536574546f6b656e436f6e66696760681b81526001600160601b03196060998a1b811660138301529790981b9096166027880152603b870194909452605b860192909252607b850152609b840152151560f890811b60bb840152901515901b60bc82015260bd0190565b66617070726f766560c81b81526001600160601b0319606094851b811660078301529290931b909116601b830152602f820152604f0190565b747661756c74436c656172546f6b656e436f6e66696760581b81526001600160601b0319606093841b811660158301529190921b166029820152603d0190565b80820180821115614d2357614d23614cfa56fea2646970667358221220388dc8b27bf03ab82f078c65433464bbaf1423c0c32313bdf070111a3f8f494164736f6c63430008120033",
    "linkReferences": {}
  },
  "methodIdentifiers": {
    "MAX_BUFFER()": "61d07569",
    "MAX_FUNDING_RATE_FACTOR()": "8a39735a",
    "MAX_LEVERAGE_VALIDATION()": "2ba3725a",
    "PRICE_PRECISION()": "95082d25",
    "admin()": "f851a440",
    "approve(address,address,uint256)": "e1f21c67",
    "batchWithdrawFees(address,address[])": "e8ae2271",
    "brrrManager()": "e76ab00f",
    "buffer()": "edaafe20",
    "cancelAction(bytes32)": "781cc3d3",
    "disableLeverage(address)": "d3c87bbb",
    "enableLeverage(address)": "6d63c1d0",
    "govSetCodeOwner(address,bytes32,address)": "204bbc54",
    "initBrrrManager()": "73864944",
    "initRewardRouter()": "afd14deb",
    "isHandler(address)": "46ea87af",
    "isKeeper(address)": "6ba42aaa",
    "marginFeeBasisPoints()": "318bc689",
    "maxMarginFeeBasisPoints()": "996e2bc9",
    "maxTokenSupply()": "50f7c204",
    "mintReceiver()": "c7bb26a0",
    "pendingActions(bytes32)": "e30569e5",
    "processMint(address,address,uint256)": "bc8a8ab9",
    "recoverTokens(address,address)": "056097ac",
    "redeemUsdp(address,address,uint256)": "344085b3",
    "removeAdmin(address,address)": "268959e5",
    "rewardRouter()": "5a3bb989",
    "setAdmin(address)": "704b6c02",
    "setBrrrCooldownDuration(uint256)": "e3b6cd07",
    "setBuffer(uint256)": "adc7ea37",
    "setContractHandler(address,bool)": "185051c1",
    "setExternalAdmin(address,address)": "55ef1395",
    "setFees(address,uint256,uint256,uint256,uint256,uint256,uint256,uint256,uint256,bool)": "6e5227d4",
    "setFundingRate(address,uint256,uint256,uint256)": "227f03eb",
    "setGov(address,address)": "51a6de0d",
    "setHandler(address,address,bool)": "1154e808",
    "setInPrivateLiquidationMode(address,bool)": "21bd0592",
    "setInPrivateTransferMode(address,bool)": "86803c72",
    "setIsLeverageEnabled(address,bool)": "cd2b1230",
    "setIsSwapEnabled(address,bool)": "117cf204",
    "setKeeper(address,bool)": "d1b9e853",
    "setLiquidator(address,address,bool)": "47de43e2",
    "setMarginFeeBasisPoints(uint256,uint256)": "e21b4591",
    "setMaxGasPrice(address,uint256)": "8bf22c46",
    "setMaxGlobalShortSize(address,address,uint256)": "df3a66d9",
    "setMaxLeverage(address,uint256)": "7b6f775a",
    "setPriceFeed(address,address)": "76e11286",
    "setReferrerTier(address,address,uint256)": "c142940a",
    "setShortsTrackerAveragePriceWeight(uint256)": "4f5f6b5e",
    "setShouldToggleIsLeverageEnabled(bool)": "8e34c98f",
    "setSwapFees(address,uint256,uint256,uint256,uint256,uint256)": "da762316",
    "setTier(address,uint256,uint256,uint256)": "55818294",
    "setTokenConfig(address,address,uint256,uint256,uint256,uint256,uint256)": "0e0dc426",
    "setUsdpAmounts(address,address[],uint256[])": "98c8a100",
    "setVaultUtils(address,address)": "bc476dfd",
    "shouldToggleIsLeverageEnabled()": "23aaad12",
    "signalApprove(address,address,uint256)": "dce6e18d",
    "signalMint(address,address,uint256)": "09cc9a08",
    "signalRecoverTokens(address,address)": "fab24621",
    "signalRedeemUsdp(address,address,uint256)": "b8361ebb",
    "signalSetGov(address,address)": "996a7a1e",
    "signalSetHandler(address,address,bool)": "24ccbe30",
    "signalSetPriceFeed(address,address)": "80894d62",
    "signalUpdateXpPerSecond(uint256,address)": "a07b21ed",
    "signalVaultClearTokenConfig(address,address)": "f58ed351",
    "signalVaultSetTokenConfig(address,address,uint256,uint256,uint256,uint256,bool,bool)": "db1c8441",
    "signalWithdrawToken(address,address,address,uint256)": "4cd23f3b",
    "tokenManager()": "2a709b14",
    "transferIn(address,address,uint256)": "e4652f49",
    "updateUsdpSupply(uint256)": "7ec7929b",
    "updateXpPerSecond(uint256,address)": "f816724c",
    "vaultClearTokenConfig(address,address)": "f67f8e4f",
    "vaultSetTokenConfig(address,address,uint256,uint256,uint256,uint256,bool,bool)": "e3cbeb0f",
    "withdrawFees(address,address,address)": "0e9587f3",
    "withdrawToken(address,address,address,uint256)": "21754d9e"
  },
  "id": 71
}