{
  "abi": [
    {
      "inputs": [
        {
          "internalType": "address",
          "name": "_admin",
          "type": "address"
        },
        {
          "internalType": "uint256",
          "name": "_buffer",
          "type": "uint256"
        },
        {
          "internalType": "address",
          "name": "_tokenManager",
          "type": "address"
        },
        {
          "internalType": "address",
          "name": "_mintReceiver",
          "type": "address"
        },
        {
          "internalType": "address",
          "name": "_brrrManager",
          "type": "address"
        },
        {
          "internalType": "address",
          "name": "_rewardRouter",
          "type": "address"
        },
        {
          "internalType": "uint256",
          "name": "_maxTokenSupply",
          "type": "uint256"
        },
        {
          "internalType": "uint256",
          "name": "_marginFeeBasisPoints",
          "type": "uint256"
        },
        {
          "internalType": "uint256",
          "name": "_maxMarginFeeBasisPoints",
          "type": "uint256"
        }
      ],
      "stateMutability": "nonpayable",
      "type": "constructor"
    },
    {
      "anonymous": false,
      "inputs": [
        {
          "indexed": false,
          "internalType": "bytes32",
          "name": "action",
          "type": "bytes32"
        }
      ],
      "name": "ClearAction",
      "type": "event"
    },
    {
      "anonymous": false,
      "inputs": [
        {
          "indexed": false,
          "internalType": "address",
          "name": "token",
          "type": "address"
        },
        {
          "indexed": false,
          "internalType": "address",
          "name": "spender",
          "type": "address"
        },
        {
          "indexed": false,
          "internalType": "uint256",
          "name": "amount",
          "type": "uint256"
        },
        {
          "indexed": false,
          "internalType": "bytes32",
          "name": "action",
          "type": "bytes32"
        }
      ],
      "name": "SignalApprove",
      "type": "event"
    },
    {
      "anonymous": false,
      "inputs": [
        {
          "indexed": false,
          "internalType": "address",
          "name": "vault",
          "type": "address"
        },
        {
          "indexed": false,
          "internalType": "address",
          "name": "token",
          "type": "address"
        }
      ],
      "name": "SignalClearSetTokenConfig",
      "type": "event"
    },
    {
      "anonymous": false,
      "inputs": [
        {
          "indexed": false,
          "internalType": "address",
          "name": "token",
          "type": "address"
        },
        {
          "indexed": false,
          "internalType": "address",
          "name": "receiver",
          "type": "address"
        },
        {
          "indexed": false,
          "internalType": "uint256",
          "name": "amount",
          "type": "uint256"
        },
        {
          "indexed": false,
          "internalType": "bytes32",
          "name": "action",
          "type": "bytes32"
        }
      ],
      "name": "SignalMint",
      "type": "event"
    },
    {
      "anonymous": false,
      "inputs": [
        {
          "indexed": false,
          "internalType": "bytes32",
          "name": "action",
          "type": "bytes32"
        }
      ],
      "name": "SignalPendingAction",
      "type": "event"
    },
    {
      "anonymous": false,
      "inputs": [
        {
          "indexed": false,
          "internalType": "address",
          "name": "vault",
          "type": "address"
        },
        {
          "indexed": false,
          "internalType": "address",
          "name": "token",
          "type": "address"
        },
        {
          "indexed": false,
          "internalType": "uint256",
          "name": "amount",
          "type": "uint256"
        }
      ],
      "name": "SignalRedeemUsdp",
      "type": "event"
    },
    {
      "anonymous": false,
      "inputs": [
        {
          "indexed": false,
          "internalType": "address",
          "name": "target",
          "type": "address"
        },
        {
          "indexed": false,
          "internalType": "address",
          "name": "gov",
          "type": "address"
        },
        {
          "indexed": false,
          "internalType": "bytes32",
          "name": "action",
          "type": "bytes32"
        }
      ],
      "name": "SignalSetGov",
      "type": "event"
    },
    {
      "anonymous": false,
      "inputs": [
        {
          "indexed": false,
          "internalType": "address",
          "name": "target",
          "type": "address"
        },
        {
          "indexed": false,
          "internalType": "address",
          "name": "handler",
          "type": "address"
        },
        {
          "indexed": false,
          "internalType": "bool",
          "name": "isActive",
          "type": "bool"
        },
        {
          "indexed": false,
          "internalType": "bytes32",
          "name": "action",
          "type": "bytes32"
        }
      ],
      "name": "SignalSetHandler",
      "type": "event"
    },
    {
      "anonymous": false,
      "inputs": [
        {
          "indexed": false,
          "internalType": "address",
          "name": "vault",
          "type": "address"
        },
        {
          "indexed": false,
          "internalType": "address",
          "name": "priceFeed",
          "type": "address"
        },
        {
          "indexed": false,
          "internalType": "bytes32",
          "name": "action",
          "type": "bytes32"
        }
      ],
      "name": "SignalSetPriceFeed",
      "type": "event"
    },
    {
      "anonymous": false,
      "inputs": [
        {
          "indexed": false,
          "internalType": "address",
          "name": "vault",
          "type": "address"
        },
        {
          "indexed": false,
          "internalType": "address",
          "name": "token",
          "type": "address"
        },
        {
          "indexed": false,
          "internalType": "uint256",
          "name": "tokenDecimals",
          "type": "uint256"
        },
        {
          "indexed": false,
          "internalType": "uint256",
          "name": "tokenWeight",
          "type": "uint256"
        },
        {
          "indexed": false,
          "internalType": "uint256",
          "name": "minProfitBps",
          "type": "uint256"
        },
        {
          "indexed": false,
          "internalType": "uint256",
          "name": "maxUsdpAmount",
          "type": "uint256"
        },
        {
          "indexed": false,
          "internalType": "bool",
          "name": "isStable",
          "type": "bool"
        },
        {
          "indexed": false,
          "internalType": "bool",
          "name": "isShortable",
          "type": "bool"
        }
      ],
      "name": "SignalVaultSetTokenConfig",
      "type": "event"
    },
    {
      "anonymous": false,
      "inputs": [
        {
          "indexed": false,
          "internalType": "address",
          "name": "target",
          "type": "address"
        },
        {
          "indexed": false,
          "internalType": "address",
          "name": "token",
          "type": "address"
        },
        {
          "indexed": false,
          "internalType": "address",
          "name": "receiver",
          "type": "address"
        },
        {
          "indexed": false,
          "internalType": "uint256",
          "name": "amount",
          "type": "uint256"
        },
        {
          "indexed": false,
          "internalType": "bytes32",
          "name": "action",
          "type": "bytes32"
        }
      ],
      "name": "SignalWithdrawToken",
      "type": "event"
    },
    {
      "inputs": [],
      "name": "MAX_BUFFER",
      "outputs": [
        {
          "internalType": "uint256",
          "name": "",
          "type": "uint256"
        }
      ],
      "stateMutability": "view",
      "type": "function"
    },
    {
      "inputs": [],
      "name": "MAX_FUNDING_RATE_FACTOR",
      "outputs": [
        {
          "internalType": "uint256",
          "name": "",
          "type": "uint256"
        }
      ],
      "stateMutability": "view",
      "type": "function"
    },
    {
      "inputs": [],
      "name": "MAX_LEVERAGE_VALIDATION",
      "outputs": [
        {
          "internalType": "uint256",
          "name": "",
          "type": "uint256"
        }
      ],
      "stateMutability": "view",
      "type": "function"
    },
    {
      "inputs": [],
      "name": "PRICE_PRECISION",
      "outputs": [
        {
          "internalType": "uint256",
          "name": "",
          "type": "uint256"
        }
      ],
      "stateMutability": "view",
      "type": "function"
    },
    {
      "inputs": [],
      "name": "admin",
      "outputs": [
        {
          "internalType": "address",
          "name": "",
          "type": "address"
        }
      ],
      "stateMutability": "view",
      "type": "function"
    },
    {
      "inputs": [
        {
          "internalType": "address",
          "name": "_token",
          "type": "address"
        },
        {
          "internalType": "address",
          "name": "_spender",
          "type": "address"
        },
        {
          "internalType": "uint256",
          "name": "_amount",
          "type": "uint256"
        }
      ],
      "name": "approve",
      "outputs": [],
      "stateMutability": "nonpayable",
      "type": "function"
    },
    {
      "inputs": [
        {
          "internalType": "address",
          "name": "_vault",
          "type": "address"
        },
        {
          "internalType": "address[]",
          "name": "_tokens",
          "type": "address[]"
        }
      ],
      "name": "batchWithdrawFees",
      "outputs": [],
      "stateMutability": "nonpayable",
      "type": "function"
    },
    {
      "inputs": [],
      "name": "brrrManager",
      "outputs": [
        {
          "internalType": "address",
          "name": "",
          "type": "address"
        }
      ],
      "stateMutability": "view",
      "type": "function"
    },
    {
      "inputs": [],
      "name": "buffer",
      "outputs": [
        {
          "internalType": "uint256",
          "name": "",
          "type": "uint256"
        }
      ],
      "stateMutability": "view",
      "type": "function"
    },
    {
      "inputs": [
        {
          "internalType": "bytes32",
          "name": "_action",
          "type": "bytes32"
        }
      ],
      "name": "cancelAction",
      "outputs": [],
      "stateMutability": "nonpayable",
      "type": "function"
    },
    {
      "inputs": [
        {
          "internalType": "address",
          "name": "_vault",
          "type": "address"
        }
      ],
      "name": "disableLeverage",
      "outputs": [],
      "stateMutability": "nonpayable",
      "type": "function"
    },
    {
      "inputs": [
        {
          "internalType": "address",
          "name": "_vault",
          "type": "address"
        }
      ],
      "name": "enableLeverage",
      "outputs": [],
      "stateMutability": "nonpayable",
      "type": "function"
    },
    {
      "inputs": [
        {
          "internalType": "address",
          "name": "_referralStorage",
          "type": "address"
        },
        {
          "internalType": "bytes32",
          "name": "_code",
          "type": "bytes32"
        },
        {
          "internalType": "address",
          "name": "_newAccount",
          "type": "address"
        }
      ],
      "name": "govSetCodeOwner",
      "outputs": [],
      "stateMutability": "nonpayable",
      "type": "function"
    },
    {
      "inputs": [],
      "name": "initBrrrManager",
      "outputs": [],
      "stateMutability": "nonpayable",
      "type": "function"
    },
    {
      "inputs": [],
      "name": "initRewardRouter",
      "outputs": [],
      "stateMutability": "nonpayable",
      "type": "function"
    },
    {
      "inputs": [
        {
          "internalType": "address",
          "name": "",
          "type": "address"
        }
      ],
      "name": "isHandler",
      "outputs": [
        {
          "internalType": "bool",
          "name": "",
          "type": "bool"
        }
      ],
      "stateMutability": "view",
      "type": "function"
    },
    {
      "inputs": [
        {
          "internalType": "address",
          "name": "",
          "type": "address"
        }
      ],
      "name": "isKeeper",
      "outputs": [
        {
          "internalType": "bool",
          "name": "",
          "type": "bool"
        }
      ],
      "stateMutability": "view",
      "type": "function"
    },
    {
      "inputs": [],
      "name": "marginFeeBasisPoints",
      "outputs": [
        {
          "internalType": "uint256",
          "name": "",
          "type": "uint256"
        }
      ],
      "stateMutability": "view",
      "type": "function"
    },
    {
      "inputs": [],
      "name": "maxMarginFeeBasisPoints",
      "outputs": [
        {
          "internalType": "uint256",
          "name": "",
          "type": "uint256"
        }
      ],
      "stateMutability": "view",
      "type": "function"
    },
    {
      "inputs": [],
      "name": "maxTokenSupply",
      "outputs": [
        {
          "internalType": "uint256",
          "name": "",
          "type": "uint256"
        }
      ],
      "stateMutability": "view",
      "type": "function"
    },
    {
      "inputs": [],
      "name": "mintReceiver",
      "outputs": [
        {
          "internalType": "address",
          "name": "",
          "type": "address"
        }
      ],
      "stateMutability": "view",
      "type": "function"
    },
    {
      "inputs": [
        {
          "internalType": "bytes32",
          "name": "",
          "type": "bytes32"
        }
      ],
      "name": "pendingActions",
      "outputs": [
        {
          "internalType": "uint256",
          "name": "",
          "type": "uint256"
        }
      ],
      "stateMutability": "view",
      "type": "function"
    },
    {
      "inputs": [
        {
          "internalType": "address",
          "name": "_token",
          "type": "address"
        },
        {
          "internalType": "address",
          "name": "_receiver",
          "type": "address"
        },
        {
          "internalType": "uint256",
          "name": "_amount",
          "type": "uint256"
        }
      ],
      "name": "processMint",
      "outputs": [],
      "stateMutability": "nonpayable",
      "type": "function"
    },
    {
      "inputs": [
        {
          "internalType": "address",
          "name": "_vault",
          "type": "address"
        },
        {
          "internalType": "address",
          "name": "_token",
          "type": "address"
        },
        {
          "internalType": "uint256",
          "name": "_amount",
          "type": "uint256"
        }
      ],
      "name": "redeemUsdp",
      "outputs": [],
      "stateMutability": "nonpayable",
      "type": "function"
    },
    {
      "inputs": [
        {
          "internalType": "address",
          "name": "_token",
          "type": "address"
        },
        {
          "internalType": "address",
          "name": "_account",
          "type": "address"
        }
      ],
      "name": "removeAdmin",
      "outputs": [],
      "stateMutability": "nonpayable",
      "type": "function"
    },
    {
      "inputs": [],
      "name": "rewardRouter",
      "outputs": [
        {
          "internalType": "address",
          "name": "",
          "type": "address"
        }
      ],
      "stateMutability": "view",
      "type": "function"
    },
    {
      "inputs": [
        {
          "internalType": "address",
          "name": "_admin",
          "type": "address"
        }
      ],
      "name": "setAdmin",
      "outputs": [],
      "stateMutability": "nonpayable",
      "type": "function"
    },
    {
      "inputs": [
        {
          "internalType": "uint256",
          "name": "_cooldownDuration",
          "type": "uint256"
        }
      ],
      "name": "setBrrrCooldownDuration",
      "outputs": [],
      "stateMutability": "nonpayable",
      "type": "function"
    },
    {
      "inputs": [
        {
          "internalType": "uint256",
          "name": "_buffer",
          "type": "uint256"
        }
      ],
      "name": "setBuffer",
      "outputs": [],
      "stateMutability": "nonpayable",
      "type": "function"
    },
    {
      "inputs": [
        {
          "internalType": "address",
          "name": "_handler",
          "type": "address"
        },
        {
          "internalType": "bool",
          "name": "_isActive",
          "type": "bool"
        }
      ],
      "name": "setContractHandler",
      "outputs": [],
      "stateMutability": "nonpayable",
      "type": "function"
    },
    {
      "inputs": [
        {
          "internalType": "address",
          "name": "_target",
          "type": "address"
        },
        {
          "internalType": "address",
          "name": "_admin",
          "type": "address"
        }
      ],
      "name": "setExternalAdmin",
      "outputs": [],
      "stateMutability": "nonpayable",
      "type": "function"
    },
    {
      "inputs": [
        {
          "internalType": "address",
          "name": "_vault",
          "type": "address"
        },
        {
          "internalType": "uint256",
          "name": "_taxBasisPoints",
          "type": "uint256"
        },
        {
          "internalType": "uint256",
          "name": "_stableTaxBasisPoints",
          "type": "uint256"
        },
        {
          "internalType": "uint256",
          "name": "_mintBurnFeeBasisPoints",
          "type": "uint256"
        },
        {
          "internalType": "uint256",
          "name": "_swapFeeBasisPoints",
          "type": "uint256"
        },
        {
          "internalType": "uint256",
          "name": "_stableSwapFeeBasisPoints",
          "type": "uint256"
        },
        {
          "internalType": "uint256",
          "name": "_marginFeeBasisPoints",
          "type": "uint256"
        },
        {
          "internalType": "uint256",
          "name": "_liquidationFeeUsd",
          "type": "uint256"
        },
        {
          "internalType": "uint256",
          "name": "_minProfitTime",
          "type": "uint256"
        },
        {
          "internalType": "bool",
          "name": "_hasDynamicFees",
          "type": "bool"
        }
      ],
      "name": "setFees",
      "outputs": [],
      "stateMutability": "nonpayable",
      "type": "function"
    },
    {
      "inputs": [
        {
          "internalType": "address",
          "name": "_vault",
          "type": "address"
        },
        {
          "internalType": "uint256",
          "name": "_fundingInterval",
          "type": "uint256"
        },
        {
          "internalType": "uint256",
          "name": "_fundingRateFactor",
          "type": "uint256"
        },
        {
          "internalType": "uint256",
          "name": "_stableFundingRateFactor",
          "type": "uint256"
        }
      ],
      "name": "setFundingRate",
      "outputs": [],
      "stateMutability": "nonpayable",
      "type": "function"
    },
    {
      "inputs": [
        {
          "internalType": "address",
          "name": "_target",
          "type": "address"
        },
        {
          "internalType": "address",
          "name": "_gov",
          "type": "address"
        }
      ],
      "name": "setGov",
      "outputs": [],
      "stateMutability": "nonpayable",
      "type": "function"
    },
    {
      "inputs": [
        {
          "internalType": "address",
          "name": "_target",
          "type": "address"
        },
        {
          "internalType": "address",
          "name": "_handler",
          "type": "address"
        },
        {
          "internalType": "bool",
          "name": "_isActive",
          "type": "bool"
        }
      ],
      "name": "setHandler",
      "outputs": [],
      "stateMutability": "nonpayable",
      "type": "function"
    },
    {
      "inputs": [
        {
          "internalType": "address",
          "name": "_vault",
          "type": "address"
        },
        {
          "internalType": "bool",
          "name": "_inPrivateLiquidationMode",
          "type": "bool"
        }
      ],
      "name": "setInPrivateLiquidationMode",
      "outputs": [],
      "stateMutability": "nonpayable",
      "type": "function"
    },
    {
      "inputs": [
        {
          "internalType": "address",
          "name": "_token",
          "type": "address"
        },
        {
          "internalType": "bool",
          "name": "_inPrivateTransferMode",
          "type": "bool"
        }
      ],
      "name": "setInPrivateTransferMode",
      "outputs": [],
      "stateMutability": "nonpayable",
      "type": "function"
    },
    {
      "inputs": [
        {
          "internalType": "address",
          "name": "_vault",
          "type": "address"
        },
        {
          "internalType": "bool",
          "name": "_isLeverageEnabled",
          "type": "bool"
        }
      ],
      "name": "setIsLeverageEnabled",
      "outputs": [],
      "stateMutability": "nonpayable",
      "type": "function"
    },
    {
      "inputs": [
        {
          "internalType": "address",
          "name": "_vault",
          "type": "address"
        },
        {
          "internalType": "bool",
          "name": "_isSwapEnabled",
          "type": "bool"
        }
      ],
      "name": "setIsSwapEnabled",
      "outputs": [],
      "stateMutability": "nonpayable",
      "type": "function"
    },
    {
      "inputs": [
        {
          "internalType": "address",
          "name": "_keeper",
          "type": "address"
        },
        {
          "internalType": "bool",
          "name": "_isActive",
          "type": "bool"
        }
      ],
      "name": "setKeeper",
      "outputs": [],
      "stateMutability": "nonpayable",
      "type": "function"
    },
    {
      "inputs": [
        {
          "internalType": "address",
          "name": "_vault",
          "type": "address"
        },
        {
          "internalType": "address",
          "name": "_liquidator",
          "type": "address"
        },
        {
          "internalType": "bool",
          "name": "_isActive",
          "type": "bool"
        }
      ],
      "name": "setLiquidator",
      "outputs": [],
      "stateMutability": "nonpayable",
      "type": "function"
    },
    {
      "inputs": [
        {
          "internalType": "uint256",
          "name": "_marginFeeBasisPoints",
          "type": "uint256"
        },
        {
          "internalType": "uint256",
          "name": "_maxMarginFeeBasisPoints",
          "type": "uint256"
        }
      ],
      "name": "setMarginFeeBasisPoints",
      "outputs": [],
      "stateMutability": "nonpayable",
      "type": "function"
    },
    {
      "inputs": [
        {
          "internalType": "address",
          "name": "_vault",
          "type": "address"
        },
        {
          "internalType": "uint256",
          "name": "_maxGasPrice",
          "type": "uint256"
        }
      ],
      "name": "setMaxGasPrice",
      "outputs": [],
      "stateMutability": "nonpayable",
      "type": "function"
    },
    {
      "inputs": [
        {
          "internalType": "address",
          "name": "_vault",
          "type": "address"
        },
        {
          "internalType": "address",
          "name": "_token",
          "type": "address"
        },
        {
          "internalType": "uint256",
          "name": "_amount",
          "type": "uint256"
        }
      ],
      "name": "setMaxGlobalShortSize",
      "outputs": [],
      "stateMutability": "nonpayable",
      "type": "function"
    },
    {
      "inputs": [
        {
          "internalType": "address",
          "name": "_vault",
          "type": "address"
        },
        {
          "internalType": "uint256",
          "name": "_maxLeverage",
          "type": "uint256"
        }
      ],
      "name": "setMaxLeverage",
      "outputs": [],
      "stateMutability": "nonpayable",
      "type": "function"
    },
    {
      "inputs": [
        {
          "internalType": "address",
          "name": "_vault",
          "type": "address"
        },
        {
          "internalType": "address",
          "name": "_priceFeed",
          "type": "address"
        }
      ],
      "name": "setPriceFeed",
      "outputs": [],
      "stateMutability": "nonpayable",
      "type": "function"
    },
    {
      "inputs": [
        {
          "internalType": "address",
          "name": "_referralStorage",
          "type": "address"
        },
        {
          "internalType": "address",
          "name": "_referrer",
          "type": "address"
        },
        {
          "internalType": "uint256",
          "name": "_tierId",
          "type": "uint256"
        }
      ],
      "name": "setReferrerTier",
      "outputs": [],
      "stateMutability": "nonpayable",
      "type": "function"
    },
    {
      "inputs": [
        {
          "internalType": "uint256",
          "name": "_shortsTrackerAveragePriceWeight",
          "type": "uint256"
        }
      ],
      "name": "setShortsTrackerAveragePriceWeight",
      "outputs": [],
      "stateMutability": "nonpayable",
      "type": "function"
    },
    {
      "inputs": [
        {
          "internalType": "bool",
          "name": "_shouldToggleIsLeverageEnabled",
          "type": "bool"
        }
      ],
      "name": "setShouldToggleIsLeverageEnabled",
      "outputs": [],
      "stateMutability": "nonpayable",
      "type": "function"
    },
    {
      "inputs": [
        {
          "internalType": "address",
          "name": "_vault",
          "type": "address"
        },
        {
          "internalType": "uint256",
          "name": "_taxBasisPoints",
          "type": "uint256"
        },
        {
          "internalType": "uint256",
          "name": "_stableTaxBasisPoints",
          "type": "uint256"
        },
        {
          "internalType": "uint256",
          "name": "_mintBurnFeeBasisPoints",
          "type": "uint256"
        },
        {
          "internalType": "uint256",
          "name": "_swapFeeBasisPoints",
          "type": "uint256"
        },
        {
          "internalType": "uint256",
          "name": "_stableSwapFeeBasisPoints",
          "type": "uint256"
        }
      ],
      "name": "setSwapFees",
      "outputs": [],
      "stateMutability": "nonpayable",
      "type": "function"
    },
    {
      "inputs": [
        {
          "internalType": "address",
          "name": "_referralStorage",
          "type": "address"
        },
        {
          "internalType": "uint256",
          "name": "_tierId",
          "type": "uint256"
        },
        {
          "internalType": "uint256",
          "name": "_totalRebate",
          "type": "uint256"
        },
        {
          "internalType": "uint256",
          "name": "_discountShare",
          "type": "uint256"
        }
      ],
      "name": "setTier",
      "outputs": [],
      "stateMutability": "nonpayable",
      "type": "function"
    },
    {
      "inputs": [
        {
          "internalType": "address",
          "name": "_vault",
          "type": "address"
        },
        {
          "internalType": "address",
          "name": "_token",
          "type": "address"
        },
        {
          "internalType": "uint256",
          "name": "_tokenWeight",
          "type": "uint256"
        },
        {
          "internalType": "uint256",
          "name": "_minProfitBps",
          "type": "uint256"
        },
        {
          "internalType": "uint256",
          "name": "_maxUsdpAmount",
          "type": "uint256"
        },
        {
          "internalType": "uint256",
          "name": "_bufferAmount",
          "type": "uint256"
        },
        {
          "internalType": "uint256",
          "name": "_usdpAmount",
          "type": "uint256"
        }
      ],
      "name": "setTokenConfig",
      "outputs": [],
      "stateMutability": "nonpayable",
      "type": "function"
    },
    {
      "inputs": [
        {
          "internalType": "address",
          "name": "_vault",
          "type": "address"
        },
        {
          "internalType": "address[]",
          "name": "_tokens",
          "type": "address[]"
        },
        {
          "internalType": "uint256[]",
          "name": "_usdpAmounts",
          "type": "uint256[]"
        }
      ],
      "name": "setUsdpAmounts",
      "outputs": [],
      "stateMutability": "nonpayable",
      "type": "function"
    },
    {
      "inputs": [
        {
          "internalType": "address",
          "name": "_vault",
          "type": "address"
        },
        {
          "internalType": "contract IVaultUtils",
          "name": "_vaultUtils",
          "type": "address"
        }
      ],
      "name": "setVaultUtils",
      "outputs": [],
      "stateMutability": "nonpayable",
      "type": "function"
    },
    {
      "inputs": [],
      "name": "shouldToggleIsLeverageEnabled",
      "outputs": [
        {
          "internalType": "bool",
          "name": "",
          "type": "bool"
        }
      ],
      "stateMutability": "view",
      "type": "function"
    },
    {
      "inputs": [
        {
          "internalType": "address",
          "name": "_token",
          "type": "address"
        },
        {
          "internalType": "address",
          "name": "_spender",
          "type": "address"
        },
        {
          "internalType": "uint256",
          "name": "_amount",
          "type": "uint256"
        }
      ],
      "name": "signalApprove",
      "outputs": [],
      "stateMutability": "nonpayable",
      "type": "function"
    },
    {
      "inputs": [
        {
          "internalType": "address",
          "name": "_token",
          "type": "address"
        },
        {
          "internalType": "address",
          "name": "_receiver",
          "type": "address"
        },
        {
          "internalType": "uint256",
          "name": "_amount",
          "type": "uint256"
        }
      ],
      "name": "signalMint",
      "outputs": [],
      "stateMutability": "nonpayable",
      "type": "function"
    },
    {
      "inputs": [
        {
          "internalType": "address",
          "name": "_vault",
          "type": "address"
        },
        {
          "internalType": "address",
          "name": "_token",
          "type": "address"
        },
        {
          "internalType": "uint256",
          "name": "_amount",
          "type": "uint256"
        }
      ],
      "name": "signalRedeemUsdp",
      "outputs": [],
      "stateMutability": "nonpayable",
      "type": "function"
    },
    {
      "inputs": [
        {
          "internalType": "address",
          "name": "_target",
          "type": "address"
        },
        {
          "internalType": "address",
          "name": "_gov",
          "type": "address"
        }
      ],
      "name": "signalSetGov",
      "outputs": [],
      "stateMutability": "nonpayable",
      "type": "function"
    },
    {
      "inputs": [
        {
          "internalType": "address",
          "name": "_target",
          "type": "address"
        },
        {
          "internalType": "address",
          "name": "_handler",
          "type": "address"
        },
        {
          "internalType": "bool",
          "name": "_isActive",
          "type": "bool"
        }
      ],
      "name": "signalSetHandler",
      "outputs": [],
      "stateMutability": "nonpayable",
      "type": "function"
    },
    {
      "inputs": [
        {
          "internalType": "address",
          "name": "_vault",
          "type": "address"
        },
        {
          "internalType": "address",
          "name": "_priceFeed",
          "type": "address"
        }
      ],
      "name": "signalSetPriceFeed",
      "outputs": [],
      "stateMutability": "nonpayable",
      "type": "function"
    },
    {
      "inputs": [
        {
          "internalType": "address",
          "name": "_vault",
          "type": "address"
        },
        {
          "internalType": "address",
          "name": "_token",
          "type": "address"
        }
      ],
      "name": "signalVaultClearTokenConfig",
      "outputs": [],
      "stateMutability": "nonpayable",
      "type": "function"
    },
    {
      "inputs": [
        {
          "internalType": "address",
          "name": "_vault",
          "type": "address"
        },
        {
          "internalType": "address",
          "name": "_token",
          "type": "address"
        },
        {
          "internalType": "uint256",
          "name": "_tokenDecimals",
          "type": "uint256"
        },
        {
          "internalType": "uint256",
          "name": "_tokenWeight",
          "type": "uint256"
        },
        {
          "internalType": "uint256",
          "name": "_minProfitBps",
          "type": "uint256"
        },
        {
          "internalType": "uint256",
          "name": "_maxUsdpAmount",
          "type": "uint256"
        },
        {
          "internalType": "bool",
          "name": "_isStable",
          "type": "bool"
        },
        {
          "internalType": "bool",
          "name": "_isShortable",
          "type": "bool"
        }
      ],
      "name": "signalVaultSetTokenConfig",
      "outputs": [],
      "stateMutability": "nonpayable",
      "type": "function"
    },
    {
      "inputs": [
        {
          "internalType": "address",
          "name": "_target",
          "type": "address"
        },
        {
          "internalType": "address",
          "name": "_token",
          "type": "address"
        },
        {
          "internalType": "address",
          "name": "_receiver",
          "type": "address"
        },
        {
          "internalType": "uint256",
          "name": "_amount",
          "type": "uint256"
        }
      ],
      "name": "signalWithdrawToken",
      "outputs": [],
      "stateMutability": "nonpayable",
      "type": "function"
    },
    {
      "inputs": [],
      "name": "tokenManager",
      "outputs": [
        {
          "internalType": "address",
          "name": "",
          "type": "address"
        }
      ],
      "stateMutability": "view",
      "type": "function"
    },
    {
      "inputs": [
        {
          "internalType": "address",
          "name": "_sender",
          "type": "address"
        },
        {
          "internalType": "address",
          "name": "_token",
          "type": "address"
        },
        {
          "internalType": "uint256",
          "name": "_amount",
          "type": "uint256"
        }
      ],
      "name": "transferIn",
      "outputs": [],
      "stateMutability": "nonpayable",
      "type": "function"
    },
    {
      "inputs": [
        {
          "internalType": "uint256",
          "name": "usdpAmount",
          "type": "uint256"
        }
      ],
      "name": "updateUsdpSupply",
      "outputs": [],
      "stateMutability": "nonpayable",
      "type": "function"
    },
    {
      "inputs": [
        {
          "internalType": "address",
          "name": "_vault",
          "type": "address"
        },
        {
          "internalType": "address",
          "name": "_token",
          "type": "address"
        }
      ],
      "name": "vaultClearTokenConfig",
      "outputs": [],
      "stateMutability": "nonpayable",
      "type": "function"
    },
    {
      "inputs": [
        {
          "internalType": "address",
          "name": "_vault",
          "type": "address"
        },
        {
          "internalType": "address",
          "name": "_token",
          "type": "address"
        },
        {
          "internalType": "uint256",
          "name": "_tokenDecimals",
          "type": "uint256"
        },
        {
          "internalType": "uint256",
          "name": "_tokenWeight",
          "type": "uint256"
        },
        {
          "internalType": "uint256",
          "name": "_minProfitBps",
          "type": "uint256"
        },
        {
          "internalType": "uint256",
          "name": "_maxUsdpAmount",
          "type": "uint256"
        },
        {
          "internalType": "bool",
          "name": "_isStable",
          "type": "bool"
        },
        {
          "internalType": "bool",
          "name": "_isShortable",
          "type": "bool"
        }
      ],
      "name": "vaultSetTokenConfig",
      "outputs": [],
      "stateMutability": "nonpayable",
      "type": "function"
    },
    {
      "inputs": [
        {
          "internalType": "address",
          "name": "_vault",
          "type": "address"
        },
        {
          "internalType": "address",
          "name": "_token",
          "type": "address"
        },
        {
          "internalType": "address",
          "name": "_receiver",
          "type": "address"
        }
      ],
      "name": "withdrawFees",
      "outputs": [],
      "stateMutability": "nonpayable",
      "type": "function"
    },
    {
      "inputs": [
        {
          "internalType": "address",
          "name": "_target",
          "type": "address"
        },
        {
          "internalType": "address",
          "name": "_token",
          "type": "address"
        },
        {
          "internalType": "address",
          "name": "_receiver",
          "type": "address"
        },
        {
          "internalType": "uint256",
          "name": "_amount",
          "type": "uint256"
        }
      ],
      "name": "withdrawToken",
      "outputs": [],
      "stateMutability": "nonpayable",
      "type": "function"
    }
  ],
  "bytecode": {
    "object": "0x60806040523480156200001157600080fd5b5060405162004d1a38038062004d1a833981016040819052620000349162000120565b620697808811156200008c5760405162461bcd60e51b815260206004820152601960248201527f54696d656c6f636b3a20696e76616c6964205f62756666657200000000000000604482015260640160405180910390fd5b600180546001600160a01b03199081166001600160a01b039b8c1617909155600098909855600280548916978a1697909717909655600380548816958916959095179094556004805487169388169390931790925560058054909516951694909417909255600692909255600755600855620001b7565b80516001600160a01b03811681146200011b57600080fd5b919050565b60008060008060008060008060006101208a8c0312156200014057600080fd5b6200014b8a62000103565b985060208a015197506200016260408b0162000103565b96506200017260608b0162000103565b95506200018260808b0162000103565b94506200019260a08b0162000103565b935060c08a0151925060e08a015191506101008a015190509295985092959850929598565b614b5380620001c76000396000f3fe608060405234801561001057600080fd5b506004361061041d5760003560e01c80637ec7929b1161022b578063d1b9e85311610130578063e3b6cd07116100b8578063e8ae227111610087578063e8ae22711461091c578063edaafe201461092f578063f58ed35114610938578063f67f8e4f1461094b578063f851a4401461095e57600080fd5b8063e3b6cd07146108d0578063e3cbeb0f146108e3578063e4652f49146108f6578063e76ab00f1461090957600080fd5b8063dce6e18d116100ff578063dce6e18d14610864578063df3a66d914610877578063e1f21c671461088a578063e21b45911461089d578063e30569e5146108b057600080fd5b8063d1b9e85314610818578063d3c87bbb1461082b578063da7623161461083e578063db1c84411461085157600080fd5b8063996e2bc9116101b3578063bc476dfd11610182578063bc476dfd146107b9578063bc8a8ab9146107cc578063c142940a146107df578063c7bb26a0146107f2578063cd2b12301461080557600080fd5b8063996e2bc914610782578063adc7ea371461078b578063afd14deb1461079e578063b8361ebb146107a657600080fd5b80638bf22c46116101fa5780638bf22c46146107225780638e34c98f1461073557806395082d251461074857806398c8a1001461075c578063996a7a1e1461076f57600080fd5b80637ec7929b146106e157806380894d62146106f457806386803c72146107075780638a39735a1461071a57600080fd5b806346ea87af1161033157806361d07569116102b9578063704b6c0211610288578063704b6c021461068d57806373864944146106a057806376e11286146106a8578063781cc3d3146106bb5780637b6f775a146106ce57600080fd5b806361d075691461063a5780636ba42aaa146106445780636d63c1d0146106675780636e5227d41461067a57600080fd5b806350f7c2041161030057806350f7c204146105e557806351a6de0d146105ee578063558182941461060157806355ef1395146106145780635a3bb9891461062757600080fd5b806346ea87af1461058957806347de43e2146105ac5780634cd23f3b146105bf5780634f5f6b5e146105d257600080fd5b806321bd0592116103b4578063268959e511610383578063268959e5146105175780632a709b141461052a5780632ba3725a14610555578063318bc6891461056d578063344085b31461057657600080fd5b806321bd0592146104bc578063227f03eb146104cf57806323aaad12146104e257806324ccbe301461050457600080fd5b8063117cf204116103f0578063117cf20414610470578063185051c114610483578063204bbc541461049657806321754d9e146104a957600080fd5b806309cc9a08146104225780630e0dc426146104375780630e9587f31461044a5780631154e8081461045d575b600080fd5b6104356104303660046140a2565b610971565b005b6104356104453660046140e3565b610a35565b610435610458366004614145565b610e32565b61043561046b36600461419e565b610ed6565b61043561047e3660046141de565b610fa7565b6104356104913660046141de565b611065565b6104356104a4366004614217565b6110ba565b6104356104b736600461424e565b611180565b6104356104ca3660046141de565b611256565b6104356104dd36600461429f565b6112ae565b6009546104ef9060ff1681565b60405190151581526020015b60405180910390f35b61043561051236600461419e565b611406565b6104356105253660046142da565b6114bb565b60025461053d906001600160a01b031681565b6040516001600160a01b0390911681526020016104fb565b61055f6207a12081565b6040519081526020016104fb565b61055f60075481565b6104356105843660046140a2565b611513565b6104ef610597366004614308565b600b6020526000908152604090205460ff1681565b6104356105ba36600461419e565b611877565b6104356105cd36600461424e565b6118cf565b6104356105e036600461432c565b611993565b61055f60065481565b6104356105fc3660046142da565b611a1d565b61043561060f36600461429f565b611ab4565b6104356106223660046142da565b611b4d565b60055461053d906001600160a01b031681565b61055f6206978081565b6104ef610652366004614308565b600c6020526000908152604090205460ff1681565b610435610675366004614308565b611bfd565b610435610688366004614345565b611fef565b61043561069b366004614308565b6120cd565b610435612119565b6104356106b63660046142da565b612382565b6104356106c936600461432c565b612419565b6104356106dc3660046143cd565b61244f565b6104356106ef36600461432c565b6124f8565b6104356107023660046142da565b6127c5565b6104356107153660046141de565b612865565b61055f60c881565b6104356107303660046143cd565b6128bd565b6104356107433660046143f9565b61295f565b61055f6c0c9f2c9cd04674edea4000000081565b61043561076a3660046144f5565b6129b6565b61043561077d3660046142da565b612ac5565b61055f60085481565b61043561079936600461432c565b612b58565b610435612c37565b6104356107b43660046140a2565b612d6e565b6104356107c73660046142da565b612e03565b6104356107da3660046140a2565b612e5b565b6104356107ed3660046140a2565b612ed1565b60035461053d906001600160a01b031681565b6104356108133660046141de565b612f5d565b6104356108263660046141de565b612fcf565b610435610839366004614308565b613024565b61043561084c3660046145c1565b61330a565b61043561085f36600461460d565b613509565b6104356108723660046140a2565b6135f1565b6104356108853660046140a2565b6136a2565b6104356108983660046140a2565b6136fa565b6104356108ab366004614692565b6137d6565b61055f6108be36600461432c565b600a6020526000908152604090205481565b6104356108de36600461432c565b613825565b6104356108f136600461460d565b6138db565b6104356109043660046140a2565b6139c5565b60045461053d906001600160a01b031681565b61043561092a3660046146b4565b613a62565b61055f60005481565b6104356109463660046142da565b613b84565b6104356109593660046142da565b613c24565b60015461053d906001600160a01b031681565b6001546001600160a01b031633146109a45760405162461bcd60e51b815260040161099b90614704565b60405180910390fd5b60008383836040516020016109bb93929190614731565b6040516020818303038152906040528051906020012090506109dc81613cbb565b604080516001600160a01b03808716825285166020820152908101839052606081018290527f23d37bec99db82564427c9bbfe48ad7434bccf413a40fd357fb838c90a0d6828906080015b60405180910390a150505050565b6001546001600160a01b0316331480610a5d5750336000908152600b602052604090205460ff165b80610a775750336000908152600c602052604090205460ff165b610a935760405162461bcd60e51b815260040161099b90614704565b6101f4841115610ae55760405162461bcd60e51b815260206004820152601f60248201527f54696d656c6f636b3a20696e76616c6964205f6d696e50726f66697442707300604482015260640161099b565b604051630daf9c2160e41b81526001600160a01b03878116600483015288919082169063daf9c21090602401602060405180830381865afa158015610b2e573d6000803e3d6000fd5b505050506040513d601f19601f82011682018060405250810190610b529190614767565b610baa5760405162461bcd60e51b815260206004820152602360248201527f54696d656c6f636b3a20746f6b656e206e6f74207965742077686974656c69736044820152621d195960ea1b606482015260840161099b565b6040516323b95ceb60e21b81526001600160a01b03888116600483015260009190831690638ee573ac90602401602060405180830381865afa158015610bf4573d6000803e3d6000fd5b505050506040513d601f19601f82011682018060405250810190610c189190614784565b6040516342b60b0360e01b81526001600160a01b038a811660048301529192506000918416906342b60b0390602401602060405180830381865afa158015610c64573d6000803e3d6000fd5b505050506040513d601f19601f82011682018060405250810190610c889190614767565b60405163db3555fb60e01b81526001600160a01b038b8116600483015291925060009185169063db3555fb90602401602060405180830381865afa158015610cd4573d6000803e3d6000fd5b505050506040513d601f19601f82011682018060405250810190610cf89190614767565b604051633c5a6e3560e01b81529091506001600160a01b038c1690633c5a6e3590610d33908d9087908e908e908e908a908a9060040161479d565b600060405180830381600087803b158015610d4d57600080fd5b505af1158015610d61573d6000803e3d6000fd5b50506040516342c2fa6960e11b81526001600160a01b038e169250638585f4d29150610d93908d908a906004016147dc565b600060405180830381600087803b158015610dad57600080fd5b505af1158015610dc1573d6000803e3d6000fd5b5050604051631985aea560e21b81526001600160a01b038e169250636616ba949150610df3908d9089906004016147dc565b600060405180830381600087803b158015610e0d57600080fd5b505af1158015610e21573d6000803e3d6000fd5b505050505050505050505050505050565b6001546001600160a01b03163314610e5c5760405162461bcd60e51b815260040161099b90614704565b604051631e4aaa4f60e31b81526001600160a01b038381166004830152828116602483015284169063f2555278906044016020604051808303816000875af1158015610eac573d6000803e3d6000fd5b505050506040513d601f19601f82011682018060405250810190610ed09190614784565b50505050565b6001546001600160a01b03163314610f005760405162461bcd60e51b815260040161099b90614704565b6000838383604051602001610f17939291906147f5565b604051602081830303815290604052805190602001209050610f3881613d78565b610f4181613e3e565b604051639cb7de4b60e01b81526001600160a01b03851690639cb7de4b90610f6f9086908690600401614836565b600060405180830381600087803b158015610f8957600080fd5b505af1158015610f9d573d6000803e3d6000fd5b5050505050505050565b6001546001600160a01b0316331480610fcf5750336000908152600b602052604090205460ff165b80610fe95750336000908152600c602052604090205460ff165b6110055760405162461bcd60e51b815260040161099b90614704565b604051631822af6f60e11b815281151560048201526001600160a01b038316906330455ede906024015b600060405180830381600087803b15801561104957600080fd5b505af115801561105d573d6000803e3d6000fd5b505050505050565b6001546001600160a01b0316331461108f5760405162461bcd60e51b815260040161099b90614704565b6001600160a01b03919091166000908152600b60205260409020805460ff1916911515919091179055565b6001546001600160a01b03163314806110e25750336000908152600b602052604090205460ff165b806110fc5750336000908152600c602052604090205460ff165b6111185760405162461bcd60e51b815260040161099b90614704565b604051630dfcfa2560e41b8152600481018390526001600160a01b03828116602483015284169063dfcfa250906044015b600060405180830381600087803b15801561116357600080fd5b505af1158015611177573d6000803e3d6000fd5b50505050505050565b6001546001600160a01b031633146111aa5760405162461bcd60e51b815260040161099b90614704565b6000848484846040516020016111c39493929190614851565b6040516020818303038152906040528051906020012090506111e481613d78565b6111ed81613e3e565b6040516301e3366760e01b81526001600160a01b038616906301e336679061121d9087908790879060040161489d565b600060405180830381600087803b15801561123757600080fd5b505af115801561124b573d6000803e3d6000fd5b505050505050505050565b6001546001600160a01b031633146112805760405162461bcd60e51b815260040161099b90614704565b60405163f07bbf7760e01b815281151560048201526001600160a01b0383169063f07bbf779060240161102f565b6001546001600160a01b03163314806112d65750336000908152600b602052604090205460ff165b806112f05750336000908152600c602052604090205460ff165b61130c5760405162461bcd60e51b815260040161099b90614704565b60c882106113685760405162461bcd60e51b8152602060048201526024808201527f54696d656c6f636b3a20696e76616c6964205f66756e64696e6752617465466160448201526331ba37b960e11b606482015260840161099b565b60c881106113cb5760405162461bcd60e51b815260206004820152602a60248201527f54696d656c6f636b3a20696e76616c6964205f737461626c6546756e64696e676044820152692930ba32a330b1ba37b960b11b606482015260840161099b565b604051631144fa8d60e31b81526004810184905260248101839052604481018290526001600160a01b03851690638a27d46890606401610f6f565b6001546001600160a01b031633146114305760405162461bcd60e51b815260040161099b90614704565b6000838383604051602001611447939291906147f5565b60405160208183030381529060405280519060200120905061146881613cbb565b604080516001600160a01b0380871682528516602082015283151591810191909152606081018290527f1929c4e13b0dbbad7856b9ce1fc9dca98c7bf7cedd56e22c04dd60ad1d34fe4b90608001610a27565b6001546001600160a01b031633146114e55760405162461bcd60e51b815260040161099b90614704565b6040516305e17d4f60e21b81526001600160a01b038281166004830152831690631785f53c9060240161102f565b6001546001600160a01b0316331461153d5760405162461bcd60e51b815260040161099b90614704565b6000838383604051602001611554939291906148c1565b60405160208183030381529060405280519060200120905061157581613d78565b61157e81613e3e565b6000846001600160a01b03166374e6076c6040518163ffffffff1660e01b8152600401602060405180830381865afa1580156115be573d6000803e3d6000fd5b505050506040513d601f19601f820116820180604052508101906115e291906148fd565b6040516352f4877760e11b81529091506001600160a01b0386169063a5e90eee90611614903090600190600401614836565b600060405180830381600087803b15801561162e57600080fd5b505af1158015611642573d6000803e3d6000fd5b50506040516312b5ad0160e11b81523060048201526001600160a01b038416925063256b5a029150602401600060405180830381600087803b15801561168757600080fd5b505af115801561169b573d6000803e3d6000fd5b50506040516340c10f1960e01b81526001600160a01b03841692506340c10f1991506116cd90309087906004016147dc565b600060405180830381600087803b1580156116e757600080fd5b505af11580156116fb573d6000803e3d6000fd5b505060405163a9059cbb60e01b81526001600160a01b038416925063a9059cbb915061172d90889087906004016147dc565b6020604051808303816000875af115801561174c573d6000803e3d6000fd5b505050506040513d601f19601f820116820180604052508101906117709190614767565b50600354604051633b699bdd60e21b81526001600160a01b03868116600483015291821660248201529086169063eda66f74906044016020604051808303816000875af11580156117c5573d6000803e3d6000fd5b505050506040513d601f19601f820116820180604052508101906117e99190614784565b506040516352f4877760e11b81526001600160a01b0386169063a5e90eee90611819903090600090600401614836565b600060405180830381600087803b15801561183357600080fd5b505af1158015611847573d6000803e3d6000fd5b505060405163ceb68c2360e01b81523060048201526001600160a01b038416925063ceb68c23915060240161121d565b6001546001600160a01b031633146118a15760405162461bcd60e51b815260040161099b90614704565b604051631114e8dd60e21b81526001600160a01b03841690634453a374906111499085908590600401614836565b6001546001600160a01b031633146118f95760405162461bcd60e51b815260040161099b90614704565b6000848484846040516020016119129493929190614851565b60405160208183030381529060405280519060200120905061193381613cbb565b604080516001600160a01b0387811682528681166020830152851681830152606081018490526080810183905290517f9ed7b0f07a9eed51079fab67f6d0f141f167f5b17fdb5a23282280e15fcafed39181900360a00190a15050505050565b6001546001600160a01b031633146119bd5760405162461bcd60e51b815260040161099b90614704565b600480546040516327afb5af60e11b81529182018390526001600160a01b031690634f5f6b5e906024015b600060405180830381600087803b158015611a0257600080fd5b505af1158015611a16573d6000803e3d6000fd5b5050505050565b6001546001600160a01b03163314611a475760405162461bcd60e51b815260040161099b90614704565b60008282604051602001611a5c92919061491a565b604051602081830303815290604052805190602001209050611a7d81613d78565b611a8681613e3e565b6040516367d6abd160e11b81526001600160a01b03838116600483015284169063cfad57a290602401611149565b6001546001600160a01b0316331480611adc5750336000908152600b602052604090205460ff165b80611af65750336000908152600c602052604090205460ff165b611b125760405162461bcd60e51b815260040161099b90614704565b60405163836a018760e01b81526004810184905260248101839052604481018290526001600160a01b0385169063836a018790606401610f6f565b6001546001600160a01b03163314611b775760405162461bcd60e51b815260040161099b90614704565b306001600160a01b03831603611bcf5760405162461bcd60e51b815260206004820152601960248201527f54696d656c6f636b3a20696e76616c6964205f74617267657400000000000000604482015260640161099b565b604051633825b60160e11b81526001600160a01b03828116600483015283169063704b6c029060240161102f565b6001546001600160a01b0316331480611c255750336000908152600b602052604090205460ff165b611c415760405162461bcd60e51b815260040161099b90614704565b600954819060ff1615611ca957604051637c2eb9f760e01b8152600160048201526001600160a01b03821690637c2eb9f790602401600060405180830381600087803b158015611c9057600080fd5b505af1158015611ca4573d6000803e3d6000fd5b505050505b806001600160a01b03166340eb3802826001600160a01b0316637a210a2b6040518163ffffffff1660e01b8152600401602060405180830381865afa158015611cf6573d6000803e3d6000fd5b505050506040513d601f19601f82011682018060405250810190611d1a9190614784565b836001600160a01b03166310eb56c26040518163ffffffff1660e01b8152600401602060405180830381865afa158015611d58573d6000803e3d6000fd5b505050506040513d601f19601f82011682018060405250810190611d7c9190614784565b846001600160a01b0316634d47b3046040518163ffffffff1660e01b8152600401602060405180830381865afa158015611dba573d6000803e3d6000fd5b505050506040513d601f19601f82011682018060405250810190611dde9190614784565b856001600160a01b031663a22f23926040518163ffffffff1660e01b8152600401602060405180830381865afa158015611e1c573d6000803e3d6000fd5b505050506040513d601f19601f82011682018060405250810190611e409190614784565b866001600160a01b031663df73a2676040518163ffffffff1660e01b8152600401602060405180830381865afa158015611e7e573d6000803e3d6000fd5b505050506040513d601f19601f82011682018060405250810190611ea29190614784565b600754886001600160a01b031663174d26946040518163ffffffff1660e01b8152600401602060405180830381865afa158015611ee3573d6000803e3d6000fd5b505050506040513d601f19601f82011682018060405250810190611f079190614784565b896001600160a01b031663d9ac42256040518163ffffffff1660e01b8152600401602060405180830381865afa158015611f45573d6000803e3d6000fd5b505050506040513d601f19601f82011682018060405250810190611f699190614784565b8a6001600160a01b0316639f392eb36040518163ffffffff1660e01b8152600401602060405180830381865afa158015611fa7573d6000803e3d6000fd5b505050506040513d601f19601f82011682018060405250810190611fcb9190614767565b6040518a63ffffffff1660e01b815260040161102f9998979695949392919061494b565b6001546001600160a01b03163314806120175750336000908152600b602052604090205460ff165b806120315750336000908152600c602052604090205460ff165b61204d5760405162461bcd60e51b815260040161099b90614704565b60078490556008546040516320759c0160e11b81526001600160a01b038c16916340eb38029161208f918d918d918d918d918d918c908c908c9060040161494b565b600060405180830381600087803b1580156120a957600080fd5b505af11580156120bd573d6000803e3d6000fd5b5050505050505050505050505050565b6002546001600160a01b031633146120f75760405162461bcd60e51b815260040161099b90614704565b600180546001600160a01b0319166001600160a01b0392909216919091179055565b6001546001600160a01b031633146121435760405162461bcd60e51b815260040161099b90614704565b60048054604080516396a67d2560e01b815290516001600160a01b039092169260009284926396a67d2592818101926020929091908290030181865afa158015612191573d6000803e3d6000fd5b505050506040513d601f19601f820116820180604052508101906121b591906148fd565b6004805460405163cf456ae760e01b81529293506001600160a01b038085169363cf456ae7936121ec939092169160019101614836565b600060405180830381600087803b15801561220657600080fd5b505af115801561221a573d6000803e3d6000fd5b505050506000826001600160a01b03166374e6076c6040518163ffffffff1660e01b8152600401602060405180830381865afa15801561225e573d6000803e3d6000fd5b505050506040513d601f19601f8201168201806040525081019061228291906148fd565b600480546040516312b5ad0160e11b81526001600160a01b03918216928101929092529192509082169063256b5a0290602401600060405180830381600087803b1580156122cf57600080fd5b505af11580156122e3573d6000803e3d6000fd5b505050506000836001600160a01b031663fbfa77cf6040518163ffffffff1660e01b8152600401602060405180830381865afa158015612327573d6000803e3d6000fd5b505050506040513d601f19601f8201168201806040525081019061234b91906148fd565b600480546040516352f4877760e11b81529293506001600160a01b038085169363a5e90eee93610f6f939092169160019101614836565b6001546001600160a01b031633146123ac5760405162461bcd60e51b815260040161099b90614704565b600082826040516020016123c192919061498c565b6040516020818303038152906040528051906020012090506123e281613d78565b6123eb81613e3e565b6040516339273c6d60e11b81526001600160a01b03838116600483015284169063724e78da90602401611149565b6001546001600160a01b031633146124435760405162461bcd60e51b815260040161099b90614704565b61244c81613e3e565b50565b6001546001600160a01b031633146124795760405162461bcd60e51b815260040161099b90614704565b6207a12081116124cb5760405162461bcd60e51b815260206004820152601e60248201527f54696d656c6f636b3a20696e76616c6964205f6d61784c657665726167650000604482015260640161099b565b60405163d3127e6360e01b8152600481018290526001600160a01b0383169063d3127e639060240161102f565b6001546001600160a01b03163314806125205750336000908152600b602052604090205460ff165b8061253a5750336000908152600c602052604090205460ff165b6125565760405162461bcd60e51b815260040161099b90614704565b6000600460009054906101000a90046001600160a01b03166001600160a01b03166374e6076c6040518163ffffffff1660e01b8152600401602060405180830381865afa1580156125ab573d6000803e3d6000fd5b505050506040513d601f19601f820116820180604052508101906125cf91906148fd565b600480546040516370a0823160e01b81526001600160a01b03918216928101929092529192506000918316906370a0823190602401602060405180830381865afa158015612621573d6000803e3d6000fd5b505050506040513d601f19601f820116820180604052508101906126459190614784565b6040516312b5ad0160e11b81523060048201529091506001600160a01b0383169063256b5a0290602401600060405180830381600087803b15801561268957600080fd5b505af115801561269d573d6000803e3d6000fd5b50505050808311156127235760006126b582856149d9565b600480546040516340c10f1960e01b81529293506001600160a01b03808716936340c10f19936126eb93909216918691016147dc565b600060405180830381600087803b15801561270557600080fd5b505af1158015612719573d6000803e3d6000fd5b5050505050612799565b600061272f84836149d9565b60048054604051632770a7eb60e21b81529293506001600160a01b0380871693639dc29fac9361276593909216918691016147dc565b600060405180830381600087803b15801561277f57600080fd5b505af1158015612793573d6000803e3d6000fd5b50505050505b60405163ceb68c2360e01b81523060048201526001600160a01b0383169063ceb68c2390602401611149565b6001546001600160a01b031633146127ef5760405162461bcd60e51b815260040161099b90614704565b6000828260405160200161280492919061498c565b60405160208183030381529060405280519060200120905061282581613cbb565b7fb878dd4b5762f4118ad54995be907dd2bcd915d942e4ac75580fba9b4ee4727f8383836040516128589392919061489d565b60405180910390a1505050565b6001546001600160a01b0316331461288f5760405162461bcd60e51b815260040161099b90614704565b604051635a47a1a760e01b815281151560048201526001600160a01b03831690635a47a1a79060240161102f565b6001546001600160a01b031633146128e75760405162461bcd60e51b815260040161099b90614704565b64012a05f20081116129325760405162461bcd60e51b8152602060048201526014602482015273496e76616c6964205f6d6178476173507269636560601b604482015260640161099b565b60405163697d31af60e11b8152600481018290526001600160a01b0383169063d2fa635e9060240161102f565b6001546001600160a01b03163314806129875750336000908152600b602052604090205460ff165b6129a35760405162461bcd60e51b815260040161099b90614704565b6009805460ff1916911515919091179055565b6001546001600160a01b03163314806129de5750336000908152600b602052604090205460ff165b806129f85750336000908152600c602052604090205460ff165b612a145760405162461bcd60e51b815260040161099b90614704565b60005b8251811015610ed057836001600160a01b0316636616ba94848381518110612a4157612a416149f2565b6020026020010151848481518110612a5b57612a5b6149f2565b60200260200101516040518363ffffffff1660e01b8152600401612a809291906147dc565b600060405180830381600087803b158015612a9a57600080fd5b505af1158015612aae573d6000803e3d6000fd5b505050508080612abd90614a08565b915050612a17565b6001546001600160a01b03163314612aef5760405162461bcd60e51b815260040161099b90614704565b60008282604051602001612b0492919061491a565b604051602081830303815290604052805190602001209050612b2581613cbb565b7f2701a94fd55a560e291f3c54d36580040670d6fde558a77a75d619e38139f7138383836040516128589392919061489d565b6001546001600160a01b03163314612b825760405162461bcd60e51b815260040161099b90614704565b62069780811115612bd55760405162461bcd60e51b815260206004820152601960248201527f54696d656c6f636b3a20696e76616c6964205f62756666657200000000000000604482015260640161099b565b6000548111612c325760405162461bcd60e51b8152602060048201526024808201527f54696d656c6f636b3a206275666665722063616e6e6f74206265206465637265604482015263185cd95960e21b606482015260840161099b565b600055565b6001546001600160a01b03163314612c615760405162461bcd60e51b815260040161099b90614704565b600554604080516375d838df60e11b815290516001600160a01b0390921691829163ebb071be9160048083019260209291908290030181865afa158015612cac573d6000803e3d6000fd5b505050506040513d601f19601f82011682018060405250810190612cd091906148fd565b600554604051639cb7de4b60e01b81526001600160a01b0392831692639cb7de4b92612d0492911690600190600401614836565b600060405180830381600087803b158015612d1e57600080fd5b505af1158015612d32573d6000803e3d6000fd5b505060048054600554604051639cb7de4b60e01b81526001600160a01b039283169550639cb7de4b94506119e893919092169160019101614836565b6001546001600160a01b03163314612d985760405162461bcd60e51b815260040161099b90614704565b6000838383604051602001612daf939291906148c1565b604051602081830303815290604052805190602001209050612dd081613cbb565b7ff7939bc8b606638d899ab039a0a8cedf853cfea7e9797919f4765e6c7433d491848484604051610a279392919061489d565b6001546001600160a01b03163314612e2d5760405162461bcd60e51b815260040161099b90614704565b6040516371089f4d60e01b81526001600160a01b0382811660048301528316906371089f4d9060240161102f565b6001546001600160a01b03163314612e855760405162461bcd60e51b815260040161099b90614704565b6000838383604051602001612e9c93929190614731565b604051602081830303815290604052805190602001209050612ebd81613d78565b612ec681613e3e565b610ed0848484613ede565b6001546001600160a01b0316331480612ef95750336000908152600b602052604090205460ff165b80612f135750336000908152600c602052604090205460ff165b612f2f5760405162461bcd60e51b815260040161099b90614704565b604051633fb8b32360e01b81526001600160a01b03841690633fb8b3239061114990859085906004016147dc565b6001546001600160a01b0316331480612f855750336000908152600b602052604090205460ff165b612fa15760405162461bcd60e51b815260040161099b90614704565b604051637c2eb9f760e01b815281151560048201526001600160a01b03831690637c2eb9f79060240161102f565b6001546001600160a01b03163314612ff95760405162461bcd60e51b815260040161099b90614704565b6001600160a01b03919091166000908152600c60205260409020805460ff1916911515919091179055565b6001546001600160a01b031633148061304c5750336000908152600b602052604090205460ff165b6130685760405162461bcd60e51b815260040161099b90614704565b600954819060ff16156130d057604051637c2eb9f760e01b8152600060048201526001600160a01b03821690637c2eb9f790602401600060405180830381600087803b1580156130b757600080fd5b505af11580156130cb573d6000803e3d6000fd5b505050505b806001600160a01b03166340eb3802826001600160a01b0316637a210a2b6040518163ffffffff1660e01b8152600401602060405180830381865afa15801561311d573d6000803e3d6000fd5b505050506040513d601f19601f820116820180604052508101906131419190614784565b836001600160a01b03166310eb56c26040518163ffffffff1660e01b8152600401602060405180830381865afa15801561317f573d6000803e3d6000fd5b505050506040513d601f19601f820116820180604052508101906131a39190614784565b846001600160a01b0316634d47b3046040518163ffffffff1660e01b8152600401602060405180830381865afa1580156131e1573d6000803e3d6000fd5b505050506040513d601f19601f820116820180604052508101906132059190614784565b856001600160a01b031663a22f23926040518163ffffffff1660e01b8152600401602060405180830381865afa158015613243573d6000803e3d6000fd5b505050506040513d601f19601f820116820180604052508101906132679190614784565b866001600160a01b031663df73a2676040518163ffffffff1660e01b8152600401602060405180830381865afa1580156132a5573d6000803e3d6000fd5b505050506040513d601f19601f820116820180604052508101906132c99190614784565b600854886001600160a01b031663174d26946040518163ffffffff1660e01b8152600401602060405180830381865afa158015611ee3573d6000803e3d6000fd5b6001546001600160a01b03163314806133325750336000908152600b602052604090205460ff165b8061334c5750336000908152600c602052604090205460ff165b6133685760405162461bcd60e51b815260040161099b90614704565b6000869050806001600160a01b03166340eb38028787878787600854886001600160a01b031663174d26946040518163ffffffff1660e01b8152600401602060405180830381865afa1580156133c2573d6000803e3d6000fd5b505050506040513d601f19601f820116820180604052508101906133e69190614784565b896001600160a01b031663d9ac42256040518163ffffffff1660e01b8152600401602060405180830381865afa158015613424573d6000803e3d6000fd5b505050506040513d601f19601f820116820180604052508101906134489190614784565b8a6001600160a01b0316639f392eb36040518163ffffffff1660e01b8152600401602060405180830381865afa158015613486573d6000803e3d6000fd5b505050506040513d601f19601f820116820180604052508101906134aa9190614767565b6040518a63ffffffff1660e01b81526004016134ce9998979695949392919061494b565b600060405180830381600087803b1580156134e857600080fd5b505af11580156134fc573d6000803e3d6000fd5b5050505050505050505050565b6001546001600160a01b031633146135335760405162461bcd60e51b815260040161099b90614704565b60008888888888888888604051602001613554989796959493929190614a21565b60405160208183030381529060405280519060200120905061357581613cbb565b604080516001600160a01b03808c1682528a166020820152908101889052606081018790526080810186905260a0810185905283151560c082015282151560e08201527f3510e9d8245371c6c1061c33781ce16bd0eafa03cd3d0781865036520af4c743906101000160405180910390a1505050505050505050565b6001546001600160a01b0316331461361b5760405162461bcd60e51b815260040161099b90614704565b600083838360405160200161363293929190614a91565b60405160208183030381529060405280519060200120905061365381613cbb565b604080516001600160a01b03808716825285166020820152908101839052606081018290527f6af9d86ba7407a934e941ed8ae5f779369a88fe8ba2cd1c204185d6f8a8287fd90608001610a27565b6001546001600160a01b031633146136cc5760405162461bcd60e51b815260040161099b90614704565b6040516377d0853760e11b81526001600160a01b0384169063efa10a6e9061114990859085906004016147dc565b6001546001600160a01b031633146137245760405162461bcd60e51b815260040161099b90614704565b600083838360405160200161373b93929190614a91565b60405160208183030381529060405280519060200120905061375c81613d78565b61376581613e3e565b60405163095ea7b360e01b81526001600160a01b0385169063095ea7b39061379390869086906004016147dc565b6020604051808303816000875af11580156137b2573d6000803e3d6000fd5b505050506040513d601f19601f82011682018060405250810190611a169190614767565b6001546001600160a01b03163314806137fe5750336000908152600b602052604090205460ff165b61381a5760405162461bcd60e51b815260040161099b90614704565b600791909155600855565b6001546001600160a01b0316331461384f5760405162461bcd60e51b815260040161099b90614704565b611c2081106138ac5760405162461bcd60e51b815260206004820152602360248201527f54696d656c6f636b3a20696e76616c6964205f636f6f6c646f776e447572617460448201526234b7b760e91b606482015260840161099b565b6004805460405163966be07560e01b81529182018390526001600160a01b03169063966be075906024016119e8565b6001546001600160a01b031633146139055760405162461bcd60e51b815260040161099b90614704565b60008888888888888888604051602001613926989796959493929190614a21565b60405160208183030381529060405280519060200120905061394781613d78565b61395081613e3e565b604051633c5a6e3560e01b81526001600160a01b038a1690633c5a6e3590613988908b908b908b908b908b908b908b9060040161479d565b600060405180830381600087803b1580156139a257600080fd5b505af11580156139b6573d6000803e3d6000fd5b50505050505050505050505050565b6001546001600160a01b031633146139ef5760405162461bcd60e51b815260040161099b90614704565b6040516323b872dd60e01b81526001600160a01b038316906323b872dd90613a1f9086903090869060040161489d565b6020604051808303816000875af1158015613a3e573d6000803e3d6000fd5b505050506040513d601f19601f82011682018060405250810190610ed09190614767565b6001546001600160a01b0316331480613a8a5750336000908152600b602052604090205460ff165b80613aa45750336000908152600c602052604090205460ff165b613ac05760405162461bcd60e51b815260040161099b90614704565b60005b8151811015613b7f57826001600160a01b031663f2555278838381518110613aed57613aed6149f2565b602090810291909101015160015460405160e084901b6001600160e01b03191681526001600160a01b039283166004820152911660248201526044016020604051808303816000875af1158015613b48573d6000803e3d6000fd5b505050506040513d601f19601f82011682018060405250810190613b6c9190614784565b5080613b7781614a08565b915050613ac3565b505050565b6001546001600160a01b03163314613bae5760405162461bcd60e51b815260040161099b90614704565b60008282604051602001613bc3929190614aca565b604051602081830303815290604052805190602001209050613be481613cbb565b604080516001600160a01b038086168252841660208201527f92aa148b67771581bf3d7ad5ca4472bb7dea42c9b53ae3d5ea11fc64f58720aa9101612858565b6001546001600160a01b03163314613c4e5760405162461bcd60e51b815260040161099b90614704565b60008282604051602001613c63929190614aca565b604051602081830303815290604052805190602001209050613c8481613d78565b613c8d81613e3e565b60405163e67f59a760e01b81526001600160a01b03838116600483015284169063e67f59a790602401611149565b6000818152600a602052604090205415613d225760405162461bcd60e51b815260206004820152602260248201527f54696d656c6f636b3a20616374696f6e20616c7265616479207369676e616c6c604482015261195960f21b606482015260840161099b565b600054613d2f9042614b0a565b6000828152600a602090815260409182902092909255518281527f5fb9c0ecf7b4a28c4c480212e868f9da7f373a2ed4d23498b0be6aadf35242fb91015b60405180910390a150565b6000818152600a60205260408120549003613dd55760405162461bcd60e51b815260206004820152601e60248201527f54696d656c6f636b3a20616374696f6e206e6f74207369676e616c6c65640000604482015260640161099b565b6000818152600a6020526040902054421161244c5760405162461bcd60e51b8152602060048201526024808201527f54696d656c6f636b3a20616374696f6e2074696d65206e6f74207965742070616044820152631cdcd95960e21b606482015260840161099b565b6000818152600a60205260408120549003613e9b5760405162461bcd60e51b815260206004820152601960248201527f54696d656c6f636b3a20696e76616c6964205f616374696f6e00000000000000604482015260640161099b565b6000818152600a602052604080822091909155517f194ed6dd5e37e2acc44a19455c3f208c4831ee695fe362d9c4ef2d316bc53aec90613d6d9083815260200190565b60405163cf456ae760e01b815283906001600160a01b0382169063cf456ae790613f0f903090600190600401614836565b600060405180830381600087803b158015613f2957600080fd5b505af1158015613f3d573d6000803e3d6000fd5b50506040516340c10f1960e01b81526001600160a01b03841692506340c10f199150613f6f90869086906004016147dc565b600060405180830381600087803b158015613f8957600080fd5b505af1158015613f9d573d6000803e3d6000fd5b50505050600654846001600160a01b03166318160ddd6040518163ffffffff1660e01b8152600401602060405180830381865afa158015613fe2573d6000803e3d6000fd5b505050506040513d601f19601f820116820180604052508101906140069190614784565b111561405e5760405162461bcd60e51b815260206004820152602160248201527f54696d656c6f636b3a206d6178546f6b656e537570706c7920657863656564656044820152601960fa1b606482015260840161099b565b60405163cf456ae760e01b81526001600160a01b0382169063cf456ae790610f6f903090600090600401614836565b6001600160a01b038116811461244c57600080fd5b6000806000606084860312156140b757600080fd5b83356140c28161408d565b925060208401356140d28161408d565b929592945050506040919091013590565b600080600080600080600060e0888a0312156140fe57600080fd5b87356141098161408d565b965060208801356141198161408d565b96999698505050506040850135946060810135946080820135945060a0820135935060c0909101359150565b60008060006060848603121561415a57600080fd5b83356141658161408d565b925060208401356141758161408d565b915060408401356141858161408d565b809150509250925092565b801515811461244c57600080fd5b6000806000606084860312156141b357600080fd5b83356141be8161408d565b925060208401356141ce8161408d565b9150604084013561418581614190565b600080604083850312156141f157600080fd5b82356141fc8161408d565b9150602083013561420c81614190565b809150509250929050565b60008060006060848603121561422c57600080fd5b83356142378161408d565b92506020840135915060408401356141858161408d565b6000806000806080858703121561426457600080fd5b843561426f8161408d565b9350602085013561427f8161408d565b9250604085013561428f8161408d565b9396929550929360600135925050565b600080600080608085870312156142b557600080fd5b84356142c08161408d565b966020860135965060408601359560600135945092505050565b600080604083850312156142ed57600080fd5b82356142f88161408d565b9150602083013561420c8161408d565b60006020828403121561431a57600080fd5b81356143258161408d565b9392505050565b60006020828403121561433e57600080fd5b5035919050565b6000806000806000806000806000806101408b8d03121561436557600080fd5b8a356143708161408d565b995060208b0135985060408b0135975060608b0135965060808b0135955060a08b0135945060c08b0135935060e08b013592506101008b013591506101208b01356143ba81614190565b809150509295989b9194979a5092959850565b600080604083850312156143e057600080fd5b82356143eb8161408d565b946020939093013593505050565b60006020828403121561440b57600080fd5b813561432581614190565b634e487b7160e01b600052604160045260246000fd5b604051601f8201601f1916810167ffffffffffffffff8111828210171561445557614455614416565b604052919050565b600067ffffffffffffffff82111561447757614477614416565b5060051b60200190565b600082601f83011261449257600080fd5b813560206144a76144a28361445d565b61442c565b82815260059290921b840181019181810190868411156144c657600080fd5b8286015b848110156144ea5780356144dd8161408d565b83529183019183016144ca565b509695505050505050565b60008060006060848603121561450a57600080fd5b83356145158161408d565b925060208481013567ffffffffffffffff8082111561453357600080fd5b61453f88838901614481565b9450604087013591508082111561455557600080fd5b508501601f8101871361456757600080fd5b80356145756144a28261445d565b81815260059190911b8201830190838101908983111561459457600080fd5b928401925b828410156145b257833582529284019290840190614599565b80955050505050509250925092565b60008060008060008060c087890312156145da57600080fd5b86356145e58161408d565b9860208801359850604088013597606081013597506080810135965060a00135945092505050565b600080600080600080600080610100898b03121561462a57600080fd5b88356146358161408d565b975060208901356146458161408d565b965060408901359550606089013594506080890135935060a0890135925060c089013561467181614190565b915060e089013561468181614190565b809150509295985092959890939650565b600080604083850312156146a557600080fd5b50508035926020909101359150565b600080604083850312156146c757600080fd5b82356146d28161408d565b9150602083013567ffffffffffffffff8111156146ee57600080fd5b6146fa85828601614481565b9150509250929050565b6020808252601390820152722a34b6b2b637b1b59d103337b93134b23232b760691b604082015260600190565b631b5a5b9d60e21b81526001600160601b0319606094851b811660048301529290931b9091166018830152602c820152604c0190565b60006020828403121561477957600080fd5b815161432581614190565b60006020828403121561479657600080fd5b5051919050565b6001600160a01b039790971687526020870195909552604086019390935260608501919091526080840152151560a0830152151560c082015260e00190565b6001600160a01b03929092168252602082015260400190565b6939b2ba2430b7323632b960b11b81526001600160601b0319606094851b8116600a8301529290931b909116601e830152151560f81b603282015260330190565b6001600160a01b039290921682521515602082015260400190565b6c3bb4ba34323930bbaa37b5b2b760991b81526001600160601b0319606095861b8116600d83015293851b841660218201529190931b9091166035820152604981019190915260690190565b6001600160a01b039384168152919092166020820152604081019190915260600190565b69072656465656d557364760b41b81526001600160601b0319606094851b8116600a8301529290931b909116601e830152603282015260520190565b60006020828403121561490f57600080fd5b81516143258161408d565b6539b2ba23b7bb60d11b81526001600160601b0319606093841b811660068301529190921b16601a820152602e0190565b988952602089019790975260408801959095526060870193909352608086019190915260a085015260c084015260e083015215156101008201526101200190565b6b1cd95d141c9a58d95199595960a21b81526001600160601b0319606093841b8116600c8301529190921b16602082015260340190565b634e487b7160e01b600052601160045260246000fd5b818103818111156149ec576149ec6149c3565b92915050565b634e487b7160e01b600052603260045260246000fd5b600060018201614a1a57614a1a6149c3565b5060010190565b727661756c74536574546f6b656e436f6e66696760681b81526001600160601b03196060998a1b811660138301529790981b9096166027880152603b870194909452605b860192909252607b850152609b840152151560f890811b60bb840152901515901b60bc82015260bd0190565b66617070726f766560c81b81526001600160601b0319606094851b811660078301529290931b909116601b830152602f820152604f0190565b747661756c74436c656172546f6b656e436f6e66696760581b81526001600160601b0319606093841b811660158301529190921b166029820152603d0190565b808201808211156149ec576149ec6149c356fea2646970667358221220dffb6c96ad93e28b852864ba8431f51f7d7950f2462c9e8ab1d44cd22c5fbb2064736f6c63430008120033",
    "linkReferences": {}
  },
  "methodIdentifiers": {
    "MAX_BUFFER()": "61d07569",
    "MAX_FUNDING_RATE_FACTOR()": "8a39735a",
    "MAX_LEVERAGE_VALIDATION()": "2ba3725a",
    "PRICE_PRECISION()": "95082d25",
    "admin()": "f851a440",
    "approve(address,address,uint256)": "e1f21c67",
    "batchWithdrawFees(address,address[])": "e8ae2271",
    "brrrManager()": "e76ab00f",
    "buffer()": "edaafe20",
    "cancelAction(bytes32)": "781cc3d3",
    "disableLeverage(address)": "d3c87bbb",
    "enableLeverage(address)": "6d63c1d0",
    "govSetCodeOwner(address,bytes32,address)": "204bbc54",
    "initBrrrManager()": "73864944",
    "initRewardRouter()": "afd14deb",
    "isHandler(address)": "46ea87af",
    "isKeeper(address)": "6ba42aaa",
    "marginFeeBasisPoints()": "318bc689",
    "maxMarginFeeBasisPoints()": "996e2bc9",
    "maxTokenSupply()": "50f7c204",
    "mintReceiver()": "c7bb26a0",
    "pendingActions(bytes32)": "e30569e5",
    "processMint(address,address,uint256)": "bc8a8ab9",
    "redeemUsdp(address,address,uint256)": "344085b3",
    "removeAdmin(address,address)": "268959e5",
    "rewardRouter()": "5a3bb989",
    "setAdmin(address)": "704b6c02",
    "setBrrrCooldownDuration(uint256)": "e3b6cd07",
    "setBuffer(uint256)": "adc7ea37",
    "setContractHandler(address,bool)": "185051c1",
    "setExternalAdmin(address,address)": "55ef1395",
    "setFees(address,uint256,uint256,uint256,uint256,uint256,uint256,uint256,uint256,bool)": "6e5227d4",
    "setFundingRate(address,uint256,uint256,uint256)": "227f03eb",
    "setGov(address,address)": "51a6de0d",
    "setHandler(address,address,bool)": "1154e808",
    "setInPrivateLiquidationMode(address,bool)": "21bd0592",
    "setInPrivateTransferMode(address,bool)": "86803c72",
    "setIsLeverageEnabled(address,bool)": "cd2b1230",
    "setIsSwapEnabled(address,bool)": "117cf204",
    "setKeeper(address,bool)": "d1b9e853",
    "setLiquidator(address,address,bool)": "47de43e2",
    "setMarginFeeBasisPoints(uint256,uint256)": "e21b4591",
    "setMaxGasPrice(address,uint256)": "8bf22c46",
    "setMaxGlobalShortSize(address,address,uint256)": "df3a66d9",
    "setMaxLeverage(address,uint256)": "7b6f775a",
    "setPriceFeed(address,address)": "76e11286",
    "setReferrerTier(address,address,uint256)": "c142940a",
    "setShortsTrackerAveragePriceWeight(uint256)": "4f5f6b5e",
    "setShouldToggleIsLeverageEnabled(bool)": "8e34c98f",
    "setSwapFees(address,uint256,uint256,uint256,uint256,uint256)": "da762316",
    "setTier(address,uint256,uint256,uint256)": "55818294",
    "setTokenConfig(address,address,uint256,uint256,uint256,uint256,uint256)": "0e0dc426",
    "setUsdpAmounts(address,address[],uint256[])": "98c8a100",
    "setVaultUtils(address,address)": "bc476dfd",
    "shouldToggleIsLeverageEnabled()": "23aaad12",
    "signalApprove(address,address,uint256)": "dce6e18d",
    "signalMint(address,address,uint256)": "09cc9a08",
    "signalRedeemUsdp(address,address,uint256)": "b8361ebb",
    "signalSetGov(address,address)": "996a7a1e",
    "signalSetHandler(address,address,bool)": "24ccbe30",
    "signalSetPriceFeed(address,address)": "80894d62",
    "signalVaultClearTokenConfig(address,address)": "f58ed351",
    "signalVaultSetTokenConfig(address,address,uint256,uint256,uint256,uint256,bool,bool)": "db1c8441",
    "signalWithdrawToken(address,address,address,uint256)": "4cd23f3b",
    "tokenManager()": "2a709b14",
    "transferIn(address,address,uint256)": "e4652f49",
    "updateUsdpSupply(uint256)": "7ec7929b",
    "vaultClearTokenConfig(address,address)": "f67f8e4f",
    "vaultSetTokenConfig(address,address,uint256,uint256,uint256,uint256,bool,bool)": "e3cbeb0f",
    "withdrawFees(address,address,address)": "0e9587f3",
    "withdrawToken(address,address,address,uint256)": "21754d9e"
  },
  "id": 72
}