{
  "abi": [
    {
      "inputs": [
        {
          "internalType": "address",
          "name": "_admin",
          "type": "address"
        },
        {
          "internalType": "uint256",
          "name": "_buffer",
          "type": "uint256"
        },
        {
          "internalType": "address",
          "name": "_tokenManager",
          "type": "address"
        },
        {
          "internalType": "address",
          "name": "_mintReceiver",
          "type": "address"
        },
        {
          "internalType": "address",
          "name": "_brrrManager",
          "type": "address"
        },
        {
          "internalType": "uint256",
          "name": "_maxTokenSupply",
          "type": "uint256"
        },
        {
          "internalType": "uint256",
          "name": "_marginFeeBasisPoints",
          "type": "uint256"
        },
        {
          "internalType": "uint256",
          "name": "_maxMarginFeeBasisPoints",
          "type": "uint256"
        }
      ],
      "stateMutability": "nonpayable",
      "type": "constructor"
    },
    {
      "anonymous": false,
      "inputs": [
        {
          "indexed": false,
          "internalType": "bytes32",
          "name": "action",
          "type": "bytes32"
        }
      ],
      "name": "ClearAction",
      "type": "event"
    },
    {
      "anonymous": false,
      "inputs": [
        {
          "indexed": false,
          "internalType": "address",
          "name": "token",
          "type": "address"
        },
        {
          "indexed": false,
          "internalType": "address",
          "name": "spender",
          "type": "address"
        },
        {
          "indexed": false,
          "internalType": "uint256",
          "name": "amount",
          "type": "uint256"
        },
        {
          "indexed": false,
          "internalType": "bytes32",
          "name": "action",
          "type": "bytes32"
        }
      ],
      "name": "SignalApprove",
      "type": "event"
    },
    {
      "anonymous": false,
      "inputs": [
        {
          "indexed": false,
          "internalType": "address",
          "name": "vault",
          "type": "address"
        },
        {
          "indexed": false,
          "internalType": "address",
          "name": "token",
          "type": "address"
        },
        {
          "indexed": false,
          "internalType": "bytes32",
          "name": "action",
          "type": "bytes32"
        }
      ],
      "name": "SignalClearSetTokenConfig",
      "type": "event"
    },
    {
      "anonymous": false,
      "inputs": [
        {
          "indexed": false,
          "internalType": "address",
          "name": "token",
          "type": "address"
        },
        {
          "indexed": false,
          "internalType": "address",
          "name": "receiver",
          "type": "address"
        },
        {
          "indexed": false,
          "internalType": "uint256",
          "name": "amount",
          "type": "uint256"
        },
        {
          "indexed": false,
          "internalType": "bytes32",
          "name": "action",
          "type": "bytes32"
        }
      ],
      "name": "SignalMint",
      "type": "event"
    },
    {
      "anonymous": false,
      "inputs": [
        {
          "indexed": false,
          "internalType": "bytes32",
          "name": "action",
          "type": "bytes32"
        }
      ],
      "name": "SignalPendingAction",
      "type": "event"
    },
    {
      "anonymous": false,
      "inputs": [
        {
          "indexed": false,
          "internalType": "address",
          "name": "vault",
          "type": "address"
        },
        {
          "indexed": false,
          "internalType": "address",
          "name": "token",
          "type": "address"
        },
        {
          "indexed": false,
          "internalType": "uint256",
          "name": "amount",
          "type": "uint256"
        }
      ],
      "name": "SignalRedeemUsdp",
      "type": "event"
    },
    {
      "anonymous": false,
      "inputs": [
        {
          "indexed": false,
          "internalType": "address",
          "name": "target",
          "type": "address"
        },
        {
          "indexed": false,
          "internalType": "address",
          "name": "gov",
          "type": "address"
        },
        {
          "indexed": false,
          "internalType": "bytes32",
          "name": "action",
          "type": "bytes32"
        }
      ],
      "name": "SignalSetGov",
      "type": "event"
    },
    {
      "anonymous": false,
      "inputs": [
        {
          "indexed": false,
          "internalType": "address",
          "name": "target",
          "type": "address"
        },
        {
          "indexed": false,
          "internalType": "address",
          "name": "handler",
          "type": "address"
        },
        {
          "indexed": false,
          "internalType": "bool",
          "name": "isActive",
          "type": "bool"
        },
        {
          "indexed": false,
          "internalType": "bytes32",
          "name": "action",
          "type": "bytes32"
        }
      ],
      "name": "SignalSetHandler",
      "type": "event"
    },
    {
      "anonymous": false,
      "inputs": [
        {
          "indexed": false,
          "internalType": "address",
          "name": "vault",
          "type": "address"
        },
        {
          "indexed": false,
          "internalType": "address",
          "name": "priceFeed",
          "type": "address"
        },
        {
          "indexed": false,
          "internalType": "bytes32",
          "name": "action",
          "type": "bytes32"
        }
      ],
      "name": "SignalSetPriceFeed",
      "type": "event"
    },
    {
      "anonymous": false,
      "inputs": [
        {
          "indexed": false,
          "internalType": "address",
          "name": "vault",
          "type": "address"
        },
        {
          "indexed": false,
          "internalType": "address",
          "name": "token",
          "type": "address"
        },
        {
          "indexed": false,
          "internalType": "uint256",
          "name": "tokenDecimals",
          "type": "uint256"
        },
        {
          "indexed": false,
          "internalType": "uint256",
          "name": "tokenWeight",
          "type": "uint256"
        },
        {
          "indexed": false,
          "internalType": "uint256",
          "name": "minProfitBps",
          "type": "uint256"
        },
        {
          "indexed": false,
          "internalType": "uint256",
          "name": "maxUsdpAmount",
          "type": "uint256"
        },
        {
          "indexed": false,
          "internalType": "bool",
          "name": "isStable",
          "type": "bool"
        },
        {
          "indexed": false,
          "internalType": "bool",
          "name": "isShortable",
          "type": "bool"
        }
      ],
      "name": "SignalVaultSetTokenConfig",
      "type": "event"
    },
    {
      "anonymous": false,
      "inputs": [
        {
          "indexed": false,
          "internalType": "address",
          "name": "target",
          "type": "address"
        },
        {
          "indexed": false,
          "internalType": "address",
          "name": "token",
          "type": "address"
        },
        {
          "indexed": false,
          "internalType": "address",
          "name": "receiver",
          "type": "address"
        },
        {
          "indexed": false,
          "internalType": "uint256",
          "name": "amount",
          "type": "uint256"
        },
        {
          "indexed": false,
          "internalType": "bytes32",
          "name": "action",
          "type": "bytes32"
        }
      ],
      "name": "SignalWithdrawToken",
      "type": "event"
    },
    {
      "inputs": [],
      "name": "MAX_BUFFER",
      "outputs": [
        {
          "internalType": "uint256",
          "name": "",
          "type": "uint256"
        }
      ],
      "stateMutability": "view",
      "type": "function"
    },
    {
      "inputs": [],
      "name": "MAX_FUNDING_RATE_FACTOR",
      "outputs": [
        {
          "internalType": "uint256",
          "name": "",
          "type": "uint256"
        }
      ],
      "stateMutability": "view",
      "type": "function"
    },
    {
      "inputs": [],
      "name": "MAX_LEVERAGE_VALIDATION",
      "outputs": [
        {
          "internalType": "uint256",
          "name": "",
          "type": "uint256"
        }
      ],
      "stateMutability": "view",
      "type": "function"
    },
    {
      "inputs": [],
      "name": "PRICE_PRECISION",
      "outputs": [
        {
          "internalType": "uint256",
          "name": "",
          "type": "uint256"
        }
      ],
      "stateMutability": "view",
      "type": "function"
    },
    {
      "inputs": [],
      "name": "admin",
      "outputs": [
        {
          "internalType": "address",
          "name": "",
          "type": "address"
        }
      ],
      "stateMutability": "view",
      "type": "function"
    },
    {
      "inputs": [
        {
          "internalType": "address",
          "name": "_token",
          "type": "address"
        },
        {
          "internalType": "address",
          "name": "_spender",
          "type": "address"
        },
        {
          "internalType": "uint256",
          "name": "_amount",
          "type": "uint256"
        }
      ],
      "name": "approve",
      "outputs": [],
      "stateMutability": "nonpayable",
      "type": "function"
    },
    {
      "inputs": [
        {
          "internalType": "address",
          "name": "_vault",
          "type": "address"
        },
        {
          "internalType": "address[]",
          "name": "_tokens",
          "type": "address[]"
        }
      ],
      "name": "batchWithdrawFees",
      "outputs": [],
      "stateMutability": "nonpayable",
      "type": "function"
    },
    {
      "inputs": [],
      "name": "brrrManager",
      "outputs": [
        {
          "internalType": "address",
          "name": "",
          "type": "address"
        }
      ],
      "stateMutability": "view",
      "type": "function"
    },
    {
      "inputs": [],
      "name": "buffer",
      "outputs": [
        {
          "internalType": "uint256",
          "name": "",
          "type": "uint256"
        }
      ],
      "stateMutability": "view",
      "type": "function"
    },
    {
      "inputs": [
        {
          "internalType": "bytes32",
          "name": "_action",
          "type": "bytes32"
        }
      ],
      "name": "cancelAction",
      "outputs": [],
      "stateMutability": "nonpayable",
      "type": "function"
    },
    {
      "inputs": [
        {
          "internalType": "address",
          "name": "_vault",
          "type": "address"
        }
      ],
      "name": "disableLeverage",
      "outputs": [],
      "stateMutability": "nonpayable",
      "type": "function"
    },
    {
      "inputs": [
        {
          "internalType": "address",
          "name": "_vault",
          "type": "address"
        }
      ],
      "name": "enableLeverage",
      "outputs": [],
      "stateMutability": "nonpayable",
      "type": "function"
    },
    {
      "inputs": [
        {
          "internalType": "address",
          "name": "_referralStorage",
          "type": "address"
        },
        {
          "internalType": "bytes32",
          "name": "_code",
          "type": "bytes32"
        },
        {
          "internalType": "address",
          "name": "_newAccount",
          "type": "address"
        }
      ],
      "name": "govSetCodeOwner",
      "outputs": [],
      "stateMutability": "nonpayable",
      "type": "function"
    },
    {
      "inputs": [
        {
          "internalType": "address",
          "name": "_positionRouter",
          "type": "address"
        },
        {
          "internalType": "address",
          "name": "_positionManager",
          "type": "address"
        },
        {
          "internalType": "address",
          "name": "_keeper",
          "type": "address"
        },
        {
          "internalType": "bool",
          "name": "_isActive",
          "type": "bool"
        }
      ],
      "name": "govSetKeeper",
      "outputs": [],
      "stateMutability": "nonpayable",
      "type": "function"
    },
    {
      "inputs": [],
      "name": "initBrrrManager",
      "outputs": [],
      "stateMutability": "nonpayable",
      "type": "function"
    },
    {
      "inputs": [
        {
          "internalType": "address",
          "name": "",
          "type": "address"
        }
      ],
      "name": "isHandler",
      "outputs": [
        {
          "internalType": "bool",
          "name": "",
          "type": "bool"
        }
      ],
      "stateMutability": "view",
      "type": "function"
    },
    {
      "inputs": [
        {
          "internalType": "address",
          "name": "",
          "type": "address"
        }
      ],
      "name": "isKeeper",
      "outputs": [
        {
          "internalType": "bool",
          "name": "",
          "type": "bool"
        }
      ],
      "stateMutability": "view",
      "type": "function"
    },
    {
      "inputs": [],
      "name": "marginFeeBasisPoints",
      "outputs": [
        {
          "internalType": "uint256",
          "name": "",
          "type": "uint256"
        }
      ],
      "stateMutability": "view",
      "type": "function"
    },
    {
      "inputs": [],
      "name": "maxMarginFeeBasisPoints",
      "outputs": [
        {
          "internalType": "uint256",
          "name": "",
          "type": "uint256"
        }
      ],
      "stateMutability": "view",
      "type": "function"
    },
    {
      "inputs": [],
      "name": "maxTokenSupply",
      "outputs": [
        {
          "internalType": "uint256",
          "name": "",
          "type": "uint256"
        }
      ],
      "stateMutability": "view",
      "type": "function"
    },
    {
      "inputs": [],
      "name": "mintReceiver",
      "outputs": [
        {
          "internalType": "address",
          "name": "",
          "type": "address"
        }
      ],
      "stateMutability": "view",
      "type": "function"
    },
    {
      "inputs": [
        {
          "internalType": "bytes32",
          "name": "",
          "type": "bytes32"
        }
      ],
      "name": "pendingActions",
      "outputs": [
        {
          "internalType": "uint256",
          "name": "",
          "type": "uint256"
        }
      ],
      "stateMutability": "view",
      "type": "function"
    },
    {
      "inputs": [
        {
          "internalType": "address",
          "name": "_token",
          "type": "address"
        },
        {
          "internalType": "address",
          "name": "_receiver",
          "type": "address"
        },
        {
          "internalType": "uint256",
          "name": "_amount",
          "type": "uint256"
        }
      ],
      "name": "processMint",
      "outputs": [],
      "stateMutability": "nonpayable",
      "type": "function"
    },
    {
      "inputs": [
        {
          "internalType": "address",
          "name": "_vault",
          "type": "address"
        },
        {
          "internalType": "address",
          "name": "_token",
          "type": "address"
        },
        {
          "internalType": "uint256",
          "name": "_amount",
          "type": "uint256"
        }
      ],
      "name": "redeemUsdp",
      "outputs": [],
      "stateMutability": "nonpayable",
      "type": "function"
    },
    {
      "inputs": [
        {
          "internalType": "address",
          "name": "_token",
          "type": "address"
        },
        {
          "internalType": "address",
          "name": "_account",
          "type": "address"
        }
      ],
      "name": "removeAdmin",
      "outputs": [],
      "stateMutability": "nonpayable",
      "type": "function"
    },
    {
      "inputs": [
        {
          "internalType": "address",
          "name": "_admin",
          "type": "address"
        }
      ],
      "name": "setAdmin",
      "outputs": [],
      "stateMutability": "nonpayable",
      "type": "function"
    },
    {
      "inputs": [
        {
          "internalType": "uint256",
          "name": "_cooldownDuration",
          "type": "uint256"
        }
      ],
      "name": "setBrrrCooldownDuration",
      "outputs": [],
      "stateMutability": "nonpayable",
      "type": "function"
    },
    {
      "inputs": [
        {
          "internalType": "uint256",
          "name": "_buffer",
          "type": "uint256"
        }
      ],
      "name": "setBuffer",
      "outputs": [],
      "stateMutability": "nonpayable",
      "type": "function"
    },
    {
      "inputs": [
        {
          "internalType": "address",
          "name": "_handler",
          "type": "address"
        },
        {
          "internalType": "bool",
          "name": "_isActive",
          "type": "bool"
        }
      ],
      "name": "setContractHandler",
      "outputs": [],
      "stateMutability": "nonpayable",
      "type": "function"
    },
    {
      "inputs": [
        {
          "internalType": "address",
          "name": "_target",
          "type": "address"
        },
        {
          "internalType": "address",
          "name": "_admin",
          "type": "address"
        }
      ],
      "name": "setExternalAdmin",
      "outputs": [],
      "stateMutability": "nonpayable",
      "type": "function"
    },
    {
      "inputs": [
        {
          "internalType": "address",
          "name": "_vault",
          "type": "address"
        },
        {
          "internalType": "uint256",
          "name": "_taxBasisPoints",
          "type": "uint256"
        },
        {
          "internalType": "uint256",
          "name": "_stableTaxBasisPoints",
          "type": "uint256"
        },
        {
          "internalType": "uint256",
          "name": "_mintBurnFeeBasisPoints",
          "type": "uint256"
        },
        {
          "internalType": "uint256",
          "name": "_swapFeeBasisPoints",
          "type": "uint256"
        },
        {
          "internalType": "uint256",
          "name": "_stableSwapFeeBasisPoints",
          "type": "uint256"
        },
        {
          "internalType": "uint256",
          "name": "_marginFeeBasisPoints",
          "type": "uint256"
        },
        {
          "internalType": "uint256",
          "name": "_liquidationFeeUsd",
          "type": "uint256"
        },
        {
          "internalType": "uint256",
          "name": "_minProfitTime",
          "type": "uint256"
        },
        {
          "internalType": "bool",
          "name": "_hasDynamicFees",
          "type": "bool"
        }
      ],
      "name": "setFees",
      "outputs": [],
      "stateMutability": "nonpayable",
      "type": "function"
    },
    {
      "inputs": [
        {
          "internalType": "address",
          "name": "_vault",
          "type": "address"
        },
        {
          "internalType": "uint256",
          "name": "_fundingInterval",
          "type": "uint256"
        },
        {
          "internalType": "uint256",
          "name": "_fundingRateFactor",
          "type": "uint256"
        },
        {
          "internalType": "uint256",
          "name": "_stableFundingRateFactor",
          "type": "uint256"
        }
      ],
      "name": "setFundingRate",
      "outputs": [],
      "stateMutability": "nonpayable",
      "type": "function"
    },
    {
      "inputs": [
        {
          "internalType": "address",
          "name": "_target",
          "type": "address"
        },
        {
          "internalType": "address",
          "name": "_gov",
          "type": "address"
        }
      ],
      "name": "setGov",
      "outputs": [],
      "stateMutability": "nonpayable",
      "type": "function"
    },
    {
      "inputs": [
        {
          "internalType": "address",
          "name": "_target",
          "type": "address"
        },
        {
          "internalType": "address",
          "name": "_handler",
          "type": "address"
        },
        {
          "internalType": "bool",
          "name": "_isActive",
          "type": "bool"
        }
      ],
      "name": "setHandler",
      "outputs": [],
      "stateMutability": "nonpayable",
      "type": "function"
    },
    {
      "inputs": [
        {
          "internalType": "address",
          "name": "_vault",
          "type": "address"
        },
        {
          "internalType": "bool",
          "name": "_inPrivateLiquidationMode",
          "type": "bool"
        }
      ],
      "name": "setInPrivateLiquidationMode",
      "outputs": [],
      "stateMutability": "nonpayable",
      "type": "function"
    },
    {
      "inputs": [
        {
          "internalType": "address",
          "name": "_token",
          "type": "address"
        },
        {
          "internalType": "bool",
          "name": "_inPrivateTransferMode",
          "type": "bool"
        }
      ],
      "name": "setInPrivateTransferMode",
      "outputs": [],
      "stateMutability": "nonpayable",
      "type": "function"
    },
    {
      "inputs": [
        {
          "internalType": "address",
          "name": "_vault",
          "type": "address"
        },
        {
          "internalType": "bool",
          "name": "_isLeverageEnabled",
          "type": "bool"
        }
      ],
      "name": "setIsLeverageEnabled",
      "outputs": [],
      "stateMutability": "nonpayable",
      "type": "function"
    },
    {
      "inputs": [
        {
          "internalType": "address",
          "name": "_vault",
          "type": "address"
        },
        {
          "internalType": "bool",
          "name": "_isSwapEnabled",
          "type": "bool"
        }
      ],
      "name": "setIsSwapEnabled",
      "outputs": [],
      "stateMutability": "nonpayable",
      "type": "function"
    },
    {
      "inputs": [
        {
          "internalType": "address",
          "name": "_keeper",
          "type": "address"
        },
        {
          "internalType": "bool",
          "name": "_isActive",
          "type": "bool"
        }
      ],
      "name": "setKeeper",
      "outputs": [],
      "stateMutability": "nonpayable",
      "type": "function"
    },
    {
      "inputs": [
        {
          "internalType": "address",
          "name": "_vault",
          "type": "address"
        },
        {
          "internalType": "address",
          "name": "_liquidator",
          "type": "address"
        },
        {
          "internalType": "bool",
          "name": "_isActive",
          "type": "bool"
        }
      ],
      "name": "setLiquidator",
      "outputs": [],
      "stateMutability": "nonpayable",
      "type": "function"
    },
    {
      "inputs": [
        {
          "internalType": "uint256",
          "name": "_marginFeeBasisPoints",
          "type": "uint256"
        },
        {
          "internalType": "uint256",
          "name": "_maxMarginFeeBasisPoints",
          "type": "uint256"
        }
      ],
      "name": "setMarginFeeBasisPoints",
      "outputs": [],
      "stateMutability": "nonpayable",
      "type": "function"
    },
    {
      "inputs": [
        {
          "internalType": "address",
          "name": "_vault",
          "type": "address"
        },
        {
          "internalType": "uint256",
          "name": "_maxGasPrice",
          "type": "uint256"
        }
      ],
      "name": "setMaxGasPrice",
      "outputs": [],
      "stateMutability": "nonpayable",
      "type": "function"
    },
    {
      "inputs": [
        {
          "internalType": "address",
          "name": "_vault",
          "type": "address"
        },
        {
          "internalType": "address",
          "name": "_token",
          "type": "address"
        },
        {
          "internalType": "uint256",
          "name": "_amount",
          "type": "uint256"
        }
      ],
      "name": "setMaxGlobalShortSize",
      "outputs": [],
      "stateMutability": "nonpayable",
      "type": "function"
    },
    {
      "inputs": [
        {
          "internalType": "address",
          "name": "_vault",
          "type": "address"
        },
        {
          "internalType": "uint256",
          "name": "_maxLeverage",
          "type": "uint256"
        }
      ],
      "name": "setMaxLeverage",
      "outputs": [],
      "stateMutability": "nonpayable",
      "type": "function"
    },
    {
      "inputs": [
        {
          "internalType": "address",
          "name": "_vault",
          "type": "address"
        },
        {
          "internalType": "address",
          "name": "_priceFeed",
          "type": "address"
        }
      ],
      "name": "setPriceFeed",
      "outputs": [],
      "stateMutability": "nonpayable",
      "type": "function"
    },
    {
      "inputs": [
        {
          "internalType": "address",
          "name": "_referralStorage",
          "type": "address"
        },
        {
          "internalType": "address",
          "name": "_referrer",
          "type": "address"
        },
        {
          "internalType": "uint256",
          "name": "_tierId",
          "type": "uint256"
        }
      ],
      "name": "setReferrerTier",
      "outputs": [],
      "stateMutability": "nonpayable",
      "type": "function"
    },
    {
      "inputs": [
        {
          "internalType": "uint256",
          "name": "_shortsTrackerAveragePriceWeight",
          "type": "uint256"
        }
      ],
      "name": "setShortsTrackerAveragePriceWeight",
      "outputs": [],
      "stateMutability": "nonpayable",
      "type": "function"
    },
    {
      "inputs": [
        {
          "internalType": "bool",
          "name": "_shouldToggleIsLeverageEnabled",
          "type": "bool"
        }
      ],
      "name": "setShouldToggleIsLeverageEnabled",
      "outputs": [],
      "stateMutability": "nonpayable",
      "type": "function"
    },
    {
      "inputs": [
        {
          "internalType": "address",
          "name": "_vault",
          "type": "address"
        },
        {
          "internalType": "uint256",
          "name": "_taxBasisPoints",
          "type": "uint256"
        },
        {
          "internalType": "uint256",
          "name": "_stableTaxBasisPoints",
          "type": "uint256"
        },
        {
          "internalType": "uint256",
          "name": "_mintBurnFeeBasisPoints",
          "type": "uint256"
        },
        {
          "internalType": "uint256",
          "name": "_swapFeeBasisPoints",
          "type": "uint256"
        },
        {
          "internalType": "uint256",
          "name": "_stableSwapFeeBasisPoints",
          "type": "uint256"
        }
      ],
      "name": "setSwapFees",
      "outputs": [],
      "stateMutability": "nonpayable",
      "type": "function"
    },
    {
      "inputs": [
        {
          "internalType": "address",
          "name": "_referralStorage",
          "type": "address"
        },
        {
          "internalType": "uint256",
          "name": "_tierId",
          "type": "uint256"
        },
        {
          "internalType": "uint256",
          "name": "_totalRebate",
          "type": "uint256"
        },
        {
          "internalType": "uint256",
          "name": "_discountShare",
          "type": "uint256"
        }
      ],
      "name": "setTier",
      "outputs": [],
      "stateMutability": "nonpayable",
      "type": "function"
    },
    {
      "inputs": [
        {
          "internalType": "address",
          "name": "_vault",
          "type": "address"
        },
        {
          "internalType": "address",
          "name": "_token",
          "type": "address"
        },
        {
          "internalType": "uint256",
          "name": "_tokenWeight",
          "type": "uint256"
        },
        {
          "internalType": "uint256",
          "name": "_minProfitBps",
          "type": "uint256"
        },
        {
          "internalType": "uint256",
          "name": "_maxUsdpAmount",
          "type": "uint256"
        },
        {
          "internalType": "uint256",
          "name": "_bufferAmount",
          "type": "uint256"
        },
        {
          "internalType": "uint256",
          "name": "_usdpAmount",
          "type": "uint256"
        }
      ],
      "name": "setTokenConfig",
      "outputs": [],
      "stateMutability": "nonpayable",
      "type": "function"
    },
    {
      "inputs": [
        {
          "internalType": "address",
          "name": "_tokenManager",
          "type": "address"
        }
      ],
      "name": "setTokenManager",
      "outputs": [],
      "stateMutability": "nonpayable",
      "type": "function"
    },
    {
      "inputs": [
        {
          "internalType": "address",
          "name": "_vault",
          "type": "address"
        },
        {
          "internalType": "address[]",
          "name": "_tokens",
          "type": "address[]"
        },
        {
          "internalType": "uint256[]",
          "name": "_usdpAmounts",
          "type": "uint256[]"
        }
      ],
      "name": "setUsdpAmounts",
      "outputs": [],
      "stateMutability": "nonpayable",
      "type": "function"
    },
    {
      "inputs": [
        {
          "internalType": "address",
          "name": "_vault",
          "type": "address"
        },
        {
          "internalType": "contract IVaultUtils",
          "name": "_vaultUtils",
          "type": "address"
        }
      ],
      "name": "setVaultUtils",
      "outputs": [],
      "stateMutability": "nonpayable",
      "type": "function"
    },
    {
      "inputs": [],
      "name": "shouldToggleIsLeverageEnabled",
      "outputs": [
        {
          "internalType": "bool",
          "name": "",
          "type": "bool"
        }
      ],
      "stateMutability": "view",
      "type": "function"
    },
    {
      "inputs": [
        {
          "internalType": "address",
          "name": "_token",
          "type": "address"
        },
        {
          "internalType": "address",
          "name": "_spender",
          "type": "address"
        },
        {
          "internalType": "uint256",
          "name": "_amount",
          "type": "uint256"
        }
      ],
      "name": "signalApprove",
      "outputs": [],
      "stateMutability": "nonpayable",
      "type": "function"
    },
    {
      "inputs": [
        {
          "internalType": "address",
          "name": "_token",
          "type": "address"
        },
        {
          "internalType": "address",
          "name": "_receiver",
          "type": "address"
        },
        {
          "internalType": "uint256",
          "name": "_amount",
          "type": "uint256"
        }
      ],
      "name": "signalMint",
      "outputs": [],
      "stateMutability": "nonpayable",
      "type": "function"
    },
    {
      "inputs": [
        {
          "internalType": "address",
          "name": "_vault",
          "type": "address"
        },
        {
          "internalType": "address",
          "name": "_token",
          "type": "address"
        },
        {
          "internalType": "uint256",
          "name": "_amount",
          "type": "uint256"
        }
      ],
      "name": "signalRedeemUsdp",
      "outputs": [],
      "stateMutability": "nonpayable",
      "type": "function"
    },
    {
      "inputs": [
        {
          "internalType": "address",
          "name": "_target",
          "type": "address"
        },
        {
          "internalType": "address",
          "name": "_gov",
          "type": "address"
        }
      ],
      "name": "signalSetGov",
      "outputs": [],
      "stateMutability": "nonpayable",
      "type": "function"
    },
    {
      "inputs": [
        {
          "internalType": "address",
          "name": "_target",
          "type": "address"
        },
        {
          "internalType": "address",
          "name": "_handler",
          "type": "address"
        },
        {
          "internalType": "bool",
          "name": "_isActive",
          "type": "bool"
        }
      ],
      "name": "signalSetHandler",
      "outputs": [],
      "stateMutability": "nonpayable",
      "type": "function"
    },
    {
      "inputs": [
        {
          "internalType": "address",
          "name": "_vault",
          "type": "address"
        },
        {
          "internalType": "address",
          "name": "_priceFeed",
          "type": "address"
        }
      ],
      "name": "signalSetPriceFeed",
      "outputs": [],
      "stateMutability": "nonpayable",
      "type": "function"
    },
    {
      "inputs": [
        {
          "internalType": "address",
          "name": "_vault",
          "type": "address"
        },
        {
          "internalType": "address",
          "name": "_token",
          "type": "address"
        }
      ],
      "name": "signalVaultClearTokenConfig",
      "outputs": [],
      "stateMutability": "nonpayable",
      "type": "function"
    },
    {
      "inputs": [
        {
          "internalType": "address",
          "name": "_vault",
          "type": "address"
        },
        {
          "internalType": "address",
          "name": "_token",
          "type": "address"
        },
        {
          "internalType": "uint256",
          "name": "_tokenDecimals",
          "type": "uint256"
        },
        {
          "internalType": "uint256",
          "name": "_tokenWeight",
          "type": "uint256"
        },
        {
          "internalType": "uint256",
          "name": "_minProfitBps",
          "type": "uint256"
        },
        {
          "internalType": "uint256",
          "name": "_maxUsdpAmount",
          "type": "uint256"
        },
        {
          "internalType": "bool",
          "name": "_isStable",
          "type": "bool"
        },
        {
          "internalType": "bool",
          "name": "_isShortable",
          "type": "bool"
        }
      ],
      "name": "signalVaultSetTokenConfig",
      "outputs": [],
      "stateMutability": "nonpayable",
      "type": "function"
    },
    {
      "inputs": [
        {
          "internalType": "address",
          "name": "_target",
          "type": "address"
        },
        {
          "internalType": "address",
          "name": "_token",
          "type": "address"
        },
        {
          "internalType": "address",
          "name": "_receiver",
          "type": "address"
        },
        {
          "internalType": "uint256",
          "name": "_amount",
          "type": "uint256"
        }
      ],
      "name": "signalWithdrawToken",
      "outputs": [],
      "stateMutability": "nonpayable",
      "type": "function"
    },
    {
      "inputs": [],
      "name": "tokenManager",
      "outputs": [
        {
          "internalType": "address",
          "name": "",
          "type": "address"
        }
      ],
      "stateMutability": "view",
      "type": "function"
    },
    {
      "inputs": [
        {
          "internalType": "address",
          "name": "_sender",
          "type": "address"
        },
        {
          "internalType": "address",
          "name": "_token",
          "type": "address"
        },
        {
          "internalType": "uint256",
          "name": "_amount",
          "type": "uint256"
        }
      ],
      "name": "transferIn",
      "outputs": [],
      "stateMutability": "nonpayable",
      "type": "function"
    },
    {
      "inputs": [
        {
          "internalType": "uint256",
          "name": "usdpAmount",
          "type": "uint256"
        }
      ],
      "name": "updateUsdpSupply",
      "outputs": [],
      "stateMutability": "nonpayable",
      "type": "function"
    },
    {
      "inputs": [
        {
          "internalType": "address",
          "name": "_vault",
          "type": "address"
        },
        {
          "internalType": "address",
          "name": "_token",
          "type": "address"
        }
      ],
      "name": "vaultClearTokenConfig",
      "outputs": [],
      "stateMutability": "nonpayable",
      "type": "function"
    },
    {
      "inputs": [
        {
          "internalType": "address",
          "name": "_vault",
          "type": "address"
        },
        {
          "internalType": "address",
          "name": "_token",
          "type": "address"
        },
        {
          "internalType": "uint256",
          "name": "_tokenDecimals",
          "type": "uint256"
        },
        {
          "internalType": "uint256",
          "name": "_tokenWeight",
          "type": "uint256"
        },
        {
          "internalType": "uint256",
          "name": "_minProfitBps",
          "type": "uint256"
        },
        {
          "internalType": "uint256",
          "name": "_maxUsdpAmount",
          "type": "uint256"
        },
        {
          "internalType": "bool",
          "name": "_isStable",
          "type": "bool"
        },
        {
          "internalType": "bool",
          "name": "_isShortable",
          "type": "bool"
        }
      ],
      "name": "vaultSetTokenConfig",
      "outputs": [],
      "stateMutability": "nonpayable",
      "type": "function"
    },
    {
      "inputs": [
        {
          "internalType": "address",
          "name": "_vault",
          "type": "address"
        },
        {
          "internalType": "address",
          "name": "_token",
          "type": "address"
        },
        {
          "internalType": "address",
          "name": "_receiver",
          "type": "address"
        }
      ],
      "name": "withdrawFees",
      "outputs": [],
      "stateMutability": "nonpayable",
      "type": "function"
    },
    {
      "inputs": [
        {
          "internalType": "address",
          "name": "_target",
          "type": "address"
        },
        {
          "internalType": "address",
          "name": "_token",
          "type": "address"
        },
        {
          "internalType": "address",
          "name": "_receiver",
          "type": "address"
        },
        {
          "internalType": "uint256",
          "name": "_amount",
          "type": "uint256"
        }
      ],
      "name": "withdrawToken",
      "outputs": [],
      "stateMutability": "nonpayable",
      "type": "function"
    }
  ],
  "bytecode": {
    "object": "0x60806040523480156200001157600080fd5b5060405162004d7d38038062004d7d83398101604081905262000034916200010f565b620697808711156200008c5760405162461bcd60e51b815260206004820152601960248201527f54696d656c6f636b3a20696e76616c6964205f62756666657200000000000000604482015260640160405180910390fd5b600180546001600160a01b03199081166001600160a01b039a8b1617909155600097909755600280548816968916969096179095556003805487169488169490941790935560048054909516919095161790925560059290925560065560075562000193565b80516001600160a01b03811681146200010a57600080fd5b919050565b600080600080600080600080610100898b0312156200012d57600080fd5b6200013889620000f2565b9750602089015196506200014f60408a01620000f2565b95506200015f60608a01620000f2565b94506200016f60808a01620000f2565b935060a0890151925060c0890151915060e089015190509295985092959890939650565b614bda80620001a36000396000f3fe608060405234801561001057600080fd5b506004361061041d5760003560e01c80637cb2b79c1161022b578063d1b9e85311610130578063e3b6cd07116100b8578063e8ae227111610087578063e8ae227114610927578063edaafe201461093a578063f58ed35114610943578063f67f8e4f14610956578063f851a4401461096957600080fd5b8063e3b6cd07146108db578063e3cbeb0f146108ee578063e4652f4914610901578063e76ab00f1461091457600080fd5b8063dce6e18d116100ff578063dce6e18d1461086f578063df3a66d914610882578063e1f21c6714610895578063e21b4591146108a8578063e30569e5146108bb57600080fd5b8063d1b9e85314610823578063d3c87bbb14610836578063da76231614610849578063db1c84411461085c57600080fd5b8063996a7a1e116101b3578063bc476dfd11610182578063bc476dfd146107c4578063bc8a8ab9146107d7578063c142940a146107ea578063c7bb26a0146107fd578063cd2b12301461081057600080fd5b8063996a7a1e14610782578063996e2bc914610795578063adc7ea371461079e578063b8361ebb146107b157600080fd5b80638a39735a116101fa5780638a39735a1461072d5780638bf22c46146107355780638e34c98f1461074857806395082d251461075b57806398c8a1001461076f57600080fd5b80637cb2b79c146106e15780637ec7929b146106f457806380894d621461070757806386803c721461071a57600080fd5b806346ea87af1161033157806362c250e8116102b9578063704b6c0211610288578063704b6c021461068d57806373864944146106a057806376e11286146106a8578063781cc3d3146106bb5780637b6f775a146106ce57600080fd5b806362c250e8146106315780636ba42aaa146106445780636d63c1d0146106675780636e5227d41461067a57600080fd5b806350f7c2041161030057806350f7c204146105e557806351a6de0d146105ee578063558182941461060157806355ef13951461061457806361d075691461062757600080fd5b806346ea87af1461058957806347de43e2146105ac5780634cd23f3b146105bf5780634f5f6b5e146105d257600080fd5b806321bd0592116103b4578063268959e511610383578063268959e5146105175780632a709b141461052a5780632ba3725a14610555578063318bc6891461056d578063344085b31461057657600080fd5b806321bd0592146104bc578063227f03eb146104cf57806323aaad12146104e257806324ccbe301461050457600080fd5b8063117cf204116103f0578063117cf20414610470578063185051c114610483578063204bbc541461049657806321754d9e146104a957600080fd5b806309cc9a08146104225780630e0dc426146104375780630e9587f31461044a5780631154e8081461045d575b600080fd5b6104356104303660046140cd565b61097c565b005b61043561044536600461410e565b610a40565b610435610458366004614170565b610e3d565b61043561046b3660046141c9565b610ee1565b61043561047e366004614209565b610fb2565b610435610491366004614209565b611070565b6104356104a4366004614242565b6110c5565b6104356104b7366004614279565b61118b565b6104356104ca366004614209565b611261565b6104356104dd3660046142ca565b6112b9565b6008546104ef9060ff1681565b60405190151581526020015b60405180910390f35b6104356105123660046141c9565b611411565b610435610525366004614305565b6114c6565b60025461053d906001600160a01b031681565b6040516001600160a01b0390911681526020016104fb565b61055f6207a12081565b6040519081526020016104fb565b61055f60065481565b6104356105843660046140cd565b61151e565b6104ef610597366004614333565b600a6020526000908152604090205460ff1681565b6104356105ba3660046141c9565b611882565b6104356105cd366004614279565b6118da565b6104356105e0366004614357565b61199e565b61055f60055481565b6104356105fc366004614305565b611a28565b61043561060f3660046142ca565b611abf565b610435610622366004614305565b611b58565b61055f6206978081565b61043561063f366004614370565b611c08565b6104ef610652366004614333565b600b6020526000908152604090205460ff1681565b610435610675366004614333565b611d20565b6104356106883660046143cc565b612112565b61043561069b366004614333565b6121f0565b61043561223c565b6104356106b6366004614305565b6124a5565b6104356106c9366004614357565b61253c565b6104356106dc366004614454565b612572565b6104356106ef366004614333565b61261b565b610435610702366004614357565b612667565b610435610715366004614305565b612934565b610435610728366004614209565b6129d4565b61055f60c881565b610435610743366004614454565b612a2c565b610435610756366004614480565b612ace565b61055f6c0c9f2c9cd04674edea4000000081565b61043561077d36600461457c565b612b25565b610435610790366004614305565b612c34565b61055f60075481565b6104356107ac366004614357565b612cc7565b6104356107bf3660046140cd565b612da6565b6104356107d2366004614305565b612e3b565b6104356107e53660046140cd565b612e93565b6104356107f83660046140cd565b612f09565b60035461053d906001600160a01b031681565b61043561081e366004614209565b612f95565b610435610831366004614209565b613007565b610435610844366004614333565b61305c565b610435610857366004614648565b613342565b61043561086a366004614694565b613541565b61043561087d3660046140cd565b613629565b6104356108903660046140cd565b6136da565b6104356108a33660046140cd565b613732565b6104356108b6366004614719565b61380e565b61055f6108c9366004614357565b60096020526000908152604090205481565b6104356108e9366004614357565b61385d565b6104356108fc366004614694565b613913565b61043561090f3660046140cd565b6139fd565b60045461053d906001600160a01b031681565b61043561093536600461473b565b613a9a565b61055f60005481565b610435610951366004614305565b613bbc565b610435610964366004614305565b613c4f565b60015461053d906001600160a01b031681565b6001546001600160a01b031633146109af5760405162461bcd60e51b81526004016109a69061478b565b60405180910390fd5b60008383836040516020016109c6939291906147b8565b6040516020818303038152906040528051906020012090506109e781613ce6565b604080516001600160a01b03808716825285166020820152908101839052606081018290527f23d37bec99db82564427c9bbfe48ad7434bccf413a40fd357fb838c90a0d6828906080015b60405180910390a150505050565b6001546001600160a01b0316331480610a685750336000908152600a602052604090205460ff165b80610a825750336000908152600b602052604090205460ff165b610a9e5760405162461bcd60e51b81526004016109a69061478b565b6101f4841115610af05760405162461bcd60e51b815260206004820152601f60248201527f54696d656c6f636b3a20696e76616c6964205f6d696e50726f6669744270730060448201526064016109a6565b604051630daf9c2160e41b81526001600160a01b03878116600483015288919082169063daf9c21090602401602060405180830381865afa158015610b39573d6000803e3d6000fd5b505050506040513d601f19601f82011682018060405250810190610b5d91906147ee565b610bb55760405162461bcd60e51b815260206004820152602360248201527f54696d656c6f636b3a20746f6b656e206e6f74207965742077686974656c69736044820152621d195960ea1b60648201526084016109a6565b6040516323b95ceb60e21b81526001600160a01b03888116600483015260009190831690638ee573ac90602401602060405180830381865afa158015610bff573d6000803e3d6000fd5b505050506040513d601f19601f82011682018060405250810190610c23919061480b565b6040516342b60b0360e01b81526001600160a01b038a811660048301529192506000918416906342b60b0390602401602060405180830381865afa158015610c6f573d6000803e3d6000fd5b505050506040513d601f19601f82011682018060405250810190610c9391906147ee565b60405163db3555fb60e01b81526001600160a01b038b8116600483015291925060009185169063db3555fb90602401602060405180830381865afa158015610cdf573d6000803e3d6000fd5b505050506040513d601f19601f82011682018060405250810190610d0391906147ee565b604051633c5a6e3560e01b81529091506001600160a01b038c1690633c5a6e3590610d3e908d9087908e908e908e908a908a90600401614824565b600060405180830381600087803b158015610d5857600080fd5b505af1158015610d6c573d6000803e3d6000fd5b50506040516342c2fa6960e11b81526001600160a01b038e169250638585f4d29150610d9e908d908a90600401614863565b600060405180830381600087803b158015610db857600080fd5b505af1158015610dcc573d6000803e3d6000fd5b5050604051631985aea560e21b81526001600160a01b038e169250636616ba949150610dfe908d908990600401614863565b600060405180830381600087803b158015610e1857600080fd5b505af1158015610e2c573d6000803e3d6000fd5b505050505050505050505050505050565b6001546001600160a01b03163314610e675760405162461bcd60e51b81526004016109a69061478b565b604051631e4aaa4f60e31b81526001600160a01b038381166004830152828116602483015284169063f2555278906044016020604051808303816000875af1158015610eb7573d6000803e3d6000fd5b505050506040513d601f19601f82011682018060405250810190610edb919061480b565b50505050565b6001546001600160a01b03163314610f0b5760405162461bcd60e51b81526004016109a69061478b565b6000838383604051602001610f229392919061487c565b604051602081830303815290604052805190602001209050610f4381613da3565b610f4c81613e69565b604051639cb7de4b60e01b81526001600160a01b03851690639cb7de4b90610f7a90869086906004016148bd565b600060405180830381600087803b158015610f9457600080fd5b505af1158015610fa8573d6000803e3d6000fd5b5050505050505050565b6001546001600160a01b0316331480610fda5750336000908152600a602052604090205460ff165b80610ff45750336000908152600b602052604090205460ff165b6110105760405162461bcd60e51b81526004016109a69061478b565b604051631822af6f60e11b815281151560048201526001600160a01b038316906330455ede906024015b600060405180830381600087803b15801561105457600080fd5b505af1158015611068573d6000803e3d6000fd5b505050505050565b6001546001600160a01b0316331461109a5760405162461bcd60e51b81526004016109a69061478b565b6001600160a01b03919091166000908152600a60205260409020805460ff1916911515919091179055565b6001546001600160a01b03163314806110ed5750336000908152600a602052604090205460ff165b806111075750336000908152600b602052604090205460ff165b6111235760405162461bcd60e51b81526004016109a69061478b565b604051630dfcfa2560e41b8152600481018390526001600160a01b03828116602483015284169063dfcfa250906044015b600060405180830381600087803b15801561116e57600080fd5b505af1158015611182573d6000803e3d6000fd5b50505050505050565b6001546001600160a01b031633146111b55760405162461bcd60e51b81526004016109a69061478b565b6000848484846040516020016111ce94939291906148d8565b6040516020818303038152906040528051906020012090506111ef81613da3565b6111f881613e69565b6040516301e3366760e01b81526001600160a01b038616906301e336679061122890879087908790600401614924565b600060405180830381600087803b15801561124257600080fd5b505af1158015611256573d6000803e3d6000fd5b505050505050505050565b6001546001600160a01b0316331461128b5760405162461bcd60e51b81526004016109a69061478b565b60405163f07bbf7760e01b815281151560048201526001600160a01b0383169063f07bbf779060240161103a565b6001546001600160a01b03163314806112e15750336000908152600a602052604090205460ff165b806112fb5750336000908152600b602052604090205460ff165b6113175760405162461bcd60e51b81526004016109a69061478b565b60c882106113735760405162461bcd60e51b8152602060048201526024808201527f54696d656c6f636b3a20696e76616c6964205f66756e64696e6752617465466160448201526331ba37b960e11b60648201526084016109a6565b60c881106113d65760405162461bcd60e51b815260206004820152602a60248201527f54696d656c6f636b3a20696e76616c6964205f737461626c6546756e64696e676044820152692930ba32a330b1ba37b960b11b60648201526084016109a6565b604051631144fa8d60e31b81526004810184905260248101839052604481018290526001600160a01b03851690638a27d46890606401610f7a565b6001546001600160a01b0316331461143b5760405162461bcd60e51b81526004016109a69061478b565b60008383836040516020016114529392919061487c565b60405160208183030381529060405280519060200120905061147381613ce6565b604080516001600160a01b0380871682528516602082015283151591810191909152606081018290527f1929c4e13b0dbbad7856b9ce1fc9dca98c7bf7cedd56e22c04dd60ad1d34fe4b90608001610a32565b6001546001600160a01b031633146114f05760405162461bcd60e51b81526004016109a69061478b565b6040516305e17d4f60e21b81526001600160a01b038281166004830152831690631785f53c9060240161103a565b6001546001600160a01b031633146115485760405162461bcd60e51b81526004016109a69061478b565b600083838360405160200161155f93929190614948565b60405160208183030381529060405280519060200120905061158081613da3565b61158981613e69565b6000846001600160a01b03166374e6076c6040518163ffffffff1660e01b8152600401602060405180830381865afa1580156115c9573d6000803e3d6000fd5b505050506040513d601f19601f820116820180604052508101906115ed9190614984565b6040516352f4877760e11b81529091506001600160a01b0386169063a5e90eee9061161f9030906001906004016148bd565b600060405180830381600087803b15801561163957600080fd5b505af115801561164d573d6000803e3d6000fd5b50506040516312b5ad0160e11b81523060048201526001600160a01b038416925063256b5a029150602401600060405180830381600087803b15801561169257600080fd5b505af11580156116a6573d6000803e3d6000fd5b50506040516340c10f1960e01b81526001600160a01b03841692506340c10f1991506116d89030908790600401614863565b600060405180830381600087803b1580156116f257600080fd5b505af1158015611706573d6000803e3d6000fd5b505060405163a9059cbb60e01b81526001600160a01b038416925063a9059cbb91506117389088908790600401614863565b6020604051808303816000875af1158015611757573d6000803e3d6000fd5b505050506040513d601f19601f8201168201806040525081019061177b91906147ee565b50600354604051633b699bdd60e21b81526001600160a01b03868116600483015291821660248201529086169063eda66f74906044016020604051808303816000875af11580156117d0573d6000803e3d6000fd5b505050506040513d601f19601f820116820180604052508101906117f4919061480b565b506040516352f4877760e11b81526001600160a01b0386169063a5e90eee906118249030906000906004016148bd565b600060405180830381600087803b15801561183e57600080fd5b505af1158015611852573d6000803e3d6000fd5b505060405163ceb68c2360e01b81523060048201526001600160a01b038416925063ceb68c239150602401611228565b6001546001600160a01b031633146118ac5760405162461bcd60e51b81526004016109a69061478b565b604051631114e8dd60e21b81526001600160a01b03841690634453a3749061115490859085906004016148bd565b6001546001600160a01b031633146119045760405162461bcd60e51b81526004016109a69061478b565b60008484848460405160200161191d94939291906148d8565b60405160208183030381529060405280519060200120905061193e81613ce6565b604080516001600160a01b0387811682528681166020830152851681830152606081018490526080810183905290517f9ed7b0f07a9eed51079fab67f6d0f141f167f5b17fdb5a23282280e15fcafed39181900360a00190a15050505050565b6001546001600160a01b031633146119c85760405162461bcd60e51b81526004016109a69061478b565b600480546040516327afb5af60e11b81529182018390526001600160a01b031690634f5f6b5e906024015b600060405180830381600087803b158015611a0d57600080fd5b505af1158015611a21573d6000803e3d6000fd5b5050505050565b6001546001600160a01b03163314611a525760405162461bcd60e51b81526004016109a69061478b565b60008282604051602001611a679291906149a1565b604051602081830303815290604052805190602001209050611a8881613da3565b611a9181613e69565b6040516367d6abd160e11b81526001600160a01b03838116600483015284169063cfad57a290602401611154565b6001546001600160a01b0316331480611ae75750336000908152600a602052604090205460ff165b80611b015750336000908152600b602052604090205460ff165b611b1d5760405162461bcd60e51b81526004016109a69061478b565b60405163836a018760e01b81526004810184905260248101839052604481018290526001600160a01b0385169063836a018790606401610f7a565b6001546001600160a01b03163314611b825760405162461bcd60e51b81526004016109a69061478b565b306001600160a01b03831603611bda5760405162461bcd60e51b815260206004820152601960248201527f54696d656c6f636b3a20696e76616c6964205f7461726765740000000000000060448201526064016109a6565b604051633825b60160e11b81526001600160a01b03828116600483015283169063704b6c029060240161103a565b6001546001600160a01b03163314611c325760405162461bcd60e51b81526004016109a69061478b565b604051633422ead160e01b81526001600160a01b03851690633422ead190611c6090859085906004016148bd565b600060405180830381600087803b158015611c7a57600080fd5b505af1158015611c8e573d6000803e3d6000fd5b50506040516303c4c2a760e31b81526001600160a01b0386169250631e2615389150611cc090859085906004016148bd565b600060405180830381600087803b158015611cda57600080fd5b505af1158015611cee573d6000803e3d6000fd5b5050604051631114e8dd60e21b81526001600160a01b0386169250634453a3749150610f7a90859085906004016148bd565b6001546001600160a01b0316331480611d485750336000908152600a602052604090205460ff165b611d645760405162461bcd60e51b81526004016109a69061478b565b600854819060ff1615611dcc57604051637c2eb9f760e01b8152600160048201526001600160a01b03821690637c2eb9f790602401600060405180830381600087803b158015611db357600080fd5b505af1158015611dc7573d6000803e3d6000fd5b505050505b806001600160a01b03166340eb3802826001600160a01b0316637a210a2b6040518163ffffffff1660e01b8152600401602060405180830381865afa158015611e19573d6000803e3d6000fd5b505050506040513d601f19601f82011682018060405250810190611e3d919061480b565b836001600160a01b03166310eb56c26040518163ffffffff1660e01b8152600401602060405180830381865afa158015611e7b573d6000803e3d6000fd5b505050506040513d601f19601f82011682018060405250810190611e9f919061480b565b846001600160a01b0316634d47b3046040518163ffffffff1660e01b8152600401602060405180830381865afa158015611edd573d6000803e3d6000fd5b505050506040513d601f19601f82011682018060405250810190611f01919061480b565b856001600160a01b031663a22f23926040518163ffffffff1660e01b8152600401602060405180830381865afa158015611f3f573d6000803e3d6000fd5b505050506040513d601f19601f82011682018060405250810190611f63919061480b565b866001600160a01b031663df73a2676040518163ffffffff1660e01b8152600401602060405180830381865afa158015611fa1573d6000803e3d6000fd5b505050506040513d601f19601f82011682018060405250810190611fc5919061480b565b600654886001600160a01b031663174d26946040518163ffffffff1660e01b8152600401602060405180830381865afa158015612006573d6000803e3d6000fd5b505050506040513d601f19601f8201168201806040525081019061202a919061480b565b896001600160a01b031663d9ac42256040518163ffffffff1660e01b8152600401602060405180830381865afa158015612068573d6000803e3d6000fd5b505050506040513d601f19601f8201168201806040525081019061208c919061480b565b8a6001600160a01b0316639f392eb36040518163ffffffff1660e01b8152600401602060405180830381865afa1580156120ca573d6000803e3d6000fd5b505050506040513d601f19601f820116820180604052508101906120ee91906147ee565b6040518a63ffffffff1660e01b815260040161103a999897969594939291906149d2565b6001546001600160a01b031633148061213a5750336000908152600a602052604090205460ff165b806121545750336000908152600b602052604090205460ff165b6121705760405162461bcd60e51b81526004016109a69061478b565b60068490556007546040516320759c0160e11b81526001600160a01b038c16916340eb3802916121b2918d918d918d918d918d918c908c908c906004016149d2565b600060405180830381600087803b1580156121cc57600080fd5b505af11580156121e0573d6000803e3d6000fd5b5050505050505050505050505050565b6002546001600160a01b0316331461221a5760405162461bcd60e51b81526004016109a69061478b565b600180546001600160a01b0319166001600160a01b0392909216919091179055565b6001546001600160a01b031633146122665760405162461bcd60e51b81526004016109a69061478b565b60048054604080516396a67d2560e01b815290516001600160a01b039092169260009284926396a67d2592818101926020929091908290030181865afa1580156122b4573d6000803e3d6000fd5b505050506040513d601f19601f820116820180604052508101906122d89190614984565b6004805460405163cf456ae760e01b81529293506001600160a01b038085169363cf456ae79361230f9390921691600191016148bd565b600060405180830381600087803b15801561232957600080fd5b505af115801561233d573d6000803e3d6000fd5b505050506000826001600160a01b03166374e6076c6040518163ffffffff1660e01b8152600401602060405180830381865afa158015612381573d6000803e3d6000fd5b505050506040513d601f19601f820116820180604052508101906123a59190614984565b600480546040516312b5ad0160e11b81526001600160a01b03918216928101929092529192509082169063256b5a0290602401600060405180830381600087803b1580156123f257600080fd5b505af1158015612406573d6000803e3d6000fd5b505050506000836001600160a01b031663fbfa77cf6040518163ffffffff1660e01b8152600401602060405180830381865afa15801561244a573d6000803e3d6000fd5b505050506040513d601f19601f8201168201806040525081019061246e9190614984565b600480546040516352f4877760e11b81529293506001600160a01b038085169363a5e90eee93610f7a9390921691600191016148bd565b6001546001600160a01b031633146124cf5760405162461bcd60e51b81526004016109a69061478b565b600082826040516020016124e4929190614a13565b60405160208183030381529060405280519060200120905061250581613da3565b61250e81613e69565b6040516339273c6d60e11b81526001600160a01b03838116600483015284169063724e78da90602401611154565b6001546001600160a01b031633146125665760405162461bcd60e51b81526004016109a69061478b565b61256f81613e69565b50565b6001546001600160a01b0316331461259c5760405162461bcd60e51b81526004016109a69061478b565b6207a12081116125ee5760405162461bcd60e51b815260206004820152601e60248201527f54696d656c6f636b3a20696e76616c6964205f6d61784c65766572616765000060448201526064016109a6565b60405163d3127e6360e01b8152600481018290526001600160a01b0383169063d3127e639060240161103a565b6002546001600160a01b031633146126455760405162461bcd60e51b81526004016109a69061478b565b600280546001600160a01b0319166001600160a01b0392909216919091179055565b6001546001600160a01b031633148061268f5750336000908152600a602052604090205460ff165b806126a95750336000908152600b602052604090205460ff165b6126c55760405162461bcd60e51b81526004016109a69061478b565b6000600460009054906101000a90046001600160a01b03166001600160a01b03166374e6076c6040518163ffffffff1660e01b8152600401602060405180830381865afa15801561271a573d6000803e3d6000fd5b505050506040513d601f19601f8201168201806040525081019061273e9190614984565b600480546040516370a0823160e01b81526001600160a01b03918216928101929092529192506000918316906370a0823190602401602060405180830381865afa158015612790573d6000803e3d6000fd5b505050506040513d601f19601f820116820180604052508101906127b4919061480b565b6040516312b5ad0160e11b81523060048201529091506001600160a01b0383169063256b5a0290602401600060405180830381600087803b1580156127f857600080fd5b505af115801561280c573d6000803e3d6000fd5b50505050808311156128925760006128248285614a60565b600480546040516340c10f1960e01b81529293506001600160a01b03808716936340c10f199361285a9390921691869101614863565b600060405180830381600087803b15801561287457600080fd5b505af1158015612888573d6000803e3d6000fd5b5050505050612908565b600061289e8483614a60565b60048054604051632770a7eb60e21b81529293506001600160a01b0380871693639dc29fac936128d49390921691869101614863565b600060405180830381600087803b1580156128ee57600080fd5b505af1158015612902573d6000803e3d6000fd5b50505050505b60405163ceb68c2360e01b81523060048201526001600160a01b0383169063ceb68c2390602401611154565b6001546001600160a01b0316331461295e5760405162461bcd60e51b81526004016109a69061478b565b60008282604051602001612973929190614a13565b60405160208183030381529060405280519060200120905061299481613ce6565b7fb878dd4b5762f4118ad54995be907dd2bcd915d942e4ac75580fba9b4ee4727f8383836040516129c793929190614924565b60405180910390a1505050565b6001546001600160a01b031633146129fe5760405162461bcd60e51b81526004016109a69061478b565b604051635a47a1a760e01b815281151560048201526001600160a01b03831690635a47a1a79060240161103a565b6001546001600160a01b03163314612a565760405162461bcd60e51b81526004016109a69061478b565b64012a05f2008111612aa15760405162461bcd60e51b8152602060048201526014602482015273496e76616c6964205f6d6178476173507269636560601b60448201526064016109a6565b60405163697d31af60e11b8152600481018290526001600160a01b0383169063d2fa635e9060240161103a565b6001546001600160a01b0316331480612af65750336000908152600a602052604090205460ff165b612b125760405162461bcd60e51b81526004016109a69061478b565b6008805460ff1916911515919091179055565b6001546001600160a01b0316331480612b4d5750336000908152600a602052604090205460ff165b80612b675750336000908152600b602052604090205460ff165b612b835760405162461bcd60e51b81526004016109a69061478b565b60005b8251811015610edb57836001600160a01b0316636616ba94848381518110612bb057612bb0614a79565b6020026020010151848481518110612bca57612bca614a79565b60200260200101516040518363ffffffff1660e01b8152600401612bef929190614863565b600060405180830381600087803b158015612c0957600080fd5b505af1158015612c1d573d6000803e3d6000fd5b505050508080612c2c90614a8f565b915050612b86565b6001546001600160a01b03163314612c5e5760405162461bcd60e51b81526004016109a69061478b565b60008282604051602001612c739291906149a1565b604051602081830303815290604052805190602001209050612c9481613ce6565b7f2701a94fd55a560e291f3c54d36580040670d6fde558a77a75d619e38139f7138383836040516129c793929190614924565b6001546001600160a01b03163314612cf15760405162461bcd60e51b81526004016109a69061478b565b62069780811115612d445760405162461bcd60e51b815260206004820152601960248201527f54696d656c6f636b3a20696e76616c6964205f6275666665720000000000000060448201526064016109a6565b6000548111612da15760405162461bcd60e51b8152602060048201526024808201527f54696d656c6f636b3a206275666665722063616e6e6f74206265206465637265604482015263185cd95960e21b60648201526084016109a6565b600055565b6001546001600160a01b03163314612dd05760405162461bcd60e51b81526004016109a69061478b565b6000838383604051602001612de793929190614948565b604051602081830303815290604052805190602001209050612e0881613ce6565b7ff7939bc8b606638d899ab039a0a8cedf853cfea7e9797919f4765e6c7433d491848484604051610a3293929190614924565b6001546001600160a01b03163314612e655760405162461bcd60e51b81526004016109a69061478b565b6040516371089f4d60e01b81526001600160a01b0382811660048301528316906371089f4d9060240161103a565b6001546001600160a01b03163314612ebd5760405162461bcd60e51b81526004016109a69061478b565b6000838383604051602001612ed4939291906147b8565b604051602081830303815290604052805190602001209050612ef581613da3565b612efe81613e69565b610edb848484613f09565b6001546001600160a01b0316331480612f315750336000908152600a602052604090205460ff165b80612f4b5750336000908152600b602052604090205460ff165b612f675760405162461bcd60e51b81526004016109a69061478b565b604051633fb8b32360e01b81526001600160a01b03841690633fb8b323906111549085908590600401614863565b6001546001600160a01b0316331480612fbd5750336000908152600a602052604090205460ff165b612fd95760405162461bcd60e51b81526004016109a69061478b565b604051637c2eb9f760e01b815281151560048201526001600160a01b03831690637c2eb9f79060240161103a565b6001546001600160a01b031633146130315760405162461bcd60e51b81526004016109a69061478b565b6001600160a01b03919091166000908152600b60205260409020805460ff1916911515919091179055565b6001546001600160a01b03163314806130845750336000908152600a602052604090205460ff165b6130a05760405162461bcd60e51b81526004016109a69061478b565b600854819060ff161561310857604051637c2eb9f760e01b8152600060048201526001600160a01b03821690637c2eb9f790602401600060405180830381600087803b1580156130ef57600080fd5b505af1158015613103573d6000803e3d6000fd5b505050505b806001600160a01b03166340eb3802826001600160a01b0316637a210a2b6040518163ffffffff1660e01b8152600401602060405180830381865afa158015613155573d6000803e3d6000fd5b505050506040513d601f19601f82011682018060405250810190613179919061480b565b836001600160a01b03166310eb56c26040518163ffffffff1660e01b8152600401602060405180830381865afa1580156131b7573d6000803e3d6000fd5b505050506040513d601f19601f820116820180604052508101906131db919061480b565b846001600160a01b0316634d47b3046040518163ffffffff1660e01b8152600401602060405180830381865afa158015613219573d6000803e3d6000fd5b505050506040513d601f19601f8201168201806040525081019061323d919061480b565b856001600160a01b031663a22f23926040518163ffffffff1660e01b8152600401602060405180830381865afa15801561327b573d6000803e3d6000fd5b505050506040513d601f19601f8201168201806040525081019061329f919061480b565b866001600160a01b031663df73a2676040518163ffffffff1660e01b8152600401602060405180830381865afa1580156132dd573d6000803e3d6000fd5b505050506040513d601f19601f82011682018060405250810190613301919061480b565b600754886001600160a01b031663174d26946040518163ffffffff1660e01b8152600401602060405180830381865afa158015612006573d6000803e3d6000fd5b6001546001600160a01b031633148061336a5750336000908152600a602052604090205460ff165b806133845750336000908152600b602052604090205460ff165b6133a05760405162461bcd60e51b81526004016109a69061478b565b6000869050806001600160a01b03166340eb38028787878787600754886001600160a01b031663174d26946040518163ffffffff1660e01b8152600401602060405180830381865afa1580156133fa573d6000803e3d6000fd5b505050506040513d601f19601f8201168201806040525081019061341e919061480b565b896001600160a01b031663d9ac42256040518163ffffffff1660e01b8152600401602060405180830381865afa15801561345c573d6000803e3d6000fd5b505050506040513d601f19601f82011682018060405250810190613480919061480b565b8a6001600160a01b0316639f392eb36040518163ffffffff1660e01b8152600401602060405180830381865afa1580156134be573d6000803e3d6000fd5b505050506040513d601f19601f820116820180604052508101906134e291906147ee565b6040518a63ffffffff1660e01b8152600401613506999897969594939291906149d2565b600060405180830381600087803b15801561352057600080fd5b505af1158015613534573d6000803e3d6000fd5b5050505050505050505050565b6001546001600160a01b0316331461356b5760405162461bcd60e51b81526004016109a69061478b565b6000888888888888888860405160200161358c989796959493929190614aa8565b6040516020818303038152906040528051906020012090506135ad81613ce6565b604080516001600160a01b03808c1682528a166020820152908101889052606081018790526080810186905260a0810185905283151560c082015282151560e08201527f3510e9d8245371c6c1061c33781ce16bd0eafa03cd3d0781865036520af4c743906101000160405180910390a1505050505050505050565b6001546001600160a01b031633146136535760405162461bcd60e51b81526004016109a69061478b565b600083838360405160200161366a93929190614b18565b60405160208183030381529060405280519060200120905061368b81613ce6565b604080516001600160a01b03808716825285166020820152908101839052606081018290527f6af9d86ba7407a934e941ed8ae5f779369a88fe8ba2cd1c204185d6f8a8287fd90608001610a32565b6001546001600160a01b031633146137045760405162461bcd60e51b81526004016109a69061478b565b6040516377d0853760e11b81526001600160a01b0384169063efa10a6e906111549085908590600401614863565b6001546001600160a01b0316331461375c5760405162461bcd60e51b81526004016109a69061478b565b600083838360405160200161377393929190614b18565b60405160208183030381529060405280519060200120905061379481613da3565b61379d81613e69565b60405163095ea7b360e01b81526001600160a01b0385169063095ea7b3906137cb9086908690600401614863565b6020604051808303816000875af11580156137ea573d6000803e3d6000fd5b505050506040513d601f19601f82011682018060405250810190611a2191906147ee565b6001546001600160a01b03163314806138365750336000908152600a602052604090205460ff165b6138525760405162461bcd60e51b81526004016109a69061478b565b600691909155600755565b6001546001600160a01b031633146138875760405162461bcd60e51b81526004016109a69061478b565b611c2081106138e45760405162461bcd60e51b815260206004820152602360248201527f54696d656c6f636b3a20696e76616c6964205f636f6f6c646f776e447572617460448201526234b7b760e91b60648201526084016109a6565b6004805460405163966be07560e01b81529182018390526001600160a01b03169063966be075906024016119f3565b6001546001600160a01b0316331461393d5760405162461bcd60e51b81526004016109a69061478b565b6000888888888888888860405160200161395e989796959493929190614aa8565b60405160208183030381529060405280519060200120905061397f81613da3565b61398881613e69565b604051633c5a6e3560e01b81526001600160a01b038a1690633c5a6e35906139c0908b908b908b908b908b908b908b90600401614824565b600060405180830381600087803b1580156139da57600080fd5b505af11580156139ee573d6000803e3d6000fd5b50505050505050505050505050565b6001546001600160a01b03163314613a275760405162461bcd60e51b81526004016109a69061478b565b6040516323b872dd60e01b81526001600160a01b038316906323b872dd90613a5790869030908690600401614924565b6020604051808303816000875af1158015613a76573d6000803e3d6000fd5b505050506040513d601f19601f82011682018060405250810190610edb91906147ee565b6001546001600160a01b0316331480613ac25750336000908152600a602052604090205460ff165b80613adc5750336000908152600b602052604090205460ff165b613af85760405162461bcd60e51b81526004016109a69061478b565b60005b8151811015613bb757826001600160a01b031663f2555278838381518110613b2557613b25614a79565b602090810291909101015160015460405160e084901b6001600160e01b03191681526001600160a01b039283166004820152911660248201526044016020604051808303816000875af1158015613b80573d6000803e3d6000fd5b505050506040513d601f19601f82011682018060405250810190613ba4919061480b565b5080613baf81614a8f565b915050613afb565b505050565b6001546001600160a01b03163314613be65760405162461bcd60e51b81526004016109a69061478b565b60008282604051602001613bfb929190614b51565b604051602081830303815290604052805190602001209050613c1c81613ce6565b7f5843d7444f1b928677a74d14031fcd291179dc741fa4ef3dc912a4cc9eefd3248383836040516129c793929190614924565b6001546001600160a01b03163314613c795760405162461bcd60e51b81526004016109a69061478b565b60008282604051602001613c8e929190614b51565b604051602081830303815290604052805190602001209050613caf81613da3565b613cb881613e69565b60405163e67f59a760e01b81526001600160a01b03838116600483015284169063e67f59a790602401611154565b60008181526009602052604090205415613d4d5760405162461bcd60e51b815260206004820152602260248201527f54696d656c6f636b3a20616374696f6e20616c7265616479207369676e616c6c604482015261195960f21b60648201526084016109a6565b600054613d5a9042614b91565b60008281526009602090815260409182902092909255518281527f5fb9c0ecf7b4a28c4c480212e868f9da7f373a2ed4d23498b0be6aadf35242fb91015b60405180910390a150565b6000818152600960205260408120549003613e005760405162461bcd60e51b815260206004820152601e60248201527f54696d656c6f636b3a20616374696f6e206e6f74207369676e616c6c6564000060448201526064016109a6565b600081815260096020526040902054421161256f5760405162461bcd60e51b8152602060048201526024808201527f54696d656c6f636b3a20616374696f6e2074696d65206e6f74207965742070616044820152631cdcd95960e21b60648201526084016109a6565b6000818152600960205260408120549003613ec65760405162461bcd60e51b815260206004820152601960248201527f54696d656c6f636b3a20696e76616c6964205f616374696f6e0000000000000060448201526064016109a6565b60008181526009602052604080822091909155517f194ed6dd5e37e2acc44a19455c3f208c4831ee695fe362d9c4ef2d316bc53aec90613d989083815260200190565b60405163cf456ae760e01b815283906001600160a01b0382169063cf456ae790613f3a9030906001906004016148bd565b600060405180830381600087803b158015613f5457600080fd5b505af1158015613f68573d6000803e3d6000fd5b50506040516340c10f1960e01b81526001600160a01b03841692506340c10f199150613f9a9086908690600401614863565b600060405180830381600087803b158015613fb457600080fd5b505af1158015613fc8573d6000803e3d6000fd5b50505050600554846001600160a01b03166318160ddd6040518163ffffffff1660e01b8152600401602060405180830381865afa15801561400d573d6000803e3d6000fd5b505050506040513d601f19601f82011682018060405250810190614031919061480b565b11156140895760405162461bcd60e51b815260206004820152602160248201527f54696d656c6f636b3a206d6178546f6b656e537570706c7920657863656564656044820152601960fa1b60648201526084016109a6565b60405163cf456ae760e01b81526001600160a01b0382169063cf456ae790610f7a9030906000906004016148bd565b6001600160a01b038116811461256f57600080fd5b6000806000606084860312156140e257600080fd5b83356140ed816140b8565b925060208401356140fd816140b8565b929592945050506040919091013590565b600080600080600080600060e0888a03121561412957600080fd5b8735614134816140b8565b96506020880135614144816140b8565b96999698505050506040850135946060810135946080820135945060a0820135935060c0909101359150565b60008060006060848603121561418557600080fd5b8335614190816140b8565b925060208401356141a0816140b8565b915060408401356141b0816140b8565b809150509250925092565b801515811461256f57600080fd5b6000806000606084860312156141de57600080fd5b83356141e9816140b8565b925060208401356141f9816140b8565b915060408401356141b0816141bb565b6000806040838503121561421c57600080fd5b8235614227816140b8565b91506020830135614237816141bb565b809150509250929050565b60008060006060848603121561425757600080fd5b8335614262816140b8565b92506020840135915060408401356141b0816140b8565b6000806000806080858703121561428f57600080fd5b843561429a816140b8565b935060208501356142aa816140b8565b925060408501356142ba816140b8565b9396929550929360600135925050565b600080600080608085870312156142e057600080fd5b84356142eb816140b8565b966020860135965060408601359560600135945092505050565b6000806040838503121561431857600080fd5b8235614323816140b8565b91506020830135614237816140b8565b60006020828403121561434557600080fd5b8135614350816140b8565b9392505050565b60006020828403121561436957600080fd5b5035919050565b6000806000806080858703121561438657600080fd5b8435614391816140b8565b935060208501356143a1816140b8565b925060408501356143b1816140b8565b915060608501356143c1816141bb565b939692955090935050565b6000806000806000806000806000806101408b8d0312156143ec57600080fd5b8a356143f7816140b8565b995060208b0135985060408b0135975060608b0135965060808b0135955060a08b0135945060c08b0135935060e08b013592506101008b013591506101208b0135614441816141bb565b809150509295989b9194979a5092959850565b6000806040838503121561446757600080fd5b8235614472816140b8565b946020939093013593505050565b60006020828403121561449257600080fd5b8135614350816141bb565b634e487b7160e01b600052604160045260246000fd5b604051601f8201601f1916810167ffffffffffffffff811182821017156144dc576144dc61449d565b604052919050565b600067ffffffffffffffff8211156144fe576144fe61449d565b5060051b60200190565b600082601f83011261451957600080fd5b8135602061452e614529836144e4565b6144b3565b82815260059290921b8401810191818101908684111561454d57600080fd5b8286015b84811015614571578035614564816140b8565b8352918301918301614551565b509695505050505050565b60008060006060848603121561459157600080fd5b833561459c816140b8565b925060208481013567ffffffffffffffff808211156145ba57600080fd5b6145c688838901614508565b945060408701359150808211156145dc57600080fd5b508501601f810187136145ee57600080fd5b80356145fc614529826144e4565b81815260059190911b8201830190838101908983111561461b57600080fd5b928401925b8284101561463957833582529284019290840190614620565b80955050505050509250925092565b60008060008060008060c0878903121561466157600080fd5b863561466c816140b8565b9860208801359850604088013597606081013597506080810135965060a00135945092505050565b600080600080600080600080610100898b0312156146b157600080fd5b88356146bc816140b8565b975060208901356146cc816140b8565b965060408901359550606089013594506080890135935060a0890135925060c08901356146f8816141bb565b915060e0890135614708816141bb565b809150509295985092959890939650565b6000806040838503121561472c57600080fd5b50508035926020909101359150565b6000806040838503121561474e57600080fd5b8235614759816140b8565b9150602083013567ffffffffffffffff81111561477557600080fd5b61478185828601614508565b9150509250929050565b6020808252601390820152722a34b6b2b637b1b59d103337b93134b23232b760691b604082015260600190565b631b5a5b9d60e21b81526001600160601b0319606094851b811660048301529290931b9091166018830152602c820152604c0190565b60006020828403121561480057600080fd5b8151614350816141bb565b60006020828403121561481d57600080fd5b5051919050565b6001600160a01b039790971687526020870195909552604086019390935260608501919091526080840152151560a0830152151560c082015260e00190565b6001600160a01b03929092168252602082015260400190565b6939b2ba2430b7323632b960b11b81526001600160601b0319606094851b8116600a8301529290931b909116601e830152151560f81b603282015260330190565b6001600160a01b039290921682521515602082015260400190565b6c3bb4ba34323930bbaa37b5b2b760991b81526001600160601b0319606095861b8116600d83015293851b841660218201529190931b9091166035820152604981019190915260690190565b6001600160a01b039384168152919092166020820152604081019190915260600190565b69072656465656d557364760b41b81526001600160601b0319606094851b8116600a8301529290931b909116601e830152603282015260520190565b60006020828403121561499657600080fd5b8151614350816140b8565b6539b2ba23b7bb60d11b81526001600160601b0319606093841b811660068301529190921b16601a820152602e0190565b988952602089019790975260408801959095526060870193909352608086019190915260a085015260c084015260e083015215156101008201526101200190565b6b1cd95d141c9a58d95199595960a21b81526001600160601b0319606093841b8116600c8301529190921b16602082015260340190565b634e487b7160e01b600052601160045260246000fd5b81810381811115614a7357614a73614a4a565b92915050565b634e487b7160e01b600052603260045260246000fd5b600060018201614aa157614aa1614a4a565b5060010190565b727661756c74536574546f6b656e436f6e66696760681b81526001600160601b03196060998a1b811660138301529790981b9096166027880152603b870194909452605b860192909252607b850152609b840152151560f890811b60bb840152901515901b60bc82015260bd0190565b66617070726f766560c81b81526001600160601b0319606094851b811660078301529290931b909116601b830152602f820152604f0190565b747661756c74436c656172546f6b656e436f6e66696760581b81526001600160601b0319606093841b811660158301529190921b166029820152603d0190565b80820180821115614a7357614a73614a4a56fea2646970667358221220663880ce86146f8efc8f6192b11e1b07e7704af59846436287d0da23687567af64736f6c63430008120033",
    "linkReferences": {}
  },
  "methodIdentifiers": {
    "MAX_BUFFER()": "61d07569",
    "MAX_FUNDING_RATE_FACTOR()": "8a39735a",
    "MAX_LEVERAGE_VALIDATION()": "2ba3725a",
    "PRICE_PRECISION()": "95082d25",
    "admin()": "f851a440",
    "approve(address,address,uint256)": "e1f21c67",
    "batchWithdrawFees(address,address[])": "e8ae2271",
    "brrrManager()": "e76ab00f",
    "buffer()": "edaafe20",
    "cancelAction(bytes32)": "781cc3d3",
    "disableLeverage(address)": "d3c87bbb",
    "enableLeverage(address)": "6d63c1d0",
    "govSetCodeOwner(address,bytes32,address)": "204bbc54",
    "govSetKeeper(address,address,address,bool)": "62c250e8",
    "initBrrrManager()": "73864944",
    "isHandler(address)": "46ea87af",
    "isKeeper(address)": "6ba42aaa",
    "marginFeeBasisPoints()": "318bc689",
    "maxMarginFeeBasisPoints()": "996e2bc9",
    "maxTokenSupply()": "50f7c204",
    "mintReceiver()": "c7bb26a0",
    "pendingActions(bytes32)": "e30569e5",
    "processMint(address,address,uint256)": "bc8a8ab9",
    "redeemUsdp(address,address,uint256)": "344085b3",
    "removeAdmin(address,address)": "268959e5",
    "setAdmin(address)": "704b6c02",
    "setBrrrCooldownDuration(uint256)": "e3b6cd07",
    "setBuffer(uint256)": "adc7ea37",
    "setContractHandler(address,bool)": "185051c1",
    "setExternalAdmin(address,address)": "55ef1395",
    "setFees(address,uint256,uint256,uint256,uint256,uint256,uint256,uint256,uint256,bool)": "6e5227d4",
    "setFundingRate(address,uint256,uint256,uint256)": "227f03eb",
    "setGov(address,address)": "51a6de0d",
    "setHandler(address,address,bool)": "1154e808",
    "setInPrivateLiquidationMode(address,bool)": "21bd0592",
    "setInPrivateTransferMode(address,bool)": "86803c72",
    "setIsLeverageEnabled(address,bool)": "cd2b1230",
    "setIsSwapEnabled(address,bool)": "117cf204",
    "setKeeper(address,bool)": "d1b9e853",
    "setLiquidator(address,address,bool)": "47de43e2",
    "setMarginFeeBasisPoints(uint256,uint256)": "e21b4591",
    "setMaxGasPrice(address,uint256)": "8bf22c46",
    "setMaxGlobalShortSize(address,address,uint256)": "df3a66d9",
    "setMaxLeverage(address,uint256)": "7b6f775a",
    "setPriceFeed(address,address)": "76e11286",
    "setReferrerTier(address,address,uint256)": "c142940a",
    "setShortsTrackerAveragePriceWeight(uint256)": "4f5f6b5e",
    "setShouldToggleIsLeverageEnabled(bool)": "8e34c98f",
    "setSwapFees(address,uint256,uint256,uint256,uint256,uint256)": "da762316",
    "setTier(address,uint256,uint256,uint256)": "55818294",
    "setTokenConfig(address,address,uint256,uint256,uint256,uint256,uint256)": "0e0dc426",
    "setTokenManager(address)": "7cb2b79c",
    "setUsdpAmounts(address,address[],uint256[])": "98c8a100",
    "setVaultUtils(address,address)": "bc476dfd",
    "shouldToggleIsLeverageEnabled()": "23aaad12",
    "signalApprove(address,address,uint256)": "dce6e18d",
    "signalMint(address,address,uint256)": "09cc9a08",
    "signalRedeemUsdp(address,address,uint256)": "b8361ebb",
    "signalSetGov(address,address)": "996a7a1e",
    "signalSetHandler(address,address,bool)": "24ccbe30",
    "signalSetPriceFeed(address,address)": "80894d62",
    "signalVaultClearTokenConfig(address,address)": "f58ed351",
    "signalVaultSetTokenConfig(address,address,uint256,uint256,uint256,uint256,bool,bool)": "db1c8441",
    "signalWithdrawToken(address,address,address,uint256)": "4cd23f3b",
    "tokenManager()": "2a709b14",
    "transferIn(address,address,uint256)": "e4652f49",
    "updateUsdpSupply(uint256)": "7ec7929b",
    "vaultClearTokenConfig(address,address)": "f67f8e4f",
    "vaultSetTokenConfig(address,address,uint256,uint256,uint256,uint256,bool,bool)": "e3cbeb0f",
    "withdrawFees(address,address,address)": "0e9587f3",
    "withdrawToken(address,address,address,uint256)": "21754d9e"
  },
  "id": 75
}