{
  "abi": [
    {
      "inputs": [
        {
          "internalType": "address",
          "name": "_vault",
          "type": "address"
        },
        {
          "internalType": "address",
          "name": "_router",
          "type": "address"
        },
        {
          "internalType": "address",
          "name": "_weth",
          "type": "address"
        },
        {
          "internalType": "address",
          "name": "_shortsTracker",
          "type": "address"
        },
        {
          "internalType": "uint256",
          "name": "_depositFee",
          "type": "uint256"
        },
        {
          "internalType": "uint256",
          "name": "_minExecutionFee",
          "type": "uint256"
        }
      ],
      "stateMutability": "nonpayable",
      "type": "constructor"
    },
    {
      "inputs": [
        {
          "internalType": "address",
          "name": "target",
          "type": "address"
        }
      ],
      "name": "AddressEmptyCode",
      "type": "error"
    },
    {
      "inputs": [
        {
          "internalType": "address",
          "name": "account",
          "type": "address"
        }
      ],
      "name": "AddressInsufficientBalance",
      "type": "error"
    },
    {
      "inputs": [],
      "name": "FailedInnerCall",
      "type": "error"
    },
    {
      "inputs": [],
      "name": "PositionRouter_403",
      "type": "error"
    },
    {
      "inputs": [],
      "name": "PositionRouter_CallbackFailed",
      "type": "error"
    },
    {
      "inputs": [],
      "name": "PositionRouter_expired",
      "type": "error"
    },
    {
      "inputs": [],
      "name": "ReentrancyGuardReentrantCall",
      "type": "error"
    },
    {
      "inputs": [
        {
          "internalType": "address",
          "name": "token",
          "type": "address"
        }
      ],
      "name": "SafeERC20FailedOperation",
      "type": "error"
    },
    {
      "anonymous": false,
      "inputs": [
        {
          "indexed": false,
          "internalType": "address",
          "name": "callbackTarget",
          "type": "address"
        },
        {
          "indexed": false,
          "internalType": "bool",
          "name": "success",
          "type": "bool"
        },
        {
          "indexed": false,
          "internalType": "uint256",
          "name": "callbackGasLimit",
          "type": "uint256"
        }
      ],
      "name": "Callback",
      "type": "event"
    },
    {
      "anonymous": false,
      "inputs": [
        {
          "indexed": true,
          "internalType": "address",
          "name": "account",
          "type": "address"
        },
        {
          "indexed": false,
          "internalType": "address[]",
          "name": "path",
          "type": "address[]"
        },
        {
          "indexed": false,
          "internalType": "address",
          "name": "indexToken",
          "type": "address"
        },
        {
          "indexed": false,
          "internalType": "uint256",
          "name": "collateralDelta",
          "type": "uint256"
        },
        {
          "indexed": false,
          "internalType": "uint256",
          "name": "sizeDelta",
          "type": "uint256"
        },
        {
          "indexed": false,
          "internalType": "bool",
          "name": "isLong",
          "type": "bool"
        },
        {
          "indexed": false,
          "internalType": "address",
          "name": "receiver",
          "type": "address"
        },
        {
          "indexed": false,
          "internalType": "uint256",
          "name": "acceptablePrice",
          "type": "uint256"
        },
        {
          "indexed": false,
          "internalType": "uint256",
          "name": "minOut",
          "type": "uint256"
        },
        {
          "indexed": false,
          "internalType": "uint256",
          "name": "executionFee",
          "type": "uint256"
        },
        {
          "indexed": false,
          "internalType": "uint256",
          "name": "blockGap",
          "type": "uint256"
        },
        {
          "indexed": false,
          "internalType": "uint256",
          "name": "timeGap",
          "type": "uint256"
        }
      ],
      "name": "CancelDecreasePosition",
      "type": "event"
    },
    {
      "anonymous": false,
      "inputs": [
        {
          "indexed": true,
          "internalType": "address",
          "name": "account",
          "type": "address"
        },
        {
          "indexed": false,
          "internalType": "address[]",
          "name": "path",
          "type": "address[]"
        },
        {
          "indexed": false,
          "internalType": "address",
          "name": "indexToken",
          "type": "address"
        },
        {
          "indexed": false,
          "internalType": "uint256",
          "name": "amountIn",
          "type": "uint256"
        },
        {
          "indexed": false,
          "internalType": "uint256",
          "name": "minOut",
          "type": "uint256"
        },
        {
          "indexed": false,
          "internalType": "uint256",
          "name": "sizeDelta",
          "type": "uint256"
        },
        {
          "indexed": false,
          "internalType": "bool",
          "name": "isLong",
          "type": "bool"
        },
        {
          "indexed": false,
          "internalType": "uint256",
          "name": "acceptablePrice",
          "type": "uint256"
        },
        {
          "indexed": false,
          "internalType": "uint256",
          "name": "executionFee",
          "type": "uint256"
        },
        {
          "indexed": false,
          "internalType": "uint256",
          "name": "blockGap",
          "type": "uint256"
        },
        {
          "indexed": false,
          "internalType": "uint256",
          "name": "timeGap",
          "type": "uint256"
        }
      ],
      "name": "CancelIncreasePosition",
      "type": "event"
    },
    {
      "anonymous": false,
      "inputs": [
        {
          "indexed": true,
          "internalType": "address",
          "name": "account",
          "type": "address"
        },
        {
          "indexed": false,
          "internalType": "address[]",
          "name": "path",
          "type": "address[]"
        },
        {
          "indexed": false,
          "internalType": "address",
          "name": "indexToken",
          "type": "address"
        },
        {
          "indexed": false,
          "internalType": "uint256",
          "name": "collateralDelta",
          "type": "uint256"
        },
        {
          "indexed": false,
          "internalType": "uint256",
          "name": "sizeDelta",
          "type": "uint256"
        },
        {
          "indexed": false,
          "internalType": "bool",
          "name": "isLong",
          "type": "bool"
        },
        {
          "indexed": false,
          "internalType": "address",
          "name": "receiver",
          "type": "address"
        },
        {
          "indexed": false,
          "internalType": "uint256",
          "name": "acceptablePrice",
          "type": "uint256"
        },
        {
          "indexed": false,
          "internalType": "uint256",
          "name": "minOut",
          "type": "uint256"
        },
        {
          "indexed": false,
          "internalType": "uint256",
          "name": "executionFee",
          "type": "uint256"
        },
        {
          "indexed": false,
          "internalType": "uint256",
          "name": "index",
          "type": "uint256"
        },
        {
          "indexed": false,
          "internalType": "uint256",
          "name": "queueIndex",
          "type": "uint256"
        },
        {
          "indexed": false,
          "internalType": "uint256",
          "name": "blockNumber",
          "type": "uint256"
        },
        {
          "indexed": false,
          "internalType": "uint256",
          "name": "blockTime",
          "type": "uint256"
        }
      ],
      "name": "CreateDecreasePosition",
      "type": "event"
    },
    {
      "anonymous": false,
      "inputs": [
        {
          "indexed": true,
          "internalType": "address",
          "name": "account",
          "type": "address"
        },
        {
          "indexed": false,
          "internalType": "address[]",
          "name": "path",
          "type": "address[]"
        },
        {
          "indexed": false,
          "internalType": "address",
          "name": "indexToken",
          "type": "address"
        },
        {
          "indexed": false,
          "internalType": "uint256",
          "name": "amountIn",
          "type": "uint256"
        },
        {
          "indexed": false,
          "internalType": "uint256",
          "name": "minOut",
          "type": "uint256"
        },
        {
          "indexed": false,
          "internalType": "uint256",
          "name": "sizeDelta",
          "type": "uint256"
        },
        {
          "indexed": false,
          "internalType": "bool",
          "name": "isLong",
          "type": "bool"
        },
        {
          "indexed": false,
          "internalType": "uint256",
          "name": "acceptablePrice",
          "type": "uint256"
        },
        {
          "indexed": false,
          "internalType": "uint256",
          "name": "executionFee",
          "type": "uint256"
        },
        {
          "indexed": false,
          "internalType": "uint256",
          "name": "index",
          "type": "uint256"
        },
        {
          "indexed": false,
          "internalType": "uint256",
          "name": "queueIndex",
          "type": "uint256"
        },
        {
          "indexed": false,
          "internalType": "uint256",
          "name": "blockNumber",
          "type": "uint256"
        },
        {
          "indexed": false,
          "internalType": "uint256",
          "name": "blockTime",
          "type": "uint256"
        },
        {
          "indexed": false,
          "internalType": "uint256",
          "name": "gasPrice",
          "type": "uint256"
        }
      ],
      "name": "CreateIncreasePosition",
      "type": "event"
    },
    {
      "anonymous": false,
      "inputs": [
        {
          "indexed": false,
          "internalType": "address",
          "name": "account",
          "type": "address"
        },
        {
          "indexed": false,
          "internalType": "uint256",
          "name": "sizeDelta",
          "type": "uint256"
        },
        {
          "indexed": false,
          "internalType": "uint256",
          "name": "marginFeeBasisPoints",
          "type": "uint256"
        },
        {
          "indexed": false,
          "internalType": "bytes32",
          "name": "referralCode",
          "type": "bytes32"
        },
        {
          "indexed": false,
          "internalType": "address",
          "name": "referrer",
          "type": "address"
        }
      ],
      "name": "DecreasePositionReferral",
      "type": "event"
    },
    {
      "anonymous": false,
      "inputs": [
        {
          "indexed": true,
          "internalType": "address",
          "name": "account",
          "type": "address"
        },
        {
          "indexed": false,
          "internalType": "address[]",
          "name": "path",
          "type": "address[]"
        },
        {
          "indexed": false,
          "internalType": "address",
          "name": "indexToken",
          "type": "address"
        },
        {
          "indexed": false,
          "internalType": "uint256",
          "name": "collateralDelta",
          "type": "uint256"
        },
        {
          "indexed": false,
          "internalType": "uint256",
          "name": "sizeDelta",
          "type": "uint256"
        },
        {
          "indexed": false,
          "internalType": "bool",
          "name": "isLong",
          "type": "bool"
        },
        {
          "indexed": false,
          "internalType": "address",
          "name": "receiver",
          "type": "address"
        },
        {
          "indexed": false,
          "internalType": "uint256",
          "name": "acceptablePrice",
          "type": "uint256"
        },
        {
          "indexed": false,
          "internalType": "uint256",
          "name": "minOut",
          "type": "uint256"
        },
        {
          "indexed": false,
          "internalType": "uint256",
          "name": "executionFee",
          "type": "uint256"
        },
        {
          "indexed": false,
          "internalType": "uint256",
          "name": "blockGap",
          "type": "uint256"
        },
        {
          "indexed": false,
          "internalType": "uint256",
          "name": "timeGap",
          "type": "uint256"
        }
      ],
      "name": "ExecuteDecreasePosition",
      "type": "event"
    },
    {
      "anonymous": false,
      "inputs": [
        {
          "indexed": true,
          "internalType": "address",
          "name": "account",
          "type": "address"
        },
        {
          "indexed": false,
          "internalType": "address[]",
          "name": "path",
          "type": "address[]"
        },
        {
          "indexed": false,
          "internalType": "address",
          "name": "indexToken",
          "type": "address"
        },
        {
          "indexed": false,
          "internalType": "uint256",
          "name": "amountIn",
          "type": "uint256"
        },
        {
          "indexed": false,
          "internalType": "uint256",
          "name": "minOut",
          "type": "uint256"
        },
        {
          "indexed": false,
          "internalType": "uint256",
          "name": "sizeDelta",
          "type": "uint256"
        },
        {
          "indexed": false,
          "internalType": "bool",
          "name": "isLong",
          "type": "bool"
        },
        {
          "indexed": false,
          "internalType": "uint256",
          "name": "acceptablePrice",
          "type": "uint256"
        },
        {
          "indexed": false,
          "internalType": "uint256",
          "name": "executionFee",
          "type": "uint256"
        },
        {
          "indexed": false,
          "internalType": "uint256",
          "name": "blockGap",
          "type": "uint256"
        },
        {
          "indexed": false,
          "internalType": "uint256",
          "name": "timeGap",
          "type": "uint256"
        }
      ],
      "name": "ExecuteIncreasePosition",
      "type": "event"
    },
    {
      "anonymous": false,
      "inputs": [
        {
          "indexed": false,
          "internalType": "address",
          "name": "account",
          "type": "address"
        },
        {
          "indexed": false,
          "internalType": "uint256",
          "name": "sizeDelta",
          "type": "uint256"
        },
        {
          "indexed": false,
          "internalType": "uint256",
          "name": "marginFeeBasisPoints",
          "type": "uint256"
        },
        {
          "indexed": false,
          "internalType": "bytes32",
          "name": "referralCode",
          "type": "bytes32"
        },
        {
          "indexed": false,
          "internalType": "address",
          "name": "referrer",
          "type": "address"
        }
      ],
      "name": "IncreasePositionReferral",
      "type": "event"
    },
    {
      "anonymous": false,
      "inputs": [
        {
          "indexed": false,
          "internalType": "address",
          "name": "admin",
          "type": "address"
        }
      ],
      "name": "SetAdmin",
      "type": "event"
    },
    {
      "anonymous": false,
      "inputs": [
        {
          "indexed": false,
          "internalType": "uint256",
          "name": "callbackGasLimit",
          "type": "uint256"
        }
      ],
      "name": "SetCallbackGasLimit",
      "type": "event"
    },
    {
      "anonymous": false,
      "inputs": [
        {
          "indexed": false,
          "internalType": "address",
          "name": "callbackTarget",
          "type": "address"
        },
        {
          "indexed": false,
          "internalType": "uint256",
          "name": "callbackGasLimit",
          "type": "uint256"
        }
      ],
      "name": "SetCustomCallbackGasLimit",
      "type": "event"
    },
    {
      "anonymous": false,
      "inputs": [
        {
          "indexed": false,
          "internalType": "uint256",
          "name": "minBlockDelayKeeper",
          "type": "uint256"
        },
        {
          "indexed": false,
          "internalType": "uint256",
          "name": "minTimeDelayPublic",
          "type": "uint256"
        },
        {
          "indexed": false,
          "internalType": "uint256",
          "name": "maxTimeDelay",
          "type": "uint256"
        }
      ],
      "name": "SetDelayValues",
      "type": "event"
    },
    {
      "anonymous": false,
      "inputs": [
        {
          "indexed": false,
          "internalType": "uint256",
          "name": "depositFee",
          "type": "uint256"
        }
      ],
      "name": "SetDepositFee",
      "type": "event"
    },
    {
      "anonymous": false,
      "inputs": [
        {
          "indexed": false,
          "internalType": "uint256",
          "name": "ethTransferGasLimit",
          "type": "uint256"
        }
      ],
      "name": "SetEthTransferGasLimit",
      "type": "event"
    },
    {
      "anonymous": false,
      "inputs": [
        {
          "indexed": false,
          "internalType": "uint256",
          "name": "increasePositionBufferBps",
          "type": "uint256"
        }
      ],
      "name": "SetIncreasePositionBufferBps",
      "type": "event"
    },
    {
      "anonymous": false,
      "inputs": [
        {
          "indexed": false,
          "internalType": "bool",
          "name": "isLeverageEnabled",
          "type": "bool"
        }
      ],
      "name": "SetIsLeverageEnabled",
      "type": "event"
    },
    {
      "anonymous": false,
      "inputs": [
        {
          "indexed": false,
          "internalType": "address[]",
          "name": "tokens",
          "type": "address[]"
        },
        {
          "indexed": false,
          "internalType": "uint256[]",
          "name": "longSizes",
          "type": "uint256[]"
        },
        {
          "indexed": false,
          "internalType": "uint256[]",
          "name": "shortSizes",
          "type": "uint256[]"
        }
      ],
      "name": "SetMaxGlobalSizes",
      "type": "event"
    },
    {
      "anonymous": false,
      "inputs": [
        {
          "indexed": false,
          "internalType": "uint256",
          "name": "minExecutionFee",
          "type": "uint256"
        }
      ],
      "name": "SetMinExecutionFee",
      "type": "event"
    },
    {
      "anonymous": false,
      "inputs": [
        {
          "indexed": true,
          "internalType": "address",
          "name": "account",
          "type": "address"
        },
        {
          "indexed": false,
          "internalType": "bool",
          "name": "isActive",
          "type": "bool"
        }
      ],
      "name": "SetPositionKeeper",
      "type": "event"
    },
    {
      "anonymous": false,
      "inputs": [
        {
          "indexed": false,
          "internalType": "address",
          "name": "referralStorage",
          "type": "address"
        }
      ],
      "name": "SetReferralStorage",
      "type": "event"
    },
    {
      "anonymous": false,
      "inputs": [
        {
          "indexed": false,
          "internalType": "uint256",
          "name": "increasePositionRequestKeysStart",
          "type": "uint256"
        },
        {
          "indexed": false,
          "internalType": "uint256",
          "name": "decreasePositionRequestKeysStart",
          "type": "uint256"
        }
      ],
      "name": "SetRequestKeysStartValues",
      "type": "event"
    },
    {
      "anonymous": false,
      "inputs": [
        {
          "indexed": false,
          "internalType": "address",
          "name": "token",
          "type": "address"
        },
        {
          "indexed": false,
          "internalType": "address",
          "name": "receiver",
          "type": "address"
        },
        {
          "indexed": false,
          "internalType": "uint256",
          "name": "amount",
          "type": "uint256"
        }
      ],
      "name": "WithdrawFees",
      "type": "event"
    },
    {
      "inputs": [],
      "name": "BASIS_POINTS_DIVISOR",
      "outputs": [
        {
          "internalType": "uint256",
          "name": "",
          "type": "uint256"
        }
      ],
      "stateMutability": "view",
      "type": "function"
    },
    {
      "inputs": [],
      "name": "admin",
      "outputs": [
        {
          "internalType": "address",
          "name": "",
          "type": "address"
        }
      ],
      "stateMutability": "view",
      "type": "function"
    },
    {
      "inputs": [
        {
          "internalType": "address",
          "name": "_token",
          "type": "address"
        },
        {
          "internalType": "address",
          "name": "_spender",
          "type": "address"
        },
        {
          "internalType": "uint256",
          "name": "_amount",
          "type": "uint256"
        }
      ],
      "name": "approve",
      "outputs": [],
      "stateMutability": "nonpayable",
      "type": "function"
    },
    {
      "inputs": [],
      "name": "callbackGasLimit",
      "outputs": [
        {
          "internalType": "uint256",
          "name": "",
          "type": "uint256"
        }
      ],
      "stateMutability": "view",
      "type": "function"
    },
    {
      "inputs": [
        {
          "internalType": "bytes32",
          "name": "_key",
          "type": "bytes32"
        },
        {
          "internalType": "address payable",
          "name": "_executionFeeReceiver",
          "type": "address"
        }
      ],
      "name": "cancelDecreasePosition",
      "outputs": [
        {
          "internalType": "bool",
          "name": "",
          "type": "bool"
        }
      ],
      "stateMutability": "nonpayable",
      "type": "function"
    },
    {
      "inputs": [
        {
          "internalType": "bytes32",
          "name": "_key",
          "type": "bytes32"
        },
        {
          "internalType": "address payable",
          "name": "_executionFeeReceiver",
          "type": "address"
        }
      ],
      "name": "cancelIncreasePosition",
      "outputs": [
        {
          "internalType": "bool",
          "name": "",
          "type": "bool"
        }
      ],
      "stateMutability": "nonpayable",
      "type": "function"
    },
    {
      "inputs": [
        {
          "internalType": "address[]",
          "name": "_path",
          "type": "address[]"
        },
        {
          "internalType": "address",
          "name": "_indexToken",
          "type": "address"
        },
        {
          "internalType": "uint256",
          "name": "_collateralDelta",
          "type": "uint256"
        },
        {
          "internalType": "uint256",
          "name": "_sizeDelta",
          "type": "uint256"
        },
        {
          "internalType": "bool",
          "name": "_isLong",
          "type": "bool"
        },
        {
          "internalType": "address",
          "name": "_receiver",
          "type": "address"
        },
        {
          "internalType": "uint256",
          "name": "_acceptablePrice",
          "type": "uint256"
        },
        {
          "internalType": "uint256",
          "name": "_minOut",
          "type": "uint256"
        },
        {
          "internalType": "uint256",
          "name": "_executionFee",
          "type": "uint256"
        },
        {
          "internalType": "bool",
          "name": "_withdrawETH",
          "type": "bool"
        },
        {
          "internalType": "address",
          "name": "_callbackTarget",
          "type": "address"
        }
      ],
      "name": "createDecreasePosition",
      "outputs": [
        {
          "internalType": "bytes32",
          "name": "",
          "type": "bytes32"
        }
      ],
      "stateMutability": "payable",
      "type": "function"
    },
    {
      "inputs": [
        {
          "internalType": "address[]",
          "name": "_path",
          "type": "address[]"
        },
        {
          "internalType": "address",
          "name": "_indexToken",
          "type": "address"
        },
        {
          "internalType": "uint256",
          "name": "_amountIn",
          "type": "uint256"
        },
        {
          "internalType": "uint256",
          "name": "_minOut",
          "type": "uint256"
        },
        {
          "internalType": "uint256",
          "name": "_sizeDelta",
          "type": "uint256"
        },
        {
          "internalType": "bool",
          "name": "_isLong",
          "type": "bool"
        },
        {
          "internalType": "uint256",
          "name": "_acceptablePrice",
          "type": "uint256"
        },
        {
          "internalType": "uint256",
          "name": "_executionFee",
          "type": "uint256"
        },
        {
          "internalType": "bytes32",
          "name": "_referralCode",
          "type": "bytes32"
        },
        {
          "internalType": "address",
          "name": "_callbackTarget",
          "type": "address"
        }
      ],
      "name": "createIncreasePosition",
      "outputs": [
        {
          "internalType": "bytes32",
          "name": "",
          "type": "bytes32"
        }
      ],
      "stateMutability": "payable",
      "type": "function"
    },
    {
      "inputs": [
        {
          "internalType": "address[]",
          "name": "_path",
          "type": "address[]"
        },
        {
          "internalType": "address",
          "name": "_indexToken",
          "type": "address"
        },
        {
          "internalType": "uint256",
          "name": "_minOut",
          "type": "uint256"
        },
        {
          "internalType": "uint256",
          "name": "_sizeDelta",
          "type": "uint256"
        },
        {
          "internalType": "bool",
          "name": "_isLong",
          "type": "bool"
        },
        {
          "internalType": "uint256",
          "name": "_acceptablePrice",
          "type": "uint256"
        },
        {
          "internalType": "uint256",
          "name": "_executionFee",
          "type": "uint256"
        },
        {
          "internalType": "bytes32",
          "name": "_referralCode",
          "type": "bytes32"
        },
        {
          "internalType": "address",
          "name": "_callbackTarget",
          "type": "address"
        }
      ],
      "name": "createIncreasePositionETH",
      "outputs": [
        {
          "internalType": "bytes32",
          "name": "",
          "type": "bytes32"
        }
      ],
      "stateMutability": "payable",
      "type": "function"
    },
    {
      "inputs": [
        {
          "internalType": "address",
          "name": "",
          "type": "address"
        }
      ],
      "name": "customCallbackGasLimits",
      "outputs": [
        {
          "internalType": "uint256",
          "name": "",
          "type": "uint256"
        }
      ],
      "stateMutability": "view",
      "type": "function"
    },
    {
      "inputs": [
        {
          "internalType": "uint256",
          "name": "",
          "type": "uint256"
        }
      ],
      "name": "decreasePositionRequestKeys",
      "outputs": [
        {
          "internalType": "bytes32",
          "name": "",
          "type": "bytes32"
        }
      ],
      "stateMutability": "view",
      "type": "function"
    },
    {
      "inputs": [],
      "name": "decreasePositionRequestKeysStart",
      "outputs": [
        {
          "internalType": "uint256",
          "name": "",
          "type": "uint256"
        }
      ],
      "stateMutability": "view",
      "type": "function"
    },
    {
      "inputs": [
        {
          "internalType": "bytes32",
          "name": "",
          "type": "bytes32"
        }
      ],
      "name": "decreasePositionRequests",
      "outputs": [
        {
          "internalType": "address",
          "name": "account",
          "type": "address"
        },
        {
          "internalType": "address",
          "name": "indexToken",
          "type": "address"
        },
        {
          "internalType": "uint256",
          "name": "collateralDelta",
          "type": "uint256"
        },
        {
          "internalType": "uint256",
          "name": "sizeDelta",
          "type": "uint256"
        },
        {
          "internalType": "bool",
          "name": "isLong",
          "type": "bool"
        },
        {
          "internalType": "address",
          "name": "receiver",
          "type": "address"
        },
        {
          "internalType": "uint256",
          "name": "acceptablePrice",
          "type": "uint256"
        },
        {
          "internalType": "uint256",
          "name": "minOut",
          "type": "uint256"
        },
        {
          "internalType": "uint256",
          "name": "executionFee",
          "type": "uint256"
        },
        {
          "internalType": "uint256",
          "name": "blockNumber",
          "type": "uint256"
        },
        {
          "internalType": "uint256",
          "name": "blockTime",
          "type": "uint256"
        },
        {
          "internalType": "bool",
          "name": "withdrawETH",
          "type": "bool"
        },
        {
          "internalType": "address",
          "name": "callbackTarget",
          "type": "address"
        }
      ],
      "stateMutability": "view",
      "type": "function"
    },
    {
      "inputs": [
        {
          "internalType": "address",
          "name": "",
          "type": "address"
        }
      ],
      "name": "decreasePositionsIndex",
      "outputs": [
        {
          "internalType": "uint256",
          "name": "",
          "type": "uint256"
        }
      ],
      "stateMutability": "view",
      "type": "function"
    },
    {
      "inputs": [],
      "name": "depositFee",
      "outputs": [
        {
          "internalType": "uint256",
          "name": "",
          "type": "uint256"
        }
      ],
      "stateMutability": "view",
      "type": "function"
    },
    {
      "inputs": [],
      "name": "ethTransferGasLimit",
      "outputs": [
        {
          "internalType": "uint256",
          "name": "",
          "type": "uint256"
        }
      ],
      "stateMutability": "view",
      "type": "function"
    },
    {
      "inputs": [
        {
          "internalType": "bytes32",
          "name": "_key",
          "type": "bytes32"
        },
        {
          "internalType": "address payable",
          "name": "_executionFeeReceiver",
          "type": "address"
        }
      ],
      "name": "executeDecreasePosition",
      "outputs": [
        {
          "internalType": "bool",
          "name": "",
          "type": "bool"
        }
      ],
      "stateMutability": "nonpayable",
      "type": "function"
    },
    {
      "inputs": [
        {
          "internalType": "uint256",
          "name": "_endIndex",
          "type": "uint256"
        },
        {
          "internalType": "address payable",
          "name": "_executionFeeReceiver",
          "type": "address"
        }
      ],
      "name": "executeDecreasePositions",
      "outputs": [],
      "stateMutability": "nonpayable",
      "type": "function"
    },
    {
      "inputs": [
        {
          "internalType": "bytes32",
          "name": "_key",
          "type": "bytes32"
        },
        {
          "internalType": "address payable",
          "name": "_executionFeeReceiver",
          "type": "address"
        }
      ],
      "name": "executeIncreasePosition",
      "outputs": [
        {
          "internalType": "bool",
          "name": "",
          "type": "bool"
        }
      ],
      "stateMutability": "nonpayable",
      "type": "function"
    },
    {
      "inputs": [
        {
          "internalType": "uint256",
          "name": "_endIndex",
          "type": "uint256"
        },
        {
          "internalType": "address payable",
          "name": "_executionFeeReceiver",
          "type": "address"
        }
      ],
      "name": "executeIncreasePositions",
      "outputs": [],
      "stateMutability": "nonpayable",
      "type": "function"
    },
    {
      "inputs": [
        {
          "internalType": "address",
          "name": "",
          "type": "address"
        }
      ],
      "name": "feeReserves",
      "outputs": [
        {
          "internalType": "uint256",
          "name": "",
          "type": "uint256"
        }
      ],
      "stateMutability": "view",
      "type": "function"
    },
    {
      "inputs": [
        {
          "internalType": "bytes32",
          "name": "_key",
          "type": "bytes32"
        }
      ],
      "name": "getDecreasePositionRequestPath",
      "outputs": [
        {
          "internalType": "address[]",
          "name": "",
          "type": "address[]"
        }
      ],
      "stateMutability": "view",
      "type": "function"
    },
    {
      "inputs": [
        {
          "internalType": "bytes32",
          "name": "_key",
          "type": "bytes32"
        }
      ],
      "name": "getIncreasePositionRequestPath",
      "outputs": [
        {
          "internalType": "address[]",
          "name": "",
          "type": "address[]"
        }
      ],
      "stateMutability": "view",
      "type": "function"
    },
    {
      "inputs": [
        {
          "internalType": "address",
          "name": "_account",
          "type": "address"
        },
        {
          "internalType": "uint256",
          "name": "_index",
          "type": "uint256"
        }
      ],
      "name": "getRequestKey",
      "outputs": [
        {
          "internalType": "bytes32",
          "name": "",
          "type": "bytes32"
        }
      ],
      "stateMutability": "pure",
      "type": "function"
    },
    {
      "inputs": [],
      "name": "getRequestQueueLengths",
      "outputs": [
        {
          "internalType": "uint256",
          "name": "",
          "type": "uint256"
        },
        {
          "internalType": "uint256",
          "name": "",
          "type": "uint256"
        },
        {
          "internalType": "uint256",
          "name": "",
          "type": "uint256"
        },
        {
          "internalType": "uint256",
          "name": "",
          "type": "uint256"
        }
      ],
      "stateMutability": "view",
      "type": "function"
    },
    {
      "inputs": [],
      "name": "gov",
      "outputs": [
        {
          "internalType": "address",
          "name": "",
          "type": "address"
        }
      ],
      "stateMutability": "view",
      "type": "function"
    },
    {
      "inputs": [],
      "name": "increasePositionBufferBps",
      "outputs": [
        {
          "internalType": "uint256",
          "name": "",
          "type": "uint256"
        }
      ],
      "stateMutability": "view",
      "type": "function"
    },
    {
      "inputs": [
        {
          "internalType": "uint256",
          "name": "",
          "type": "uint256"
        }
      ],
      "name": "increasePositionRequestKeys",
      "outputs": [
        {
          "internalType": "bytes32",
          "name": "",
          "type": "bytes32"
        }
      ],
      "stateMutability": "view",
      "type": "function"
    },
    {
      "inputs": [],
      "name": "increasePositionRequestKeysStart",
      "outputs": [
        {
          "internalType": "uint256",
          "name": "",
          "type": "uint256"
        }
      ],
      "stateMutability": "view",
      "type": "function"
    },
    {
      "inputs": [
        {
          "internalType": "bytes32",
          "name": "",
          "type": "bytes32"
        }
      ],
      "name": "increasePositionRequests",
      "outputs": [
        {
          "internalType": "address",
          "name": "account",
          "type": "address"
        },
        {
          "internalType": "address",
          "name": "indexToken",
          "type": "address"
        },
        {
          "internalType": "uint256",
          "name": "amountIn",
          "type": "uint256"
        },
        {
          "internalType": "uint256",
          "name": "minOut",
          "type": "uint256"
        },
        {
          "internalType": "uint256",
          "name": "sizeDelta",
          "type": "uint256"
        },
        {
          "internalType": "bool",
          "name": "isLong",
          "type": "bool"
        },
        {
          "internalType": "uint256",
          "name": "acceptablePrice",
          "type": "uint256"
        },
        {
          "internalType": "uint256",
          "name": "executionFee",
          "type": "uint256"
        },
        {
          "internalType": "uint256",
          "name": "blockNumber",
          "type": "uint256"
        },
        {
          "internalType": "uint256",
          "name": "blockTime",
          "type": "uint256"
        },
        {
          "internalType": "bool",
          "name": "hasCollateralInETH",
          "type": "bool"
        },
        {
          "internalType": "address",
          "name": "callbackTarget",
          "type": "address"
        }
      ],
      "stateMutability": "view",
      "type": "function"
    },
    {
      "inputs": [
        {
          "internalType": "address",
          "name": "",
          "type": "address"
        }
      ],
      "name": "increasePositionsIndex",
      "outputs": [
        {
          "internalType": "uint256",
          "name": "",
          "type": "uint256"
        }
      ],
      "stateMutability": "view",
      "type": "function"
    },
    {
      "inputs": [],
      "name": "isLeverageEnabled",
      "outputs": [
        {
          "internalType": "bool",
          "name": "",
          "type": "bool"
        }
      ],
      "stateMutability": "view",
      "type": "function"
    },
    {
      "inputs": [
        {
          "internalType": "address",
          "name": "",
          "type": "address"
        }
      ],
      "name": "isPositionKeeper",
      "outputs": [
        {
          "internalType": "bool",
          "name": "",
          "type": "bool"
        }
      ],
      "stateMutability": "view",
      "type": "function"
    },
    {
      "inputs": [
        {
          "internalType": "address",
          "name": "",
          "type": "address"
        }
      ],
      "name": "maxGlobalLongSizes",
      "outputs": [
        {
          "internalType": "uint256",
          "name": "",
          "type": "uint256"
        }
      ],
      "stateMutability": "view",
      "type": "function"
    },
    {
      "inputs": [
        {
          "internalType": "address",
          "name": "",
          "type": "address"
        }
      ],
      "name": "maxGlobalShortSizes",
      "outputs": [
        {
          "internalType": "uint256",
          "name": "",
          "type": "uint256"
        }
      ],
      "stateMutability": "view",
      "type": "function"
    },
    {
      "inputs": [],
      "name": "maxTimeDelay",
      "outputs": [
        {
          "internalType": "uint256",
          "name": "",
          "type": "uint256"
        }
      ],
      "stateMutability": "view",
      "type": "function"
    },
    {
      "inputs": [],
      "name": "minBlockDelayKeeper",
      "outputs": [
        {
          "internalType": "uint256",
          "name": "",
          "type": "uint256"
        }
      ],
      "stateMutability": "view",
      "type": "function"
    },
    {
      "inputs": [],
      "name": "minExecutionFee",
      "outputs": [
        {
          "internalType": "uint256",
          "name": "",
          "type": "uint256"
        }
      ],
      "stateMutability": "view",
      "type": "function"
    },
    {
      "inputs": [],
      "name": "minTimeDelayPublic",
      "outputs": [
        {
          "internalType": "uint256",
          "name": "",
          "type": "uint256"
        }
      ],
      "stateMutability": "view",
      "type": "function"
    },
    {
      "inputs": [],
      "name": "referralStorage",
      "outputs": [
        {
          "internalType": "address",
          "name": "",
          "type": "address"
        }
      ],
      "stateMutability": "view",
      "type": "function"
    },
    {
      "inputs": [],
      "name": "router",
      "outputs": [
        {
          "internalType": "address",
          "name": "",
          "type": "address"
        }
      ],
      "stateMutability": "view",
      "type": "function"
    },
    {
      "inputs": [
        {
          "internalType": "address payable",
          "name": "_receiver",
          "type": "address"
        },
        {
          "internalType": "uint256",
          "name": "_amount",
          "type": "uint256"
        }
      ],
      "name": "sendValue",
      "outputs": [],
      "stateMutability": "nonpayable",
      "type": "function"
    },
    {
      "inputs": [
        {
          "internalType": "address",
          "name": "_admin",
          "type": "address"
        }
      ],
      "name": "setAdmin",
      "outputs": [],
      "stateMutability": "nonpayable",
      "type": "function"
    },
    {
      "inputs": [
        {
          "internalType": "uint256",
          "name": "_callbackGasLimit",
          "type": "uint256"
        }
      ],
      "name": "setCallbackGasLimit",
      "outputs": [],
      "stateMutability": "nonpayable",
      "type": "function"
    },
    {
      "inputs": [
        {
          "internalType": "address",
          "name": "_callbackTarget",
          "type": "address"
        },
        {
          "internalType": "uint256",
          "name": "_callbackGasLimit",
          "type": "uint256"
        }
      ],
      "name": "setCustomCallbackGasLimit",
      "outputs": [],
      "stateMutability": "nonpayable",
      "type": "function"
    },
    {
      "inputs": [
        {
          "internalType": "uint256",
          "name": "_minBlockDelayKeeper",
          "type": "uint256"
        },
        {
          "internalType": "uint256",
          "name": "_minTimeDelayPublic",
          "type": "uint256"
        },
        {
          "internalType": "uint256",
          "name": "_maxTimeDelay",
          "type": "uint256"
        }
      ],
      "name": "setDelayValues",
      "outputs": [],
      "stateMutability": "nonpayable",
      "type": "function"
    },
    {
      "inputs": [
        {
          "internalType": "uint256",
          "name": "_depositFee",
          "type": "uint256"
        }
      ],
      "name": "setDepositFee",
      "outputs": [],
      "stateMutability": "nonpayable",
      "type": "function"
    },
    {
      "inputs": [
        {
          "internalType": "uint256",
          "name": "_ethTransferGasLimit",
          "type": "uint256"
        }
      ],
      "name": "setEthTransferGasLimit",
      "outputs": [],
      "stateMutability": "nonpayable",
      "type": "function"
    },
    {
      "inputs": [
        {
          "internalType": "address",
          "name": "_gov",
          "type": "address"
        }
      ],
      "name": "setGov",
      "outputs": [],
      "stateMutability": "nonpayable",
      "type": "function"
    },
    {
      "inputs": [
        {
          "internalType": "uint256",
          "name": "_increasePositionBufferBps",
          "type": "uint256"
        }
      ],
      "name": "setIncreasePositionBufferBps",
      "outputs": [],
      "stateMutability": "nonpayable",
      "type": "function"
    },
    {
      "inputs": [
        {
          "internalType": "bool",
          "name": "_isLeverageEnabled",
          "type": "bool"
        }
      ],
      "name": "setIsLeverageEnabled",
      "outputs": [],
      "stateMutability": "nonpayable",
      "type": "function"
    },
    {
      "inputs": [
        {
          "internalType": "address[]",
          "name": "_tokens",
          "type": "address[]"
        },
        {
          "internalType": "uint256[]",
          "name": "_longSizes",
          "type": "uint256[]"
        },
        {
          "internalType": "uint256[]",
          "name": "_shortSizes",
          "type": "uint256[]"
        }
      ],
      "name": "setMaxGlobalSizes",
      "outputs": [],
      "stateMutability": "nonpayable",
      "type": "function"
    },
    {
      "inputs": [
        {
          "internalType": "uint256",
          "name": "_minExecutionFee",
          "type": "uint256"
        }
      ],
      "name": "setMinExecutionFee",
      "outputs": [],
      "stateMutability": "nonpayable",
      "type": "function"
    },
    {
      "inputs": [
        {
          "internalType": "address",
          "name": "_account",
          "type": "address"
        },
        {
          "internalType": "bool",
          "name": "_isActive",
          "type": "bool"
        }
      ],
      "name": "setPositionKeeper",
      "outputs": [],
      "stateMutability": "nonpayable",
      "type": "function"
    },
    {
      "inputs": [
        {
          "internalType": "address",
          "name": "_referralStorage",
          "type": "address"
        }
      ],
      "name": "setReferralStorage",
      "outputs": [],
      "stateMutability": "nonpayable",
      "type": "function"
    },
    {
      "inputs": [
        {
          "internalType": "uint256",
          "name": "_increasePositionRequestKeysStart",
          "type": "uint256"
        },
        {
          "internalType": "uint256",
          "name": "_decreasePositionRequestKeysStart",
          "type": "uint256"
        }
      ],
      "name": "setRequestKeysStartValues",
      "outputs": [],
      "stateMutability": "nonpayable",
      "type": "function"
    },
    {
      "inputs": [],
      "name": "shortsTracker",
      "outputs": [
        {
          "internalType": "address",
          "name": "",
          "type": "address"
        }
      ],
      "stateMutability": "view",
      "type": "function"
    },
    {
      "inputs": [],
      "name": "vault",
      "outputs": [
        {
          "internalType": "address",
          "name": "",
          "type": "address"
        }
      ],
      "stateMutability": "view",
      "type": "function"
    },
    {
      "inputs": [],
      "name": "weth",
      "outputs": [
        {
          "internalType": "address",
          "name": "",
          "type": "address"
        }
      ],
      "stateMutability": "view",
      "type": "function"
    },
    {
      "inputs": [
        {
          "internalType": "address",
          "name": "_token",
          "type": "address"
        },
        {
          "internalType": "address",
          "name": "_receiver",
          "type": "address"
        }
      ],
      "name": "withdrawFees",
      "outputs": [],
      "stateMutability": "nonpayable",
      "type": "function"
    },
    {
      "stateMutability": "payable",
      "type": "receive"
    }
  ],
  "bytecode": {
    "object": "0x60806040526207a12060075560646009556012805460ff191660011790553480156200002a57600080fd5b506040516200585638038062005856833981810160405260c08110156200005057600080fd5b508051602082015160408301516060840151608085015160a090950151600160008181558154336001600160a01b031991821681179093556003805482166001600160a01b03998a16179055600580548216978916979097179096556006805487169588169590951790945560089690965560048054851695909216949094179055600280549092169093179055600e55615764908190620000f290396000f3fe60806040526004361061039a5760003560e01c8063633451de116101dc578063c4f38e3311610102578063f2cea6a5116100a0578063fa4445771161006f578063fa444577146112b0578063faf990f3146112f0578063fbfa77cf146113f8578063fc2cee621461141857600080fd5b8063f2cea6a5146111f8578063f3883d8b14611237578063f851a44014611270578063f887ea401461129057600080fd5b8063e1f21c67116100dc578063e1f21c6714610ee9578063ef12c67e14610f2c578063f2555278146110de578063f2ae372f1461111957600080fd5b8063c4f38e3314610e60578063cb0269c914610ea0578063cfad57a214610eb657600080fd5b8063804fc7021161017a57806398d1e03a1161014957806398d1e03a14610dc85780639a20810014610dde5780639b57862014610e17578063ae4d7f9a14610e2d57600080fd5b8063804fc70214610cfb5780638a54942f14610d3457806395e9bbd714610d5e5780639698d25a14610d8857600080fd5b806367a52793116101b657806367a5279314610b9b578063704b6c0214610bb15780637be7d14114610be45780637c2eb9f714610ccf57600080fd5b8063633451de14610b2557806363ae210314610b65578063657bc5d014610b7b57600080fd5b8063308aa81f116102c15780634067b1321161025f5780635b88e8c61161022e5780635b88e8c6146109605780635d5c22e814610a3957806360a362e214610ab357806362f8a3fe14610aec57600080fd5b80634067b132146108c05780634278555f146108f6578063490ae210146109205780635841fcaa1461094a57600080fd5b80633a2a80c71161029b5780633a2a80c7146108465780633a9b52ad1461085c5780633e72a262146108865780633fc8cef3146108a057600080fd5b8063308aa81f146107985780633422ead1146107c857806336eba48a1461080357600080fd5b80631ce9cb8f1161033957806324a084df1161030857806324a084df146106fa57806324f746971461073357806327b42c0f146107495780632d79cf421461078257600080fd5b80631ce9cb8f146105475780631f28510614610587578063225fc9fd14610697578063233bfe3b146106d057600080fd5b80631045c74e116103755780631045c74e146104bb578063126082cf146104fb57806312d43a51146105115780631bca8cf01461053157600080fd5b80626cc35e146103f657806304225954146104325780630d4d003d1461046e57600080fd5b366103f1576006546001600160a01b031633146103ef5760405162461bcd60e51b815260206004820152600e60248201526d34b73b30b634b21039b2b73232b960911b60448201526064015b60405180910390fd5b005b600080fd5b34801561040257600080fd5b50600a54610416906001600160a01b031681565b604080516001600160a01b039092168252519081900360200190f35b34801561043e57600080fd5b5061045c6004803603602081101561045557600080fd5b5035611442565b60408051918252519081900360200190f35b34801561047a57600080fd5b506104a76004803603604081101561049157600080fd5b50803590602001356001600160a01b0316611463565b604080519115158252519081900360200190f35b3480156104c757600080fd5b5061045c600480360360208110156104de57600080fd5b50600c602052356001600160a01b03166000908152604090205481565b34801561050757600080fd5b5061045c61271081565b34801561051d57600080fd5b50600154610416906001600160a01b031681565b34801561053d57600080fd5b5061045c60165481565b34801561055357600080fd5b5061045c6004803603602081101561056a57600080fd5b50600b602052356001600160a01b03166000908152604090205481565b34801561059357600080fd5b5061061f600480360360208110156105aa57600080fd5b50601d60205235600090815260409020805460028201546003830154600484015460058501546006860154600787015460088801546009890154600a8a0154600b909a01546001600160a01b03998a169a988a16999798969760ff80881698610100988990048316989093918216929104168d565b604080516001600160a01b039e8f1681529c8e1660208e01528c81019b909b5260608c019990995296151560808b0152948a1660a08a015260c089019390935260e088019190915261010087015261012086015261014085015215156101608401529092166101808201529051908190036101a00190f35b3480156106a357600080fd5b506104a7600480360360408110156106ba57600080fd5b50803590602001356001600160a01b03166118ce565b3480156106dc57600080fd5b506103ef600480360360208110156106f357600080fd5b5035611c4a565b34801561070657600080fd5b506103ef6004803603604081101561071d57600080fd5b506001600160a01b038135169060200135611cb0565b34801561073f57600080fd5b5061045c60175481565b34801561075557600080fd5b506104a76004803603604081101561076c57600080fd5b50803590602001356001600160a01b0316611cf1565b34801561078e57600080fd5b5061045c60075481565b3480156107a457600080fd5b506103ef600480360360408110156107bb57600080fd5b5080359060200135612116565b3480156107d457600080fd5b506103ef600480360360408110156107eb57600080fd5b506001600160a01b0381351690602001351515612189565b34801561080f57600080fd5b506104a76004803603602081101561082657600080fd5b506019602052356001600160a01b03166000908152604090205460ff1681565b34801561085257600080fd5b5061045c60105481565b34801561086857600080fd5b506103ef6004803603602081101561087f57600080fd5b503561226e565b34801561089257600080fd5b506012546104a79060ff1681565b3480156108ac57600080fd5b50600654610416906001600160a01b031681565b3480156108cc57600080fd5b506103ef600480360360608110156108e357600080fd5b50803590602081013590604001356122cd565b34801561090257600080fd5b5061045c6004803603602081101561091957600080fd5b503561234b565b34801561092c57600080fd5b506103ef6004803603602081101561094357600080fd5b503561235b565b34801561095657600080fd5b5061045c600f5481565b61045c600480360361012081101561097757600080fd5b810190602081018135600160201b81111561099157600080fd5b8201836020820111156109a357600080fd5b803590602001918460208302840111600160201b831117156109c457600080fd5b919080806020026020016040519081016040528093929190818152602001838360200280828437600092019190915250929550505081356001600160a01b03908116935060208301359260408101359250606081013515159160808201359160a08101359160c08201359160e00135166123ba565b348015610a4557600080fd5b50610a6360048036036020811015610a5c57600080fd5b503561253f565b60408051602080825283518183015283519192839290830191858101910280838360005b83811015610a9f578181015183820152602001610a87565b505050509050019250505060405180910390f35b348015610abf57600080fd5b506104a760048036036040811015610ad657600080fd5b50803590602001356001600160a01b031661266e565b348015610af857600080fd5b5061045c60048036036040811015610b0f57600080fd5b506001600160a01b0381351690602001356129b9565b348015610b3157600080fd5b5061045c60048036036020811015610b4857600080fd5b50601a602052356001600160a01b03166000908152604090205481565b348015610b7157600080fd5b5061045c600e5481565b348015610b8757600080fd5b50600454610416906001600160a01b031681565b348015610ba757600080fd5b5061045c60085481565b348015610bbd57600080fd5b506103ef60048036036020811015610bd457600080fd5b50356001600160a01b03166129fe565b61045c6004803603610160811015610bfb57600080fd5b810190602081018135600160201b811115610c1557600080fd5b820183602082011115610c2757600080fd5b803590602001918460208302840111600160201b83111715610c4857600080fd5b919080806020026020016040519081016040528093929190818152602001838360200280828437600092019190915250929550505081356001600160a01b039081169350602083013592604081013592506060810135151591608082013581169160a08101359160c08201359160e081013591610100820135151591610120013516612a76565b348015610cdb57600080fd5b506103ef60048036036020811015610cf257600080fd5b50351515612bf7565b348015610d0757600080fd5b506103ef60048036036040811015610d1e57600080fd5b506001600160a01b038135169060200135612c68565b348015610d4057600080fd5b506103ef60048036036020811015610d5757600080fd5b5035612d46565b348015610d6a57600080fd5b50610a6360048036036020811015610d8157600080fd5b5035612dab565b348015610d9457600080fd5b5061045c60048036036020811015610dab57600080fd5b50600d602052356001600160a01b03166000908152604090205481565b348015610dd457600080fd5b5061045c60095481565b348015610dea57600080fd5b506103ef60048036036040811015610e0157600080fd5b50803590602001356001600160a01b0316612ed2565b348015610e2357600080fd5b5061045c60155481565b348015610e3957600080fd5b506103ef60048036036020811015610e5057600080fd5b50356001600160a01b031661309a565b348015610e6c57600080fd5b5061045c60048036036020811015610e8357600080fd5b506018602052356001600160a01b03166000908152604090205481565b348015610eac57600080fd5b5061045c60115481565b348015610ec257600080fd5b506103ef60048036036020811015610ed957600080fd5b50356001600160a01b0316613112565b348015610ef557600080fd5b506103ef60048036036060811015610f0c57600080fd5b506001600160a01b038135811691602081013590911690604001356131b4565b348015610f3857600080fd5b506103ef60048036036060811015610f4f57600080fd5b810190602081018135600160201b811115610f6957600080fd5b820183602082011115610f7b57600080fd5b803590602001918460208302840111600160201b83111715610f9c57600080fd5b9190808060200260200160405190810160405280939291908181526020018383602002808284376000920191909152509295949360208101935035915050600160201b811115610feb57600080fd5b820183602082011115610ffd57600080fd5b803590602001918460208302840111600160201b8311171561101e57600080fd5b9190808060200260200160405190810160405280939291908181526020018383602002808284376000920191909152509295949360208101935035915050600160201b81111561106d57600080fd5b82018360208201111561107f57600080fd5b803590602001918460208302840111600160201b831117156110a057600080fd5b919080806020026020016040519081016040528093929190818152602001838360200280828437600092019190915250929550613257945050505050565b3480156110ea57600080fd5b506103ef6004803603604081101561110157600080fd5b506001600160a01b0381358116916020013516613379565b61045c600480360361014081101561113057600080fd5b810190602081018135600160201b81111561114a57600080fd5b82018360208201111561115c57600080fd5b803590602001918460208302840111600160201b8311171561117d57600080fd5b919080806020026020016040519081016040528093929190818152602001838360200280828437600092019190915250929550506001600160a01b038335811694506020840135936040810135935060608101359250608081013515159160a08201359160c08101359160e082013591610100013516613435565b34801561120457600080fd5b50601554601354601654601454604080519485526020850193909352838301919091526060830152519081900360800190f35b34801561124357600080fd5b506103ef6004803603604081101561125a57600080fd5b50803590602001356001600160a01b03166135f5565b34801561127c57600080fd5b50600254610416906001600160a01b031681565b34801561129c57600080fd5b50600554610416906001600160a01b031681565b3480156112bc57600080fd5b5061045c600480360360208110156112d357600080fd5b50601c602052356001600160a01b03166000908152604090205481565b3480156112fc57600080fd5b506113896004803603602081101561131357600080fd5b50601b60205235600090815260409020805460028201546003830154600484015460058501546006860154600787015460088801546009890154600a8a0154600b909a01546001600160a01b03998a169a988a169997989697959660ff958616969495939492939092908216916101009004168c565b604080516001600160a01b039d8e1681529b8d1660208d01528b81019a909a5260608b019890985260808a019690965293151560a089015260c088019290925260e087015261010086015261012085015215156101408401529092166101608201529051908190036101800190f35b34801561140457600080fd5b50600354610416906001600160a01b031681565b34801561142457600080fd5b506103ef6004803603602081101561143b57600080fd5b50356137bd565b6013818154811061145257600080fd5b600091825260209091200154905081565b600061146d613822565b6000838152601d6020908152604080832081516101c08101835281546001600160a01b0316815260018201805484518187028101870190955280855291949293858401939092908301828280156114ed57602002820191906000526020600020905b81546001600160a01b031681526001909101906020018083116114cf575b505050918352505060028201546001600160a01b0390811660208301526003830154604083015260048301546060830152600583015460ff8082161515608085015261010091829004831660a0850152600685015460c0850152600785015460e08501526008850154828501526009850154610120850152600a850154610140850152600b9094015493841615156101608401529092048216610180909101528151919250166115a15760019150506118be565b60006115bc826101400151836101600151846000015161384c565b9050806115ce576000925050506118be565b6000858152601d6020526040812080546001600160a01b0319168155906115f8600183018261539c565b506002810180546001600160a01b0319169055600060038201819055600482018190556005820180546001600160a81b031990811690915560068301829055600783018290556008830182905560098301829055600a8301829055600b90920180549092169091558251602084015180516116a4929190849061167d5761167d615434565b60200260200101518560400151866060015187608001518860a00151308a60e00151613890565b90508015611768576001836020015151111561171a5760035460208401518051611703926001600160a01b03169184916000906116e3576116e3615434565b60200260200101516001600160a01b0316613cd59092919063ffffffff16565b611717836020015184610100015130613d2c565b90505b8261018001511561173857611733818460c00151613dbd565b611768565b6117688360c0015182856020015160018760200151516117589190615460565b815181106116e3576116e3615434565b61177783610120015186613dbd565b82600001516001600160a01b03167f21435c5b618d77ff3657140cd3318e2cffaebc5e0e1b7318f56a9ba4044c3ed284602001518560400151866060015187608001518860a001518960c001518a60e001518b61010001518c61012001518d6101400151436117e69190615460565b6101608f01516117f69042615460565b60405180806020018c6001600160a01b031681526020018b81526020018a81526020018915158152602001886001600160a01b0316815260200187815260200186815260200185815260200184815260200183815260200182810382528d818151815260200191508051906020019060200280838360005b8381101561188657818101518382015260200161186e565b505050509050019c5050505050505050505050505060405180910390a26118b6836101a001518760016000613f50565b600193505050505b6118c86001600055565b92915050565b60006118d8613822565b6000838152601b6020908152604080832081516101a08101835281546001600160a01b03168152600182018054845181870281018701909552808552919492938584019390929083018282801561195857602002820191906000526020600020905b81546001600160a01b0316815260019091019060200180831161193a575b505050918352505060028201546001600160a01b039081166020830152600383015460408301526004830154606083015260058301546080830152600683015460ff908116151560a0840152600784015460c0840152600884015460e0840152600984015461010080850191909152600a850154610120850152600b90940154908116151561014084015292909204821661016090910152815191925016611a045760019150506118be565b6000611a1f826101200151836101400151846000015161408b565b905080611a31576000925050506118be565b6000858152601b6020526040812080546001600160a01b031916815590611a5b600183018261539c565b506002810180546001600160a01b0319169055600060038201819055600482018190556005820181905560068201805460ff19169055600782018190556008820181905560098201819055600a820155600b0180546001600160a81b031916905561016082015115611ade57611ad982606001518360000151613dbd565b611b02565b611b028260000151836060015184602001516000815181106116e3576116e3615434565b611b1182610100015185613dbd565b81600001516001600160a01b03167f35b638e650e2328786fb405bd69d2083dbedc018d086662e74b775b4f1dae4bf83602001518460400151856060015186608001518760a001518860c001518960e001518a61010001518b610120015143611b7a9190615460565b6101408d0151611b8a9042615460565b60405180806020018b6001600160a01b031681526020018a8152602001898152602001888152602001871515815260200186815260200185815260200184815260200183815260200182810382528c818151815260200191508051906020019060200280838360005b83811015611c0b578181015183820152602001611bf3565b505050509050019b50505050505050505050505060405180910390a2611c3a8261018001518660006001613f50565b6001925050506118c86001600055565b6002546001600160a01b03163314611c745760405162461bcd60e51b81526004016103e690615473565b60098190556040518181527f21167d0d4661af93817ebce920f18986eed3d75d5e1c03f2aed05efcbafbc452906020015b60405180910390a150565b6001546001600160a01b03163314611cda5760405162461bcd60e51b81526004016103e690615496565b611ced6001600160a01b03831682614098565b5050565b6000611cfb613822565b6000838152601b6020908152604080832081516101a08101835281546001600160a01b031681526001820180548451818702810187019095528085529194929385840193909290830182828015611d7b57602002820191906000526020600020905b81546001600160a01b03168152600190910190602001808311611d5d575b505050918352505060028201546001600160a01b039081166020830152600383015460408301526004830154606083015260058301546080830152600683015460ff908116151560a0840152600784015460c0840152600884015460e0840152600984015461010080850191909152600a850154610120850152600b90940154908116151561014084015292909204821661016090910152815191925016611e275760019150506118be565b6000611e42826101200151836101400151846000015161384c565b905080611e54576000925050506118be565b6000858152601b6020526040812080546001600160a01b031916815590611e7e600183018261539c565b506002810180546001600160a01b0319169055600060038201819055600482018190556005820181905560068201805460ff19169055600782018190556008820181905560098201819055600a820155600b0180546001600160a81b0319169055606082015115611f9357606082015160208301515160011015611f4057600354606084015160208501518051611f2a936001600160a01b03169291906000906116e3576116e3615434565b611f3d8360200151846080015130613d2c565b90505b6000611f64846000015185602001518487604001518860c001518960a0015161412f565b60035460208601518051929350611f90926001600160a01b039092169184919061175890600190615460565b50505b815160208301518051611fdf929190611fae90600190615460565b81518110611fbe57611fbe615434565b602002602001015184604001518560a001518660c001518760e00151614298565b611fee82610100015185613dbd565b81600001516001600160a01b03167f1be316b94d38c07bd41cdb4913772d0a0a82802786a2f8b657b6e85dbcdfc64183602001518460400151856060015186608001518760a001518860c001518960e001518a61010001518b6101200151436120579190615460565b6101408d01516120679042615460565b60405180806020018b6001600160a01b031681526020018a8152602001898152602001888152602001871515815260200186815260200185815260200184815260200183815260200182810382528c818151815260200191508051906020019060200280838360005b838110156120e85781810151838201526020016120d0565b505050509050019b50505050505050505050505060405180910390a2611c3a82610180015186600180613f50565b6002546001600160a01b031633146121405760405162461bcd60e51b81526004016103e690615473565b60158290556016819055604080518381526020810183905281517febb0f666150f4be5b60c45df8f3e49992510b0128027fe58eea6110f296493bc929181900390910190a15050565b6002546001600160a01b031633146121b35760405162461bcd60e51b81526004016103e690615473565b6001600160a01b03821661220e576040805162461bcd60e51b815260206004820152601c60248201527f506f736974696f6e526f757465723a205a65726f204164647265737300000000604482015290519081900360640190fd5b6001600160a01b038216600081815260196020908152604091829020805460ff1916851515908117909155825190815291517ffbabc02389290a451c6e600d05bf9887b99bfad39d8e1237e4e3df042e4941fe9281900390910190a25050565b6002546001600160a01b031633146122985760405162461bcd60e51b81526004016103e690615473565b60078190556040518181527f4d371d598d3a13f99ce992a17975bbaf1e1c256e072ec7d2f93ce88e40d9ba1c90602001611ca5565b6002546001600160a01b031633146122f75760405162461bcd60e51b81526004016103e690615473565b600f83905560108290556011819055604080518481526020810184905280820183905290517fb98e759701eaca2e60c25e91109003c1c7442ef731b5d569037063005da8254d9181900360600190a1505050565b6014818154811061145257600080fd5b6002546001600160a01b031633146123855760405162461bcd60e51b81526004016103e690615473565b60088190556040518181527f974fd3c1fcb4653dfc4fb740c4c692cd212d55c28f163f310128cb64d830067590602001611ca5565b60006123c4613822565b600e54841015612401576040805162461bcd60e51b815260206004820152600360248201526266656560e81b604482015290519081900360640190fd5b8334101561243c576040805162461bcd60e51b81526020600482015260036024820152621d985b60ea1b604482015290519081900360640190fd5b89516001148061244d575089516002145b612484576040805162461bcd60e51b81526020600482015260036024820152623632b760e91b604482015290519081900360640190fd5b6006548a516001600160a01b03909116908b906000906124a6576124a6615434565b60200260200101516001600160a01b0316146124f2576040805162461bcd60e51b815260206004808301919091526024820152630e0c2e8d60e31b604482015290519081900360640190fd5b6124fa61436d565b612503836143d9565b600061250f8534615460565b9050612525338c8c848d8d8d8d8d60018d61444d565b9150506125326001600055565b9998505050505050505050565b6000818152601d6020908152604080832081516101c08101835281546001600160a01b0316815260018201805484518187028101870190955280855260609695929485840193909291908301828280156125c257602002820191906000526020600020905b81546001600160a01b031681526001909101906020018083116125a4575b505050918352505060028201546001600160a01b039081166020808401919091526003840154604084015260048401546060840152600584015460ff8082161515608086015261010091829004841660a0860152600686015460c0860152600786015460e08601526008860154828601526009860154610120860152600a860154610140860152600b909501549485161515610160850152909304166101809091015201519392505050565b6000612678613822565b6000838152601d6020908152604080832081516101c08101835281546001600160a01b0316815260018201805484518187028101870190955280855291949293858401939092908301828280156126f857602002820191906000526020600020905b81546001600160a01b031681526001909101906020018083116126da575b505050918352505060028201546001600160a01b0390811660208301526003830154604083015260048301546060830152600583015460ff8082161515608085015261010091829004831660a0850152600685015460c0850152600785015460e08501526008850154828501526009850154610120850152600a850154610140850152600b9094015493841615156101608401529092048216610180909101528151919250166127ac5760019150506118be565b60006127c7826101400151836101600151846000015161408b565b9050806127d9576000925050506118be565b6000858152601d6020526040812080546001600160a01b031916815590612803600183018261539c565b506002810180546001600160a01b0319169055600060038201819055600482018190556005820180546001600160a81b031990811690915560068301829055600783018290556008830182905560098301829055600a830191909155600b9091018054909116905561012082015161287b9085613dbd565b81600001516001600160a01b03167f87abfd78e844f28318363bdf3da99eab2f4a2da9ff7ae365484507f7b6c3f80583602001518460400151856060015186608001518760a001518860c001518960e001518a61010001518b61012001518c6101400151436128ea9190615460565b6101608e01516128fa9042615460565b60405180806020018c6001600160a01b031681526020018b81526020018a81526020018915158152602001886001600160a01b0316815260200187815260200186815260200185815260200184815260200183815260200182810382528d818151815260200191508051906020019060200280838360005b8381101561298a578181015183820152602001612972565b505050509050019c5050505050505050505050505060405180910390a2611c3a826101a0015186600080613f50565b6000828260405160200180836001600160a01b031660601b81526014018281526020019250505060405160208183030381529060405280519060200120905092915050565b6001546001600160a01b03163314612a285760405162461bcd60e51b81526004016103e690615496565b600280546001600160a01b0319166001600160a01b0383169081179091556040519081527f5a272403b402d892977df56625f4164ccaf70ca3863991c43ecfe76a6905b0a190602001611ca5565b6000612a80613822565b600e54841015612abd576040805162461bcd60e51b815260206004820152600360248201526266656560e81b604482015290519081900360640190fd5b833414612af7576040805162461bcd60e51b81526020600482015260036024820152621d985b60ea1b604482015290519081900360640190fd5b8b5160011480612b0857508b516002145b612b3f576040805162461bcd60e51b81526020600482015260036024820152623632b760e91b604482015290519081900360640190fd5b8215612bc0576006548c516001600160a01b03909116908d90612b6490600190615460565b81518110612b7457612b74615434565b60200260200101516001600160a01b031614612bc0576040805162461bcd60e51b815260206004808301919091526024820152630e0c2e8d60e31b604482015290519081900360640190fd5b612bc861436d565b612bdc338d8d8d8d8d8d8d8d8d8d8d6145e6565b9050612be86001600055565b9b9a5050505050505050505050565b6002546001600160a01b03163314612c215760405162461bcd60e51b81526004016103e690615473565b6012805482151560ff19909116811790915560408051918252517f4eb87a5935d402aa24c01b45bfb30adefcd2328b480f2d967864de4b64ea929f9181900360200190a150565b6002546001600160a01b03163314612c925760405162461bcd60e51b81526004016103e690615473565b6001600160a01b038216612ced576040805162461bcd60e51b815260206004820152601c60248201527f506f736974696f6e526f757465723a205a65726f204164647265737300000000604482015290519081900360640190fd5b6001600160a01b0382166000818152601860209081526040918290208490558151928352820183905280517f0a585bcfd5f265014b902e5350c05f3a465468d433f13009dcf83f17dc1316be9281900390910190a15050565b6002546001600160a01b03163314612d705760405162461bcd60e51b81526004016103e690615473565b60178190556040805182815290517f22bd2c9f980325d046be74aaef5fc76df4a2bc3fbc7c5a1200fcc79fe80dab6c9181900360200190a150565b6000818152601b6020908152604080832081516101a08101835281546001600160a01b031681526001820180548451818702810187019095528085526060969592948584019390929190830182828015612e2e57602002820191906000526020600020905b81546001600160a01b03168152600190910190602001808311612e10575b505050918352505060028201546001600160a01b03908116602080840191909152600384015460408401526004840154606084015260058401546080840152600684015460ff908116151560a0850152600785015460c0850152600885015460e0850152600985015461010080860191909152600a860154610120860152600b90950154908116151561014085015293909304166101609091015201519392505050565b3360009081526019602052604090205460ff16612f1c576040805162461bcd60e51b815260206004820152600360248201526234303360e81b604482015290519081900360640190fd5b601554601354808210612f2f5750505050565b80841115612f3b578093505b8382101561309257600060138381548110612f5857612f58615434565b90600052602060002001549050306001600160a01b03166327b42c0f82866040518363ffffffff1660e01b815260040180838152602001826001600160a01b03168152602001925050506020604051808303816000875af1925050508015612fd257506040513d6020811015612fcd57600080fd5b505160015b613053576040805163225fc9fd60e01b8152600481018390526001600160a01b03861660248201529051309163225fc9fd91604480830192602092919082900301816000875af192505050801561303b57506040513d602081101561303657600080fd5b505160015b1561304e578061304c575050613092565b505b613061565b8061305f575050613092565b505b6013838154811061307457613074615434565b600091825260208220015582613089816154c5565b93505050612f3b565b506015555050565b6002546001600160a01b031633146130c45760405162461bcd60e51b81526004016103e690615473565b600a80546001600160a01b0319166001600160a01b0383169081179091556040519081527f828abcccea18192c21d645e575652c49e20b986dab777906fc473d056b01b6a890602001611ca5565b6001546001600160a01b0316331461313c5760405162461bcd60e51b81526004016103e690615496565b6001600160a01b0381166131925760405162461bcd60e51b815260206004820181905260248201527f476f7665726e61626c653a205f676f76206973207a65726f206164647265737360448201526064016103e6565b600180546001600160a01b0319166001600160a01b0392909216919091179055565b6001546001600160a01b031633146131de5760405162461bcd60e51b81526004016103e690615496565b60405163095ea7b360e01b81526001600160a01b0383811660048301526024820183905284169063095ea7b3906044016020604051808303816000875af115801561322d573d6000803e3d6000fd5b505050506040513d601f19601f8201168201806040525081019061325191906154de565b50505050565b6002546001600160a01b031633146132815760405162461bcd60e51b81526004016103e690615473565b60005b83518110156133385760008482815181106132a1576132a1615434565b602002602001015190508382815181106132bd576132bd615434565b6020026020010151600c6000836001600160a01b03166001600160a01b031681526020019081526020016000208190555082828151811061330057613300615434565b6020908102919091018101516001600160a01b039092166000908152600d909152604090205580613330816154c5565b915050613284565b507fae32d569b058895b9620d6552b09aaffedc9a6f396be4d595a224ad09f8b213983838360405161336c9392919061553b565b60405180910390a1505050565b6002546001600160a01b031633146133a35760405162461bcd60e51b81526004016103e690615473565b6001600160a01b0382166000908152600b6020526040812054908190036133c957505050565b6001600160a01b0383166000818152600b60205260408120556133ed908383613cd5565b604080516001600160a01b038086168252841660208201529081018290527f4f1b51dd7a2fcb861aa2670f668be66835c4ee12b4bbbf037e4d0018f39819e49060600161336c565b600061343f613822565b600e5484101561347c576040805162461bcd60e51b815260206004820152600360248201526266656560e81b604482015290519081900360640190fd5b8334146134b6576040805162461bcd60e51b81526020600482015260036024820152621d985b60ea1b604482015290519081900360640190fd5b8a51600114806134c757508a516002145b6134fe576040805162461bcd60e51b81526020600482015260036024820152623632b760e91b604482015290519081900360640190fd5b61350661436d565b61350f836143d9565b88156135c7576005548b516001600160a01b0390911690631b827878908d9060009061353d5761353d615434565b602002602001015133308d6040518563ffffffff1660e01b815260040180856001600160a01b03168152602001846001600160a01b03168152602001836001600160a01b03168152602001828152602001945050505050600060405180830381600087803b1580156135ae57600080fd5b505af11580156135c2573d6000803e3d6000fd5b505050505b6135db338c8c8c8c8c8c8c8c60008c61444d565b90506135e76001600055565b9a9950505050505050505050565b3360009081526019602052604090205460ff1661363f576040805162461bcd60e51b815260206004820152600360248201526234303360e81b604482015290519081900360640190fd5b6016546014548082106136525750505050565b8084111561365e578093505b838210156137b55760006014838154811061367b5761367b615434565b90600052602060002001549050306001600160a01b0316630d4d003d82866040518363ffffffff1660e01b815260040180838152602001826001600160a01b03168152602001925050506020604051808303816000875af19250505080156136f557506040513d60208110156136f057600080fd5b505160015b6137765760408051633051b17160e11b8152600481018390526001600160a01b0386166024820152905130916360a362e291604480830192602092919082900301816000875af192505050801561375e57506040513d602081101561375957600080fd5b505160015b15613771578061376f5750506137b5565b505b613784565b806137825750506137b5565b505b6014838154811061379757613797615434565b6000918252602082200155826137ac816154c5565b9350505061365e565b506016555050565b6002546001600160a01b031633146137e75760405162461bcd60e51b81526004016103e690615473565b600e8190556040805182815290517f52a8358457e20bbb36e4086b83fb0749599f1893fe4c35a876c46dc4886d12db9181900360200190a150565b60026000540361384557604051633ee5aeb560e01b815260040160405180910390fd5b6002600055565b6000426011548461385d91906155a6565b1161387b5760405163190064c560e11b815260040160405180910390fd5b6138868484846147c2565b90505b9392505050565b6003546000906001600160a01b0316818561391457604051637092736960e11b81526001600160a01b038a8116600483015283169063e124e6d290602401602060405180830381865afa1580156138eb573d6000803e3d6000fd5b505050506040513d601f19601f8201168201806040525081019061390f91906155b9565b61397e565b6040516340d3096b60e11b81526001600160a01b038a811660048301528316906381a612d690602401602060405180830381865afa15801561395a573d6000803e3d6000fd5b505050506040513d601f19601f8201168201806040525081019061397e91906155b9565b905085156139cf57838110156139ca5760405162461bcd60e51b81526020600482015260116024820152706d61726b5072696365203c20707269636560781b60448201526064016103e6565b613a13565b83811115613a135760405162461bcd60e51b81526020600482015260116024820152706d61726b5072696365203e20707269636560781b60448201526064016103e6565b6000826001600160a01b03166312d43a516040518163ffffffff1660e01b8152600401602060405180830381865afa158015613a53573d6000803e3d6000fd5b505050506040513d601f19601f82011682018060405250810190613a7791906155ee565b9050600460009054906101000a90046001600160a01b03166001600160a01b031663f3238cec8d8d8d8b8d8860006040518863ffffffff1660e01b8152600401613b0397969594939291906001600160a01b03978816815295871660208701529390951660408501529015156060840152608083015260a082019290925290151560c082015260e00190565b600060405180830381600087803b158015613b1d57600080fd5b505af1158015613b31573d6000803e3d6000fd5b50506040516306d63c1d60e41b81526001600160a01b03868116600483015284169250636d63c1d09150602401600060405180830381600087803b158015613b7857600080fd5b505af1158015613b8c573d6000803e3d6000fd5b505050506000600560009054906101000a90046001600160a01b03166001600160a01b0316632662166b8e8e8e8e8e8e8e6040518863ffffffff1660e01b8152600401613c1997969594939291906001600160a01b0397881681529587166020870152938616604086015260608501929092526080840152151560a083015290911660c082015260e00190565b6020604051808303816000875af1158015613c38573d6000803e3d6000fd5b505050506040513d601f19601f82011682018060405250810190613c5c91906155b9565b60405163d3c87bbb60e01b81526001600160a01b0386811660048301529192509083169063d3c87bbb90602401600060405180830381600087803b158015613ca357600080fd5b505af1158015613cb7573d6000803e3d6000fd5b50505050613cc58d8a6148cb565b9c9b505050505050505050505050565b604080516001600160a01b038416602482015260448082018490528251808303909101815260649091019091526020810180516001600160e01b031663a9059cbb60e01b179052613d27908490614a95565b505050565b60008351600203613d7e57613d7784600081518110613d4d57613d4d615434565b602002602001015185600181518110613d6857613d68615434565b60200260200101518585614af8565b9050613889565b60405162461bcd60e51b81526020600482015260146024820152730d2dcecc2d8d2c840bee0c2e8d05cd8cadccee8d60631b60448201526064016103e6565b600654604051632e1a7d4d60e01b8152600481018490526001600160a01b03909116908190632e1a7d4d90602401600060405180830381600087803b158015613e0557600080fd5b505af1158015613e19573d6000803e3d6000fd5b5050600754604051600093506001600160a01b0386169250869084818181858888f193505050503d8060008114613e6c576040519150601f19603f3d011682016040523d82523d6000602084013e613e71565b606091505b505090508015613e815750505050565b816001600160a01b031663d0e30db0856040518263ffffffff1660e01b81526004016000604051808303818588803b158015613ebc57600080fd5b505af1158015613ed0573d6000803e3d6000fd5b505060405163a9059cbb60e01b81526001600160a01b038781166004830152602482018990528616935063a9059cbb925060440190506020604051808303816000875af1158015613f25573d6000803e3d6000fd5b505050506040513d601f19601f82011682018060405250810190613f4991906154de565b5050505050565b6001600160a01b0384161561325157833b6000819003613f705750613251565b6017546001600160a01b03861660009081526018602052604090205481811115613f98578091505b81600003613fa857505050613251565b6000876001600160a01b031663da6c4362848989896040518563ffffffff1660e01b815260040180848152602001831515815260200182151581526020019350505050600060405180830381600088803b15801561400557600080fd5b5087f193505050508015614017575060015b614034576040516345d5d4cf60e11b815260040160405180910390fd5b506001604080516001600160a01b038a168152821515602082015280820185905290517fc9123a2a8e16684aa24686f2bf8a6d0eb0c601bdc109140c9729916865a58bc49181900360600190a15050505050505050565b60006138868484846147c2565b804710156140bb5760405163cd78605960e01b81523060048201526024016103e6565b6000826001600160a01b03168260405160006040518083038185875af1925050503d8060008114614108576040519150601f19603f3d011682016040523d82523d6000602084013e61410d565b606091505b5050905080613d2757604051630a12f52160e11b815260040160405180910390fd5b600354600954604051630e0cab5560e41b8152600092839273__$87ae3bb409cfa09d45ebd7b94998fca839$__9263e0cab55092614187926001600160a01b03909116918d918d918d918d918d918d91600401615609565b602060405180830381865af41580156141a4573d6000803e3d6000fd5b505050506040513d601f19601f820116820180604052508101906141c891906154de565b905080156142895760006127106008546127106141e59190615460565b6141ef908961569a565b6141f991906156b1565b905060006142078289615460565b905060008960018b5161421a9190615460565b8151811061422a5761422a615434565b6020026020010151905081600b6000836001600160a01b03166001600160a01b031681526020019081526020016000205461426591906155a6565b6001600160a01b039091166000908152600b602052604090205550915061428e9050565b859150505b9695505050505050565b6142a3848385614bd2565b600354600554600480546040516317c3cf0f60e31b81526001600160a01b0394851692810192909252918316602482015290821660448201528782166064820152868216608482015290851660a482015260c4810184905282151560e4820152610104810182905273__$87ae3bb409cfa09d45ebd7b94998fca839$__9063be1e7878906101240160006040518083038186803b15801561434357600080fd5b505af4158015614357573d6000803e3d6000fd5b505050506143658684614daa565b505050505050565b34156143d757600660009054906101000a90046001600160a01b03166001600160a01b031663d0e30db0346040518263ffffffff1660e01b81526004016000604051808303818588803b1580156143c357600080fd5b505af1158015613f49573d6000803e3d6000fd5b565b80158015906143f25750600a546001600160a01b031615155b1561444a57600a54604080516356b4b2ad60e01b81523360048201526024810184905290516001600160a01b03909216916356b4b2ad9160448082019260009290919082900301818387803b1580156143c357600080fd5b50565b600080604051806101a001604052808e6001600160a01b031681526020018d81526020018c6001600160a01b031681526020018b81526020018a815260200189815260200188151581526020018781526020018681526020014381526020014281526020018515158152602001846001600160a01b031681525090506000806144d583614f12565b915091508e6001600160a01b03167f5265bc4952da402633b3fc35f67ab4245493a0ab94dd8ab123667c8d45a4485c8f8f8f8f8f8f8f8f8b600160138054905061451f9190615460565b43423a60405180806020018e6001600160a01b031681526020018d81526020018c81526020018b81526020018a1515815260200189815260200188815260200187815260200186815260200185815260200184815260200183815260200182810382528f818151815260200191508051906020019060200280838360005b838110156145b557818101518382015260200161459d565b505050509050019e50505050505050505050505050505060405180910390a29e9d5050505050505050505050505050565b600080604051806101c001604052808f6001600160a01b031681526020018e81526020018d6001600160a01b031681526020018c81526020018b81526020018a15158152602001896001600160a01b031681526020018881526020018781526020018681526020014381526020014281526020018515158152602001846001600160a01b0316815250905060008061467d836150b5565b9150915082600001516001600160a01b03167f81ed0476a7e785a9e4728fffd679ea97176ca1ac85e1003462558bb5677da57b84602001518560400151866060015187608001518860a001518960c001518a60e001518b61010001518c61012001518c60016014805490506146f29190615460565b434260405180806020018e6001600160a01b031681526020018d81526020018c81526020018b151581526020018a6001600160a01b0316815260200189815260200188815260200187815260200186815260200185815260200184815260200183815260200182810382528f818151815260200191508051906020019060200280838360005b83811015614790578181015183820152602001614778565b505050509050019e50505050505050505050505050505060405180910390a29f9e505050505050505050505050505050565b600080333014806147e257503360009081526019602052604090205460ff165b60125490915060ff161580156147f6575080155b1561481457604051636e87d48b60e11b815260040160405180910390fd5b80156148335743600f548661482991906155a6565b1115915050613889565b336001600160a01b03841614614876576040805162461bcd60e51b815260206004820152600360248201526234303360e81b604482015290519081900360640190fd5b426010548561488591906155a6565b11156148c0576040805162461bcd60e51b815260206004820152600560248201526464656c617960d81b604482015290519081900360640190fd5b506001949350505050565b600a546001600160a01b0316806148e157505050565b60405163534ef88360e01b81526001600160a01b038481166004830152600091829184169063534ef883906024016040805180830381865afa15801561492b573d6000803e3d6000fd5b505050506040513d601f19601f8201168201806040525081019061494f91906156d3565b909250905081614960575050505050565b600354604080516312d43a5160e01b815290516000926001600160a01b0316916312d43a519160048083019260209291908290030181865afa1580156149aa573d6000803e3d6000fd5b505050506040513d601f19601f820116820180604052508101906149ce91906155ee565b90507f474c763ff84bf2c2039a6d9fea955ecd0f724030e3c365b91169c6a16fe751b78686836001600160a01b031663318bc6896040518163ffffffff1660e01b81526004016020604051808303816000875af1158015614a33573d6000803e3d6000fd5b505050506040513d601f19601f82011682018060405250810190614a5791906155b9565b604080516001600160a01b039485168152602081019390935282015260608101869052908416608082015260a00160405180910390a1505050505050565b6000614aaa6001600160a01b03841683615264565b90508051600014158015614acf575080806020019051810190614acd91906154de565b155b15613d2757604051635274afe760e01b81526001600160a01b03841660048201526024016103e6565b600354604051634998b10960e11b81526001600160a01b0386811660048301528581166024830152838116604483015260009283929116906393316212906064016020604051808303816000875af1158015614b58573d6000803e3d6000fd5b505050506040513d601f19601f82011682018060405250810190614b7c91906155b9565b905083811015614bc75760405162461bcd60e51b81526020600482015260166024820152751a5b9cdd59999a58da595b9d08185b5bdd5b9d13dd5d60521b60448201526064016103e6565b90505b949350505050565b80600003614bdf57505050565b8115614cc7576001600160a01b0383166000908152600c60205260409020548015801590614c85575060035460405163783a2b6760e11b81526001600160a01b0386811660048301528392859291169063f07456ce90602401602060405180830381865afa158015614c55573d6000803e3d6000fd5b505050506040513d601f19601f82011682018060405250810190614c7991906155b9565b614c8391906155a6565b115b156132515760405162461bcd60e51b81526020600482015260126024820152711b585e081b1bdb99dcc8195e18d95959195960721b60448201526064016103e6565b6001600160a01b0383166000908152600d60205260409020548015801590614d67575060035460405163114f1b5560e31b81526001600160a01b03868116600483015283928592911690638a78daa890602401602060405180830381865afa158015614d37573d6000803e3d6000fd5b505050506040513d601f19601f82011682018060405250810190614d5b91906155b9565b614d6591906155a6565b115b156132515760405162461bcd60e51b81526020600482015260136024820152721b585e081cda1bdc9d1cc8195e18d959591959606a1b60448201526064016103e6565b600a546001600160a01b031680614dc057505050565b60405163534ef88360e01b81526001600160a01b038481166004830152600091829184169063534ef883906024016040805180830381865afa158015614e0a573d6000803e3d6000fd5b505050506040513d601f19601f82011682018060405250810190614e2e91906156d3565b909250905081614e3f575050505050565b600354604080516312d43a5160e01b815290516000926001600160a01b0316916312d43a519160048083019260209291908290030181865afa158015614e89573d6000803e3d6000fd5b505050506040513d601f19601f82011682018060405250810190614ead91906155ee565b90507fc2414023ce7002ee98557d1e7be21e5559073336f2217ee5f9b2e50fd85f71ee8686836001600160a01b031663318bc6896040518163ffffffff1660e01b81526004016020604051808303816000875af1158015614a33573d6000803e3d6000fd5b80516001600160a01b0381166000908152601a6020526040812054909182918290614f3e9060016155a6565b6001600160a01b0383166000908152601a60205260408120829055909150614f6683836129b9565b6000818152601b60209081526040909120885181546001600160a01b0319166001600160a01b0390911617815588820151805193945089939192614fb2926001850192909101906153ba565b5060408201516002820180546001600160a01b0319166001600160a01b03928316179055606083015160038301556080830151600483015560a0830151600583015560c083015160068301805460ff191691151591909117905560e083015160078301556101008084015160088401556101208401516009840155610140840151600a840155610160840151600b9093018054610180909501516001600160a81b0319909516931515610100600160a81b031916939093179390911602919091179055601380546001810182556000919091527f66de8ffda797e3de9c05e8fc57b3bf0ec28a930d40b0d285d93c06501cf6a09001819055909590945092505050565b80516001600160a01b0381166000908152601c60205260408120549091829182906150e19060016155a6565b6001600160a01b0383166000908152601c6020526040812082905590915061510983836129b9565b6000818152601d60209081526040909120885181546001600160a01b0319166001600160a01b0390911617815588820151805193945089939192615155926001850192909101906153ba565b5060408201516002820180546001600160a01b039283166001600160a01b0319909116179055606083015160038301556080830151600483015560a083015160058301805460c08601518416610100908102610100600160a81b031994151585166001600160a81b0319938416171790925560e0860151600686015581860151600786015561012086015160088601556101408601516009860155610160860151600a860155610180860151600b90950180546101a090970151909416909102931515909116931692909217179055601480546001810182556000919091527fce6d7b5282bd9a3661ae061feed1dbda4e52ab073b1f9285be6e155d9c38d4ec01819055909590945092505050565b60606138898383600061527561528e565b604051630a12f52160e11b815260040160405180910390fd5b6060824710156152b35760405163cd78605960e01b81523060048201526024016103e6565b600080866001600160a01b031685876040516152cf91906156ff565b60006040518083038185875af1925050503d806000811461530c576040519150601f19603f3d011682016040523d82523d6000602084013e615311565b606091505b50915091506153228783838761532d565b979650505050505050565b6060831561537b57825160000361537457846001600160a01b03163b60000361537457604051639996b31560e01b81526001600160a01b03861660048201526024016103e6565b5081614bca565b614bca83838151156153905781518083602001fd5b6152758163ffffffff16565b508054600082559060005260206000209081019061444a919061541f565b82805482825590600052602060002090810192821561540f579160200282015b8281111561540f57825182546001600160a01b0319166001600160a01b039091161782556020909201916001909101906153da565b5061541b92915061541f565b5090565b5b8082111561541b5760008155600101615420565b634e487b7160e01b600052603260045260246000fd5b634e487b7160e01b600052601160045260246000fd5b818103818111156118c8576118c861544a565b6020808252600990820152683337b93134b23232b760b91b604082015260600190565b60208082526015908201527423b7bb32b93730b136329d103337b93134b23232b760591b604082015260600190565b6000600182016154d7576154d761544a565b5060010190565b6000602082840312156154f057600080fd5b8151801515811461388957600080fd5b600081518084526020808501945080840160005b8381101561553057815187529582019590820190600101615514565b509495945050505050565b606080825284519082018190526000906020906080840190828801845b8281101561557d5781516001600160a01b031684529284019290840190600101615558565b505050838103828501526155918187615500565b915050828103604084015261428e8185615500565b808201808211156118c8576118c861544a565b6000602082840312156155cb57600080fd5b5051919050565b80516001600160a01b03811681146155e957600080fd5b919050565b60006020828403121561560057600080fd5b613889826155d2565b6001600160a01b0389811682528881166020808401919091526101006040840181905289519084018190526000926101208501928b810192855b81811015615661578451841686529482019493820193600101615643565b50505050506060830197909752506001600160a01b0394909416608085015291151560a084015260c083015260e0909101529392505050565b80820281158282048414176118c8576118c861544a565b6000826156ce57634e487b7160e01b600052601260045260246000fd5b500490565b600080604083850312156156e657600080fd5b825191506156f6602084016155d2565b90509250929050565b6000825160005b818110156157205760208186018101518583015201615706565b50600092019182525091905056fea2646970667358221220e3ffcbc235f4e1eb5f30758a18ef88c3028f39b1cbdeb32cd8a617f2e23d1d2964736f6c63430008120033",
    "linkReferences": {
      "src/core/PositionUtils.sol": {
        "PositionUtils": [
          {
            "start": 16955,
            "length": 20
          },
          {
            "start": 17407,
            "length": 20
          }
        ]
      }
    }
  },
  "methodIdentifiers": {
    "BASIS_POINTS_DIVISOR()": "126082cf",
    "admin()": "f851a440",
    "approve(address,address,uint256)": "e1f21c67",
    "callbackGasLimit()": "24f74697",
    "cancelDecreasePosition(bytes32,address)": "60a362e2",
    "cancelIncreasePosition(bytes32,address)": "225fc9fd",
    "createDecreasePosition(address[],address,uint256,uint256,bool,address,uint256,uint256,uint256,bool,address)": "7be7d141",
    "createIncreasePosition(address[],address,uint256,uint256,uint256,bool,uint256,uint256,bytes32,address)": "f2ae372f",
    "createIncreasePositionETH(address[],address,uint256,uint256,bool,uint256,uint256,bytes32,address)": "5b88e8c6",
    "customCallbackGasLimits(address)": "c4f38e33",
    "decreasePositionRequestKeys(uint256)": "4278555f",
    "decreasePositionRequestKeysStart()": "1bca8cf0",
    "decreasePositionRequests(bytes32)": "1f285106",
    "decreasePositionsIndex(address)": "fa444577",
    "depositFee()": "67a52793",
    "ethTransferGasLimit()": "2d79cf42",
    "executeDecreasePosition(bytes32,address)": "0d4d003d",
    "executeDecreasePositions(uint256,address)": "f3883d8b",
    "executeIncreasePosition(bytes32,address)": "27b42c0f",
    "executeIncreasePositions(uint256,address)": "9a208100",
    "feeReserves(address)": "1ce9cb8f",
    "getDecreasePositionRequestPath(bytes32)": "5d5c22e8",
    "getIncreasePositionRequestPath(bytes32)": "95e9bbd7",
    "getRequestKey(address,uint256)": "62f8a3fe",
    "getRequestQueueLengths()": "f2cea6a5",
    "gov()": "12d43a51",
    "increasePositionBufferBps()": "98d1e03a",
    "increasePositionRequestKeys(uint256)": "04225954",
    "increasePositionRequestKeysStart()": "9b578620",
    "increasePositionRequests(bytes32)": "faf990f3",
    "increasePositionsIndex(address)": "633451de",
    "isLeverageEnabled()": "3e72a262",
    "isPositionKeeper(address)": "36eba48a",
    "maxGlobalLongSizes(address)": "1045c74e",
    "maxGlobalShortSizes(address)": "9698d25a",
    "maxTimeDelay()": "cb0269c9",
    "minBlockDelayKeeper()": "5841fcaa",
    "minExecutionFee()": "63ae2103",
    "minTimeDelayPublic()": "3a2a80c7",
    "referralStorage()": "006cc35e",
    "router()": "f887ea40",
    "sendValue(address,uint256)": "24a084df",
    "setAdmin(address)": "704b6c02",
    "setCallbackGasLimit(uint256)": "8a54942f",
    "setCustomCallbackGasLimit(address,uint256)": "804fc702",
    "setDelayValues(uint256,uint256,uint256)": "4067b132",
    "setDepositFee(uint256)": "490ae210",
    "setEthTransferGasLimit(uint256)": "3a9b52ad",
    "setGov(address)": "cfad57a2",
    "setIncreasePositionBufferBps(uint256)": "233bfe3b",
    "setIsLeverageEnabled(bool)": "7c2eb9f7",
    "setMaxGlobalSizes(address[],uint256[],uint256[])": "ef12c67e",
    "setMinExecutionFee(uint256)": "fc2cee62",
    "setPositionKeeper(address,bool)": "3422ead1",
    "setReferralStorage(address)": "ae4d7f9a",
    "setRequestKeysStartValues(uint256,uint256)": "308aa81f",
    "shortsTracker()": "657bc5d0",
    "vault()": "fbfa77cf",
    "weth()": "3fc8cef3",
    "withdrawFees(address,address)": "f2555278"
  },
  "id": 30
}