{"abi":[{"type":"constructor","inputs":[{"name":"_name","type":"string","internalType":"string"},{"name":"_symbol","type":"string","internalType":"string"}],"stateMutability":"nonpayable"},{"type":"function","name":"BASIS_POINTS_DIVISOR","inputs":[],"outputs":[{"name":"","type":"uint256","internalType":"uint256"}],"stateMutability":"view"},{"type":"function","name":"PRECISION","inputs":[],"outputs":[{"name":"","type":"uint256","internalType":"uint256"}],"stateMutability":"view"},{"type":"function","name":"allowance","inputs":[{"name":"_owner","type":"address","internalType":"address"},{"name":"_spender","type":"address","internalType":"address"}],"outputs":[{"name":"","type":"uint256","internalType":"uint256"}],"stateMutability":"view"},{"type":"function","name":"allowances","inputs":[{"name":"","type":"address","internalType":"address"},{"name":"","type":"address","internalType":"address"}],"outputs":[{"name":"","type":"uint256","internalType":"uint256"}],"stateMutability":"view"},{"type":"function","name":"approve","inputs":[{"name":"_spender","type":"address","internalType":"address"},{"name":"_amount","type":"uint256","internalType":"uint256"}],"outputs":[{"name":"","type":"bool","internalType":"bool"}],"stateMutability":"nonpayable"},{"type":"function","name":"averageStakedAmounts","inputs":[{"name":"","type":"address","internalType":"address"}],"outputs":[{"name":"","type":"uint256","internalType":"uint256"}],"stateMutability":"view"},{"type":"function","name":"balanceOf","inputs":[{"name":"_account","type":"address","internalType":"address"}],"outputs":[{"name":"","type":"uint256","internalType":"uint256"}],"stateMutability":"view"},{"type":"function","name":"balances","inputs":[{"name":"","type":"address","internalType":"address"}],"outputs":[{"name":"","type":"uint256","internalType":"uint256"}],"stateMutability":"view"},{"type":"function","name":"claim","inputs":[{"name":"_receiver","type":"address","internalType":"address"}],"outputs":[{"name":"","type":"uint256","internalType":"uint256"}],"stateMutability":"nonpayable"},{"type":"function","name":"claimForAccount","inputs":[{"name":"_account","type":"address","internalType":"address"},{"name":"_receiver","type":"address","internalType":"address"}],"outputs":[{"name":"","type":"uint256","internalType":"uint256"}],"stateMutability":"nonpayable"},{"type":"function","name":"claimable","inputs":[{"name":"_account","type":"address","internalType":"address"}],"outputs":[{"name":"","type":"uint256","internalType":"uint256"}],"stateMutability":"view"},{"type":"function","name":"claimableReward","inputs":[{"name":"","type":"address","internalType":"address"}],"outputs":[{"name":"","type":"uint256","internalType":"uint256"}],"stateMutability":"view"},{"type":"function","name":"cumulativeRewardPerToken","inputs":[],"outputs":[{"name":"","type":"uint256","internalType":"uint256"}],"stateMutability":"view"},{"type":"function","name":"cumulativeRewards","inputs":[{"name":"","type":"address","internalType":"address"}],"outputs":[{"name":"","type":"uint256","internalType":"uint256"}],"stateMutability":"view"},{"type":"function","name":"decimals","inputs":[],"outputs":[{"name":"","type":"uint8","internalType":"uint8"}],"stateMutability":"view"},{"type":"function","name":"depositBalances","inputs":[{"name":"","type":"address","internalType":"address"},{"name":"","type":"address","internalType":"address"}],"outputs":[{"name":"","type":"uint256","internalType":"uint256"}],"stateMutability":"view"},{"type":"function","name":"distributor","inputs":[],"outputs":[{"name":"","type":"address","internalType":"address"}],"stateMutability":"view"},{"type":"function","name":"gov","inputs":[],"outputs":[{"name":"","type":"address","internalType":"address"}],"stateMutability":"view"},{"type":"function","name":"inPrivateClaimingMode","inputs":[],"outputs":[{"name":"","type":"bool","internalType":"bool"}],"stateMutability":"view"},{"type":"function","name":"inPrivateStakingMode","inputs":[],"outputs":[{"name":"","type":"bool","internalType":"bool"}],"stateMutability":"view"},{"type":"function","name":"inPrivateTransferMode","inputs":[],"outputs":[{"name":"","type":"bool","internalType":"bool"}],"stateMutability":"view"},{"type":"function","name":"initialize","inputs":[{"name":"_depositTokens","type":"address[]","internalType":"address[]"},{"name":"_distributor","type":"address","internalType":"address"}],"outputs":[],"stateMutability":"nonpayable"},{"type":"function","name":"isDepositToken","inputs":[{"name":"","type":"address","internalType":"address"}],"outputs":[{"name":"","type":"bool","internalType":"bool"}],"stateMutability":"view"},{"type":"function","name":"isHandler","inputs":[{"name":"","type":"address","internalType":"address"}],"outputs":[{"name":"","type":"bool","internalType":"bool"}],"stateMutability":"view"},{"type":"function","name":"isInitialized","inputs":[],"outputs":[{"name":"","type":"bool","internalType":"bool"}],"stateMutability":"view"},{"type":"function","name":"name","inputs":[],"outputs":[{"name":"","type":"string","internalType":"string"}],"stateMutability":"view"},{"type":"function","name":"previousCumulatedRewardPerToken","inputs":[{"name":"","type":"address","internalType":"address"}],"outputs":[{"name":"","type":"uint256","internalType":"uint256"}],"stateMutability":"view"},{"type":"function","name":"rewardToken","inputs":[],"outputs":[{"name":"","type":"address","internalType":"address"}],"stateMutability":"view"},{"type":"function","name":"setDepositToken","inputs":[{"name":"_depositToken","type":"address","internalType":"address"},{"name":"_isDepositToken","type":"bool","internalType":"bool"}],"outputs":[],"stateMutability":"nonpayable"},{"type":"function","name":"setGov","inputs":[{"name":"_gov","type":"address","internalType":"address"}],"outputs":[],"stateMutability":"nonpayable"},{"type":"function","name":"setHandler","inputs":[{"name":"_handler","type":"address","internalType":"address"},{"name":"_isActive","type":"bool","internalType":"bool"}],"outputs":[],"stateMutability":"nonpayable"},{"type":"function","name":"setInPrivateClaimingMode","inputs":[{"name":"_inPrivateClaimingMode","type":"bool","internalType":"bool"}],"outputs":[],"stateMutability":"nonpayable"},{"type":"function","name":"setInPrivateStakingMode","inputs":[{"name":"_inPrivateStakingMode","type":"bool","internalType":"bool"}],"outputs":[],"stateMutability":"nonpayable"},{"type":"function","name":"setInPrivateTransferMode","inputs":[{"name":"_inPrivateTransferMode","type":"bool","internalType":"bool"}],"outputs":[],"stateMutability":"nonpayable"},{"type":"function","name":"stake","inputs":[{"name":"_depositToken","type":"address","internalType":"address"},{"name":"_amount","type":"uint256","internalType":"uint256"}],"outputs":[],"stateMutability":"nonpayable"},{"type":"function","name":"stakeForAccount","inputs":[{"name":"_fundingAccount","type":"address","internalType":"address"},{"name":"_account","type":"address","internalType":"address"},{"name":"_depositToken","type":"address","internalType":"address"},{"name":"_amount","type":"uint256","internalType":"uint256"}],"outputs":[],"stateMutability":"nonpayable"},{"type":"function","name":"stakedAmounts","inputs":[{"name":"","type":"address","internalType":"address"}],"outputs":[{"name":"","type":"uint256","internalType":"uint256"}],"stateMutability":"view"},{"type":"function","name":"symbol","inputs":[],"outputs":[{"name":"","type":"string","internalType":"string"}],"stateMutability":"view"},{"type":"function","name":"tokensPerInterval","inputs":[],"outputs":[{"name":"","type":"uint256","internalType":"uint256"}],"stateMutability":"view"},{"type":"function","name":"totalDepositSupply","inputs":[{"name":"","type":"address","internalType":"address"}],"outputs":[{"name":"","type":"uint256","internalType":"uint256"}],"stateMutability":"view"},{"type":"function","name":"totalSupply","inputs":[],"outputs":[{"name":"","type":"uint256","internalType":"uint256"}],"stateMutability":"view"},{"type":"function","name":"transfer","inputs":[{"name":"_recipient","type":"address","internalType":"address"},{"name":"_amount","type":"uint256","internalType":"uint256"}],"outputs":[{"name":"","type":"bool","internalType":"bool"}],"stateMutability":"nonpayable"},{"type":"function","name":"transferFrom","inputs":[{"name":"_sender","type":"address","internalType":"address"},{"name":"_recipient","type":"address","internalType":"address"},{"name":"_amount","type":"uint256","internalType":"uint256"}],"outputs":[{"name":"","type":"bool","internalType":"bool"}],"stateMutability":"nonpayable"},{"type":"function","name":"unstake","inputs":[{"name":"_depositToken","type":"address","internalType":"address"},{"name":"_amount","type":"uint256","internalType":"uint256"}],"outputs":[],"stateMutability":"nonpayable"},{"type":"function","name":"unstakeForAccount","inputs":[{"name":"_account","type":"address","internalType":"address"},{"name":"_depositToken","type":"address","internalType":"address"},{"name":"_amount","type":"uint256","internalType":"uint256"},{"name":"_receiver","type":"address","internalType":"address"}],"outputs":[],"stateMutability":"nonpayable"},{"type":"function","name":"updateRewards","inputs":[],"outputs":[],"stateMutability":"nonpayable"},{"type":"function","name":"withdrawToken","inputs":[{"name":"_token","type":"address","internalType":"address"},{"name":"_account","type":"address","internalType":"address"},{"name":"_amount","type":"uint256","internalType":"uint256"}],"outputs":[],"stateMutability":"nonpayable"},{"type":"event","name":"Approval","inputs":[{"name":"owner","type":"address","indexed":true,"internalType":"address"},{"name":"spender","type":"address","indexed":true,"internalType":"address"},{"name":"value","type":"uint256","indexed":false,"internalType":"uint256"}],"anonymous":false},{"type":"event","name":"Claim","inputs":[{"name":"receiver","type":"address","indexed":false,"internalType":"address"},{"name":"amount","type":"uint256","indexed":false,"internalType":"uint256"}],"anonymous":false},{"type":"event","name":"Transfer","inputs":[{"name":"from","type":"address","indexed":true,"internalType":"address"},{"name":"to","type":"address","indexed":true,"internalType":"address"},{"name":"value","type":"uint256","indexed":false,"internalType":"uint256"}],"anonymous":false},{"type":"error","name":"AddressEmptyCode","inputs":[{"name":"target","type":"address","internalType":"address"}]},{"type":"error","name":"AddressInsufficientBalance","inputs":[{"name":"account","type":"address","internalType":"address"}]},{"type":"error","name":"FailedInnerCall","inputs":[]},{"type":"error","name":"ReentrancyGuardReentrantCall","inputs":[]},{"type":"error","name":"SafeERC20FailedOperation","inputs":[{"name":"token","type":"address","internalType":"address"}]}],"bytecode":{"object":"0x60806040523480156200001157600080fd5b50604051620025dd380380620025dd833981016040819052620000349162000136565b6001600081905580546001600160a01b0319163317905560026200005983826200022f565b5060036200006882826200022f565b505050620002fb565b634e487b7160e01b600052604160045260246000fd5b600082601f8301126200009957600080fd5b81516001600160401b0380821115620000b657620000b662000071565b604051601f8301601f19908116603f01168101908282118183101715620000e157620000e162000071565b81604052838152602092508683858801011115620000fe57600080fd5b600091505b8382101562000122578582018301518183018401529082019062000103565b600093810190920192909252949350505050565b600080604083850312156200014a57600080fd5b82516001600160401b03808211156200016257600080fd5b620001708683870162000087565b935060208501519150808211156200018757600080fd5b50620001968582860162000087565b9150509250929050565b600181811c90821680620001b557607f821691505b602082108103620001d657634e487b7160e01b600052602260045260246000fd5b50919050565b601f8211156200022a57600081815260208120601f850160051c81016020861015620002055750805b601f850160051c820191505b81811015620002265782815560010162000211565b5050505b505050565b81516001600160401b038111156200024b576200024b62000071565b62000263816200025c8454620001a0565b84620001dc565b602080601f8311600181146200029b5760008415620002825750858301515b600019600386901b1c1916600185901b17855562000226565b600085815260208120601f198616915b82811015620002cc57888601518255948401946001909101908401620002ab565b5085821015620002eb5787850151600019600388901b60f8161c191681555b5050505050600190811b01905550565b6122d2806200030b6000396000f3fe608060405234801561001057600080fd5b50600436106102955760003560e01c806355b6ed5c11610167578063bfe10928116100ce578063e44b755811610087578063e44b755814610677578063e95034251461068a578063f5d9d63e146106aa578063f5fc5076146106d5578063f76033d3146106de578063f7c618c1146106f157600080fd5b8063bfe10928146105e6578063c2a672e0146105f9578063c5fa27301461060c578063cfad57a21461061e578063dd62ed3e14610631578063dfbaefb11461066a57600080fd5b8063a318021711610120578063a318021714610561578063a8d9362714610581578063a9059cbb14610589578063aaf5eb681461059c578063adc9772e146105b0578063b89e45b3146105c357600080fd5b806355b6ed5c146104cc5780635a47a1a7146104f757806370a082311461050a578063790b5a6c1461053357806395d89b41146105465780639cb7de4b1461054e57600080fd5b806323b872dd1161020b5780633e158b0c116101c45780633e158b0c1461043b578063402914f51461044357806344a0841114610456578063462d0b2e1461047657806346ea87af14610489578063552ce1dc146104ac57600080fd5b806323b872dd146103a757806327e235e3146103ba578063313ce567146103da5780633792def3146103f4578063392e53cd146104145780633cd7f7001461042857600080fd5b8063126082cf1161025d578063126082cf1461033157806312d43a511461033a57806313e82e7a1461036557806318160ddd146103785780631d30d5bc146103815780631e83409a1461039457600080fd5b806301e336671461029a57806306fdde03146102af578063095ea7b3146102cd578063098bf59d146102f057806310c1c10314610303575b600080fd5b6102ad6102a8366004611d97565b6106f9565b005b6102b7610745565b6040516102c49190611dfc565b60405180910390f35b6102e06102db366004611e2f565b6107d3565b60405190151581526020016102c4565b6102ad6102fe366004611e5b565b6107ea565b610323610311366004611eae565b600c6020526000908152604090205481565b6040519081526020016102c4565b61032361271081565b60015461034d906001600160a01b031681565b6040516001600160a01b0390911681526020016102c4565b610323610373366004611ecb565b610816565b61032360085481565b6102ad61038f366004611f12565b61083e565b6103236103a2366004611eae565b610882565b6102e06103b5366004611d97565b6108d0565b6103236103c8366004611eae565b60096020526000908152604090205481565b6103e2601281565b60405160ff90911681526020016102c4565b610323610402366004611eae565b600f6020526000908152604090205481565b6001546102e090600160a01b900460ff1681565b6102ad610436366004611f12565b61094f565b6102ad610995565b610323610451366004611eae565b6109b3565b610323610464366004611eae565b600e6020526000908152604090205481565b6102ad610484366004611f45565b610b08565b6102e0610497366004611eae565b60126020526000908152604090205460ff1681565b6103236104ba366004611eae565b60076020526000908152604090205481565b6103236104da366004611ecb565b600a60209081526000928352604080842090915290825290205481565b6102ad610505366004611f12565b610c2f565b610323610518366004611eae565b6001600160a01b031660009081526009602052604090205490565b6102ad61054136600461201c565b610c6c565b6102b7610c88565b6102ad61055c36600461206d565b610c95565b61032361056f366004611eae565b60106020526000908152604090205481565b610323610cea565b6102e0610597366004611e2f565b610d68565b6103236c0c9f2c9cd04674edea4000000081565b6102ad6105be366004611e2f565b610d75565b6102e06105d1366004611eae565b60056020526000908152604090205460ff1681565b60045461034d906001600160a01b031681565b6102ad610607366004611e2f565b610dbf565b6011546102e090610100900460ff1681565b6102ad61062c366004611eae565b610dfb565b61032361063f366004611ecb565b6001600160a01b039182166000908152600a6020908152604080832093909416825291909152205490565b6011546102e09060ff1681565b6102ad61068536600461206d565b610e9d565b610323610698366004611eae565b600d6020526000908152604090205481565b6103236106b8366004611ecb565b600660209081526000928352604080842090915290825290205481565b610323600b5481565b6011546102e09062010000900460ff1681565b61034d610ef2565b6001546001600160a01b0316331461072c5760405162461bcd60e51b81526004016107239061209b565b60405180910390fd5b6107406001600160a01b0384168383610f6b565b505050565b60028054610752906120ca565b80601f016020809104026020016040519081016040528092919081815260200182805461077e906120ca565b80156107cb5780601f106107a0576101008083540402835291602001916107cb565b820191906000526020600020905b8154815290600101906020018083116107ae57829003601f168201915b505050505081565b60006107e0338484610fca565b5060015b92915050565b6107f2611100565b6107fa61112a565b61080684848484611189565b6108106001600055565b50505050565b6000610820611100565b61082861112a565b61083283836113c0565b90506107e46001600055565b6001546001600160a01b031633146108685760405162461bcd60e51b81526004016107239061209b565b601180549115156101000261ff0019909216919091179055565b600061088c611100565b60115462010000900460ff16156108b55760405162461bcd60e51b815260040161072390612104565b6108bf33836113c0565b90506108cb6001600055565b919050565b3360009081526012602052604081205460ff16156108fb576108f3848484611454565b506001610948565b6001600160a01b0384166000908152600a6020908152604080832033845290915281205461092a90849061215b565b9050610937853383610fca565b610942858585611454565b60019150505b9392505050565b6001546001600160a01b031633146109795760405162461bcd60e51b81526004016107239061209b565b60118054911515620100000262ff000019909216919091179055565b61099d611100565b6109a760006115e5565b6109b16001600055565b565b6001600160a01b0381166000908152600c60205260408120548082036109f05750506001600160a01b03166000908152600d602052604090205490565b60085460048054604080516376f69fed60e11b815290516000936c0c9f2c9cd04674edea40000000936001600160a01b03169263eded3fda92818301926020928290030181865afa158015610a49573d6000803e3d6000fd5b505050506040513d601f19601f82011682018060405250810190610a6d919061216e565b610a779190612187565b90506000610a85838361219e565b600b54610a9291906121c0565b6001600160a01b0387166000908152600e60205260409020549091506c0c9f2c9cd04674edea4000000090610ac7908361215b565b610ad19086612187565b610adb919061219e565b6001600160a01b0387166000908152600d6020526040902054610afe91906121c0565b9695505050505050565b6001546001600160a01b03163314610b325760405162461bcd60e51b81526004016107239061209b565b600154600160a01b900460ff1615610b975760405162461bcd60e51b815260206004820152602260248201527f526577617264547261636b65723a20616c726561647920696e697469616c697a604482015261195960f21b6064820152608401610723565b6001805460ff60a01b1916600160a01b17905560005b8251811015610c0b576000838281518110610bca57610bca6121d3565b6020908102919091018101516001600160a01b03166000908152600590915260409020805460ff191660011790555080610c03816121e9565b915050610bad565b50600480546001600160a01b0319166001600160a01b039290921691909117905550565b6001546001600160a01b03163314610c595760405162461bcd60e51b81526004016107239061209b565b6011805460ff1916911515919091179055565b610c74611100565b610c7c61112a565b6108068484848461184e565b60038054610752906120ca565b6001546001600160a01b03163314610cbf5760405162461bcd60e51b81526004016107239061209b565b6001600160a01b03919091166000908152601260205260409020805460ff1916911515919091179055565b6000600460009054906101000a90046001600160a01b03166001600160a01b031663a8d936276040518163ffffffff1660e01b8152600401602060405180830381865afa158015610d3f573d6000803e3d6000fd5b505050506040513d601f19601f82011682018060405250810190610d63919061216e565b905090565b60006107e0338484611454565b610d7d611100565b601154610100900460ff1615610da55760405162461bcd60e51b815260040161072390612104565b610db13333848461184e565b610dbb6001600055565b5050565b610dc7611100565b601154610100900460ff1615610def5760405162461bcd60e51b815260040161072390612104565b610db133838333611189565b6001546001600160a01b03163314610e255760405162461bcd60e51b81526004016107239061209b565b6001600160a01b038116610e7b5760405162461bcd60e51b815260206004820181905260248201527f476f7665726e61626c653a205f676f76206973207a65726f20616464726573736044820152606401610723565b600180546001600160a01b0319166001600160a01b0392909216919091179055565b6001546001600160a01b03163314610ec75760405162461bcd60e51b81526004016107239061209b565b6001600160a01b03919091166000908152600560205260409020805460ff1916911515919091179055565b6000600460009054906101000a90046001600160a01b03166001600160a01b031663f7c618c16040518163ffffffff1660e01b8152600401602060405180830381865afa158015610f47573d6000803e3d6000fd5b505050506040513d601f19601f82011682018060405250810190610d639190612202565b6040516001600160a01b0383811660248301526044820183905261074091859182169063a9059cbb906064015b604051602081830303815290604052915060e01b6020820180516001600160e01b0383818316178352505050506119b6565b6001600160a01b0383166110355760405162461bcd60e51b815260206004820152602c60248201527f526577617264547261636b65723a20617070726f76652066726f6d207468652060448201526b7a65726f206164647265737360a01b6064820152608401610723565b6001600160a01b03821661109e5760405162461bcd60e51b815260206004820152602a60248201527f526577617264547261636b65723a20617070726f766520746f20746865207a65604482015269726f206164647265737360b01b6064820152608401610723565b6001600160a01b038381166000818152600a602090815260408083209487168084529482529182902085905590518481527f8c5be1e5ebec7d5bd14f71427d1e84f3dd0314c0f7b2291e5b200ac8c7c3b92591015b60405180910390a3505050565b60026000540361112357604051633ee5aeb560e01b815260040160405180910390fd5b6002600055565b3360009081526012602052604090205460ff166109b15760405162461bcd60e51b815260206004820152601860248201527f526577617264547261636b65723a20666f7262696464656e00000000000000006044820152606401610723565b600082116111d95760405162461bcd60e51b815260206004820152601e60248201527f526577617264547261636b65723a20696e76616c6964205f616d6f756e7400006044820152606401610723565b6001600160a01b03831660009081526005602052604090205460ff166112115760405162461bcd60e51b81526004016107239061221f565b61121a846115e5565b6001600160a01b0384166000908152600c6020526040902054828110156112975760405162461bcd60e51b815260206004820152602b60248201527f526577617264547261636b65723a205f616d6f756e742065786365656473207360448201526a1d185ad959105b5bdd5b9d60aa1b6064820152608401610723565b6112a1838261215b565b6001600160a01b038087166000908152600c6020908152604080832094909455600681528382209288168252919091522054838110156113395760405162461bcd60e51b815260206004820152602d60248201527f526577617264547261636b65723a205f616d6f756e742065786365656473206460448201526c65706f73697442616c616e636560981b6064820152608401610723565b611343848261215b565b6001600160a01b038088166000908152600660209081526040808320938a16835292815282822093909355600790925290205461138190859061215b565b6001600160a01b0386166000908152600760205260409020556113a48685611a19565b6113b86001600160a01b0386168486610f6b565b505050505050565b60006113cb836115e5565b6001600160a01b0383166000908152600d60205260408120805491905580156109485761140b83826113fb610ef2565b6001600160a01b03169190610f6b565b604080516001600160a01b0386168152602081018390527f47cee97cb7acd717b3c0aa1435d004cd5b3c8c57d70dbceb4e4458bbd60e39d4910160405180910390a19392505050565b6001600160a01b0383166114c05760405162461bcd60e51b815260206004820152602d60248201527f526577617264547261636b65723a207472616e736665722066726f6d2074686560448201526c207a65726f206164647265737360981b6064820152608401610723565b6001600160a01b03821661152a5760405162461bcd60e51b815260206004820152602b60248201527f526577617264547261636b65723a207472616e7366657220746f20746865207a60448201526a65726f206164647265737360a81b6064820152608401610723565b60115460ff161561153d5761153d61112a565b6001600160a01b03831660009081526009602052604090205461156190829061215b565b6001600160a01b0380851660009081526009602052604080822093909355908416815220546115919082906121c0565b6001600160a01b0380841660008181526009602052604090819020939093559151908516907fddf252ad1be2c89b69c2b068fc378daa952ba7f163c4a11628f55a4df523b3ef906110f39085815260200190565b6000600460009054906101000a90046001600160a01b03166001600160a01b031663e4fc6b6d6040518163ffffffff1660e01b81526004016020604051808303816000875af115801561163c573d6000803e3d6000fd5b505050506040513d601f19601f82011682018060405250810190611660919061216e565b600854600b549192509081158015906116795750600083115b156116b257816116966c0c9f2c9cd04674edea4000000085612187565b6116a0919061219e565b6116aa90826121c0565b600b81905590505b806000036116c05750505050565b6001600160a01b03841615610810576001600160a01b0384166000908152600c6020908152604080832054600e9092528220549091906c0c9f2c9cd04674edea400000009061170f908561215b565b6117199084612187565b611723919061219e565b6001600160a01b0387166000908152600d60205260408120549192509061174b9083906121c0565b6001600160a01b0388166000908152600d60209081526040808320849055600e90915290208590559050801580159061179b57506001600160a01b0387166000908152600c602052604090205415155b15611845576001600160a01b0387166000908152600f60205260408120546117c49084906121c0565b9050806117d18486612187565b6117db919061219e565b6001600160a01b0389166000908152600f6020908152604080832054601090925290912054839161180b91612187565b611815919061219e565b61181f91906121c0565b6001600160a01b038916600090815260106020908152604080832093909355600f905220555b50505050505050565b6000811161189e5760405162461bcd60e51b815260206004820152601e60248201527f526577617264547261636b65723a20696e76616c6964205f616d6f756e7400006044820152606401610723565b6001600160a01b03821660009081526005602052604090205460ff166118d65760405162461bcd60e51b81526004016107239061221f565b6118eb6001600160a01b038316853084611b15565b6118f4836115e5565b6001600160a01b0383166000908152600c60205260409020546119189082906121c0565b6001600160a01b038085166000908152600c60209081526040808320949094556006815283822092861682529190915220546119559082906121c0565b6001600160a01b03808516600090815260066020908152604080832093871683529281528282209390935560079092529020546119939082906121c0565b6001600160a01b0383166000908152600760205260409020556108108382611b4e565b60006119cb6001600160a01b03841683611c3a565b905080516000141580156119f05750808060200190518101906119ee9190612263565b155b1561074057604051635274afe760e01b81526001600160a01b0384166004820152602401610723565b6001600160a01b038216611a815760405162461bcd60e51b815260206004820152602960248201527f526577617264547261636b65723a206275726e2066726f6d20746865207a65726044820152686f206164647265737360b81b6064820152608401610723565b6001600160a01b038216600090815260096020526040902054611aa590829061215b565b6001600160a01b038316600090815260096020526040902055600854611acc90829061215b565b6008556040518181526000906001600160a01b038416907fddf252ad1be2c89b69c2b068fc378daa952ba7f163c4a11628f55a4df523b3ef906020015b60405180910390a35050565b6040516001600160a01b0384811660248301528381166044830152606482018390526108109186918216906323b872dd90608401610f98565b6001600160a01b038216611bb45760405162461bcd60e51b815260206004820152602760248201527f526577617264547261636b65723a206d696e7420746f20746865207a65726f206044820152666164647265737360c81b6064820152608401610723565b80600854611bc291906121c0565b6008556001600160a01b038216600090815260096020526040902054611be99082906121c0565b6001600160a01b0383166000818152600960205260408082209390935591519091907fddf252ad1be2c89b69c2b068fc378daa952ba7f163c4a11628f55a4df523b3ef90611b099085815260200190565b606061094883836000611c4b611c64565b604051630a12f52160e11b815260040160405180910390fd5b606082471015611c895760405163cd78605960e01b8152306004820152602401610723565b600080866001600160a01b03168587604051611ca59190612280565b60006040518083038185875af1925050503d8060008114611ce2576040519150601f19603f3d011682016040523d82523d6000602084013e611ce7565b606091505b5091509150611cf887838387611d05565b925050505b949350505050565b60608315611d53578251600003611d4c57846001600160a01b03163b600003611d4c57604051639996b31560e01b81526001600160a01b0386166004820152602401610723565b5081611cfd565b611cfd8383815115611d685781518083602001fd5b611c4b8163ffffffff16565b6001600160a01b0381168114611d8957600080fd5b50565b80356108cb81611d74565b600080600060608486031215611dac57600080fd5b8335611db781611d74565b92506020840135611dc781611d74565b929592945050506040919091013590565b60005b83811015611df3578181015183820152602001611ddb565b50506000910152565b6020815260008251806020840152611e1b816040850160208701611dd8565b601f01601f19169190910160400192915050565b60008060408385031215611e4257600080fd5b8235611e4d81611d74565b946020939093013593505050565b60008060008060808587031215611e7157600080fd5b8435611e7c81611d74565b93506020850135611e8c81611d74565b9250604085013591506060850135611ea381611d74565b939692955090935050565b600060208284031215611ec057600080fd5b813561094881611d74565b60008060408385031215611ede57600080fd5b8235611ee981611d74565b91506020830135611ef981611d74565b809150509250929050565b8015158114611d8957600080fd5b600060208284031215611f2457600080fd5b813561094881611f04565b634e487b7160e01b600052604160045260246000fd5b60008060408385031215611f5857600080fd5b823567ffffffffffffffff80821115611f7057600080fd5b818501915085601f830112611f8457600080fd5b8135602082821115611f9857611f98611f2f565b8160051b604051601f19603f83011681018181108682111715611fbd57611fbd611f2f565b604052928352818301935084810182019289841115611fdb57600080fd5b948201945b8386101561200057611ff186611d8c565b85529482019493820193611fe0565b965061200f9050878201611d8c565b9450505050509250929050565b6000806000806080858703121561203257600080fd5b843561203d81611d74565b9350602085013561204d81611d74565b9250604085013561205d81611d74565b9396929550929360600135925050565b6000806040838503121561208057600080fd5b823561208b81611d74565b91506020830135611ef981611f04565b60208082526015908201527423b7bb32b93730b136329d103337b93134b23232b760591b604082015260600190565b600181811c908216806120de57607f821691505b6020821081036120fe57634e487b7160e01b600052602260045260246000fd5b50919050565b60208082526021908201527f526577617264547261636b65723a20616374696f6e206e6f7420656e61626c656040820152601960fa1b606082015260800190565b634e487b7160e01b600052601160045260246000fd5b818103818111156107e4576107e4612145565b60006020828403121561218057600080fd5b5051919050565b80820281158282048414176107e4576107e4612145565b6000826121bb57634e487b7160e01b600052601260045260246000fd5b500490565b808201808211156107e4576107e4612145565b634e487b7160e01b600052603260045260246000fd5b6000600182016121fb576121fb612145565b5060010190565b60006020828403121561221457600080fd5b815161094881611d74565b60208082526024908201527f526577617264547261636b65723a20696e76616c6964205f6465706f7369745460408201526337b5b2b760e11b606082015260800190565b60006020828403121561227557600080fd5b815161094881611f04565b60008251612292818460208701611dd8565b919091019291505056fea2646970667358221220611356785160e55e4ae62147cb6cbcc9eb1fb6c306d5419b277b07eb573dfcbe64736f6c63430008120033","linkReferences":{}},"methodIdentifiers":{"BASIS_POINTS_DIVISOR()":"126082cf","PRECISION()":"aaf5eb68","allowance(address,address)":"dd62ed3e","allowances(address,address)":"55b6ed5c","approve(address,uint256)":"095ea7b3","averageStakedAmounts(address)":"a3180217","balanceOf(address)":"70a08231","balances(address)":"27e235e3","claim(address)":"1e83409a","claimForAccount(address,address)":"13e82e7a","claimable(address)":"402914f5","claimableReward(address)":"e9503425","cumulativeRewardPerToken()":"f5fc5076","cumulativeRewards(address)":"3792def3","decimals()":"313ce567","depositBalances(address,address)":"f5d9d63e","distributor()":"bfe10928","gov()":"12d43a51","inPrivateClaimingMode()":"f76033d3","inPrivateStakingMode()":"c5fa2730","inPrivateTransferMode()":"dfbaefb1","initialize(address[],address)":"462d0b2e","isDepositToken(address)":"b89e45b3","isHandler(address)":"46ea87af","isInitialized()":"392e53cd","name()":"06fdde03","previousCumulatedRewardPerToken(address)":"44a08411","rewardToken()":"f7c618c1","setDepositToken(address,bool)":"e44b7558","setGov(address)":"cfad57a2","setHandler(address,bool)":"9cb7de4b","setInPrivateClaimingMode(bool)":"3cd7f700","setInPrivateStakingMode(bool)":"1d30d5bc","setInPrivateTransferMode(bool)":"5a47a1a7","stake(address,uint256)":"adc9772e","stakeForAccount(address,address,address,uint256)":"790b5a6c","stakedAmounts(address)":"10c1c103","symbol()":"95d89b41","tokensPerInterval()":"a8d93627","totalDepositSupply(address)":"552ce1dc","totalSupply()":"18160ddd","transfer(address,uint256)":"a9059cbb","transferFrom(address,address,uint256)":"23b872dd","unstake(address,uint256)":"c2a672e0","unstakeForAccount(address,address,uint256,address)":"098bf59d","updateRewards()":"3e158b0c","withdrawToken(address,address,uint256)":"01e33667"},"id":122}