{
  "abi": [
    {
      "inputs": [
        {
          "internalType": "address",
          "name": "_admin",
          "type": "address"
        },
        {
          "internalType": "uint256",
          "name": "_buffer",
          "type": "uint256"
        },
        {
          "internalType": "uint256",
          "name": "_averagePriceUpdateDelay",
          "type": "uint256"
        },
        {
          "internalType": "uint256",
          "name": "_maxAveragePriceChange",
          "type": "uint256"
        }
      ],
      "stateMutability": "nonpayable",
      "type": "constructor"
    },
    {
      "anonymous": false,
      "inputs": [
        {
          "indexed": false,
          "internalType": "bytes32",
          "name": "action",
          "type": "bytes32"
        }
      ],
      "name": "ClearAction",
      "type": "event"
    },
    {
      "anonymous": false,
      "inputs": [
        {
          "indexed": true,
          "internalType": "address",
          "name": "token",
          "type": "address"
        },
        {
          "indexed": false,
          "internalType": "uint256",
          "name": "oldAveragePrice",
          "type": "uint256"
        },
        {
          "indexed": false,
          "internalType": "uint256",
          "name": "newAveragePrice",
          "type": "uint256"
        }
      ],
      "name": "GlobalShortAveragePriceUpdated",
      "type": "event"
    },
    {
      "anonymous": false,
      "inputs": [
        {
          "indexed": false,
          "internalType": "address",
          "name": "admin",
          "type": "address"
        }
      ],
      "name": "SetAdmin",
      "type": "event"
    },
    {
      "anonymous": false,
      "inputs": [
        {
          "indexed": false,
          "internalType": "uint256",
          "name": "averagePriceUpdateDelay",
          "type": "uint256"
        }
      ],
      "name": "SetAveragePriceUpdateDelay",
      "type": "event"
    },
    {
      "anonymous": false,
      "inputs": [
        {
          "indexed": true,
          "internalType": "address",
          "name": "handler",
          "type": "address"
        },
        {
          "indexed": false,
          "internalType": "bool",
          "name": "isHandler",
          "type": "bool"
        }
      ],
      "name": "SetContractHandler",
      "type": "event"
    },
    {
      "anonymous": false,
      "inputs": [
        {
          "indexed": false,
          "internalType": "address",
          "name": "target",
          "type": "address"
        },
        {
          "indexed": false,
          "internalType": "address",
          "name": "gov",
          "type": "address"
        }
      ],
      "name": "SetGov",
      "type": "event"
    },
    {
      "anonymous": false,
      "inputs": [
        {
          "indexed": false,
          "internalType": "address",
          "name": "target",
          "type": "address"
        },
        {
          "indexed": false,
          "internalType": "bool",
          "name": "isGlobalShortDataReady",
          "type": "bool"
        }
      ],
      "name": "SetIsGlobalShortDataReady",
      "type": "event"
    },
    {
      "anonymous": false,
      "inputs": [
        {
          "indexed": false,
          "internalType": "uint256",
          "name": "maxAveragePriceChange",
          "type": "uint256"
        }
      ],
      "name": "SetMaxAveragePriceChange",
      "type": "event"
    },
    {
      "anonymous": false,
      "inputs": [
        {
          "indexed": false,
          "internalType": "bytes32",
          "name": "action",
          "type": "bytes32"
        }
      ],
      "name": "SignalPendingAction",
      "type": "event"
    },
    {
      "anonymous": false,
      "inputs": [
        {
          "indexed": false,
          "internalType": "address",
          "name": "admin",
          "type": "address"
        }
      ],
      "name": "SignalSetAdmin",
      "type": "event"
    },
    {
      "anonymous": false,
      "inputs": [
        {
          "indexed": false,
          "internalType": "uint256",
          "name": "averagePriceUpdateDelay",
          "type": "uint256"
        }
      ],
      "name": "SignalSetAveragePriceUpdateDelay",
      "type": "event"
    },
    {
      "anonymous": false,
      "inputs": [
        {
          "indexed": false,
          "internalType": "address",
          "name": "target",
          "type": "address"
        },
        {
          "indexed": false,
          "internalType": "address",
          "name": "gov",
          "type": "address"
        }
      ],
      "name": "SignalSetGov",
      "type": "event"
    },
    {
      "anonymous": false,
      "inputs": [
        {
          "indexed": false,
          "internalType": "address",
          "name": "target",
          "type": "address"
        },
        {
          "indexed": false,
          "internalType": "address",
          "name": "handler",
          "type": "address"
        },
        {
          "indexed": false,
          "internalType": "bool",
          "name": "isActive",
          "type": "bool"
        },
        {
          "indexed": false,
          "internalType": "bytes32",
          "name": "action",
          "type": "bytes32"
        }
      ],
      "name": "SignalSetHandler",
      "type": "event"
    },
    {
      "anonymous": false,
      "inputs": [
        {
          "indexed": false,
          "internalType": "address",
          "name": "target",
          "type": "address"
        },
        {
          "indexed": false,
          "internalType": "bool",
          "name": "isGlobalShortDataReady",
          "type": "bool"
        }
      ],
      "name": "SignalSetIsGlobalShortDataReady",
      "type": "event"
    },
    {
      "anonymous": false,
      "inputs": [
        {
          "indexed": false,
          "internalType": "uint256",
          "name": "maxAveragePriceChange",
          "type": "uint256"
        }
      ],
      "name": "SignalSetMaxAveragePriceChange",
      "type": "event"
    },
    {
      "inputs": [],
      "name": "BASIS_POINTS_DIVISOR",
      "outputs": [
        {
          "internalType": "uint256",
          "name": "",
          "type": "uint256"
        }
      ],
      "stateMutability": "view",
      "type": "function"
    },
    {
      "inputs": [],
      "name": "MAX_BUFFER",
      "outputs": [
        {
          "internalType": "uint256",
          "name": "",
          "type": "uint256"
        }
      ],
      "stateMutability": "view",
      "type": "function"
    },
    {
      "inputs": [],
      "name": "admin",
      "outputs": [
        {
          "internalType": "address",
          "name": "",
          "type": "address"
        }
      ],
      "stateMutability": "view",
      "type": "function"
    },
    {
      "inputs": [],
      "name": "averagePriceUpdateDelay",
      "outputs": [
        {
          "internalType": "uint256",
          "name": "",
          "type": "uint256"
        }
      ],
      "stateMutability": "view",
      "type": "function"
    },
    {
      "inputs": [],
      "name": "buffer",
      "outputs": [
        {
          "internalType": "uint256",
          "name": "",
          "type": "uint256"
        }
      ],
      "stateMutability": "view",
      "type": "function"
    },
    {
      "inputs": [
        {
          "internalType": "bytes32",
          "name": "_action",
          "type": "bytes32"
        }
      ],
      "name": "cancelAction",
      "outputs": [],
      "stateMutability": "nonpayable",
      "type": "function"
    },
    {
      "inputs": [
        {
          "internalType": "contract IShortsTracker",
          "name": "_shortsTracker",
          "type": "address"
        }
      ],
      "name": "disableIsGlobalShortDataReady",
      "outputs": [],
      "stateMutability": "nonpayable",
      "type": "function"
    },
    {
      "inputs": [
        {
          "internalType": "address",
          "name": "",
          "type": "address"
        }
      ],
      "name": "isHandler",
      "outputs": [
        {
          "internalType": "bool",
          "name": "",
          "type": "bool"
        }
      ],
      "stateMutability": "view",
      "type": "function"
    },
    {
      "inputs": [
        {
          "internalType": "address",
          "name": "",
          "type": "address"
        }
      ],
      "name": "lastUpdated",
      "outputs": [
        {
          "internalType": "uint256",
          "name": "",
          "type": "uint256"
        }
      ],
      "stateMutability": "view",
      "type": "function"
    },
    {
      "inputs": [],
      "name": "maxAveragePriceChange",
      "outputs": [
        {
          "internalType": "uint256",
          "name": "",
          "type": "uint256"
        }
      ],
      "stateMutability": "view",
      "type": "function"
    },
    {
      "inputs": [
        {
          "internalType": "bytes32",
          "name": "",
          "type": "bytes32"
        }
      ],
      "name": "pendingActions",
      "outputs": [
        {
          "internalType": "uint256",
          "name": "",
          "type": "uint256"
        }
      ],
      "stateMutability": "view",
      "type": "function"
    },
    {
      "inputs": [
        {
          "internalType": "address",
          "name": "_admin",
          "type": "address"
        }
      ],
      "name": "setAdmin",
      "outputs": [],
      "stateMutability": "nonpayable",
      "type": "function"
    },
    {
      "inputs": [
        {
          "internalType": "uint256",
          "name": "_averagePriceUpdateDelay",
          "type": "uint256"
        }
      ],
      "name": "setAveragePriceUpdateDelay",
      "outputs": [],
      "stateMutability": "nonpayable",
      "type": "function"
    },
    {
      "inputs": [
        {
          "internalType": "uint256",
          "name": "_buffer",
          "type": "uint256"
        }
      ],
      "name": "setBuffer",
      "outputs": [],
      "stateMutability": "nonpayable",
      "type": "function"
    },
    {
      "inputs": [
        {
          "internalType": "address",
          "name": "_handler",
          "type": "address"
        },
        {
          "internalType": "bool",
          "name": "_isActive",
          "type": "bool"
        }
      ],
      "name": "setContractHandler",
      "outputs": [],
      "stateMutability": "nonpayable",
      "type": "function"
    },
    {
      "inputs": [
        {
          "internalType": "contract IShortsTracker",
          "name": "_shortsTracker",
          "type": "address"
        },
        {
          "internalType": "address[]",
          "name": "_tokens",
          "type": "address[]"
        },
        {
          "internalType": "uint256[]",
          "name": "_averagePrices",
          "type": "uint256[]"
        }
      ],
      "name": "setGlobalShortAveragePrices",
      "outputs": [],
      "stateMutability": "nonpayable",
      "type": "function"
    },
    {
      "inputs": [
        {
          "internalType": "address",
          "name": "_shortsTracker",
          "type": "address"
        },
        {
          "internalType": "address",
          "name": "_gov",
          "type": "address"
        }
      ],
      "name": "setGov",
      "outputs": [],
      "stateMutability": "nonpayable",
      "type": "function"
    },
    {
      "inputs": [
        {
          "internalType": "address",
          "name": "_target",
          "type": "address"
        },
        {
          "internalType": "address",
          "name": "_handler",
          "type": "address"
        },
        {
          "internalType": "bool",
          "name": "_isActive",
          "type": "bool"
        }
      ],
      "name": "setHandler",
      "outputs": [],
      "stateMutability": "nonpayable",
      "type": "function"
    },
    {
      "inputs": [
        {
          "internalType": "contract IShortsTracker",
          "name": "_shortsTracker",
          "type": "address"
        },
        {
          "internalType": "bool",
          "name": "_value",
          "type": "bool"
        }
      ],
      "name": "setIsGlobalShortDataReady",
      "outputs": [],
      "stateMutability": "nonpayable",
      "type": "function"
    },
    {
      "inputs": [
        {
          "internalType": "uint256",
          "name": "_maxAveragePriceChange",
          "type": "uint256"
        }
      ],
      "name": "setMaxAveragePriceChange",
      "outputs": [],
      "stateMutability": "nonpayable",
      "type": "function"
    },
    {
      "inputs": [
        {
          "internalType": "address",
          "name": "_admin",
          "type": "address"
        }
      ],
      "name": "signalSetAdmin",
      "outputs": [],
      "stateMutability": "nonpayable",
      "type": "function"
    },
    {
      "inputs": [
        {
          "internalType": "uint256",
          "name": "_averagePriceUpdateDelay",
          "type": "uint256"
        }
      ],
      "name": "signalSetAveragePriceUpdateDelay",
      "outputs": [],
      "stateMutability": "nonpayable",
      "type": "function"
    },
    {
      "inputs": [
        {
          "internalType": "address",
          "name": "_shortsTracker",
          "type": "address"
        },
        {
          "internalType": "address",
          "name": "_gov",
          "type": "address"
        }
      ],
      "name": "signalSetGov",
      "outputs": [],
      "stateMutability": "nonpayable",
      "type": "function"
    },
    {
      "inputs": [
        {
          "internalType": "address",
          "name": "_target",
          "type": "address"
        },
        {
          "internalType": "address",
          "name": "_handler",
          "type": "address"
        },
        {
          "internalType": "bool",
          "name": "_isActive",
          "type": "bool"
        }
      ],
      "name": "signalSetHandler",
      "outputs": [],
      "stateMutability": "nonpayable",
      "type": "function"
    },
    {
      "inputs": [
        {
          "internalType": "contract IShortsTracker",
          "name": "_shortsTracker",
          "type": "address"
        },
        {
          "internalType": "bool",
          "name": "_value",
          "type": "bool"
        }
      ],
      "name": "signalSetIsGlobalShortDataReady",
      "outputs": [],
      "stateMutability": "nonpayable",
      "type": "function"
    },
    {
      "inputs": [
        {
          "internalType": "uint256",
          "name": "_maxAveragePriceChange",
          "type": "uint256"
        }
      ],
      "name": "signalSetMaxAveragePriceChange",
      "outputs": [],
      "stateMutability": "nonpayable",
      "type": "function"
    }
  ],
  "bytecode": {
    "object": "0x608060405234801561001057600080fd5b50604051611b38380380611b3883398101604081905261002f91610061565b600180546001600160a01b0319166001600160a01b0395909516949094179093556002919091556005556006556100ac565b6000806000806080858703121561007757600080fd5b84516001600160a01b038116811461008e57600080fd5b60208601516040870151606090970151919890975090945092505050565b611a7d806100bb6000396000f3fe608060405234801561001057600080fd5b506004361061018e5760003560e01c80634882fa13116100de578063717cf5d611610097578063adc7ea3711610071578063adc7ea3714610350578063e30569e514610363578063edaafe2014610383578063f851a4401461038c57600080fd5b8063717cf5d614610317578063781cc3d31461032a578063996a7a1e1461033d57600080fd5b80634882fa13146102ae57806351a6de0d146102c15780635c3bca36146102d457806361d07569146102e7578063627395eb146102f1578063704b6c021461030457600080fd5b80632591d4831161014b5780633976e566116101255780633976e5661461024c57806342588a671461025f57806342773c2c1461027257806346ea87af1461027b57600080fd5b80632591d483146102135780632c166c4114610226578063331566391461023957600080fd5b80630a6f93e6146101935780631154e808146101c6578063126082cf146101db578063185051c1146101e45780631ab8fe04146101f757806324ccbe3014610200575b600080fd5b6101b36101a1366004611607565b60046020526000908152604090205481565b6040519081526020015b60405180910390f35b6101d96101d4366004611640565b6103b7565b005b6101b361271081565b6101d96101f2366004611687565b610494565b6101b360055481565b6101d961020e366004611640565b61051d565b6101d9610221366004611687565b6105d7565b6101d96102343660046116bc565b6106e5565b6101d96102473660046116bc565b6107a7565b6101d961025a366004611721565b610866565b6101d961026d3660046116bc565b610bef565b6101b360065481565b61029e610289366004611607565b60036020526000908152604090205460ff1681565b60405190151581526020016101bd565b6101d96102bc366004611687565b610ca0565b6101d96102cf3660046117a4565b610d40565b6101d96102e23660046116bc565b610e45565b6101b36206978081565b6101d96102ff366004611607565b610ef1565b6101d9610312366004611607565b610fbc565b6101d9610325366004611607565b611071565b6101d96103383660046116bc565b61116a565b6101d961034b3660046117a4565b6111a0565b6101d961035e3660046116bc565b6112a1565b6101b36103713660046116bc565b60006020819052908152604090205481565b6101b360025481565b60015461039f906001600160a01b031681565b6040516001600160a01b0390911681526020016101bd565b6001546001600160a01b031633146103ea5760405162461bcd60e51b81526004016103e1906117dd565b60405180910390fd5b600083838360405160200161040193929190611823565b6040516020818303038152906040528051906020012090506104228161139c565b61042b81611485565b604051639cb7de4b60e01b81526001600160a01b0384811660048301528315156024830152851690639cb7de4b90604401600060405180830381600087803b15801561047657600080fd5b505af115801561048a573d6000803e3d6000fd5b5050505050505050565b6001546001600160a01b031633146104be5760405162461bcd60e51b81526004016103e1906117dd565b6001600160a01b038216600081815260036020908152604091829020805460ff191685151590811790915591519182527f0c7e57410cc008b0b1abd8a03240abc3921d41be4ca09611330825622d5866cf910160405180910390a25050565b6001546001600160a01b031633146105475760405162461bcd60e51b81526004016103e1906117dd565b600083838360405160200161055e93929190611823565b60405160208183030381529060405280519060200120905061057f81611531565b604080516001600160a01b03868116825285166020820152831515818301526060810183905290517f1929c4e13b0dbbad7856b9ce1fc9dca98c7bf7cedd56e22c04dd60ad1d34fe4b9181900360800190a150505050565b6001546001600160a01b031633146106015760405162461bcd60e51b81526004016103e1906117dd565b60008282604051602001610616929190611864565b6040516020818303038152906040528051906020012090506106378161139c565b61064081611485565b604051633d30cabf60e01b815282151560048201526001600160a01b03841690633d30cabf90602401600060405180830381600087803b15801561068357600080fd5b505af1158015610697573d6000803e3d6000fd5b5050604080516001600160a01b038716815285151560208201527f177de4361fc37a0e8defe8ac0c685d3472789b507959897eec32350c9d2c366693500190505b60405180910390a1505050565b6001546001600160a01b0316331461070f5760405162461bcd60e51b81526004016103e1906117dd565b604051777365744d61784176657261676550726963654368616e676560401b6020820152603881018290526000906058016040516020818303038152906040528051906020012090506107618161139c565b61076a81611485565b60068290556040518281527fe846c28c10eef345d8d4fea8b403bfac624c32c3e64ce0b666f23404f2edb514906020015b60405180910390a15050565b6001546001600160a01b031633146107d15760405162461bcd60e51b81526004016103e1906117dd565b6040517f73657441766572616765507269636555706461746544656c61790000000000006020820152603a8101829052600090605a016040516020818303038152906040528051906020012090506108288161139c565b61083181611485565b60058290556040518281527fa043b6b847902bb85c2a2575e9bce3a077bcaad8ec888ac941f50a6f4acdbb3d9060200161079b565b3360009081526003602052604090205460ff168061088e57506001546001600160a01b031633145b6108eb5760405162461bcd60e51b815260206004820152602860248201527f53686f727473547261636b657254696d656c6f636b3a2068616e646c6572206660448201526737b93134b23232b760c11b60648201526084016103e1565b604051633d30cabf60e01b8152600060048201526001600160a01b03861690633d30cabf90602401600060405180830381600087803b15801561092d57600080fd5b505af1158015610941573d6000803e3d6000fd5b5050505060005b83811015610b83576000858583818110610964576109646118ac565b90506020020160208101906109799190611607565b604051636274980360e01b81526001600160a01b038083166004830152919250600091891690636274980390602401602060405180830381865afa1580156109c5573d6000803e3d6000fd5b505050506040513d601f19601f820116820180604052508101906109e991906118c2565b905060008585858181106109ff576109ff6118ac565b9050602002013590506000828211610a2057610a1b82846118f1565b610a2a565b610a2a83836118f1565b60065490915083610a3d6127108461190a565b610a479190611921565b10610aa25760405162461bcd60e51b815260206004820152602560248201527f53686f727473547261636b657254696d656c6f636b3a20746f6f20626967206360448201526468616e676560d81b60648201526084016103e1565b6005546001600160a01b038516600090815260046020526040902054610ac89190611943565b421015610b175760405162461bcd60e51b815260206004820181905260248201527f53686f727473547261636b657254696d656c6f636b3a20746f6f206561726c7960448201526064016103e1565b6001600160a01b03841660008181526004602090815260409182902042905581518681529081018590527fa6a58ff784b1e07988de90568885d7bbd8e5485c3ec4344195c7306108553256910160405180910390a2505050508080610b7b90611956565b915050610948565b5060405163bbd9718760e01b81526001600160a01b0386169063bbd9718790610bb690879087908790879060040161196f565b600060405180830381600087803b158015610bd057600080fd5b505af1158015610be4573d6000803e3d6000fd5b505050505050505050565b6001546001600160a01b03163314610c195760405162461bcd60e51b81526004016103e1906117dd565b6040517f73657441766572616765507269636555706461746544656c61790000000000006020820152603a8101829052600090605a01604051602081830303815290604052805190602001209050610c7081611531565b6040518281527fc226c48cee6a025ab009e01969a2e89f1ce4d455cfa2900745b2237cb0bb8d619060200161079b565b6001546001600160a01b03163314610cca5760405162461bcd60e51b81526004016103e1906117dd565b60008282604051602001610cdf929190611864565b604051602081830303815290604052805190602001209050610d0081611531565b604080516001600160a01b038516815283151560208201527f362e5bba25647700de1a7562fc07672df837bef17125e07a6f79abea31ee5a4891016106d8565b6001546001600160a01b03163314610d6a5760405162461bcd60e51b81526004016103e1906117dd565b60008282604051602001610d7f9291906119ed565b604051602081830303815290604052805190602001209050610da08161139c565b610da981611485565b6040516367d6abd160e11b81526001600160a01b03838116600483015284169063cfad57a290602401600060405180830381600087803b158015610dec57600080fd5b505af1158015610e00573d6000803e3d6000fd5b5050604080516001600160a01b038088168252861660208201527f53351836099c03ffc3b1727d8abd4b0222afa87d4ed76ae3102d51369ef7f78593500190506106d8565b6001546001600160a01b03163314610e6f5760405162461bcd60e51b81526004016103e1906117dd565b604051777365744d61784176657261676550726963654368616e676560401b602082015260388101829052600090605801604051602081830303815290604052805190602001209050610ec181611531565b6040518281527f21f68305d262b9ce144019f5d9f755a2dd1b5c2d35996cd4b649c285d7525cd19060200161079b565b6001546001600160a01b03163314610f1b5760405162461bcd60e51b81526004016103e1906117dd565b604051633d30cabf60e01b8152600060048201526001600160a01b03821690633d30cabf90602401600060405180830381600087803b158015610f5d57600080fd5b505af1158015610f71573d6000803e3d6000fd5b5050604080516001600160a01b0385168152600060208201527f177de4361fc37a0e8defe8ac0c685d3472789b507959897eec32350c9d2c366693500190505b60405180910390a150565b6001546001600160a01b03163314610fe65760405162461bcd60e51b81526004016103e1906117dd565b600081604051602001610ff99190611a1e565b60405160208183030381529060405280519060200120905061101a8161139c565b61102381611485565b600180546001600160a01b0319166001600160a01b0384169081179091556040519081527f5a272403b402d892977df56625f4164ccaf70ca3863991c43ecfe76a6905b0a19060200161079b565b6001546001600160a01b0316331461109b5760405162461bcd60e51b81526004016103e1906117dd565b6001600160a01b0381166110fd5760405162461bcd60e51b8152602060048201526024808201527f53686f727473547261636b657254696d656c6f636b3a20696e76616c696420616044820152633236b4b760e11b60648201526084016103e1565b6000816040516020016111109190611a1e565b60405160208183030381529060405280519060200120905061113181611531565b6040516001600160a01b03831681527fbccacda50126e9efa231593d2a9d4394d7cda7909ab2e14d2ae878ab2a306b3f9060200161079b565b6001546001600160a01b031633146111945760405162461bcd60e51b81526004016103e1906117dd565b61119d81611485565b50565b6001546001600160a01b031633146111ca5760405162461bcd60e51b81526004016103e1906117dd565b6001600160a01b03811661122b5760405162461bcd60e51b815260206004820152602260248201527f53686f727473547261636b657254696d656c6f636b3a20696e76616c6964206760448201526137bb60f11b60648201526084016103e1565b600082826040516020016112409291906119ed565b60405160208183030381529060405280519060200120905061126181611531565b604080516001600160a01b038086168252841660208201527f84f5d90471bb5811423318895e49ef4de52f5a6f4dac67af85e4202410bb66a491016106d8565b6001546001600160a01b031633146112cb5760405162461bcd60e51b81526004016103e1906117dd565b6206978081111561132c5760405162461bcd60e51b815260206004820152602560248201527f53686f727473547261636b657254696d656c6f636b3a20696e76616c696420626044820152643ab33332b960d91b60648201526084016103e1565b60025481116113975760405162461bcd60e51b815260206004820152603160248201527f53686f727473547261636b657254696d656c6f636b3a206275666665722063616044820152701b9b9bdd08189948191958dc99585cd959607a1b60648201526084016103e1565b600255565b600081815260208190526040812054900361140d5760405162461bcd60e51b815260206004820152602b60248201527f53686f727473547261636b657254696d656c6f636b3a20616374696f6e206e6f60448201526a1d081cda59db985b1b195960aa1b60648201526084016103e1565b60008181526020819052604090205442101561119d5760405162461bcd60e51b815260206004820152603160248201527f53686f727473547261636b657254696d656c6f636b3a20616374696f6e2074696044820152701b59481b9bdd081e595d081c185cdcd959607a1b60648201526084016103e1565b60008181526020819052604081205490036114f15760405162461bcd60e51b815260206004820152602660248201527f53686f727473547261636b657254696d656c6f636b3a20696e76616c6964205f60448201526530b1ba34b7b760d11b60648201526084016103e1565b6000818152602081815260408083209290925590518281527f194ed6dd5e37e2acc44a19455c3f208c4831ee695fe362d9c4ef2d316bc53aec9101610fb1565b600081815260208190526040902054156115a55760405162461bcd60e51b815260206004820152602f60248201527f53686f727473547261636b657254696d656c6f636b3a20616374696f6e20616c60448201526e1c9958591e481cda59db985b1b1959608a1b60648201526084016103e1565b6002546115b29042611943565b6000828152602081815260409182902092909255518281527f5fb9c0ecf7b4a28c4c480212e868f9da7f373a2ed4d23498b0be6aadf35242fb9101610fb1565b6001600160a01b038116811461119d57600080fd5b60006020828403121561161957600080fd5b8135611624816115f2565b9392505050565b8035801515811461163b57600080fd5b919050565b60008060006060848603121561165557600080fd5b8335611660816115f2565b92506020840135611670816115f2565b915061167e6040850161162b565b90509250925092565b6000806040838503121561169a57600080fd5b82356116a5816115f2565b91506116b36020840161162b565b90509250929050565b6000602082840312156116ce57600080fd5b5035919050565b60008083601f8401126116e757600080fd5b50813567ffffffffffffffff8111156116ff57600080fd5b6020830191508360208260051b850101111561171a57600080fd5b9250929050565b60008060008060006060868803121561173957600080fd5b8535611744816115f2565b9450602086013567ffffffffffffffff8082111561176157600080fd5b61176d89838a016116d5565b9096509450604088013591508082111561178657600080fd5b50611793888289016116d5565b969995985093965092949392505050565b600080604083850312156117b757600080fd5b82356117c2816115f2565b915060208301356117d2816115f2565b809150509250929050565b60208082526026908201527f53686f727473547261636b657254696d656c6f636b3a2061646d696e20666f726040820152653134b23232b760d11b606082015260800190565b6939b2ba2430b7323632b960b11b81526001600160601b0319606094851b8116600a8301529290931b909116601e830152151560f81b603282015260330190565b7f7365744973476c6f62616c53686f727444617461526561647900000000000000815260609290921b6001600160601b0319166019830152151560f81b602d820152602e0190565b634e487b7160e01b600052603260045260246000fd5b6000602082840312156118d457600080fd5b5051919050565b634e487b7160e01b600052601160045260246000fd5b81810381811115611904576119046118db565b92915050565b8082028115828204841417611904576119046118db565b60008261193e57634e487b7160e01b600052601260045260246000fd5b500490565b80820180821115611904576119046118db565b600060018201611968576119686118db565b5060010190565b6040808252810184905260008560608301825b878110156119b2578235611995816115f2565b6001600160a01b0316825260209283019290910190600101611982565b5083810360208501528481526001600160fb1b038511156119d257600080fd5b8460051b915081866020830137016020019695505050505050565b6539b2ba23b7bb60d11b81526001600160601b0319606093841b811660068301529190921b16601a820152602e0190565b6739b2ba20b236b4b760c11b815260609190911b6001600160601b0319166008820152601c019056fea2646970667358221220d22c0448749289225fe4c3640f3ecc68046866906167b1ea23e6c18383b469ff64736f6c63430008120033",
    "linkReferences": {}
  },
  "methodIdentifiers": {
    "BASIS_POINTS_DIVISOR()": "126082cf",
    "MAX_BUFFER()": "61d07569",
    "admin()": "f851a440",
    "averagePriceUpdateDelay()": "1ab8fe04",
    "buffer()": "edaafe20",
    "cancelAction(bytes32)": "781cc3d3",
    "disableIsGlobalShortDataReady(address)": "627395eb",
    "isHandler(address)": "46ea87af",
    "lastUpdated(address)": "0a6f93e6",
    "maxAveragePriceChange()": "42773c2c",
    "pendingActions(bytes32)": "e30569e5",
    "setAdmin(address)": "704b6c02",
    "setAveragePriceUpdateDelay(uint256)": "33156639",
    "setBuffer(uint256)": "adc7ea37",
    "setContractHandler(address,bool)": "185051c1",
    "setGlobalShortAveragePrices(address,address[],uint256[])": "3976e566",
    "setGov(address,address)": "51a6de0d",
    "setHandler(address,address,bool)": "1154e808",
    "setIsGlobalShortDataReady(address,bool)": "2591d483",
    "setMaxAveragePriceChange(uint256)": "2c166c41",
    "signalSetAdmin(address)": "717cf5d6",
    "signalSetAveragePriceUpdateDelay(uint256)": "42588a67",
    "signalSetGov(address,address)": "996a7a1e",
    "signalSetHandler(address,address,bool)": "24ccbe30",
    "signalSetIsGlobalShortDataReady(address,bool)": "4882fa13",
    "signalSetMaxAveragePriceChange(uint256)": "5c3bca36"
  },
  "id": 66
}