{"abi":[{"type":"constructor","inputs":[{"name":"_vault","type":"address","internalType":"contract IVault"}],"stateMutability":"nonpayable"},{"type":"function","name":"BASIS_POINTS_DIVISOR","inputs":[],"outputs":[{"name":"","type":"uint256","internalType":"uint256"}],"stateMutability":"view"},{"type":"function","name":"FUNDING_RATE_PRECISION","inputs":[],"outputs":[{"name":"","type":"uint256","internalType":"uint256"}],"stateMutability":"view"},{"type":"function","name":"getBuyUsdpFeeBasisPoints","inputs":[{"name":"_token","type":"address","internalType":"address"},{"name":"_usdpAmount","type":"uint256","internalType":"uint256"}],"outputs":[{"name":"","type":"uint256","internalType":"uint256"}],"stateMutability":"view"},{"type":"function","name":"getEntryFundingRate","inputs":[{"name":"_collateralToken","type":"address","internalType":"address"},{"name":"","type":"address","internalType":"address"},{"name":"","type":"bool","internalType":"bool"}],"outputs":[{"name":"","type":"uint256","internalType":"uint256"}],"stateMutability":"view"},{"type":"function","name":"getFeeBasisPoints","inputs":[{"name":"_token","type":"address","internalType":"address"},{"name":"_usdpDelta","type":"uint256","internalType":"uint256"},{"name":"_feeBasisPoints","type":"uint256","internalType":"uint256"},{"name":"_taxBasisPoints","type":"uint256","internalType":"uint256"},{"name":"_increment","type":"bool","internalType":"bool"}],"outputs":[{"name":"","type":"uint256","internalType":"uint256"}],"stateMutability":"view"},{"type":"function","name":"getFundingFee","inputs":[{"name":"","type":"address","internalType":"address"},{"name":"_collateralToken","type":"address","internalType":"address"},{"name":"","type":"address","internalType":"address"},{"name":"","type":"bool","internalType":"bool"},{"name":"_size","type":"uint256","internalType":"uint256"},{"name":"_entryFundingRate","type":"uint256","internalType":"uint256"}],"outputs":[{"name":"","type":"uint256","internalType":"uint256"}],"stateMutability":"view"},{"type":"function","name":"getPositionFee","inputs":[{"name":"","type":"address","internalType":"address"},{"name":"","type":"address","internalType":"address"},{"name":"","type":"address","internalType":"address"},{"name":"","type":"bool","internalType":"bool"},{"name":"_sizeDelta","type":"uint256","internalType":"uint256"}],"outputs":[{"name":"","type":"uint256","internalType":"uint256"}],"stateMutability":"view"},{"type":"function","name":"getSellUsdpFeeBasisPoints","inputs":[{"name":"_token","type":"address","internalType":"address"},{"name":"_usdpAmount","type":"uint256","internalType":"uint256"}],"outputs":[{"name":"","type":"uint256","internalType":"uint256"}],"stateMutability":"view"},{"type":"function","name":"getSwapFeeBasisPoints","inputs":[{"name":"_tokenIn","type":"address","internalType":"address"},{"name":"_tokenOut","type":"address","internalType":"address"},{"name":"_usdpAmount","type":"uint256","internalType":"uint256"}],"outputs":[{"name":"","type":"uint256","internalType":"uint256"}],"stateMutability":"view"},{"type":"function","name":"gov","inputs":[],"outputs":[{"name":"","type":"address","internalType":"address"}],"stateMutability":"view"},{"type":"function","name":"setGov","inputs":[{"name":"_gov","type":"address","internalType":"address"}],"outputs":[],"stateMutability":"nonpayable"},{"type":"function","name":"updateCumulativeFundingRate","inputs":[{"name":"","type":"address","internalType":"address"},{"name":"","type":"address","internalType":"address"}],"outputs":[{"name":"","type":"bool","internalType":"bool"}],"stateMutability":"pure"},{"type":"function","name":"validateDecreasePosition","inputs":[{"name":"","type":"address","internalType":"address"},{"name":"","type":"address","internalType":"address"},{"name":"","type":"address","internalType":"address"},{"name":"","type":"uint256","internalType":"uint256"},{"name":"","type":"uint256","internalType":"uint256"},{"name":"","type":"bool","internalType":"bool"},{"name":"","type":"address","internalType":"address"}],"outputs":[],"stateMutability":"view"},{"type":"function","name":"validateIncreasePosition","inputs":[{"name":"","type":"address","internalType":"address"},{"name":"","type":"address","internalType":"address"},{"name":"","type":"address","internalType":"address"},{"name":"","type":"uint256","internalType":"uint256"},{"name":"","type":"bool","internalType":"bool"}],"outputs":[],"stateMutability":"view"},{"type":"function","name":"validateLiquidation","inputs":[{"name":"_account","type":"address","internalType":"address"},{"name":"_collateralToken","type":"address","internalType":"address"},{"name":"_indexToken","type":"address","internalType":"address"},{"name":"_isLong","type":"bool","internalType":"bool"},{"name":"_raise","type":"bool","internalType":"bool"}],"outputs":[{"name":"","type":"uint256","internalType":"uint256"},{"name":"","type":"uint256","internalType":"uint256"}],"stateMutability":"view"},{"type":"function","name":"vault","inputs":[],"outputs":[{"name":"","type":"address","internalType":"contract IVault"}],"stateMutability":"view"}],"bytecode":{"object":"0x608060405234801561001057600080fd5b5060405161177e38038061177e83398101604081905261002f91610062565b60008054336001600160a01b031991821617909155600180549091166001600160a01b0392909216919091179055610092565b60006020828403121561007457600080fd5b81516001600160a01b038116811461008b57600080fd5b9392505050565b6116dd806100a16000396000f3fe608060405234801561001057600080fd5b50600436106101005760003560e01c8063c7e074c311610097578063da76524c11610066578063da76524c1461021e578063fbfa77cf14610231578063fbfded6d14610244578063fdaf6ac31461026a57600080fd5b8063c7e074c3146101bd578063cfad57a2146101d0578063d54d5a9f146101e3578063da1338161461020b57600080fd5b806371ba415e116100d357806371ba415e1461016957806381d11a231461017c5780639d5c28fa14610195578063b1cc53ab146101aa57600080fd5b8063126082cf1461010557806312d43a51146101215780635b396c921461014c5780636be6026b1461015f575b600080fd5b61010e61271081565b6040519081526020015b60405180910390f35b600054610134906001600160a01b031681565b6040516001600160a01b039091168152602001610118565b61010e61015a36600461120c565b61027d565b61010e620f424081565b61010e61017736600461120c565b610382565b61019361018a366004611247565b50505050505050565b005b6101936101a33660046112c1565b5050505050565b61010e6101b8366004611323565b61047e565b61010e6101cb36600461136a565b6104f5565b6101936101de3660046113b0565b61077c565b6101f66101f13660046113cb565b61084b565b60408051928352602083019190915201610118565b61010e610219366004611428565b610c0a565b61010e61022c366004611464565b610f2b565b600154610134906001600160a01b031681565b61025a6102523660046114cc565b600192915050565b6040519015158152602001610118565b61010e6102783660046114ff565b610ff3565b60006103798383600160009054906101000a90046001600160a01b03166001600160a01b0316634d47b3046040518163ffffffff1660e01b8152600401602060405180830381865afa1580156102d7573d6000803e3d6000fd5b505050506040513d601f19601f820116820180604052508101906102fb919061155d565b600160009054906101000a90046001600160a01b03166001600160a01b0316637a210a2b6040518163ffffffff1660e01b8152600401602060405180830381865afa15801561034e573d6000803e3d6000fd5b505050506040513d601f19601f82011682018060405250810190610372919061155d565b60006104f5565b90505b92915050565b60006103798383600160009054906101000a90046001600160a01b03166001600160a01b0316634d47b3046040518163ffffffff1660e01b8152600401602060405180830381865afa1580156103dc573d6000803e3d6000fd5b505050506040513d601f19601f82011682018060405250810190610400919061155d565b600160009054906101000a90046001600160a01b03166001600160a01b0316637a210a2b6040518163ffffffff1660e01b8152600401602060405180830381865afa158015610453573d6000803e3d6000fd5b505050506040513d601f19601f82011682018060405250810190610477919061155d565b60016104f5565b60015460405163c65bc7b160e01b81526001600160a01b038581166004830152600092169063c65bc7b190602401602060405180830381865afa1580156104c9573d6000803e3d6000fd5b505050506040513d601f19601f820116820180604052508101906104ed919061155d565b949350505050565b60015460408051639f392eb360e01b815290516000926001600160a01b031691639f392eb39160048083019260209291908290030181865afa15801561053f573d6000803e3d6000fd5b505050506040513d601f19601f820116820180604052508101906105639190611576565b61056e575082610773565b60015460405163345a947960e11b81526001600160a01b03888116600483015260009216906368b528f290602401602060405180830381865afa1580156105b9573d6000803e3d6000fd5b505050506040513d601f19601f820116820180604052508101906105dd919061155d565b905060006105eb87836115b0565b90508361060e578187116106085761060387836115c3565b61060b565b60005b90505b600154604051635385b2d560e01b81526001600160a01b038a811660048301526000921690635385b2d590602401602060405180830381865afa158015610659573d6000803e3d6000fd5b505050506040513d601f19601f8201168201806040525081019061067d919061155d565b90508060000361069257869350505050610773565b60008184116106aa576106a584836115c3565b6106b4565b6106b482856115c3565b905060008284116106ce576106c984846115c3565b6106d8565b6106d883856115c3565b905081811015610721576000836106ef848b6115d6565b6106f991906115ed565b90508981116107115761070c818b6115c3565b610714565b60005b9650505050505050610773565b6000600261072f83856115b0565b61073991906115ed565b9050838111156107465750825b600084610753838c6115d6565b61075d91906115ed565b9050610769818c6115b0565b9750505050505050505b95945050505050565b6000546001600160a01b031633146107d35760405162461bcd60e51b815260206004820152601560248201527423b7bb32b93730b136329d103337b93134b23232b760591b60448201526064015b60405180910390fd5b6001600160a01b0381166108295760405162461bcd60e51b815260206004820181905260248201527f476f7665726e61626c653a205f676f76206973207a65726f206164647265737360448201526064016107ca565b600080546001600160a01b0319166001600160a01b0392909216919091179055565b600080600061085c888888886110b8565b600154815160408084015160c08501519151635c07eaab60e01b81526001600160a01b038c811660048301526024820194909452604481019190915289151560648201526084810191909152929350169060009081908390635c07eaab9060a4016040805180830381865afa1580156108d9573d6000803e3d6000fd5b505050506040513d601f19601f820116820180604052508101906108fd919061160f565b9150915060006109198c8c8c8c89600001518a60600151610f2b565b905061092c8c8c8c8c8960000151610ff3565b61093690826115b0565b9050821580156109495750818560200151105b156109ac57871561099c5760405162461bcd60e51b815260206004820152601f60248201527f5661756c743a206c6f737365732065786365656420636f6c6c61746572616c0060448201526064016107ca565b600196509450610c009350505050565b6020850151836109c9578286602001516109c691906115c3565b90505b81811015610a30578815610a1f5760405162461bcd60e51b815260206004820152601d60248201527f5661756c743a20666565732065786365656420636f6c6c61746572616c00000060448201526064016107ca565b600197509550610c00945050505050565b846001600160a01b031663174d26946040518163ffffffff1660e01b8152600401602060405180830381865afa158015610a6e573d6000803e3d6000fd5b505050506040513d601f19601f82011682018060405250810190610a92919061155d565b610a9c90836115b0565b811015610b14578815610b035760405162461bcd60e51b815260206004820152602960248201527f5661756c743a206c69717569646174696f6e20666565732065786365656420636044820152681bdb1b185d195c985b60ba1b60648201526084016107ca565b50600196509450610c009350505050565b8551610b2390612710906115d6565b856001600160a01b031663ae3302c26040518163ffffffff1660e01b8152600401602060405180830381865afa158015610b61573d6000803e3d6000fd5b505050506040513d601f19601f82011682018060405250810190610b85919061155d565b610b8f90836115d6565b1015610bf4578815610be35760405162461bcd60e51b815260206004820152601b60248201527f5661756c743a206d61784c65766572616765206578636565646564000000000060448201526064016107ca565b50600296509450610c009350505050565b50600096509450505050505b9550959350505050565b6001546040516342b60b0360e01b81526001600160a01b03858116600483015260009283929116906342b60b0390602401602060405180830381865afa158015610c58573d6000803e3d6000fd5b505050506040513d601f19601f82011682018060405250810190610c7c9190611576565b8015610cf157506001546040516342b60b0360e01b81526001600160a01b038681166004830152909116906342b60b0390602401602060405180830381865afa158015610ccd573d6000803e3d6000fd5b505050506040513d601f19601f82011682018060405250810190610cf19190611576565b9050600081610d7657600160009054906101000a90046001600160a01b03166001600160a01b031663a22f23926040518163ffffffff1660e01b8152600401602060405180830381865afa158015610d4d573d6000803e3d6000fd5b505050506040513d601f19601f82011682018060405250810190610d71919061155d565b610ded565b600160009054906101000a90046001600160a01b03166001600160a01b031663df73a2676040518163ffffffff1660e01b8152600401602060405180830381865afa158015610dc9573d6000803e3d6000fd5b505050506040513d601f19601f82011682018060405250810190610ded919061155d565b9050600082610e7257600160009054906101000a90046001600160a01b03166001600160a01b0316637a210a2b6040518163ffffffff1660e01b8152600401602060405180830381865afa158015610e49573d6000803e3d6000fd5b505050506040513d601f19601f82011682018060405250810190610e6d919061155d565b610ee9565b600160009054906101000a90046001600160a01b03166001600160a01b03166310eb56c26040518163ffffffff1660e01b8152600401602060405180830381865afa158015610ec5573d6000803e3d6000fd5b505050506040513d601f19601f82011682018060405250810190610ee9919061155d565b90506000610efb8887858560016104f5565b90506000610f0d8888868660006104f5565b9050808211610f1c5780610f1e565b815b9998505050505050505050565b600082600003610f3d57506000610fe9565b60015460405163c65bc7b160e01b81526001600160a01b038881166004830152600092859291169063c65bc7b190602401602060405180830381865afa158015610f8b573d6000803e3d6000fd5b505050506040513d601f19601f82011682018060405250810190610faf919061155d565b610fb991906115c3565b905080600003610fcd576000915050610fe9565b620f4240610fdb82866115d6565b610fe591906115ed565b9150505b9695505050505050565b60008160000361100557506000610773565b6000612710600160009054906101000a90046001600160a01b03166001600160a01b031663318bc6896040518163ffffffff1660e01b8152600401602060405180830381865afa15801561105d573d6000803e3d6000fd5b505050506040513d601f19601f82011682018060405250810190611081919061155d565b61108d906127106115c3565b61109790856115d6565b6110a191906115ed565b90506110ad81846115c3565b979650505050505050565b6110f86040518060e00160405280600081526020016000815260200160008152602001600081526020016000815260200160008152602001600081525090565b6001546040805160e081018252600080825260208201819052818301819052606082018190526080820181905260a0820181905260c082018190529151634a3f088d60e01b81526001600160a01b0389811660048301528881166024830152878116604483015286151560648301529093169290919081908190819081908790634a3f088d9060840161010060405180830381865afa15801561119f573d6000803e3d6000fd5b505050506040513d601f19601f820116820180604052508101906111c3919061163d565b968d5250505060208a01929092526040890152606088015260c087015250939a9950505050505050505050565b80356001600160a01b038116811461120757600080fd5b919050565b6000806040838503121561121f57600080fd5b611228836111f0565b946020939093013593505050565b801515811461124457600080fd5b50565b600080600080600080600060e0888a03121561126257600080fd5b61126b886111f0565b9650611279602089016111f0565b9550611287604089016111f0565b9450606088013593506080880135925060a08801356112a581611236565b91506112b360c089016111f0565b905092959891949750929550565b600080600080600060a086880312156112d957600080fd5b6112e2866111f0565b94506112f0602087016111f0565b93506112fe604087016111f0565b925060608601359150608086013561131581611236565b809150509295509295909350565b60008060006060848603121561133857600080fd5b611341846111f0565b925061134f602085016111f0565b9150604084013561135f81611236565b809150509250925092565b600080600080600060a0868803121561138257600080fd5b61138b866111f0565b9450602086013593506040860135925060608601359150608086013561131581611236565b6000602082840312156113c257600080fd5b610379826111f0565b600080600080600060a086880312156113e357600080fd5b6113ec866111f0565b94506113fa602087016111f0565b9350611408604087016111f0565b9250606086013561141881611236565b9150608086013561131581611236565b60008060006060848603121561143d57600080fd5b611446846111f0565b9250611454602085016111f0565b9150604084013590509250925092565b60008060008060008060c0878903121561147d57600080fd5b611486876111f0565b9550611494602088016111f0565b94506114a2604088016111f0565b935060608701356114b281611236565b9598949750929560808101359460a0909101359350915050565b600080604083850312156114df57600080fd5b6114e8836111f0565b91506114f6602084016111f0565b90509250929050565b600080600080600060a0868803121561151757600080fd5b611520866111f0565b945061152e602087016111f0565b935061153c604087016111f0565b9250606086013561154c81611236565b949793965091946080013592915050565b60006020828403121561156f57600080fd5b5051919050565b60006020828403121561158857600080fd5b815161159381611236565b9392505050565b634e487b7160e01b600052601160045260246000fd5b8082018082111561037c5761037c61159a565b8181038181111561037c5761037c61159a565b808202811582820484141761037c5761037c61159a565b60008261160a57634e487b7160e01b600052601260045260246000fd5b500490565b6000806040838503121561162257600080fd5b825161162d81611236565b6020939093015192949293505050565b600080600080600080600080610100898b03121561165a57600080fd5b885197506020890151965060408901519550606089015194506080890151935060a0890151925060c089015161168f81611236565b8092505060e08901519050929598509295989093965056fea26469706673582212204d23404945b88b74809dd4168a7c5a2f81d42785d748ae8c98e55f7c1bc8c4de64736f6c63430008120033","linkReferences":{}},"methodIdentifiers":{"BASIS_POINTS_DIVISOR()":"126082cf","FUNDING_RATE_PRECISION()":"6be6026b","getBuyUsdpFeeBasisPoints(address,uint256)":"71ba415e","getEntryFundingRate(address,address,bool)":"b1cc53ab","getFeeBasisPoints(address,uint256,uint256,uint256,bool)":"c7e074c3","getFundingFee(address,address,address,bool,uint256,uint256)":"da76524c","getPositionFee(address,address,address,bool,uint256)":"fdaf6ac3","getSellUsdpFeeBasisPoints(address,uint256)":"5b396c92","getSwapFeeBasisPoints(address,address,uint256)":"da133816","gov()":"12d43a51","setGov(address)":"cfad57a2","updateCumulativeFundingRate(address,address)":"fbfded6d","validateDecreasePosition(address,address,address,uint256,uint256,bool,address)":"81d11a23","validateIncreasePosition(address,address,address,uint256,bool)":"9d5c28fa","validateLiquidation(address,address,address,bool,bool)":"d54d5a9f","vault()":"fbfa77cf"},"id":41}