{
  "abi": [
    {
      "inputs": [
        {
          "internalType": "address",
          "name": "_admin",
          "type": "address"
        },
        {
          "internalType": "uint256",
          "name": "_buffer",
          "type": "uint256"
        },
        {
          "internalType": "uint256",
          "name": "_longBuffer",
          "type": "uint256"
        },
        {
          "internalType": "address",
          "name": "_rewardManager",
          "type": "address"
        },
        {
          "internalType": "address",
          "name": "_tokenManager",
          "type": "address"
        },
        {
          "internalType": "address",
          "name": "_mintReceiver",
          "type": "address"
        },
        {
          "internalType": "uint256",
          "name": "_maxTokenSupply",
          "type": "uint256"
        }
      ],
      "stateMutability": "nonpayable",
      "type": "constructor"
    },
    {
      "anonymous": false,
      "inputs": [
        {
          "indexed": false,
          "internalType": "bytes32",
          "name": "action",
          "type": "bytes32"
        }
      ],
      "name": "ClearAction",
      "type": "event"
    },
    {
      "anonymous": false,
      "inputs": [
        {
          "indexed": false,
          "internalType": "address",
          "name": "router",
          "type": "address"
        },
        {
          "indexed": false,
          "internalType": "address",
          "name": "plugin",
          "type": "address"
        },
        {
          "indexed": false,
          "internalType": "bytes32",
          "name": "action",
          "type": "bytes32"
        }
      ],
      "name": "SignalAddPlugin",
      "type": "event"
    },
    {
      "anonymous": false,
      "inputs": [
        {
          "indexed": false,
          "internalType": "address",
          "name": "token",
          "type": "address"
        },
        {
          "indexed": false,
          "internalType": "address",
          "name": "spender",
          "type": "address"
        },
        {
          "indexed": false,
          "internalType": "uint256",
          "name": "amount",
          "type": "uint256"
        },
        {
          "indexed": false,
          "internalType": "bytes32",
          "name": "action",
          "type": "bytes32"
        }
      ],
      "name": "SignalApprove",
      "type": "event"
    },
    {
      "anonymous": false,
      "inputs": [
        {
          "indexed": false,
          "internalType": "address",
          "name": "token",
          "type": "address"
        },
        {
          "indexed": false,
          "internalType": "address",
          "name": "receiver",
          "type": "address"
        },
        {
          "indexed": false,
          "internalType": "uint256",
          "name": "amount",
          "type": "uint256"
        },
        {
          "indexed": false,
          "internalType": "bytes32",
          "name": "action",
          "type": "bytes32"
        }
      ],
      "name": "SignalMint",
      "type": "event"
    },
    {
      "anonymous": false,
      "inputs": [
        {
          "indexed": false,
          "internalType": "bytes32",
          "name": "action",
          "type": "bytes32"
        }
      ],
      "name": "SignalPendingAction",
      "type": "event"
    },
    {
      "anonymous": false,
      "inputs": [
        {
          "indexed": false,
          "internalType": "address",
          "name": "vaultPriceFeed",
          "type": "address"
        },
        {
          "indexed": false,
          "internalType": "address",
          "name": "token",
          "type": "address"
        },
        {
          "indexed": false,
          "internalType": "address",
          "name": "priceFeed",
          "type": "address"
        },
        {
          "indexed": false,
          "internalType": "uint256",
          "name": "priceDecimals",
          "type": "uint256"
        },
        {
          "indexed": false,
          "internalType": "bool",
          "name": "isStrictStable",
          "type": "bool"
        }
      ],
      "name": "SignalPriceFeedSetTokenConfig",
      "type": "event"
    },
    {
      "anonymous": false,
      "inputs": [
        {
          "indexed": false,
          "internalType": "address",
          "name": "vault",
          "type": "address"
        },
        {
          "indexed": false,
          "internalType": "address",
          "name": "token",
          "type": "address"
        },
        {
          "indexed": false,
          "internalType": "uint256",
          "name": "amount",
          "type": "uint256"
        }
      ],
      "name": "SignalRedeemUsdg",
      "type": "event"
    },
    {
      "anonymous": false,
      "inputs": [
        {
          "indexed": false,
          "internalType": "address",
          "name": "target",
          "type": "address"
        },
        {
          "indexed": false,
          "internalType": "address",
          "name": "gov",
          "type": "address"
        },
        {
          "indexed": false,
          "internalType": "bytes32",
          "name": "action",
          "type": "bytes32"
        }
      ],
      "name": "SignalSetGov",
      "type": "event"
    },
    {
      "anonymous": false,
      "inputs": [
        {
          "indexed": false,
          "internalType": "address",
          "name": "vault",
          "type": "address"
        },
        {
          "indexed": false,
          "internalType": "address",
          "name": "priceFeed",
          "type": "address"
        },
        {
          "indexed": false,
          "internalType": "bytes32",
          "name": "action",
          "type": "bytes32"
        }
      ],
      "name": "SignalSetPriceFeed",
      "type": "event"
    },
    {
      "anonymous": false,
      "inputs": [
        {
          "indexed": false,
          "internalType": "address",
          "name": "vault",
          "type": "address"
        },
        {
          "indexed": false,
          "internalType": "address",
          "name": "token",
          "type": "address"
        },
        {
          "indexed": false,
          "internalType": "uint256",
          "name": "tokenDecimals",
          "type": "uint256"
        },
        {
          "indexed": false,
          "internalType": "uint256",
          "name": "tokenWeight",
          "type": "uint256"
        },
        {
          "indexed": false,
          "internalType": "uint256",
          "name": "minProfitBps",
          "type": "uint256"
        },
        {
          "indexed": false,
          "internalType": "uint256",
          "name": "maxUsdgAmount",
          "type": "uint256"
        },
        {
          "indexed": false,
          "internalType": "bool",
          "name": "isStable",
          "type": "bool"
        },
        {
          "indexed": false,
          "internalType": "bool",
          "name": "isShortable",
          "type": "bool"
        }
      ],
      "name": "SignalVaultSetTokenConfig",
      "type": "event"
    },
    {
      "anonymous": false,
      "inputs": [
        {
          "indexed": false,
          "internalType": "address",
          "name": "target",
          "type": "address"
        },
        {
          "indexed": false,
          "internalType": "address",
          "name": "token",
          "type": "address"
        },
        {
          "indexed": false,
          "internalType": "address",
          "name": "receiver",
          "type": "address"
        },
        {
          "indexed": false,
          "internalType": "uint256",
          "name": "amount",
          "type": "uint256"
        },
        {
          "indexed": false,
          "internalType": "bytes32",
          "name": "action",
          "type": "bytes32"
        }
      ],
      "name": "SignalWithdrawToken",
      "type": "event"
    },
    {
      "inputs": [],
      "name": "MAX_BUFFER",
      "outputs": [
        {
          "internalType": "uint256",
          "name": "",
          "type": "uint256"
        }
      ],
      "stateMutability": "view",
      "type": "function"
    },
    {
      "inputs": [],
      "name": "MAX_FEE_BASIS_POINTS",
      "outputs": [
        {
          "internalType": "uint256",
          "name": "",
          "type": "uint256"
        }
      ],
      "stateMutability": "view",
      "type": "function"
    },
    {
      "inputs": [],
      "name": "MAX_FUNDING_RATE_FACTOR",
      "outputs": [
        {
          "internalType": "uint256",
          "name": "",
          "type": "uint256"
        }
      ],
      "stateMutability": "view",
      "type": "function"
    },
    {
      "inputs": [],
      "name": "MAX_LEVERAGE_VALIDATION",
      "outputs": [
        {
          "internalType": "uint256",
          "name": "",
          "type": "uint256"
        }
      ],
      "stateMutability": "view",
      "type": "function"
    },
    {
      "inputs": [],
      "name": "PRICE_PRECISION",
      "outputs": [
        {
          "internalType": "uint256",
          "name": "",
          "type": "uint256"
        }
      ],
      "stateMutability": "view",
      "type": "function"
    },
    {
      "inputs": [
        {
          "internalType": "address",
          "name": "_token",
          "type": "address"
        }
      ],
      "name": "addExcludedToken",
      "outputs": [],
      "stateMutability": "nonpayable",
      "type": "function"
    },
    {
      "inputs": [
        {
          "internalType": "address",
          "name": "_router",
          "type": "address"
        },
        {
          "internalType": "address",
          "name": "_plugin",
          "type": "address"
        }
      ],
      "name": "addPlugin",
      "outputs": [],
      "stateMutability": "nonpayable",
      "type": "function"
    },
    {
      "inputs": [],
      "name": "admin",
      "outputs": [
        {
          "internalType": "address",
          "name": "",
          "type": "address"
        }
      ],
      "stateMutability": "view",
      "type": "function"
    },
    {
      "inputs": [
        {
          "internalType": "address",
          "name": "_token",
          "type": "address"
        },
        {
          "internalType": "address",
          "name": "_spender",
          "type": "address"
        },
        {
          "internalType": "uint256",
          "name": "_amount",
          "type": "uint256"
        }
      ],
      "name": "approve",
      "outputs": [],
      "stateMutability": "nonpayable",
      "type": "function"
    },
    {
      "inputs": [],
      "name": "buffer",
      "outputs": [
        {
          "internalType": "uint256",
          "name": "",
          "type": "uint256"
        }
      ],
      "stateMutability": "view",
      "type": "function"
    },
    {
      "inputs": [
        {
          "internalType": "bytes32",
          "name": "_action",
          "type": "bytes32"
        }
      ],
      "name": "cancelAction",
      "outputs": [],
      "stateMutability": "nonpayable",
      "type": "function"
    },
    {
      "inputs": [
        {
          "internalType": "address",
          "name": "",
          "type": "address"
        }
      ],
      "name": "excludedTokens",
      "outputs": [
        {
          "internalType": "bool",
          "name": "",
          "type": "bool"
        }
      ],
      "stateMutability": "view",
      "type": "function"
    },
    {
      "inputs": [
        {
          "internalType": "address",
          "name": "",
          "type": "address"
        }
      ],
      "name": "isHandler",
      "outputs": [
        {
          "internalType": "bool",
          "name": "",
          "type": "bool"
        }
      ],
      "stateMutability": "view",
      "type": "function"
    },
    {
      "inputs": [],
      "name": "longBuffer",
      "outputs": [
        {
          "internalType": "uint256",
          "name": "",
          "type": "uint256"
        }
      ],
      "stateMutability": "view",
      "type": "function"
    },
    {
      "inputs": [],
      "name": "maxTokenSupply",
      "outputs": [
        {
          "internalType": "uint256",
          "name": "",
          "type": "uint256"
        }
      ],
      "stateMutability": "view",
      "type": "function"
    },
    {
      "inputs": [],
      "name": "mintReceiver",
      "outputs": [
        {
          "internalType": "address",
          "name": "",
          "type": "address"
        }
      ],
      "stateMutability": "view",
      "type": "function"
    },
    {
      "inputs": [
        {
          "internalType": "bytes32",
          "name": "",
          "type": "bytes32"
        }
      ],
      "name": "pendingActions",
      "outputs": [
        {
          "internalType": "uint256",
          "name": "",
          "type": "uint256"
        }
      ],
      "stateMutability": "view",
      "type": "function"
    },
    {
      "inputs": [
        {
          "internalType": "address",
          "name": "_vaultPriceFeed",
          "type": "address"
        },
        {
          "internalType": "address",
          "name": "_token",
          "type": "address"
        },
        {
          "internalType": "address",
          "name": "_priceFeed",
          "type": "address"
        },
        {
          "internalType": "uint256",
          "name": "_priceDecimals",
          "type": "uint256"
        },
        {
          "internalType": "bool",
          "name": "_isStrictStable",
          "type": "bool"
        }
      ],
      "name": "priceFeedSetTokenConfig",
      "outputs": [],
      "stateMutability": "nonpayable",
      "type": "function"
    },
    {
      "inputs": [
        {
          "internalType": "address",
          "name": "_token",
          "type": "address"
        },
        {
          "internalType": "address",
          "name": "_receiver",
          "type": "address"
        },
        {
          "internalType": "uint256",
          "name": "_amount",
          "type": "uint256"
        }
      ],
      "name": "processMint",
      "outputs": [],
      "stateMutability": "nonpayable",
      "type": "function"
    },
    {
      "inputs": [
        {
          "internalType": "address",
          "name": "_vault",
          "type": "address"
        },
        {
          "internalType": "address",
          "name": "_token",
          "type": "address"
        },
        {
          "internalType": "uint256",
          "name": "_amount",
          "type": "uint256"
        }
      ],
      "name": "redeemUsdg",
      "outputs": [],
      "stateMutability": "nonpayable",
      "type": "function"
    },
    {
      "inputs": [
        {
          "internalType": "address",
          "name": "_token",
          "type": "address"
        },
        {
          "internalType": "address",
          "name": "_account",
          "type": "address"
        }
      ],
      "name": "removeAdmin",
      "outputs": [],
      "stateMutability": "nonpayable",
      "type": "function"
    },
    {
      "inputs": [],
      "name": "rewardManager",
      "outputs": [
        {
          "internalType": "address",
          "name": "",
          "type": "address"
        }
      ],
      "stateMutability": "view",
      "type": "function"
    },
    {
      "inputs": [
        {
          "internalType": "address",
          "name": "_priceFeed",
          "type": "address"
        },
        {
          "internalType": "address",
          "name": "_token",
          "type": "address"
        },
        {
          "internalType": "bool",
          "name": "_isAdditive",
          "type": "bool"
        },
        {
          "internalType": "uint256",
          "name": "_adjustmentBps",
          "type": "uint256"
        }
      ],
      "name": "setAdjustment",
      "outputs": [],
      "stateMutability": "nonpayable",
      "type": "function"
    },
    {
      "inputs": [
        {
          "internalType": "address",
          "name": "_admin",
          "type": "address"
        }
      ],
      "name": "setAdmin",
      "outputs": [],
      "stateMutability": "nonpayable",
      "type": "function"
    },
    {
      "inputs": [
        {
          "internalType": "uint256",
          "name": "_buffer",
          "type": "uint256"
        }
      ],
      "name": "setBuffer",
      "outputs": [],
      "stateMutability": "nonpayable",
      "type": "function"
    },
    {
      "inputs": [
        {
          "internalType": "address",
          "name": "_handler",
          "type": "address"
        },
        {
          "internalType": "bool",
          "name": "_isActive",
          "type": "bool"
        }
      ],
      "name": "setContractHandler",
      "outputs": [],
      "stateMutability": "nonpayable",
      "type": "function"
    },
    {
      "inputs": [
        {
          "internalType": "address",
          "name": "_target",
          "type": "address"
        },
        {
          "internalType": "address",
          "name": "_admin",
          "type": "address"
        }
      ],
      "name": "setExternalAdmin",
      "outputs": [],
      "stateMutability": "nonpayable",
      "type": "function"
    },
    {
      "inputs": [
        {
          "internalType": "address",
          "name": "_priceFeed",
          "type": "address"
        },
        {
          "internalType": "bool",
          "name": "_favorPrimaryPrice",
          "type": "bool"
        }
      ],
      "name": "setFavorPrimaryPrice",
      "outputs": [],
      "stateMutability": "nonpayable",
      "type": "function"
    },
    {
      "inputs": [
        {
          "internalType": "address",
          "name": "_vault",
          "type": "address"
        },
        {
          "internalType": "uint256",
          "name": "_taxBasisPoints",
          "type": "uint256"
        },
        {
          "internalType": "uint256",
          "name": "_stableTaxBasisPoints",
          "type": "uint256"
        },
        {
          "internalType": "uint256",
          "name": "_mintBurnFeeBasisPoints",
          "type": "uint256"
        },
        {
          "internalType": "uint256",
          "name": "_swapFeeBasisPoints",
          "type": "uint256"
        },
        {
          "internalType": "uint256",
          "name": "_stableSwapFeeBasisPoints",
          "type": "uint256"
        },
        {
          "internalType": "uint256",
          "name": "_marginFeeBasisPoints",
          "type": "uint256"
        },
        {
          "internalType": "uint256",
          "name": "_liquidationFeeUsd",
          "type": "uint256"
        },
        {
          "internalType": "uint256",
          "name": "_minProfitTime",
          "type": "uint256"
        },
        {
          "internalType": "bool",
          "name": "_hasDynamicFees",
          "type": "bool"
        }
      ],
      "name": "setFees",
      "outputs": [],
      "stateMutability": "nonpayable",
      "type": "function"
    },
    {
      "inputs": [
        {
          "internalType": "address",
          "name": "_vault",
          "type": "address"
        },
        {
          "internalType": "uint256",
          "name": "_fundingInterval",
          "type": "uint256"
        },
        {
          "internalType": "uint256",
          "name": "_fundingRateFactor",
          "type": "uint256"
        },
        {
          "internalType": "uint256",
          "name": "_stableFundingRateFactor",
          "type": "uint256"
        }
      ],
      "name": "setFundingRate",
      "outputs": [],
      "stateMutability": "nonpayable",
      "type": "function"
    },
    {
      "inputs": [
        {
          "internalType": "address",
          "name": "_target",
          "type": "address"
        },
        {
          "internalType": "address",
          "name": "_gov",
          "type": "address"
        }
      ],
      "name": "setGov",
      "outputs": [],
      "stateMutability": "nonpayable",
      "type": "function"
    },
    {
      "inputs": [
        {
          "internalType": "address",
          "name": "_vault",
          "type": "address"
        },
        {
          "internalType": "bool",
          "name": "_inPrivateLiquidationMode",
          "type": "bool"
        }
      ],
      "name": "setInPrivateLiquidationMode",
      "outputs": [],
      "stateMutability": "nonpayable",
      "type": "function"
    },
    {
      "inputs": [
        {
          "internalType": "address",
          "name": "_token",
          "type": "address"
        },
        {
          "internalType": "bool",
          "name": "_inPrivateTransferMode",
          "type": "bool"
        }
      ],
      "name": "setInPrivateTransferMode",
      "outputs": [],
      "stateMutability": "nonpayable",
      "type": "function"
    },
    {
      "inputs": [
        {
          "internalType": "address",
          "name": "_priceFeed",
          "type": "address"
        },
        {
          "internalType": "bool",
          "name": "_isEnabled",
          "type": "bool"
        }
      ],
      "name": "setIsAmmEnabled",
      "outputs": [],
      "stateMutability": "nonpayable",
      "type": "function"
    },
    {
      "inputs": [
        {
          "internalType": "address",
          "name": "_vault",
          "type": "address"
        },
        {
          "internalType": "bool",
          "name": "_isLeverageEnabled",
          "type": "bool"
        }
      ],
      "name": "setIsLeverageEnabled",
      "outputs": [],
      "stateMutability": "nonpayable",
      "type": "function"
    },
    {
      "inputs": [
        {
          "internalType": "address",
          "name": "_priceFeed",
          "type": "address"
        },
        {
          "internalType": "bool",
          "name": "_isEnabled",
          "type": "bool"
        }
      ],
      "name": "setIsSecondaryPriceEnabled",
      "outputs": [],
      "stateMutability": "nonpayable",
      "type": "function"
    },
    {
      "inputs": [
        {
          "internalType": "address",
          "name": "_vault",
          "type": "address"
        },
        {
          "internalType": "bool",
          "name": "_isSwapEnabled",
          "type": "bool"
        }
      ],
      "name": "setIsSwapEnabled",
      "outputs": [],
      "stateMutability": "nonpayable",
      "type": "function"
    },
    {
      "inputs": [
        {
          "internalType": "address",
          "name": "_vault",
          "type": "address"
        },
        {
          "internalType": "address",
          "name": "_liquidator",
          "type": "address"
        },
        {
          "internalType": "bool",
          "name": "_isActive",
          "type": "bool"
        }
      ],
      "name": "setLiquidator",
      "outputs": [],
      "stateMutability": "nonpayable",
      "type": "function"
    },
    {
      "inputs": [
        {
          "internalType": "address",
          "name": "_vault",
          "type": "address"
        },
        {
          "internalType": "uint256",
          "name": "_maxGasPrice",
          "type": "uint256"
        }
      ],
      "name": "setMaxGasPrice",
      "outputs": [],
      "stateMutability": "nonpayable",
      "type": "function"
    },
    {
      "inputs": [
        {
          "internalType": "address",
          "name": "_vault",
          "type": "address"
        },
        {
          "internalType": "address",
          "name": "_token",
          "type": "address"
        },
        {
          "internalType": "uint256",
          "name": "_amount",
          "type": "uint256"
        }
      ],
      "name": "setMaxGlobalShortSize",
      "outputs": [],
      "stateMutability": "nonpayable",
      "type": "function"
    },
    {
      "inputs": [
        {
          "internalType": "address",
          "name": "_vault",
          "type": "address"
        },
        {
          "internalType": "uint256",
          "name": "_maxLeverage",
          "type": "uint256"
        }
      ],
      "name": "setMaxLeverage",
      "outputs": [],
      "stateMutability": "nonpayable",
      "type": "function"
    },
    {
      "inputs": [
        {
          "internalType": "address",
          "name": "_priceFeed",
          "type": "address"
        },
        {
          "internalType": "uint256",
          "name": "_maxStrictPriceDeviation",
          "type": "uint256"
        }
      ],
      "name": "setMaxStrictPriceDeviation",
      "outputs": [],
      "stateMutability": "nonpayable",
      "type": "function"
    },
    {
      "inputs": [
        {
          "internalType": "address",
          "name": "_vault",
          "type": "address"
        },
        {
          "internalType": "address",
          "name": "_priceFeed",
          "type": "address"
        }
      ],
      "name": "setPriceFeed",
      "outputs": [],
      "stateMutability": "nonpayable",
      "type": "function"
    },
    {
      "inputs": [
        {
          "internalType": "address",
          "name": "_priceFeed",
          "type": "address"
        },
        {
          "internalType": "uint256",
          "name": "_priceSampleSpace",
          "type": "uint256"
        }
      ],
      "name": "setPriceSampleSpace",
      "outputs": [],
      "stateMutability": "nonpayable",
      "type": "function"
    },
    {
      "inputs": [
        {
          "internalType": "address",
          "name": "_priceFeed",
          "type": "address"
        },
        {
          "internalType": "address",
          "name": "_token",
          "type": "address"
        },
        {
          "internalType": "uint256",
          "name": "_spreadBasisPoints",
          "type": "uint256"
        }
      ],
      "name": "setSpreadBasisPoints",
      "outputs": [],
      "stateMutability": "nonpayable",
      "type": "function"
    },
    {
      "inputs": [
        {
          "internalType": "address",
          "name": "_priceFeed",
          "type": "address"
        },
        {
          "internalType": "uint256",
          "name": "_spreadThresholdBasisPoints",
          "type": "uint256"
        }
      ],
      "name": "setSpreadThresholdBasisPoints",
      "outputs": [],
      "stateMutability": "nonpayable",
      "type": "function"
    },
    {
      "inputs": [
        {
          "internalType": "address",
          "name": "_vault",
          "type": "address"
        },
        {
          "internalType": "address",
          "name": "_token",
          "type": "address"
        },
        {
          "internalType": "uint256",
          "name": "_tokenWeight",
          "type": "uint256"
        },
        {
          "internalType": "uint256",
          "name": "_minProfitBps",
          "type": "uint256"
        },
        {
          "internalType": "uint256",
          "name": "_maxUsdgAmount",
          "type": "uint256"
        },
        {
          "internalType": "uint256",
          "name": "_bufferAmount",
          "type": "uint256"
        },
        {
          "internalType": "uint256",
          "name": "_usdgAmount",
          "type": "uint256"
        }
      ],
      "name": "setTokenConfig",
      "outputs": [],
      "stateMutability": "nonpayable",
      "type": "function"
    },
    {
      "inputs": [
        {
          "internalType": "address",
          "name": "_priceFeed",
          "type": "address"
        },
        {
          "internalType": "bool",
          "name": "_useV2Pricing",
          "type": "bool"
        }
      ],
      "name": "setUseV2Pricing",
      "outputs": [],
      "stateMutability": "nonpayable",
      "type": "function"
    },
    {
      "inputs": [
        {
          "internalType": "address",
          "name": "_vault",
          "type": "address"
        },
        {
          "internalType": "contract IVaultUtils",
          "name": "_vaultUtils",
          "type": "address"
        }
      ],
      "name": "setVaultUtils",
      "outputs": [],
      "stateMutability": "nonpayable",
      "type": "function"
    },
    {
      "inputs": [
        {
          "internalType": "address",
          "name": "_router",
          "type": "address"
        },
        {
          "internalType": "address",
          "name": "_plugin",
          "type": "address"
        }
      ],
      "name": "signalAddPlugin",
      "outputs": [],
      "stateMutability": "nonpayable",
      "type": "function"
    },
    {
      "inputs": [
        {
          "internalType": "address",
          "name": "_token",
          "type": "address"
        },
        {
          "internalType": "address",
          "name": "_spender",
          "type": "address"
        },
        {
          "internalType": "uint256",
          "name": "_amount",
          "type": "uint256"
        }
      ],
      "name": "signalApprove",
      "outputs": [],
      "stateMutability": "nonpayable",
      "type": "function"
    },
    {
      "inputs": [
        {
          "internalType": "address",
          "name": "_token",
          "type": "address"
        },
        {
          "internalType": "address",
          "name": "_receiver",
          "type": "address"
        },
        {
          "internalType": "uint256",
          "name": "_amount",
          "type": "uint256"
        }
      ],
      "name": "signalMint",
      "outputs": [],
      "stateMutability": "nonpayable",
      "type": "function"
    },
    {
      "inputs": [
        {
          "internalType": "address",
          "name": "_vaultPriceFeed",
          "type": "address"
        },
        {
          "internalType": "address",
          "name": "_token",
          "type": "address"
        },
        {
          "internalType": "address",
          "name": "_priceFeed",
          "type": "address"
        },
        {
          "internalType": "uint256",
          "name": "_priceDecimals",
          "type": "uint256"
        },
        {
          "internalType": "bool",
          "name": "_isStrictStable",
          "type": "bool"
        }
      ],
      "name": "signalPriceFeedSetTokenConfig",
      "outputs": [],
      "stateMutability": "nonpayable",
      "type": "function"
    },
    {
      "inputs": [
        {
          "internalType": "address",
          "name": "_vault",
          "type": "address"
        },
        {
          "internalType": "address",
          "name": "_token",
          "type": "address"
        },
        {
          "internalType": "uint256",
          "name": "_amount",
          "type": "uint256"
        }
      ],
      "name": "signalRedeemUsdg",
      "outputs": [],
      "stateMutability": "nonpayable",
      "type": "function"
    },
    {
      "inputs": [
        {
          "internalType": "address",
          "name": "_target",
          "type": "address"
        },
        {
          "internalType": "address",
          "name": "_gov",
          "type": "address"
        }
      ],
      "name": "signalSetGov",
      "outputs": [],
      "stateMutability": "nonpayable",
      "type": "function"
    },
    {
      "inputs": [
        {
          "internalType": "address",
          "name": "_vault",
          "type": "address"
        },
        {
          "internalType": "address",
          "name": "_priceFeed",
          "type": "address"
        }
      ],
      "name": "signalSetPriceFeed",
      "outputs": [],
      "stateMutability": "nonpayable",
      "type": "function"
    },
    {
      "inputs": [
        {
          "internalType": "address",
          "name": "_vault",
          "type": "address"
        },
        {
          "internalType": "address",
          "name": "_token",
          "type": "address"
        },
        {
          "internalType": "uint256",
          "name": "_tokenDecimals",
          "type": "uint256"
        },
        {
          "internalType": "uint256",
          "name": "_tokenWeight",
          "type": "uint256"
        },
        {
          "internalType": "uint256",
          "name": "_minProfitBps",
          "type": "uint256"
        },
        {
          "internalType": "uint256",
          "name": "_maxUsdgAmount",
          "type": "uint256"
        },
        {
          "internalType": "bool",
          "name": "_isStable",
          "type": "bool"
        },
        {
          "internalType": "bool",
          "name": "_isShortable",
          "type": "bool"
        }
      ],
      "name": "signalVaultSetTokenConfig",
      "outputs": [],
      "stateMutability": "nonpayable",
      "type": "function"
    },
    {
      "inputs": [
        {
          "internalType": "address",
          "name": "_target",
          "type": "address"
        },
        {
          "internalType": "address",
          "name": "_token",
          "type": "address"
        },
        {
          "internalType": "address",
          "name": "_receiver",
          "type": "address"
        },
        {
          "internalType": "uint256",
          "name": "_amount",
          "type": "uint256"
        }
      ],
      "name": "signalWithdrawToken",
      "outputs": [],
      "stateMutability": "nonpayable",
      "type": "function"
    },
    {
      "inputs": [],
      "name": "tokenManager",
      "outputs": [
        {
          "internalType": "address",
          "name": "",
          "type": "address"
        }
      ],
      "stateMutability": "view",
      "type": "function"
    },
    {
      "inputs": [
        {
          "internalType": "address",
          "name": "_sender",
          "type": "address"
        },
        {
          "internalType": "address",
          "name": "_token",
          "type": "address"
        },
        {
          "internalType": "uint256",
          "name": "_amount",
          "type": "uint256"
        }
      ],
      "name": "transferIn",
      "outputs": [],
      "stateMutability": "nonpayable",
      "type": "function"
    },
    {
      "inputs": [
        {
          "internalType": "address",
          "name": "_vault",
          "type": "address"
        },
        {
          "internalType": "address",
          "name": "_token",
          "type": "address"
        },
        {
          "internalType": "uint256",
          "name": "_tokenDecimals",
          "type": "uint256"
        },
        {
          "internalType": "uint256",
          "name": "_tokenWeight",
          "type": "uint256"
        },
        {
          "internalType": "uint256",
          "name": "_minProfitBps",
          "type": "uint256"
        },
        {
          "internalType": "uint256",
          "name": "_maxUsdgAmount",
          "type": "uint256"
        },
        {
          "internalType": "bool",
          "name": "_isStable",
          "type": "bool"
        },
        {
          "internalType": "bool",
          "name": "_isShortable",
          "type": "bool"
        }
      ],
      "name": "vaultSetTokenConfig",
      "outputs": [],
      "stateMutability": "nonpayable",
      "type": "function"
    },
    {
      "inputs": [
        {
          "internalType": "address",
          "name": "_vault",
          "type": "address"
        },
        {
          "internalType": "address",
          "name": "_token",
          "type": "address"
        },
        {
          "internalType": "address",
          "name": "_receiver",
          "type": "address"
        }
      ],
      "name": "withdrawFees",
      "outputs": [],
      "stateMutability": "nonpayable",
      "type": "function"
    },
    {
      "inputs": [
        {
          "internalType": "address",
          "name": "_target",
          "type": "address"
        },
        {
          "internalType": "address",
          "name": "_token",
          "type": "address"
        },
        {
          "internalType": "address",
          "name": "_receiver",
          "type": "address"
        },
        {
          "internalType": "uint256",
          "name": "_amount",
          "type": "uint256"
        }
      ],
      "name": "withdrawToken",
      "outputs": [],
      "stateMutability": "nonpayable",
      "type": "function"
    }
  ],
  "bytecode": {
    "object": "0x60806040523480156200001157600080fd5b506040516200489c3803806200489c833981810160405260e08110156200003757600080fd5b508051602082015160408301516060840151608085015160a086015160c090960151949593949293919290919062093a80861115620000bd576040805162461bcd60e51b815260206004820152601c60248201527f476d7854696d656c6f636b3a20696e76616c6964205f62756666657200000000604482015290519081900360640190fd5b62093a8085111562000116576040805162461bcd60e51b815260206004820181905260248201527f476d7854696d656c6f636b3a20696e76616c6964205f6c6f6e67427566666572604482015290519081900360640190fd5b600280546001600160a01b039889166001600160a01b031991821617909155600096909655600194909455600480549387169386169390931790925560038054918616918516919091179055600580549190941692169190911790915560065561471680620001866000396000f3fe608060405234801561001057600080fd5b50600436106103c55760003560e01c806361d07569116101ff578063adc7ea371161011a578063df3a66d9116100ad578063e4652f491161007c578063e4652f4914610e26578063e7b0a3a114610e5c578063edaafe2014610e92578063f851a44014610e9a576103c5565b8063df3a66d914610d44578063e1f21c6714610d7a578063e30569e514610db0578063e3cbeb0f14610dcd576103c5565b8063cd2b1230116100e9578063cd2b123014610c61578063d7c2e92f14610c8f578063db1c844114610cb5578063dce6e18d14610d0e576103c5565b8063adc7ea3714610bd8578063bc476dfd14610bf5578063bc8a8ab914610c23578063c7bb26a014610c59576103c5565b80637b9fb227116101925780638bf22c46116101615780638bf22c4614610b4a57806395082d2514610b76578063996a7a1e14610b7e578063a0a316a214610bac576103c5565b80637b9fb22714610ab857806380894d6214610ae657806386803c7214610b145780638a39735a14610b42576103c5565b806370ac0a93116101ce57806370ac0a9314610a0b57806376e1128614610a41578063781cc3d314610a6f5780637b6f775a14610a8c576103c5565b806361d075691461094e57806369623ae2146109565780636e5227d414610984578063704b6c02146109e5576103c5565b80632a709b14116102ef5780634cd23f3b1161028257806355ef13951161025157806355ef1395146108c45780635843752f146108f25780635dae8841146109205780635fa7955c14610946576103c5565b80634cd23f3b1461082457806350f7c2041461086057806351a6de0d1461086857806353b6bfdd14610896576103c5565b8063454ffa46116102be578063454ffa461461077c57806346ea87af146107aa57806347de43e2146107e45780634befe2ca1461081c576103c5565b80632a709b14146106d25780632ba3725a146106da5780633335e38a146106f4578063384cae7314610738576103c5565b8063185051c111610367578063268959e511610336578063268959e51461060c5780632877f4c31461063a5780632965c8c714610666578063296b07e514610694576103c5565b8063185051c11461053c57806321754d9e1461056a57806321bd0592146105a6578063227f03eb146105d4576103c5565b80630e9587f3116103a35780630e9587f3146104865780630f4ef8a6146104be578063117cf204146104e257806314aea30714610510576103c5565b80630191c237146103ca57806309cc9a08146104025780630e0dc42614610438575b600080fd5b610400600480360360608110156103e057600080fd5b506001600160a01b03813581169160208101359091169060400135610ea2565b005b6104006004803603606081101561041857600080fd5b506001600160a01b03813581169160208101359091169060400135610fa0565b610400600480360360e081101561044e57600080fd5b506001600160a01b03813581169160208101359091169060408101359060608101359060808101359060a08101359060c0013561109f565b6104006004803603606081101561049c57600080fd5b506001600160a01b0381358116916020810135821691604090910135166114ce565b6104c66115ac565b604080516001600160a01b039092168252519081900360200190f35b610400600480360360408110156104f857600080fd5b506001600160a01b03813516906020013515156115bb565b6104006004803603604081101561052657600080fd5b506001600160a01b03813516906020013561166c565b6104006004803603604081101561055257600080fd5b506001600160a01b03813516906020013515156116ff565b6104006004803603608081101561058057600080fd5b506001600160a01b03813581169160208101358216916040820135169060600135611777565b610400600480360360408110156105bc57600080fd5b506001600160a01b03813516906020013515156118c2565b610400600480360360808110156105ea57600080fd5b506001600160a01b038135169060208101359060408101359060600135611957565b6104006004803603604081101561062257600080fd5b506001600160a01b0381358116916020013516611a96565b6104006004803603604081101561065057600080fd5b506001600160a01b038135169060200135611b32565b6104006004803603604081101561067c57600080fd5b506001600160a01b0381351690602001351515611c1b565b610400600480360360808110156106aa57600080fd5b506001600160a01b038135811691602081013590911690604081013515159060600135611cb0565b6104c6611d5e565b6106e2611d6d565b60408051918252519081900360200190f35b610400600480360360a081101561070a57600080fd5b506001600160a01b038135811691602081013582169160408201351690606081013590608001351515611d74565b610400600480360360a081101561074e57600080fd5b506001600160a01b038135811691602081013582169160408201351690606081013590608001351515611ece565b6104006004803603604081101561079257600080fd5b506001600160a01b0381351690602001351515611fff565b6107d0600480360360208110156107c057600080fd5b50356001600160a01b0316612094565b604080519115158252519081900360200190f35b610400600480360360608110156107fa57600080fd5b506001600160a01b0381358116916020810135909116906040013515156120a9565b6106e261216c565b6104006004803603608081101561083a57600080fd5b506001600160a01b03813581169160208101358216916040820135169060600135612172565b6106e261228d565b6104006004803603604081101561087e57600080fd5b506001600160a01b0381358116916020013516612293565b610400600480360360408110156108ac57600080fd5b506001600160a01b038135811691602001351661238d565b610400600480360360408110156108da57600080fd5b506001600160a01b0381358116916020013516612481565b6104006004803603604081101561090857600080fd5b506001600160a01b038135169060200135151561257b565b6107d06004803603602081101561093657600080fd5b50356001600160a01b0316612610565b6106e2612625565b6106e261262b565b6104006004803603604081101561096c57600080fd5b506001600160a01b0381358116916020013516612632565b610400600480360361014081101561099b57600080fd5b506001600160a01b038135169060208101359060408101359060608101359060808101359060a08101359060c08101359060e081013590610100810135906101200135151561272f565b610400600480360360208110156109fb57600080fd5b50356001600160a01b03166129ee565b61040060048036036060811015610a2157600080fd5b506001600160a01b03813581169160208101359091169060400135612a5d565b61040060048036036040811015610a5757600080fd5b506001600160a01b0381358116916020013516612e5b565b61040060048036036020811015610a8557600080fd5b5035612f5a565b61040060048036036040811015610aa257600080fd5b506001600160a01b038135169060200135612fb3565b61040060048036036040811015610ace57600080fd5b506001600160a01b0381351690602001351515613087565b61040060048036036040811015610afc57600080fd5b506001600160a01b038135811691602001351661311c565b61040060048036036040811015610b2a57600080fd5b506001600160a01b0381351690602001351515613212565b6106e2613305565b61040060048036036040811015610b6057600080fd5b506001600160a01b03813516906020013561330a565b6106e26133ed565b61040060048036036040811015610b9457600080fd5b506001600160a01b03813581169160200135166133fe565b61040060048036036040811015610bc257600080fd5b506001600160a01b0381351690602001356134ef565b61040060048036036020811015610bee57600080fd5b5035613582565b61040060048036036040811015610c0b57600080fd5b506001600160a01b038135811691602001351661366c565b61040060048036036060811015610c3957600080fd5b506001600160a01b03813581169160208101359091169060400135613708565b6104c66137ca565b61040060048036036040811015610c7757600080fd5b506001600160a01b03813516906020013515156137d9565b61040060048036036020811015610ca557600080fd5b50356001600160a01b0316613888565b6104006004803603610100811015610ccc57600080fd5b506001600160a01b03813581169160208101359091169060408101359060608101359060808101359060a08101359060c081013515159060e0013515156138f9565b61040060048036036060811015610d2457600080fd5b506001600160a01b03813581169160208101359091169060400135613a56565b61040060048036036060811015610d5a57600080fd5b506001600160a01b03813581169160208101359091169060400135613b58565b61040060048036036060811015610d9057600080fd5b506001600160a01b03813581169160208101359091169060400135613bfc565b6106e260048036036020811015610dc657600080fd5b5035613d31565b6104006004803603610100811015610de457600080fd5b506001600160a01b03813581169160208101359091169060408101359060608101359060808101359060a08101359060c081013515159060e001351515613d43565b61040060048036036060811015610e3c57600080fd5b506001600160a01b03813581169160208101359091169060400135613ec8565b61040060048036036060811015610e7257600080fd5b506001600160a01b03813581169160208101359091169060400135613f6e565b6106e2614012565b6104c6614018565b6002546001600160a01b03163314610eef576040805162461bcd60e51b815260206004820152601660248201526000805160206144e4833981519152604482015290519081900360640190fd5b604080516972656465656d5573646760b01b6020808301919091526001600160601b0319606087811b8216602a85015286901b16603e83015260528083018590528351808403909101815260729092019092528051910120610f5081614027565b604080516001600160a01b0380871682528516602082015280820184905290517fe6bd553b6ef21f3a22ebc877b3aaedc30fe15826b8156d4e8c8b373ebf11d78b9181900360600190a150505050565b6002546001600160a01b03163314610fed576040805162461bcd60e51b815260206004820152601660248201526000805160206144e4833981519152604482015290519081900360640190fd5b60408051631b5a5b9d60e21b6020808301919091526001600160601b0319606087811b8216602485015286901b166038830152604c80830185905283518084039091018152606c909201909252805191012061104881614027565b604080516001600160a01b038087168252851660208201528082018490526060810183905290517f23d37bec99db82564427c9bbfe48ad7434bccf413a40fd357fb838c90a0d68289181900360800190a150505050565b6002546001600160a01b031633146110ec576040805162461bcd60e51b815260206004820152601660248201526000805160206144e4833981519152604482015290519081900360640190fd5b6101f484111561112d5760405162461bcd60e51b81526004018080602001828103825260228152602001806146666022913960400191505060405180910390fd5b60408051630daf9c2160e41b81526001600160a01b0388811660048301529151899283169163daf9c210916024808301926020929190829003018186803b15801561117757600080fd5b505afa15801561118b573d6000803e3d6000fd5b505050506040513d60208110156111a157600080fd5b50516111de5760405162461bcd60e51b81526004018080602001828103825260268152602001806145eb6026913960400191505060405180910390fd5b6000816001600160a01b0316638ee573ac896040518263ffffffff1660e01b815260040180826001600160a01b0316815260200191505060206040518083038186803b15801561122d57600080fd5b505afa158015611241573d6000803e3d6000fd5b505050506040513d602081101561125757600080fd5b5051604080516342b60b0360e01b81526001600160a01b038b811660048301529151929350600092918516916342b60b0391602480820192602092909190829003018186803b1580156112a957600080fd5b505afa1580156112bd573d6000803e3d6000fd5b505050506040513d60208110156112d357600080fd5b50516040805163db3555fb60e01b81526001600160a01b038c8116600483015291519293506000929186169163db3555fb91602480820192602092909190829003018186803b15801561132557600080fd5b505afa158015611339573d6000803e3d6000fd5b505050506040513d602081101561134f57600080fd5b505160408051633c5a6e3560e01b81526001600160a01b038d8116600483015260248201879052604482018d9052606482018c9052608482018b905285151560a483015283151560c48301529151929350908d1691633c5a6e359160e48082019260009290919082900301818387803b1580156113cb57600080fd5b505af11580156113df573d6000803e3d6000fd5b505050508a6001600160a01b0316638585f4d28b886040518363ffffffff1660e01b815260040180836001600160a01b0316815260200182815260200192505050600060405180830381600087803b15801561143a57600080fd5b505af115801561144e573d6000803e3d6000fd5b505050508a6001600160a01b031663d66b000d8b876040518363ffffffff1660e01b815260040180836001600160a01b0316815260200182815260200192505050600060405180830381600087803b1580156114a957600080fd5b505af11580156114bd573d6000803e3d6000fd5b505050505050505050505050505050565b6002546001600160a01b0316331461151b576040805162461bcd60e51b815260206004820152601660248201526000805160206144e4833981519152604482015290519081900360640190fd5b826001600160a01b031663f255527883836040518363ffffffff1660e01b815260040180836001600160a01b03168152602001826001600160a01b0316815260200192505050602060405180830381600087803b15801561157b57600080fd5b505af115801561158f573d6000803e3d6000fd5b505050506040513d60208110156115a557600080fd5b5050505050565b6004546001600160a01b031681565b6002546001600160a01b03163314611608576040805162461bcd60e51b815260206004820152601660248201526000805160206144e4833981519152604482015290519081900360640190fd5b816001600160a01b03166330455ede826040518263ffffffff1660e01b8152600401808215158152602001915050600060405180830381600087803b15801561165057600080fd5b505af1158015611664573d6000803e3d6000fd5b505050505050565b6002546001600160a01b031633146116b9576040805162461bcd60e51b815260206004820152601660248201526000805160206144e4833981519152604482015290519081900360640190fd5b816001600160a01b031663b731dd87826040518263ffffffff1660e01b815260040180828152602001915050600060405180830381600087803b15801561165057600080fd5b6002546001600160a01b0316331461174c576040805162461bcd60e51b815260206004820152601660248201526000805160206144e4833981519152604482015290519081900360640190fd5b6001600160a01b03919091166000908152600960205260409020805460ff1916911515919091179055565b6002546001600160a01b031633146117c4576040805162461bcd60e51b815260206004820152601660248201526000805160206144e4833981519152604482015290519081900360640190fd5b604080516c3bb4ba34323930bbaa37b5b2b760991b6020808301919091526001600160601b0319606088811b8216602d85015287811b8216604185015286901b1660558301526069808301859052835180840390910181526089909201909252805191012061183281614080565b61183b81614116565b846001600160a01b03166301e336678585856040518463ffffffff1660e01b815260040180846001600160a01b03168152602001836001600160a01b031681526020018281526020019350505050600060405180830381600087803b1580156118a357600080fd5b505af11580156118b7573d6000803e3d6000fd5b505050505050505050565b6002546001600160a01b0316331461190f576040805162461bcd60e51b815260206004820152601660248201526000805160206144e4833981519152604482015290519081900360640190fd5b816001600160a01b031663f07bbf77826040518263ffffffff1660e01b8152600401808215158152602001915050600060405180830381600087803b15801561165057600080fd5b6002546001600160a01b031633146119a4576040805162461bcd60e51b815260206004820152601660248201526000805160206144e4833981519152604482015290519081900360640190fd5b60c882106119e35760405162461bcd60e51b815260040180806020018281038252602781526020018061463f6027913960400191505060405180910390fd5b60c88110611a225760405162461bcd60e51b815260040180806020018281038252602d815260200180614688602d913960400191505060405180910390fd5b836001600160a01b0316638a27d4688484846040518463ffffffff1660e01b8152600401808481526020018381526020018281526020019350505050600060405180830381600087803b158015611a7857600080fd5b505af1158015611a8c573d6000803e3d6000fd5b5050505050505050565b6002546001600160a01b03163314611ae3576040805162461bcd60e51b815260206004820152601660248201526000805160206144e4833981519152604482015290519081900360640190fd5b816001600160a01b0316631785f53c826040518263ffffffff1660e01b815260040180826001600160a01b03168152602001915050600060405180830381600087803b15801561165057600080fd5b6002546001600160a01b03163314611b7f576040805162461bcd60e51b815260206004820152601660248201526000805160206144e4833981519152604482015290519081900360640190fd5b6005811115611bd5576040805162461bcd60e51b815260206004820152601960248201527f496e76616c6964205f707269636553616d706c65537061636500000000000000604482015290519081900360640190fd5b816001600160a01b0316632fa03b8f826040518263ffffffff1660e01b815260040180828152602001915050600060405180830381600087803b15801561165057600080fd5b6002546001600160a01b03163314611c68576040805162461bcd60e51b815260206004820152601660248201526000805160206144e4833981519152604482015290519081900360640190fd5b816001600160a01b031663eb1c92a9826040518263ffffffff1660e01b8152600401808215158152602001915050600060405180830381600087803b15801561165057600080fd5b6002546001600160a01b03163314611cfd576040805162461bcd60e51b815260206004820152601660248201526000805160206144e4833981519152604482015290519081900360640190fd5b836001600160a01b031663d694376c8484846040518463ffffffff1660e01b815260040180846001600160a01b0316815260200183151581526020018281526020019350505050600060405180830381600087803b158015611a7857600080fd5b6003546001600160a01b031681565b6207a12081565b6002546001600160a01b03163314611dc1576040805162461bcd60e51b815260206004820152601660248201526000805160206144e4833981519152604482015290519081900360640190fd5b6040805176707269636546656564536574546f6b656e436f6e66696760481b6020808301919091526001600160601b0319606089811b8216603785015288811b8216604b85015287901b16605f8301526073820185905283151560f81b60938301528251607481840301815260949092019092528051910120611e4381614080565b611e4c81614116565b60408051634b9ade4760e01b81526001600160a01b0387811660048301528681166024830152604482018690528415156064830152915191881691634b9ade479160848082019260009290919082900301818387803b158015611eae57600080fd5b505af1158015611ec2573d6000803e3d6000fd5b50505050505050505050565b6002546001600160a01b03163314611f1b576040805162461bcd60e51b815260206004820152601660248201526000805160206144e4833981519152604482015290519081900360640190fd5b6040805176707269636546656564536574546f6b656e436f6e66696760481b6020808301919091526001600160601b0319606089811b8216603785015288811b8216604b85015287901b16605f8301526073820185905283151560f81b60938301528251607481840301815260949092019092528051910120611f9d81614027565b604080516001600160a01b038089168252808816602083015286168183015260608101859052831515608082015290517f1b2ddf357ae016d8c127dcd3a73c34744fdeaeeb4b7ef1e04490cebf7f4816fe9181900360a00190a1505050505050565b6002546001600160a01b0316331461204c576040805162461bcd60e51b815260206004820152601660248201526000805160206144e4833981519152604482015290519081900360640190fd5b816001600160a01b031663fd34ec40826040518263ffffffff1660e01b8152600401808215158152602001915050600060405180830381600087803b15801561165057600080fd5b60096020526000908152604090205460ff1681565b6002546001600160a01b031633146120f6576040805162461bcd60e51b815260206004820152601660248201526000805160206144e4833981519152604482015290519081900360640190fd5b826001600160a01b0316634453a37483836040518363ffffffff1660e01b815260040180836001600160a01b03168152602001821515815260200192505050600060405180830381600087803b15801561214f57600080fd5b505af1158015612163573d6000803e3d6000fd5b50505050505050565b61012c81565b6002546001600160a01b031633146121bf576040805162461bcd60e51b815260206004820152601660248201526000805160206144e4833981519152604482015290519081900360640190fd5b604080516c3bb4ba34323930bbaa37b5b2b760991b6020808301919091526001600160601b0319606088811b8216602d85015287811b8216604185015286901b1660558301526069808301859052835180840390910181526089909201909252805191012061222d81614027565b604080516001600160a01b0380881682528087166020830152851681830152606081018490526080810183905290517f9ed7b0f07a9eed51079fab67f6d0f141f167f5b17fdb5a23282280e15fcafed39181900360a00190a15050505050565b60065481565b6002546001600160a01b031633146122e0576040805162461bcd60e51b815260206004820152601660248201526000805160206144e4833981519152604482015290519081900360640190fd5b604080516539b2ba23b7bb60d11b6020808301919091526001600160601b0319606086811b8216602685015285901b16603a8301528251602e818403018152604e909201909252805191012061233581614080565b61233e81614116565b826001600160a01b031663cfad57a2836040518263ffffffff1660e01b815260040180826001600160a01b03168152602001915050600060405180830381600087803b15801561214f57600080fd5b6002546001600160a01b031633146123da576040805162461bcd60e51b815260206004820152601660248201526000805160206144e4833981519152604482015290519081900360640190fd5b604080516830b23228363ab3b4b760b91b6020808301919091526001600160601b0319606086811b8216602985015285901b16603d830152825160318184030181526051909201909252805191012061243281614027565b604080516001600160a01b0380861682528416602082015280820183905290517fc0ad20f21e0e6b9c02a7ecfb229e39b214cb1914a4d6f202e7f9ec7ffb9445f69181900360600190a1505050565b6002546001600160a01b031633146124ce576040805162461bcd60e51b815260206004820152601660248201526000805160206144e4833981519152604482015290519081900360640190fd5b6001600160a01b03821630141561252c576040805162461bcd60e51b815260206004820152601c60248201527f476d7854696d656c6f636b3a20696e76616c6964205f74617267657400000000604482015290519081900360640190fd5b816001600160a01b031663704b6c02826040518263ffffffff1660e01b815260040180826001600160a01b03168152602001915050600060405180830381600087803b15801561165057600080fd5b6002546001600160a01b031633146125c8576040805162461bcd60e51b815260206004820152601660248201526000805160206144e4833981519152604482015290519081900360640190fd5b816001600160a01b0316639917dc74826040518263ffffffff1660e01b8152600401808215158152602001915050600060405180830381600087803b15801561165057600080fd5b60086020526000908152604090205460ff1681565b60015481565b62093a8081565b6002546001600160a01b0316331461267f576040805162461bcd60e51b815260206004820152601660248201526000805160206144e4833981519152604482015290519081900360640190fd5b604080516830b23228363ab3b4b760b91b6020808301919091526001600160601b0319606086811b8216602985015285901b16603d83015282516031818403018152605190920190925280519101206126d781614080565b6126e081614116565b826001600160a01b031663d8867fc8836040518263ffffffff1660e01b815260040180826001600160a01b03168152602001915050600060405180830381600087803b15801561214f57600080fd5b6002546001600160a01b0316331461277c576040805162461bcd60e51b815260206004820152601660248201526000805160206144e4833981519152604482015290519081900360640190fd5b61012c89106127bc5760405162461bcd60e51b815260040180806020018281038252602481526020018061452e6024913960400191505060405180910390fd5b61012c88106127fc5760405162461bcd60e51b815260040180806020018281038252602a815260200180614504602a913960400191505060405180910390fd5b61012c871061283c5760405162461bcd60e51b815260040180806020018281038252602c8152602001806146b5602c913960400191505060405180910390fd5b61012c861061287c5760405162461bcd60e51b81526004018080602001828103825260288152602001806144256028913960400191505060405180910390fd5b61012c85106128bc5760405162461bcd60e51b815260040180806020018281038252602e815260200180614611602e913960400191505060405180910390fd5b61012c84106128fc5760405162461bcd60e51b815260040180806020018281038252602a8152602001806145c1602a913960400191505060405180910390fd5b6c7e37be2022c0914b268000000083106129475760405162461bcd60e51b815260040180806020018281038252602781526020018061449c6027913960400191505060405180910390fd5b604080516320759c0160e11b8152600481018b9052602481018a905260448101899052606481018890526084810187905260a4810186905260c4810185905260e4810184905282151561010482015290516001600160a01b038c16916340eb38029161012480830192600092919082900301818387803b1580156129ca57600080fd5b505af11580156129de573d6000803e3d6000fd5b5050505050505050505050505050565b6003546001600160a01b03163314612a3b576040805162461bcd60e51b815260206004820152601660248201526000805160206144e4833981519152604482015290519081900360640190fd5b600280546001600160a01b0319166001600160a01b0392909216919091179055565b6002546001600160a01b03163314612aaa576040805162461bcd60e51b815260206004820152601660248201526000805160206144e4833981519152604482015290519081900360640190fd5b604080516972656465656d5573646760b01b6020808301919091526001600160601b0319606087811b8216602a85015286901b16603e83015260528083018590528351808403909101815260729092019092528051910120612b0b81614080565b612b1481614116565b6000846001600160a01b031663f5b91b7b6040518163ffffffff1660e01b815260040160206040518083038186803b158015612b4f57600080fd5b505afa158015612b63573d6000803e3d6000fd5b505050506040513d6020811015612b7957600080fd5b5051604080516352f4877760e11b81523060048201526001602482015290519192506001600160a01b0387169163a5e90eee9160448082019260009290919082900301818387803b158015612bcd57600080fd5b505af1158015612be1573d6000803e3d6000fd5b5050604080516312b5ad0160e11b815230600482015290516001600160a01b038516935063256b5a029250602480830192600092919082900301818387803b158015612c2c57600080fd5b505af1158015612c40573d6000803e3d6000fd5b5050604080516340c10f1960e01b81523060048201526024810187905290516001600160a01b03851693506340c10f199250604480830192600092919082900301818387803b158015612c9257600080fd5b505af1158015612ca6573d6000803e3d6000fd5b50505050806001600160a01b031663a9059cbb86856040518363ffffffff1660e01b815260040180836001600160a01b0316815260200182815260200192505050602060405180830381600087803b158015612d0157600080fd5b505af1158015612d15573d6000803e3d6000fd5b505050506040513d6020811015612d2b57600080fd5b505060055460408051630711e61960e41b81526001600160a01b038781166004830152928316602482015290519187169163711e6190916044808201926020929091908290030181600087803b158015612d8457600080fd5b505af1158015612d98573d6000803e3d6000fd5b505050506040513d6020811015612dae57600080fd5b5050604080516352f4877760e11b815230600482015260006024820181905291516001600160a01b0388169263a5e90eee926044808201939182900301818387803b158015612dfc57600080fd5b505af1158015612e10573d6000803e3d6000fd5b50506040805163ceb68c2360e01b815230600482015290516001600160a01b038516935063ceb68c239250602480830192600092919082900301818387803b1580156118a357600080fd5b6002546001600160a01b03163314612ea8576040805162461bcd60e51b815260206004820152601660248201526000805160206144e4833981519152604482015290519081900360640190fd5b604080516b1cd95d141c9a58d95199595960a21b6020808301919091526001600160601b0319606086811b8216602c85015285901b16828401528251603481840301815260549092019092528051910120612f0281614080565b612f0b81614116565b826001600160a01b031663724e78da836040518263ffffffff1660e01b815260040180826001600160a01b03168152602001915050600060405180830381600087803b15801561214f57600080fd5b6002546001600160a01b03163314612fa7576040805162461bcd60e51b815260206004820152601660248201526000805160206144e4833981519152604482015290519081900360640190fd5b612fb081614116565b50565b6002546001600160a01b03163314613000576040805162461bcd60e51b815260206004820152601660248201526000805160206144e4833981519152604482015290519081900360640190fd5b6207a12081116130415760405162461bcd60e51b81526004018080602001828103825260218152602001806144c36021913960400191505060405180910390fd5b816001600160a01b031663d3127e63826040518263ffffffff1660e01b815260040180828152602001915050600060405180830381600087803b15801561165057600080fd5b6002546001600160a01b031633146130d4576040805162461bcd60e51b815260206004820152601660248201526000805160206144e4833981519152604482015290519081900360640190fd5b816001600160a01b031663604f37e9826040518263ffffffff1660e01b8152600401808215158152602001915050600060405180830381600087803b15801561165057600080fd5b6002546001600160a01b03163314613169576040805162461bcd60e51b815260206004820152601660248201526000805160206144e4833981519152604482015290519081900360640190fd5b604080516b1cd95d141c9a58d95199595960a21b6020808301919091526001600160601b0319606086811b8216602c85015285901b168284015282516034818403018152605490920190925280519101206131c381614027565b604080516001600160a01b0380861682528416602082015280820183905290517fb878dd4b5762f4118ad54995be907dd2bcd915d942e4ac75580fba9b4ee4727f9181900360600190a1505050565b6002546001600160a01b0316331461325f576040805162461bcd60e51b815260206004820152601660248201526000805160206144e4833981519152604482015290519081900360640190fd5b6001600160a01b03821660009081526008602052604090205460ff16156132bd5780156132bd5760405162461bcd60e51b815260040180806020018281038252602b815260200180614471602b913960400191505060405180910390fd5b816001600160a01b0316635a47a1a7826040518263ffffffff1660e01b8152600401808215158152602001915050600060405180830381600087803b15801561165057600080fd5b60c881565b6002546001600160a01b03163314613357576040805162461bcd60e51b815260206004820152601660248201526000805160206144e4833981519152604482015290519081900360640190fd5b64012a05f20081116133a7576040805162461bcd60e51b8152602060048201526014602482015273496e76616c6964205f6d6178476173507269636560601b604482015290519081900360640190fd5b816001600160a01b031663d2fa635e826040518263ffffffff1660e01b815260040180828152602001915050600060405180830381600087803b15801561165057600080fd5b6c0c9f2c9cd04674edea4000000081565b6003546001600160a01b0316331461344b576040805162461bcd60e51b815260206004820152601660248201526000805160206144e4833981519152604482015290519081900360640190fd5b604080516539b2ba23b7bb60d11b6020808301919091526001600160601b0319606086811b8216602685015285901b16603a8301528251602e818403018152604e90920190925280519101206134a0816141bf565b604080516001600160a01b0380861682528416602082015280820183905290517f2701a94fd55a560e291f3c54d36580040670d6fde558a77a75d619e38139f7139181900360600190a1505050565b6002546001600160a01b0316331461353c576040805162461bcd60e51b815260206004820152601660248201526000805160206144e4833981519152604482015290519081900360640190fd5b816001600160a01b0316632fbfe3d3826040518263ffffffff1660e01b815260040180828152602001915050600060405180830381600087803b15801561165057600080fd5b6002546001600160a01b031633146135cf576040805162461bcd60e51b815260206004820152601660248201526000805160206144e4833981519152604482015290519081900360640190fd5b62093a80811115613627576040805162461bcd60e51b815260206004820152601c60248201527f476d7854696d656c6f636b3a20696e76616c6964205f62756666657200000000604482015290519081900360640190fd5b60005481116136675760405162461bcd60e51b81526004018080602001828103825260278152602001806145526027913960400191505060405180910390fd5b600055565b6002546001600160a01b031633146136b9576040805162461bcd60e51b815260206004820152601660248201526000805160206144e4833981519152604482015290519081900360640190fd5b816001600160a01b03166371089f4d826040518263ffffffff1660e01b815260040180826001600160a01b03168152602001915050600060405180830381600087803b15801561165057600080fd5b6002546001600160a01b03163314613755576040805162461bcd60e51b815260206004820152601660248201526000805160206144e4833981519152604482015290519081900360640190fd5b60408051631b5a5b9d60e21b6020808301919091526001600160601b0319606087811b8216602485015286901b166038830152604c80830185905283518084039091018152606c90920190925280519101206137b081614080565b6137b981614116565b6137c48484846141cd565b50505050565b6005546001600160a01b031681565b6002546001600160a01b031633148061380157503360009081526009602052604090205460ff165b613840576040805162461bcd60e51b815260206004820152601660248201526000805160206144e4833981519152604482015290519081900360640190fd5b816001600160a01b0316637c2eb9f7826040518263ffffffff1660e01b8152600401808215158152602001915050600060405180830381600087803b15801561165057600080fd5b6002546001600160a01b031633146138d5576040805162461bcd60e51b815260206004820152601660248201526000805160206144e4833981519152604482015290519081900360640190fd5b6001600160a01b03166000908152600860205260409020805460ff19166001179055565b6002546001600160a01b03163314613946576040805162461bcd60e51b815260206004820152601660248201526000805160206144e4833981519152604482015290519081900360640190fd5b60408051727661756c74536574546f6b656e436f6e66696760681b6020808301919091526001600160601b031960608c811b821660338501528b901b166047830152605b8201899052607b8201889052609b820187905260bb820186905284151560f890811b60db840152841515901b60dc830152825160bd81840301815260dd90920190925280519101206139db81614027565b604080516001600160a01b03808c1682528a166020820152808201899052606081018890526080810187905260a0810186905284151560c082015283151560e082015290517f3510e9d8245371c6c1061c33781ce16bd0eafa03cd3d0781865036520af4c743918190036101000190a1505050505050505050565b6002546001600160a01b03163314613aa3576040805162461bcd60e51b815260206004820152601660248201526000805160206144e4833981519152604482015290519081900360640190fd5b6040805166617070726f766560c81b6020808301919091526001600160601b0319606087811b8216602785015286901b16603b830152604f80830185905283518084039091018152606f9092019092528051910120613b0181614027565b604080516001600160a01b038087168252851660208201528082018490526060810183905290517f6af9d86ba7407a934e941ed8ae5f779369a88fe8ba2cd1c204185d6f8a8287fd9181900360800190a150505050565b6002546001600160a01b03163314613ba5576040805162461bcd60e51b815260206004820152601660248201526000805160206144e4833981519152604482015290519081900360640190fd5b826001600160a01b031663efa10a6e83836040518363ffffffff1660e01b815260040180836001600160a01b0316815260200182815260200192505050600060405180830381600087803b15801561214f57600080fd5b6002546001600160a01b03163314613c49576040805162461bcd60e51b815260206004820152601660248201526000805160206144e4833981519152604482015290519081900360640190fd5b6040805166617070726f766560c81b6020808301919091526001600160601b0319606087811b8216602785015286901b16603b830152604f80830185905283518084039091018152606f9092019092528051910120613ca781614080565b613cb081614116565b836001600160a01b031663095ea7b384846040518363ffffffff1660e01b815260040180836001600160a01b0316815260200182815260200192505050602060405180830381600087803b158015613d0757600080fd5b505af1158015613d1b573d6000803e3d6000fd5b505050506040513d602081101561166457600080fd5b60076020526000908152604090205481565b6002546001600160a01b03163314613d90576040805162461bcd60e51b815260206004820152601660248201526000805160206144e4833981519152604482015290519081900360640190fd5b60408051727661756c74536574546f6b656e436f6e66696760681b6020808301919091526001600160601b031960608c811b821660338501528b901b166047830152605b8201899052607b8201889052609b820187905260bb820186905284151560f890811b60db840152841515901b60dc830152825160bd81840301815260dd9092019092528051910120613e2581614080565b613e2e81614116565b60408051633c5a6e3560e01b81526001600160a01b038a81166004830152602482018a905260448201899052606482018890526084820187905285151560a483015284151560c48301529151918b1691633c5a6e359160e48082019260009290919082900301818387803b158015613ea557600080fd5b505af1158015613eb9573d6000803e3d6000fd5b50505050505050505050505050565b6002546001600160a01b03163314613f15576040805162461bcd60e51b815260206004820152601660248201526000805160206144e4833981519152604482015290519081900360640190fd5b604080516323b872dd60e01b81526001600160a01b038581166004830152306024830152604482018490529151918416916323b872dd916064808201926020929091908290030181600087803b15801561157b57600080fd5b6002546001600160a01b03163314613fbb576040805162461bcd60e51b815260206004820152601660248201526000805160206144e4833981519152604482015290519081900360640190fd5b826001600160a01b0316639b88938083836040518363ffffffff1660e01b815260040180836001600160a01b0316815260200182815260200192505050600060405180830381600087803b15801561214f57600080fd5b60005481565b6002546001600160a01b031681565b6000546140359042906143c3565b60008281526007602090815260409182902092909255805183815290517f5fb9c0ecf7b4a28c4c480212e868f9da7f373a2ed4d23498b0be6aadf35242fb929181900390910190a150565b6000818152600760205260409020546140ca5760405162461bcd60e51b81526004018080602001828103825260218152602001806145796021913960400191505060405180910390fd5b6000818152600760205260409020544211612fb05760405162461bcd60e51b815260040180806020018281038252602781526020018061459a6027913960400191505060405180910390fd5b600081815260076020526040902054614176576040805162461bcd60e51b815260206004820152601c60248201527f476d7854696d656c6f636b3a20696e76616c6964205f616374696f6e00000000604482015290519081900360640190fd5b600081815260076020908152604080832092909255815183815291517f194ed6dd5e37e2acc44a19455c3f208c4831ee695fe362d9c4ef2d316bc53aec9281900390910190a150565b6001546140359042906143c3565b604080516355138f0d60e11b8152306004820152905184916001600160a01b0383169163aa271e1a916024808201926020929091908290030181600087803b15801561421857600080fd5b505af115801561422c573d6000803e3d6000fd5b505050506040513d602081101561424257600080fd5b50516142af576040805163cf456ae760e01b81523060048201526001602482015290516001600160a01b0383169163cf456ae791604480830192600092919082900301818387803b15801561429657600080fd5b505af11580156142aa573d6000803e3d6000fd5b505050505b806001600160a01b03166340c10f1984846040518363ffffffff1660e01b815260040180836001600160a01b0316815260200182815260200192505050600060405180830381600087803b15801561430657600080fd5b505af115801561431a573d6000803e3d6000fd5b50505050600654846001600160a01b03166318160ddd6040518163ffffffff1660e01b815260040160206040518083038186803b15801561435a57600080fd5b505afa15801561436e573d6000803e3d6000fd5b505050506040513d602081101561438457600080fd5b505111156137c45760405162461bcd60e51b815260040180806020018281038252602481526020018061444d6024913960400191505060405180910390fd5b60008282018381101561441d576040805162461bcd60e51b815260206004820152601b60248201527f536166654d6174683a206164646974696f6e206f766572666c6f770000000000604482015290519081900360640190fd5b939250505056fe476d7854696d656c6f636b3a20696e76616c6964205f737761704665654261736973506f696e7473476d7854696d656c6f636b3a206d6178546f6b656e537570706c79206578636565646564476d7854696d656c6f636b3a20696e76616c6964205f696e507269766174655472616e736665724d6f6465476d7854696d656c6f636b3a20696e76616c6964205f6c69717569646174696f6e466565557364476d7854696d656c6f636b3a20696e76616c6964205f6d61784c65766572616765476d7854696d656c6f636b3a20666f7262696464656e00000000000000000000476d7854696d656c6f636b3a20696e76616c6964205f737461626c655461784261736973506f696e7473476d7854696d656c6f636b3a20696e76616c6964205f7461784261736973506f696e7473476d7854696d656c6f636b3a206275666665722063616e6e6f7420626520646563726561736564476d7854696d656c6f636b3a20616374696f6e206e6f74207369676e616c6c6564476d7854696d656c6f636b3a20616374696f6e2074696d65206e6f742079657420706173736564476d7854696d656c6f636b3a20696e76616c6964205f6d617267696e4665654261736973506f696e7473476d7854696d656c6f636b3a20746f6b656e206e6f74207965742077686974656c6973746564476d7854696d656c6f636b3a20696e76616c6964205f737461626c65537761704665654261736973506f696e7473476d7854696d656c6f636b3a20696e76616c6964205f66756e64696e6752617465466163746f72476d7854696d656c6f636b3a20696e76616c6964205f6d696e50726f666974427073476d7854696d656c6f636b3a20696e76616c6964205f737461626c6546756e64696e6752617465466163746f72476d7854696d656c6f636b3a20696e76616c6964205f6d696e744275726e4665654261736973506f696e7473a2646970667358221220f4c768795252efa728df7ae1c1c06393da0e7533ca6df4488a5bf0de15589f2164736f6c634300060c0033",
    "linkReferences": {}
  },
  "methodIdentifiers": {
    "MAX_BUFFER()": "61d07569",
    "MAX_FEE_BASIS_POINTS()": "4befe2ca",
    "MAX_FUNDING_RATE_FACTOR()": "8a39735a",
    "MAX_LEVERAGE_VALIDATION()": "2ba3725a",
    "PRICE_PRECISION()": "95082d25",
    "addExcludedToken(address)": "d7c2e92f",
    "addPlugin(address,address)": "69623ae2",
    "admin()": "f851a440",
    "approve(address,address,uint256)": "e1f21c67",
    "buffer()": "edaafe20",
    "cancelAction(bytes32)": "781cc3d3",
    "excludedTokens(address)": "5dae8841",
    "isHandler(address)": "46ea87af",
    "longBuffer()": "5fa7955c",
    "maxTokenSupply()": "50f7c204",
    "mintReceiver()": "c7bb26a0",
    "pendingActions(bytes32)": "e30569e5",
    "priceFeedSetTokenConfig(address,address,address,uint256,bool)": "3335e38a",
    "processMint(address,address,uint256)": "bc8a8ab9",
    "redeemUsdg(address,address,uint256)": "70ac0a93",
    "removeAdmin(address,address)": "268959e5",
    "rewardManager()": "0f4ef8a6",
    "setAdjustment(address,address,bool,uint256)": "296b07e5",
    "setAdmin(address)": "704b6c02",
    "setBuffer(uint256)": "adc7ea37",
    "setContractHandler(address,bool)": "185051c1",
    "setExternalAdmin(address,address)": "55ef1395",
    "setFavorPrimaryPrice(address,bool)": "7b9fb227",
    "setFees(address,uint256,uint256,uint256,uint256,uint256,uint256,uint256,uint256,bool)": "6e5227d4",
    "setFundingRate(address,uint256,uint256,uint256)": "227f03eb",
    "setGov(address,address)": "51a6de0d",
    "setInPrivateLiquidationMode(address,bool)": "21bd0592",
    "setInPrivateTransferMode(address,bool)": "86803c72",
    "setIsAmmEnabled(address,bool)": "5843752f",
    "setIsLeverageEnabled(address,bool)": "cd2b1230",
    "setIsSecondaryPriceEnabled(address,bool)": "2965c8c7",
    "setIsSwapEnabled(address,bool)": "117cf204",
    "setLiquidator(address,address,bool)": "47de43e2",
    "setMaxGasPrice(address,uint256)": "8bf22c46",
    "setMaxGlobalShortSize(address,address,uint256)": "df3a66d9",
    "setMaxLeverage(address,uint256)": "7b6f775a",
    "setMaxStrictPriceDeviation(address,uint256)": "a0a316a2",
    "setPriceFeed(address,address)": "76e11286",
    "setPriceSampleSpace(address,uint256)": "2877f4c3",
    "setSpreadBasisPoints(address,address,uint256)": "e7b0a3a1",
    "setSpreadThresholdBasisPoints(address,uint256)": "14aea307",
    "setTokenConfig(address,address,uint256,uint256,uint256,uint256,uint256)": "0e0dc426",
    "setUseV2Pricing(address,bool)": "454ffa46",
    "setVaultUtils(address,address)": "bc476dfd",
    "signalAddPlugin(address,address)": "53b6bfdd",
    "signalApprove(address,address,uint256)": "dce6e18d",
    "signalMint(address,address,uint256)": "09cc9a08",
    "signalPriceFeedSetTokenConfig(address,address,address,uint256,bool)": "384cae73",
    "signalRedeemUsdg(address,address,uint256)": "0191c237",
    "signalSetGov(address,address)": "996a7a1e",
    "signalSetPriceFeed(address,address)": "80894d62",
    "signalVaultSetTokenConfig(address,address,uint256,uint256,uint256,uint256,bool,bool)": "db1c8441",
    "signalWithdrawToken(address,address,address,uint256)": "4cd23f3b",
    "tokenManager()": "2a709b14",
    "transferIn(address,address,uint256)": "e4652f49",
    "vaultSetTokenConfig(address,address,uint256,uint256,uint256,uint256,bool,bool)": "e3cbeb0f",
    "withdrawFees(address,address,address)": "0e9587f3",
    "withdrawToken(address,address,address,uint256)": "21754d9e"
  },
  "id": 95
}