{
  "abi": [
    {
      "inputs": [
        {
          "internalType": "address",
          "name": "_admin",
          "type": "address"
        },
        {
          "internalType": "uint256",
          "name": "_buffer",
          "type": "uint256"
        },
        {
          "internalType": "address",
          "name": "_tokenManager",
          "type": "address"
        }
      ],
      "stateMutability": "nonpayable",
      "type": "constructor"
    },
    {
      "anonymous": false,
      "inputs": [
        {
          "indexed": false,
          "internalType": "bytes32",
          "name": "action",
          "type": "bytes32"
        }
      ],
      "name": "ClearAction",
      "type": "event"
    },
    {
      "anonymous": false,
      "inputs": [
        {
          "indexed": false,
          "internalType": "address",
          "name": "token",
          "type": "address"
        },
        {
          "indexed": false,
          "internalType": "address",
          "name": "spender",
          "type": "address"
        },
        {
          "indexed": false,
          "internalType": "uint256",
          "name": "amount",
          "type": "uint256"
        },
        {
          "indexed": false,
          "internalType": "bytes32",
          "name": "action",
          "type": "bytes32"
        }
      ],
      "name": "SignalApprove",
      "type": "event"
    },
    {
      "anonymous": false,
      "inputs": [
        {
          "indexed": false,
          "internalType": "bytes32",
          "name": "action",
          "type": "bytes32"
        }
      ],
      "name": "SignalPendingAction",
      "type": "event"
    },
    {
      "anonymous": false,
      "inputs": [
        {
          "indexed": false,
          "internalType": "address",
          "name": "vaultPriceFeed",
          "type": "address"
        },
        {
          "indexed": false,
          "internalType": "address",
          "name": "token",
          "type": "address"
        },
        {
          "indexed": false,
          "internalType": "address",
          "name": "priceFeed",
          "type": "address"
        },
        {
          "indexed": false,
          "internalType": "uint256",
          "name": "priceDecimals",
          "type": "uint256"
        },
        {
          "indexed": false,
          "internalType": "bool",
          "name": "isStrictStable",
          "type": "bool"
        }
      ],
      "name": "SignalPriceFeedSetTokenConfig",
      "type": "event"
    },
    {
      "anonymous": false,
      "inputs": [
        {
          "indexed": false,
          "internalType": "address",
          "name": "target",
          "type": "address"
        },
        {
          "indexed": false,
          "internalType": "address",
          "name": "gov",
          "type": "address"
        },
        {
          "indexed": false,
          "internalType": "bytes32",
          "name": "action",
          "type": "bytes32"
        }
      ],
      "name": "SignalSetGov",
      "type": "event"
    },
    {
      "anonymous": false,
      "inputs": [
        {
          "indexed": false,
          "internalType": "address",
          "name": "fastPriceFeed",
          "type": "address"
        },
        {
          "indexed": false,
          "internalType": "address",
          "name": "account",
          "type": "address"
        },
        {
          "indexed": false,
          "internalType": "bool",
          "name": "isActive",
          "type": "bool"
        }
      ],
      "name": "SignalSetPriceFeedWatcher",
      "type": "event"
    },
    {
      "anonymous": false,
      "inputs": [
        {
          "indexed": false,
          "internalType": "address",
          "name": "target",
          "type": "address"
        },
        {
          "indexed": false,
          "internalType": "address",
          "name": "token",
          "type": "address"
        },
        {
          "indexed": false,
          "internalType": "address",
          "name": "receiver",
          "type": "address"
        },
        {
          "indexed": false,
          "internalType": "uint256",
          "name": "amount",
          "type": "uint256"
        },
        {
          "indexed": false,
          "internalType": "bytes32",
          "name": "action",
          "type": "bytes32"
        }
      ],
      "name": "SignalWithdrawToken",
      "type": "event"
    },
    {
      "inputs": [],
      "name": "MAX_BUFFER",
      "outputs": [
        {
          "internalType": "uint256",
          "name": "",
          "type": "uint256"
        }
      ],
      "stateMutability": "view",
      "type": "function"
    },
    {
      "inputs": [],
      "name": "admin",
      "outputs": [
        {
          "internalType": "address",
          "name": "",
          "type": "address"
        }
      ],
      "stateMutability": "view",
      "type": "function"
    },
    {
      "inputs": [
        {
          "internalType": "address",
          "name": "_token",
          "type": "address"
        },
        {
          "internalType": "address",
          "name": "_spender",
          "type": "address"
        },
        {
          "internalType": "uint256",
          "name": "_amount",
          "type": "uint256"
        }
      ],
      "name": "approve",
      "outputs": [],
      "stateMutability": "nonpayable",
      "type": "function"
    },
    {
      "inputs": [],
      "name": "buffer",
      "outputs": [
        {
          "internalType": "uint256",
          "name": "",
          "type": "uint256"
        }
      ],
      "stateMutability": "view",
      "type": "function"
    },
    {
      "inputs": [
        {
          "internalType": "bytes32",
          "name": "_action",
          "type": "bytes32"
        }
      ],
      "name": "cancelAction",
      "outputs": [],
      "stateMutability": "nonpayable",
      "type": "function"
    },
    {
      "inputs": [
        {
          "internalType": "address",
          "name": "",
          "type": "address"
        }
      ],
      "name": "isHandler",
      "outputs": [
        {
          "internalType": "bool",
          "name": "",
          "type": "bool"
        }
      ],
      "stateMutability": "view",
      "type": "function"
    },
    {
      "inputs": [
        {
          "internalType": "address",
          "name": "",
          "type": "address"
        }
      ],
      "name": "isKeeper",
      "outputs": [
        {
          "internalType": "bool",
          "name": "",
          "type": "bool"
        }
      ],
      "stateMutability": "view",
      "type": "function"
    },
    {
      "inputs": [
        {
          "internalType": "bytes32",
          "name": "",
          "type": "bytes32"
        }
      ],
      "name": "pendingActions",
      "outputs": [
        {
          "internalType": "uint256",
          "name": "",
          "type": "uint256"
        }
      ],
      "stateMutability": "view",
      "type": "function"
    },
    {
      "inputs": [
        {
          "internalType": "address",
          "name": "_vaultPriceFeed",
          "type": "address"
        },
        {
          "internalType": "address",
          "name": "_token",
          "type": "address"
        },
        {
          "internalType": "address",
          "name": "_priceFeed",
          "type": "address"
        },
        {
          "internalType": "uint256",
          "name": "_priceDecimals",
          "type": "uint256"
        },
        {
          "internalType": "bool",
          "name": "_isStrictStable",
          "type": "bool"
        }
      ],
      "name": "priceFeedSetTokenConfig",
      "outputs": [],
      "stateMutability": "nonpayable",
      "type": "function"
    },
    {
      "inputs": [
        {
          "internalType": "address",
          "name": "_priceFeed",
          "type": "address"
        },
        {
          "internalType": "address",
          "name": "_token",
          "type": "address"
        },
        {
          "internalType": "bool",
          "name": "_isAdditive",
          "type": "bool"
        },
        {
          "internalType": "uint256",
          "name": "_adjustmentBps",
          "type": "uint256"
        }
      ],
      "name": "setAdjustment",
      "outputs": [],
      "stateMutability": "nonpayable",
      "type": "function"
    },
    {
      "inputs": [
        {
          "internalType": "address",
          "name": "_admin",
          "type": "address"
        }
      ],
      "name": "setAdmin",
      "outputs": [],
      "stateMutability": "nonpayable",
      "type": "function"
    },
    {
      "inputs": [
        {
          "internalType": "uint256",
          "name": "_buffer",
          "type": "uint256"
        }
      ],
      "name": "setBuffer",
      "outputs": [],
      "stateMutability": "nonpayable",
      "type": "function"
    },
    {
      "inputs": [
        {
          "internalType": "address",
          "name": "_handler",
          "type": "address"
        },
        {
          "internalType": "bool",
          "name": "_isActive",
          "type": "bool"
        }
      ],
      "name": "setContractHandler",
      "outputs": [],
      "stateMutability": "nonpayable",
      "type": "function"
    },
    {
      "inputs": [
        {
          "internalType": "address",
          "name": "_target",
          "type": "address"
        },
        {
          "internalType": "address",
          "name": "_admin",
          "type": "address"
        }
      ],
      "name": "setExternalAdmin",
      "outputs": [],
      "stateMutability": "nonpayable",
      "type": "function"
    },
    {
      "inputs": [
        {
          "internalType": "address",
          "name": "_priceFeed",
          "type": "address"
        },
        {
          "internalType": "bool",
          "name": "_favorPrimaryPrice",
          "type": "bool"
        }
      ],
      "name": "setFavorPrimaryPrice",
      "outputs": [],
      "stateMutability": "nonpayable",
      "type": "function"
    },
    {
      "inputs": [
        {
          "internalType": "address",
          "name": "_target",
          "type": "address"
        },
        {
          "internalType": "address",
          "name": "_gov",
          "type": "address"
        }
      ],
      "name": "setGov",
      "outputs": [],
      "stateMutability": "nonpayable",
      "type": "function"
    },
    {
      "inputs": [
        {
          "internalType": "address",
          "name": "_priceFeed",
          "type": "address"
        },
        {
          "internalType": "bool",
          "name": "_isEnabled",
          "type": "bool"
        }
      ],
      "name": "setIsAmmEnabled",
      "outputs": [],
      "stateMutability": "nonpayable",
      "type": "function"
    },
    {
      "inputs": [
        {
          "internalType": "address",
          "name": "_priceFeed",
          "type": "address"
        },
        {
          "internalType": "bool",
          "name": "_isEnabled",
          "type": "bool"
        }
      ],
      "name": "setIsSecondaryPriceEnabled",
      "outputs": [],
      "stateMutability": "nonpayable",
      "type": "function"
    },
    {
      "inputs": [
        {
          "internalType": "address",
          "name": "_fastPriceFeed",
          "type": "address"
        },
        {
          "internalType": "bool",
          "name": "_isSpreadEnabled",
          "type": "bool"
        }
      ],
      "name": "setIsSpreadEnabled",
      "outputs": [],
      "stateMutability": "nonpayable",
      "type": "function"
    },
    {
      "inputs": [
        {
          "internalType": "address",
          "name": "_keeper",
          "type": "address"
        },
        {
          "internalType": "bool",
          "name": "_isActive",
          "type": "bool"
        }
      ],
      "name": "setKeeper",
      "outputs": [],
      "stateMutability": "nonpayable",
      "type": "function"
    },
    {
      "inputs": [
        {
          "internalType": "address",
          "name": "_fastPriceFeed",
          "type": "address"
        },
        {
          "internalType": "uint256",
          "name": "_maxPriceUpdateDelay",
          "type": "uint256"
        }
      ],
      "name": "setMaxPriceUpdateDelay",
      "outputs": [],
      "stateMutability": "nonpayable",
      "type": "function"
    },
    {
      "inputs": [
        {
          "internalType": "address",
          "name": "_priceFeed",
          "type": "address"
        },
        {
          "internalType": "uint256",
          "name": "_maxStrictPriceDeviation",
          "type": "uint256"
        }
      ],
      "name": "setMaxStrictPriceDeviation",
      "outputs": [],
      "stateMutability": "nonpayable",
      "type": "function"
    },
    {
      "inputs": [
        {
          "internalType": "address",
          "name": "_fastPriceFeed",
          "type": "address"
        },
        {
          "internalType": "uint256",
          "name": "_minBlockInterval",
          "type": "uint256"
        }
      ],
      "name": "setMinBlockInterval",
      "outputs": [],
      "stateMutability": "nonpayable",
      "type": "function"
    },
    {
      "inputs": [
        {
          "internalType": "address",
          "name": "_fastPriceFeed",
          "type": "address"
        },
        {
          "internalType": "uint256",
          "name": "_priceDuration",
          "type": "uint256"
        }
      ],
      "name": "setPriceDuration",
      "outputs": [],
      "stateMutability": "nonpayable",
      "type": "function"
    },
    {
      "inputs": [
        {
          "internalType": "address",
          "name": "_fastPriceFeed",
          "type": "address"
        },
        {
          "internalType": "address",
          "name": "_account",
          "type": "address"
        },
        {
          "internalType": "bool",
          "name": "_isActive",
          "type": "bool"
        }
      ],
      "name": "setPriceFeedUpdater",
      "outputs": [],
      "stateMutability": "nonpayable",
      "type": "function"
    },
    {
      "inputs": [
        {
          "internalType": "address",
          "name": "_fastPriceFeed",
          "type": "address"
        },
        {
          "internalType": "address",
          "name": "_account",
          "type": "address"
        },
        {
          "internalType": "bool",
          "name": "_isActive",
          "type": "bool"
        }
      ],
      "name": "setPriceFeedWatcher",
      "outputs": [],
      "stateMutability": "nonpayable",
      "type": "function"
    },
    {
      "inputs": [
        {
          "internalType": "address",
          "name": "_priceFeed",
          "type": "address"
        },
        {
          "internalType": "uint256",
          "name": "_priceSampleSpace",
          "type": "uint256"
        }
      ],
      "name": "setPriceSampleSpace",
      "outputs": [],
      "stateMutability": "nonpayable",
      "type": "function"
    },
    {
      "inputs": [
        {
          "internalType": "address",
          "name": "_priceFeed",
          "type": "address"
        },
        {
          "internalType": "address",
          "name": "_token",
          "type": "address"
        },
        {
          "internalType": "uint256",
          "name": "_spreadBasisPoints",
          "type": "uint256"
        }
      ],
      "name": "setSpreadBasisPoints",
      "outputs": [],
      "stateMutability": "nonpayable",
      "type": "function"
    },
    {
      "inputs": [
        {
          "internalType": "address",
          "name": "_fastPriceFeed",
          "type": "address"
        },
        {
          "internalType": "uint256",
          "name": "_spreadBasisPointsIfChainError",
          "type": "uint256"
        }
      ],
      "name": "setSpreadBasisPointsIfChainError",
      "outputs": [],
      "stateMutability": "nonpayable",
      "type": "function"
    },
    {
      "inputs": [
        {
          "internalType": "address",
          "name": "_fastPriceFeed",
          "type": "address"
        },
        {
          "internalType": "uint256",
          "name": "_spreadBasisPointsIfInactive",
          "type": "uint256"
        }
      ],
      "name": "setSpreadBasisPointsIfInactive",
      "outputs": [],
      "stateMutability": "nonpayable",
      "type": "function"
    },
    {
      "inputs": [
        {
          "internalType": "address",
          "name": "_priceFeed",
          "type": "address"
        },
        {
          "internalType": "bool",
          "name": "_useV2Pricing",
          "type": "bool"
        }
      ],
      "name": "setUseV2Pricing",
      "outputs": [],
      "stateMutability": "nonpayable",
      "type": "function"
    },
    {
      "inputs": [
        {
          "internalType": "address",
          "name": "_fastPriceFeed",
          "type": "address"
        },
        {
          "internalType": "address",
          "name": "_vaultPriceFeed",
          "type": "address"
        }
      ],
      "name": "setVaultPriceFeed",
      "outputs": [],
      "stateMutability": "nonpayable",
      "type": "function"
    },
    {
      "inputs": [
        {
          "internalType": "address",
          "name": "_token",
          "type": "address"
        },
        {
          "internalType": "address",
          "name": "_spender",
          "type": "address"
        },
        {
          "internalType": "uint256",
          "name": "_amount",
          "type": "uint256"
        }
      ],
      "name": "signalApprove",
      "outputs": [],
      "stateMutability": "nonpayable",
      "type": "function"
    },
    {
      "inputs": [
        {
          "internalType": "address",
          "name": "_vaultPriceFeed",
          "type": "address"
        },
        {
          "internalType": "address",
          "name": "_token",
          "type": "address"
        },
        {
          "internalType": "address",
          "name": "_priceFeed",
          "type": "address"
        },
        {
          "internalType": "uint256",
          "name": "_priceDecimals",
          "type": "uint256"
        },
        {
          "internalType": "bool",
          "name": "_isStrictStable",
          "type": "bool"
        }
      ],
      "name": "signalPriceFeedSetTokenConfig",
      "outputs": [],
      "stateMutability": "nonpayable",
      "type": "function"
    },
    {
      "inputs": [
        {
          "internalType": "address",
          "name": "_target",
          "type": "address"
        },
        {
          "internalType": "address",
          "name": "_gov",
          "type": "address"
        }
      ],
      "name": "signalSetGov",
      "outputs": [],
      "stateMutability": "nonpayable",
      "type": "function"
    },
    {
      "inputs": [
        {
          "internalType": "address",
          "name": "_fastPriceFeed",
          "type": "address"
        },
        {
          "internalType": "address",
          "name": "_account",
          "type": "address"
        },
        {
          "internalType": "bool",
          "name": "_isActive",
          "type": "bool"
        }
      ],
      "name": "signalSetPriceFeedUpdater",
      "outputs": [],
      "stateMutability": "nonpayable",
      "type": "function"
    },
    {
      "inputs": [
        {
          "internalType": "address",
          "name": "_fastPriceFeed",
          "type": "address"
        },
        {
          "internalType": "address",
          "name": "_account",
          "type": "address"
        },
        {
          "internalType": "bool",
          "name": "_isActive",
          "type": "bool"
        }
      ],
      "name": "signalSetPriceFeedWatcher",
      "outputs": [],
      "stateMutability": "nonpayable",
      "type": "function"
    },
    {
      "inputs": [
        {
          "internalType": "address",
          "name": "_target",
          "type": "address"
        },
        {
          "internalType": "address",
          "name": "_token",
          "type": "address"
        },
        {
          "internalType": "address",
          "name": "_receiver",
          "type": "address"
        },
        {
          "internalType": "uint256",
          "name": "_amount",
          "type": "uint256"
        }
      ],
      "name": "signalWithdrawToken",
      "outputs": [],
      "stateMutability": "nonpayable",
      "type": "function"
    },
    {
      "inputs": [],
      "name": "tokenManager",
      "outputs": [
        {
          "internalType": "address",
          "name": "",
          "type": "address"
        }
      ],
      "stateMutability": "view",
      "type": "function"
    },
    {
      "inputs": [
        {
          "internalType": "address",
          "name": "_sender",
          "type": "address"
        },
        {
          "internalType": "address",
          "name": "_token",
          "type": "address"
        },
        {
          "internalType": "uint256",
          "name": "_amount",
          "type": "uint256"
        }
      ],
      "name": "transferIn",
      "outputs": [],
      "stateMutability": "nonpayable",
      "type": "function"
    },
    {
      "inputs": [
        {
          "internalType": "address",
          "name": "_target",
          "type": "address"
        },
        {
          "internalType": "address",
          "name": "_token",
          "type": "address"
        },
        {
          "internalType": "address",
          "name": "_receiver",
          "type": "address"
        },
        {
          "internalType": "uint256",
          "name": "_amount",
          "type": "uint256"
        }
      ],
      "name": "withdrawToken",
      "outputs": [],
      "stateMutability": "nonpayable",
      "type": "function"
    }
  ],
  "bytecode": {
    "object": "0x60806040523480156200001157600080fd5b5060405162002019380380620020198339810160408190526200003491620000e1565b620697808211156200008c5760405162461bcd60e51b815260206004820152601960248201527f54696d656c6f636b3a20696e76616c6964205f62756666657200000000000000604482015260640160405180910390fd5b600180546001600160a01b039485166001600160a01b0319918216179091556000929092556002805491909316911617905562000122565b80516001600160a01b0381168114620000dc57600080fd5b919050565b600080600060608486031215620000f757600080fd5b6200010284620000c4565b9250602084015191506200011960408501620000c4565b90509250925092565b611ee780620001326000396000f3fe608060405234801561001057600080fd5b50600436106102535760003560e01c80635b6348ac11610146578063bd0f1c45116100c3578063e1f21c6711610087578063e1f21c6714610545578063e30569e514610558578063e4652f4914610578578063e7b0a3a11461058b578063edaafe201461059e578063f851a440146105a757600080fd5b8063bd0f1c45146104e6578063be03af58146104f9578063d1b9e8531461050c578063db5c875f1461051f578063dce6e18d1461053257600080fd5b80637b9fb2271161010a5780637b9fb22714610487578063996a7a1e1461049a578063a0a316a2146104ad578063adc7ea37146104c0578063b74517ba146104d357600080fd5b80635b6348ac1461041357806361d07569146104265780636ba42aaa1461043e578063704b6c0214610461578063781cc3d31461047457600080fd5b8063384cae73116101d45780634cd23f3b116101985780634cd23f3b146103b457806350e32d1d146103c757806351a6de0d146103da57806355ef1395146103ed5780635843752f1461040057600080fd5b8063384cae7314610335578063395bc7941461034857806343ec66191461035b578063454ffa461461036e57806346ea87af1461038157600080fd5b80632a709b141161021b5780632a709b14146102b95780632a72e8ba146102e95780632cfe82e8146102fc5780633335e38a1461030f5780633799c6181461032257600080fd5b8063185051c11461025857806321754d9e1461026d5780632877f4c3146102805780632965c8c714610293578063296b07e5146102a6575b600080fd5b61026b610266366004611a53565b6105ba565b005b61026b61027b366004611a8a565b610618565b61026b61028e366004611ad5565b6106f6565b61026b6102a1366004611a53565b6107ea565b61026b6102b4366004611aff565b610842565b6002546102cc906001600160a01b031681565b6040516001600160a01b0390911681526020015b60405180910390f35b61026b6102f7366004611b3c565b610911565b61026b61030a366004611b83565b6109b2565b61026b61031d366004611bb6565b610a0a565b61026b610330366004611b3c565b610af3565b61026b610343366004611bb6565b610bab565b61026b610356366004611ad5565b610c73565b61026b610369366004611a53565b610cca565b61026b61037c366004611a53565b610d22565b6103a461038f366004611c18565b60046020526000908152604090205460ff1681565b60405190151581526020016102e0565b61026b6103c2366004611a8a565b610d7a565b61026b6103d5366004611b3c565b610e3e565b61026b6103e8366004611b83565b610edf565b61026b6103fb366004611b83565b610fa9565b61026b61040e366004611a53565b611059565b61026b610421366004611ad5565b6110b1565b6104306206978081565b6040519081526020016102e0565b6103a461044c366004611c18565b60056020526000908152604090205460ff1681565b61026b61046f366004611c18565b611122565b61026b610482366004611c3a565b61116e565b61026b610495366004611a53565b6111a4565b61026b6104a8366004611b83565b6111fc565b61026b6104bb366004611ad5565b6112ac565b61026b6104ce366004611c3a565b611303565b61026b6104e1366004611ad5565b6113e2565b61026b6104f4366004611ad5565b611453565b61026b610507366004611ad5565b6114aa565b61026b61051a366004611a53565b611501565b61026b61052d366004611b3c565b611556565b61026b610540366004611c53565b611597565b61026b610553366004611c53565b611648565b610430610566366004611c3a565b60036020526000908152604090205481565b61026b610586366004611c53565b61172d565b61026b610599366004611c53565b6117d6565b61043060005481565b6001546102cc906001600160a01b031681565b6001546001600160a01b031633146105ed5760405162461bcd60e51b81526004016105e490611c8f565b60405180910390fd5b6001600160a01b03919091166000908152600460205260409020805460ff1916911515919091179055565b6001546001600160a01b031633146106425760405162461bcd60e51b81526004016105e490611c8f565b60008484848460405160200161065b9493929190611cbc565b60405160208183030381529060405280519060200120905061067c81611869565b6106858161192f565b6040516301e3366760e01b81526001600160a01b0385811660048301528481166024830152604482018490528616906301e3366790606401600060405180830381600087803b1580156106d757600080fd5b505af11580156106eb573d6000803e3d6000fd5b505050505050505050565b6001546001600160a01b031633148061071e57503360009081526004602052604090205460ff165b61073a5760405162461bcd60e51b81526004016105e490611c8f565b600581111561078b5760405162461bcd60e51b815260206004820152601960248201527f496e76616c6964205f707269636553616d706c6553706163650000000000000060448201526064016105e4565b604051632fa03b8f60e01b8152600481018290526001600160a01b03831690632fa03b8f906024015b600060405180830381600087803b1580156107ce57600080fd5b505af11580156107e2573d6000803e3d6000fd5b505050505050565b6001546001600160a01b031633146108145760405162461bcd60e51b81526004016105e490611c8f565b60405163eb1c92a960e01b815281151560048201526001600160a01b0383169063eb1c92a9906024016107b4565b6001546001600160a01b031633148061086a57503360009081526004602052604090205460ff165b8061088457503360009081526005602052604090205460ff165b6108a05760405162461bcd60e51b81526004016105e490611c8f565b6040516335a50ddb60e21b81526001600160a01b03848116600483015283151560248301526044820183905285169063d694376c906064015b600060405180830381600087803b1580156108f357600080fd5b505af1158015610907573d6000803e3d6000fd5b5050505050505050565b6001546001600160a01b0316331461093b5760405162461bcd60e51b81526004016105e490611c8f565b600083838360405160200161095293929190611d08565b60405160208183030381529060405280519060200120905061097381611869565b61097c8161192f565b6040516331cb610560e01b81526001600160a01b03848116600483015283151560248301528516906331cb6105906044016108d9565b6001546001600160a01b031633146109dc5760405162461bcd60e51b81526004016105e490611c8f565b60405163238aafb760e01b81526001600160a01b03828116600483015283169063238aafb7906024016107b4565b6001546001600160a01b03163314610a345760405162461bcd60e51b81526004016105e490611c8f565b60008585858585604051602001610a4f959493929190611d52565b604051602081830303815290604052805190602001209050610a7081611869565b610a798161192f565b604051634b9ade4760e01b81526001600160a01b0386811660048301528581166024830152604482018590528315156064830152871690634b9ade4790608401600060405180830381600087803b158015610ad357600080fd5b505af1158015610ae7573d6000803e3d6000fd5b50505050505050505050565b6001546001600160a01b03163314610b1d5760405162461bcd60e51b81526004016105e490611c8f565b6000838383604051602001610b3493929190611d08565b604051602081830303815290604052805190602001209050610b55816119da565b604080516001600160a01b03808716825285166020820152831515918101919091527f6ab3018654d3055eae2cb61d3dffe4cbb30f257d54ec966059b4d00b325a3669906060015b60405180910390a150505050565b6001546001600160a01b03163314610bd55760405162461bcd60e51b81526004016105e490611c8f565b60008585858585604051602001610bf0959493929190611d52565b604051602081830303815290604052805190602001209050610c11816119da565b604080516001600160a01b038881168252878116602083015286168183015260608101859052831515608082015290517f1b2ddf357ae016d8c127dcd3a73c34744fdeaeeb4b7ef1e04490cebf7f4816fe9181900360a00190a1505050505050565b6001546001600160a01b03163314610c9d5760405162461bcd60e51b81526004016105e490611c8f565b604051630b70c7b760e41b8152600481018290526001600160a01b0383169063b70c7b70906024016107b4565b6001546001600160a01b03163314610cf45760405162461bcd60e51b81526004016105e490611c8f565b6040516319d31bf560e31b815281151560048201526001600160a01b0383169063ce98dfa8906024016107b4565b6001546001600160a01b03163314610d4c5760405162461bcd60e51b81526004016105e490611c8f565b6040516303f4d3b160e61b815281151560048201526001600160a01b0383169063fd34ec40906024016107b4565b6001546001600160a01b03163314610da45760405162461bcd60e51b81526004016105e490611c8f565b600084848484604051602001610dbd9493929190611cbc565b604051602081830303815290604052805190602001209050610dde816119da565b604080516001600160a01b0387811682528681166020830152851681830152606081018490526080810183905290517f9ed7b0f07a9eed51079fab67f6d0f141f167f5b17fdb5a23282280e15fcafed39181900360a00190a15050505050565b6001546001600160a01b03163314610e685760405162461bcd60e51b81526004016105e490611c8f565b6000838383604051602001610e7f93929190611db9565b604051602081830303815290604052805190602001209050610ea081611869565b610ea98161192f565b604051631a15339160e01b81526001600160a01b0384811660048301528315156024830152851690631a153391906044016108d9565b6001546001600160a01b03163314610f095760405162461bcd60e51b81526004016105e490611c8f565b60008282604051602001610f1e929190611e03565b604051602081830303815290604052805190602001209050610f3f81611869565b610f488161192f565b6040516367d6abd160e11b81526001600160a01b03838116600483015284169063cfad57a2906024015b600060405180830381600087803b158015610f8c57600080fd5b505af1158015610fa0573d6000803e3d6000fd5b50505050505050565b6001546001600160a01b03163314610fd35760405162461bcd60e51b81526004016105e490611c8f565b306001600160a01b0383160361102b5760405162461bcd60e51b815260206004820152601960248201527f54696d656c6f636b3a20696e76616c6964205f7461726765740000000000000060448201526064016105e4565b604051633825b60160e11b81526001600160a01b03828116600483015283169063704b6c02906024016107b4565b6001546001600160a01b031633146110835760405162461bcd60e51b81526004016105e490611c8f565b604051632645f71d60e21b815281151560048201526001600160a01b03831690639917dc74906024016107b4565b6001546001600160a01b03163314806110d957503360009081526004602052604090205460ff165b6110f55760405162461bcd60e51b81526004016105e490611c8f565b6040516322dd9dfd60e21b8152600481018290526001600160a01b03831690638b7677f4906024016107b4565b6002546001600160a01b0316331461114c5760405162461bcd60e51b81526004016105e490611c8f565b600180546001600160a01b0319166001600160a01b0392909216919091179055565b6001546001600160a01b031633146111985760405162461bcd60e51b81526004016105e490611c8f565b6111a18161192f565b50565b6001546001600160a01b031633146111ce5760405162461bcd60e51b81526004016105e490611c8f565b60405163604f37e960e01b815281151560048201526001600160a01b0383169063604f37e9906024016107b4565b6001546001600160a01b031633146112265760405162461bcd60e51b81526004016105e490611c8f565b6000828260405160200161123b929190611e03565b60405160208183030381529060405280519060200120905061125c816119da565b604080516001600160a01b038086168252841660208201529081018290527f2701a94fd55a560e291f3c54d36580040670d6fde558a77a75d619e38139f7139060600160405180910390a1505050565b6001546001600160a01b031633146112d65760405162461bcd60e51b81526004016105e490611c8f565b604051632fbfe3d360e01b8152600481018290526001600160a01b03831690632fbfe3d3906024016107b4565b6001546001600160a01b0316331461132d5760405162461bcd60e51b81526004016105e490611c8f565b620697808111156113805760405162461bcd60e51b815260206004820152601960248201527f54696d656c6f636b3a20696e76616c6964205f6275666665720000000000000060448201526064016105e4565b60005481116113dd5760405162461bcd60e51b8152602060048201526024808201527f54696d656c6f636b3a206275666665722063616e6e6f74206265206465637265604482015263185cd95960e21b60648201526084016105e4565b600055565b6001546001600160a01b031633148061140a57503360009081526004602052604090205460ff165b6114265760405162461bcd60e51b81526004016105e490611c8f565b6040516344c2319360e01b8152600481018290526001600160a01b038316906344c23193906024016107b4565b6001546001600160a01b0316331461147d5760405162461bcd60e51b81526004016105e490611c8f565b60405163378346e560e21b8152600481018290526001600160a01b0383169063de0d1b94906024016107b4565b6001546001600160a01b031633146114d45760405162461bcd60e51b81526004016105e490611c8f565b60405163d6a153f160e01b8152600481018290526001600160a01b0383169063d6a153f1906024016107b4565b6001546001600160a01b0316331461152b5760405162461bcd60e51b81526004016105e490611c8f565b6001600160a01b03919091166000908152600560205260409020805460ff1916911515919091179055565b6001546001600160a01b031633146115805760405162461bcd60e51b81526004016105e490611c8f565b6000838383604051602001610b3493929190611db9565b6001546001600160a01b031633146115c15760405162461bcd60e51b81526004016105e490611c8f565b60008383836040516020016115d893929190611e34565b6040516020818303038152906040528051906020012090506115f9816119da565b604080516001600160a01b03808716825285166020820152908101839052606081018290527f6af9d86ba7407a934e941ed8ae5f779369a88fe8ba2cd1c204185d6f8a8287fd90608001610b9d565b6001546001600160a01b031633146116725760405162461bcd60e51b81526004016105e490611c8f565b600083838360405160200161168993929190611e34565b6040516020818303038152906040528051906020012090506116aa81611869565b6116b38161192f565b60405163095ea7b360e01b81526001600160a01b0384811660048301526024820184905285169063095ea7b3906044016020604051808303816000875af1158015611702573d6000803e3d6000fd5b505050506040513d601f19601f820116820180604052508101906117269190611e6d565b5050505050565b6001546001600160a01b031633146117575760405162461bcd60e51b81526004016105e490611c8f565b6040516323b872dd60e01b81526001600160a01b038481166004830152306024830152604482018390528316906323b872dd906064016020604051808303816000875af11580156117ac573d6000803e3d6000fd5b505050506040513d601f19601f820116820180604052508101906117d09190611e6d565b50505050565b6001546001600160a01b03163314806117fe57503360009081526004602052604090205460ff165b8061181857503360009081526005602052604090205460ff165b6118345760405162461bcd60e51b81526004016105e490611c8f565b604051630137112760e71b81526001600160a01b03838116600483015260248201839052841690639b88938090604401610f72565b60008181526003602052604081205490036118c65760405162461bcd60e51b815260206004820152601e60248201527f54696d656c6f636b3a20616374696f6e206e6f74207369676e616c6c6564000060448201526064016105e4565b60008181526003602052604090205442116111a15760405162461bcd60e51b8152602060048201526024808201527f54696d656c6f636b3a20616374696f6e2074696d65206e6f74207965742070616044820152631cdcd95960e21b60648201526084016105e4565b600081815260036020526040812054900361198c5760405162461bcd60e51b815260206004820152601960248201527f54696d656c6f636b3a20696e76616c6964205f616374696f6e0000000000000060448201526064016105e4565b60008181526003602052604080822091909155517f194ed6dd5e37e2acc44a19455c3f208c4831ee695fe362d9c4ef2d316bc53aec906119cf9083815260200190565b60405180910390a150565b6000546119e79042611e8a565b60008281526003602090815260409182902092909255518281527f5fb9c0ecf7b4a28c4c480212e868f9da7f373a2ed4d23498b0be6aadf35242fb91016119cf565b80356001600160a01b0381168114611a4057600080fd5b919050565b80151581146111a157600080fd5b60008060408385031215611a6657600080fd5b611a6f83611a29565b91506020830135611a7f81611a45565b809150509250929050565b60008060008060808587031215611aa057600080fd5b611aa985611a29565b9350611ab760208601611a29565b9250611ac560408601611a29565b9396929550929360600135925050565b60008060408385031215611ae857600080fd5b611af183611a29565b946020939093013593505050565b60008060008060808587031215611b1557600080fd5b611b1e85611a29565b9350611b2c60208601611a29565b92506040850135611ac581611a45565b600080600060608486031215611b5157600080fd5b611b5a84611a29565b9250611b6860208501611a29565b91506040840135611b7881611a45565b809150509250925092565b60008060408385031215611b9657600080fd5b611b9f83611a29565b9150611bad60208401611a29565b90509250929050565b600080600080600060a08688031215611bce57600080fd5b611bd786611a29565b9450611be560208701611a29565b9350611bf360408701611a29565b9250606086013591506080860135611c0a81611a45565b809150509295509295909350565b600060208284031215611c2a57600080fd5b611c3382611a29565b9392505050565b600060208284031215611c4c57600080fd5b5035919050565b600080600060608486031215611c6857600080fd5b611c7184611a29565b9250611c7f60208501611a29565b9150604084013590509250925092565b6020808252601390820152722a34b6b2b637b1b59d103337b93134b23232b760691b604082015260600190565b6c3bb4ba34323930bbaa37b5b2b760991b81526001600160601b0319606095861b8116600d83015293851b841660218201529190931b9091166035820152604981019190915260690190565b7239b2ba283934b1b2a332b2b22bb0ba31b432b960691b81526001600160601b0319606094851b811660138301529290931b9091166027830152151560f81b603b820152603c0190565b7f707269636546656564536574546f6b656e436f6e66696700000000000000000081526001600160601b0319606096871b8116601783015294861b8516602b8201529290941b909216603f820152605381019190915290151560f81b607382015260740190565b7239b2ba283934b1b2a332b2b22ab83230ba32b960691b81526001600160601b0319606094851b811660138301529290931b9091166027830152151560f81b603b820152603c0190565b6539b2ba23b7bb60d11b81526001600160601b0319606093841b811660068301529190921b16601a820152602e0190565b66617070726f766560c81b81526001600160601b0319606094851b811660078301529290931b909116601b830152602f820152604f0190565b600060208284031215611e7f57600080fd5b8151611c3381611a45565b80820180821115611eab57634e487b7160e01b600052601160045260246000fd5b9291505056fea264697066735822122008283838c6917ffaa17a8d6519f7f877128dfbd0a8c909e8d573f474e9fd683a64736f6c63430008120033",
    "linkReferences": {}
  },
  "methodIdentifiers": {
    "MAX_BUFFER()": "61d07569",
    "admin()": "f851a440",
    "approve(address,address,uint256)": "e1f21c67",
    "buffer()": "edaafe20",
    "cancelAction(bytes32)": "781cc3d3",
    "isHandler(address)": "46ea87af",
    "isKeeper(address)": "6ba42aaa",
    "pendingActions(bytes32)": "e30569e5",
    "priceFeedSetTokenConfig(address,address,address,uint256,bool)": "3335e38a",
    "setAdjustment(address,address,bool,uint256)": "296b07e5",
    "setAdmin(address)": "704b6c02",
    "setBuffer(uint256)": "adc7ea37",
    "setContractHandler(address,bool)": "185051c1",
    "setExternalAdmin(address,address)": "55ef1395",
    "setFavorPrimaryPrice(address,bool)": "7b9fb227",
    "setGov(address,address)": "51a6de0d",
    "setIsAmmEnabled(address,bool)": "5843752f",
    "setIsSecondaryPriceEnabled(address,bool)": "2965c8c7",
    "setIsSpreadEnabled(address,bool)": "43ec6619",
    "setKeeper(address,bool)": "d1b9e853",
    "setMaxPriceUpdateDelay(address,uint256)": "5b6348ac",
    "setMaxStrictPriceDeviation(address,uint256)": "a0a316a2",
    "setMinBlockInterval(address,uint256)": "be03af58",
    "setPriceDuration(address,uint256)": "b74517ba",
    "setPriceFeedUpdater(address,address,bool)": "50e32d1d",
    "setPriceFeedWatcher(address,address,bool)": "2a72e8ba",
    "setPriceSampleSpace(address,uint256)": "2877f4c3",
    "setSpreadBasisPoints(address,address,uint256)": "e7b0a3a1",
    "setSpreadBasisPointsIfChainError(address,uint256)": "bd0f1c45",
    "setSpreadBasisPointsIfInactive(address,uint256)": "395bc794",
    "setUseV2Pricing(address,bool)": "454ffa46",
    "setVaultPriceFeed(address,address)": "2cfe82e8",
    "signalApprove(address,address,uint256)": "dce6e18d",
    "signalPriceFeedSetTokenConfig(address,address,address,uint256,bool)": "384cae73",
    "signalSetGov(address,address)": "996a7a1e",
    "signalSetPriceFeedUpdater(address,address,bool)": "db5c875f",
    "signalSetPriceFeedWatcher(address,address,bool)": "3799c618",
    "signalWithdrawToken(address,address,address,uint256)": "4cd23f3b",
    "tokenManager()": "2a709b14",
    "transferIn(address,address,uint256)": "e4652f49",
    "withdrawToken(address,address,address,uint256)": "21754d9e"
  },
  "id": 67
}