{"abi":[{"type":"constructor","inputs":[{"name":"_admin","type":"address","internalType":"address"},{"name":"_buffer","type":"uint256","internalType":"uint256"},{"name":"_tokenManager","type":"address","internalType":"address"}],"stateMutability":"nonpayable"},{"type":"function","name":"MAX_BUFFER","inputs":[],"outputs":[{"name":"","type":"uint256","internalType":"uint256"}],"stateMutability":"view"},{"type":"function","name":"admin","inputs":[],"outputs":[{"name":"","type":"address","internalType":"address"}],"stateMutability":"view"},{"type":"function","name":"approve","inputs":[{"name":"_token","type":"address","internalType":"address"},{"name":"_spender","type":"address","internalType":"address"},{"name":"_amount","type":"uint256","internalType":"uint256"}],"outputs":[],"stateMutability":"nonpayable"},{"type":"function","name":"buffer","inputs":[],"outputs":[{"name":"","type":"uint256","internalType":"uint256"}],"stateMutability":"view"},{"type":"function","name":"cancelAction","inputs":[{"name":"_action","type":"bytes32","internalType":"bytes32"}],"outputs":[],"stateMutability":"nonpayable"},{"type":"function","name":"isHandler","inputs":[{"name":"","type":"address","internalType":"address"}],"outputs":[{"name":"","type":"bool","internalType":"bool"}],"stateMutability":"view"},{"type":"function","name":"isKeeper","inputs":[{"name":"","type":"address","internalType":"address"}],"outputs":[{"name":"","type":"bool","internalType":"bool"}],"stateMutability":"view"},{"type":"function","name":"pendingActions","inputs":[{"name":"","type":"bytes32","internalType":"bytes32"}],"outputs":[{"name":"","type":"uint256","internalType":"uint256"}],"stateMutability":"view"},{"type":"function","name":"priceFeedSetTokenConfig","inputs":[{"name":"_vaultPriceFeed","type":"address","internalType":"address"},{"name":"_token","type":"address","internalType":"address"},{"name":"_priceFeed","type":"address","internalType":"address"},{"name":"_priceDecimals","type":"uint256","internalType":"uint256"},{"name":"_isStrictStable","type":"bool","internalType":"bool"}],"outputs":[],"stateMutability":"nonpayable"},{"type":"function","name":"setAdjustment","inputs":[{"name":"_priceFeed","type":"address","internalType":"address"},{"name":"_token","type":"address","internalType":"address"},{"name":"_isAdditive","type":"bool","internalType":"bool"},{"name":"_adjustmentBps","type":"uint256","internalType":"uint256"}],"outputs":[],"stateMutability":"nonpayable"},{"type":"function","name":"setAdmin","inputs":[{"name":"_admin","type":"address","internalType":"address"}],"outputs":[],"stateMutability":"nonpayable"},{"type":"function","name":"setBuffer","inputs":[{"name":"_buffer","type":"uint256","internalType":"uint256"}],"outputs":[],"stateMutability":"nonpayable"},{"type":"function","name":"setContractHandler","inputs":[{"name":"_handler","type":"address","internalType":"address"},{"name":"_isActive","type":"bool","internalType":"bool"}],"outputs":[],"stateMutability":"nonpayable"},{"type":"function","name":"setExternalAdmin","inputs":[{"name":"_target","type":"address","internalType":"address"},{"name":"_admin","type":"address","internalType":"address"}],"outputs":[],"stateMutability":"nonpayable"},{"type":"function","name":"setGov","inputs":[{"name":"_target","type":"address","internalType":"address"},{"name":"_gov","type":"address","internalType":"address"}],"outputs":[],"stateMutability":"nonpayable"},{"type":"function","name":"setIsAmmEnabled","inputs":[{"name":"_priceFeed","type":"address","internalType":"address"},{"name":"_isEnabled","type":"bool","internalType":"bool"}],"outputs":[],"stateMutability":"nonpayable"},{"type":"function","name":"setIsSecondaryPriceEnabled","inputs":[{"name":"_priceFeed","type":"address","internalType":"address"},{"name":"_isEnabled","type":"bool","internalType":"bool"}],"outputs":[],"stateMutability":"nonpayable"},{"type":"function","name":"setIsSpreadEnabled","inputs":[{"name":"_fastPriceFeed","type":"address","internalType":"address"},{"name":"_isSpreadEnabled","type":"bool","internalType":"bool"}],"outputs":[],"stateMutability":"nonpayable"},{"type":"function","name":"setKeeper","inputs":[{"name":"_keeper","type":"address","internalType":"address"},{"name":"_isActive","type":"bool","internalType":"bool"}],"outputs":[],"stateMutability":"nonpayable"},{"type":"function","name":"setMaxPriceUpdateDelay","inputs":[{"name":"_fastPriceFeed","type":"address","internalType":"address"},{"name":"_maxPriceUpdateDelay","type":"uint256","internalType":"uint256"}],"outputs":[],"stateMutability":"nonpayable"},{"type":"function","name":"setMaxStrictPriceDeviation","inputs":[{"name":"_priceFeed","type":"address","internalType":"address"},{"name":"_maxStrictPriceDeviation","type":"uint256","internalType":"uint256"}],"outputs":[],"stateMutability":"nonpayable"},{"type":"function","name":"setMinBlockInterval","inputs":[{"name":"_fastPriceFeed","type":"address","internalType":"address"},{"name":"_minBlockInterval","type":"uint256","internalType":"uint256"}],"outputs":[],"stateMutability":"nonpayable"},{"type":"function","name":"setPriceDuration","inputs":[{"name":"_fastPriceFeed","type":"address","internalType":"address"},{"name":"_priceDuration","type":"uint256","internalType":"uint256"}],"outputs":[],"stateMutability":"nonpayable"},{"type":"function","name":"setPriceFeedUpdater","inputs":[{"name":"_fastPriceFeed","type":"address","internalType":"address"},{"name":"_account","type":"address","internalType":"address"},{"name":"_isActive","type":"bool","internalType":"bool"}],"outputs":[],"stateMutability":"nonpayable"},{"type":"function","name":"setPriceFeedWatcher","inputs":[{"name":"_fastPriceFeed","type":"address","internalType":"address"},{"name":"_account","type":"address","internalType":"address"},{"name":"_isActive","type":"bool","internalType":"bool"}],"outputs":[],"stateMutability":"nonpayable"},{"type":"function","name":"setPriceSampleSpace","inputs":[{"name":"_priceFeed","type":"address","internalType":"address"},{"name":"_priceSampleSpace","type":"uint256","internalType":"uint256"}],"outputs":[],"stateMutability":"nonpayable"},{"type":"function","name":"setSequencerUptimeFeed","inputs":[{"name":"_vaultPriceFeed","type":"address","internalType":"address"},{"name":"_sequencerUptimeFeed","type":"address","internalType":"address"}],"outputs":[],"stateMutability":"nonpayable"},{"type":"function","name":"setSpreadBasisPoints","inputs":[{"name":"_priceFeed","type":"address","internalType":"address"},{"name":"_token","type":"address","internalType":"address"},{"name":"_spreadBasisPoints","type":"uint256","internalType":"uint256"}],"outputs":[],"stateMutability":"nonpayable"},{"type":"function","name":"setSpreadBasisPointsIfChainError","inputs":[{"name":"_fastPriceFeed","type":"address","internalType":"address"},{"name":"_spreadBasisPointsIfChainError","type":"uint256","internalType":"uint256"}],"outputs":[],"stateMutability":"nonpayable"},{"type":"function","name":"setSpreadBasisPointsIfInactive","inputs":[{"name":"_fastPriceFeed","type":"address","internalType":"address"},{"name":"_spreadBasisPointsIfInactive","type":"uint256","internalType":"uint256"}],"outputs":[],"stateMutability":"nonpayable"},{"type":"function","name":"setUseV2Pricing","inputs":[{"name":"_priceFeed","type":"address","internalType":"address"},{"name":"_useV2Pricing","type":"bool","internalType":"bool"}],"outputs":[],"stateMutability":"nonpayable"},{"type":"function","name":"setVaultPriceFeed","inputs":[{"name":"_fastPriceFeed","type":"address","internalType":"address"},{"name":"_vaultPriceFeed","type":"address","internalType":"address"}],"outputs":[],"stateMutability":"nonpayable"},{"type":"function","name":"signalApprove","inputs":[{"name":"_token","type":"address","internalType":"address"},{"name":"_spender","type":"address","internalType":"address"},{"name":"_amount","type":"uint256","internalType":"uint256"}],"outputs":[],"stateMutability":"nonpayable"},{"type":"function","name":"signalPriceFeedSetTokenConfig","inputs":[{"name":"_vaultPriceFeed","type":"address","internalType":"address"},{"name":"_token","type":"address","internalType":"address"},{"name":"_priceFeed","type":"address","internalType":"address"},{"name":"_priceDecimals","type":"uint256","internalType":"uint256"},{"name":"_isStrictStable","type":"bool","internalType":"bool"}],"outputs":[],"stateMutability":"nonpayable"},{"type":"function","name":"signalSetGov","inputs":[{"name":"_target","type":"address","internalType":"address"},{"name":"_gov","type":"address","internalType":"address"}],"outputs":[],"stateMutability":"nonpayable"},{"type":"function","name":"signalSetPriceFeedUpdater","inputs":[{"name":"_fastPriceFeed","type":"address","internalType":"address"},{"name":"_account","type":"address","internalType":"address"},{"name":"_isActive","type":"bool","internalType":"bool"}],"outputs":[],"stateMutability":"nonpayable"},{"type":"function","name":"signalSetPriceFeedWatcher","inputs":[{"name":"_fastPriceFeed","type":"address","internalType":"address"},{"name":"_account","type":"address","internalType":"address"},{"name":"_isActive","type":"bool","internalType":"bool"}],"outputs":[],"stateMutability":"nonpayable"},{"type":"function","name":"signalSetSequencerUptimeFeed","inputs":[{"name":"_vaultPriceFeed","type":"address","internalType":"address"},{"name":"_sequencerUptimeFeed","type":"address","internalType":"address"}],"outputs":[],"stateMutability":"nonpayable"},{"type":"function","name":"signalWithdrawToken","inputs":[{"name":"_target","type":"address","internalType":"address"},{"name":"_token","type":"address","internalType":"address"},{"name":"_receiver","type":"address","internalType":"address"},{"name":"_amount","type":"uint256","internalType":"uint256"}],"outputs":[],"stateMutability":"nonpayable"},{"type":"function","name":"tokenManager","inputs":[],"outputs":[{"name":"","type":"address","internalType":"address"}],"stateMutability":"view"},{"type":"function","name":"transferIn","inputs":[{"name":"_sender","type":"address","internalType":"address"},{"name":"_token","type":"address","internalType":"address"},{"name":"_amount","type":"uint256","internalType":"uint256"}],"outputs":[],"stateMutability":"nonpayable"},{"type":"function","name":"withdrawToken","inputs":[{"name":"_target","type":"address","internalType":"address"},{"name":"_token","type":"address","internalType":"address"},{"name":"_receiver","type":"address","internalType":"address"},{"name":"_amount","type":"uint256","internalType":"uint256"}],"outputs":[],"stateMutability":"nonpayable"},{"type":"event","name":"ClearAction","inputs":[{"name":"action","type":"bytes32","indexed":false,"internalType":"bytes32"}],"anonymous":false},{"type":"event","name":"SignalApprove","inputs":[{"name":"token","type":"address","indexed":false,"internalType":"address"},{"name":"spender","type":"address","indexed":false,"internalType":"address"},{"name":"amount","type":"uint256","indexed":false,"internalType":"uint256"},{"name":"action","type":"bytes32","indexed":false,"internalType":"bytes32"}],"anonymous":false},{"type":"event","name":"SignalPendingAction","inputs":[{"name":"action","type":"bytes32","indexed":false,"internalType":"bytes32"}],"anonymous":false},{"type":"event","name":"SignalPriceFeedSetTokenConfig","inputs":[{"name":"vaultPriceFeed","type":"address","indexed":false,"internalType":"address"},{"name":"token","type":"address","indexed":false,"internalType":"address"},{"name":"priceFeed","type":"address","indexed":false,"internalType":"address"},{"name":"priceDecimals","type":"uint256","indexed":false,"internalType":"uint256"},{"name":"isStrictStable","type":"bool","indexed":false,"internalType":"bool"}],"anonymous":false},{"type":"event","name":"SignalSetGov","inputs":[{"name":"target","type":"address","indexed":false,"internalType":"address"},{"name":"gov","type":"address","indexed":false,"internalType":"address"},{"name":"action","type":"bytes32","indexed":false,"internalType":"bytes32"}],"anonymous":false},{"type":"event","name":"SignalSetPriceFeedWatcher","inputs":[{"name":"fastPriceFeed","type":"address","indexed":false,"internalType":"address"},{"name":"account","type":"address","indexed":false,"internalType":"address"},{"name":"isActive","type":"bool","indexed":false,"internalType":"bool"}],"anonymous":false},{"type":"event","name":"SignalSetSequencerUptimeFeed","inputs":[{"name":"vaultPriceFeed","type":"address","indexed":false,"internalType":"address"},{"name":"sequencerUptimeFeed","type":"address","indexed":false,"internalType":"address"},{"name":"action","type":"bytes32","indexed":false,"internalType":"bytes32"}],"anonymous":false},{"type":"event","name":"SignalWithdrawToken","inputs":[{"name":"target","type":"address","indexed":false,"internalType":"address"},{"name":"token","type":"address","indexed":false,"internalType":"address"},{"name":"receiver","type":"address","indexed":false,"internalType":"address"},{"name":"amount","type":"uint256","indexed":false,"internalType":"uint256"},{"name":"action","type":"bytes32","indexed":false,"internalType":"bytes32"}],"anonymous":false}],"bytecode":{"object":"0x60806040523480156200001157600080fd5b506040516200214f3803806200214f8339810160408190526200003491620000e1565b620697808211156200008c5760405162461bcd60e51b815260206004820152601960248201527f54696d656c6f636b3a20696e76616c6964205f62756666657200000000000000604482015260640160405180910390fd5b600180546001600160a01b039485166001600160a01b0319918216179091556000929092556002805491909316911617905562000122565b80516001600160a01b0381168114620000dc57600080fd5b919050565b600080600060608486031215620000f757600080fd5b6200010284620000c4565b9250602084015191506200011960408501620000c4565b90509250925092565b61201d80620001326000396000f3fe608060405234801561001057600080fd5b506004361061025e5760003560e01c80635b6348ac11610146578063bd0f1c45116100c3578063e1f21c6711610087578063e1f21c6714610563578063e30569e514610576578063e4652f4914610596578063e7b0a3a1146105a9578063edaafe20146105bc578063f851a440146105c557600080fd5b8063bd0f1c4514610504578063be03af5814610517578063d1b9e8531461052a578063db5c875f1461053d578063dce6e18d1461055057600080fd5b80639047f1c41161010a5780639047f1c4146104a5578063996a7a1e146104b8578063a0a316a2146104cb578063adc7ea37146104de578063b74517ba146104f157600080fd5b80635b6348ac1461043157806361d07569146104445780636ba42aaa1461045c578063704b6c021461047f578063781cc3d31461049257600080fd5b8063384cae73116101df5780634cbb62a2116101a35780634cbb62a2146103bf5780634cd23f3b146103d257806350e32d1d146103e557806351a6de0d146103f857806355ef13951461040b5780635843752f1461041e57600080fd5b8063384cae7314610340578063395bc7941461035357806343ec661914610366578063454ffa461461037957806346ea87af1461038c57600080fd5b80632a709b14116102265780632a709b14146102c45780632a72e8ba146102f45780632cfe82e8146103075780633335e38a1461031a5780633799c6181461032d57600080fd5b8063185051c11461026357806321754d9e146102785780632877f4c31461028b5780632965c8c71461029e578063296b07e5146102b1575b600080fd5b610276610271366004611b24565b6105d8565b005b610276610286366004611b5b565b610636565b610276610299366004611ba6565b61070c565b6102766102ac366004611b24565b610800565b6102766102bf366004611bd0565b610858565b6002546102d7906001600160a01b031681565b6040516001600160a01b0390911681526020015b60405180910390f35b610276610302366004611c0d565b610927565b610276610315366004611c54565b6109c8565b610276610328366004611c87565b610a20565b61027661033b366004611c0d565b610b09565b61027661034e366004611c87565b610bc1565b610276610361366004611ba6565b610c89565b610276610374366004611b24565b610ce0565b610276610387366004611b24565b610d38565b6103af61039a366004611ce9565b60046020526000908152604090205460ff1681565b60405190151581526020016102eb565b6102766103cd366004611c54565b610d90565b6102766103e0366004611b5b565b610e5a565b6102766103f3366004611c0d565b610f1e565b610276610406366004611c54565b610fbf565b610276610419366004611c54565b611056565b61027661042c366004611b24565b611106565b61027661043f366004611ba6565b61115e565b61044e6206978081565b6040519081526020016102eb565b6103af61046a366004611ce9565b60056020526000908152604090205460ff1681565b61027661048d366004611ce9565b6111cf565b6102766104a0366004611d0b565b61121b565b6102766104b3366004611c54565b611251565b6102766104c6366004611c54565b6112f0565b6102766104d9366004611ba6565b611383565b6102766104ec366004611d0b565b6113da565b6102766104ff366004611ba6565b6114b9565b610276610512366004611ba6565b61152a565b610276610525366004611ba6565b611581565b610276610538366004611b24565b6115d8565b61027661054b366004611c0d565b61162d565b61027661055e366004611d24565b61166e565b610276610571366004611d24565b61171f565b61044e610584366004611d0b565b60036020526000908152604090205481565b6102766105a4366004611d24565b611804565b6102766105b7366004611d24565b6118a7565b61044e60005481565b6001546102d7906001600160a01b031681565b6001546001600160a01b0316331461060b5760405162461bcd60e51b815260040161060290611d60565b60405180910390fd5b6001600160a01b03919091166000908152600460205260409020805460ff1916911515919091179055565b6001546001600160a01b031633146106605760405162461bcd60e51b815260040161060290611d60565b6000848484846040516020016106799493929190611d8d565b60405160208183030381529060405280519060200120905061069a8161193a565b6106a381611a00565b6040516301e3366760e01b81526001600160a01b038616906301e33667906106d390879087908790600401611dd9565b600060405180830381600087803b1580156106ed57600080fd5b505af1158015610701573d6000803e3d6000fd5b505050505050505050565b6001546001600160a01b031633148061073457503360009081526004602052604090205460ff165b6107505760405162461bcd60e51b815260040161060290611d60565b60058111156107a15760405162461bcd60e51b815260206004820152601960248201527f496e76616c6964205f707269636553616d706c655370616365000000000000006044820152606401610602565b604051632fa03b8f60e01b8152600481018290526001600160a01b03831690632fa03b8f906024015b600060405180830381600087803b1580156107e457600080fd5b505af11580156107f8573d6000803e3d6000fd5b505050505050565b6001546001600160a01b0316331461082a5760405162461bcd60e51b815260040161060290611d60565b60405163eb1c92a960e01b815281151560048201526001600160a01b0383169063eb1c92a9906024016107ca565b6001546001600160a01b031633148061088057503360009081526004602052604090205460ff165b8061089a57503360009081526005602052604090205460ff165b6108b65760405162461bcd60e51b815260040161060290611d60565b6040516335a50ddb60e21b81526001600160a01b03848116600483015283151560248301526044820183905285169063d694376c906064015b600060405180830381600087803b15801561090957600080fd5b505af115801561091d573d6000803e3d6000fd5b5050505050505050565b6001546001600160a01b031633146109515760405162461bcd60e51b815260040161060290611d60565b600083838360405160200161096893929190611dfd565b6040516020818303038152906040528051906020012090506109898161193a565b61099281611a00565b6040516331cb610560e01b81526001600160a01b03848116600483015283151560248301528516906331cb6105906044016108ef565b6001546001600160a01b031633146109f25760405162461bcd60e51b815260040161060290611d60565b60405163238aafb760e01b81526001600160a01b03828116600483015283169063238aafb7906024016107ca565b6001546001600160a01b03163314610a4a5760405162461bcd60e51b815260040161060290611d60565b60008585858585604051602001610a65959493929190611e47565b604051602081830303815290604052805190602001209050610a868161193a565b610a8f81611a00565b604051634b9ade4760e01b81526001600160a01b0386811660048301528581166024830152604482018590528315156064830152871690634b9ade4790608401600060405180830381600087803b158015610ae957600080fd5b505af1158015610afd573d6000803e3d6000fd5b50505050505050505050565b6001546001600160a01b03163314610b335760405162461bcd60e51b815260040161060290611d60565b6000838383604051602001610b4a93929190611dfd565b604051602081830303815290604052805190602001209050610b6b81611aab565b604080516001600160a01b03808716825285166020820152831515918101919091527f6ab3018654d3055eae2cb61d3dffe4cbb30f257d54ec966059b4d00b325a3669906060015b60405180910390a150505050565b6001546001600160a01b03163314610beb5760405162461bcd60e51b815260040161060290611d60565b60008585858585604051602001610c06959493929190611e47565b604051602081830303815290604052805190602001209050610c2781611aab565b604080516001600160a01b038881168252878116602083015286168183015260608101859052831515608082015290517f1b2ddf357ae016d8c127dcd3a73c34744fdeaeeb4b7ef1e04490cebf7f4816fe9181900360a00190a1505050505050565b6001546001600160a01b03163314610cb35760405162461bcd60e51b815260040161060290611d60565b604051630b70c7b760e41b8152600481018290526001600160a01b0383169063b70c7b70906024016107ca565b6001546001600160a01b03163314610d0a5760405162461bcd60e51b815260040161060290611d60565b6040516319d31bf560e31b815281151560048201526001600160a01b0383169063ce98dfa8906024016107ca565b6001546001600160a01b03163314610d625760405162461bcd60e51b815260040161060290611d60565b6040516303f4d3b160e61b815281151560048201526001600160a01b0383169063fd34ec40906024016107ca565b6001546001600160a01b03163314610dba5760405162461bcd60e51b815260040161060290611d60565b60008282604051602001610dcf929190611eae565b604051602081830303815290604052805190602001209050610df08161193a565b610df981611a00565b60405163b8f4496360e01b81526001600160a01b03838116600483015284169063b8f44963906024015b600060405180830381600087803b158015610e3d57600080fd5b505af1158015610e51573d6000803e3d6000fd5b50505050505050565b6001546001600160a01b03163314610e845760405162461bcd60e51b815260040161060290611d60565b600084848484604051602001610e9d9493929190611d8d565b604051602081830303815290604052805190602001209050610ebe81611aab565b604080516001600160a01b0387811682528681166020830152851681830152606081018490526080810183905290517f9ed7b0f07a9eed51079fab67f6d0f141f167f5b17fdb5a23282280e15fcafed39181900360a00190a15050505050565b6001546001600160a01b03163314610f485760405162461bcd60e51b815260040161060290611d60565b6000838383604051602001610f5f93929190611eef565b604051602081830303815290604052805190602001209050610f808161193a565b610f8981611a00565b604051631a15339160e01b81526001600160a01b0384811660048301528315156024830152851690631a153391906044016108ef565b6001546001600160a01b03163314610fe95760405162461bcd60e51b815260040161060290611d60565b60008282604051602001610ffe929190611f39565b60405160208183030381529060405280519060200120905061101f8161193a565b61102881611a00565b6040516367d6abd160e11b81526001600160a01b03838116600483015284169063cfad57a290602401610e23565b6001546001600160a01b031633146110805760405162461bcd60e51b815260040161060290611d60565b306001600160a01b038316036110d85760405162461bcd60e51b815260206004820152601960248201527f54696d656c6f636b3a20696e76616c6964205f746172676574000000000000006044820152606401610602565b604051633825b60160e11b81526001600160a01b03828116600483015283169063704b6c02906024016107ca565b6001546001600160a01b031633146111305760405162461bcd60e51b815260040161060290611d60565b604051632645f71d60e21b815281151560048201526001600160a01b03831690639917dc74906024016107ca565b6001546001600160a01b031633148061118657503360009081526004602052604090205460ff165b6111a25760405162461bcd60e51b815260040161060290611d60565b6040516322dd9dfd60e21b8152600481018290526001600160a01b03831690638b7677f4906024016107ca565b6002546001600160a01b031633146111f95760405162461bcd60e51b815260040161060290611d60565b600180546001600160a01b0319166001600160a01b0392909216919091179055565b6001546001600160a01b031633146112455760405162461bcd60e51b815260040161060290611d60565b61124e81611a00565b50565b6001546001600160a01b0316331461127b5760405162461bcd60e51b815260040161060290611d60565b60008282604051602001611290929190611eae565b6040516020818303038152906040528051906020012090506112b181611aab565b7ee260ccd73c11c17a0a444214d4b2ac67d3bf95b646b8c9b712e7a29fdd16ee8383836040516112e393929190611dd9565b60405180910390a1505050565b6001546001600160a01b0316331461131a5760405162461bcd60e51b815260040161060290611d60565b6000828260405160200161132f929190611f39565b60405160208183030381529060405280519060200120905061135081611aab565b7f2701a94fd55a560e291f3c54d36580040670d6fde558a77a75d619e38139f7138383836040516112e393929190611dd9565b6001546001600160a01b031633146113ad5760405162461bcd60e51b815260040161060290611d60565b604051632fbfe3d360e01b8152600481018290526001600160a01b03831690632fbfe3d3906024016107ca565b6001546001600160a01b031633146114045760405162461bcd60e51b815260040161060290611d60565b620697808111156114575760405162461bcd60e51b815260206004820152601960248201527f54696d656c6f636b3a20696e76616c6964205f627566666572000000000000006044820152606401610602565b60005481116114b45760405162461bcd60e51b8152602060048201526024808201527f54696d656c6f636b3a206275666665722063616e6e6f74206265206465637265604482015263185cd95960e21b6064820152608401610602565b600055565b6001546001600160a01b03163314806114e157503360009081526004602052604090205460ff165b6114fd5760405162461bcd60e51b815260040161060290611d60565b6040516344c2319360e01b8152600481018290526001600160a01b038316906344c23193906024016107ca565b6001546001600160a01b031633146115545760405162461bcd60e51b815260040161060290611d60565b60405163378346e560e21b8152600481018290526001600160a01b0383169063de0d1b94906024016107ca565b6001546001600160a01b031633146115ab5760405162461bcd60e51b815260040161060290611d60565b60405163d6a153f160e01b8152600481018290526001600160a01b0383169063d6a153f1906024016107ca565b6001546001600160a01b031633146116025760405162461bcd60e51b815260040161060290611d60565b6001600160a01b03919091166000908152600560205260409020805460ff1916911515919091179055565b6001546001600160a01b031633146116575760405162461bcd60e51b815260040161060290611d60565b6000838383604051602001610b4a93929190611eef565b6001546001600160a01b031633146116985760405162461bcd60e51b815260040161060290611d60565b60008383836040516020016116af93929190611f6a565b6040516020818303038152906040528051906020012090506116d081611aab565b604080516001600160a01b03808716825285166020820152908101839052606081018290527f6af9d86ba7407a934e941ed8ae5f779369a88fe8ba2cd1c204185d6f8a8287fd90608001610bb3565b6001546001600160a01b031633146117495760405162461bcd60e51b815260040161060290611d60565b600083838360405160200161176093929190611f6a565b6040516020818303038152906040528051906020012090506117818161193a565b61178a81611a00565b60405163095ea7b360e01b81526001600160a01b0384811660048301526024820184905285169063095ea7b3906044016020604051808303816000875af11580156117d9573d6000803e3d6000fd5b505050506040513d601f19601f820116820180604052508101906117fd9190611fa3565b5050505050565b6001546001600160a01b0316331461182e5760405162461bcd60e51b815260040161060290611d60565b6040516323b872dd60e01b81526001600160a01b038316906323b872dd9061185e90869030908690600401611dd9565b6020604051808303816000875af115801561187d573d6000803e3d6000fd5b505050506040513d601f19601f820116820180604052508101906118a19190611fa3565b50505050565b6001546001600160a01b03163314806118cf57503360009081526004602052604090205460ff165b806118e957503360009081526005602052604090205460ff165b6119055760405162461bcd60e51b815260040161060290611d60565b604051630137112760e71b81526001600160a01b03838116600483015260248201839052841690639b88938090604401610e23565b60008181526003602052604081205490036119975760405162461bcd60e51b815260206004820152601e60248201527f54696d656c6f636b3a20616374696f6e206e6f74207369676e616c6c656400006044820152606401610602565b600081815260036020526040902054421161124e5760405162461bcd60e51b8152602060048201526024808201527f54696d656c6f636b3a20616374696f6e2074696d65206e6f74207965742070616044820152631cdcd95960e21b6064820152608401610602565b6000818152600360205260408120549003611a5d5760405162461bcd60e51b815260206004820152601960248201527f54696d656c6f636b3a20696e76616c6964205f616374696f6e000000000000006044820152606401610602565b60008181526003602052604080822091909155517f194ed6dd5e37e2acc44a19455c3f208c4831ee695fe362d9c4ef2d316bc53aec90611aa09083815260200190565b60405180910390a150565b600054611ab89042611fc0565b60008281526003602090815260409182902092909255518281527f5fb9c0ecf7b4a28c4c480212e868f9da7f373a2ed4d23498b0be6aadf35242fb9101611aa0565b80356001600160a01b0381168114611b1157600080fd5b919050565b801515811461124e57600080fd5b60008060408385031215611b3757600080fd5b611b4083611afa565b91506020830135611b5081611b16565b809150509250929050565b60008060008060808587031215611b7157600080fd5b611b7a85611afa565b9350611b8860208601611afa565b9250611b9660408601611afa565b9396929550929360600135925050565b60008060408385031215611bb957600080fd5b611bc283611afa565b946020939093013593505050565b60008060008060808587031215611be657600080fd5b611bef85611afa565b9350611bfd60208601611afa565b92506040850135611b9681611b16565b600080600060608486031215611c2257600080fd5b611c2b84611afa565b9250611c3960208501611afa565b91506040840135611c4981611b16565b809150509250925092565b60008060408385031215611c6757600080fd5b611c7083611afa565b9150611c7e60208401611afa565b90509250929050565b600080600080600060a08688031215611c9f57600080fd5b611ca886611afa565b9450611cb660208701611afa565b9350611cc460408701611afa565b9250606086013591506080860135611cdb81611b16565b809150509295509295909350565b600060208284031215611cfb57600080fd5b611d0482611afa565b9392505050565b600060208284031215611d1d57600080fd5b5035919050565b600080600060608486031215611d3957600080fd5b611d4284611afa565b9250611d5060208501611afa565b9150604084013590509250925092565b6020808252601390820152722a34b6b2b637b1b59d103337b93134b23232b760691b604082015260600190565b6c3bb4ba34323930bbaa37b5b2b760991b81526001600160601b0319606095861b8116600d83015293851b841660218201529190931b9091166035820152604981019190915260690190565b6001600160a01b039384168152919092166020820152604081019190915260600190565b7239b2ba283934b1b2a332b2b22bb0ba31b432b960691b81526001600160601b0319606094851b811660138301529290931b9091166027830152151560f81b603b820152603c0190565b7f707269636546656564536574546f6b656e436f6e66696700000000000000000081526001600160601b0319606096871b8116601783015294861b8516602b8201529290941b909216603f820152605381019190915290151560f81b607382015260740190565b751cd95d14d95c5d595b98d95c955c1d1a5b595199595960521b81526001600160601b0319606093841b811660168301529190921b16602a820152603e0190565b7239b2ba283934b1b2a332b2b22ab83230ba32b960691b81526001600160601b0319606094851b811660138301529290931b9091166027830152151560f81b603b820152603c0190565b6539b2ba23b7bb60d11b81526001600160601b0319606093841b811660068301529190921b16601a820152602e0190565b66617070726f766560c81b81526001600160601b0319606094851b811660078301529290931b909116601b830152602f820152604f0190565b600060208284031215611fb557600080fd5b8151611d0481611b16565b80820180821115611fe157634e487b7160e01b600052601160045260246000fd5b9291505056fea264697066735822122055281bfa0bec5b39b050f691220735981e19d628ff2b8bb6749fce6f1e73d49b64736f6c63430008120033","linkReferences":{}},"methodIdentifiers":{"MAX_BUFFER()":"61d07569","admin()":"f851a440","approve(address,address,uint256)":"e1f21c67","buffer()":"edaafe20","cancelAction(bytes32)":"781cc3d3","isHandler(address)":"46ea87af","isKeeper(address)":"6ba42aaa","pendingActions(bytes32)":"e30569e5","priceFeedSetTokenConfig(address,address,address,uint256,bool)":"3335e38a","setAdjustment(address,address,bool,uint256)":"296b07e5","setAdmin(address)":"704b6c02","setBuffer(uint256)":"adc7ea37","setContractHandler(address,bool)":"185051c1","setExternalAdmin(address,address)":"55ef1395","setGov(address,address)":"51a6de0d","setIsAmmEnabled(address,bool)":"5843752f","setIsSecondaryPriceEnabled(address,bool)":"2965c8c7","setIsSpreadEnabled(address,bool)":"43ec6619","setKeeper(address,bool)":"d1b9e853","setMaxPriceUpdateDelay(address,uint256)":"5b6348ac","setMaxStrictPriceDeviation(address,uint256)":"a0a316a2","setMinBlockInterval(address,uint256)":"be03af58","setPriceDuration(address,uint256)":"b74517ba","setPriceFeedUpdater(address,address,bool)":"50e32d1d","setPriceFeedWatcher(address,address,bool)":"2a72e8ba","setPriceSampleSpace(address,uint256)":"2877f4c3","setSequencerUptimeFeed(address,address)":"4cbb62a2","setSpreadBasisPoints(address,address,uint256)":"e7b0a3a1","setSpreadBasisPointsIfChainError(address,uint256)":"bd0f1c45","setSpreadBasisPointsIfInactive(address,uint256)":"395bc794","setUseV2Pricing(address,bool)":"454ffa46","setVaultPriceFeed(address,address)":"2cfe82e8","signalApprove(address,address,uint256)":"dce6e18d","signalPriceFeedSetTokenConfig(address,address,address,uint256,bool)":"384cae73","signalSetGov(address,address)":"996a7a1e","signalSetPriceFeedUpdater(address,address,bool)":"db5c875f","signalSetPriceFeedWatcher(address,address,bool)":"3799c618","signalSetSequencerUptimeFeed(address,address)":"9047f1c4","signalWithdrawToken(address,address,address,uint256)":"4cd23f3b","tokenManager()":"2a709b14","transferIn(address,address,uint256)":"e4652f49","withdrawToken(address,address,address,uint256)":"21754d9e"},"id":100}