{
  "abi": [
    {
      "inputs": [
        {
          "internalType": "address",
          "name": "_admin",
          "type": "address"
        },
        {
          "internalType": "uint256",
          "name": "_buffer",
          "type": "uint256"
        },
        {
          "internalType": "address",
          "name": "_tokenManager",
          "type": "address"
        }
      ],
      "stateMutability": "nonpayable",
      "type": "constructor"
    },
    {
      "anonymous": false,
      "inputs": [
        {
          "indexed": false,
          "internalType": "bytes32",
          "name": "action",
          "type": "bytes32"
        }
      ],
      "name": "ClearAction",
      "type": "event"
    },
    {
      "anonymous": false,
      "inputs": [
        {
          "indexed": false,
          "internalType": "address",
          "name": "token",
          "type": "address"
        },
        {
          "indexed": false,
          "internalType": "address",
          "name": "spender",
          "type": "address"
        },
        {
          "indexed": false,
          "internalType": "uint256",
          "name": "amount",
          "type": "uint256"
        },
        {
          "indexed": false,
          "internalType": "bytes32",
          "name": "action",
          "type": "bytes32"
        }
      ],
      "name": "SignalApprove",
      "type": "event"
    },
    {
      "anonymous": false,
      "inputs": [
        {
          "indexed": false,
          "internalType": "bytes32",
          "name": "action",
          "type": "bytes32"
        }
      ],
      "name": "SignalPendingAction",
      "type": "event"
    },
    {
      "anonymous": false,
      "inputs": [
        {
          "indexed": false,
          "internalType": "address",
          "name": "vaultPriceFeed",
          "type": "address"
        },
        {
          "indexed": false,
          "internalType": "address",
          "name": "token",
          "type": "address"
        },
        {
          "indexed": false,
          "internalType": "address",
          "name": "priceFeed",
          "type": "address"
        },
        {
          "indexed": false,
          "internalType": "uint256",
          "name": "priceDecimals",
          "type": "uint256"
        },
        {
          "indexed": false,
          "internalType": "bool",
          "name": "isStrictStable",
          "type": "bool"
        }
      ],
      "name": "SignalPriceFeedSetTokenConfig",
      "type": "event"
    },
    {
      "anonymous": false,
      "inputs": [
        {
          "indexed": false,
          "internalType": "address",
          "name": "target",
          "type": "address"
        },
        {
          "indexed": false,
          "internalType": "address",
          "name": "gov",
          "type": "address"
        },
        {
          "indexed": false,
          "internalType": "bytes32",
          "name": "action",
          "type": "bytes32"
        }
      ],
      "name": "SignalSetGov",
      "type": "event"
    },
    {
      "anonymous": false,
      "inputs": [
        {
          "indexed": false,
          "internalType": "address",
          "name": "fastPriceFeed",
          "type": "address"
        },
        {
          "indexed": false,
          "internalType": "address",
          "name": "account",
          "type": "address"
        },
        {
          "indexed": false,
          "internalType": "bool",
          "name": "isActive",
          "type": "bool"
        }
      ],
      "name": "SignalSetPriceFeedWatcher",
      "type": "event"
    },
    {
      "anonymous": false,
      "inputs": [
        {
          "indexed": false,
          "internalType": "address",
          "name": "target",
          "type": "address"
        },
        {
          "indexed": false,
          "internalType": "address",
          "name": "token",
          "type": "address"
        },
        {
          "indexed": false,
          "internalType": "address",
          "name": "receiver",
          "type": "address"
        },
        {
          "indexed": false,
          "internalType": "uint256",
          "name": "amount",
          "type": "uint256"
        },
        {
          "indexed": false,
          "internalType": "bytes32",
          "name": "action",
          "type": "bytes32"
        }
      ],
      "name": "SignalWithdrawToken",
      "type": "event"
    },
    {
      "inputs": [],
      "name": "MAX_BUFFER",
      "outputs": [
        {
          "internalType": "uint256",
          "name": "",
          "type": "uint256"
        }
      ],
      "stateMutability": "view",
      "type": "function"
    },
    {
      "inputs": [],
      "name": "admin",
      "outputs": [
        {
          "internalType": "address",
          "name": "",
          "type": "address"
        }
      ],
      "stateMutability": "view",
      "type": "function"
    },
    {
      "inputs": [
        {
          "internalType": "address",
          "name": "_token",
          "type": "address"
        },
        {
          "internalType": "address",
          "name": "_spender",
          "type": "address"
        },
        {
          "internalType": "uint256",
          "name": "_amount",
          "type": "uint256"
        }
      ],
      "name": "approve",
      "outputs": [],
      "stateMutability": "nonpayable",
      "type": "function"
    },
    {
      "inputs": [],
      "name": "buffer",
      "outputs": [
        {
          "internalType": "uint256",
          "name": "",
          "type": "uint256"
        }
      ],
      "stateMutability": "view",
      "type": "function"
    },
    {
      "inputs": [
        {
          "internalType": "bytes32",
          "name": "_action",
          "type": "bytes32"
        }
      ],
      "name": "cancelAction",
      "outputs": [],
      "stateMutability": "nonpayable",
      "type": "function"
    },
    {
      "inputs": [
        {
          "internalType": "address",
          "name": "",
          "type": "address"
        }
      ],
      "name": "isHandler",
      "outputs": [
        {
          "internalType": "bool",
          "name": "",
          "type": "bool"
        }
      ],
      "stateMutability": "view",
      "type": "function"
    },
    {
      "inputs": [
        {
          "internalType": "address",
          "name": "",
          "type": "address"
        }
      ],
      "name": "isKeeper",
      "outputs": [
        {
          "internalType": "bool",
          "name": "",
          "type": "bool"
        }
      ],
      "stateMutability": "view",
      "type": "function"
    },
    {
      "inputs": [
        {
          "internalType": "bytes32",
          "name": "",
          "type": "bytes32"
        }
      ],
      "name": "pendingActions",
      "outputs": [
        {
          "internalType": "uint256",
          "name": "",
          "type": "uint256"
        }
      ],
      "stateMutability": "view",
      "type": "function"
    },
    {
      "inputs": [
        {
          "internalType": "address",
          "name": "_vaultPriceFeed",
          "type": "address"
        },
        {
          "internalType": "address",
          "name": "_token",
          "type": "address"
        },
        {
          "internalType": "address",
          "name": "_priceFeed",
          "type": "address"
        },
        {
          "internalType": "uint256",
          "name": "_priceDecimals",
          "type": "uint256"
        },
        {
          "internalType": "bool",
          "name": "_isStrictStable",
          "type": "bool"
        }
      ],
      "name": "priceFeedSetTokenConfig",
      "outputs": [],
      "stateMutability": "nonpayable",
      "type": "function"
    },
    {
      "inputs": [
        {
          "internalType": "address",
          "name": "_priceFeed",
          "type": "address"
        },
        {
          "internalType": "address",
          "name": "_token",
          "type": "address"
        },
        {
          "internalType": "bool",
          "name": "_isAdditive",
          "type": "bool"
        },
        {
          "internalType": "uint256",
          "name": "_adjustmentBps",
          "type": "uint256"
        }
      ],
      "name": "setAdjustment",
      "outputs": [],
      "stateMutability": "nonpayable",
      "type": "function"
    },
    {
      "inputs": [
        {
          "internalType": "address",
          "name": "_admin",
          "type": "address"
        }
      ],
      "name": "setAdmin",
      "outputs": [],
      "stateMutability": "nonpayable",
      "type": "function"
    },
    {
      "inputs": [
        {
          "internalType": "uint256",
          "name": "_buffer",
          "type": "uint256"
        }
      ],
      "name": "setBuffer",
      "outputs": [],
      "stateMutability": "nonpayable",
      "type": "function"
    },
    {
      "inputs": [
        {
          "internalType": "address",
          "name": "_handler",
          "type": "address"
        },
        {
          "internalType": "bool",
          "name": "_isActive",
          "type": "bool"
        }
      ],
      "name": "setContractHandler",
      "outputs": [],
      "stateMutability": "nonpayable",
      "type": "function"
    },
    {
      "inputs": [
        {
          "internalType": "address",
          "name": "_target",
          "type": "address"
        },
        {
          "internalType": "address",
          "name": "_admin",
          "type": "address"
        }
      ],
      "name": "setExternalAdmin",
      "outputs": [],
      "stateMutability": "nonpayable",
      "type": "function"
    },
    {
      "inputs": [
        {
          "internalType": "address",
          "name": "_target",
          "type": "address"
        },
        {
          "internalType": "address",
          "name": "_gov",
          "type": "address"
        }
      ],
      "name": "setGov",
      "outputs": [],
      "stateMutability": "nonpayable",
      "type": "function"
    },
    {
      "inputs": [
        {
          "internalType": "address",
          "name": "_priceFeed",
          "type": "address"
        },
        {
          "internalType": "bool",
          "name": "_isEnabled",
          "type": "bool"
        }
      ],
      "name": "setIsAmmEnabled",
      "outputs": [],
      "stateMutability": "nonpayable",
      "type": "function"
    },
    {
      "inputs": [
        {
          "internalType": "address",
          "name": "_priceFeed",
          "type": "address"
        },
        {
          "internalType": "bool",
          "name": "_isEnabled",
          "type": "bool"
        }
      ],
      "name": "setIsSecondaryPriceEnabled",
      "outputs": [],
      "stateMutability": "nonpayable",
      "type": "function"
    },
    {
      "inputs": [
        {
          "internalType": "address",
          "name": "_fastPriceFeed",
          "type": "address"
        },
        {
          "internalType": "bool",
          "name": "_isSpreadEnabled",
          "type": "bool"
        }
      ],
      "name": "setIsSpreadEnabled",
      "outputs": [],
      "stateMutability": "nonpayable",
      "type": "function"
    },
    {
      "inputs": [
        {
          "internalType": "address",
          "name": "_keeper",
          "type": "address"
        },
        {
          "internalType": "bool",
          "name": "_isActive",
          "type": "bool"
        }
      ],
      "name": "setKeeper",
      "outputs": [],
      "stateMutability": "nonpayable",
      "type": "function"
    },
    {
      "inputs": [
        {
          "internalType": "address",
          "name": "_fastPriceFeed",
          "type": "address"
        },
        {
          "internalType": "uint256",
          "name": "_maxPriceUpdateDelay",
          "type": "uint256"
        }
      ],
      "name": "setMaxPriceUpdateDelay",
      "outputs": [],
      "stateMutability": "nonpayable",
      "type": "function"
    },
    {
      "inputs": [
        {
          "internalType": "address",
          "name": "_priceFeed",
          "type": "address"
        },
        {
          "internalType": "uint256",
          "name": "_maxStrictPriceDeviation",
          "type": "uint256"
        }
      ],
      "name": "setMaxStrictPriceDeviation",
      "outputs": [],
      "stateMutability": "nonpayable",
      "type": "function"
    },
    {
      "inputs": [
        {
          "internalType": "address",
          "name": "_fastPriceFeed",
          "type": "address"
        },
        {
          "internalType": "uint256",
          "name": "_minBlockInterval",
          "type": "uint256"
        }
      ],
      "name": "setMinBlockInterval",
      "outputs": [],
      "stateMutability": "nonpayable",
      "type": "function"
    },
    {
      "inputs": [
        {
          "internalType": "address",
          "name": "_fastPriceFeed",
          "type": "address"
        },
        {
          "internalType": "uint256",
          "name": "_priceDuration",
          "type": "uint256"
        }
      ],
      "name": "setPriceDuration",
      "outputs": [],
      "stateMutability": "nonpayable",
      "type": "function"
    },
    {
      "inputs": [
        {
          "internalType": "address",
          "name": "_fastPriceFeed",
          "type": "address"
        },
        {
          "internalType": "address",
          "name": "_account",
          "type": "address"
        },
        {
          "internalType": "bool",
          "name": "_isActive",
          "type": "bool"
        }
      ],
      "name": "setPriceFeedUpdater",
      "outputs": [],
      "stateMutability": "nonpayable",
      "type": "function"
    },
    {
      "inputs": [
        {
          "internalType": "address",
          "name": "_fastPriceFeed",
          "type": "address"
        },
        {
          "internalType": "address",
          "name": "_account",
          "type": "address"
        },
        {
          "internalType": "bool",
          "name": "_isActive",
          "type": "bool"
        }
      ],
      "name": "setPriceFeedWatcher",
      "outputs": [],
      "stateMutability": "nonpayable",
      "type": "function"
    },
    {
      "inputs": [
        {
          "internalType": "address",
          "name": "_priceFeed",
          "type": "address"
        },
        {
          "internalType": "uint256",
          "name": "_priceSampleSpace",
          "type": "uint256"
        }
      ],
      "name": "setPriceSampleSpace",
      "outputs": [],
      "stateMutability": "nonpayable",
      "type": "function"
    },
    {
      "inputs": [
        {
          "internalType": "address",
          "name": "_priceFeed",
          "type": "address"
        },
        {
          "internalType": "address",
          "name": "_token",
          "type": "address"
        },
        {
          "internalType": "uint256",
          "name": "_spreadBasisPoints",
          "type": "uint256"
        }
      ],
      "name": "setSpreadBasisPoints",
      "outputs": [],
      "stateMutability": "nonpayable",
      "type": "function"
    },
    {
      "inputs": [
        {
          "internalType": "address",
          "name": "_fastPriceFeed",
          "type": "address"
        },
        {
          "internalType": "uint256",
          "name": "_spreadBasisPointsIfChainError",
          "type": "uint256"
        }
      ],
      "name": "setSpreadBasisPointsIfChainError",
      "outputs": [],
      "stateMutability": "nonpayable",
      "type": "function"
    },
    {
      "inputs": [
        {
          "internalType": "address",
          "name": "_fastPriceFeed",
          "type": "address"
        },
        {
          "internalType": "uint256",
          "name": "_spreadBasisPointsIfInactive",
          "type": "uint256"
        }
      ],
      "name": "setSpreadBasisPointsIfInactive",
      "outputs": [],
      "stateMutability": "nonpayable",
      "type": "function"
    },
    {
      "inputs": [
        {
          "internalType": "address",
          "name": "_priceFeed",
          "type": "address"
        },
        {
          "internalType": "bool",
          "name": "_useV2Pricing",
          "type": "bool"
        }
      ],
      "name": "setUseV2Pricing",
      "outputs": [],
      "stateMutability": "nonpayable",
      "type": "function"
    },
    {
      "inputs": [
        {
          "internalType": "address",
          "name": "_fastPriceFeed",
          "type": "address"
        },
        {
          "internalType": "address",
          "name": "_vaultPriceFeed",
          "type": "address"
        }
      ],
      "name": "setVaultPriceFeed",
      "outputs": [],
      "stateMutability": "nonpayable",
      "type": "function"
    },
    {
      "inputs": [
        {
          "internalType": "address",
          "name": "_token",
          "type": "address"
        },
        {
          "internalType": "address",
          "name": "_spender",
          "type": "address"
        },
        {
          "internalType": "uint256",
          "name": "_amount",
          "type": "uint256"
        }
      ],
      "name": "signalApprove",
      "outputs": [],
      "stateMutability": "nonpayable",
      "type": "function"
    },
    {
      "inputs": [
        {
          "internalType": "address",
          "name": "_vaultPriceFeed",
          "type": "address"
        },
        {
          "internalType": "address",
          "name": "_token",
          "type": "address"
        },
        {
          "internalType": "address",
          "name": "_priceFeed",
          "type": "address"
        },
        {
          "internalType": "uint256",
          "name": "_priceDecimals",
          "type": "uint256"
        },
        {
          "internalType": "bool",
          "name": "_isStrictStable",
          "type": "bool"
        }
      ],
      "name": "signalPriceFeedSetTokenConfig",
      "outputs": [],
      "stateMutability": "nonpayable",
      "type": "function"
    },
    {
      "inputs": [
        {
          "internalType": "address",
          "name": "_target",
          "type": "address"
        },
        {
          "internalType": "address",
          "name": "_gov",
          "type": "address"
        }
      ],
      "name": "signalSetGov",
      "outputs": [],
      "stateMutability": "nonpayable",
      "type": "function"
    },
    {
      "inputs": [
        {
          "internalType": "address",
          "name": "_fastPriceFeed",
          "type": "address"
        },
        {
          "internalType": "address",
          "name": "_account",
          "type": "address"
        },
        {
          "internalType": "bool",
          "name": "_isActive",
          "type": "bool"
        }
      ],
      "name": "signalSetPriceFeedUpdater",
      "outputs": [],
      "stateMutability": "nonpayable",
      "type": "function"
    },
    {
      "inputs": [
        {
          "internalType": "address",
          "name": "_fastPriceFeed",
          "type": "address"
        },
        {
          "internalType": "address",
          "name": "_account",
          "type": "address"
        },
        {
          "internalType": "bool",
          "name": "_isActive",
          "type": "bool"
        }
      ],
      "name": "signalSetPriceFeedWatcher",
      "outputs": [],
      "stateMutability": "nonpayable",
      "type": "function"
    },
    {
      "inputs": [
        {
          "internalType": "address",
          "name": "_target",
          "type": "address"
        },
        {
          "internalType": "address",
          "name": "_token",
          "type": "address"
        },
        {
          "internalType": "address",
          "name": "_receiver",
          "type": "address"
        },
        {
          "internalType": "uint256",
          "name": "_amount",
          "type": "uint256"
        }
      ],
      "name": "signalWithdrawToken",
      "outputs": [],
      "stateMutability": "nonpayable",
      "type": "function"
    },
    {
      "inputs": [],
      "name": "tokenManager",
      "outputs": [
        {
          "internalType": "address",
          "name": "",
          "type": "address"
        }
      ],
      "stateMutability": "view",
      "type": "function"
    },
    {
      "inputs": [
        {
          "internalType": "address",
          "name": "_sender",
          "type": "address"
        },
        {
          "internalType": "address",
          "name": "_token",
          "type": "address"
        },
        {
          "internalType": "uint256",
          "name": "_amount",
          "type": "uint256"
        }
      ],
      "name": "transferIn",
      "outputs": [],
      "stateMutability": "nonpayable",
      "type": "function"
    },
    {
      "inputs": [
        {
          "internalType": "address",
          "name": "_target",
          "type": "address"
        },
        {
          "internalType": "address",
          "name": "_token",
          "type": "address"
        },
        {
          "internalType": "address",
          "name": "_receiver",
          "type": "address"
        },
        {
          "internalType": "uint256",
          "name": "_amount",
          "type": "uint256"
        }
      ],
      "name": "withdrawToken",
      "outputs": [],
      "stateMutability": "nonpayable",
      "type": "function"
    }
  ],
  "bytecode": {
    "object": "0x60806040523480156200001157600080fd5b5060405162001fa338038062001fa38339810160408190526200003491620000e1565b620697808211156200008c5760405162461bcd60e51b815260206004820152601960248201527f54696d656c6f636b3a20696e76616c6964205f62756666657200000000000000604482015260640160405180910390fd5b600180546001600160a01b039485166001600160a01b0319918216179091556000929092556002805491909316911617905562000122565b80516001600160a01b0381168114620000dc57600080fd5b919050565b600080600060608486031215620000f757600080fd5b6200010284620000c4565b9250602084015191506200011960408501620000c4565b90509250925092565b611e7180620001326000396000f3fe608060405234801561001057600080fd5b50600436106102485760003560e01c80635b6348ac1161013b578063be03af58116100b8578063e30569e51161007c578063e30569e51461053a578063e4652f491461055a578063e7b0a3a11461056d578063edaafe2014610580578063f851a4401461058957600080fd5b8063be03af58146104db578063d1b9e853146104ee578063db5c875f14610501578063dce6e18d14610514578063e1f21c671461052757600080fd5b8063996a7a1e116100ff578063996a7a1e1461047c578063a0a316a21461048f578063adc7ea37146104a2578063b74517ba146104b5578063bd0f1c45146104c857600080fd5b80635b6348ac1461040857806361d075691461041b5780636ba42aaa14610433578063704b6c0214610456578063781cc3d31461046957600080fd5b8063384cae73116101c95780634cd23f3b1161018d5780634cd23f3b146103a957806350e32d1d146103bc57806351a6de0d146103cf57806355ef1395146103e25780635843752f146103f557600080fd5b8063384cae731461032a578063395bc7941461033d57806343ec661914610350578063454ffa461461036357806346ea87af1461037657600080fd5b80632a709b14116102105780632a709b14146102ae5780632a72e8ba146102de5780632cfe82e8146102f15780633335e38a146103045780633799c6181461031757600080fd5b8063185051c11461024d57806321754d9e146102625780632877f4c3146102755780632965c8c714610288578063296b07e51461029b575b600080fd5b61026061025b3660046119dd565b61059c565b005b610260610270366004611a14565b6105fa565b610260610283366004611a5f565b6106d8565b6102606102963660046119dd565b6107cc565b6102606102a9366004611a89565b610824565b6002546102c1906001600160a01b031681565b6040516001600160a01b0390911681526020015b60405180910390f35b6102606102ec366004611ac6565b6108f3565b6102606102ff366004611b0d565b610994565b610260610312366004611b40565b6109ec565b610260610325366004611ac6565b610ad5565b610260610338366004611b40565b610b8d565b61026061034b366004611a5f565b610c55565b61026061035e3660046119dd565b610cac565b6102606103713660046119dd565b610d04565b610399610384366004611ba2565b60046020526000908152604090205460ff1681565b60405190151581526020016102d5565b6102606103b7366004611a14565b610d5c565b6102606103ca366004611ac6565b610e20565b6102606103dd366004611b0d565b610ec1565b6102606103f0366004611b0d565b610f8b565b6102606104033660046119dd565b61103b565b610260610416366004611a5f565b611093565b6104256206978081565b6040519081526020016102d5565b610399610441366004611ba2565b60056020526000908152604090205460ff1681565b610260610464366004611ba2565b611104565b610260610477366004611bc4565b611150565b61026061048a366004611b0d565b611186565b61026061049d366004611a5f565b611236565b6102606104b0366004611bc4565b61128d565b6102606104c3366004611a5f565b61136c565b6102606104d6366004611a5f565b6113dd565b6102606104e9366004611a5f565b611434565b6102606104fc3660046119dd565b61148b565b61026061050f366004611ac6565b6114e0565b610260610522366004611bdd565b611521565b610260610535366004611bdd565b6115d2565b610425610548366004611bc4565b60036020526000908152604090205481565b610260610568366004611bdd565b6116b7565b61026061057b366004611bdd565b611760565b61042560005481565b6001546102c1906001600160a01b031681565b6001546001600160a01b031633146105cf5760405162461bcd60e51b81526004016105c690611c19565b60405180910390fd5b6001600160a01b03919091166000908152600460205260409020805460ff1916911515919091179055565b6001546001600160a01b031633146106245760405162461bcd60e51b81526004016105c690611c19565b60008484848460405160200161063d9493929190611c46565b60405160208183030381529060405280519060200120905061065e816117f3565b610667816118b9565b6040516301e3366760e01b81526001600160a01b0385811660048301528481166024830152604482018490528616906301e3366790606401600060405180830381600087803b1580156106b957600080fd5b505af11580156106cd573d6000803e3d6000fd5b505050505050505050565b6001546001600160a01b031633148061070057503360009081526004602052604090205460ff165b61071c5760405162461bcd60e51b81526004016105c690611c19565b600581111561076d5760405162461bcd60e51b815260206004820152601960248201527f496e76616c6964205f707269636553616d706c6553706163650000000000000060448201526064016105c6565b604051632fa03b8f60e01b8152600481018290526001600160a01b03831690632fa03b8f906024015b600060405180830381600087803b1580156107b057600080fd5b505af11580156107c4573d6000803e3d6000fd5b505050505050565b6001546001600160a01b031633146107f65760405162461bcd60e51b81526004016105c690611c19565b60405163eb1c92a960e01b815281151560048201526001600160a01b0383169063eb1c92a990602401610796565b6001546001600160a01b031633148061084c57503360009081526004602052604090205460ff165b8061086657503360009081526005602052604090205460ff165b6108825760405162461bcd60e51b81526004016105c690611c19565b6040516335a50ddb60e21b81526001600160a01b03848116600483015283151560248301526044820183905285169063d694376c906064015b600060405180830381600087803b1580156108d557600080fd5b505af11580156108e9573d6000803e3d6000fd5b5050505050505050565b6001546001600160a01b0316331461091d5760405162461bcd60e51b81526004016105c690611c19565b600083838360405160200161093493929190611c92565b604051602081830303815290604052805190602001209050610955816117f3565b61095e816118b9565b6040516331cb610560e01b81526001600160a01b03848116600483015283151560248301528516906331cb6105906044016108bb565b6001546001600160a01b031633146109be5760405162461bcd60e51b81526004016105c690611c19565b60405163238aafb760e01b81526001600160a01b03828116600483015283169063238aafb790602401610796565b6001546001600160a01b03163314610a165760405162461bcd60e51b81526004016105c690611c19565b60008585858585604051602001610a31959493929190611cdc565b604051602081830303815290604052805190602001209050610a52816117f3565b610a5b816118b9565b604051634b9ade4760e01b81526001600160a01b0386811660048301528581166024830152604482018590528315156064830152871690634b9ade4790608401600060405180830381600087803b158015610ab557600080fd5b505af1158015610ac9573d6000803e3d6000fd5b50505050505050505050565b6001546001600160a01b03163314610aff5760405162461bcd60e51b81526004016105c690611c19565b6000838383604051602001610b1693929190611c92565b604051602081830303815290604052805190602001209050610b3781611964565b604080516001600160a01b03808716825285166020820152831515918101919091527f6ab3018654d3055eae2cb61d3dffe4cbb30f257d54ec966059b4d00b325a3669906060015b60405180910390a150505050565b6001546001600160a01b03163314610bb75760405162461bcd60e51b81526004016105c690611c19565b60008585858585604051602001610bd2959493929190611cdc565b604051602081830303815290604052805190602001209050610bf381611964565b604080516001600160a01b038881168252878116602083015286168183015260608101859052831515608082015290517f1b2ddf357ae016d8c127dcd3a73c34744fdeaeeb4b7ef1e04490cebf7f4816fe9181900360a00190a1505050505050565b6001546001600160a01b03163314610c7f5760405162461bcd60e51b81526004016105c690611c19565b604051630b70c7b760e41b8152600481018290526001600160a01b0383169063b70c7b7090602401610796565b6001546001600160a01b03163314610cd65760405162461bcd60e51b81526004016105c690611c19565b6040516319d31bf560e31b815281151560048201526001600160a01b0383169063ce98dfa890602401610796565b6001546001600160a01b03163314610d2e5760405162461bcd60e51b81526004016105c690611c19565b6040516303f4d3b160e61b815281151560048201526001600160a01b0383169063fd34ec4090602401610796565b6001546001600160a01b03163314610d865760405162461bcd60e51b81526004016105c690611c19565b600084848484604051602001610d9f9493929190611c46565b604051602081830303815290604052805190602001209050610dc081611964565b604080516001600160a01b0387811682528681166020830152851681830152606081018490526080810183905290517f9ed7b0f07a9eed51079fab67f6d0f141f167f5b17fdb5a23282280e15fcafed39181900360a00190a15050505050565b6001546001600160a01b03163314610e4a5760405162461bcd60e51b81526004016105c690611c19565b6000838383604051602001610e6193929190611d43565b604051602081830303815290604052805190602001209050610e82816117f3565b610e8b816118b9565b604051631a15339160e01b81526001600160a01b0384811660048301528315156024830152851690631a153391906044016108bb565b6001546001600160a01b03163314610eeb5760405162461bcd60e51b81526004016105c690611c19565b60008282604051602001610f00929190611d8d565b604051602081830303815290604052805190602001209050610f21816117f3565b610f2a816118b9565b6040516367d6abd160e11b81526001600160a01b03838116600483015284169063cfad57a2906024015b600060405180830381600087803b158015610f6e57600080fd5b505af1158015610f82573d6000803e3d6000fd5b50505050505050565b6001546001600160a01b03163314610fb55760405162461bcd60e51b81526004016105c690611c19565b306001600160a01b0383160361100d5760405162461bcd60e51b815260206004820152601960248201527f54696d656c6f636b3a20696e76616c6964205f7461726765740000000000000060448201526064016105c6565b604051633825b60160e11b81526001600160a01b03828116600483015283169063704b6c0290602401610796565b6001546001600160a01b031633146110655760405162461bcd60e51b81526004016105c690611c19565b604051632645f71d60e21b815281151560048201526001600160a01b03831690639917dc7490602401610796565b6001546001600160a01b03163314806110bb57503360009081526004602052604090205460ff165b6110d75760405162461bcd60e51b81526004016105c690611c19565b6040516322dd9dfd60e21b8152600481018290526001600160a01b03831690638b7677f490602401610796565b6002546001600160a01b0316331461112e5760405162461bcd60e51b81526004016105c690611c19565b600180546001600160a01b0319166001600160a01b0392909216919091179055565b6001546001600160a01b0316331461117a5760405162461bcd60e51b81526004016105c690611c19565b611183816118b9565b50565b6001546001600160a01b031633146111b05760405162461bcd60e51b81526004016105c690611c19565b600082826040516020016111c5929190611d8d565b6040516020818303038152906040528051906020012090506111e681611964565b604080516001600160a01b038086168252841660208201529081018290527f2701a94fd55a560e291f3c54d36580040670d6fde558a77a75d619e38139f7139060600160405180910390a1505050565b6001546001600160a01b031633146112605760405162461bcd60e51b81526004016105c690611c19565b604051632fbfe3d360e01b8152600481018290526001600160a01b03831690632fbfe3d390602401610796565b6001546001600160a01b031633146112b75760405162461bcd60e51b81526004016105c690611c19565b6206978081111561130a5760405162461bcd60e51b815260206004820152601960248201527f54696d656c6f636b3a20696e76616c6964205f6275666665720000000000000060448201526064016105c6565b60005481116113675760405162461bcd60e51b8152602060048201526024808201527f54696d656c6f636b3a206275666665722063616e6e6f74206265206465637265604482015263185cd95960e21b60648201526084016105c6565b600055565b6001546001600160a01b031633148061139457503360009081526004602052604090205460ff165b6113b05760405162461bcd60e51b81526004016105c690611c19565b6040516344c2319360e01b8152600481018290526001600160a01b038316906344c2319390602401610796565b6001546001600160a01b031633146114075760405162461bcd60e51b81526004016105c690611c19565b60405163378346e560e21b8152600481018290526001600160a01b0383169063de0d1b9490602401610796565b6001546001600160a01b0316331461145e5760405162461bcd60e51b81526004016105c690611c19565b60405163d6a153f160e01b8152600481018290526001600160a01b0383169063d6a153f190602401610796565b6001546001600160a01b031633146114b55760405162461bcd60e51b81526004016105c690611c19565b6001600160a01b03919091166000908152600560205260409020805460ff1916911515919091179055565b6001546001600160a01b0316331461150a5760405162461bcd60e51b81526004016105c690611c19565b6000838383604051602001610b1693929190611d43565b6001546001600160a01b0316331461154b5760405162461bcd60e51b81526004016105c690611c19565b600083838360405160200161156293929190611dbe565b60405160208183030381529060405280519060200120905061158381611964565b604080516001600160a01b03808716825285166020820152908101839052606081018290527f6af9d86ba7407a934e941ed8ae5f779369a88fe8ba2cd1c204185d6f8a8287fd90608001610b7f565b6001546001600160a01b031633146115fc5760405162461bcd60e51b81526004016105c690611c19565b600083838360405160200161161393929190611dbe565b604051602081830303815290604052805190602001209050611634816117f3565b61163d816118b9565b60405163095ea7b360e01b81526001600160a01b0384811660048301526024820184905285169063095ea7b3906044016020604051808303816000875af115801561168c573d6000803e3d6000fd5b505050506040513d601f19601f820116820180604052508101906116b09190611df7565b5050505050565b6001546001600160a01b031633146116e15760405162461bcd60e51b81526004016105c690611c19565b6040516323b872dd60e01b81526001600160a01b038481166004830152306024830152604482018390528316906323b872dd906064016020604051808303816000875af1158015611736573d6000803e3d6000fd5b505050506040513d601f19601f8201168201806040525081019061175a9190611df7565b50505050565b6001546001600160a01b031633148061178857503360009081526004602052604090205460ff165b806117a257503360009081526005602052604090205460ff165b6117be5760405162461bcd60e51b81526004016105c690611c19565b604051630137112760e71b81526001600160a01b03838116600483015260248201839052841690639b88938090604401610f54565b60008181526003602052604081205490036118505760405162461bcd60e51b815260206004820152601e60248201527f54696d656c6f636b3a20616374696f6e206e6f74207369676e616c6c6564000060448201526064016105c6565b60008181526003602052604090205442116111835760405162461bcd60e51b8152602060048201526024808201527f54696d656c6f636b3a20616374696f6e2074696d65206e6f74207965742070616044820152631cdcd95960e21b60648201526084016105c6565b60008181526003602052604081205490036119165760405162461bcd60e51b815260206004820152601960248201527f54696d656c6f636b3a20696e76616c6964205f616374696f6e0000000000000060448201526064016105c6565b60008181526003602052604080822091909155517f194ed6dd5e37e2acc44a19455c3f208c4831ee695fe362d9c4ef2d316bc53aec906119599083815260200190565b60405180910390a150565b6000546119719042611e14565b60008281526003602090815260409182902092909255518281527f5fb9c0ecf7b4a28c4c480212e868f9da7f373a2ed4d23498b0be6aadf35242fb9101611959565b80356001600160a01b03811681146119ca57600080fd5b919050565b801515811461118357600080fd5b600080604083850312156119f057600080fd5b6119f9836119b3565b91506020830135611a09816119cf565b809150509250929050565b60008060008060808587031215611a2a57600080fd5b611a33856119b3565b9350611a41602086016119b3565b9250611a4f604086016119b3565b9396929550929360600135925050565b60008060408385031215611a7257600080fd5b611a7b836119b3565b946020939093013593505050565b60008060008060808587031215611a9f57600080fd5b611aa8856119b3565b9350611ab6602086016119b3565b92506040850135611a4f816119cf565b600080600060608486031215611adb57600080fd5b611ae4846119b3565b9250611af2602085016119b3565b91506040840135611b02816119cf565b809150509250925092565b60008060408385031215611b2057600080fd5b611b29836119b3565b9150611b37602084016119b3565b90509250929050565b600080600080600060a08688031215611b5857600080fd5b611b61866119b3565b9450611b6f602087016119b3565b9350611b7d604087016119b3565b9250606086013591506080860135611b94816119cf565b809150509295509295909350565b600060208284031215611bb457600080fd5b611bbd826119b3565b9392505050565b600060208284031215611bd657600080fd5b5035919050565b600080600060608486031215611bf257600080fd5b611bfb846119b3565b9250611c09602085016119b3565b9150604084013590509250925092565b6020808252601390820152722a34b6b2b637b1b59d103337b93134b23232b760691b604082015260600190565b6c3bb4ba34323930bbaa37b5b2b760991b81526001600160601b0319606095861b8116600d83015293851b841660218201529190931b9091166035820152604981019190915260690190565b7239b2ba283934b1b2a332b2b22bb0ba31b432b960691b81526001600160601b0319606094851b811660138301529290931b9091166027830152151560f81b603b820152603c0190565b7f707269636546656564536574546f6b656e436f6e66696700000000000000000081526001600160601b0319606096871b8116601783015294861b8516602b8201529290941b909216603f820152605381019190915290151560f81b607382015260740190565b7239b2ba283934b1b2a332b2b22ab83230ba32b960691b81526001600160601b0319606094851b811660138301529290931b9091166027830152151560f81b603b820152603c0190565b6539b2ba23b7bb60d11b81526001600160601b0319606093841b811660068301529190921b16601a820152602e0190565b66617070726f766560c81b81526001600160601b0319606094851b811660078301529290931b909116601b830152602f820152604f0190565b600060208284031215611e0957600080fd5b8151611bbd816119cf565b80820180821115611e3557634e487b7160e01b600052601160045260246000fd5b9291505056fea264697066735822122050e386b1d2a089d6848020d597ff5ee4581df067912b94e9a72d8cafba186a3a64736f6c63430008120033",
    "linkReferences": {}
  },
  "methodIdentifiers": {
    "MAX_BUFFER()": "61d07569",
    "admin()": "f851a440",
    "approve(address,address,uint256)": "e1f21c67",
    "buffer()": "edaafe20",
    "cancelAction(bytes32)": "781cc3d3",
    "isHandler(address)": "46ea87af",
    "isKeeper(address)": "6ba42aaa",
    "pendingActions(bytes32)": "e30569e5",
    "priceFeedSetTokenConfig(address,address,address,uint256,bool)": "3335e38a",
    "setAdjustment(address,address,bool,uint256)": "296b07e5",
    "setAdmin(address)": "704b6c02",
    "setBuffer(uint256)": "adc7ea37",
    "setContractHandler(address,bool)": "185051c1",
    "setExternalAdmin(address,address)": "55ef1395",
    "setGov(address,address)": "51a6de0d",
    "setIsAmmEnabled(address,bool)": "5843752f",
    "setIsSecondaryPriceEnabled(address,bool)": "2965c8c7",
    "setIsSpreadEnabled(address,bool)": "43ec6619",
    "setKeeper(address,bool)": "d1b9e853",
    "setMaxPriceUpdateDelay(address,uint256)": "5b6348ac",
    "setMaxStrictPriceDeviation(address,uint256)": "a0a316a2",
    "setMinBlockInterval(address,uint256)": "be03af58",
    "setPriceDuration(address,uint256)": "b74517ba",
    "setPriceFeedUpdater(address,address,bool)": "50e32d1d",
    "setPriceFeedWatcher(address,address,bool)": "2a72e8ba",
    "setPriceSampleSpace(address,uint256)": "2877f4c3",
    "setSpreadBasisPoints(address,address,uint256)": "e7b0a3a1",
    "setSpreadBasisPointsIfChainError(address,uint256)": "bd0f1c45",
    "setSpreadBasisPointsIfInactive(address,uint256)": "395bc794",
    "setUseV2Pricing(address,bool)": "454ffa46",
    "setVaultPriceFeed(address,address)": "2cfe82e8",
    "signalApprove(address,address,uint256)": "dce6e18d",
    "signalPriceFeedSetTokenConfig(address,address,address,uint256,bool)": "384cae73",
    "signalSetGov(address,address)": "996a7a1e",
    "signalSetPriceFeedUpdater(address,address,bool)": "db5c875f",
    "signalSetPriceFeedWatcher(address,address,bool)": "3799c618",
    "signalWithdrawToken(address,address,address,uint256)": "4cd23f3b",
    "tokenManager()": "2a709b14",
    "transferIn(address,address,uint256)": "e4652f49",
    "withdrawToken(address,address,address,uint256)": "21754d9e"
  },
  "id": 68
}