{
  "abi": [
    {
      "inputs": [
        {
          "internalType": "contract IReferralStorage",
          "name": "_referralStorage",
          "type": "address"
        },
        {
          "internalType": "bytes32[]",
          "name": "_codes",
          "type": "bytes32[]"
        }
      ],
      "name": "getCodeOwners",
      "outputs": [
        {
          "internalType": "address[]",
          "name": "",
          "type": "address[]"
        }
      ],
      "stateMutability": "view",
      "type": "function"
    }
  ],
  "bytecode": {
    "object": "0x608060405234801561001057600080fd5b50610366806100206000396000f3fe608060405234801561001057600080fd5b506004361061002b5760003560e01c80630f6803c014610030575b600080fd5b61004361003e3660046101af565b610059565b6040516100509190610282565b60405180910390f35b60606000825167ffffffffffffffff81111561007757610077610199565b6040519080825280602002602001820160405280156100a0578160200160208202803683370190505b50905060005b83518110156101795760008482815181106100c3576100c36102cf565b60200260200101519050856001600160a01b031663c8b3c460826040518263ffffffff1660e01b81526004016100fb91815260200190565b602060405180830381865afa158015610118573d6000803e3d6000fd5b505050506040513d601f19601f8201168201806040525081019061013c91906102e5565b83838151811061014e5761014e6102cf565b6001600160a01b0390921660209283029190910190910152508061017181610309565b9150506100a6565b509392505050565b6001600160a01b038116811461019657600080fd5b50565b634e487b7160e01b600052604160045260246000fd5b600080604083850312156101c257600080fd5b82356101cd81610181565b915060208381013567ffffffffffffffff808211156101eb57600080fd5b818601915086601f8301126101ff57600080fd5b81358181111561021157610211610199565b8060051b604051601f19603f8301168101818110858211171561023657610236610199565b60405291825284820192508381018501918983111561025457600080fd5b938501935b8285101561027257843584529385019392850192610259565b8096505050505050509250929050565b6020808252825182820181905260009190848201906040850190845b818110156102c35783516001600160a01b03168352928401929184019160010161029e565b50909695505050505050565b634e487b7160e01b600052603260045260246000fd5b6000602082840312156102f757600080fd5b815161030281610181565b9392505050565b60006001820161032957634e487b7160e01b600052601160045260246000fd5b506001019056fea26469706673582212205a7d30697022e1d519ea521f7b57068a37079088e76b2a468ffef933d52b41ae64736f6c63430008120033",
    "linkReferences": {}
  },
  "methodIdentifiers": {
    "getCodeOwners(address,bytes32[])": "0f6803c0"
  },
  "id": 102
}