{
  "abi": [
    {
      "inputs": [
        {
          "internalType": "address",
          "name": "_vault",
          "type": "address"
        },
        {
          "internalType": "address",
          "name": "_usdg",
          "type": "address"
        },
        {
          "internalType": "address",
          "name": "_glp",
          "type": "address"
        },
        {
          "internalType": "address",
          "name": "_shortsTracker",
          "type": "address"
        },
        {
          "internalType": "uint256",
          "name": "_cooldownDuration",
          "type": "uint256"
        }
      ],
      "stateMutability": "nonpayable",
      "type": "constructor"
    },
    {
      "inputs": [
        {
          "internalType": "address",
          "name": "target",
          "type": "address"
        }
      ],
      "name": "AddressEmptyCode",
      "type": "error"
    },
    {
      "inputs": [
        {
          "internalType": "address",
          "name": "account",
          "type": "address"
        }
      ],
      "name": "AddressInsufficientBalance",
      "type": "error"
    },
    {
      "inputs": [],
      "name": "FailedInnerCall",
      "type": "error"
    },
    {
      "inputs": [],
      "name": "ReentrancyGuardReentrantCall",
      "type": "error"
    },
    {
      "inputs": [
        {
          "internalType": "address",
          "name": "token",
          "type": "address"
        }
      ],
      "name": "SafeERC20FailedOperation",
      "type": "error"
    },
    {
      "anonymous": false,
      "inputs": [
        {
          "indexed": false,
          "internalType": "address",
          "name": "account",
          "type": "address"
        },
        {
          "indexed": false,
          "internalType": "address",
          "name": "token",
          "type": "address"
        },
        {
          "indexed": false,
          "internalType": "uint256",
          "name": "amount",
          "type": "uint256"
        },
        {
          "indexed": false,
          "internalType": "uint256",
          "name": "aumInUsdg",
          "type": "uint256"
        },
        {
          "indexed": false,
          "internalType": "uint256",
          "name": "glpSupply",
          "type": "uint256"
        },
        {
          "indexed": false,
          "internalType": "uint256",
          "name": "usdgAmount",
          "type": "uint256"
        },
        {
          "indexed": false,
          "internalType": "uint256",
          "name": "mintAmount",
          "type": "uint256"
        }
      ],
      "name": "AddLiquidity",
      "type": "event"
    },
    {
      "anonymous": false,
      "inputs": [
        {
          "indexed": false,
          "internalType": "address",
          "name": "account",
          "type": "address"
        },
        {
          "indexed": false,
          "internalType": "address",
          "name": "token",
          "type": "address"
        },
        {
          "indexed": false,
          "internalType": "uint256",
          "name": "glpAmount",
          "type": "uint256"
        },
        {
          "indexed": false,
          "internalType": "uint256",
          "name": "aumInUsdg",
          "type": "uint256"
        },
        {
          "indexed": false,
          "internalType": "uint256",
          "name": "glpSupply",
          "type": "uint256"
        },
        {
          "indexed": false,
          "internalType": "uint256",
          "name": "usdgAmount",
          "type": "uint256"
        },
        {
          "indexed": false,
          "internalType": "uint256",
          "name": "amountOut",
          "type": "uint256"
        }
      ],
      "name": "RemoveLiquidity",
      "type": "event"
    },
    {
      "inputs": [],
      "name": "BASIS_POINTS_DIVISOR",
      "outputs": [
        {
          "internalType": "uint256",
          "name": "",
          "type": "uint256"
        }
      ],
      "stateMutability": "view",
      "type": "function"
    },
    {
      "inputs": [],
      "name": "GLP_PRECISION",
      "outputs": [
        {
          "internalType": "uint256",
          "name": "",
          "type": "uint256"
        }
      ],
      "stateMutability": "view",
      "type": "function"
    },
    {
      "inputs": [],
      "name": "MAX_COOLDOWN_DURATION",
      "outputs": [
        {
          "internalType": "uint256",
          "name": "",
          "type": "uint256"
        }
      ],
      "stateMutability": "view",
      "type": "function"
    },
    {
      "inputs": [],
      "name": "PRICE_PRECISION",
      "outputs": [
        {
          "internalType": "uint256",
          "name": "",
          "type": "uint256"
        }
      ],
      "stateMutability": "view",
      "type": "function"
    },
    {
      "inputs": [],
      "name": "USDG_DECIMALS",
      "outputs": [
        {
          "internalType": "uint256",
          "name": "",
          "type": "uint256"
        }
      ],
      "stateMutability": "view",
      "type": "function"
    },
    {
      "inputs": [
        {
          "internalType": "address",
          "name": "_token",
          "type": "address"
        },
        {
          "internalType": "uint256",
          "name": "_amount",
          "type": "uint256"
        },
        {
          "internalType": "uint256",
          "name": "_minUsdg",
          "type": "uint256"
        },
        {
          "internalType": "uint256",
          "name": "_minGlp",
          "type": "uint256"
        }
      ],
      "name": "addLiquidity",
      "outputs": [
        {
          "internalType": "uint256",
          "name": "",
          "type": "uint256"
        }
      ],
      "stateMutability": "nonpayable",
      "type": "function"
    },
    {
      "inputs": [
        {
          "internalType": "address",
          "name": "_fundingAccount",
          "type": "address"
        },
        {
          "internalType": "address",
          "name": "_account",
          "type": "address"
        },
        {
          "internalType": "address",
          "name": "_token",
          "type": "address"
        },
        {
          "internalType": "uint256",
          "name": "_amount",
          "type": "uint256"
        },
        {
          "internalType": "uint256",
          "name": "_minUsdg",
          "type": "uint256"
        },
        {
          "internalType": "uint256",
          "name": "_minGlp",
          "type": "uint256"
        }
      ],
      "name": "addLiquidityForAccount",
      "outputs": [
        {
          "internalType": "uint256",
          "name": "",
          "type": "uint256"
        }
      ],
      "stateMutability": "nonpayable",
      "type": "function"
    },
    {
      "inputs": [],
      "name": "aumAddition",
      "outputs": [
        {
          "internalType": "uint256",
          "name": "",
          "type": "uint256"
        }
      ],
      "stateMutability": "view",
      "type": "function"
    },
    {
      "inputs": [],
      "name": "aumDeduction",
      "outputs": [
        {
          "internalType": "uint256",
          "name": "",
          "type": "uint256"
        }
      ],
      "stateMutability": "view",
      "type": "function"
    },
    {
      "inputs": [],
      "name": "cooldownDuration",
      "outputs": [
        {
          "internalType": "uint256",
          "name": "",
          "type": "uint256"
        }
      ],
      "stateMutability": "view",
      "type": "function"
    },
    {
      "inputs": [
        {
          "internalType": "bool",
          "name": "maximise",
          "type": "bool"
        }
      ],
      "name": "getAum",
      "outputs": [
        {
          "internalType": "uint256",
          "name": "",
          "type": "uint256"
        }
      ],
      "stateMutability": "view",
      "type": "function"
    },
    {
      "inputs": [
        {
          "internalType": "bool",
          "name": "maximise",
          "type": "bool"
        }
      ],
      "name": "getAumInUsdg",
      "outputs": [
        {
          "internalType": "uint256",
          "name": "",
          "type": "uint256"
        }
      ],
      "stateMutability": "view",
      "type": "function"
    },
    {
      "inputs": [],
      "name": "getAums",
      "outputs": [
        {
          "internalType": "uint256[]",
          "name": "",
          "type": "uint256[]"
        }
      ],
      "stateMutability": "view",
      "type": "function"
    },
    {
      "inputs": [
        {
          "internalType": "address",
          "name": "_token",
          "type": "address"
        }
      ],
      "name": "getGlobalShortAveragePrice",
      "outputs": [
        {
          "internalType": "uint256",
          "name": "",
          "type": "uint256"
        }
      ],
      "stateMutability": "view",
      "type": "function"
    },
    {
      "inputs": [
        {
          "internalType": "address",
          "name": "_token",
          "type": "address"
        },
        {
          "internalType": "uint256",
          "name": "_price",
          "type": "uint256"
        },
        {
          "internalType": "uint256",
          "name": "_size",
          "type": "uint256"
        }
      ],
      "name": "getGlobalShortDelta",
      "outputs": [
        {
          "internalType": "uint256",
          "name": "",
          "type": "uint256"
        },
        {
          "internalType": "bool",
          "name": "",
          "type": "bool"
        }
      ],
      "stateMutability": "view",
      "type": "function"
    },
    {
      "inputs": [
        {
          "internalType": "bool",
          "name": "_maximise",
          "type": "bool"
        }
      ],
      "name": "getPrice",
      "outputs": [
        {
          "internalType": "uint256",
          "name": "",
          "type": "uint256"
        }
      ],
      "stateMutability": "view",
      "type": "function"
    },
    {
      "inputs": [],
      "name": "glp",
      "outputs": [
        {
          "internalType": "address",
          "name": "",
          "type": "address"
        }
      ],
      "stateMutability": "view",
      "type": "function"
    },
    {
      "inputs": [],
      "name": "gov",
      "outputs": [
        {
          "internalType": "address",
          "name": "",
          "type": "address"
        }
      ],
      "stateMutability": "view",
      "type": "function"
    },
    {
      "inputs": [],
      "name": "inPrivateMode",
      "outputs": [
        {
          "internalType": "bool",
          "name": "",
          "type": "bool"
        }
      ],
      "stateMutability": "view",
      "type": "function"
    },
    {
      "inputs": [
        {
          "internalType": "address",
          "name": "",
          "type": "address"
        }
      ],
      "name": "isHandler",
      "outputs": [
        {
          "internalType": "bool",
          "name": "",
          "type": "bool"
        }
      ],
      "stateMutability": "view",
      "type": "function"
    },
    {
      "inputs": [
        {
          "internalType": "address",
          "name": "",
          "type": "address"
        }
      ],
      "name": "lastAddedAt",
      "outputs": [
        {
          "internalType": "uint256",
          "name": "",
          "type": "uint256"
        }
      ],
      "stateMutability": "view",
      "type": "function"
    },
    {
      "inputs": [
        {
          "internalType": "address",
          "name": "_tokenOut",
          "type": "address"
        },
        {
          "internalType": "uint256",
          "name": "_glpAmount",
          "type": "uint256"
        },
        {
          "internalType": "uint256",
          "name": "_minOut",
          "type": "uint256"
        },
        {
          "internalType": "address",
          "name": "_receiver",
          "type": "address"
        }
      ],
      "name": "removeLiquidity",
      "outputs": [
        {
          "internalType": "uint256",
          "name": "",
          "type": "uint256"
        }
      ],
      "stateMutability": "nonpayable",
      "type": "function"
    },
    {
      "inputs": [
        {
          "internalType": "address",
          "name": "_account",
          "type": "address"
        },
        {
          "internalType": "address",
          "name": "_tokenOut",
          "type": "address"
        },
        {
          "internalType": "uint256",
          "name": "_glpAmount",
          "type": "uint256"
        },
        {
          "internalType": "uint256",
          "name": "_minOut",
          "type": "uint256"
        },
        {
          "internalType": "address",
          "name": "_receiver",
          "type": "address"
        }
      ],
      "name": "removeLiquidityForAccount",
      "outputs": [
        {
          "internalType": "uint256",
          "name": "",
          "type": "uint256"
        }
      ],
      "stateMutability": "nonpayable",
      "type": "function"
    },
    {
      "inputs": [
        {
          "internalType": "uint256",
          "name": "_aumAddition",
          "type": "uint256"
        },
        {
          "internalType": "uint256",
          "name": "_aumDeduction",
          "type": "uint256"
        }
      ],
      "name": "setAumAdjustment",
      "outputs": [],
      "stateMutability": "nonpayable",
      "type": "function"
    },
    {
      "inputs": [
        {
          "internalType": "uint256",
          "name": "_cooldownDuration",
          "type": "uint256"
        }
      ],
      "name": "setCooldownDuration",
      "outputs": [],
      "stateMutability": "nonpayable",
      "type": "function"
    },
    {
      "inputs": [
        {
          "internalType": "address",
          "name": "_gov",
          "type": "address"
        }
      ],
      "name": "setGov",
      "outputs": [],
      "stateMutability": "nonpayable",
      "type": "function"
    },
    {
      "inputs": [
        {
          "internalType": "address",
          "name": "_handler",
          "type": "address"
        },
        {
          "internalType": "bool",
          "name": "_isActive",
          "type": "bool"
        }
      ],
      "name": "setHandler",
      "outputs": [],
      "stateMutability": "nonpayable",
      "type": "function"
    },
    {
      "inputs": [
        {
          "internalType": "bool",
          "name": "_inPrivateMode",
          "type": "bool"
        }
      ],
      "name": "setInPrivateMode",
      "outputs": [],
      "stateMutability": "nonpayable",
      "type": "function"
    },
    {
      "inputs": [
        {
          "internalType": "contract IShortsTracker",
          "name": "_shortsTracker",
          "type": "address"
        }
      ],
      "name": "setShortsTracker",
      "outputs": [],
      "stateMutability": "nonpayable",
      "type": "function"
    },
    {
      "inputs": [
        {
          "internalType": "uint256",
          "name": "_shortsTrackerAveragePriceWeight",
          "type": "uint256"
        }
      ],
      "name": "setShortsTrackerAveragePriceWeight",
      "outputs": [],
      "stateMutability": "nonpayable",
      "type": "function"
    },
    {
      "inputs": [],
      "name": "shortsTracker",
      "outputs": [
        {
          "internalType": "contract IShortsTracker",
          "name": "",
          "type": "address"
        }
      ],
      "stateMutability": "view",
      "type": "function"
    },
    {
      "inputs": [],
      "name": "shortsTrackerAveragePriceWeight",
      "outputs": [
        {
          "internalType": "uint256",
          "name": "",
          "type": "uint256"
        }
      ],
      "stateMutability": "view",
      "type": "function"
    },
    {
      "inputs": [],
      "name": "usdg",
      "outputs": [
        {
          "internalType": "address",
          "name": "",
          "type": "address"
        }
      ],
      "stateMutability": "view",
      "type": "function"
    },
    {
      "inputs": [],
      "name": "vault",
      "outputs": [
        {
          "internalType": "contract IVault",
          "name": "",
          "type": "address"
        }
      ],
      "stateMutability": "view",
      "type": "function"
    }
  ],
  "bytecode": {
    "object": "0x60806040523480156200001157600080fd5b50604051620023e2380380620023e28339810160408190526200003491620000be565b6001600081905580546001600160a01b03199081163380831691909117179091556002805482166001600160a01b03978816179055600480548216958716959095179094556005805485169386169390931790925560038054909316931692909217905560065562000125565b80516001600160a01b0381168114620000b957600080fd5b919050565b600080600080600060a08688031215620000d757600080fd5b620000e286620000a1565b9450620000f260208701620000a1565b93506200010260408701620000a1565b92506200011260608701620000a1565b9150608086015190509295509295909350565b6122ad80620001356000396000f3fe608060405234801561001057600080fd5b50600436106102065760003560e01c806371d597ad1161011a5780639cb7de4b116100ad578063d34ee0931161007c578063d34ee09314610452578063e245b5af14610465578063ed0d1c0414610478578063f5b91b7b1461048d578063fbfa77cf146104a057600080fd5b80639cb7de4b146103fb578063a1acd3d51461040e578063b172bb0c14610436578063cfad57a21461043f57600080fd5b80638fed0b2c116100e95780638fed0b2c146103ae5780639116c4ae146103c157806395082d25146103d4578063966be075146103e857600080fd5b806371d597ad1461036057806378a207ee14610373578063870d917c146103865780638b770e111461038e57600080fd5b8063352693151161019d57806364e6617f1161016c57806364e6617f1461030f578063657bc5d014610318578063662f1c681461032b57806368a0a3e01461033a5780636a86da191461034d57600080fd5b806335269315146102bb578063440d828a146102c457806346ea87af146102d75780634f5f6b5e146102fa57600080fd5b806317eb2a15116101d957806317eb2a1514610282578063196b68cb146102955780631e9049cf1461029e5780631ece366a146102a857600080fd5b8063033914761461020b578063070eacee14610231578063126082cf1461024e57806312d43a5114610257575b600080fd5b61021e610219366004611d6f565b6104b3565b6040519081526020015b60405180910390f35b600a5461023e9060ff1681565b6040519015158152602001610228565b61021e61271081565b60015461026a906001600160a01b031681565b6040516001600160a01b039091168152602001610228565b61021e610290366004611da1565b610ac9565b61021e60085481565b61021e6202a30081565b61021e6102b6366004611e06565b610af5565b61021e60065481565b61021e6102d2366004611e41565b610b79565b61023e6102e5366004611e41565b600c6020526000908152604090205460ff1681565b61030d610308366004611e5e565b610e38565b005b61021e600b5481565b60035461026a906001600160a01b031681565b61021e670de0b6b3a764000081565b61021e610348366004611d6f565b610ebb565b61030d61035b366004611d6f565b610ef7565b61021e61036e366004611e77565b610f34565b60055461026a906001600160a01b031681565b61021e601281565b61021e61039c366004611e41565b60076020526000908152604090205481565b61021e6103bc366004611ed6565b610f68565b61030d6103cf366004611f20565b610fd2565b61021e6c0c9f2c9cd04674edea4000000081565b61030d6103f6366004611e5e565b611007565b61030d610409366004611f42565b611097565b61042161041c366004611f7b565b6110ec565b60408051928352901515602083015201610228565b61021e60095481565b61030d61044d366004611e41565b611147565b61030d610460366004611e41565b6111e9565b61021e610473366004611d6f565b611235565b6104806112db565b6040516102289190611fb0565b60045461026a906001600160a01b031681565b60025461026a906001600160a01b031681565b600080600260009054906101000a90046001600160a01b03166001600160a01b0316630842b0766040518163ffffffff1660e01b8152600401602060405180830381865afa158015610509573d6000803e3d6000fd5b505050506040513d601f19601f8201168201806040525081019061052d9190611ff4565b600854600254919250906000906001600160a01b0316815b84811015610a8557600254604051630e468baf60e41b8152600481018390526000916001600160a01b03169063e468baf090602401602060405180830381865afa158015610597573d6000803e3d6000fd5b505050506040513d601f19601f820116820180604052508101906105bb919061200d565b600254604051630daf9c2160e41b81526001600160a01b0380841660048301529293506000929091169063daf9c21090602401602060405180830381865afa15801561060b573d6000803e3d6000fd5b505050506040513d601f19601f8201168201806040525081019061062f919061202a565b90508061063d575050610a73565b6000896106b3576040516340d3096b60e11b81526001600160a01b0384811660048301528616906381a612d690602401602060405180830381865afa15801561068a573d6000803e3d6000fd5b505050506040513d601f19601f820116820180604052508101906106ae9190611ff4565b61071d565b604051637092736960e11b81526001600160a01b03848116600483015286169063e124e6d290602401602060405180830381865afa1580156106f9573d6000803e3d6000fd5b505050506040513d601f19601f8201168201806040525081019061071d9190611ff4565b6040516352f55eed60e01b81526001600160a01b0385811660048301529192506000918716906352f55eed90602401602060405180830381865afa158015610769573d6000803e3d6000fd5b505050506040513d601f19601f8201168201806040525081019061078d9190611ff4565b6040516323b95ceb60e21b81526001600160a01b038681166004830152919250600091881690638ee573ac90602401602060405180830381865afa1580156107d9573d6000803e3d6000fd5b505050506040513d601f19601f820116820180604052508101906107fd9190611ff4565b6040516342b60b0360e01b81526001600160a01b038781166004830152919250908816906342b60b0390602401602060405180830381865afa158015610847573d6000803e3d6000fd5b505050506040513d601f19601f8201168201806040525081019061086b919061202a565b156108a05761087b81600a612141565b610885848461214d565b61088f9190612164565b610899908a612186565b9850610a6d565b60405163114f1b5560e31b81526001600160a01b03868116600483015260009190891690638a78daa890602401602060405180830381865afa1580156108ea573d6000803e3d6000fd5b505050506040513d601f19601f8201168201806040525081019061090e9190611ff4565b9050801561094e576000806109248887856110ec565b915091508061093e57610937828d612186565b9b5061094b565b610948828c612186565b9a505b50505b60405163783a2b6760e11b81526001600160a01b03878116600483015289169063f07456ce90602401602060405180830381865afa158015610994573d6000803e3d6000fd5b505050506040513d601f19601f820116820180604052508101906109b89190611ff4565b6109c2908b612186565b60405163c3c7b9e960e01b81526001600160a01b038881166004830152919b506000918a169063c3c7b9e990602401602060405180830381865afa158015610a0e573d6000803e3d6000fd5b505050506040513d601f19601f82011682018060405250810190610a329190611ff4565b9050610a3f83600a612141565b85610a4a8387612199565b610a54919061214d565b610a5e9190612164565b610a68908c612186565b9a5050505b50505050505b80610a7d816121ac565b915050610545565b50828211610a9c57610a978284612199565b610a9f565b60005b92508260095411610abc57600954610ab79084612199565b610abf565b60005b9695505050505050565b6000610ad3611356565b610adb611380565b610ae98787878787876113d9565b9050610abf6001600055565b6000610aff611356565b600a5460ff1615610b575760405162461bcd60e51b815260206004820152601e60248201527f476c704d616e616765723a20616374696f6e206e6f7420656e61626c6564000060448201526064015b60405180910390fd5b610b653333878787876113d9565b9050610b716001600055565b949350505050565b6003546000906001600160a01b0316801580610bf45750806001600160a01b0316639a11178f6040518163ffffffff1660e01b8152600401602060405180830381865afa158015610bce573d6000803e3d6000fd5b505050506040513d601f19601f82011682018060405250810190610bf2919061202a565b155b15610c6e57600254604051636274980360e01b81526001600160a01b03858116600483015290911690636274980390602401602060405180830381865afa158015610c43573d6000803e3d6000fd5b505050506040513d601f19601f82011682018060405250810190610c679190611ff4565b9392505050565b600b546000819003610ce957600254604051636274980360e01b81526001600160a01b038681166004830152909116906362749803906024015b602060405180830381865afa158015610cc5573d6000803e3d6000fd5b505050506040513d601f19601f82011682018060405250810190610b719190611ff4565b6127108103610d2057604051636274980360e01b81526001600160a01b038581166004830152831690636274980390602401610ca8565b600254604051636274980360e01b81526001600160a01b0386811660048301526000921690636274980390602401602060405180830381865afa158015610d6b573d6000803e3d6000fd5b505050506040513d601f19601f82011682018060405250810190610d8f9190611ff4565b604051636274980360e01b81526001600160a01b038781166004830152919250600091851690636274980390602401602060405180830381865afa158015610ddb573d6000803e3d6000fd5b505050506040513d601f19601f82011682018060405250810190610dff9190611ff4565b9050612710610e0e848361214d565b610e1a85612710612199565b610e24908561214d565b610e2e9190612186565b610abf9190612164565b6001546001600160a01b03163314610e625760405162461bcd60e51b8152600401610b4e906121c5565b612710600b541115610eb65760405162461bcd60e51b815260206004820152601a60248201527f476c704d616e616765723a20696e76616c6964207765696768740000000000006044820152606401610b4e565b600b55565b600080610ec7836104b3565b90506c0c9f2c9cd04674edea40000000610ee36012600a612141565b610eed908361214d565b610c679190612164565b6001546001600160a01b03163314610f215760405162461bcd60e51b8152600401610b4e906121c5565b600a805460ff1916911515919091179055565b6000610f3e611356565b610f46611380565b610f5386868686866116fa565b9050610f5f6001600055565b95945050505050565b6000610f72611356565b600a5460ff1615610fc55760405162461bcd60e51b815260206004820152601e60248201527f476c704d616e616765723a20616374696f6e206e6f7420656e61626c656400006044820152606401610b4e565b610b6533868686866116fa565b6001546001600160a01b03163314610ffc5760405162461bcd60e51b8152600401610b4e906121c5565b600891909155600955565b6001546001600160a01b031633146110315760405162461bcd60e51b8152600401610b4e906121c5565b6202a3008111156110925760405162461bcd60e51b815260206004820152602560248201527f476c704d616e616765723a20696e76616c6964205f636f6f6c646f776e44757260448201526430ba34b7b760d91b6064820152608401610b4e565b600655565b6001546001600160a01b031633146110c15760405162461bcd60e51b8152600401610b4e906121c5565b6001600160a01b03919091166000908152600c60205260409020805460ff1916911515919091179055565b60008060006110fa86610b79565b905060008582116111145761110f8287612199565b61111e565b61111e8683612199565b905060008261112d838861214d565b6111379190612164565b9450505084109050935093915050565b6001546001600160a01b031633146111715760405162461bcd60e51b8152600401610b4e906121c5565b6001600160a01b0381166111c75760405162461bcd60e51b815260206004820181905260248201527f476f7665726e61626c653a205f676f76206973207a65726f20616464726573736044820152606401610b4e565b600180546001600160a01b0319166001600160a01b0392909216919091179055565b6001546001600160a01b031633146112135760405162461bcd60e51b8152600401610b4e906121c5565b600380546001600160a01b0319166001600160a01b0392909216919091179055565b600080611241836104b3565b90506000600560009054906101000a90046001600160a01b03166001600160a01b03166318160ddd6040518163ffffffff1660e01b8152600401602060405180830381865afa158015611298573d6000803e3d6000fd5b505050506040513d601f19601f820116820180604052508101906112bc9190611ff4565b9050806112d1670de0b6b3a76400008461214d565b610b719190612164565b6040805160028082526060808301845292600092919060208301908036833701905050905061130a60016104b3565b8160008151811061131d5761131d6121f4565b60200260200101818152505061133360006104b3565b81600181518110611346576113466121f4565b6020908102919091010152919050565b60026000540361137957604051633ee5aeb560e01b815260040160405180910390fd5b6002600055565b336000908152600c602052604090205460ff166113d75760405162461bcd60e51b815260206004820152601560248201527423b63826b0b730b3b2b91d103337b93134b23232b760591b6044820152606401610b4e565b565b600080841161142a5760405162461bcd60e51b815260206004820152601b60248201527f476c704d616e616765723a20696e76616c6964205f616d6f756e7400000000006044820152606401610b4e565b60006114366001610ebb565b90506000600560009054906101000a90046001600160a01b03166001600160a01b03166318160ddd6040518163ffffffff1660e01b8152600401602060405180830381865afa15801561148d573d6000803e3d6000fd5b505050506040513d601f19601f820116820180604052508101906114b19190611ff4565b6002549091506114d0906001600160a01b03898116918c911689611b55565b60025460405163817bb85760e01b81526001600160a01b038981166004830152306024830152600092169063817bb857906044016020604051808303816000875af1158015611523573d6000803e3d6000fd5b505050506040513d601f19601f820116820180604052508101906115479190611ff4565b9050858110156115a55760405162461bcd60e51b8152602060048201526024808201527f476c704d616e616765723a20696e73756666696369656e742055534447206f756044820152631d1c1d5d60e21b6064820152608401610b4e565b600083156115c757836115b8848461214d565b6115c29190612164565b6115c9565b815b9050858110156116275760405162461bcd60e51b815260206004820152602360248201527f476c704d616e616765723a20696e73756666696369656e7420474c50206f75746044820152621c1d5d60ea1b6064820152608401610b4e565b6005546040516340c10f1960e01b81526001600160a01b038c8116600483015260248201849052909116906340c10f1990604401600060405180830381600087803b15801561167557600080fd5b505af1158015611689573d6000803e3d6000fd5b5050506001600160a01b038b1660009081526007602052604090819020429055517f38dc38b96482be64113daffd8d464ebda93e856b70ccfc605e69ccf892ab981e91506116e4908c908c908c90899089908990899061220a565b60405180910390a19a9950505050505050505050565b600080841161174b5760405162461bcd60e51b815260206004820152601e60248201527f476c704d616e616765723a20696e76616c6964205f676c70416d6f756e7400006044820152606401610b4e565b6006546001600160a01b038716600090815260076020526040902054429161177291612186565b11156117d55760405162461bcd60e51b815260206004820152602c60248201527f476c704d616e616765723a20636f6f6c646f776e206475726174696f6e206e6f60448201526b1d081e595d081c185cdcd95960a21b6064820152608401610b4e565b60006117e16000610ebb565b90506000600560009054906101000a90046001600160a01b03166001600160a01b03166318160ddd6040518163ffffffff1660e01b8152600401602060405180830381865afa158015611838573d6000803e3d6000fd5b505050506040513d601f19601f8201168201806040525081019061185c9190611ff4565b905060008161186b848961214d565b6118759190612164565b600480546040516370a0823160e01b815230928101929092529192506000916001600160a01b0316906370a0823190602401602060405180830381865afa1580156118c4573d6000803e3d6000fd5b505050506040513d601f19601f820116820180604052508101906118e89190611ff4565b90508082111561196d576004546001600160a01b03166340c10f193061190e8486612199565b6040516001600160e01b031960e085901b1681526001600160a01b0390921660048301526024820152604401600060405180830381600087803b15801561195457600080fd5b505af1158015611968573d6000803e3d6000fd5b505050505b600554604051632770a7eb60e21b81526001600160a01b038c81166004830152602482018b905290911690639dc29fac90604401600060405180830381600087803b1580156119bb57600080fd5b505af11580156119cf573d6000803e3d6000fd5b50506004805460025460405163a9059cbb60e01b81526001600160a01b03918216938101939093526024830187905216925063a9059cbb91506044016020604051808303816000875af1158015611a2a573d6000803e3d6000fd5b505050506040513d601f19601f82011682018060405250810190611a4e919061202a565b50600254604051630711e61960e41b81526001600160a01b038b811660048301528881166024830152600092169063711e6190906044016020604051808303816000875af1158015611aa4573d6000803e3d6000fd5b505050506040513d601f19601f82011682018060405250810190611ac89190611ff4565b905087811015611b1a5760405162461bcd60e51b815260206004820152601f60248201527f476c704d616e616765723a20696e73756666696369656e74206f7574707574006044820152606401610b4e565b7f87b9679bb9a4944bafa98c267e7cd4a00ab29fed48afdefae25f0fca5da279408b8b8b888888876040516116e4979695949392919061220a565b604080516001600160a01b0385811660248301528416604482015260648082018490528251808303909101815260849091019091526020810180516001600160e01b03166323b872dd60e01b179052611baf908590611bb5565b50505050565b6000611bca6001600160a01b03841683611c1d565b90508051600014158015611bef575080806020019051810190611bed919061202a565b155b15611c1857604051635274afe760e01b81526001600160a01b0384166004820152602401610b4e565b505050565b6060611c2e83836000611c37611c50565b90505b92915050565b604051630a12f52160e11b815260040160405180910390fd5b606082471015611c755760405163cd78605960e01b8152306004820152602401610b4e565b600080866001600160a01b03168587604051611c919190612248565b60006040518083038185875af1925050503d8060008114611cce576040519150601f19603f3d011682016040523d82523d6000602084013e611cd3565b606091505b5091509150611ce487838387611cef565b979650505050505050565b60608315611d3d578251600003611d3657846001600160a01b03163b600003611d3657604051639996b31560e01b81526001600160a01b0386166004820152602401610b4e565b5081610b71565b610b718383815115611d525781518083602001fd5b611c378163ffffffff16565b8015158114611d6c57600080fd5b50565b600060208284031215611d8157600080fd5b8135610c6781611d5e565b6001600160a01b0381168114611d6c57600080fd5b60008060008060008060c08789031215611dba57600080fd5b8635611dc581611d8c565b95506020870135611dd581611d8c565b94506040870135611de581611d8c565b959894975094956060810135955060808101359460a0909101359350915050565b60008060008060808587031215611e1c57600080fd5b8435611e2781611d8c565b966020860135965060408601359560600135945092505050565b600060208284031215611e5357600080fd5b8135610c6781611d8c565b600060208284031215611e7057600080fd5b5035919050565b600080600080600060a08688031215611e8f57600080fd5b8535611e9a81611d8c565b94506020860135611eaa81611d8c565b935060408601359250606086013591506080860135611ec881611d8c565b809150509295509295909350565b60008060008060808587031215611eec57600080fd5b8435611ef781611d8c565b935060208501359250604085013591506060850135611f1581611d8c565b939692955090935050565b60008060408385031215611f3357600080fd5b50508035926020909101359150565b60008060408385031215611f5557600080fd5b8235611f6081611d8c565b91506020830135611f7081611d5e565b809150509250929050565b600080600060608486031215611f9057600080fd5b8335611f9b81611d8c565b95602085013595506040909401359392505050565b6020808252825182820181905260009190848201906040850190845b81811015611fe857835183529284019291840191600101611fcc565b50909695505050505050565b60006020828403121561200657600080fd5b5051919050565b60006020828403121561201f57600080fd5b8151610c6781611d8c565b60006020828403121561203c57600080fd5b8151610c6781611d5e565b634e487b7160e01b600052601160045260246000fd5b600181815b8085111561209857816000190482111561207e5761207e612047565b8085161561208b57918102915b93841c9390800290612062565b509250929050565b6000826120af57506001611c31565b816120bc57506000611c31565b81600181146120d257600281146120dc576120f8565b6001915050611c31565b60ff8411156120ed576120ed612047565b50506001821b611c31565b5060208310610133831016604e8410600b841016171561211b575081810a611c31565b612125838361205d565b806000190482111561213957612139612047565b029392505050565b6000611c2e83836120a0565b8082028115828204841417611c3157611c31612047565b60008261218157634e487b7160e01b600052601260045260246000fd5b500490565b80820180821115611c3157611c31612047565b81810381811115611c3157611c31612047565b6000600182016121be576121be612047565b5060010190565b60208082526015908201527423b7bb32b93730b136329d103337b93134b23232b760591b604082015260600190565b634e487b7160e01b600052603260045260246000fd5b6001600160a01b03978816815295909616602086015260408501939093526060840191909152608083015260a082015260c081019190915260e00190565b6000825160005b81811015612269576020818601810151858301520161224f565b50600092019182525091905056fea26469706673582212206245c5b0c410cbfeb83d2301de378f54ecae54aed4872e28c1a0cf50e88c344164736f6c63430008120033",
    "linkReferences": {}
  },
  "methodIdentifiers": {
    "BASIS_POINTS_DIVISOR()": "126082cf",
    "GLP_PRECISION()": "662f1c68",
    "MAX_COOLDOWN_DURATION()": "1e9049cf",
    "PRICE_PRECISION()": "95082d25",
    "USDG_DECIMALS()": "870d917c",
    "addLiquidity(address,uint256,uint256,uint256)": "1ece366a",
    "addLiquidityForAccount(address,address,address,uint256,uint256,uint256)": "17eb2a15",
    "aumAddition()": "196b68cb",
    "aumDeduction()": "b172bb0c",
    "cooldownDuration()": "35269315",
    "getAum(bool)": "03391476",
    "getAumInUsdg(bool)": "68a0a3e0",
    "getAums()": "ed0d1c04",
    "getGlobalShortAveragePrice(address)": "440d828a",
    "getGlobalShortDelta(address,uint256,uint256)": "a1acd3d5",
    "getPrice(bool)": "e245b5af",
    "glp()": "78a207ee",
    "gov()": "12d43a51",
    "inPrivateMode()": "070eacee",
    "isHandler(address)": "46ea87af",
    "lastAddedAt(address)": "8b770e11",
    "removeLiquidity(address,uint256,uint256,address)": "8fed0b2c",
    "removeLiquidityForAccount(address,address,uint256,uint256,address)": "71d597ad",
    "setAumAdjustment(uint256,uint256)": "9116c4ae",
    "setCooldownDuration(uint256)": "966be075",
    "setGov(address)": "cfad57a2",
    "setHandler(address,bool)": "9cb7de4b",
    "setInPrivateMode(bool)": "6a86da19",
    "setShortsTracker(address)": "d34ee093",
    "setShortsTrackerAveragePriceWeight(uint256)": "4f5f6b5e",
    "shortsTracker()": "657bc5d0",
    "shortsTrackerAveragePriceWeight()": "64e6617f",
    "usdg()": "f5b91b7b",
    "vault()": "fbfa77cf"
  },
  "id": 37
}