{"abi":[{"type":"constructor","inputs":[{"name":"_name","type":"string","internalType":"string"},{"name":"_symbol","type":"string","internalType":"string"},{"name":"_initialSupply","type":"uint256","internalType":"uint256"}],"stateMutability":"nonpayable"},{"type":"function","name":"addAdmin","inputs":[{"name":"_account","type":"address","internalType":"address"}],"outputs":[],"stateMutability":"nonpayable"},{"type":"function","name":"addNonStakingAccount","inputs":[{"name":"_account","type":"address","internalType":"address"}],"outputs":[],"stateMutability":"nonpayable"},{"type":"function","name":"admins","inputs":[{"name":"","type":"address","internalType":"address"}],"outputs":[{"name":"","type":"bool","internalType":"bool"}],"stateMutability":"view"},{"type":"function","name":"allowance","inputs":[{"name":"_owner","type":"address","internalType":"address"},{"name":"_spender","type":"address","internalType":"address"}],"outputs":[{"name":"","type":"uint256","internalType":"uint256"}],"stateMutability":"view"},{"type":"function","name":"allowances","inputs":[{"name":"","type":"address","internalType":"address"},{"name":"","type":"address","internalType":"address"}],"outputs":[{"name":"","type":"uint256","internalType":"uint256"}],"stateMutability":"view"},{"type":"function","name":"approve","inputs":[{"name":"_spender","type":"address","internalType":"address"},{"name":"_amount","type":"uint256","internalType":"uint256"}],"outputs":[{"name":"","type":"bool","internalType":"bool"}],"stateMutability":"nonpayable"},{"type":"function","name":"balanceOf","inputs":[{"name":"_account","type":"address","internalType":"address"}],"outputs":[{"name":"","type":"uint256","internalType":"uint256"}],"stateMutability":"view"},{"type":"function","name":"balances","inputs":[{"name":"","type":"address","internalType":"address"}],"outputs":[{"name":"","type":"uint256","internalType":"uint256"}],"stateMutability":"view"},{"type":"function","name":"batchMint","inputs":[{"name":"_accounts","type":"address[]","internalType":"address[]"},{"name":"_amounts","type":"uint256[]","internalType":"uint256[]"}],"outputs":[],"stateMutability":"nonpayable"},{"type":"function","name":"burn","inputs":[{"name":"_account","type":"address","internalType":"address"},{"name":"_amount","type":"uint256","internalType":"uint256"}],"outputs":[],"stateMutability":"nonpayable"},{"type":"function","name":"claim","inputs":[{"name":"_receiver","type":"address","internalType":"address"}],"outputs":[],"stateMutability":"nonpayable"},{"type":"function","name":"decimals","inputs":[],"outputs":[{"name":"","type":"uint8","internalType":"uint8"}],"stateMutability":"view"},{"type":"function","name":"gov","inputs":[],"outputs":[{"name":"","type":"address","internalType":"address"}],"stateMutability":"view"},{"type":"function","name":"inPrivateTransferMode","inputs":[],"outputs":[{"name":"","type":"bool","internalType":"bool"}],"stateMutability":"view"},{"type":"function","name":"isHandler","inputs":[{"name":"","type":"address","internalType":"address"}],"outputs":[{"name":"","type":"bool","internalType":"bool"}],"stateMutability":"view"},{"type":"function","name":"isMinter","inputs":[{"name":"","type":"address","internalType":"address"}],"outputs":[{"name":"","type":"bool","internalType":"bool"}],"stateMutability":"view"},{"type":"function","name":"mint","inputs":[{"name":"_account","type":"address","internalType":"address"},{"name":"_amount","type":"uint256","internalType":"uint256"}],"outputs":[],"stateMutability":"nonpayable"},{"type":"function","name":"name","inputs":[],"outputs":[{"name":"","type":"string","internalType":"string"}],"stateMutability":"view"},{"type":"function","name":"nonStakingAccounts","inputs":[{"name":"","type":"address","internalType":"address"}],"outputs":[{"name":"","type":"bool","internalType":"bool"}],"stateMutability":"view"},{"type":"function","name":"nonStakingSupply","inputs":[],"outputs":[{"name":"","type":"uint256","internalType":"uint256"}],"stateMutability":"view"},{"type":"function","name":"recoverClaim","inputs":[{"name":"_account","type":"address","internalType":"address"},{"name":"_receiver","type":"address","internalType":"address"}],"outputs":[],"stateMutability":"nonpayable"},{"type":"function","name":"removeAdmin","inputs":[{"name":"_account","type":"address","internalType":"address"}],"outputs":[],"stateMutability":"nonpayable"},{"type":"function","name":"removeNonStakingAccount","inputs":[{"name":"_account","type":"address","internalType":"address"}],"outputs":[],"stateMutability":"nonpayable"},{"type":"function","name":"setGov","inputs":[{"name":"_gov","type":"address","internalType":"address"}],"outputs":[],"stateMutability":"nonpayable"},{"type":"function","name":"setHandler","inputs":[{"name":"_handler","type":"address","internalType":"address"},{"name":"_isActive","type":"bool","internalType":"bool"}],"outputs":[],"stateMutability":"nonpayable"},{"type":"function","name":"setInPrivateTransferMode","inputs":[{"name":"_inPrivateTransferMode","type":"bool","internalType":"bool"}],"outputs":[],"stateMutability":"nonpayable"},{"type":"function","name":"setInfo","inputs":[{"name":"_name","type":"string","internalType":"string"},{"name":"_symbol","type":"string","internalType":"string"}],"outputs":[],"stateMutability":"nonpayable"},{"type":"function","name":"setMinter","inputs":[{"name":"_minter","type":"address","internalType":"address"},{"name":"_isActive","type":"bool","internalType":"bool"}],"outputs":[],"stateMutability":"nonpayable"},{"type":"function","name":"setYieldTrackers","inputs":[{"name":"_yieldTrackers","type":"address[]","internalType":"address[]"}],"outputs":[],"stateMutability":"nonpayable"},{"type":"function","name":"stakedBalance","inputs":[{"name":"_account","type":"address","internalType":"address"}],"outputs":[{"name":"","type":"uint256","internalType":"uint256"}],"stateMutability":"view"},{"type":"function","name":"symbol","inputs":[],"outputs":[{"name":"","type":"string","internalType":"string"}],"stateMutability":"view"},{"type":"function","name":"totalStaked","inputs":[],"outputs":[{"name":"","type":"uint256","internalType":"uint256"}],"stateMutability":"view"},{"type":"function","name":"totalSupply","inputs":[],"outputs":[{"name":"","type":"uint256","internalType":"uint256"}],"stateMutability":"view"},{"type":"function","name":"transfer","inputs":[{"name":"_recipient","type":"address","internalType":"address"},{"name":"_amount","type":"uint256","internalType":"uint256"}],"outputs":[{"name":"","type":"bool","internalType":"bool"}],"stateMutability":"nonpayable"},{"type":"function","name":"transferFrom","inputs":[{"name":"_sender","type":"address","internalType":"address"},{"name":"_recipient","type":"address","internalType":"address"},{"name":"_amount","type":"uint256","internalType":"uint256"}],"outputs":[{"name":"","type":"bool","internalType":"bool"}],"stateMutability":"nonpayable"},{"type":"function","name":"withdrawToken","inputs":[{"name":"_token","type":"address","internalType":"address"},{"name":"_account","type":"address","internalType":"address"},{"name":"_amount","type":"uint256","internalType":"uint256"}],"outputs":[],"stateMutability":"nonpayable"},{"type":"function","name":"yieldTrackers","inputs":[{"name":"","type":"uint256","internalType":"uint256"}],"outputs":[{"name":"","type":"address","internalType":"address"}],"stateMutability":"view"},{"type":"event","name":"Approval","inputs":[{"name":"owner","type":"address","indexed":true,"internalType":"address"},{"name":"spender","type":"address","indexed":true,"internalType":"address"},{"name":"value","type":"uint256","indexed":false,"internalType":"uint256"}],"anonymous":false},{"type":"event","name":"Transfer","inputs":[{"name":"from","type":"address","indexed":true,"internalType":"address"},{"name":"to","type":"address","indexed":true,"internalType":"address"},{"name":"value","type":"uint256","indexed":false,"internalType":"uint256"}],"anonymous":false},{"type":"error","name":"AddressEmptyCode","inputs":[{"name":"target","type":"address","internalType":"address"}]},{"type":"error","name":"AddressInsufficientBalance","inputs":[{"name":"account","type":"address","internalType":"address"}]},{"type":"error","name":"FailedInnerCall","inputs":[]},{"type":"error","name":"SafeERC20FailedOperation","inputs":[{"name":"token","type":"address","internalType":"address"}]}],"bytecode":{"object":"0x60806040523480156200001157600080fd5b50604051620024143803806200241483398101604081905262000034916200032d565b82828282828260006200004884826200042f565b5060016200005783826200042f565b50600480546001600160a01b0319163390811790915562000079908262000088565b5050505050505050506200055f565b6001600160a01b038216620000ef5760405162461bcd60e51b815260206004820152602360248201527f42617365546f6b656e3a206d696e7420746f20746865207a65726f206164647260448201526265737360e81b606482015260840160405180910390fd5b620000fa82620001ba565b806002546200010a919062000511565b6002556001600160a01b0382166000908152600560205260409020546200013390829062000511565b6001600160a01b03831660009081526005602090815260408083209390935560089052205460ff161562000175578060035462000171919062000511565b6003555b6040518181526001600160a01b038316906000907fddf252ad1be2c89b69c2b068fc378daa952ba7f163c4a11628f55a4df523b3ef9060200160405180910390a35050565b60005b6007548110156200026457600060078281548110620001e057620001e06200052d565b600091825260209091200154604051635fd6196560e01b81526001600160a01b03858116600483015290911691508190635fd6196590602401600060405180830381600087803b1580156200023457600080fd5b505af115801562000249573d6000803e3d6000fd5b505050505080806200025b9062000543565b915050620001bd565b5050565b634e487b7160e01b600052604160045260246000fd5b600082601f8301126200029057600080fd5b81516001600160401b0380821115620002ad57620002ad62000268565b604051601f8301601f19908116603f01168101908282118183101715620002d857620002d862000268565b81604052838152602092508683858801011115620002f557600080fd5b600091505b83821015620003195785820183015181830184015290820190620002fa565b600093810190920192909252949350505050565b6000806000606084860312156200034357600080fd5b83516001600160401b03808211156200035b57600080fd5b62000369878388016200027e565b945060208601519150808211156200038057600080fd5b506200038f868287016200027e565b925050604084015190509250925092565b600181811c90821680620003b557607f821691505b602082108103620003d657634e487b7160e01b600052602260045260246000fd5b50919050565b601f8211156200042a57600081815260208120601f850160051c81016020861015620004055750805b601f850160051c820191505b81811015620004265782815560010162000411565b5050505b505050565b81516001600160401b038111156200044b576200044b62000268565b62000463816200045c8454620003a0565b84620003dc565b602080601f8311600181146200049b5760008415620004825750858301515b600019600386901b1c1916600185901b17855562000426565b600085815260208120601f198616915b82811015620004cc57888601518255948401946001909101908401620004ab565b5085821015620004eb5787850151600019600388901b60f8161c191681555b5050505050600190811b01905550565b634e487b7160e01b600052601160045260246000fd5b80820180821115620005275762000527620004fb565b92915050565b634e487b7160e01b600052603260045260246000fd5b600060018201620005585762000558620004fb565b5060010190565b611ea5806200056f6000396000f3fe608060405234801561001057600080fd5b50600436106102275760003560e01c806362289077116101305780639dc29fac116100b8578063cf456ae71161007c578063cf456ae714610527578063cfad57a21461053a578063dd62ed3e1461054d578063dfbaefb114610586578063fb30d9161461059357600080fd5b80639dc29fac146104c2578063a9059cbb146104d5578063a923fc40146104e8578063aa271e1a146104fb578063c93be6361461051e57600080fd5b8063817b1cd2116100ff578063817b1cd2146104695780639554381a1461047157806395d89b4114610494578063996f11ee1461049c5780639cb7de4b146104af57600080fd5b80636228907714610407578063685731071461041a578063704802751461042d57806370a082311461044057600080fd5b806327e235e3116101b357806346ea87af1161018257806346ea87af1461038057806352cd38d9146103a357806355b6ed5c146103b65780635a47a1a7146103e157806360217267146103f457600080fd5b806327e235e314610310578063313ce5671461033057806340c10f191461034a578063429b62e51461035d57600080fd5b80631785f53c116101fa5780631785f53c146102ad57806318160ddd146102c05780631e83409a146102d757806323b872dd146102ea578063276eab4e146102fd57600080fd5b806301e336671461022c57806306fdde0314610241578063095ea7b31461025f57806312d43a5114610282575b600080fd5b61023f61023a3660046117db565b6105a6565b005b6102496105f2565b604051610256919061183b565b60405180910390f35b61027261026d36600461186e565b610680565b6040519015158152602001610256565b600454610295906001600160a01b031681565b6040516001600160a01b039091168152602001610256565b61023f6102bb366004611898565b610697565b6102c960025481565b604051908152602001610256565b61023f6102e5366004611898565b6106e2565b6102726102f83660046117db565b61079f565b61023f61030b366004611990565b61081e565b6102c961031e366004611898565b60056020526000908152604090205481565b610338601281565b60405160ff9091168152602001610256565b61023f61035836600461186e565b61085b565b61027261036b366004611898565b60096020526000908152604090205460ff1681565b61027261038e366004611898565b600b6020526000908152604090205460ff1681565b6102956103b13660046119c5565b610894565b6102c96103c43660046119de565b600660209081526000928352604080842090915290825290205481565b61023f6103ef366004611a22565b6108be565b6102c9610402366004611898565b6108fb565b61023f610415366004611898565b610940565b61023f610428366004611a3f565b610a2d565b61023f61043b366004611898565b610ac3565b6102c961044e366004611898565b6001600160a01b031660009081526005602052604090205490565b6102c9610b11565b61027261047f366004611898565b60086020526000908152604090205460ff1681565b610249610b28565b61023f6104aa3660046119de565b610b35565b61023f6104bd366004611afa565b610c1f565b61023f6104d036600461186e565b610c74565b6102726104e336600461186e565b610cad565b61023f6104f6366004611ba1565b610cba565b610272610509366004611898565b600c6020526000908152604090205460ff1681565b6102c960035481565b61023f610535366004611afa565b610cfd565b61023f610548366004611898565b610d52565b6102c961055b3660046119de565b6001600160a01b03918216600090815260066020908152604080832093909416825291909152205490565b600a546102729060ff1681565b61023f6105a1366004611898565b610df4565b6004546001600160a01b031633146105d95760405162461bcd60e51b81526004016105d090611c05565b60405180910390fd5b6105ed6001600160a01b0384168383610ecc565b505050565b600080546105ff90611c33565b80601f016020809104026020016040519081016040528092919081815260200182805461062b90611c33565b80156106785780601f1061064d57610100808354040283529160200191610678565b820191906000526020600020905b81548152906001019060200180831161065b57829003601f168201915b505050505081565b600061068d338484610f1e565b5060015b92915050565b6004546001600160a01b031633146106c15760405162461bcd60e51b81526004016105d090611c05565b6001600160a01b03166000908152600960205260409020805460ff19169055565b60005b60075481101561079b5760006007828154811061070457610704611c6d565b6000918252602090912001546040516310e059a160e11b81523360048201526001600160a01b038581166024830152909116915081906321c0b342906044016020604051808303816000875af1158015610762573d6000803e3d6000fd5b505050506040513d601f19601f820116820180604052508101906107869190611c83565b5050808061079390611cb2565b9150506106e5565b5050565b336000908152600b602052604081205460ff16156107ca576107c284848461104c565b506001610817565b6001600160a01b03841660009081526006602090815260408083203384529091528120546107f9908490611ccb565b9050610806853383610f1e565b61081185858561104c565b60019150505b9392505050565b6004546001600160a01b031633146108485760405162461bcd60e51b81526004016105d090611c05565b805161079b906007906020840190611745565b336000908152600c602052604090205460ff1661088a5760405162461bcd60e51b81526004016105d090611cde565b61079b82826112b6565b600781815481106108a457600080fd5b6000918252602090912001546001600160a01b0316905081565b6004546001600160a01b031633146108e85760405162461bcd60e51b81526004016105d090611c05565b600a805460ff1916911515919091179055565b6001600160a01b03811660009081526008602052604081205460ff161561092457506000919050565b506001600160a01b031660009081526005602052604090205490565b3360009081526009602052604090205460ff1661096f5760405162461bcd60e51b81526004016105d090611c05565b6001600160a01b03811660009081526008602052604090205460ff16156109e35760405162461bcd60e51b815260206004820152602260248201527f42617365546f6b656e3a205f6163636f756e7420616c7265616479206d61726b604482015261195960f21b60648201526084016105d0565b6109ec816113db565b6001600160a01b0381166000908152600860209081526040808320805460ff191660011790556005909152902054600354610a279190611d15565b60035550565b336000908152600c602052604090205460ff16610a5c5760405162461bcd60e51b81526004016105d090611cde565b60005b82518110156105ed576000838281518110610a7c57610a7c611c6d565b602002602001015190506000838381518110610a9a57610a9a611c6d565b60200260200101519050610aae82826112b6565b50508080610abb90611cb2565b915050610a5f565b6004546001600160a01b03163314610aed5760405162461bcd60e51b81526004016105d090611c05565b6001600160a01b03166000908152600960205260409020805460ff19166001179055565b6000600354600254610b239190611ccb565b905090565b600180546105ff90611c33565b3360009081526009602052604090205460ff16610b645760405162461bcd60e51b81526004016105d090611c05565b60005b6007548110156105ed57600060078281548110610b8657610b86611c6d565b6000918252602090912001546040516310e059a160e11b81526001600160a01b0386811660048301528581166024830152909116915081906321c0b342906044016020604051808303816000875af1158015610be6573d6000803e3d6000fd5b505050506040513d601f19601f82011682018060405250810190610c0a9190611c83565b50508080610c1790611cb2565b915050610b67565b6004546001600160a01b03163314610c495760405162461bcd60e51b81526004016105d090611c05565b6001600160a01b03919091166000908152600b60205260409020805460ff1916911515919091179055565b336000908152600c602052604090205460ff16610ca35760405162461bcd60e51b81526004016105d090611cde565b61079b828261147c565b600061068d33848461104c565b6004546001600160a01b03163314610ce45760405162461bcd60e51b81526004016105d090611c05565b6000610cf08382611d76565b5060016105ed8282611d76565b6004546001600160a01b03163314610d275760405162461bcd60e51b81526004016105d090611c05565b6001600160a01b03919091166000908152600c60205260409020805460ff1916911515919091179055565b6004546001600160a01b03163314610d7c5760405162461bcd60e51b81526004016105d090611c05565b6001600160a01b038116610dd25760405162461bcd60e51b815260206004820152601f60248201527f42617365546f6b656e3a205f676f76206973207a65726f20616464726573730060448201526064016105d0565b600480546001600160a01b0319166001600160a01b0392909216919091179055565b3360009081526009602052604090205460ff16610e235760405162461bcd60e51b81526004016105d090611c05565b6001600160a01b03811660009081526008602052604090205460ff16610e8b5760405162461bcd60e51b815260206004820152601e60248201527f42617365546f6b656e3a205f6163636f756e74206e6f74206d61726b6564000060448201526064016105d0565b610e94816113db565b6001600160a01b0381166000908152600860209081526040808320805460ff191690556005909152902054600354610a279190611ccb565b604080516001600160a01b038416602482015260448082018490528251808303909101815260649091019091526020810180516001600160e01b031663a9059cbb60e01b1790526105ed9084906115a8565b6001600160a01b038316610f855760405162461bcd60e51b815260206004820152602860248201527f42617365546f6b656e3a20617070726f76652066726f6d20746865207a65726f604482015267206164647265737360c01b60648201526084016105d0565b6001600160a01b038216610fea5760405162461bcd60e51b815260206004820152602660248201527f42617365546f6b656e3a20617070726f766520746f20746865207a65726f206160448201526564647265737360d01b60648201526084016105d0565b6001600160a01b0383811660008181526006602090815260408083209487168084529482529182902085905590518481527f8c5be1e5ebec7d5bd14f71427d1e84f3dd0314c0f7b2291e5b200ac8c7c3b92591015b60405180910390a3505050565b6001600160a01b0383166110b45760405162461bcd60e51b815260206004820152602960248201527f42617365546f6b656e3a207472616e736665722066726f6d20746865207a65726044820152686f206164647265737360b81b60648201526084016105d0565b6001600160a01b03821661111a5760405162461bcd60e51b815260206004820152602760248201527f42617365546f6b656e3a207472616e7366657220746f20746865207a65726f206044820152666164647265737360c81b60648201526084016105d0565b600a5460ff161561119257336000908152600b602052604090205460ff166111925760405162461bcd60e51b815260206004820152602560248201527f42617365546f6b656e3a206d73672e73656e646572206e6f742077686974656c6044820152641a5cdd195960da1b60648201526084016105d0565b61119b836113db565b6111a4826113db565b6001600160a01b0383166000908152600560205260409020546111c8908290611ccb565b6001600160a01b0380851660009081526005602052604080822093909355908416815220546111f8908290611d15565b6001600160a01b0380841660009081526005602090815260408083209490945591861681526008909152205460ff161561123e578060035461123a9190611ccb565b6003555b6001600160a01b03821660009081526008602052604090205460ff1615611271578060035461126d9190611d15565b6003555b816001600160a01b0316836001600160a01b03167fddf252ad1be2c89b69c2b068fc378daa952ba7f163c4a11628f55a4df523b3ef8360405161103f91815260200190565b6001600160a01b0382166113185760405162461bcd60e51b815260206004820152602360248201527f42617365546f6b656e3a206d696e7420746f20746865207a65726f206164647260448201526265737360e81b60648201526084016105d0565b611321826113db565b8060025461132f9190611d15565b6002556001600160a01b038216600090815260056020526040902054611356908290611d15565b6001600160a01b03831660009081526005602090815260408083209390935560089052205460ff161561139557806003546113919190611d15565b6003555b6040518181526001600160a01b038316906000907fddf252ad1be2c89b69c2b068fc378daa952ba7f163c4a11628f55a4df523b3ef906020015b60405180910390a35050565b60005b60075481101561079b576000600782815481106113fd576113fd611c6d565b600091825260209091200154604051635fd6196560e01b81526001600160a01b03858116600483015290911691508190635fd6196590602401600060405180830381600087803b15801561145057600080fd5b505af1158015611464573d6000803e3d6000fd5b5050505050808061147490611cb2565b9150506113de565b6001600160a01b0382166114e05760405162461bcd60e51b815260206004820152602560248201527f42617365546f6b656e3a206275726e2066726f6d20746865207a65726f206164604482015264647265737360d81b60648201526084016105d0565b6114e9826113db565b6001600160a01b03821660009081526005602052604090205461150d908290611ccb565b6001600160a01b038316600090815260056020526040902055600254611534908290611ccb565b6002556001600160a01b03821660009081526008602052604090205460ff161561156a57806003546115669190611ccb565b6003555b6040518181526000906001600160a01b038416907fddf252ad1be2c89b69c2b068fc378daa952ba7f163c4a11628f55a4df523b3ef906020016113cf565b60006115bd6001600160a01b0384168361160b565b905080516000141580156115e25750808060200190518101906115e09190611e36565b155b156105ed57604051635274afe760e01b81526001600160a01b03841660048201526024016105d0565b60606108178383600061161c611635565b604051630a12f52160e11b815260040160405180910390fd5b60608247101561165a5760405163cd78605960e01b81523060048201526024016105d0565b600080866001600160a01b031685876040516116769190611e53565b60006040518083038185875af1925050503d80600081146116b3576040519150601f19603f3d011682016040523d82523d6000602084013e6116b8565b606091505b50915091506116c9878383876116d6565b925050505b949350505050565b6060831561172457825160000361171d57846001600160a01b03163b60000361171d57604051639996b31560e01b81526001600160a01b03861660048201526024016105d0565b50816116ce565b6116ce83838151156117395781518083602001fd5b61161c8163ffffffff16565b82805482825590600052602060002090810192821561179a579160200282015b8281111561179a57825182546001600160a01b0319166001600160a01b03909116178255602090920191600190910190611765565b506117a69291506117aa565b5090565b5b808211156117a657600081556001016117ab565b80356001600160a01b03811681146117d657600080fd5b919050565b6000806000606084860312156117f057600080fd5b6117f9846117bf565b9250611807602085016117bf565b9150604084013590509250925092565b60005b8381101561183257818101518382015260200161181a565b50506000910152565b602081526000825180602084015261185a816040850160208701611817565b601f01601f19169190910160400192915050565b6000806040838503121561188157600080fd5b61188a836117bf565b946020939093013593505050565b6000602082840312156118aa57600080fd5b610817826117bf565b634e487b7160e01b600052604160045260246000fd5b604051601f8201601f1916810167ffffffffffffffff811182821017156118f2576118f26118b3565b604052919050565b600067ffffffffffffffff821115611914576119146118b3565b5060051b60200190565b600082601f83011261192f57600080fd5b8135602061194461193f836118fa565b6118c9565b82815260059290921b8401810191818101908684111561196357600080fd5b8286015b8481101561198557611978816117bf565b8352918301918301611967565b509695505050505050565b6000602082840312156119a257600080fd5b813567ffffffffffffffff8111156119b957600080fd5b6116ce8482850161191e565b6000602082840312156119d757600080fd5b5035919050565b600080604083850312156119f157600080fd5b6119fa836117bf565b9150611a08602084016117bf565b90509250929050565b8015158114611a1f57600080fd5b50565b600060208284031215611a3457600080fd5b813561081781611a11565b60008060408385031215611a5257600080fd5b823567ffffffffffffffff80821115611a6a57600080fd5b611a768683870161191e565b9350602091508185013581811115611a8d57600080fd5b85019050601f81018613611aa057600080fd5b8035611aae61193f826118fa565b81815260059190911b82018301908381019088831115611acd57600080fd5b928401925b82841015611aeb57833582529284019290840190611ad2565b80955050505050509250929050565b60008060408385031215611b0d57600080fd5b611b16836117bf565b91506020830135611b2681611a11565b809150509250929050565b600082601f830112611b4257600080fd5b813567ffffffffffffffff811115611b5c57611b5c6118b3565b611b6f601f8201601f19166020016118c9565b818152846020838601011115611b8457600080fd5b816020850160208301376000918101602001919091529392505050565b60008060408385031215611bb457600080fd5b823567ffffffffffffffff80821115611bcc57600080fd5b611bd886838701611b31565b93506020850135915080821115611bee57600080fd5b50611bfb85828601611b31565b9150509250929050565b6020808252601490820152732130b9b2aa37b5b2b71d103337b93134b23232b760611b604082015260600190565b600181811c90821680611c4757607f821691505b602082108103611c6757634e487b7160e01b600052602260045260246000fd5b50919050565b634e487b7160e01b600052603260045260246000fd5b600060208284031215611c9557600080fd5b5051919050565b634e487b7160e01b600052601160045260246000fd5b600060018201611cc457611cc4611c9c565b5060010190565b8181038181111561069157610691611c9c565b6020808252601c908201527f4d696e7461626c6542617365546f6b656e3a20666f7262696464656e00000000604082015260600190565b8082018082111561069157610691611c9c565b601f8211156105ed57600081815260208120601f850160051c81016020861015611d4f5750805b601f850160051c820191505b81811015611d6e57828155600101611d5b565b505050505050565b815167ffffffffffffffff811115611d9057611d906118b3565b611da481611d9e8454611c33565b84611d28565b602080601f831160018114611dd95760008415611dc15750858301515b600019600386901b1c1916600185901b178555611d6e565b600085815260208120601f198616915b82811015611e0857888601518255948401946001909101908401611de9565b5085821015611e265787850151600019600388901b60f8161c191681555b5050505050600190811b01905550565b600060208284031215611e4857600080fd5b815161081781611a11565b60008251611e65818460208701611817565b919091019291505056fea26469706673582212206955ca6df772c30d2ddef0eaf539ff7979de713f5474310add141aa3d73cb4c064736f6c63430008120033","linkReferences":{}},"methodIdentifiers":{"addAdmin(address)":"70480275","addNonStakingAccount(address)":"62289077","admins(address)":"429b62e5","allowance(address,address)":"dd62ed3e","allowances(address,address)":"55b6ed5c","approve(address,uint256)":"095ea7b3","balanceOf(address)":"70a08231","balances(address)":"27e235e3","batchMint(address[],uint256[])":"68573107","burn(address,uint256)":"9dc29fac","claim(address)":"1e83409a","decimals()":"313ce567","gov()":"12d43a51","inPrivateTransferMode()":"dfbaefb1","isHandler(address)":"46ea87af","isMinter(address)":"aa271e1a","mint(address,uint256)":"40c10f19","name()":"06fdde03","nonStakingAccounts(address)":"9554381a","nonStakingSupply()":"c93be636","recoverClaim(address,address)":"996f11ee","removeAdmin(address)":"1785f53c","removeNonStakingAccount(address)":"fb30d916","setGov(address)":"cfad57a2","setHandler(address,bool)":"9cb7de4b","setInPrivateTransferMode(bool)":"5a47a1a7","setInfo(string,string)":"a923fc40","setMinter(address,bool)":"cf456ae7","setYieldTrackers(address[])":"276eab4e","stakedBalance(address)":"60217267","symbol()":"95d89b41","totalStaked()":"817b1cd2","totalSupply()":"18160ddd","transfer(address,uint256)":"a9059cbb","transferFrom(address,address,uint256)":"23b872dd","withdrawToken(address,address,uint256)":"01e33667","yieldTrackers(uint256)":"52cd38d9"},"id":121}