{"abi":[{"type":"constructor","inputs":[],"stateMutability":"nonpayable"},{"type":"function","name":"addAdmin","inputs":[{"name":"_account","type":"address","internalType":"address"}],"outputs":[],"stateMutability":"nonpayable"},{"type":"function","name":"addNonStakingAccount","inputs":[{"name":"_account","type":"address","internalType":"address"}],"outputs":[],"stateMutability":"nonpayable"},{"type":"function","name":"admins","inputs":[{"name":"","type":"address","internalType":"address"}],"outputs":[{"name":"","type":"bool","internalType":"bool"}],"stateMutability":"view"},{"type":"function","name":"allowance","inputs":[{"name":"_owner","type":"address","internalType":"address"},{"name":"_spender","type":"address","internalType":"address"}],"outputs":[{"name":"","type":"uint256","internalType":"uint256"}],"stateMutability":"view"},{"type":"function","name":"allowances","inputs":[{"name":"","type":"address","internalType":"address"},{"name":"","type":"address","internalType":"address"}],"outputs":[{"name":"","type":"uint256","internalType":"uint256"}],"stateMutability":"view"},{"type":"function","name":"approve","inputs":[{"name":"_spender","type":"address","internalType":"address"},{"name":"_amount","type":"uint256","internalType":"uint256"}],"outputs":[{"name":"","type":"bool","internalType":"bool"}],"stateMutability":"nonpayable"},{"type":"function","name":"balanceOf","inputs":[{"name":"_account","type":"address","internalType":"address"}],"outputs":[{"name":"","type":"uint256","internalType":"uint256"}],"stateMutability":"view"},{"type":"function","name":"balances","inputs":[{"name":"","type":"address","internalType":"address"}],"outputs":[{"name":"","type":"uint256","internalType":"uint256"}],"stateMutability":"view"},{"type":"function","name":"burn","inputs":[{"name":"_account","type":"address","internalType":"address"},{"name":"_amount","type":"uint256","internalType":"uint256"}],"outputs":[],"stateMutability":"nonpayable"},{"type":"function","name":"claim","inputs":[{"name":"_receiver","type":"address","internalType":"address"}],"outputs":[],"stateMutability":"nonpayable"},{"type":"function","name":"decimals","inputs":[],"outputs":[{"name":"","type":"uint8","internalType":"uint8"}],"stateMutability":"view"},{"type":"function","name":"gov","inputs":[],"outputs":[{"name":"","type":"address","internalType":"address"}],"stateMutability":"view"},{"type":"function","name":"id","inputs":[],"outputs":[{"name":"_name","type":"string","internalType":"string"}],"stateMutability":"pure"},{"type":"function","name":"inPrivateTransferMode","inputs":[],"outputs":[{"name":"","type":"bool","internalType":"bool"}],"stateMutability":"view"},{"type":"function","name":"isHandler","inputs":[{"name":"","type":"address","internalType":"address"}],"outputs":[{"name":"","type":"bool","internalType":"bool"}],"stateMutability":"view"},{"type":"function","name":"isMinter","inputs":[{"name":"","type":"address","internalType":"address"}],"outputs":[{"name":"","type":"bool","internalType":"bool"}],"stateMutability":"view"},{"type":"function","name":"mint","inputs":[{"name":"_account","type":"address","internalType":"address"},{"name":"_amount","type":"uint256","internalType":"uint256"}],"outputs":[],"stateMutability":"nonpayable"},{"type":"function","name":"name","inputs":[],"outputs":[{"name":"","type":"string","internalType":"string"}],"stateMutability":"view"},{"type":"function","name":"nonStakingAccounts","inputs":[{"name":"","type":"address","internalType":"address"}],"outputs":[{"name":"","type":"bool","internalType":"bool"}],"stateMutability":"view"},{"type":"function","name":"nonStakingSupply","inputs":[],"outputs":[{"name":"","type":"uint256","internalType":"uint256"}],"stateMutability":"view"},{"type":"function","name":"recoverClaim","inputs":[{"name":"_account","type":"address","internalType":"address"},{"name":"_receiver","type":"address","internalType":"address"}],"outputs":[],"stateMutability":"nonpayable"},{"type":"function","name":"removeAdmin","inputs":[{"name":"_account","type":"address","internalType":"address"}],"outputs":[],"stateMutability":"nonpayable"},{"type":"function","name":"removeNonStakingAccount","inputs":[{"name":"_account","type":"address","internalType":"address"}],"outputs":[],"stateMutability":"nonpayable"},{"type":"function","name":"setGov","inputs":[{"name":"_gov","type":"address","internalType":"address"}],"outputs":[],"stateMutability":"nonpayable"},{"type":"function","name":"setHandler","inputs":[{"name":"_handler","type":"address","internalType":"address"},{"name":"_isActive","type":"bool","internalType":"bool"}],"outputs":[],"stateMutability":"nonpayable"},{"type":"function","name":"setInPrivateTransferMode","inputs":[{"name":"_inPrivateTransferMode","type":"bool","internalType":"bool"}],"outputs":[],"stateMutability":"nonpayable"},{"type":"function","name":"setInfo","inputs":[{"name":"_name","type":"string","internalType":"string"},{"name":"_symbol","type":"string","internalType":"string"}],"outputs":[],"stateMutability":"nonpayable"},{"type":"function","name":"setMinter","inputs":[{"name":"_minter","type":"address","internalType":"address"},{"name":"_isActive","type":"bool","internalType":"bool"}],"outputs":[],"stateMutability":"nonpayable"},{"type":"function","name":"setYieldTrackers","inputs":[{"name":"_yieldTrackers","type":"address[]","internalType":"address[]"}],"outputs":[],"stateMutability":"nonpayable"},{"type":"function","name":"stakedBalance","inputs":[{"name":"_account","type":"address","internalType":"address"}],"outputs":[{"name":"","type":"uint256","internalType":"uint256"}],"stateMutability":"view"},{"type":"function","name":"symbol","inputs":[],"outputs":[{"name":"","type":"string","internalType":"string"}],"stateMutability":"view"},{"type":"function","name":"totalStaked","inputs":[],"outputs":[{"name":"","type":"uint256","internalType":"uint256"}],"stateMutability":"view"},{"type":"function","name":"totalSupply","inputs":[],"outputs":[{"name":"","type":"uint256","internalType":"uint256"}],"stateMutability":"view"},{"type":"function","name":"transfer","inputs":[{"name":"_recipient","type":"address","internalType":"address"},{"name":"_amount","type":"uint256","internalType":"uint256"}],"outputs":[{"name":"","type":"bool","internalType":"bool"}],"stateMutability":"nonpayable"},{"type":"function","name":"transferFrom","inputs":[{"name":"_sender","type":"address","internalType":"address"},{"name":"_recipient","type":"address","internalType":"address"},{"name":"_amount","type":"uint256","internalType":"uint256"}],"outputs":[{"name":"","type":"bool","internalType":"bool"}],"stateMutability":"nonpayable"},{"type":"function","name":"withdrawToken","inputs":[{"name":"_token","type":"address","internalType":"address"},{"name":"_account","type":"address","internalType":"address"},{"name":"_amount","type":"uint256","internalType":"uint256"}],"outputs":[],"stateMutability":"nonpayable"},{"type":"function","name":"yieldTrackers","inputs":[{"name":"","type":"uint256","internalType":"uint256"}],"outputs":[{"name":"","type":"address","internalType":"address"}],"stateMutability":"view"},{"type":"event","name":"Approval","inputs":[{"name":"owner","type":"address","indexed":true,"internalType":"address"},{"name":"spender","type":"address","indexed":true,"internalType":"address"},{"name":"value","type":"uint256","indexed":false,"internalType":"uint256"}],"anonymous":false},{"type":"event","name":"Transfer","inputs":[{"name":"from","type":"address","indexed":true,"internalType":"address"},{"name":"to","type":"address","indexed":true,"internalType":"address"},{"name":"value","type":"uint256","indexed":false,"internalType":"uint256"}],"anonymous":false},{"type":"error","name":"AddressEmptyCode","inputs":[{"name":"target","type":"address","internalType":"address"}]},{"type":"error","name":"AddressInsufficientBalance","inputs":[{"name":"account","type":"address","internalType":"address"}]},{"type":"error","name":"FailedInnerCall","inputs":[]},{"type":"error","name":"SafeERC20FailedOperation","inputs":[{"name":"token","type":"address","internalType":"address"}]}],"bytecode":{"object":"0x60806040523480156200001157600080fd5b506040805180820182526007808252660425252522d4c560cc1b60208084018290528451808601909552918452908301529060008282828062000055848262000317565b50600162000064838262000317565b50600480546001600160a01b0319163390811790915562000086908262000092565b50505050505062000447565b6001600160a01b038216620000f95760405162461bcd60e51b815260206004820152602360248201527f42617365546f6b656e3a206d696e7420746f20746865207a65726f206164647260448201526265737360e81b606482015260840160405180910390fd5b6200010482620001c4565b80600254620001149190620003f9565b6002556001600160a01b0382166000908152600560205260409020546200013d908290620003f9565b6001600160a01b03831660009081526005602090815260408083209390935560089052205460ff16156200017f57806003546200017b9190620003f9565b6003555b6040518181526001600160a01b038316906000907fddf252ad1be2c89b69c2b068fc378daa952ba7f163c4a11628f55a4df523b3ef9060200160405180910390a35050565b60005b6007548110156200026e57600060078281548110620001ea57620001ea62000415565b600091825260209091200154604051635fd6196560e01b81526001600160a01b03858116600483015290911691508190635fd6196590602401600060405180830381600087803b1580156200023e57600080fd5b505af115801562000253573d6000803e3d6000fd5b5050505050808062000265906200042b565b915050620001c7565b5050565b634e487b7160e01b600052604160045260246000fd5b600181811c908216806200029d57607f821691505b602082108103620002be57634e487b7160e01b600052602260045260246000fd5b50919050565b601f8211156200031257600081815260208120601f850160051c81016020861015620002ed5750805b601f850160051c820191505b818110156200030e57828155600101620002f9565b5050505b505050565b81516001600160401b0381111562000333576200033362000272565b6200034b8162000344845462000288565b84620002c4565b602080601f8311600181146200038357600084156200036a5750858301515b600019600386901b1c1916600185901b1785556200030e565b600085815260208120601f198616915b82811015620003b45788860151825594840194600190910190840162000393565b5085821015620003d35787850151600019600388901b60f8161c191681555b5050505050600190811b01905550565b634e487b7160e01b600052601160045260246000fd5b808201808211156200040f576200040f620003e3565b92915050565b634e487b7160e01b600052603260045260246000fd5b600060018201620004405762000440620003e3565b5060010190565b611d6f80620004576000396000f3fe608060405234801561001057600080fd5b50600436106102275760003560e01c80636228907711610130578063a9059cbb116100b8578063cf456ae71161007c578063cf456ae714610537578063cfad57a21461054a578063dd62ed3e1461055d578063dfbaefb114610596578063fb30d916146105a357600080fd5b8063a9059cbb146104c2578063a923fc40146104d5578063aa271e1a146104e8578063af640d0f1461050b578063c93be6361461052e57600080fd5b80639554381a116100ff5780639554381a1461045e57806395d89b4114610481578063996f11ee146104895780639cb7de4b1461049c5780639dc29fac146104af57600080fd5b80636228907714610407578063704802751461041a57806370a082311461042d578063817b1cd21461045657600080fd5b806327e235e3116101b357806346ea87af1161018257806346ea87af1461038057806352cd38d9146103a357806355b6ed5c146103b65780635a47a1a7146103e157806360217267146103f457600080fd5b806327e235e314610310578063313ce5671461033057806340c10f191461034a578063429b62e51461035d57600080fd5b80631785f53c116101fa5780631785f53c146102ad57806318160ddd146102c05780631e83409a146102d757806323b872dd146102ea578063276eab4e146102fd57600080fd5b806301e336671461022c57806306fdde0314610241578063095ea7b31461025f57806312d43a5114610282575b600080fd5b61023f61023a3660046117b5565b6105b6565b005b610249610602565b6040516102569190611815565b60405180910390f35b61027261026d366004611848565b610690565b6040519015158152602001610256565b600454610295906001600160a01b031681565b6040516001600160a01b039091168152602001610256565b61023f6102bb366004611872565b6106a7565b6102c960025481565b604051908152602001610256565b61023f6102e5366004611872565b6106f2565b6102726102f83660046117b5565b6107af565b61023f61030b3660046118d4565b61082e565b6102c961031e366004611872565b60056020526000908152604090205481565b610338601281565b60405160ff9091168152602001610256565b61023f610358366004611848565b61086b565b61027261036b366004611872565b60096020526000908152604090205460ff1681565b61027261038e366004611872565b600b6020526000908152604090205460ff1681565b6102956103b1366004611981565b6108d4565b6102c96103c436600461199a565b600660209081526000928352604080842090915290825290205481565b61023f6103ef3660046119de565b6108fe565b6102c9610402366004611872565b61093b565b61023f610415366004611872565b610980565b61023f610428366004611872565b610a6d565b6102c961043b366004611872565b6001600160a01b031660009081526005602052604090205490565b6102c9610abb565b61027261046c366004611872565b60086020526000908152604090205460ff1681565b610249610ad2565b61023f61049736600461199a565b610adf565b61023f6104aa3660046119fb565b610bc9565b61023f6104bd366004611848565b610c1e565b6102726104d0366004611848565b610c87565b61023f6104e3366004611aa2565b610c94565b6102726104f6366004611872565b600c6020526000908152604090205460ff1681565b6040805180820190915260078152660425252522d4c560cc1b6020820152610249565b6102c960035481565b61023f6105453660046119fb565b610cd7565b61023f610558366004611872565b610d2c565b6102c961056b36600461199a565b6001600160a01b03918216600090815260066020908152604080832093909416825291909152205490565b600a546102729060ff1681565b61023f6105b1366004611872565b610dce565b6004546001600160a01b031633146105e95760405162461bcd60e51b81526004016105e090611b06565b60405180910390fd5b6105fd6001600160a01b0384168383610ea6565b505050565b6000805461060f90611b34565b80601f016020809104026020016040519081016040528092919081815260200182805461063b90611b34565b80156106885780601f1061065d57610100808354040283529160200191610688565b820191906000526020600020905b81548152906001019060200180831161066b57829003601f168201915b505050505081565b600061069d338484610ef8565b5060015b92915050565b6004546001600160a01b031633146106d15760405162461bcd60e51b81526004016105e090611b06565b6001600160a01b03166000908152600960205260409020805460ff19169055565b60005b6007548110156107ab5760006007828154811061071457610714611b6e565b6000918252602090912001546040516310e059a160e11b81523360048201526001600160a01b038581166024830152909116915081906321c0b342906044016020604051808303816000875af1158015610772573d6000803e3d6000fd5b505050506040513d601f19601f820116820180604052508101906107969190611b84565b505080806107a390611bb3565b9150506106f5565b5050565b336000908152600b602052604081205460ff16156107da576107d2848484611026565b506001610827565b6001600160a01b0384166000908152600660209081526040808320338452909152812054610809908490611bcc565b9050610816853383610ef8565b610821858585611026565b60019150505b9392505050565b6004546001600160a01b031633146108585760405162461bcd60e51b81526004016105e090611b06565b80516107ab90600790602084019061171f565b336000908152600c602052604090205460ff166108ca5760405162461bcd60e51b815260206004820152601c60248201527f4d696e7461626c6542617365546f6b656e3a20666f7262696464656e0000000060448201526064016105e0565b6107ab8282611290565b600781815481106108e457600080fd5b6000918252602090912001546001600160a01b0316905081565b6004546001600160a01b031633146109285760405162461bcd60e51b81526004016105e090611b06565b600a805460ff1916911515919091179055565b6001600160a01b03811660009081526008602052604081205460ff161561096457506000919050565b506001600160a01b031660009081526005602052604090205490565b3360009081526009602052604090205460ff166109af5760405162461bcd60e51b81526004016105e090611b06565b6001600160a01b03811660009081526008602052604090205460ff1615610a235760405162461bcd60e51b815260206004820152602260248201527f42617365546f6b656e3a205f6163636f756e7420616c7265616479206d61726b604482015261195960f21b60648201526084016105e0565b610a2c816113b5565b6001600160a01b0381166000908152600860209081526040808320805460ff191660011790556005909152902054600354610a679190611bdf565b60035550565b6004546001600160a01b03163314610a975760405162461bcd60e51b81526004016105e090611b06565b6001600160a01b03166000908152600960205260409020805460ff19166001179055565b6000600354600254610acd9190611bcc565b905090565b6001805461060f90611b34565b3360009081526009602052604090205460ff16610b0e5760405162461bcd60e51b81526004016105e090611b06565b60005b6007548110156105fd57600060078281548110610b3057610b30611b6e565b6000918252602090912001546040516310e059a160e11b81526001600160a01b0386811660048301528581166024830152909116915081906321c0b342906044016020604051808303816000875af1158015610b90573d6000803e3d6000fd5b505050506040513d601f19601f82011682018060405250810190610bb49190611b84565b50508080610bc190611bb3565b915050610b11565b6004546001600160a01b03163314610bf35760405162461bcd60e51b81526004016105e090611b06565b6001600160a01b03919091166000908152600b60205260409020805460ff1916911515919091179055565b336000908152600c602052604090205460ff16610c7d5760405162461bcd60e51b815260206004820152601c60248201527f4d696e7461626c6542617365546f6b656e3a20666f7262696464656e0000000060448201526064016105e0565b6107ab8282611456565b600061069d338484611026565b6004546001600160a01b03163314610cbe5760405162461bcd60e51b81526004016105e090611b06565b6000610cca8382611c40565b5060016105fd8282611c40565b6004546001600160a01b03163314610d015760405162461bcd60e51b81526004016105e090611b06565b6001600160a01b03919091166000908152600c60205260409020805460ff1916911515919091179055565b6004546001600160a01b03163314610d565760405162461bcd60e51b81526004016105e090611b06565b6001600160a01b038116610dac5760405162461bcd60e51b815260206004820152601f60248201527f42617365546f6b656e3a205f676f76206973207a65726f20616464726573730060448201526064016105e0565b600480546001600160a01b0319166001600160a01b0392909216919091179055565b3360009081526009602052604090205460ff16610dfd5760405162461bcd60e51b81526004016105e090611b06565b6001600160a01b03811660009081526008602052604090205460ff16610e655760405162461bcd60e51b815260206004820152601e60248201527f42617365546f6b656e3a205f6163636f756e74206e6f74206d61726b6564000060448201526064016105e0565b610e6e816113b5565b6001600160a01b0381166000908152600860209081526040808320805460ff191690556005909152902054600354610a679190611bcc565b604080516001600160a01b038416602482015260448082018490528251808303909101815260649091019091526020810180516001600160e01b031663a9059cbb60e01b1790526105fd908490611582565b6001600160a01b038316610f5f5760405162461bcd60e51b815260206004820152602860248201527f42617365546f6b656e3a20617070726f76652066726f6d20746865207a65726f604482015267206164647265737360c01b60648201526084016105e0565b6001600160a01b038216610fc45760405162461bcd60e51b815260206004820152602660248201527f42617365546f6b656e3a20617070726f766520746f20746865207a65726f206160448201526564647265737360d01b60648201526084016105e0565b6001600160a01b0383811660008181526006602090815260408083209487168084529482529182902085905590518481527f8c5be1e5ebec7d5bd14f71427d1e84f3dd0314c0f7b2291e5b200ac8c7c3b92591015b60405180910390a3505050565b6001600160a01b03831661108e5760405162461bcd60e51b815260206004820152602960248201527f42617365546f6b656e3a207472616e736665722066726f6d20746865207a65726044820152686f206164647265737360b81b60648201526084016105e0565b6001600160a01b0382166110f45760405162461bcd60e51b815260206004820152602760248201527f42617365546f6b656e3a207472616e7366657220746f20746865207a65726f206044820152666164647265737360c81b60648201526084016105e0565b600a5460ff161561116c57336000908152600b602052604090205460ff1661116c5760405162461bcd60e51b815260206004820152602560248201527f42617365546f6b656e3a206d73672e73656e646572206e6f742077686974656c6044820152641a5cdd195960da1b60648201526084016105e0565b611175836113b5565b61117e826113b5565b6001600160a01b0383166000908152600560205260409020546111a2908290611bcc565b6001600160a01b0380851660009081526005602052604080822093909355908416815220546111d2908290611bdf565b6001600160a01b0380841660009081526005602090815260408083209490945591861681526008909152205460ff161561121857806003546112149190611bcc565b6003555b6001600160a01b03821660009081526008602052604090205460ff161561124b57806003546112479190611bdf565b6003555b816001600160a01b0316836001600160a01b03167fddf252ad1be2c89b69c2b068fc378daa952ba7f163c4a11628f55a4df523b3ef8360405161101991815260200190565b6001600160a01b0382166112f25760405162461bcd60e51b815260206004820152602360248201527f42617365546f6b656e3a206d696e7420746f20746865207a65726f206164647260448201526265737360e81b60648201526084016105e0565b6112fb826113b5565b806002546113099190611bdf565b6002556001600160a01b038216600090815260056020526040902054611330908290611bdf565b6001600160a01b03831660009081526005602090815260408083209390935560089052205460ff161561136f578060035461136b9190611bdf565b6003555b6040518181526001600160a01b038316906000907fddf252ad1be2c89b69c2b068fc378daa952ba7f163c4a11628f55a4df523b3ef906020015b60405180910390a35050565b60005b6007548110156107ab576000600782815481106113d7576113d7611b6e565b600091825260209091200154604051635fd6196560e01b81526001600160a01b03858116600483015290911691508190635fd6196590602401600060405180830381600087803b15801561142a57600080fd5b505af115801561143e573d6000803e3d6000fd5b5050505050808061144e90611bb3565b9150506113b8565b6001600160a01b0382166114ba5760405162461bcd60e51b815260206004820152602560248201527f42617365546f6b656e3a206275726e2066726f6d20746865207a65726f206164604482015264647265737360d81b60648201526084016105e0565b6114c3826113b5565b6001600160a01b0382166000908152600560205260409020546114e7908290611bcc565b6001600160a01b03831660009081526005602052604090205560025461150e908290611bcc565b6002556001600160a01b03821660009081526008602052604090205460ff161561154457806003546115409190611bcc565b6003555b6040518181526000906001600160a01b038416907fddf252ad1be2c89b69c2b068fc378daa952ba7f163c4a11628f55a4df523b3ef906020016113a9565b60006115976001600160a01b038416836115e5565b905080516000141580156115bc5750808060200190518101906115ba9190611d00565b155b156105fd57604051635274afe760e01b81526001600160a01b03841660048201526024016105e0565b6060610827838360006115f661160f565b604051630a12f52160e11b815260040160405180910390fd5b6060824710156116345760405163cd78605960e01b81523060048201526024016105e0565b600080866001600160a01b031685876040516116509190611d1d565b60006040518083038185875af1925050503d806000811461168d576040519150601f19603f3d011682016040523d82523d6000602084013e611692565b606091505b50915091506116a3878383876116b0565b925050505b949350505050565b606083156116fe5782516000036116f757846001600160a01b03163b6000036116f757604051639996b31560e01b81526001600160a01b03861660048201526024016105e0565b50816116a8565b6116a883838151156117135781518083602001fd5b6115f68163ffffffff16565b828054828255906000526020600020908101928215611774579160200282015b8281111561177457825182546001600160a01b0319166001600160a01b0390911617825560209092019160019091019061173f565b50611780929150611784565b5090565b5b808211156117805760008155600101611785565b80356001600160a01b03811681146117b057600080fd5b919050565b6000806000606084860312156117ca57600080fd5b6117d384611799565b92506117e160208501611799565b9150604084013590509250925092565b60005b8381101561180c5781810151838201526020016117f4565b50506000910152565b60208152600082518060208401526118348160408501602087016117f1565b601f01601f19169190910160400192915050565b6000806040838503121561185b57600080fd5b61186483611799565b946020939093013593505050565b60006020828403121561188457600080fd5b61082782611799565b634e487b7160e01b600052604160045260246000fd5b604051601f8201601f1916810167ffffffffffffffff811182821017156118cc576118cc61188d565b604052919050565b600060208083850312156118e757600080fd5b823567ffffffffffffffff808211156118ff57600080fd5b818501915085601f83011261191357600080fd5b8135818111156119255761192561188d565b8060051b91506119368483016118a3565b818152918301840191848101908884111561195057600080fd5b938501935b838510156119755761196685611799565b82529385019390850190611955565b98975050505050505050565b60006020828403121561199357600080fd5b5035919050565b600080604083850312156119ad57600080fd5b6119b683611799565b91506119c460208401611799565b90509250929050565b80151581146119db57600080fd5b50565b6000602082840312156119f057600080fd5b8135610827816119cd565b60008060408385031215611a0e57600080fd5b611a1783611799565b91506020830135611a27816119cd565b809150509250929050565b600082601f830112611a4357600080fd5b813567ffffffffffffffff811115611a5d57611a5d61188d565b611a70601f8201601f19166020016118a3565b818152846020838601011115611a8557600080fd5b816020850160208301376000918101602001919091529392505050565b60008060408385031215611ab557600080fd5b823567ffffffffffffffff80821115611acd57600080fd5b611ad986838701611a32565b93506020850135915080821115611aef57600080fd5b50611afc85828601611a32565b9150509250929050565b6020808252601490820152732130b9b2aa37b5b2b71d103337b93134b23232b760611b604082015260600190565b600181811c90821680611b4857607f821691505b602082108103611b6857634e487b7160e01b600052602260045260246000fd5b50919050565b634e487b7160e01b600052603260045260246000fd5b600060208284031215611b9657600080fd5b5051919050565b634e487b7160e01b600052601160045260246000fd5b600060018201611bc557611bc5611b9d565b5060010190565b818103818111156106a1576106a1611b9d565b808201808211156106a1576106a1611b9d565b601f8211156105fd57600081815260208120601f850160051c81016020861015611c195750805b601f850160051c820191505b81811015611c3857828155600101611c25565b505050505050565b815167ffffffffffffffff811115611c5a57611c5a61188d565b611c6e81611c688454611b34565b84611bf2565b602080601f831160018114611ca35760008415611c8b5750858301515b600019600386901b1c1916600185901b178555611c38565b600085815260208120601f198616915b82811015611cd257888601518255948401946001909101908401611cb3565b5085821015611cf05787850151600019600388901b60f8161c191681555b5050505050600190811b01905550565b600060208284031215611d1257600080fd5b8151610827816119cd565b60008251611d2f8184602087016117f1565b919091019291505056fea264697066735822122004c2acc5ac2f2e762021834717d8197750fb65af5e4fa864617914c7b4d3fbaf64736f6c63430008120033","linkReferences":{}},"methodIdentifiers":{"addAdmin(address)":"70480275","addNonStakingAccount(address)":"62289077","admins(address)":"429b62e5","allowance(address,address)":"dd62ed3e","allowances(address,address)":"55b6ed5c","approve(address,uint256)":"095ea7b3","balanceOf(address)":"70a08231","balances(address)":"27e235e3","burn(address,uint256)":"9dc29fac","claim(address)":"1e83409a","decimals()":"313ce567","gov()":"12d43a51","id()":"af640d0f","inPrivateTransferMode()":"dfbaefb1","isHandler(address)":"46ea87af","isMinter(address)":"aa271e1a","mint(address,uint256)":"40c10f19","name()":"06fdde03","nonStakingAccounts(address)":"9554381a","nonStakingSupply()":"c93be636","recoverClaim(address,address)":"996f11ee","removeAdmin(address)":"1785f53c","removeNonStakingAccount(address)":"fb30d916","setGov(address)":"cfad57a2","setHandler(address,bool)":"9cb7de4b","setInPrivateTransferMode(bool)":"5a47a1a7","setInfo(string,string)":"a923fc40","setMinter(address,bool)":"cf456ae7","setYieldTrackers(address[])":"276eab4e","stakedBalance(address)":"60217267","symbol()":"95d89b41","totalStaked()":"817b1cd2","totalSupply()":"18160ddd","transfer(address,uint256)":"a9059cbb","transferFrom(address,address,uint256)":"23b872dd","withdrawToken(address,address,uint256)":"01e33667","yieldTrackers(uint256)":"52cd38d9"},"id":42}