{
  "abi": [
    {
      "inputs": [
        {
          "internalType": "address",
          "name": "_rewardTracker",
          "type": "address"
        },
        {
          "internalType": "address",
          "name": "_transferStakedBrrr",
          "type": "address"
        },
        {
          "internalType": "address",
          "name": "_weth",
          "type": "address"
        }
      ],
      "stateMutability": "nonpayable",
      "type": "constructor"
    },
    {
      "inputs": [],
      "name": "BrrrXpAmplifier_DurationNotFinished",
      "type": "error"
    },
    {
      "inputs": [],
      "name": "BrrrXpAmplifier_DurationPastSeasonEnd",
      "type": "error"
    },
    {
      "inputs": [],
      "name": "BrrrXpAmplifier_EmptyPosition",
      "type": "error"
    },
    {
      "inputs": [],
      "name": "BrrrXpAmplifier_InsufficientFunds",
      "type": "error"
    },
    {
      "inputs": [],
      "name": "BrrrXpAmplifier_InvalidAmount",
      "type": "error"
    },
    {
      "inputs": [],
      "name": "BrrrXpAmplifier_InvalidTier",
      "type": "error"
    },
    {
      "inputs": [],
      "name": "BrrrXpAmplifier_InvalidUser",
      "type": "error"
    },
    {
      "inputs": [],
      "name": "BrrrXpAmplifier_NoPositions",
      "type": "error"
    },
    {
      "inputs": [],
      "name": "BrrrXpAmplifier_SeasonNotOver",
      "type": "error"
    },
    {
      "inputs": [],
      "name": "ReentrancyGuardReentrantCall",
      "type": "error"
    },
    {
      "anonymous": false,
      "inputs": [
        {
          "indexed": true,
          "internalType": "address",
          "name": "user",
          "type": "address"
        },
        {
          "indexed": false,
          "internalType": "uint256",
          "name": "index",
          "type": "uint256"
        },
        {
          "indexed": true,
          "internalType": "uint256",
          "name": "amount",
          "type": "uint256"
        },
        {
          "indexed": true,
          "internalType": "uint8",
          "name": "tier",
          "type": "uint8"
        }
      ],
      "name": "BrrrXpAmplifier_LiquidityLocked",
      "type": "event"
    },
    {
      "anonymous": false,
      "inputs": [
        {
          "indexed": true,
          "internalType": "address",
          "name": "user",
          "type": "address"
        },
        {
          "indexed": false,
          "internalType": "uint256",
          "name": "index",
          "type": "uint256"
        },
        {
          "indexed": true,
          "internalType": "uint256",
          "name": "amount",
          "type": "uint256"
        },
        {
          "indexed": true,
          "internalType": "uint8",
          "name": "tier",
          "type": "uint8"
        }
      ],
      "name": "BrrrXpAmplifier_LiquidityUnlocked",
      "type": "event"
    },
    {
      "anonymous": false,
      "inputs": [
        {
          "indexed": true,
          "internalType": "address",
          "name": "user",
          "type": "address"
        },
        {
          "indexed": true,
          "internalType": "uint256",
          "name": "tokenAmount",
          "type": "uint256"
        },
        {
          "indexed": true,
          "internalType": "uint256",
          "name": "xpAmount",
          "type": "uint256"
        }
      ],
      "name": "BrrrXpAmplifier_RewardsClaimed",
      "type": "event"
    },
    {
      "inputs": [],
      "name": "PRECISION",
      "outputs": [
        {
          "internalType": "uint256",
          "name": "",
          "type": "uint256"
        }
      ],
      "stateMutability": "view",
      "type": "function"
    },
    {
      "inputs": [],
      "name": "SEASON_END",
      "outputs": [
        {
          "internalType": "uint256",
          "name": "",
          "type": "uint256"
        }
      ],
      "stateMutability": "view",
      "type": "function"
    },
    {
      "inputs": [],
      "name": "TIER1_DURATION",
      "outputs": [
        {
          "internalType": "uint256",
          "name": "",
          "type": "uint256"
        }
      ],
      "stateMutability": "view",
      "type": "function"
    },
    {
      "inputs": [],
      "name": "TIER2_DURATION",
      "outputs": [
        {
          "internalType": "uint256",
          "name": "",
          "type": "uint256"
        }
      ],
      "stateMutability": "view",
      "type": "function"
    },
    {
      "inputs": [],
      "name": "TIER3_DURATION",
      "outputs": [
        {
          "internalType": "uint256",
          "name": "",
          "type": "uint256"
        }
      ],
      "stateMutability": "view",
      "type": "function"
    },
    {
      "inputs": [],
      "name": "TIER4_DURATION",
      "outputs": [
        {
          "internalType": "uint256",
          "name": "",
          "type": "uint256"
        }
      ],
      "stateMutability": "view",
      "type": "function"
    },
    {
      "inputs": [
        {
          "internalType": "address",
          "name": "",
          "type": "address"
        }
      ],
      "name": "averageLockedAmounts",
      "outputs": [
        {
          "internalType": "uint256",
          "name": "",
          "type": "uint256"
        }
      ],
      "stateMutability": "view",
      "type": "function"
    },
    {
      "inputs": [],
      "name": "claimPendingRewards",
      "outputs": [
        {
          "internalType": "uint256",
          "name": "",
          "type": "uint256"
        },
        {
          "internalType": "uint256",
          "name": "",
          "type": "uint256"
        }
      ],
      "stateMutability": "nonpayable",
      "type": "function"
    },
    {
      "inputs": [
        {
          "internalType": "address",
          "name": "",
          "type": "address"
        }
      ],
      "name": "claimableReward",
      "outputs": [
        {
          "internalType": "uint256",
          "name": "",
          "type": "uint256"
        }
      ],
      "stateMutability": "view",
      "type": "function"
    },
    {
      "inputs": [],
      "name": "contractBalance",
      "outputs": [
        {
          "internalType": "uint256",
          "name": "",
          "type": "uint256"
        }
      ],
      "stateMutability": "view",
      "type": "function"
    },
    {
      "inputs": [],
      "name": "cumulativeRewardPerToken",
      "outputs": [
        {
          "internalType": "uint256",
          "name": "",
          "type": "uint256"
        }
      ],
      "stateMutability": "view",
      "type": "function"
    },
    {
      "inputs": [
        {
          "internalType": "address",
          "name": "",
          "type": "address"
        }
      ],
      "name": "cumulativeRewards",
      "outputs": [
        {
          "internalType": "uint256",
          "name": "",
          "type": "uint256"
        }
      ],
      "stateMutability": "view",
      "type": "function"
    },
    {
      "inputs": [
        {
          "internalType": "address",
          "name": "user",
          "type": "address"
        }
      ],
      "name": "getClaimableTokenRewards",
      "outputs": [
        {
          "internalType": "uint256",
          "name": "",
          "type": "uint256"
        }
      ],
      "stateMutability": "view",
      "type": "function"
    },
    {
      "inputs": [
        {
          "internalType": "address",
          "name": "user",
          "type": "address"
        }
      ],
      "name": "getClaimableXpRewards",
      "outputs": [
        {
          "internalType": "uint256",
          "name": "",
          "type": "uint256"
        }
      ],
      "stateMutability": "view",
      "type": "function"
    },
    {
      "inputs": [
        {
          "internalType": "address",
          "name": "user",
          "type": "address"
        },
        {
          "internalType": "uint256",
          "name": "index",
          "type": "uint256"
        }
      ],
      "name": "getRemainingLockDuration",
      "outputs": [
        {
          "internalType": "uint256",
          "name": "",
          "type": "uint256"
        }
      ],
      "stateMutability": "view",
      "type": "function"
    },
    {
      "inputs": [
        {
          "internalType": "address",
          "name": "user",
          "type": "address"
        }
      ],
      "name": "getUserPositionIds",
      "outputs": [
        {
          "internalType": "uint256[]",
          "name": "",
          "type": "uint256[]"
        }
      ],
      "stateMutability": "view",
      "type": "function"
    },
    {
      "inputs": [
        {
          "internalType": "uint8",
          "name": "_tier",
          "type": "uint8"
        },
        {
          "internalType": "address",
          "name": "_user",
          "type": "address"
        }
      ],
      "name": "getUserTotalStakedAmountForTier",
      "outputs": [
        {
          "internalType": "uint256",
          "name": "",
          "type": "uint256"
        }
      ],
      "stateMutability": "view",
      "type": "function"
    },
    {
      "inputs": [
        {
          "internalType": "uint8",
          "name": "_tier",
          "type": "uint8"
        },
        {
          "internalType": "address",
          "name": "_user",
          "type": "address"
        }
      ],
      "name": "getUserTotalXpEarnedForTier",
      "outputs": [
        {
          "internalType": "uint256",
          "name": "",
          "type": "uint256"
        }
      ],
      "stateMutability": "view",
      "type": "function"
    },
    {
      "inputs": [],
      "name": "gov",
      "outputs": [
        {
          "internalType": "address",
          "name": "",
          "type": "address"
        }
      ],
      "stateMutability": "view",
      "type": "function"
    },
    {
      "inputs": [
        {
          "internalType": "address",
          "name": "",
          "type": "address"
        }
      ],
      "name": "lastXpUpdate",
      "outputs": [
        {
          "internalType": "uint256",
          "name": "",
          "type": "uint256"
        }
      ],
      "stateMutability": "view",
      "type": "function"
    },
    {
      "inputs": [
        {
          "internalType": "uint8",
          "name": "tier",
          "type": "uint8"
        },
        {
          "internalType": "uint256",
          "name": "amount",
          "type": "uint256"
        }
      ],
      "name": "lockLiquidity",
      "outputs": [],
      "stateMutability": "nonpayable",
      "type": "function"
    },
    {
      "inputs": [
        {
          "internalType": "address",
          "name": "",
          "type": "address"
        }
      ],
      "name": "lockedAmount",
      "outputs": [
        {
          "internalType": "uint256",
          "name": "",
          "type": "uint256"
        }
      ],
      "stateMutability": "view",
      "type": "function"
    },
    {
      "inputs": [],
      "name": "nextPositionId",
      "outputs": [
        {
          "internalType": "uint256",
          "name": "",
          "type": "uint256"
        }
      ],
      "stateMutability": "view",
      "type": "function"
    },
    {
      "inputs": [
        {
          "internalType": "address",
          "name": "",
          "type": "address"
        },
        {
          "internalType": "uint256",
          "name": "",
          "type": "uint256"
        }
      ],
      "name": "positions",
      "outputs": [
        {
          "internalType": "uint256",
          "name": "depositAmount",
          "type": "uint256"
        },
        {
          "internalType": "uint8",
          "name": "tier",
          "type": "uint8"
        },
        {
          "internalType": "uint256",
          "name": "lockedAt",
          "type": "uint256"
        },
        {
          "internalType": "uint256",
          "name": "unlockDate",
          "type": "uint256"
        },
        {
          "internalType": "address",
          "name": "owner",
          "type": "address"
        },
        {
          "internalType": "uint256",
          "name": "multiplier",
          "type": "uint256"
        }
      ],
      "stateMutability": "view",
      "type": "function"
    },
    {
      "inputs": [
        {
          "internalType": "address",
          "name": "",
          "type": "address"
        }
      ],
      "name": "previousCumulativeRewardPerToken",
      "outputs": [
        {
          "internalType": "uint256",
          "name": "",
          "type": "uint256"
        }
      ],
      "stateMutability": "view",
      "type": "function"
    },
    {
      "inputs": [
        {
          "internalType": "address",
          "name": "token",
          "type": "address"
        }
      ],
      "name": "recoverTokens",
      "outputs": [],
      "stateMutability": "nonpayable",
      "type": "function"
    },
    {
      "inputs": [],
      "name": "rewardTracker",
      "outputs": [
        {
          "internalType": "contract RewardTracker",
          "name": "",
          "type": "address"
        }
      ],
      "stateMutability": "view",
      "type": "function"
    },
    {
      "inputs": [
        {
          "internalType": "address",
          "name": "_gov",
          "type": "address"
        }
      ],
      "name": "setGov",
      "outputs": [],
      "stateMutability": "nonpayable",
      "type": "function"
    },
    {
      "inputs": [],
      "name": "stakeTransferrer",
      "outputs": [
        {
          "internalType": "contract TransferStakedBrrr",
          "name": "",
          "type": "address"
        }
      ],
      "stateMutability": "view",
      "type": "function"
    },
    {
      "inputs": [
        {
          "internalType": "address",
          "name": "",
          "type": "address"
        }
      ],
      "name": "totalXpEarned",
      "outputs": [
        {
          "internalType": "uint256",
          "name": "",
          "type": "uint256"
        }
      ],
      "stateMutability": "view",
      "type": "function"
    },
    {
      "inputs": [],
      "name": "unlockAllPositions",
      "outputs": [],
      "stateMutability": "nonpayable",
      "type": "function"
    },
    {
      "inputs": [
        {
          "internalType": "uint256",
          "name": "index",
          "type": "uint256"
        }
      ],
      "name": "unlockLiquidity",
      "outputs": [],
      "stateMutability": "nonpayable",
      "type": "function"
    },
    {
      "inputs": [
        {
          "internalType": "uint256",
          "name": "val",
          "type": "uint256"
        }
      ],
      "name": "updateXpPerSecond",
      "outputs": [],
      "stateMutability": "nonpayable",
      "type": "function"
    },
    {
      "inputs": [
        {
          "internalType": "address",
          "name": "",
          "type": "address"
        },
        {
          "internalType": "uint256",
          "name": "",
          "type": "uint256"
        }
      ],
      "name": "userPositionIds",
      "outputs": [
        {
          "internalType": "uint256",
          "name": "",
          "type": "uint256"
        }
      ],
      "stateMutability": "view",
      "type": "function"
    },
    {
      "inputs": [],
      "name": "weth",
      "outputs": [
        {
          "internalType": "address",
          "name": "",
          "type": "address"
        }
      ],
      "stateMutability": "view",
      "type": "function"
    },
    {
      "inputs": [],
      "name": "xpPerSecond",
      "outputs": [
        {
          "internalType": "uint256",
          "name": "",
          "type": "uint256"
        }
      ],
      "stateMutability": "view",
      "type": "function"
    }
  ],
  "bytecode": {
    "object": "0x60a06040526001600d553480156200001657600080fd5b5060405162002005380380620020058339810160408190526200003991620000ba565b600080546001600160a01b03191633179055600180556001600160a01b0383166200006357600080fd5b600280546001600160a01b03199081166001600160a01b039586161790915560038054909116928416929092179091551660805262000104565b80516001600160a01b0381168114620000b557600080fd5b919050565b600080600060608486031215620000d057600080fd5b620000db846200009d565b9250620000eb602085016200009d565b9150620000fb604085016200009d565b90509250925092565b608051611ed0620001356000396000818161030201528181610aac01528181610ce50152610d7c0152611ed06000f3fe608060405234801561001057600080fd5b506004361061021c5760003560e01c806396e8392411610125578063cfad57a2116100ad578063e95034251161007c578063e95034251461053b578063ed94b7b51461055b578063eddf757014610565578063f5fc507614610585578063fb44ecd51461058e57600080fd5b8063cfad57a2146104f7578063d7261cc01461050a578063dd9611751461051d578063e6b13a131461052857600080fd5b8063aaf5eb68116100f4578063aaf5eb68146103fd578063b547546014610411578063c1be667714610424578063c3fa7cd4146104b7578063c80debd6146104d757600080fd5b806396e83924146103a25780639f764bad146103b5578063a153e708146103bd578063a562021c146103dd57600080fd5b806337c4c6a2116101a857806372f1433c1161017757806372f1433c146103575780637b6eb9b614610360578063899346c7146103735780638b7afe2e1461037c57806392bd7b2c1461038557600080fd5b806337c4c6a2146102f35780633fc8cef3146102fd5780636bcb411a1461032457806370d7b0a11461033757600080fd5b806316114acd116101ef57806316114acd1461029157806317e46431146102a4578063242c581b146102b7578063360113b9146102ca5780633792def3146102d357600080fd5b806301c467d51461022157806302650b391461023657806312230a991461025c57806312d43a5114610266575b600080fd5b61023461022f366004611c67565b6105a1565b005b610249610244366004611ca8565b61089e565b6040519081526020015b60405180910390f35b6102496276a70081565b600054610279906001600160a01b031681565b6040516001600160a01b039091168152602001610253565b61023461029f366004611cdb565b610a77565b600354610279906001600160a01b031681565b6102346102c5366004611cfd565b610c16565b610249600d5481565b6102496102e1366004611cdb565b600b6020526000908152604090205481565b61024962ed4e0081565b6102797f000000000000000000000000000000000000000000000000000000000000000081565b600254610279906001600160a01b031681565b610249610345366004611cdb565b60086020526000908152604090205481565b610249610e1081565b61024961036e366004611d16565b610c66565b610249600e5481565b61024960105481565b61038d610c97565b60408051928352602083019190915201610253565b6102346103b0366004611cfd565b610e33565b6102346111bd565b6102496103cb366004611cdb565b60066020526000908152604090205481565b6102496103eb366004611cdb565b600a6020526000908152604090205481565b6102496c7e37be2022c0914b268000000081565b61024961041f366004611d16565b6112c0565b61047f610432366004611d16565b60046020818152600093845260408085209091529183529120805460018201546002830154600384015494840154600590940154929460ff9092169390926001600160a01b039091169086565b6040805196875260ff90951660208701529385019290925260608401526001600160a01b0316608083015260a082015260c001610253565b6102496104c5366004611cdb565b600c6020526000908152604090205481565b6102496104e5366004611cdb565b60076020526000908152604090205481565b610234610505366004611cdb565b611359565b610249610518366004611cdb565b6113fb565b61024963665b0d4081565b610249610536366004611ca8565b611554565b610249610549366004611cdb565b60096020526000908152604090205481565b61024962278d0081565b610578610573366004611cdb565b611698565b6040516102539190611d32565b610249600f5481565b61024961059c366004611cdb565b611704565b60038260ff1611156105c657604051637d35ec0360e01b815260040160405180910390fd5b806000036105e757604051632718339960e21b815260040160405180910390fd5b6002546040516370a0823160e01b815233600482015282916001600160a01b0316906370a0823190602401602060405180830381865afa15801561062f573d6000803e3d6000fd5b505050506040513d601f19601f820116820180604052508101906106539190611d76565b1015610672576040516358627c2560e11b815260040160405180910390fd5b600061067d8361170f565b905063665b0d4061068e8242611da5565b11156106ad5760405163f0d47d1360e01b815260040160405180910390fd5b6003546040516323b872dd60e01b8152336004820152306024820152604481018490526001600160a01b03909116906323b872dd906064016020604051808303816000875af1158015610704573d6000803e3d6000fd5b505050506040513d601f19601f820116820180604052508101906107289190611db8565b506107323361175e565b50600e54610741816001611da5565b600e8190555060006040518060c001604052808581526020018660ff16815260200142815260200184426107759190611da5565b815233602082015260400161078987611a1d565b9052336000818152600460208181526040808420888552825280842086518155868301516001808301805460ff191660ff9093169290921790915587830151600283015560608801516003830155608088015194820180546001600160a01b0319166001600160a01b039096169590951790945560a087015160059182015585855282528084208054938401815584528184209092018790559282526006909252205490915061083a908590611da5565b33600090815260066020526040902055601054610858908590611da5565b60105560405182815260ff861690859033907f29a67dfca21277c516f415417513c9d66c30bb59fb776c7e99796350edbe41a59060200160405180910390a45050505050565b6001600160a01b038116600090815260056020908152604080832080548251818502810185019093528083528493849392919083018282801561090057602002820191906000526020600020905b8154815260200190600101908083116108ec575b50505050509050600063665b0d404210610942576001600160a01b0385166000908152600c602052604090205461093b9063665b0d40611dda565b9050610968565b6001600160a01b0385166000908152600c60205260409020546109659042611dda565b90505b60005b8251811015610a5f576001600160a01b0386166000908152600460205260408120845182908690859081106109a2576109a2611ded565b6020908102919091018101518252818101929092526040908101600020815160c08101835281548152600182015460ff9081169482018590526002830154938201939093526003820154606082015260048201546001600160a01b0316608082015260059091015460a0820152925089169003610a4e57600d54610a269084611e03565b60a08201518251610a379190611e03565b610a419190611e03565b610a4b9086611da5565b94505b50610a5881611e1a565b905061096b565b50610a6b606484611e33565b93505050505b92915050565b6000546001600160a01b03163314610aaa5760405162461bcd60e51b8152600401610aa190611e55565b60405180910390fd5b7f00000000000000000000000000000000000000000000000000000000000000006001600160a01b0316816001600160a01b0316148015610aee575063665b0d4042105b80610b1457506002546001600160a01b038281169116148015610b14575063665b0d4042105b15610b3157604051621110f560e81b815260040160405180910390fd5b6040516370a0823160e01b81523060048201526001600160a01b0382169063a9059cbb90339083906370a0823190602401602060405180830381865afa158015610b7f573d6000803e3d6000fd5b505050506040513d601f19601f82011682018060405250810190610ba39190611d76565b6040516001600160e01b031960e085901b1681526001600160a01b03909216600483015260248201526044016020604051808303816000875af1158015610bee573d6000803e3d6000fd5b505050506040513d601f19601f82011682018060405250810190610c129190611db8565b5050565b6000546001600160a01b03163314610c405760405162461bcd60e51b8152600401610aa190611e55565b80600003610c6157604051632718339960e21b815260040160405180910390fd5b600d55565b60056020528160005260406000208181548110610c8257600080fd5b90600052602060002001600091509150505481565b600080610ca2611a60565b6000610cad3361175e565b33600090815260096020526040812080549190559091508015801590610d5b57506040516370a0823160e01b815230600482015281907f00000000000000000000000000000000000000000000000000000000000000006001600160a01b0316906370a0823190602401602060405180830381865afa158015610d34573d6000803e3d6000fd5b505050506040513d601f19601f82011682018060405250810190610d589190611d76565b10155b15610df35760405163a9059cbb60e01b8152336004820152602481018290527f00000000000000000000000000000000000000000000000000000000000000006001600160a01b03169063a9059cbb906044016020604051808303816000875af1158015610dcd573d6000803e3d6000fd5b505050506040513d601f19601f82011682018060405250810190610df19190611db8565b505b6040518290829033907fc8d14814bf76200767bd2164dcf808b4857d4fc276bf064ba3cb26440d59dedb90600090a492509050610e2f60018055565b9091565b3360009081526004602081815260408084208585528252808420815160c0810183528154808252600183015460ff169482019490945260028201549281019290925260038101546060830152928301546001600160a01b0316608082015260059092015460a0830152909103610ebc576040516331add00b60e21b815260040160405180910390fd5b4281606001511115610ee1576040516302aadb2b60e21b815260040160405180910390fd5b80516002546040516370a0823160e01b81523060048201526001600160a01b03909116906370a0823190602401602060405180830381865afa158015610f2b573d6000803e3d6000fd5b505050506040513d601f19601f82011682018060405250810190610f4f9190611d76565b1015610f6e576040516358627c2560e11b815260040160405180910390fd5b60808101516001600160a01b03163314610f9b5760405163404af06360e01b815260040160405180910390fd5b610fa43361175e565b50805133600090815260066020526040902054610fc19190611dda565b336000908152600660205260409020558051601054610fe09190611dda565b601055336000818152600460208181526040808420878552825280842084815560018101805460ff19169055600281018590556003810185905592830180546001600160a01b0319169055600592830184905593835252908120905b81548110156110ee578382828154811061105857611058611ded565b9060005260206000200154036110de578154829061107890600190611dda565b8154811061108857611088611ded565b90600052602060002001548282815481106110a5576110a5611ded565b9060005260206000200181905550818054806110c3576110c3611e84565b600190038181906000526020600020016000905590556110ee565b6110e781611e1a565b905061103c565b50600354825160405163a9059cbb60e01b815233600482015260248101919091526001600160a01b039091169063a9059cbb906044016020604051808303816000875af1158015611143573d6000803e3d6000fd5b505050506040513d601f19601f820116820180604052508101906111679190611db8565b50816020015160ff168260000151336001600160a01b03167f269e592490c278b2d64fd4f22306b240d812aaa1c020aef26ec7b6e66accb415866040516111b091815260200190565b60405180910390a4505050565b3360009081526005602090815260408083208054825181850281018501909352808352919290919083018282801561121457602002820191906000526020600020905b815481526020019060010190808311611200575b50505050509050805160000361123d5760405163a10b9a5b60e01b815260040160405180910390fd5b60005b8151811015610c1257336000908152600460205260408120835142929085908590811061126f5761126f611ded565b6020026020010151815260200190815260200160002060030154116112b0576112b08282815181106112a3576112a3611ded565b6020026020010151610e33565b6112b981611e1a565b9050611240565b6001600160a01b0380831660009081526004602081815260408084208685528252808420815160c08101835281548152600182015460ff169381019390935260028101549183019190915260038101546060830181905292810154909416608082015260059093015460a08401529091904210611341576000915050610a71565b4281606001516113519190611dda565b915050610a71565b6000546001600160a01b031633146113835760405162461bcd60e51b8152600401610aa190611e55565b6001600160a01b0381166113d95760405162461bcd60e51b815260206004820181905260248201527f476f7665726e61626c653a205f676f76206973207a65726f20616464726573736044820152606401610aa1565b600080546001600160a01b0319166001600160a01b0392909216919091179055565b6001600160a01b0381166000908152600660205260408120548082036114385750506001600160a01b031660009081526009602052604090205490565b60105460025460405163402914f560e01b81523060048201526000916c7e37be2022c0914b2680000000916001600160a01b039091169063402914f590602401602060405180830381865afa158015611495573d6000803e3d6000fd5b505050506040513d601f19601f820116820180604052508101906114b99190611d76565b6114c39190611e03565b905060006114d18383611e33565b600f546114de9190611da5565b6001600160a01b0387166000908152600a60205260409020549091506c7e37be2022c0914b2680000000906115139083611dda565b61151d9086611e03565b6115279190611e33565b6001600160a01b03871660009081526009602052604090205461154a9190611da5565b9695505050505050565b6001600160a01b03811660009081526005602090815260408083208054825181850281018501909352808352849384939291908301828280156115b657602002820191906000526020600020905b8154815260200190600101908083116115a2575b5050505050905060005b815181101561168e576001600160a01b0385166000908152600460205260408120835182908590859081106115f7576115f7611ded565b6020908102919091018101518252818101929092526040908101600020815160c08101835281548152600182015460ff9081169482018590526002830154938201939093526003820154606082015260048201546001600160a01b0316608082015260059091015460a082015292508816900361167d57805161167a9085611da5565b93505b5061168781611e1a565b90506115c0565b5090949350505050565b6001600160a01b0381166000908152600560209081526040918290208054835181840281018401909452808452606093928301828280156116f857602002820191906000526020600020905b8154815260200190600101908083116116e4575b50505050509050919050565b6000610a7182611a8a565b60008160ff166000036117255750610e10919050565b8160ff1660010361173a575062278d00919050565b8160ff1660020361174f57506276a700919050565b5062ed4e00919050565b919050565b600254604051630f41a04d60e11b815230600482015260009182916001600160a01b0390911690631e83409a906024016020604051808303816000875af11580156117ad573d6000803e3d6000fd5b505050506040513d601f19601f820116820180604052508101906117d19190611d76565b601054600f549192509081158015906117ea5750600083115b1561182357816118076c7e37be2022c0914b268000000085611e03565b6118119190611e33565b61181b9082611da5565b600f81905590505b6001600160a01b03851615611a12576001600160a01b038516600090815260066020908152604080832054600a9092528220549091906c7e37be2022c0914b2680000000906118729085611dda565b61187c9084611e03565b6118869190611e33565b6001600160a01b038816600090815260096020526040812054919250906118ae908390611da5565b6001600160a01b0389166000908152600960209081526040808320849055600a9091529020859055905080158015906118fe57506001600160a01b03881660009081526006602052604090205415155b156119a8576001600160a01b0388166000908152600b6020526040812054611927908490611da5565b9050806119348486611e03565b61193e9190611e33565b6001600160a01b038a166000908152600b6020908152604080832054600890925290912054839161196e91611e03565b6119789190611e33565b6119829190611da5565b6001600160a01b038a16600090815260086020908152604080832093909355600b905220555b60006119b389611a8a565b90508015611a06576001600160a01b0389166000908152600c6020908152604080832042905560079091529020546119ec908290611da5565b6001600160a01b038a166000908152600760205260409020555b98975050505050505050565b506000949350505050565b60008160ff16600003611a3257506064919050565b8160ff16600103611a455750607d919050565b8160ff16600203611a5857506096919050565b5060c8919050565b600260015403611a8357604051633ee5aeb560e01b815260040160405180910390fd5b6002600155565b6001600160a01b0381166000908152600560209081526040808320805482518185028101850190935280835284938493929190830182828015611aec57602002820191906000526020600020905b815481526020019060010190808311611ad8575b50505050509050600063665b0d404210611b2e576001600160a01b0385166000908152600c6020526040902054611b279063665b0d40611dda565b9050611b54565b6001600160a01b0385166000908152600c6020526040902054611b519042611dda565b90505b60005b8251811015611c41576001600160a01b038616600090815260046020526040812084518290869085908110611b8e57611b8e611ded565b6020908102919091018101518252818101929092526040908101600020815160c08101835281548152600182015460ff16938101939093526002810154918301919091526003810154606083015260048101546001600160a01b031660808301526005015460a0820152600d54909150611c089084611e03565b60a08201518251611c199190611e03565b611c239190611e03565b611c2d9086611da5565b94505080611c3a90611e1a565b9050611b57565b50611c4d606484611e33565b95945050505050565b803560ff8116811461175957600080fd5b60008060408385031215611c7a57600080fd5b611c8383611c56565b946020939093013593505050565b80356001600160a01b038116811461175957600080fd5b60008060408385031215611cbb57600080fd5b611cc483611c56565b9150611cd260208401611c91565b90509250929050565b600060208284031215611ced57600080fd5b611cf682611c91565b9392505050565b600060208284031215611d0f57600080fd5b5035919050565b60008060408385031215611d2957600080fd5b611c8383611c91565b6020808252825182820181905260009190848201906040850190845b81811015611d6a57835183529284019291840191600101611d4e565b50909695505050505050565b600060208284031215611d8857600080fd5b5051919050565b634e487b7160e01b600052601160045260246000fd5b80820180821115610a7157610a71611d8f565b600060208284031215611dca57600080fd5b81518015158114611cf657600080fd5b81810381811115610a7157610a71611d8f565b634e487b7160e01b600052603260045260246000fd5b8082028115828204841417610a7157610a71611d8f565b600060018201611e2c57611e2c611d8f565b5060010190565b600082611e5057634e487b7160e01b600052601260045260246000fd5b500490565b60208082526015908201527423b7bb32b93730b136329d103337b93134b23232b760591b604082015260600190565b634e487b7160e01b600052603160045260246000fdfea264697066735822122096dd316841014de52600a9712ed5dc12eb0fd437fb202188f2a3d2dfe74ad37d64736f6c63430008120033",
    "linkReferences": {}
  },
  "methodIdentifiers": {
    "PRECISION()": "aaf5eb68",
    "SEASON_END()": "dd961175",
    "TIER1_DURATION()": "72f1433c",
    "TIER2_DURATION()": "ed94b7b5",
    "TIER3_DURATION()": "12230a99",
    "TIER4_DURATION()": "37c4c6a2",
    "averageLockedAmounts(address)": "70d7b0a1",
    "claimPendingRewards()": "92bd7b2c",
    "claimableReward(address)": "e9503425",
    "contractBalance()": "8b7afe2e",
    "cumulativeRewardPerToken()": "f5fc5076",
    "cumulativeRewards(address)": "3792def3",
    "getClaimableTokenRewards(address)": "d7261cc0",
    "getClaimableXpRewards(address)": "fb44ecd5",
    "getRemainingLockDuration(address,uint256)": "b5475460",
    "getUserPositionIds(address)": "eddf7570",
    "getUserTotalStakedAmountForTier(uint8,address)": "e6b13a13",
    "getUserTotalXpEarnedForTier(uint8,address)": "02650b39",
    "gov()": "12d43a51",
    "lastXpUpdate(address)": "c3fa7cd4",
    "lockLiquidity(uint8,uint256)": "01c467d5",
    "lockedAmount(address)": "a153e708",
    "nextPositionId()": "899346c7",
    "positions(address,uint256)": "c1be6677",
    "previousCumulativeRewardPerToken(address)": "a562021c",
    "recoverTokens(address)": "16114acd",
    "rewardTracker()": "6bcb411a",
    "setGov(address)": "cfad57a2",
    "stakeTransferrer()": "17e46431",
    "totalXpEarned(address)": "c80debd6",
    "unlockAllPositions()": "9f764bad",
    "unlockLiquidity(uint256)": "96e83924",
    "updateXpPerSecond(uint256)": "242c581b",
    "userPositionIds(address,uint256)": "7b6eb9b6",
    "weth()": "3fc8cef3",
    "xpPerSecond()": "360113b9"
  },
  "id": 82
}