{
  "abi": [
    {
      "inputs": [
        {
          "internalType": "address",
          "name": "_rewardTracker",
          "type": "address"
        },
        {
          "internalType": "address",
          "name": "_transferStakedBrrr",
          "type": "address"
        },
        {
          "internalType": "address",
          "name": "_weth",
          "type": "address"
        }
      ],
      "stateMutability": "nonpayable",
      "type": "constructor"
    },
    {
      "inputs": [],
      "name": "BrrrXpAmplifier_DurationNotFinished",
      "type": "error"
    },
    {
      "inputs": [],
      "name": "BrrrXpAmplifier_DurationPastSeasonEnd",
      "type": "error"
    },
    {
      "inputs": [],
      "name": "BrrrXpAmplifier_EmptyPosition",
      "type": "error"
    },
    {
      "inputs": [],
      "name": "BrrrXpAmplifier_InsufficientFunds",
      "type": "error"
    },
    {
      "inputs": [],
      "name": "BrrrXpAmplifier_InvalidAmount",
      "type": "error"
    },
    {
      "inputs": [],
      "name": "BrrrXpAmplifier_InvalidTier",
      "type": "error"
    },
    {
      "inputs": [],
      "name": "BrrrXpAmplifier_InvalidUser",
      "type": "error"
    },
    {
      "inputs": [],
      "name": "BrrrXpAmplifier_SeasonNotOver",
      "type": "error"
    },
    {
      "inputs": [],
      "name": "ReentrancyGuardReentrantCall",
      "type": "error"
    },
    {
      "anonymous": false,
      "inputs": [
        {
          "indexed": true,
          "internalType": "address",
          "name": "user",
          "type": "address"
        },
        {
          "indexed": true,
          "internalType": "uint256",
          "name": "index",
          "type": "uint256"
        },
        {
          "indexed": true,
          "internalType": "uint256",
          "name": "amount",
          "type": "uint256"
        }
      ],
      "name": "BrrrXpAmplifier_LiquidityLocked",
      "type": "event"
    },
    {
      "anonymous": false,
      "inputs": [
        {
          "indexed": true,
          "internalType": "address",
          "name": "user",
          "type": "address"
        },
        {
          "indexed": true,
          "internalType": "uint256",
          "name": "index",
          "type": "uint256"
        }
      ],
      "name": "BrrrXpAmplifier_LiquidityUnlocked",
      "type": "event"
    },
    {
      "anonymous": false,
      "inputs": [
        {
          "indexed": true,
          "internalType": "address",
          "name": "user",
          "type": "address"
        },
        {
          "indexed": true,
          "internalType": "uint256",
          "name": "tokenAmount",
          "type": "uint256"
        },
        {
          "indexed": true,
          "internalType": "uint256",
          "name": "xpAmount",
          "type": "uint256"
        }
      ],
      "name": "BrrrXpAmplifier_RewardsClaimed",
      "type": "event"
    },
    {
      "inputs": [],
      "name": "PRECISION",
      "outputs": [
        {
          "internalType": "uint256",
          "name": "",
          "type": "uint256"
        }
      ],
      "stateMutability": "view",
      "type": "function"
    },
    {
      "inputs": [],
      "name": "SEASON_END",
      "outputs": [
        {
          "internalType": "uint256",
          "name": "",
          "type": "uint256"
        }
      ],
      "stateMutability": "view",
      "type": "function"
    },
    {
      "inputs": [],
      "name": "TIER1_DURATION",
      "outputs": [
        {
          "internalType": "uint256",
          "name": "",
          "type": "uint256"
        }
      ],
      "stateMutability": "view",
      "type": "function"
    },
    {
      "inputs": [],
      "name": "TIER2_DURATION",
      "outputs": [
        {
          "internalType": "uint256",
          "name": "",
          "type": "uint256"
        }
      ],
      "stateMutability": "view",
      "type": "function"
    },
    {
      "inputs": [],
      "name": "TIER3_DURATION",
      "outputs": [
        {
          "internalType": "uint256",
          "name": "",
          "type": "uint256"
        }
      ],
      "stateMutability": "view",
      "type": "function"
    },
    {
      "inputs": [],
      "name": "TIER4_DURATION",
      "outputs": [
        {
          "internalType": "uint256",
          "name": "",
          "type": "uint256"
        }
      ],
      "stateMutability": "view",
      "type": "function"
    },
    {
      "inputs": [
        {
          "internalType": "address",
          "name": "",
          "type": "address"
        }
      ],
      "name": "averageLockedAmounts",
      "outputs": [
        {
          "internalType": "uint256",
          "name": "",
          "type": "uint256"
        }
      ],
      "stateMutability": "view",
      "type": "function"
    },
    {
      "inputs": [],
      "name": "claimPendingRewards",
      "outputs": [
        {
          "internalType": "uint256",
          "name": "",
          "type": "uint256"
        },
        {
          "internalType": "uint256",
          "name": "",
          "type": "uint256"
        }
      ],
      "stateMutability": "nonpayable",
      "type": "function"
    },
    {
      "inputs": [
        {
          "internalType": "address",
          "name": "",
          "type": "address"
        }
      ],
      "name": "claimableReward",
      "outputs": [
        {
          "internalType": "uint256",
          "name": "",
          "type": "uint256"
        }
      ],
      "stateMutability": "view",
      "type": "function"
    },
    {
      "inputs": [],
      "name": "contractBalance",
      "outputs": [
        {
          "internalType": "uint256",
          "name": "",
          "type": "uint256"
        }
      ],
      "stateMutability": "view",
      "type": "function"
    },
    {
      "inputs": [],
      "name": "cumulativeRewardPerToken",
      "outputs": [
        {
          "internalType": "uint256",
          "name": "",
          "type": "uint256"
        }
      ],
      "stateMutability": "view",
      "type": "function"
    },
    {
      "inputs": [
        {
          "internalType": "address",
          "name": "",
          "type": "address"
        }
      ],
      "name": "cumulativeRewards",
      "outputs": [
        {
          "internalType": "uint256",
          "name": "",
          "type": "uint256"
        }
      ],
      "stateMutability": "view",
      "type": "function"
    },
    {
      "inputs": [
        {
          "internalType": "address",
          "name": "user",
          "type": "address"
        }
      ],
      "name": "getClaimableTokenRewards",
      "outputs": [
        {
          "internalType": "uint256",
          "name": "",
          "type": "uint256"
        }
      ],
      "stateMutability": "view",
      "type": "function"
    },
    {
      "inputs": [
        {
          "internalType": "address",
          "name": "user",
          "type": "address"
        }
      ],
      "name": "getClaimableXpRewards",
      "outputs": [
        {
          "internalType": "uint256",
          "name": "",
          "type": "uint256"
        }
      ],
      "stateMutability": "view",
      "type": "function"
    },
    {
      "inputs": [
        {
          "internalType": "address",
          "name": "user",
          "type": "address"
        },
        {
          "internalType": "uint256",
          "name": "index",
          "type": "uint256"
        }
      ],
      "name": "getRemainingLockDuration",
      "outputs": [
        {
          "internalType": "uint256",
          "name": "",
          "type": "uint256"
        }
      ],
      "stateMutability": "view",
      "type": "function"
    },
    {
      "inputs": [
        {
          "internalType": "address",
          "name": "user",
          "type": "address"
        }
      ],
      "name": "getUserPositionIds",
      "outputs": [
        {
          "internalType": "uint256[]",
          "name": "",
          "type": "uint256[]"
        }
      ],
      "stateMutability": "view",
      "type": "function"
    },
    {
      "inputs": [],
      "name": "gov",
      "outputs": [
        {
          "internalType": "address",
          "name": "",
          "type": "address"
        }
      ],
      "stateMutability": "view",
      "type": "function"
    },
    {
      "inputs": [
        {
          "internalType": "address",
          "name": "",
          "type": "address"
        }
      ],
      "name": "lastXpUpdate",
      "outputs": [
        {
          "internalType": "uint256",
          "name": "",
          "type": "uint256"
        }
      ],
      "stateMutability": "view",
      "type": "function"
    },
    {
      "inputs": [
        {
          "internalType": "uint8",
          "name": "tier",
          "type": "uint8"
        },
        {
          "internalType": "uint256",
          "name": "amount",
          "type": "uint256"
        }
      ],
      "name": "lockLiquidity",
      "outputs": [],
      "stateMutability": "nonpayable",
      "type": "function"
    },
    {
      "inputs": [
        {
          "internalType": "address",
          "name": "",
          "type": "address"
        }
      ],
      "name": "lockedAmount",
      "outputs": [
        {
          "internalType": "uint256",
          "name": "",
          "type": "uint256"
        }
      ],
      "stateMutability": "view",
      "type": "function"
    },
    {
      "inputs": [],
      "name": "nextPositionId",
      "outputs": [
        {
          "internalType": "uint256",
          "name": "",
          "type": "uint256"
        }
      ],
      "stateMutability": "view",
      "type": "function"
    },
    {
      "inputs": [
        {
          "internalType": "address",
          "name": "",
          "type": "address"
        },
        {
          "internalType": "uint256",
          "name": "",
          "type": "uint256"
        }
      ],
      "name": "positions",
      "outputs": [
        {
          "internalType": "uint256",
          "name": "depositAmount",
          "type": "uint256"
        },
        {
          "internalType": "uint8",
          "name": "tier",
          "type": "uint8"
        },
        {
          "internalType": "uint256",
          "name": "lockedAt",
          "type": "uint256"
        },
        {
          "internalType": "uint256",
          "name": "unlockDate",
          "type": "uint256"
        },
        {
          "internalType": "address",
          "name": "owner",
          "type": "address"
        },
        {
          "internalType": "uint256",
          "name": "multiplier",
          "type": "uint256"
        }
      ],
      "stateMutability": "view",
      "type": "function"
    },
    {
      "inputs": [
        {
          "internalType": "address",
          "name": "",
          "type": "address"
        }
      ],
      "name": "previousCumulativeRewardPerToken",
      "outputs": [
        {
          "internalType": "uint256",
          "name": "",
          "type": "uint256"
        }
      ],
      "stateMutability": "view",
      "type": "function"
    },
    {
      "inputs": [
        {
          "internalType": "address",
          "name": "token",
          "type": "address"
        }
      ],
      "name": "recoverTokens",
      "outputs": [],
      "stateMutability": "nonpayable",
      "type": "function"
    },
    {
      "inputs": [],
      "name": "rewardTracker",
      "outputs": [
        {
          "internalType": "contract RewardTracker",
          "name": "",
          "type": "address"
        }
      ],
      "stateMutability": "view",
      "type": "function"
    },
    {
      "inputs": [
        {
          "internalType": "address",
          "name": "_gov",
          "type": "address"
        }
      ],
      "name": "setGov",
      "outputs": [],
      "stateMutability": "nonpayable",
      "type": "function"
    },
    {
      "inputs": [],
      "name": "stakeTransferrer",
      "outputs": [
        {
          "internalType": "contract TransferStakedBrrr",
          "name": "",
          "type": "address"
        }
      ],
      "stateMutability": "view",
      "type": "function"
    },
    {
      "inputs": [
        {
          "internalType": "address",
          "name": "",
          "type": "address"
        }
      ],
      "name": "totalXpEarned",
      "outputs": [
        {
          "internalType": "uint256",
          "name": "",
          "type": "uint256"
        }
      ],
      "stateMutability": "view",
      "type": "function"
    },
    {
      "inputs": [
        {
          "internalType": "uint256",
          "name": "index",
          "type": "uint256"
        }
      ],
      "name": "unlockLiquidity",
      "outputs": [],
      "stateMutability": "nonpayable",
      "type": "function"
    },
    {
      "inputs": [
        {
          "internalType": "uint256",
          "name": "val",
          "type": "uint256"
        }
      ],
      "name": "updateXpPerSecond",
      "outputs": [],
      "stateMutability": "nonpayable",
      "type": "function"
    },
    {
      "inputs": [
        {
          "internalType": "address",
          "name": "",
          "type": "address"
        },
        {
          "internalType": "uint256",
          "name": "",
          "type": "uint256"
        }
      ],
      "name": "userPositionIds",
      "outputs": [
        {
          "internalType": "uint256",
          "name": "",
          "type": "uint256"
        }
      ],
      "stateMutability": "view",
      "type": "function"
    },
    {
      "inputs": [],
      "name": "weth",
      "outputs": [
        {
          "internalType": "address",
          "name": "",
          "type": "address"
        }
      ],
      "stateMutability": "view",
      "type": "function"
    },
    {
      "inputs": [],
      "name": "xpPerSecond",
      "outputs": [
        {
          "internalType": "uint256",
          "name": "",
          "type": "uint256"
        }
      ],
      "stateMutability": "view",
      "type": "function"
    }
  ],
  "bytecode": {
    "object": "0x60a06040526001600d553480156200001657600080fd5b5060405162001b2c38038062001b2c8339810160408190526200003991620000ba565b600080546001600160a01b03191633179055600180556001600160a01b0383166200006357600080fd5b600280546001600160a01b03199081166001600160a01b039586161790915560038054909116928416929092179091551660805262000104565b80516001600160a01b0381168114620000b557600080fd5b919050565b600080600060608486031215620000d057600080fd5b620000db846200009d565b9250620000eb602085016200009d565b9150620000fb604085016200009d565b90509250925092565b6080516119f762000135600039600081816102ce0152818161087701528181610ab00152610b4701526119f76000f3fe608060405234801561001057600080fd5b50600436106101fb5760003560e01c806392bd7b2c1161011a578063c80debd6116100ad578063e95034251161007c578063e9503425146104ec578063ed94b7b51461050c578063eddf757014610516578063f5fc507614610536578063fb44ecd51461053f57600080fd5b8063c80debd61461049b578063cfad57a2146104bb578063d7261cc0146104ce578063dd961175146104e157600080fd5b8063aaf5eb68116100e9578063aaf5eb68146103c1578063b5475460146103d5578063c1be6677146103e8578063c3fa7cd41461047b57600080fd5b806392bd7b2c1461035157806396e839241461036e578063a153e70814610381578063a562021c146103a157600080fd5b806337c4c6a21161019257806372f1433c1161016157806372f1433c146103235780637b6eb9b61461032c578063899346c71461033f5780638b7afe2e1461034857600080fd5b806337c4c6a2146102bf5780633fc8cef3146102c95780636bcb411a146102f057806370d7b0a11461030357600080fd5b806317e46431116101ce57806317e4643114610270578063242c581b14610283578063360113b9146102965780633792def31461029f57600080fd5b806301c467d51461020057806312230a991461021557806312d43a511461023257806316114acd1461025d575b600080fd5b61021361020e3660046117b9565b610552565b005b61021f6276a70081565b6040519081526020015b60405180910390f35b600054610245906001600160a01b031681565b6040516001600160a01b039091168152602001610229565b61021361026b366004611802565b610842565b600354610245906001600160a01b031681565b610213610291366004611824565b6109e1565b61021f600d5481565b61021f6102ad366004611802565b600b6020526000908152604090205481565b61021f62ed4e0081565b6102457f000000000000000000000000000000000000000000000000000000000000000081565b600254610245906001600160a01b031681565b61021f610311366004611802565b60086020526000908152604090205481565b61021f610e1081565b61021f61033a36600461183d565b610a31565b61021f600e5481565b61021f60105481565b610359610a62565b60408051928352602083019190915201610229565b61021361037c366004611824565b610bfe565b61021f61038f366004611802565b60066020526000908152604090205481565b61021f6103af366004611802565b600a6020526000908152604090205481565b61021f6c7e37be2022c0914b268000000081565b61021f6103e336600461183d565b610f65565b6104436103f636600461183d565b60046020818152600093845260408085209091529183529120805460018201546002830154600384015494840154600590940154929460ff9092169390926001600160a01b039091169086565b6040805196875260ff90951660208701529385019290925260608401526001600160a01b0316608083015260a082015260c001610229565b61021f610489366004611802565b600c6020526000908152604090205481565b61021f6104a9366004611802565b60076020526000908152604090205481565b6102136104c9366004611802565b611000565b61021f6104dc366004611802565b6110a2565b61021f63665b0d4081565b61021f6104fa366004611802565b60096020526000908152604090205481565b61021f62278d0081565b610529610524366004611802565b6111fb565b6040516102299190611859565b61021f600f5481565b61021f61054d366004611802565b611267565b60038260ff16111561057757604051637d35ec0360e01b815260040160405180910390fd5b8060000361059857604051632718339960e21b815260040160405180910390fd5b6002546040516370a0823160e01b815233600482015282916001600160a01b0316906370a0823190602401602060405180830381865afa1580156105e0573d6000803e3d6000fd5b505050506040513d601f19601f82011682018060405250810190610604919061189d565b1015610623576040516358627c2560e11b815260040160405180910390fd5b600061062e83611272565b905063665b0d4061063f82426118cc565b111561065e5760405163f0d47d1360e01b815260040160405180910390fd5b6003546040516323b872dd60e01b8152336004820152306024820152604481018490526001600160a01b03909116906323b872dd906064016020604051808303816000875af11580156106b5573d6000803e3d6000fd5b505050506040513d601f19601f820116820180604052508101906106d991906118df565b506106e3336112c1565b50600e546106f28160016118cc565b600e8190555060006040518060c001604052808581526020018660ff168152602001428152602001844261072691906118cc565b815233602082015260400161073a87611580565b9052336000818152600460208181526040808420888552825280842086518155868301516001808301805460ff191660ff9093169290921790915587830151600283015560608801516003830155608088015194820180546001600160a01b0319166001600160a01b039096169590951790945560a08701516005918201558585528252808420805493840181558452818420909201879055928252600690925220549091506107eb9085906118cc565b336000908152600660205260409020556010546108099085906118cc565b6010556040518490839033907fd71a6ac22284946a13e933ed701c409bb67755d37767c50bc44e36bc245de7ec90600090a45050505050565b6000546001600160a01b031633146108755760405162461bcd60e51b815260040161086c90611901565b60405180910390fd5b7f00000000000000000000000000000000000000000000000000000000000000006001600160a01b0316816001600160a01b03161480156108b9575063665b0d4042105b806108df57506002546001600160a01b0382811691161480156108df575063665b0d4042105b156108fc57604051621110f560e81b815260040160405180910390fd5b6040516370a0823160e01b81523060048201526001600160a01b0382169063a9059cbb90339083906370a0823190602401602060405180830381865afa15801561094a573d6000803e3d6000fd5b505050506040513d601f19601f8201168201806040525081019061096e919061189d565b6040516001600160e01b031960e085901b1681526001600160a01b03909216600483015260248201526044016020604051808303816000875af11580156109b9573d6000803e3d6000fd5b505050506040513d601f19601f820116820180604052508101906109dd91906118df565b5050565b6000546001600160a01b03163314610a0b5760405162461bcd60e51b815260040161086c90611901565b80600003610a2c57604051632718339960e21b815260040160405180910390fd5b600d55565b60056020528160005260406000208181548110610a4d57600080fd5b90600052602060002001600091509150505481565b600080610a6d6115c3565b6000610a78336112c1565b33600090815260096020526040812080549190559091508015801590610b2657506040516370a0823160e01b815230600482015281907f00000000000000000000000000000000000000000000000000000000000000006001600160a01b0316906370a0823190602401602060405180830381865afa158015610aff573d6000803e3d6000fd5b505050506040513d601f19601f82011682018060405250810190610b23919061189d565b10155b15610bbe5760405163a9059cbb60e01b8152336004820152602481018290527f00000000000000000000000000000000000000000000000000000000000000006001600160a01b03169063a9059cbb906044016020604051808303816000875af1158015610b98573d6000803e3d6000fd5b505050506040513d601f19601f82011682018060405250810190610bbc91906118df565b505b6040518290829033907fc8d14814bf76200767bd2164dcf808b4857d4fc276bf064ba3cb26440d59dedb90600090a492509050610bfa60018055565b9091565b3360009081526004602081815260408084208585528252808420815160c0810183528154808252600183015460ff169482019490945260028201549281019290925260038101546060830152928301546001600160a01b0316608082015260059092015460a0830152909103610c87576040516331add00b60e21b815260040160405180910390fd5b4281606001511115610cac576040516302aadb2b60e21b815260040160405180910390fd5b80516002546040516370a0823160e01b81523060048201526001600160a01b03909116906370a0823190602401602060405180830381865afa158015610cf6573d6000803e3d6000fd5b505050506040513d601f19601f82011682018060405250810190610d1a919061189d565b1015610d39576040516358627c2560e11b815260040160405180910390fd5b60808101516001600160a01b03163314610d665760405163404af06360e01b815260040160405180910390fd5b610d6f336112c1565b50805133600090815260066020526040902054610d8c9190611930565b336000908152600660205260409020558051601054610dab9190611930565b601055336000818152600460208181526040808420878552825280842084815560018101805460ff19169055600281018590556003810185905592830180546001600160a01b0319169055600592830184905593835252908120905b8154811015610eb95783828281548110610e2357610e23611943565b906000526020600020015403610ea95781548290610e4390600190611930565b81548110610e5357610e53611943565b9060005260206000200154828281548110610e7057610e70611943565b906000526020600020018190555081805480610e8e57610e8e611959565b60019003818190600052602060002001600090559055610eb9565b610eb28161196f565b9050610e07565b50600354825160405163a9059cbb60e01b815233600482015260248101919091526001600160a01b039091169063a9059cbb906044016020604051808303816000875af1158015610f0e573d6000803e3d6000fd5b505050506040513d601f19601f82011682018060405250810190610f3291906118df565b50604051839033907f792a2a10f10944df16b849067e6e5e3c5a745c022a88c531e5de5cc30b612c2190600090a3505050565b6001600160a01b0380831660009081526004602081815260408084208685528252808420815160c08101835281548152600182015460ff169381019390935260028101549183019190915260038101546060830181905292810154909416608082015260059093015460a08401529091904210610fe6576000915050610ffa565b428160600151610ff69190611930565b9150505b92915050565b6000546001600160a01b0316331461102a5760405162461bcd60e51b815260040161086c90611901565b6001600160a01b0381166110805760405162461bcd60e51b815260206004820181905260248201527f476f7665726e61626c653a205f676f76206973207a65726f2061646472657373604482015260640161086c565b600080546001600160a01b0319166001600160a01b0392909216919091179055565b6001600160a01b0381166000908152600660205260408120548082036110df5750506001600160a01b031660009081526009602052604090205490565b60105460025460405163402914f560e01b81523060048201526000916c7e37be2022c0914b2680000000916001600160a01b039091169063402914f590602401602060405180830381865afa15801561113c573d6000803e3d6000fd5b505050506040513d601f19601f82011682018060405250810190611160919061189d565b61116a9190611988565b90506000611178838361199f565b600f5461118591906118cc565b6001600160a01b0387166000908152600a60205260409020549091506c7e37be2022c0914b2680000000906111ba9083611930565b6111c49086611988565b6111ce919061199f565b6001600160a01b0387166000908152600960205260409020546111f191906118cc565b9695505050505050565b6001600160a01b03811660009081526005602090815260409182902080548351818402810184019094528084526060939283018282801561125b57602002820191906000526020600020905b815481526020019060010190808311611247575b50505050509050919050565b6000610ffa826115ed565b60008160ff166000036112885750610e10919050565b8160ff1660010361129d575062278d00919050565b8160ff166002036112b257506276a700919050565b5062ed4e00919050565b919050565b600254604051630f41a04d60e11b815230600482015260009182916001600160a01b0390911690631e83409a906024016020604051808303816000875af1158015611310573d6000803e3d6000fd5b505050506040513d601f19601f82011682018060405250810190611334919061189d565b601054600f5491925090811580159061134d5750600083115b15611386578161136a6c7e37be2022c0914b268000000085611988565b611374919061199f565b61137e90826118cc565b600f81905590505b6001600160a01b03851615611575576001600160a01b038516600090815260066020908152604080832054600a9092528220549091906c7e37be2022c0914b2680000000906113d59085611930565b6113df9084611988565b6113e9919061199f565b6001600160a01b038816600090815260096020526040812054919250906114119083906118cc565b6001600160a01b0389166000908152600960209081526040808320849055600a90915290208590559050801580159061146157506001600160a01b03881660009081526006602052604090205415155b1561150b576001600160a01b0388166000908152600b602052604081205461148a9084906118cc565b9050806114978486611988565b6114a1919061199f565b6001600160a01b038a166000908152600b602090815260408083205460089092529091205483916114d191611988565b6114db919061199f565b6114e591906118cc565b6001600160a01b038a16600090815260086020908152604080832093909355600b905220555b6000611516896115ed565b90508015611569576001600160a01b0389166000908152600c60209081526040808320429055600790915290205461154f9082906118cc565b6001600160a01b038a166000908152600760205260409020555b98975050505050505050565b506000949350505050565b60008160ff1660000361159557506064919050565b8160ff166001036115a85750607d919050565b8160ff166002036115bb57506096919050565b5060c8919050565b6002600154036115e657604051633ee5aeb560e01b815260040160405180910390fd5b6002600155565b6001600160a01b038116600090815260056020908152604080832080548251818502810185019093528083528493849392919083018282801561164f57602002820191906000526020600020905b81548152602001906001019080831161163b575b50505050509050600063665b0d404210611691576001600160a01b0385166000908152600c602052604090205461168a9063665b0d40611930565b90506116b7565b6001600160a01b0385166000908152600c60205260409020546116b49042611930565b90505b60005b82518110156117a4576001600160a01b0386166000908152600460205260408120845182908690859081106116f1576116f1611943565b6020908102919091018101518252818101929092526040908101600020815160c08101835281548152600182015460ff16938101939093526002810154918301919091526003810154606083015260048101546001600160a01b031660808301526005015460a0820152600d5490915061176b9084611988565b60a0820151825161177c9190611988565b6117869190611988565b61179090866118cc565b9450508061179d9061196f565b90506116ba565b506117b060648461199f565b95945050505050565b600080604083850312156117cc57600080fd5b823560ff811681146117dd57600080fd5b946020939093013593505050565b80356001600160a01b03811681146112bc57600080fd5b60006020828403121561181457600080fd5b61181d826117eb565b9392505050565b60006020828403121561183657600080fd5b5035919050565b6000806040838503121561185057600080fd5b6117dd836117eb565b6020808252825182820181905260009190848201906040850190845b8181101561189157835183529284019291840191600101611875565b50909695505050505050565b6000602082840312156118af57600080fd5b5051919050565b634e487b7160e01b600052601160045260246000fd5b80820180821115610ffa57610ffa6118b6565b6000602082840312156118f157600080fd5b8151801515811461181d57600080fd5b60208082526015908201527423b7bb32b93730b136329d103337b93134b23232b760591b604082015260600190565b81810381811115610ffa57610ffa6118b6565b634e487b7160e01b600052603260045260246000fd5b634e487b7160e01b600052603160045260246000fd5b600060018201611981576119816118b6565b5060010190565b8082028115828204841417610ffa57610ffa6118b6565b6000826119bc57634e487b7160e01b600052601260045260246000fd5b50049056fea2646970667358221220dc72262c2777f53052589edaa594b52796d2f0f98f31cbcee9abf01c152faf9164736f6c63430008120033",
    "linkReferences": {}
  },
  "methodIdentifiers": {
    "PRECISION()": "aaf5eb68",
    "SEASON_END()": "dd961175",
    "TIER1_DURATION()": "72f1433c",
    "TIER2_DURATION()": "ed94b7b5",
    "TIER3_DURATION()": "12230a99",
    "TIER4_DURATION()": "37c4c6a2",
    "averageLockedAmounts(address)": "70d7b0a1",
    "claimPendingRewards()": "92bd7b2c",
    "claimableReward(address)": "e9503425",
    "contractBalance()": "8b7afe2e",
    "cumulativeRewardPerToken()": "f5fc5076",
    "cumulativeRewards(address)": "3792def3",
    "getClaimableTokenRewards(address)": "d7261cc0",
    "getClaimableXpRewards(address)": "fb44ecd5",
    "getRemainingLockDuration(address,uint256)": "b5475460",
    "getUserPositionIds(address)": "eddf7570",
    "gov()": "12d43a51",
    "lastXpUpdate(address)": "c3fa7cd4",
    "lockLiquidity(uint8,uint256)": "01c467d5",
    "lockedAmount(address)": "a153e708",
    "nextPositionId()": "899346c7",
    "positions(address,uint256)": "c1be6677",
    "previousCumulativeRewardPerToken(address)": "a562021c",
    "recoverTokens(address)": "16114acd",
    "rewardTracker()": "6bcb411a",
    "setGov(address)": "cfad57a2",
    "stakeTransferrer()": "17e46431",
    "totalXpEarned(address)": "c80debd6",
    "unlockLiquidity(uint256)": "96e83924",
    "updateXpPerSecond(uint256)": "242c581b",
    "userPositionIds(address,uint256)": "7b6eb9b6",
    "weth()": "3fc8cef3",
    "xpPerSecond()": "360113b9"
  },
  "id": 74
}