{
  "abi": [
    {
      "inputs": [
        {
          "internalType": "address",
          "name": "_rewardTracker",
          "type": "address"
        },
        {
          "internalType": "address",
          "name": "_transferStakedBrrr",
          "type": "address"
        },
        {
          "internalType": "address",
          "name": "_weth",
          "type": "address"
        }
      ],
      "stateMutability": "nonpayable",
      "type": "constructor"
    },
    {
      "inputs": [],
      "name": "BrrrXpAmplifier_DurationNotFinished",
      "type": "error"
    },
    {
      "inputs": [],
      "name": "BrrrXpAmplifier_DurationPastSeasonEnd",
      "type": "error"
    },
    {
      "inputs": [],
      "name": "BrrrXpAmplifier_EmptyPosition",
      "type": "error"
    },
    {
      "inputs": [],
      "name": "BrrrXpAmplifier_InsufficientFunds",
      "type": "error"
    },
    {
      "inputs": [],
      "name": "BrrrXpAmplifier_InvalidAmount",
      "type": "error"
    },
    {
      "inputs": [],
      "name": "BrrrXpAmplifier_InvalidTier",
      "type": "error"
    },
    {
      "inputs": [],
      "name": "BrrrXpAmplifier_InvalidUser",
      "type": "error"
    },
    {
      "inputs": [],
      "name": "BrrrXpAmplifier_SeasonNotOver",
      "type": "error"
    },
    {
      "inputs": [],
      "name": "ReentrancyGuardReentrantCall",
      "type": "error"
    },
    {
      "anonymous": false,
      "inputs": [
        {
          "indexed": true,
          "internalType": "address",
          "name": "user",
          "type": "address"
        },
        {
          "indexed": true,
          "internalType": "uint256",
          "name": "index",
          "type": "uint256"
        },
        {
          "indexed": true,
          "internalType": "uint256",
          "name": "amount",
          "type": "uint256"
        }
      ],
      "name": "BrrrXpAmplifier_LiquidityLocked",
      "type": "event"
    },
    {
      "anonymous": false,
      "inputs": [
        {
          "indexed": true,
          "internalType": "address",
          "name": "user",
          "type": "address"
        },
        {
          "indexed": true,
          "internalType": "uint256",
          "name": "index",
          "type": "uint256"
        }
      ],
      "name": "BrrrXpAmplifier_LiquidityUnlocked",
      "type": "event"
    },
    {
      "anonymous": false,
      "inputs": [
        {
          "indexed": true,
          "internalType": "address",
          "name": "user",
          "type": "address"
        },
        {
          "indexed": true,
          "internalType": "uint256",
          "name": "tokenAmount",
          "type": "uint256"
        },
        {
          "indexed": true,
          "internalType": "uint256",
          "name": "xpAmount",
          "type": "uint256"
        }
      ],
      "name": "BrrrXpAmplifier_RewardsClaimed",
      "type": "event"
    },
    {
      "inputs": [],
      "name": "PRECISION",
      "outputs": [
        {
          "internalType": "uint256",
          "name": "",
          "type": "uint256"
        }
      ],
      "stateMutability": "view",
      "type": "function"
    },
    {
      "inputs": [],
      "name": "SEASON_END",
      "outputs": [
        {
          "internalType": "uint256",
          "name": "",
          "type": "uint256"
        }
      ],
      "stateMutability": "view",
      "type": "function"
    },
    {
      "inputs": [],
      "name": "TIER1_DURATION",
      "outputs": [
        {
          "internalType": "uint256",
          "name": "",
          "type": "uint256"
        }
      ],
      "stateMutability": "view",
      "type": "function"
    },
    {
      "inputs": [],
      "name": "TIER2_DURATION",
      "outputs": [
        {
          "internalType": "uint256",
          "name": "",
          "type": "uint256"
        }
      ],
      "stateMutability": "view",
      "type": "function"
    },
    {
      "inputs": [],
      "name": "TIER3_DURATION",
      "outputs": [
        {
          "internalType": "uint256",
          "name": "",
          "type": "uint256"
        }
      ],
      "stateMutability": "view",
      "type": "function"
    },
    {
      "inputs": [],
      "name": "TIER4_DURATION",
      "outputs": [
        {
          "internalType": "uint256",
          "name": "",
          "type": "uint256"
        }
      ],
      "stateMutability": "view",
      "type": "function"
    },
    {
      "inputs": [
        {
          "internalType": "address",
          "name": "",
          "type": "address"
        }
      ],
      "name": "averageLockedAmounts",
      "outputs": [
        {
          "internalType": "uint256",
          "name": "",
          "type": "uint256"
        }
      ],
      "stateMutability": "view",
      "type": "function"
    },
    {
      "inputs": [],
      "name": "claimPendingRewards",
      "outputs": [
        {
          "internalType": "uint256",
          "name": "",
          "type": "uint256"
        },
        {
          "internalType": "uint256",
          "name": "",
          "type": "uint256"
        }
      ],
      "stateMutability": "nonpayable",
      "type": "function"
    },
    {
      "inputs": [
        {
          "internalType": "address",
          "name": "",
          "type": "address"
        }
      ],
      "name": "claimableReward",
      "outputs": [
        {
          "internalType": "uint256",
          "name": "",
          "type": "uint256"
        }
      ],
      "stateMutability": "view",
      "type": "function"
    },
    {
      "inputs": [],
      "name": "contractBalance",
      "outputs": [
        {
          "internalType": "uint256",
          "name": "",
          "type": "uint256"
        }
      ],
      "stateMutability": "view",
      "type": "function"
    },
    {
      "inputs": [],
      "name": "cumulativeRewardPerToken",
      "outputs": [
        {
          "internalType": "uint256",
          "name": "",
          "type": "uint256"
        }
      ],
      "stateMutability": "view",
      "type": "function"
    },
    {
      "inputs": [
        {
          "internalType": "address",
          "name": "",
          "type": "address"
        }
      ],
      "name": "cumulativeRewards",
      "outputs": [
        {
          "internalType": "uint256",
          "name": "",
          "type": "uint256"
        }
      ],
      "stateMutability": "view",
      "type": "function"
    },
    {
      "inputs": [
        {
          "internalType": "address",
          "name": "user",
          "type": "address"
        }
      ],
      "name": "getClaimableTokenRewards",
      "outputs": [
        {
          "internalType": "uint256",
          "name": "",
          "type": "uint256"
        }
      ],
      "stateMutability": "view",
      "type": "function"
    },
    {
      "inputs": [
        {
          "internalType": "address",
          "name": "user",
          "type": "address"
        }
      ],
      "name": "getClaimableXpRewards",
      "outputs": [
        {
          "internalType": "uint256",
          "name": "",
          "type": "uint256"
        }
      ],
      "stateMutability": "view",
      "type": "function"
    },
    {
      "inputs": [
        {
          "internalType": "address",
          "name": "user",
          "type": "address"
        },
        {
          "internalType": "uint256",
          "name": "index",
          "type": "uint256"
        }
      ],
      "name": "getRemainingLockDuration",
      "outputs": [
        {
          "internalType": "uint256",
          "name": "",
          "type": "uint256"
        }
      ],
      "stateMutability": "view",
      "type": "function"
    },
    {
      "inputs": [
        {
          "internalType": "address",
          "name": "user",
          "type": "address"
        }
      ],
      "name": "getUserPositionIds",
      "outputs": [
        {
          "internalType": "uint256[]",
          "name": "",
          "type": "uint256[]"
        }
      ],
      "stateMutability": "view",
      "type": "function"
    },
    {
      "inputs": [],
      "name": "gov",
      "outputs": [
        {
          "internalType": "address",
          "name": "",
          "type": "address"
        }
      ],
      "stateMutability": "view",
      "type": "function"
    },
    {
      "inputs": [
        {
          "internalType": "address",
          "name": "",
          "type": "address"
        }
      ],
      "name": "lastXpUpdate",
      "outputs": [
        {
          "internalType": "uint256",
          "name": "",
          "type": "uint256"
        }
      ],
      "stateMutability": "view",
      "type": "function"
    },
    {
      "inputs": [
        {
          "internalType": "uint8",
          "name": "tier",
          "type": "uint8"
        },
        {
          "internalType": "uint256",
          "name": "amount",
          "type": "uint256"
        }
      ],
      "name": "lockLiquidity",
      "outputs": [],
      "stateMutability": "nonpayable",
      "type": "function"
    },
    {
      "inputs": [
        {
          "internalType": "address",
          "name": "",
          "type": "address"
        }
      ],
      "name": "lockedAmount",
      "outputs": [
        {
          "internalType": "uint256",
          "name": "",
          "type": "uint256"
        }
      ],
      "stateMutability": "view",
      "type": "function"
    },
    {
      "inputs": [],
      "name": "nextPositionId",
      "outputs": [
        {
          "internalType": "uint256",
          "name": "",
          "type": "uint256"
        }
      ],
      "stateMutability": "view",
      "type": "function"
    },
    {
      "inputs": [
        {
          "internalType": "address",
          "name": "",
          "type": "address"
        },
        {
          "internalType": "uint256",
          "name": "",
          "type": "uint256"
        }
      ],
      "name": "positions",
      "outputs": [
        {
          "internalType": "uint256",
          "name": "depositAmount",
          "type": "uint256"
        },
        {
          "internalType": "uint8",
          "name": "tier",
          "type": "uint8"
        },
        {
          "internalType": "uint256",
          "name": "lockedAt",
          "type": "uint256"
        },
        {
          "internalType": "uint256",
          "name": "unlockDate",
          "type": "uint256"
        },
        {
          "internalType": "address",
          "name": "owner",
          "type": "address"
        },
        {
          "internalType": "uint256",
          "name": "multiplier",
          "type": "uint256"
        }
      ],
      "stateMutability": "view",
      "type": "function"
    },
    {
      "inputs": [
        {
          "internalType": "address",
          "name": "",
          "type": "address"
        }
      ],
      "name": "previousCumulativeRewardPerToken",
      "outputs": [
        {
          "internalType": "uint256",
          "name": "",
          "type": "uint256"
        }
      ],
      "stateMutability": "view",
      "type": "function"
    },
    {
      "inputs": [
        {
          "internalType": "address",
          "name": "token",
          "type": "address"
        }
      ],
      "name": "recoverTokens",
      "outputs": [],
      "stateMutability": "nonpayable",
      "type": "function"
    },
    {
      "inputs": [],
      "name": "rewardTracker",
      "outputs": [
        {
          "internalType": "contract RewardTracker",
          "name": "",
          "type": "address"
        }
      ],
      "stateMutability": "view",
      "type": "function"
    },
    {
      "inputs": [
        {
          "internalType": "address",
          "name": "_gov",
          "type": "address"
        }
      ],
      "name": "setGov",
      "outputs": [],
      "stateMutability": "nonpayable",
      "type": "function"
    },
    {
      "inputs": [],
      "name": "stakeTransferrer",
      "outputs": [
        {
          "internalType": "contract TransferStakedBrrr",
          "name": "",
          "type": "address"
        }
      ],
      "stateMutability": "view",
      "type": "function"
    },
    {
      "inputs": [
        {
          "internalType": "address",
          "name": "",
          "type": "address"
        }
      ],
      "name": "totalXpEarned",
      "outputs": [
        {
          "internalType": "uint256",
          "name": "",
          "type": "uint256"
        }
      ],
      "stateMutability": "view",
      "type": "function"
    },
    {
      "inputs": [
        {
          "internalType": "uint256",
          "name": "index",
          "type": "uint256"
        }
      ],
      "name": "unlockLiquidity",
      "outputs": [],
      "stateMutability": "nonpayable",
      "type": "function"
    },
    {
      "inputs": [
        {
          "internalType": "uint256",
          "name": "val",
          "type": "uint256"
        }
      ],
      "name": "updateXpPerSecond",
      "outputs": [],
      "stateMutability": "nonpayable",
      "type": "function"
    },
    {
      "inputs": [
        {
          "internalType": "address",
          "name": "",
          "type": "address"
        },
        {
          "internalType": "uint256",
          "name": "",
          "type": "uint256"
        }
      ],
      "name": "userPositionIds",
      "outputs": [
        {
          "internalType": "uint256",
          "name": "",
          "type": "uint256"
        }
      ],
      "stateMutability": "view",
      "type": "function"
    },
    {
      "inputs": [],
      "name": "weth",
      "outputs": [
        {
          "internalType": "address",
          "name": "",
          "type": "address"
        }
      ],
      "stateMutability": "view",
      "type": "function"
    },
    {
      "inputs": [],
      "name": "xpPerSecond",
      "outputs": [
        {
          "internalType": "uint256",
          "name": "",
          "type": "uint256"
        }
      ],
      "stateMutability": "view",
      "type": "function"
    }
  ],
  "bytecode": {
    "object": "0x60a06040526001600d553480156200001657600080fd5b5060405162001b0038038062001b0083398101604081905262000039916200009e565b60008054336001600160a01b031991821617909155600180556002805482166001600160a01b03958616179055600380549091169284169290921790915516608052620000e8565b80516001600160a01b03811681146200009957600080fd5b919050565b600080600060608486031215620000b457600080fd5b620000bf8462000081565b9250620000cf6020850162000081565b9150620000df6040850162000081565b90509250925092565b6080516119e762000119600039600081816102ce0152818161087701528181610aaa0152610b6701526119e76000f3fe608060405234801561001057600080fd5b50600436106101fb5760003560e01c806392bd7b2c1161011a578063c80debd6116100ad578063e95034251161007c578063e9503425146104ec578063ed94b7b51461050c578063eddf757014610516578063f5fc507614610536578063fb44ecd51461053f57600080fd5b8063c80debd61461049b578063cfad57a2146104bb578063d7261cc0146104ce578063dd961175146104e157600080fd5b8063aaf5eb68116100e9578063aaf5eb68146103c1578063b5475460146103d5578063c1be6677146103e8578063c3fa7cd41461047b57600080fd5b806392bd7b2c1461035157806396e839241461036e578063a153e70814610381578063a562021c146103a157600080fd5b806337c4c6a21161019257806372f1433c1161016157806372f1433c146103235780637b6eb9b61461032c578063899346c71461033f5780638b7afe2e1461034857600080fd5b806337c4c6a2146102bf5780633fc8cef3146102c95780636bcb411a146102f057806370d7b0a11461030357600080fd5b806317e46431116101ce57806317e4643114610270578063242c581b14610283578063360113b9146102965780633792def31461029f57600080fd5b806301c467d51461020057806312230a991461021557806312d43a511461023257806316114acd1461025d575b600080fd5b61021361020e3660046117c2565b610552565b005b61021f6276a70081565b6040519081526020015b60405180910390f35b600054610245906001600160a01b031681565b6040516001600160a01b039091168152602001610229565b61021361026b36600461180b565b610842565b600354610245906001600160a01b031681565b61021361029136600461182d565b6109e1565b61021f600d5481565b61021f6102ad36600461180b565b600b6020526000908152604090205481565b61021f62ed4e0081565b6102457f000000000000000000000000000000000000000000000000000000000000000081565b600254610245906001600160a01b031681565b61021f61031136600461180b565b60086020526000908152604090205481565b61021f610e1081565b61021f61033a366004611846565b610a31565b61021f600e5481565b61021f60105481565b610359610a62565b60408051928352602083019190915201610229565b61021361037c36600461182d565b610c1e565b61021f61038f36600461180b565b60066020526000908152604090205481565b61021f6103af36600461180b565b600a6020526000908152604090205481565b61021f6c7e37be2022c0914b268000000081565b61021f6103e3366004611846565b610f80565b6104436103f6366004611846565b60046020818152600093845260408085209091529183529120805460018201546002830154600384015494840154600590940154929460ff9092169390926001600160a01b039091169086565b6040805196875260ff90951660208701529385019290925260608401526001600160a01b0316608083015260a082015260c001610229565b61021f61048936600461180b565b600c6020526000908152604090205481565b61021f6104a936600461180b565b60076020526000908152604090205481565b6102136104c936600461180b565b61101b565b61021f6104dc36600461180b565b6110bd565b61021f63665b0d4081565b61021f6104fa36600461180b565b60096020526000908152604090205481565b61021f62278d0081565b61052961052436600461180b565b611216565b6040516102299190611862565b61021f600f5481565b61021f61054d36600461180b565b611282565b60038260ff16111561057757604051637d35ec0360e01b815260040160405180910390fd5b8060000361059857604051632718339960e21b815260040160405180910390fd5b6002546040516370a0823160e01b815233600482015282916001600160a01b0316906370a0823190602401602060405180830381865afa1580156105e0573d6000803e3d6000fd5b505050506040513d601f19601f8201168201806040525081019061060491906118a6565b1015610623576040516358627c2560e11b815260040160405180910390fd5b600061062e8361128d565b905063665b0d4061063f82426118d5565b111561065e5760405163f0d47d1360e01b815260040160405180910390fd5b6003546040516323b872dd60e01b8152336004820152306024820152604481018490526001600160a01b03909116906323b872dd906064016020604051808303816000875af11580156106b5573d6000803e3d6000fd5b505050506040513d601f19601f820116820180604052508101906106d991906118e8565b506106e3336112dc565b50600e546106f28160016118d5565b600e8190555060006040518060c001604052808581526020018660ff168152602001428152602001844261072691906118d5565b815233602082015260400161073a8761159a565b9052336000818152600460208181526040808420888552825280842086518155868301516001808301805460ff191660ff9093169290921790915587830151600283015560608801516003830155608088015194820180546001600160a01b0319166001600160a01b039096169590951790945560a08701516005918201558585528252808420805493840181558452818420909201879055928252600690925220549091506107eb9085906118d5565b336000908152600660205260409020556010546108099085906118d5565b6010556040518490839033907fd71a6ac22284946a13e933ed701c409bb67755d37767c50bc44e36bc245de7ec90600090a45050505050565b6000546001600160a01b031633146108755760405162461bcd60e51b815260040161086c9061190a565b60405180910390fd5b7f00000000000000000000000000000000000000000000000000000000000000006001600160a01b0316816001600160a01b03161480156108b9575063665b0d4042105b806108df57506002546001600160a01b0382811691161480156108df575063665b0d4042105b156108fc57604051621110f560e81b815260040160405180910390fd5b6040516370a0823160e01b81523060048201526001600160a01b0382169063a9059cbb90339083906370a0823190602401602060405180830381865afa15801561094a573d6000803e3d6000fd5b505050506040513d601f19601f8201168201806040525081019061096e91906118a6565b6040516001600160e01b031960e085901b1681526001600160a01b03909216600483015260248201526044016020604051808303816000875af11580156109b9573d6000803e3d6000fd5b505050506040513d601f19601f820116820180604052508101906109dd91906118e8565b5050565b6000546001600160a01b03163314610a0b5760405162461bcd60e51b815260040161086c9061190a565b80600003610a2c57604051632718339960e21b815260040160405180910390fd5b600d55565b60056020528160005260406000208181548110610a4d57600080fd5b90600052602060002001600091509150505481565b600080610a6d6115dd565b6000610a78336112dc565b33600090815260096020526040908190205490516370a0823160e01b8152306004820152919250906001600160a01b037f000000000000000000000000000000000000000000000000000000000000000016906370a0823190602401602060405180830381865afa158015610af1573d6000803e3d6000fd5b505050506040513d601f19601f82011682018060405250810190610b1591906118a6565b811115610b35576040516358627c2560e11b815260040160405180910390fd5b336000908152600960205260408120558015610bde5760405163a9059cbb60e01b8152336004820152602481018290527f00000000000000000000000000000000000000000000000000000000000000006001600160a01b03169063a9059cbb906044016020604051808303816000875af1158015610bb8573d6000803e3d6000fd5b505050506040513d601f19601f82011682018060405250810190610bdc91906118e8565b505b6040518290829033907fc8d14814bf76200767bd2164dcf808b4857d4fc276bf064ba3cb26440d59dedb90600090a492509050610c1a60018055565b9091565b3360009081526004602081815260408084208585528252808420815160c0810183528154808252600183015460ff169482019490945260028201549281019290925260038101546060830152928301546001600160a01b0316608082015260059092015460a0830152909103610ca7576040516331add00b60e21b815260040160405180910390fd5b4281606001511115610ccc576040516302aadb2b60e21b815260040160405180910390fd5b80516002546040516370a0823160e01b81523060048201526001600160a01b03909116906370a0823190602401602060405180830381865afa158015610d16573d6000803e3d6000fd5b505050506040513d601f19601f82011682018060405250810190610d3a91906118a6565b1015610d59576040516358627c2560e11b815260040160405180910390fd5b60808101516001600160a01b03163314610d865760405163404af06360e01b815260040160405180910390fd5b610d8f336112dc565b50805133600090815260066020526040902054610dac9190611939565b336000908152600660205260409020558051601054610dcb9190611939565b601055336000818152600460208181526040808420878552825280842084815560018101805460ff19169055600281018590556003810185905592830180546001600160a01b0319169055600592830184905593835252908120805490915b81811015610ed35784838281548110610e4557610e4561194c565b906000526020600020015403610ecb5782548390610e6590600190611939565b81548110610e7557610e7561194c565b9060005260206000200154838281548110610e9257610e9261194c565b906000526020600020018190555082805480610eb057610eb0611962565b60019003818190600052602060002001600090559055610ed3565b600101610e2a565b50600354835160405163a9059cbb60e01b815233600482015260248101919091526001600160a01b039091169063a9059cbb906044016020604051808303816000875af1158015610f28573d6000803e3d6000fd5b505050506040513d601f19601f82011682018060405250810190610f4c91906118e8565b50604051849033907f792a2a10f10944df16b849067e6e5e3c5a745c022a88c531e5de5cc30b612c2190600090a350505050565b6001600160a01b0380831660009081526004602081815260408084208685528252808420815160c08101835281548152600182015460ff169381019390935260028101549183019190915260038101546060830181905292810154909416608082015260059093015460a08401529091904210611001576000915050611015565b4281606001516110119190611939565b9150505b92915050565b6000546001600160a01b031633146110455760405162461bcd60e51b815260040161086c9061190a565b6001600160a01b03811661109b5760405162461bcd60e51b815260206004820181905260248201527f476f7665726e61626c653a205f676f76206973207a65726f2061646472657373604482015260640161086c565b600080546001600160a01b0319166001600160a01b0392909216919091179055565b6001600160a01b0381166000908152600660205260408120548082036110fa5750506001600160a01b031660009081526009602052604090205490565b60105460025460405163402914f560e01b81523060048201526000916c7e37be2022c0914b2680000000916001600160a01b039091169063402914f590602401602060405180830381865afa158015611157573d6000803e3d6000fd5b505050506040513d601f19601f8201168201806040525081019061117b91906118a6565b6111859190611978565b90506000611193838361198f565b600f546111a091906118d5565b6001600160a01b0387166000908152600a60205260409020549091506c7e37be2022c0914b2680000000906111d59083611939565b6111df9086611978565b6111e9919061198f565b6001600160a01b03871660009081526009602052604090205461120c91906118d5565b9695505050505050565b6001600160a01b03811660009081526005602090815260409182902080548351818402810184019094528084526060939283018282801561127657602002820191906000526020600020905b815481526020019060010190808311611262575b50505050509050919050565b600061101582611607565b60008160ff166000036112a35750610e10919050565b8160ff166001036112b8575062278d00919050565b8160ff166002036112cd57506276a700919050565b5062ed4e00919050565b919050565b600254604051630f41a04d60e11b815230600482015260009182916001600160a01b0390911690631e83409a906024016020604051808303816000875af115801561132b573d6000803e3d6000fd5b505050506040513d601f19601f8201168201806040525081019061134f91906118a6565b601054600f5491925090811580159061136757508215155b156113a057816113846c7e37be2022c0914b268000000085611978565b61138e919061198f565b61139890826118d5565b600f81905590505b6001600160a01b0385161561158f576001600160a01b038516600090815260066020908152604080832054600a9092528220549091906c7e37be2022c0914b2680000000906113ef9085611939565b6113f99084611978565b611403919061198f565b6001600160a01b0388166000908152600960205260408120549192509061142b9083906118d5565b6001600160a01b0389166000908152600960209081526040808320849055600a90915290208590559050801580159061147b57506001600160a01b03881660009081526006602052604090205415155b15611525576001600160a01b0388166000908152600b60205260408120546114a49084906118d5565b9050806114b18486611978565b6114bb919061198f565b6001600160a01b038a166000908152600b602090815260408083205460089092529091205483916114eb91611978565b6114f5919061198f565b6114ff91906118d5565b6001600160a01b038a16600090815260086020908152604080832093909355600b905220555b600061153089611607565b90508015611583576001600160a01b0389166000908152600c6020908152604080832042905560079091529020546115699082906118d5565b6001600160a01b038a166000908152600760205260409020555b98975050505050505050565b506000949350505050565b60008160ff166000036115af57506064919050565b8160ff166001036115c25750607d919050565b8160ff166002036115d557506096919050565b5060c8919050565b60026001540361160057604051633ee5aeb560e01b815260040160405180910390fd5b6002600155565b6001600160a01b038116600090815260056020908152604080832080548251818502810185019093528083528493849392919083018282801561166957602002820191906000526020600020905b815481526020019060010190808311611655575b50505050509050600063665b0d4042106116ab576001600160a01b0385166000908152600c60205260409020546116a49063665b0d40611939565b90506116d1565b6001600160a01b0385166000908152600c60205260409020546116ce9042611939565b90505b815160005b818110156117b6576001600160a01b03871660009081526004602052604081208551829087908590811061170c5761170c61194c565b6020908102919091018101518252818101929092526040908101600020815160c08101835281548152600182015460ff16938101939093526002810154918301919091526003810154606083015260048101546001600160a01b031660808301526005015460a0820152600d549091506117869085611978565b60a082015182516117979190611978565b6117a19190611978565b6117ab90876118d5565b9550506001016116d6565b5061120c60648561198f565b600080604083850312156117d557600080fd5b823560ff811681146117e657600080fd5b946020939093013593505050565b80356001600160a01b03811681146112d757600080fd5b60006020828403121561181d57600080fd5b611826826117f4565b9392505050565b60006020828403121561183f57600080fd5b5035919050565b6000806040838503121561185957600080fd5b6117e6836117f4565b6020808252825182820181905260009190848201906040850190845b8181101561189a5783518352928401929184019160010161187e565b50909695505050505050565b6000602082840312156118b857600080fd5b5051919050565b634e487b7160e01b600052601160045260246000fd5b80820180821115611015576110156118bf565b6000602082840312156118fa57600080fd5b8151801515811461182657600080fd5b60208082526015908201527423b7bb32b93730b136329d103337b93134b23232b760591b604082015260600190565b81810381811115611015576110156118bf565b634e487b7160e01b600052603260045260246000fd5b634e487b7160e01b600052603160045260246000fd5b8082028115828204841417611015576110156118bf565b6000826119ac57634e487b7160e01b600052601260045260246000fd5b50049056fea2646970667358221220cc2c0a9846c384cbddd4dcb69ad6b5469b4b012b81f7ea4337f620520f0c908d64736f6c63430008120033",
    "linkReferences": {}
  },
  "methodIdentifiers": {
    "PRECISION()": "aaf5eb68",
    "SEASON_END()": "dd961175",
    "TIER1_DURATION()": "72f1433c",
    "TIER2_DURATION()": "ed94b7b5",
    "TIER3_DURATION()": "12230a99",
    "TIER4_DURATION()": "37c4c6a2",
    "averageLockedAmounts(address)": "70d7b0a1",
    "claimPendingRewards()": "92bd7b2c",
    "claimableReward(address)": "e9503425",
    "contractBalance()": "8b7afe2e",
    "cumulativeRewardPerToken()": "f5fc5076",
    "cumulativeRewards(address)": "3792def3",
    "getClaimableTokenRewards(address)": "d7261cc0",
    "getClaimableXpRewards(address)": "fb44ecd5",
    "getRemainingLockDuration(address,uint256)": "b5475460",
    "getUserPositionIds(address)": "eddf7570",
    "gov()": "12d43a51",
    "lastXpUpdate(address)": "c3fa7cd4",
    "lockLiquidity(uint8,uint256)": "01c467d5",
    "lockedAmount(address)": "a153e708",
    "nextPositionId()": "899346c7",
    "positions(address,uint256)": "c1be6677",
    "previousCumulativeRewardPerToken(address)": "a562021c",
    "recoverTokens(address)": "16114acd",
    "rewardTracker()": "6bcb411a",
    "setGov(address)": "cfad57a2",
    "stakeTransferrer()": "17e46431",
    "totalXpEarned(address)": "c80debd6",
    "unlockLiquidity(uint256)": "96e83924",
    "updateXpPerSecond(uint256)": "242c581b",
    "userPositionIds(address,uint256)": "7b6eb9b6",
    "weth()": "3fc8cef3",
    "xpPerSecond()": "360113b9"
  },
  "id": 81
}