{
  "abi": [
    {
      "inputs": [
        {
          "internalType": "address",
          "name": "_rewardTracker",
          "type": "address"
        },
        {
          "internalType": "address",
          "name": "_transferStakedBrrr",
          "type": "address"
        },
        {
          "internalType": "address",
          "name": "_weth",
          "type": "address"
        }
      ],
      "stateMutability": "nonpayable",
      "type": "constructor"
    },
    {
      "inputs": [],
      "name": "BrrrXpAmplifier_DurationNotFinished",
      "type": "error"
    },
    {
      "inputs": [],
      "name": "BrrrXpAmplifier_DurationPastSeasonEnd",
      "type": "error"
    },
    {
      "inputs": [],
      "name": "BrrrXpAmplifier_EmptyPosition",
      "type": "error"
    },
    {
      "inputs": [],
      "name": "BrrrXpAmplifier_InsufficientFunds",
      "type": "error"
    },
    {
      "inputs": [],
      "name": "BrrrXpAmplifier_InvalidAmount",
      "type": "error"
    },
    {
      "inputs": [],
      "name": "BrrrXpAmplifier_InvalidTier",
      "type": "error"
    },
    {
      "inputs": [],
      "name": "BrrrXpAmplifier_InvalidUser",
      "type": "error"
    },
    {
      "inputs": [],
      "name": "BrrrXpAmplifier_SeasonNotOver",
      "type": "error"
    },
    {
      "inputs": [],
      "name": "ReentrancyGuardReentrantCall",
      "type": "error"
    },
    {
      "anonymous": false,
      "inputs": [
        {
          "indexed": true,
          "internalType": "address",
          "name": "user",
          "type": "address"
        },
        {
          "indexed": true,
          "internalType": "uint256",
          "name": "index",
          "type": "uint256"
        },
        {
          "indexed": true,
          "internalType": "uint256",
          "name": "amount",
          "type": "uint256"
        }
      ],
      "name": "BrrrXpAmplifier_LiquidityLocked",
      "type": "event"
    },
    {
      "anonymous": false,
      "inputs": [
        {
          "indexed": true,
          "internalType": "address",
          "name": "user",
          "type": "address"
        },
        {
          "indexed": true,
          "internalType": "uint256",
          "name": "index",
          "type": "uint256"
        }
      ],
      "name": "BrrrXpAmplifier_LiquidityUnlocked",
      "type": "event"
    },
    {
      "anonymous": false,
      "inputs": [
        {
          "indexed": true,
          "internalType": "address",
          "name": "user",
          "type": "address"
        },
        {
          "indexed": true,
          "internalType": "uint256",
          "name": "tokenAmount",
          "type": "uint256"
        },
        {
          "indexed": true,
          "internalType": "uint256",
          "name": "xpAmount",
          "type": "uint256"
        }
      ],
      "name": "BrrrXpAmplifier_RewardsClaimed",
      "type": "event"
    },
    {
      "inputs": [],
      "name": "PRECISION",
      "outputs": [
        {
          "internalType": "uint256",
          "name": "",
          "type": "uint256"
        }
      ],
      "stateMutability": "view",
      "type": "function"
    },
    {
      "inputs": [],
      "name": "SEASON_END",
      "outputs": [
        {
          "internalType": "uint256",
          "name": "",
          "type": "uint256"
        }
      ],
      "stateMutability": "view",
      "type": "function"
    },
    {
      "inputs": [],
      "name": "TIER1_DURATION",
      "outputs": [
        {
          "internalType": "uint256",
          "name": "",
          "type": "uint256"
        }
      ],
      "stateMutability": "view",
      "type": "function"
    },
    {
      "inputs": [],
      "name": "TIER2_DURATION",
      "outputs": [
        {
          "internalType": "uint256",
          "name": "",
          "type": "uint256"
        }
      ],
      "stateMutability": "view",
      "type": "function"
    },
    {
      "inputs": [],
      "name": "TIER3_DURATION",
      "outputs": [
        {
          "internalType": "uint256",
          "name": "",
          "type": "uint256"
        }
      ],
      "stateMutability": "view",
      "type": "function"
    },
    {
      "inputs": [],
      "name": "TIER4_DURATION",
      "outputs": [
        {
          "internalType": "uint256",
          "name": "",
          "type": "uint256"
        }
      ],
      "stateMutability": "view",
      "type": "function"
    },
    {
      "inputs": [
        {
          "internalType": "address",
          "name": "",
          "type": "address"
        }
      ],
      "name": "averageLockedAmounts",
      "outputs": [
        {
          "internalType": "uint256",
          "name": "",
          "type": "uint256"
        }
      ],
      "stateMutability": "view",
      "type": "function"
    },
    {
      "inputs": [],
      "name": "claimPendingRewards",
      "outputs": [
        {
          "internalType": "uint256",
          "name": "",
          "type": "uint256"
        },
        {
          "internalType": "uint256",
          "name": "",
          "type": "uint256"
        }
      ],
      "stateMutability": "nonpayable",
      "type": "function"
    },
    {
      "inputs": [
        {
          "internalType": "address",
          "name": "",
          "type": "address"
        }
      ],
      "name": "claimableReward",
      "outputs": [
        {
          "internalType": "uint256",
          "name": "",
          "type": "uint256"
        }
      ],
      "stateMutability": "view",
      "type": "function"
    },
    {
      "inputs": [],
      "name": "contractBalance",
      "outputs": [
        {
          "internalType": "uint256",
          "name": "",
          "type": "uint256"
        }
      ],
      "stateMutability": "view",
      "type": "function"
    },
    {
      "inputs": [],
      "name": "cumulativeRewardPerToken",
      "outputs": [
        {
          "internalType": "uint256",
          "name": "",
          "type": "uint256"
        }
      ],
      "stateMutability": "view",
      "type": "function"
    },
    {
      "inputs": [
        {
          "internalType": "address",
          "name": "",
          "type": "address"
        }
      ],
      "name": "cumulativeRewards",
      "outputs": [
        {
          "internalType": "uint256",
          "name": "",
          "type": "uint256"
        }
      ],
      "stateMutability": "view",
      "type": "function"
    },
    {
      "inputs": [
        {
          "internalType": "address",
          "name": "user",
          "type": "address"
        }
      ],
      "name": "getClaimableTokenRewards",
      "outputs": [
        {
          "internalType": "uint256",
          "name": "",
          "type": "uint256"
        }
      ],
      "stateMutability": "view",
      "type": "function"
    },
    {
      "inputs": [
        {
          "internalType": "address",
          "name": "user",
          "type": "address"
        }
      ],
      "name": "getClaimableXpRewards",
      "outputs": [
        {
          "internalType": "uint256",
          "name": "",
          "type": "uint256"
        }
      ],
      "stateMutability": "view",
      "type": "function"
    },
    {
      "inputs": [
        {
          "internalType": "address",
          "name": "user",
          "type": "address"
        },
        {
          "internalType": "uint256",
          "name": "index",
          "type": "uint256"
        }
      ],
      "name": "getRemainingLockDuration",
      "outputs": [
        {
          "internalType": "uint256",
          "name": "",
          "type": "uint256"
        }
      ],
      "stateMutability": "view",
      "type": "function"
    },
    {
      "inputs": [
        {
          "internalType": "address",
          "name": "user",
          "type": "address"
        }
      ],
      "name": "getUserPositionIds",
      "outputs": [
        {
          "internalType": "uint256[]",
          "name": "",
          "type": "uint256[]"
        }
      ],
      "stateMutability": "view",
      "type": "function"
    },
    {
      "inputs": [
        {
          "internalType": "uint8",
          "name": "_tier",
          "type": "uint8"
        },
        {
          "internalType": "address",
          "name": "_user",
          "type": "address"
        }
      ],
      "name": "getUserTotalStakedAmountForTier",
      "outputs": [
        {
          "internalType": "uint256",
          "name": "",
          "type": "uint256"
        }
      ],
      "stateMutability": "view",
      "type": "function"
    },
    {
      "inputs": [
        {
          "internalType": "uint8",
          "name": "_tier",
          "type": "uint8"
        },
        {
          "internalType": "address",
          "name": "_user",
          "type": "address"
        }
      ],
      "name": "getUserTotalXpEarnedForTier",
      "outputs": [
        {
          "internalType": "uint256",
          "name": "",
          "type": "uint256"
        }
      ],
      "stateMutability": "view",
      "type": "function"
    },
    {
      "inputs": [],
      "name": "gov",
      "outputs": [
        {
          "internalType": "address",
          "name": "",
          "type": "address"
        }
      ],
      "stateMutability": "view",
      "type": "function"
    },
    {
      "inputs": [
        {
          "internalType": "address",
          "name": "",
          "type": "address"
        }
      ],
      "name": "lastXpUpdate",
      "outputs": [
        {
          "internalType": "uint256",
          "name": "",
          "type": "uint256"
        }
      ],
      "stateMutability": "view",
      "type": "function"
    },
    {
      "inputs": [
        {
          "internalType": "uint8",
          "name": "tier",
          "type": "uint8"
        },
        {
          "internalType": "uint256",
          "name": "amount",
          "type": "uint256"
        }
      ],
      "name": "lockLiquidity",
      "outputs": [],
      "stateMutability": "nonpayable",
      "type": "function"
    },
    {
      "inputs": [
        {
          "internalType": "address",
          "name": "",
          "type": "address"
        }
      ],
      "name": "lockedAmount",
      "outputs": [
        {
          "internalType": "uint256",
          "name": "",
          "type": "uint256"
        }
      ],
      "stateMutability": "view",
      "type": "function"
    },
    {
      "inputs": [],
      "name": "nextPositionId",
      "outputs": [
        {
          "internalType": "uint256",
          "name": "",
          "type": "uint256"
        }
      ],
      "stateMutability": "view",
      "type": "function"
    },
    {
      "inputs": [
        {
          "internalType": "address",
          "name": "",
          "type": "address"
        },
        {
          "internalType": "uint256",
          "name": "",
          "type": "uint256"
        }
      ],
      "name": "positions",
      "outputs": [
        {
          "internalType": "uint256",
          "name": "depositAmount",
          "type": "uint256"
        },
        {
          "internalType": "uint8",
          "name": "tier",
          "type": "uint8"
        },
        {
          "internalType": "uint256",
          "name": "lockedAt",
          "type": "uint256"
        },
        {
          "internalType": "uint256",
          "name": "unlockDate",
          "type": "uint256"
        },
        {
          "internalType": "address",
          "name": "owner",
          "type": "address"
        },
        {
          "internalType": "uint256",
          "name": "multiplier",
          "type": "uint256"
        }
      ],
      "stateMutability": "view",
      "type": "function"
    },
    {
      "inputs": [
        {
          "internalType": "address",
          "name": "",
          "type": "address"
        }
      ],
      "name": "previousCumulativeRewardPerToken",
      "outputs": [
        {
          "internalType": "uint256",
          "name": "",
          "type": "uint256"
        }
      ],
      "stateMutability": "view",
      "type": "function"
    },
    {
      "inputs": [
        {
          "internalType": "address",
          "name": "token",
          "type": "address"
        }
      ],
      "name": "recoverTokens",
      "outputs": [],
      "stateMutability": "nonpayable",
      "type": "function"
    },
    {
      "inputs": [],
      "name": "rewardTracker",
      "outputs": [
        {
          "internalType": "contract RewardTracker",
          "name": "",
          "type": "address"
        }
      ],
      "stateMutability": "view",
      "type": "function"
    },
    {
      "inputs": [
        {
          "internalType": "address",
          "name": "_gov",
          "type": "address"
        }
      ],
      "name": "setGov",
      "outputs": [],
      "stateMutability": "nonpayable",
      "type": "function"
    },
    {
      "inputs": [],
      "name": "stakeTransferrer",
      "outputs": [
        {
          "internalType": "contract TransferStakedBrrr",
          "name": "",
          "type": "address"
        }
      ],
      "stateMutability": "view",
      "type": "function"
    },
    {
      "inputs": [
        {
          "internalType": "address",
          "name": "",
          "type": "address"
        }
      ],
      "name": "totalXpEarned",
      "outputs": [
        {
          "internalType": "uint256",
          "name": "",
          "type": "uint256"
        }
      ],
      "stateMutability": "view",
      "type": "function"
    },
    {
      "inputs": [
        {
          "internalType": "uint256",
          "name": "index",
          "type": "uint256"
        }
      ],
      "name": "unlockLiquidity",
      "outputs": [],
      "stateMutability": "nonpayable",
      "type": "function"
    },
    {
      "inputs": [
        {
          "internalType": "uint256",
          "name": "val",
          "type": "uint256"
        }
      ],
      "name": "updateXpPerSecond",
      "outputs": [],
      "stateMutability": "nonpayable",
      "type": "function"
    },
    {
      "inputs": [
        {
          "internalType": "address",
          "name": "",
          "type": "address"
        },
        {
          "internalType": "uint256",
          "name": "",
          "type": "uint256"
        }
      ],
      "name": "userPositionIds",
      "outputs": [
        {
          "internalType": "uint256",
          "name": "",
          "type": "uint256"
        }
      ],
      "stateMutability": "view",
      "type": "function"
    },
    {
      "inputs": [],
      "name": "weth",
      "outputs": [
        {
          "internalType": "address",
          "name": "",
          "type": "address"
        }
      ],
      "stateMutability": "view",
      "type": "function"
    },
    {
      "inputs": [],
      "name": "xpPerSecond",
      "outputs": [
        {
          "internalType": "uint256",
          "name": "",
          "type": "uint256"
        }
      ],
      "stateMutability": "view",
      "type": "function"
    }
  ],
  "bytecode": {
    "object": "0x60a06040526001600d553480156200001657600080fd5b5060405162001ebf38038062001ebf8339810160408190526200003991620000ba565b600080546001600160a01b03191633179055600180556001600160a01b0383166200006357600080fd5b600280546001600160a01b03199081166001600160a01b039586161790915560038054909116928416929092179091551660805262000104565b80516001600160a01b0381168114620000b557600080fd5b919050565b600080600060608486031215620000d057600080fd5b620000db846200009d565b9250620000eb602085016200009d565b9150620000fb604085016200009d565b90509250925092565b608051611d8a62000135600039600081816102f701528181610a8c01528181610cc50152610d5c0152611d8a6000f3fe608060405234801561001057600080fd5b50600436106102115760003560e01c806392bd7b2c11610125578063cfad57a2116100ad578063e95034251161007c578063e950342514610528578063ed94b7b514610548578063eddf757014610552578063f5fc507614610572578063fb44ecd51461057b57600080fd5b8063cfad57a2146104e4578063d7261cc0146104f7578063dd9611751461050a578063e6b13a131461051557600080fd5b8063aaf5eb68116100f4578063aaf5eb68146103ea578063b5475460146103fe578063c1be667714610411578063c3fa7cd4146104a4578063c80debd6146104c457600080fd5b806392bd7b2c1461037a57806396e8392414610397578063a153e708146103aa578063a562021c146103ca57600080fd5b80633792def3116101a857806370d7b0a11161017757806370d7b0a11461032c57806372f1433c1461034c5780637b6eb9b614610355578063899346c7146103685780638b7afe2e1461037157600080fd5b80633792def3146102c857806337c4c6a2146102e85780633fc8cef3146102f25780636bcb411a1461031957600080fd5b806316114acd116101e457806316114acd1461028657806317e4643114610299578063242c581b146102ac578063360113b9146102bf57600080fd5b806301c467d51461021657806302650b391461022b57806312230a991461025157806312d43a511461025b575b600080fd5b610229610224366004611b21565b61058e565b005b61023e610239366004611b62565b61087e565b6040519081526020015b60405180910390f35b61023e6276a70081565b60005461026e906001600160a01b031681565b6040516001600160a01b039091168152602001610248565b610229610294366004611b95565b610a57565b60035461026e906001600160a01b031681565b6102296102ba366004611bb7565b610bf6565b61023e600d5481565b61023e6102d6366004611b95565b600b6020526000908152604090205481565b61023e62ed4e0081565b61026e7f000000000000000000000000000000000000000000000000000000000000000081565b60025461026e906001600160a01b031681565b61023e61033a366004611b95565b60086020526000908152604090205481565b61023e610e1081565b61023e610363366004611bd0565b610c46565b61023e600e5481565b61023e60105481565b610382610c77565b60408051928352602083019190915201610248565b6102296103a5366004611bb7565b610e13565b61023e6103b8366004611b95565b60066020526000908152604090205481565b61023e6103d8366004611b95565b600a6020526000908152604090205481565b61023e6c7e37be2022c0914b268000000081565b61023e61040c366004611bd0565b61117a565b61046c61041f366004611bd0565b60046020818152600093845260408085209091529183529120805460018201546002830154600384015494840154600590940154929460ff9092169390926001600160a01b039091169086565b6040805196875260ff90951660208701529385019290925260608401526001600160a01b0316608083015260a082015260c001610248565b61023e6104b2366004611b95565b600c6020526000908152604090205481565b61023e6104d2366004611b95565b60076020526000908152604090205481565b6102296104f2366004611b95565b611213565b61023e610505366004611b95565b6112b5565b61023e63665b0d4081565b61023e610523366004611b62565b61140e565b61023e610536366004611b95565b60096020526000908152604090205481565b61023e62278d0081565b610565610560366004611b95565b611552565b6040516102489190611bec565b61023e600f5481565b61023e610589366004611b95565b6115be565b60038260ff1611156105b357604051637d35ec0360e01b815260040160405180910390fd5b806000036105d457604051632718339960e21b815260040160405180910390fd5b6002546040516370a0823160e01b815233600482015282916001600160a01b0316906370a0823190602401602060405180830381865afa15801561061c573d6000803e3d6000fd5b505050506040513d601f19601f820116820180604052508101906106409190611c30565b101561065f576040516358627c2560e11b815260040160405180910390fd5b600061066a836115c9565b905063665b0d4061067b8242611c5f565b111561069a5760405163f0d47d1360e01b815260040160405180910390fd5b6003546040516323b872dd60e01b8152336004820152306024820152604481018490526001600160a01b03909116906323b872dd906064016020604051808303816000875af11580156106f1573d6000803e3d6000fd5b505050506040513d601f19601f820116820180604052508101906107159190611c72565b5061071f33611618565b50600e5461072e816001611c5f565b600e8190555060006040518060c001604052808581526020018660ff16815260200142815260200184426107629190611c5f565b8152336020820152604001610776876118d7565b9052336000818152600460208181526040808420888552825280842086518155868301516001808301805460ff191660ff9093169290921790915587830151600283015560608801516003830155608088015194820180546001600160a01b0319166001600160a01b039096169590951790945560a0870151600591820155858552825280842080549384018155845281842090920187905592825260069092522054909150610827908590611c5f565b33600090815260066020526040902055601054610845908590611c5f565b6010556040518490839033907fd71a6ac22284946a13e933ed701c409bb67755d37767c50bc44e36bc245de7ec90600090a45050505050565b6001600160a01b03811660009081526005602090815260408083208054825181850281018501909352808352849384939291908301828280156108e057602002820191906000526020600020905b8154815260200190600101908083116108cc575b50505050509050600063665b0d404210610922576001600160a01b0385166000908152600c602052604090205461091b9063665b0d40611c94565b9050610948565b6001600160a01b0385166000908152600c60205260409020546109459042611c94565b90505b60005b8251811015610a3f576001600160a01b03861660009081526004602052604081208451829086908590811061098257610982611ca7565b6020908102919091018101518252818101929092526040908101600020815160c08101835281548152600182015460ff9081169482018590526002830154938201939093526003820154606082015260048201546001600160a01b0316608082015260059091015460a0820152925089169003610a2e57600d54610a069084611cbd565b60a08201518251610a179190611cbd565b610a219190611cbd565b610a2b9086611c5f565b94505b50610a3881611cd4565b905061094b565b50610a4b606484611ced565b93505050505b92915050565b6000546001600160a01b03163314610a8a5760405162461bcd60e51b8152600401610a8190611d0f565b60405180910390fd5b7f00000000000000000000000000000000000000000000000000000000000000006001600160a01b0316816001600160a01b0316148015610ace575063665b0d4042105b80610af457506002546001600160a01b038281169116148015610af4575063665b0d4042105b15610b1157604051621110f560e81b815260040160405180910390fd5b6040516370a0823160e01b81523060048201526001600160a01b0382169063a9059cbb90339083906370a0823190602401602060405180830381865afa158015610b5f573d6000803e3d6000fd5b505050506040513d601f19601f82011682018060405250810190610b839190611c30565b6040516001600160e01b031960e085901b1681526001600160a01b03909216600483015260248201526044016020604051808303816000875af1158015610bce573d6000803e3d6000fd5b505050506040513d601f19601f82011682018060405250810190610bf29190611c72565b5050565b6000546001600160a01b03163314610c205760405162461bcd60e51b8152600401610a8190611d0f565b80600003610c4157604051632718339960e21b815260040160405180910390fd5b600d55565b60056020528160005260406000208181548110610c6257600080fd5b90600052602060002001600091509150505481565b600080610c8261191a565b6000610c8d33611618565b33600090815260096020526040812080549190559091508015801590610d3b57506040516370a0823160e01b815230600482015281907f00000000000000000000000000000000000000000000000000000000000000006001600160a01b0316906370a0823190602401602060405180830381865afa158015610d14573d6000803e3d6000fd5b505050506040513d601f19601f82011682018060405250810190610d389190611c30565b10155b15610dd35760405163a9059cbb60e01b8152336004820152602481018290527f00000000000000000000000000000000000000000000000000000000000000006001600160a01b03169063a9059cbb906044016020604051808303816000875af1158015610dad573d6000803e3d6000fd5b505050506040513d601f19601f82011682018060405250810190610dd19190611c72565b505b6040518290829033907fc8d14814bf76200767bd2164dcf808b4857d4fc276bf064ba3cb26440d59dedb90600090a492509050610e0f60018055565b9091565b3360009081526004602081815260408084208585528252808420815160c0810183528154808252600183015460ff169482019490945260028201549281019290925260038101546060830152928301546001600160a01b0316608082015260059092015460a0830152909103610e9c576040516331add00b60e21b815260040160405180910390fd5b4281606001511115610ec1576040516302aadb2b60e21b815260040160405180910390fd5b80516002546040516370a0823160e01b81523060048201526001600160a01b03909116906370a0823190602401602060405180830381865afa158015610f0b573d6000803e3d6000fd5b505050506040513d601f19601f82011682018060405250810190610f2f9190611c30565b1015610f4e576040516358627c2560e11b815260040160405180910390fd5b60808101516001600160a01b03163314610f7b5760405163404af06360e01b815260040160405180910390fd5b610f8433611618565b50805133600090815260066020526040902054610fa19190611c94565b336000908152600660205260409020558051601054610fc09190611c94565b601055336000818152600460208181526040808420878552825280842084815560018101805460ff19169055600281018590556003810185905592830180546001600160a01b0319169055600592830184905593835252908120905b81548110156110ce578382828154811061103857611038611ca7565b9060005260206000200154036110be578154829061105890600190611c94565b8154811061106857611068611ca7565b906000526020600020015482828154811061108557611085611ca7565b9060005260206000200181905550818054806110a3576110a3611d3e565b600190038181906000526020600020016000905590556110ce565b6110c781611cd4565b905061101c565b50600354825160405163a9059cbb60e01b815233600482015260248101919091526001600160a01b039091169063a9059cbb906044016020604051808303816000875af1158015611123573d6000803e3d6000fd5b505050506040513d601f19601f820116820180604052508101906111479190611c72565b50604051839033907f792a2a10f10944df16b849067e6e5e3c5a745c022a88c531e5de5cc30b612c2190600090a3505050565b6001600160a01b0380831660009081526004602081815260408084208685528252808420815160c08101835281548152600182015460ff169381019390935260028101549183019190915260038101546060830181905292810154909416608082015260059093015460a084015290919042106111fb576000915050610a51565b42816060015161120b9190611c94565b915050610a51565b6000546001600160a01b0316331461123d5760405162461bcd60e51b8152600401610a8190611d0f565b6001600160a01b0381166112935760405162461bcd60e51b815260206004820181905260248201527f476f7665726e61626c653a205f676f76206973207a65726f20616464726573736044820152606401610a81565b600080546001600160a01b0319166001600160a01b0392909216919091179055565b6001600160a01b0381166000908152600660205260408120548082036112f25750506001600160a01b031660009081526009602052604090205490565b60105460025460405163402914f560e01b81523060048201526000916c7e37be2022c0914b2680000000916001600160a01b039091169063402914f590602401602060405180830381865afa15801561134f573d6000803e3d6000fd5b505050506040513d601f19601f820116820180604052508101906113739190611c30565b61137d9190611cbd565b9050600061138b8383611ced565b600f546113989190611c5f565b6001600160a01b0387166000908152600a60205260409020549091506c7e37be2022c0914b2680000000906113cd9083611c94565b6113d79086611cbd565b6113e19190611ced565b6001600160a01b0387166000908152600960205260409020546114049190611c5f565b9695505050505050565b6001600160a01b038116600090815260056020908152604080832080548251818502810185019093528083528493849392919083018282801561147057602002820191906000526020600020905b81548152602001906001019080831161145c575b5050505050905060005b8151811015611548576001600160a01b0385166000908152600460205260408120835182908590859081106114b1576114b1611ca7565b6020908102919091018101518252818101929092526040908101600020815160c08101835281548152600182015460ff9081169482018590526002830154938201939093526003820154606082015260048201546001600160a01b0316608082015260059091015460a08201529250881690036115375780516115349085611c5f565b93505b5061154181611cd4565b905061147a565b5090949350505050565b6001600160a01b0381166000908152600560209081526040918290208054835181840281018401909452808452606093928301828280156115b257602002820191906000526020600020905b81548152602001906001019080831161159e575b50505050509050919050565b6000610a5182611944565b60008160ff166000036115df5750610e10919050565b8160ff166001036115f4575062278d00919050565b8160ff1660020361160957506276a700919050565b5062ed4e00919050565b919050565b600254604051630f41a04d60e11b815230600482015260009182916001600160a01b0390911690631e83409a906024016020604051808303816000875af1158015611667573d6000803e3d6000fd5b505050506040513d601f19601f8201168201806040525081019061168b9190611c30565b601054600f549192509081158015906116a45750600083115b156116dd57816116c16c7e37be2022c0914b268000000085611cbd565b6116cb9190611ced565b6116d59082611c5f565b600f81905590505b6001600160a01b038516156118cc576001600160a01b038516600090815260066020908152604080832054600a9092528220549091906c7e37be2022c0914b26800000009061172c9085611c94565b6117369084611cbd565b6117409190611ced565b6001600160a01b03881660009081526009602052604081205491925090611768908390611c5f565b6001600160a01b0389166000908152600960209081526040808320849055600a9091529020859055905080158015906117b857506001600160a01b03881660009081526006602052604090205415155b15611862576001600160a01b0388166000908152600b60205260408120546117e1908490611c5f565b9050806117ee8486611cbd565b6117f89190611ced565b6001600160a01b038a166000908152600b6020908152604080832054600890925290912054839161182891611cbd565b6118329190611ced565b61183c9190611c5f565b6001600160a01b038a16600090815260086020908152604080832093909355600b905220555b600061186d89611944565b905080156118c0576001600160a01b0389166000908152600c6020908152604080832042905560079091529020546118a6908290611c5f565b6001600160a01b038a166000908152600760205260409020555b98975050505050505050565b506000949350505050565b60008160ff166000036118ec57506064919050565b8160ff166001036118ff5750607d919050565b8160ff1660020361191257506096919050565b5060c8919050565b60026001540361193d57604051633ee5aeb560e01b815260040160405180910390fd5b6002600155565b6001600160a01b03811660009081526005602090815260408083208054825181850281018501909352808352849384939291908301828280156119a657602002820191906000526020600020905b815481526020019060010190808311611992575b50505050509050600063665b0d4042106119e8576001600160a01b0385166000908152600c60205260409020546119e19063665b0d40611c94565b9050611a0e565b6001600160a01b0385166000908152600c6020526040902054611a0b9042611c94565b90505b60005b8251811015611afb576001600160a01b038616600090815260046020526040812084518290869085908110611a4857611a48611ca7565b6020908102919091018101518252818101929092526040908101600020815160c08101835281548152600182015460ff16938101939093526002810154918301919091526003810154606083015260048101546001600160a01b031660808301526005015460a0820152600d54909150611ac29084611cbd565b60a08201518251611ad39190611cbd565b611add9190611cbd565b611ae79086611c5f565b94505080611af490611cd4565b9050611a11565b50611b07606484611ced565b95945050505050565b803560ff8116811461161357600080fd5b60008060408385031215611b3457600080fd5b611b3d83611b10565b946020939093013593505050565b80356001600160a01b038116811461161357600080fd5b60008060408385031215611b7557600080fd5b611b7e83611b10565b9150611b8c60208401611b4b565b90509250929050565b600060208284031215611ba757600080fd5b611bb082611b4b565b9392505050565b600060208284031215611bc957600080fd5b5035919050565b60008060408385031215611be357600080fd5b611b3d83611b4b565b6020808252825182820181905260009190848201906040850190845b81811015611c2457835183529284019291840191600101611c08565b50909695505050505050565b600060208284031215611c4257600080fd5b5051919050565b634e487b7160e01b600052601160045260246000fd5b80820180821115610a5157610a51611c49565b600060208284031215611c8457600080fd5b81518015158114611bb057600080fd5b81810381811115610a5157610a51611c49565b634e487b7160e01b600052603260045260246000fd5b8082028115828204841417610a5157610a51611c49565b600060018201611ce657611ce6611c49565b5060010190565b600082611d0a57634e487b7160e01b600052601260045260246000fd5b500490565b60208082526015908201527423b7bb32b93730b136329d103337b93134b23232b760591b604082015260600190565b634e487b7160e01b600052603160045260246000fdfea2646970667358221220a4b3b057f908b77da5bbef722350f9172a4c316bb4c94c9fbbd97ad09299f35e64736f6c63430008120033",
    "linkReferences": {}
  },
  "methodIdentifiers": {
    "PRECISION()": "aaf5eb68",
    "SEASON_END()": "dd961175",
    "TIER1_DURATION()": "72f1433c",
    "TIER2_DURATION()": "ed94b7b5",
    "TIER3_DURATION()": "12230a99",
    "TIER4_DURATION()": "37c4c6a2",
    "averageLockedAmounts(address)": "70d7b0a1",
    "claimPendingRewards()": "92bd7b2c",
    "claimableReward(address)": "e9503425",
    "contractBalance()": "8b7afe2e",
    "cumulativeRewardPerToken()": "f5fc5076",
    "cumulativeRewards(address)": "3792def3",
    "getClaimableTokenRewards(address)": "d7261cc0",
    "getClaimableXpRewards(address)": "fb44ecd5",
    "getRemainingLockDuration(address,uint256)": "b5475460",
    "getUserPositionIds(address)": "eddf7570",
    "getUserTotalStakedAmountForTier(uint8,address)": "e6b13a13",
    "getUserTotalXpEarnedForTier(uint8,address)": "02650b39",
    "gov()": "12d43a51",
    "lastXpUpdate(address)": "c3fa7cd4",
    "lockLiquidity(uint8,uint256)": "01c467d5",
    "lockedAmount(address)": "a153e708",
    "nextPositionId()": "899346c7",
    "positions(address,uint256)": "c1be6677",
    "previousCumulativeRewardPerToken(address)": "a562021c",
    "recoverTokens(address)": "16114acd",
    "rewardTracker()": "6bcb411a",
    "setGov(address)": "cfad57a2",
    "stakeTransferrer()": "17e46431",
    "totalXpEarned(address)": "c80debd6",
    "unlockLiquidity(uint256)": "96e83924",
    "updateXpPerSecond(uint256)": "242c581b",
    "userPositionIds(address,uint256)": "7b6eb9b6",
    "weth()": "3fc8cef3",
    "xpPerSecond()": "360113b9"
  },
  "id": 82
}