{
  "abi": [
    {
      "inputs": [
        {
          "internalType": "address",
          "name": "_rewardTracker",
          "type": "address"
        },
        {
          "internalType": "address",
          "name": "_transferStakedBrrr",
          "type": "address"
        },
        {
          "internalType": "address",
          "name": "_weth",
          "type": "address"
        }
      ],
      "stateMutability": "nonpayable",
      "type": "constructor"
    },
    {
      "inputs": [],
      "name": "BrrrXpAmplifier_DurationNotFinished",
      "type": "error"
    },
    {
      "inputs": [],
      "name": "BrrrXpAmplifier_DurationPastSeasonEnd",
      "type": "error"
    },
    {
      "inputs": [],
      "name": "BrrrXpAmplifier_EmptyPosition",
      "type": "error"
    },
    {
      "inputs": [],
      "name": "BrrrXpAmplifier_InsufficientFunds",
      "type": "error"
    },
    {
      "inputs": [],
      "name": "BrrrXpAmplifier_InvalidAmount",
      "type": "error"
    },
    {
      "inputs": [],
      "name": "BrrrXpAmplifier_InvalidHandler",
      "type": "error"
    },
    {
      "inputs": [],
      "name": "BrrrXpAmplifier_InvalidTier",
      "type": "error"
    },
    {
      "inputs": [],
      "name": "BrrrXpAmplifier_InvalidUser",
      "type": "error"
    },
    {
      "inputs": [],
      "name": "BrrrXpAmplifier_NoPositions",
      "type": "error"
    },
    {
      "inputs": [],
      "name": "BrrrXpAmplifier_SeasonNotOver",
      "type": "error"
    },
    {
      "inputs": [],
      "name": "ReentrancyGuardReentrantCall",
      "type": "error"
    },
    {
      "anonymous": false,
      "inputs": [
        {
          "indexed": true,
          "internalType": "address",
          "name": "user",
          "type": "address"
        },
        {
          "indexed": false,
          "internalType": "uint256",
          "name": "index",
          "type": "uint256"
        },
        {
          "indexed": true,
          "internalType": "uint256",
          "name": "amount",
          "type": "uint256"
        },
        {
          "indexed": true,
          "internalType": "uint8",
          "name": "tier",
          "type": "uint8"
        }
      ],
      "name": "BrrrXpAmplifier_LiquidityLocked",
      "type": "event"
    },
    {
      "anonymous": false,
      "inputs": [
        {
          "indexed": true,
          "internalType": "address",
          "name": "user",
          "type": "address"
        },
        {
          "indexed": false,
          "internalType": "uint256",
          "name": "index",
          "type": "uint256"
        },
        {
          "indexed": true,
          "internalType": "uint256",
          "name": "amount",
          "type": "uint256"
        },
        {
          "indexed": true,
          "internalType": "uint8",
          "name": "tier",
          "type": "uint8"
        }
      ],
      "name": "BrrrXpAmplifier_LiquidityUnlocked",
      "type": "event"
    },
    {
      "anonymous": false,
      "inputs": [
        {
          "indexed": true,
          "internalType": "address",
          "name": "user",
          "type": "address"
        },
        {
          "indexed": true,
          "internalType": "uint256",
          "name": "tokenAmount",
          "type": "uint256"
        },
        {
          "indexed": true,
          "internalType": "uint256",
          "name": "xpAmount",
          "type": "uint256"
        }
      ],
      "name": "BrrrXpAmplifier_RewardsClaimed",
      "type": "event"
    },
    {
      "inputs": [],
      "name": "PRECISION",
      "outputs": [
        {
          "internalType": "uint256",
          "name": "",
          "type": "uint256"
        }
      ],
      "stateMutability": "view",
      "type": "function"
    },
    {
      "inputs": [],
      "name": "SEASON_END",
      "outputs": [
        {
          "internalType": "uint256",
          "name": "",
          "type": "uint256"
        }
      ],
      "stateMutability": "view",
      "type": "function"
    },
    {
      "inputs": [],
      "name": "TIER1_DURATION",
      "outputs": [
        {
          "internalType": "uint256",
          "name": "",
          "type": "uint256"
        }
      ],
      "stateMutability": "view",
      "type": "function"
    },
    {
      "inputs": [],
      "name": "TIER2_DURATION",
      "outputs": [
        {
          "internalType": "uint256",
          "name": "",
          "type": "uint256"
        }
      ],
      "stateMutability": "view",
      "type": "function"
    },
    {
      "inputs": [],
      "name": "TIER3_DURATION",
      "outputs": [
        {
          "internalType": "uint256",
          "name": "",
          "type": "uint256"
        }
      ],
      "stateMutability": "view",
      "type": "function"
    },
    {
      "inputs": [],
      "name": "TIER4_DURATION",
      "outputs": [
        {
          "internalType": "uint256",
          "name": "",
          "type": "uint256"
        }
      ],
      "stateMutability": "view",
      "type": "function"
    },
    {
      "inputs": [
        {
          "internalType": "address",
          "name": "",
          "type": "address"
        }
      ],
      "name": "averageLockedAmounts",
      "outputs": [
        {
          "internalType": "uint256",
          "name": "",
          "type": "uint256"
        }
      ],
      "stateMutability": "view",
      "type": "function"
    },
    {
      "inputs": [],
      "name": "claimPendingRewards",
      "outputs": [
        {
          "internalType": "uint256",
          "name": "",
          "type": "uint256"
        },
        {
          "internalType": "uint256",
          "name": "",
          "type": "uint256"
        }
      ],
      "stateMutability": "nonpayable",
      "type": "function"
    },
    {
      "inputs": [
        {
          "internalType": "address",
          "name": "_account",
          "type": "address"
        }
      ],
      "name": "claimRewardsForAccount",
      "outputs": [
        {
          "internalType": "uint256",
          "name": "",
          "type": "uint256"
        },
        {
          "internalType": "uint256",
          "name": "",
          "type": "uint256"
        }
      ],
      "stateMutability": "nonpayable",
      "type": "function"
    },
    {
      "inputs": [
        {
          "internalType": "address",
          "name": "",
          "type": "address"
        }
      ],
      "name": "claimableReward",
      "outputs": [
        {
          "internalType": "uint256",
          "name": "",
          "type": "uint256"
        }
      ],
      "stateMutability": "view",
      "type": "function"
    },
    {
      "inputs": [],
      "name": "contractBalance",
      "outputs": [
        {
          "internalType": "uint256",
          "name": "",
          "type": "uint256"
        }
      ],
      "stateMutability": "view",
      "type": "function"
    },
    {
      "inputs": [],
      "name": "cumulativeRewardPerToken",
      "outputs": [
        {
          "internalType": "uint256",
          "name": "",
          "type": "uint256"
        }
      ],
      "stateMutability": "view",
      "type": "function"
    },
    {
      "inputs": [
        {
          "internalType": "address",
          "name": "",
          "type": "address"
        }
      ],
      "name": "cumulativeRewards",
      "outputs": [
        {
          "internalType": "uint256",
          "name": "",
          "type": "uint256"
        }
      ],
      "stateMutability": "view",
      "type": "function"
    },
    {
      "inputs": [
        {
          "internalType": "address",
          "name": "user",
          "type": "address"
        }
      ],
      "name": "getClaimableTokenRewards",
      "outputs": [
        {
          "internalType": "uint256",
          "name": "",
          "type": "uint256"
        }
      ],
      "stateMutability": "view",
      "type": "function"
    },
    {
      "inputs": [
        {
          "internalType": "address",
          "name": "user",
          "type": "address"
        }
      ],
      "name": "getClaimableXpRewards",
      "outputs": [
        {
          "internalType": "uint256",
          "name": "",
          "type": "uint256"
        }
      ],
      "stateMutability": "view",
      "type": "function"
    },
    {
      "inputs": [
        {
          "internalType": "address",
          "name": "user",
          "type": "address"
        },
        {
          "internalType": "uint256",
          "name": "index",
          "type": "uint256"
        }
      ],
      "name": "getRemainingLockDuration",
      "outputs": [
        {
          "internalType": "uint256",
          "name": "",
          "type": "uint256"
        }
      ],
      "stateMutability": "view",
      "type": "function"
    },
    {
      "inputs": [
        {
          "internalType": "address",
          "name": "user",
          "type": "address"
        }
      ],
      "name": "getUserPositionIds",
      "outputs": [
        {
          "internalType": "uint256[]",
          "name": "",
          "type": "uint256[]"
        }
      ],
      "stateMutability": "view",
      "type": "function"
    },
    {
      "inputs": [
        {
          "internalType": "uint8",
          "name": "_tier",
          "type": "uint8"
        },
        {
          "internalType": "address",
          "name": "_user",
          "type": "address"
        }
      ],
      "name": "getUserTotalStakedAmountForTier",
      "outputs": [
        {
          "internalType": "uint256",
          "name": "",
          "type": "uint256"
        }
      ],
      "stateMutability": "view",
      "type": "function"
    },
    {
      "inputs": [
        {
          "internalType": "uint8",
          "name": "_tier",
          "type": "uint8"
        },
        {
          "internalType": "address",
          "name": "_user",
          "type": "address"
        }
      ],
      "name": "getUserTotalXpEarnedForTier",
      "outputs": [
        {
          "internalType": "uint256",
          "name": "",
          "type": "uint256"
        }
      ],
      "stateMutability": "view",
      "type": "function"
    },
    {
      "inputs": [],
      "name": "gov",
      "outputs": [
        {
          "internalType": "address",
          "name": "",
          "type": "address"
        }
      ],
      "stateMutability": "view",
      "type": "function"
    },
    {
      "inputs": [
        {
          "internalType": "address",
          "name": "",
          "type": "address"
        }
      ],
      "name": "isHandler",
      "outputs": [
        {
          "internalType": "bool",
          "name": "",
          "type": "bool"
        }
      ],
      "stateMutability": "view",
      "type": "function"
    },
    {
      "inputs": [
        {
          "internalType": "address",
          "name": "",
          "type": "address"
        }
      ],
      "name": "lastXpUpdate",
      "outputs": [
        {
          "internalType": "uint256",
          "name": "",
          "type": "uint256"
        }
      ],
      "stateMutability": "view",
      "type": "function"
    },
    {
      "inputs": [
        {
          "internalType": "uint8",
          "name": "tier",
          "type": "uint8"
        },
        {
          "internalType": "uint256",
          "name": "amount",
          "type": "uint256"
        }
      ],
      "name": "lockLiquidity",
      "outputs": [],
      "stateMutability": "nonpayable",
      "type": "function"
    },
    {
      "inputs": [
        {
          "internalType": "address",
          "name": "",
          "type": "address"
        }
      ],
      "name": "lockedAmount",
      "outputs": [
        {
          "internalType": "uint256",
          "name": "",
          "type": "uint256"
        }
      ],
      "stateMutability": "view",
      "type": "function"
    },
    {
      "inputs": [],
      "name": "nextPositionId",
      "outputs": [
        {
          "internalType": "uint256",
          "name": "",
          "type": "uint256"
        }
      ],
      "stateMutability": "view",
      "type": "function"
    },
    {
      "inputs": [
        {
          "internalType": "address",
          "name": "",
          "type": "address"
        },
        {
          "internalType": "uint256",
          "name": "",
          "type": "uint256"
        }
      ],
      "name": "positions",
      "outputs": [
        {
          "internalType": "uint256",
          "name": "depositAmount",
          "type": "uint256"
        },
        {
          "internalType": "uint8",
          "name": "tier",
          "type": "uint8"
        },
        {
          "internalType": "uint256",
          "name": "lockedAt",
          "type": "uint256"
        },
        {
          "internalType": "uint256",
          "name": "unlockDate",
          "type": "uint256"
        },
        {
          "internalType": "address",
          "name": "owner",
          "type": "address"
        },
        {
          "internalType": "uint256",
          "name": "multiplier",
          "type": "uint256"
        }
      ],
      "stateMutability": "view",
      "type": "function"
    },
    {
      "inputs": [
        {
          "internalType": "address",
          "name": "",
          "type": "address"
        }
      ],
      "name": "previousCumulativeRewardPerToken",
      "outputs": [
        {
          "internalType": "uint256",
          "name": "",
          "type": "uint256"
        }
      ],
      "stateMutability": "view",
      "type": "function"
    },
    {
      "inputs": [
        {
          "internalType": "address",
          "name": "token",
          "type": "address"
        }
      ],
      "name": "recoverTokens",
      "outputs": [],
      "stateMutability": "nonpayable",
      "type": "function"
    },
    {
      "inputs": [],
      "name": "rewardTracker",
      "outputs": [
        {
          "internalType": "contract RewardTracker",
          "name": "",
          "type": "address"
        }
      ],
      "stateMutability": "view",
      "type": "function"
    },
    {
      "inputs": [
        {
          "internalType": "address",
          "name": "_gov",
          "type": "address"
        }
      ],
      "name": "setGov",
      "outputs": [],
      "stateMutability": "nonpayable",
      "type": "function"
    },
    {
      "inputs": [
        {
          "internalType": "address",
          "name": "_handler",
          "type": "address"
        },
        {
          "internalType": "bool",
          "name": "_isActive",
          "type": "bool"
        }
      ],
      "name": "setHandler",
      "outputs": [],
      "stateMutability": "nonpayable",
      "type": "function"
    },
    {
      "inputs": [],
      "name": "stakeTransferrer",
      "outputs": [
        {
          "internalType": "contract TransferStakedBrrr",
          "name": "",
          "type": "address"
        }
      ],
      "stateMutability": "view",
      "type": "function"
    },
    {
      "inputs": [
        {
          "internalType": "address",
          "name": "",
          "type": "address"
        }
      ],
      "name": "totalXpEarned",
      "outputs": [
        {
          "internalType": "uint256",
          "name": "",
          "type": "uint256"
        }
      ],
      "stateMutability": "view",
      "type": "function"
    },
    {
      "inputs": [],
      "name": "unlockAllPositions",
      "outputs": [],
      "stateMutability": "nonpayable",
      "type": "function"
    },
    {
      "inputs": [
        {
          "internalType": "uint256",
          "name": "index",
          "type": "uint256"
        }
      ],
      "name": "unlockLiquidity",
      "outputs": [],
      "stateMutability": "nonpayable",
      "type": "function"
    },
    {
      "inputs": [
        {
          "internalType": "uint256",
          "name": "val",
          "type": "uint256"
        }
      ],
      "name": "updateXpPerSecond",
      "outputs": [],
      "stateMutability": "nonpayable",
      "type": "function"
    },
    {
      "inputs": [
        {
          "internalType": "address",
          "name": "",
          "type": "address"
        },
        {
          "internalType": "uint256",
          "name": "",
          "type": "uint256"
        }
      ],
      "name": "userPositionIds",
      "outputs": [
        {
          "internalType": "uint256",
          "name": "",
          "type": "uint256"
        }
      ],
      "stateMutability": "view",
      "type": "function"
    },
    {
      "inputs": [],
      "name": "weth",
      "outputs": [
        {
          "internalType": "address",
          "name": "",
          "type": "address"
        }
      ],
      "stateMutability": "view",
      "type": "function"
    },
    {
      "inputs": [],
      "name": "xpPerSecond",
      "outputs": [
        {
          "internalType": "uint256",
          "name": "",
          "type": "uint256"
        }
      ],
      "stateMutability": "view",
      "type": "function"
    }
  ],
  "bytecode": {
    "object": "0x60a06040526001600e553480156200001657600080fd5b50604051620021a0380380620021a08339810160408190526200003991620000ba565b600080546001600160a01b03191633179055600180556001600160a01b0383166200006357600080fd5b600280546001600160a01b03199081166001600160a01b039586161790915560038054909116928416929092179091551660805262000104565b80516001600160a01b0381168114620000b557600080fd5b919050565b600080600060608486031215620000d057600080fd5b620000db846200009d565b9250620000eb602085016200009d565b9150620000fb604085016200009d565b90509250925092565b60805161206b620001356000396000818161034b01528181610b2601528181611a910152611b32015261206b6000f3fe608060405234801561001057600080fd5b506004361061023d5760003560e01c806392bd7b2c1161013b578063c80debd6116100b8578063e95034251161007c578063e9503425146105b5578063ed94b7b5146105d5578063eddf7570146105df578063f5fc5076146105ff578063fb44ecd51461060857600080fd5b8063c80debd614610551578063cfad57a214610571578063d7261cc014610584578063dd96117514610597578063e6b13a13146105a257600080fd5b8063a562021c116100ff578063a562021c14610457578063aaf5eb6814610477578063b54754601461048b578063c1be66771461049e578063c3fa7cd41461053157600080fd5b806392bd7b2c1461040157806396e83924146104095780639cb7de4b1461041c5780639f764bad1461042f578063a153e7081461043757600080fd5b80633792def3116101c957806370d7b0a11161018d57806370d7b0a1146103b357806372f1433c146103d35780637b6eb9b6146103dc578063899346c7146103ef5780638b7afe2e146103f857600080fd5b80633792def31461031c57806337c4c6a21461033c5780633fc8cef31461034657806346ea87af1461036d5780636bcb411a146103a057600080fd5b806316114acd1161021057806316114acd146102b257806317e46431146102c55780631928dabf146102d8578063242c581b14610300578063360113b91461031357600080fd5b806301c467d51461024257806302650b391461025757806312230a991461027d57806312d43a5114610287575b600080fd5b610255610250366004611dbf565b61061b565b005b61026a610265366004611e00565b610918565b6040519081526020015b60405180910390f35b61026a6276a70081565b60005461029a906001600160a01b031681565b6040516001600160a01b039091168152602001610274565b6102556102c0366004611e33565b610af1565b60035461029a906001600160a01b031681565b6102eb6102e6366004611e33565b610c90565b60408051928352602083019190915201610274565b61025561030e366004611e55565b610cbe565b61026a600e5481565b61026a61032a366004611e33565b600b6020526000908152604090205481565b61026a62ed4e0081565b61029a7f000000000000000000000000000000000000000000000000000000000000000081565b61039061037b366004611e33565b600d6020526000908152604090205460ff1681565b6040519015158152602001610274565b60025461029a906001600160a01b031681565b61026a6103c1366004611e33565b60086020526000908152604090205481565b61026a610e1081565b61026a6103ea366004611e6e565b610d0e565b61026a600f5481565b61026a60115481565b6102eb610d3f565b610255610417366004611e55565b610d64565b61025561042a366004611e9b565b6110ee565b610255611143565b61026a610445366004611e33565b60066020526000908152604090205481565b61026a610465366004611e33565b600a6020526000908152604090205481565b61026a6c7e37be2022c0914b268000000081565b61026a610499366004611e6e565b611246565b6104f96104ac366004611e6e565b60046020818152600093845260408085209091529183529120805460018201546002830154600384015494840154600590940154929460ff9092169390926001600160a01b039091169086565b6040805196875260ff90951660208701529385019290925260608401526001600160a01b0316608083015260a082015260c001610274565b61026a61053f366004611e33565b600c6020526000908152604090205481565b61026a61055f366004611e33565b60076020526000908152604090205481565b61025561057f366004611e33565b6112df565b61026a610592366004611e33565b611381565b61026a63665b0d4081565b61026a6105b0366004611e00565b6114da565b61026a6105c3366004611e33565b60096020526000908152604090205481565b61026a62278d0081565b6105f26105ed366004611e33565b61161e565b6040516102749190611ed2565b61026a60105481565b61026a610616366004611e33565b61168a565b60038260ff16111561064057604051637d35ec0360e01b815260040160405180910390fd5b8060000361066157604051632718339960e21b815260040160405180910390fd5b6002546040516370a0823160e01b815233600482015282916001600160a01b0316906370a0823190602401602060405180830381865afa1580156106a9573d6000803e3d6000fd5b505050506040513d601f19601f820116820180604052508101906106cd9190611f16565b10156106ec576040516358627c2560e11b815260040160405180910390fd5b60006106f783611695565b905063665b0d406107088242611f45565b11156107275760405163f0d47d1360e01b815260040160405180910390fd5b6003546040516323b872dd60e01b8152336004820152306024820152604481018490526001600160a01b03909116906323b872dd906064016020604051808303816000875af115801561077e573d6000803e3d6000fd5b505050506040513d601f19601f820116820180604052508101906107a29190611f58565b506107ac336116e4565b50600f546107bb816001611f45565b600f8190555060006040518060c001604052808581526020018660ff16815260200142815260200184426107ef9190611f45565b8152336020820152604001610803876119a3565b9052336000818152600460208181526040808420888552825280842086518155868301516001808301805460ff191660ff9093169290921790915587830151600283015560608801516003830155608088015194820180546001600160a01b0319166001600160a01b039096169590951790945560a08701516005918201558585528252808420805493840181558452818420909201879055928252600690925220549091506108b4908590611f45565b336000908152600660205260409020556011546108d2908590611f45565b60115560405182815260ff861690859033907f29a67dfca21277c516f415417513c9d66c30bb59fb776c7e99796350edbe41a59060200160405180910390a45050505050565b6001600160a01b038116600090815260056020908152604080832080548251818502810185019093528083528493849392919083018282801561097a57602002820191906000526020600020905b815481526020019060010190808311610966575b50505050509050600063665b0d4042106109bc576001600160a01b0385166000908152600c60205260409020546109b59063665b0d40611f75565b90506109e2565b6001600160a01b0385166000908152600c60205260409020546109df9042611f75565b90505b60005b8251811015610ad9576001600160a01b038616600090815260046020526040812084518290869085908110610a1c57610a1c611f88565b6020908102919091018101518252818101929092526040908101600020815160c08101835281548152600182015460ff9081169482018590526002830154938201939093526003820154606082015260048201546001600160a01b0316608082015260059091015460a0820152925089169003610ac857600e54610aa09084611f9e565b60a08201518251610ab19190611f9e565b610abb9190611f9e565b610ac59086611f45565b94505b50610ad281611fb5565b90506109e5565b50610ae5606484611fce565b93505050505b92915050565b6000546001600160a01b03163314610b245760405162461bcd60e51b8152600401610b1b90611ff0565b60405180910390fd5b7f00000000000000000000000000000000000000000000000000000000000000006001600160a01b0316816001600160a01b0316148015610b68575063665b0d4042105b80610b8e57506002546001600160a01b038281169116148015610b8e575063665b0d4042105b15610bab57604051621110f560e81b815260040160405180910390fd5b6040516370a0823160e01b81523060048201526001600160a01b0382169063a9059cbb90339083906370a0823190602401602060405180830381865afa158015610bf9573d6000803e3d6000fd5b505050506040513d601f19601f82011682018060405250810190610c1d9190611f16565b6040516001600160e01b031960e085901b1681526001600160a01b03909216600483015260248201526044016020604051808303816000875af1158015610c68573d6000803e3d6000fd5b505050506040513d601f19601f82011682018060405250810190610c8c9190611f58565b5050565b600080610c9b6119e6565b610ca3611a10565b610cac83611a42565b91509150610cb960018055565b915091565b6000546001600160a01b03163314610ce85760405162461bcd60e51b8152600401610b1b90611ff0565b80600003610d0957604051632718339960e21b815260040160405180910390fd5b600e55565b60056020528160005260406000208181548110610d2a57600080fd5b90600052602060002001600091509150505481565b600080610d4a6119e6565b610d5333611a42565b91509150610d6060018055565b9091565b3360009081526004602081815260408084208585528252808420815160c0810183528154808252600183015460ff169482019490945260028201549281019290925260038101546060830152928301546001600160a01b0316608082015260059092015460a0830152909103610ded576040516331add00b60e21b815260040160405180910390fd5b4281606001511115610e12576040516302aadb2b60e21b815260040160405180910390fd5b80516002546040516370a0823160e01b81523060048201526001600160a01b03909116906370a0823190602401602060405180830381865afa158015610e5c573d6000803e3d6000fd5b505050506040513d601f19601f82011682018060405250810190610e809190611f16565b1015610e9f576040516358627c2560e11b815260040160405180910390fd5b60808101516001600160a01b03163314610ecc5760405163404af06360e01b815260040160405180910390fd5b610ed5336116e4565b50805133600090815260066020526040902054610ef29190611f75565b336000908152600660205260409020558051601154610f119190611f75565b601155336000818152600460208181526040808420878552825280842084815560018101805460ff19169055600281018590556003810185905592830180546001600160a01b0319169055600592830184905593835252908120905b815481101561101f5783828281548110610f8957610f89611f88565b90600052602060002001540361100f5781548290610fa990600190611f75565b81548110610fb957610fb9611f88565b9060005260206000200154828281548110610fd657610fd6611f88565b906000526020600020018190555081805480610ff457610ff461201f565b6001900381819060005260206000200160009055905561101f565b61101881611fb5565b9050610f6d565b50600354825160405163a9059cbb60e01b815233600482015260248101919091526001600160a01b039091169063a9059cbb906044016020604051808303816000875af1158015611074573d6000803e3d6000fd5b505050506040513d601f19601f820116820180604052508101906110989190611f58565b50816020015160ff168260000151336001600160a01b03167f269e592490c278b2d64fd4f22306b240d812aaa1c020aef26ec7b6e66accb415866040516110e191815260200190565b60405180910390a4505050565b6000546001600160a01b031633146111185760405162461bcd60e51b8152600401610b1b90611ff0565b6001600160a01b03919091166000908152600d60205260409020805460ff1916911515919091179055565b3360009081526005602090815260408083208054825181850281018501909352808352919290919083018282801561119a57602002820191906000526020600020905b815481526020019060010190808311611186575b5050505050905080516000036111c35760405163a10b9a5b60e01b815260040160405180910390fd5b60005b8151811015610c8c5733600090815260046020526040812083514292908590859081106111f5576111f5611f88565b6020026020010151815260200190815260200160002060030154116112365761123682828151811061122957611229611f88565b6020026020010151610d64565b61123f81611fb5565b90506111c6565b6001600160a01b0380831660009081526004602081815260408084208685528252808420815160c08101835281548152600182015460ff169381019390935260028101549183019190915260038101546060830181905292810154909416608082015260059093015460a084015290919042106112c7576000915050610aeb565b4281606001516112d79190611f75565b915050610aeb565b6000546001600160a01b031633146113095760405162461bcd60e51b8152600401610b1b90611ff0565b6001600160a01b03811661135f5760405162461bcd60e51b815260206004820181905260248201527f476f7665726e61626c653a205f676f76206973207a65726f20616464726573736044820152606401610b1b565b600080546001600160a01b0319166001600160a01b0392909216919091179055565b6001600160a01b0381166000908152600660205260408120548082036113be5750506001600160a01b031660009081526009602052604090205490565b60115460025460405163402914f560e01b81523060048201526000916c7e37be2022c0914b2680000000916001600160a01b039091169063402914f590602401602060405180830381865afa15801561141b573d6000803e3d6000fd5b505050506040513d601f19601f8201168201806040525081019061143f9190611f16565b6114499190611f9e565b905060006114578383611fce565b6010546114649190611f45565b6001600160a01b0387166000908152600a60205260409020549091506c7e37be2022c0914b2680000000906114999083611f75565b6114a39086611f9e565b6114ad9190611fce565b6001600160a01b0387166000908152600960205260409020546114d09190611f45565b9695505050505050565b6001600160a01b038116600090815260056020908152604080832080548251818502810185019093528083528493849392919083018282801561153c57602002820191906000526020600020905b815481526020019060010190808311611528575b5050505050905060005b8151811015611614576001600160a01b03851660009081526004602052604081208351829085908590811061157d5761157d611f88565b6020908102919091018101518252818101929092526040908101600020815160c08101835281548152600182015460ff9081169482018590526002830154938201939093526003820154606082015260048201546001600160a01b0316608082015260059091015460a08201529250881690036116035780516116009085611f45565b93505b5061160d81611fb5565b9050611546565b5090949350505050565b6001600160a01b03811660009081526005602090815260409182902080548351818402810184019094528084526060939283018282801561167e57602002820191906000526020600020905b81548152602001906001019080831161166a575b50505050509050919050565b6000610aeb82611be2565b60008160ff166000036116ab5750610e10919050565b8160ff166001036116c0575062278d00919050565b8160ff166002036116d557506276a700919050565b5062ed4e00919050565b919050565b600254604051630f41a04d60e11b815230600482015260009182916001600160a01b0390911690631e83409a906024016020604051808303816000875af1158015611733573d6000803e3d6000fd5b505050506040513d601f19601f820116820180604052508101906117579190611f16565b6011546010549192509081158015906117705750600083115b156117a9578161178d6c7e37be2022c0914b268000000085611f9e565b6117979190611fce565b6117a19082611f45565b601081905590505b6001600160a01b03851615611998576001600160a01b038516600090815260066020908152604080832054600a9092528220549091906c7e37be2022c0914b2680000000906117f89085611f75565b6118029084611f9e565b61180c9190611fce565b6001600160a01b03881660009081526009602052604081205491925090611834908390611f45565b6001600160a01b0389166000908152600960209081526040808320849055600a90915290208590559050801580159061188457506001600160a01b03881660009081526006602052604090205415155b1561192e576001600160a01b0388166000908152600b60205260408120546118ad908490611f45565b9050806118ba8486611f9e565b6118c49190611fce565b6001600160a01b038a166000908152600b602090815260408083205460089092529091205483916118f491611f9e565b6118fe9190611fce565b6119089190611f45565b6001600160a01b038a16600090815260086020908152604080832093909355600b905220555b600061193989611be2565b9050801561198c576001600160a01b0389166000908152600c602090815260408083204290556007909152902054611972908290611f45565b6001600160a01b038a166000908152600760205260409020555b98975050505050505050565b506000949350505050565b60008160ff166000036119b857506064919050565b8160ff166001036119cb5750607d919050565b8160ff166002036119de57506096919050565b5060c8919050565b600260015403611a0957604051633ee5aeb560e01b815260040160405180910390fd5b6002600155565b336000908152600d602052604090205460ff16611a4057604051630f0f1e6360e41b815260040160405180910390fd5b565b6000806000611a50846116e4565b6001600160a01b038516600090815260096020526040812080549190559091508015801590611b0757506040516370a0823160e01b815230600482015281907f00000000000000000000000000000000000000000000000000000000000000006001600160a01b0316906370a0823190602401602060405180830381865afa158015611ae0573d6000803e3d6000fd5b505050506040513d601f19601f82011682018060405250810190611b049190611f16565b10155b15611ba15760405163a9059cbb60e01b81526001600160a01b038681166004830152602482018390527f0000000000000000000000000000000000000000000000000000000000000000169063a9059cbb906044016020604051808303816000875af1158015611b7b573d6000803e3d6000fd5b505050506040513d601f19601f82011682018060405250810190611b9f9190611f58565b505b8181866001600160a01b03167fc8d14814bf76200767bd2164dcf808b4857d4fc276bf064ba3cb26440d59dedb60405160405180910390a494909350915050565b6001600160a01b0381166000908152600560209081526040808320805482518185028101850190935280835284938493929190830182828015611c4457602002820191906000526020600020905b815481526020019060010190808311611c30575b50505050509050600063665b0d404210611c86576001600160a01b0385166000908152600c6020526040902054611c7f9063665b0d40611f75565b9050611cac565b6001600160a01b0385166000908152600c6020526040902054611ca99042611f75565b90505b60005b8251811015611d99576001600160a01b038616600090815260046020526040812084518290869085908110611ce657611ce6611f88565b6020908102919091018101518252818101929092526040908101600020815160c08101835281548152600182015460ff16938101939093526002810154918301919091526003810154606083015260048101546001600160a01b031660808301526005015460a0820152600e54909150611d609084611f9e565b60a08201518251611d719190611f9e565b611d7b9190611f9e565b611d859086611f45565b94505080611d9290611fb5565b9050611caf565b50611da5606484611fce565b95945050505050565b803560ff811681146116df57600080fd5b60008060408385031215611dd257600080fd5b611ddb83611dae565b946020939093013593505050565b80356001600160a01b03811681146116df57600080fd5b60008060408385031215611e1357600080fd5b611e1c83611dae565b9150611e2a60208401611de9565b90509250929050565b600060208284031215611e4557600080fd5b611e4e82611de9565b9392505050565b600060208284031215611e6757600080fd5b5035919050565b60008060408385031215611e8157600080fd5b611ddb83611de9565b8015158114611e9857600080fd5b50565b60008060408385031215611eae57600080fd5b611eb783611de9565b91506020830135611ec781611e8a565b809150509250929050565b6020808252825182820181905260009190848201906040850190845b81811015611f0a57835183529284019291840191600101611eee565b50909695505050505050565b600060208284031215611f2857600080fd5b5051919050565b634e487b7160e01b600052601160045260246000fd5b80820180821115610aeb57610aeb611f2f565b600060208284031215611f6a57600080fd5b8151611e4e81611e8a565b81810381811115610aeb57610aeb611f2f565b634e487b7160e01b600052603260045260246000fd5b8082028115828204841417610aeb57610aeb611f2f565b600060018201611fc757611fc7611f2f565b5060010190565b600082611feb57634e487b7160e01b600052601260045260246000fd5b500490565b60208082526015908201527423b7bb32b93730b136329d103337b93134b23232b760591b604082015260600190565b634e487b7160e01b600052603160045260246000fdfea2646970667358221220f42c77b6306e12f90a307fb2145688998c1a1df43c0de4573fb41529a3d00e4a64736f6c63430008120033",
    "linkReferences": {}
  },
  "methodIdentifiers": {
    "PRECISION()": "aaf5eb68",
    "SEASON_END()": "dd961175",
    "TIER1_DURATION()": "72f1433c",
    "TIER2_DURATION()": "ed94b7b5",
    "TIER3_DURATION()": "12230a99",
    "TIER4_DURATION()": "37c4c6a2",
    "averageLockedAmounts(address)": "70d7b0a1",
    "claimPendingRewards()": "92bd7b2c",
    "claimRewardsForAccount(address)": "1928dabf",
    "claimableReward(address)": "e9503425",
    "contractBalance()": "8b7afe2e",
    "cumulativeRewardPerToken()": "f5fc5076",
    "cumulativeRewards(address)": "3792def3",
    "getClaimableTokenRewards(address)": "d7261cc0",
    "getClaimableXpRewards(address)": "fb44ecd5",
    "getRemainingLockDuration(address,uint256)": "b5475460",
    "getUserPositionIds(address)": "eddf7570",
    "getUserTotalStakedAmountForTier(uint8,address)": "e6b13a13",
    "getUserTotalXpEarnedForTier(uint8,address)": "02650b39",
    "gov()": "12d43a51",
    "isHandler(address)": "46ea87af",
    "lastXpUpdate(address)": "c3fa7cd4",
    "lockLiquidity(uint8,uint256)": "01c467d5",
    "lockedAmount(address)": "a153e708",
    "nextPositionId()": "899346c7",
    "positions(address,uint256)": "c1be6677",
    "previousCumulativeRewardPerToken(address)": "a562021c",
    "recoverTokens(address)": "16114acd",
    "rewardTracker()": "6bcb411a",
    "setGov(address)": "cfad57a2",
    "setHandler(address,bool)": "9cb7de4b",
    "stakeTransferrer()": "17e46431",
    "totalXpEarned(address)": "c80debd6",
    "unlockAllPositions()": "9f764bad",
    "unlockLiquidity(uint256)": "96e83924",
    "updateXpPerSecond(uint256)": "242c581b",
    "userPositionIds(address,uint256)": "7b6eb9b6",
    "weth()": "3fc8cef3",
    "xpPerSecond()": "360113b9"
  },
  "id": 82
}