{"abi":[{"type":"constructor","inputs":[{"name":"_rewardTracker","type":"address","internalType":"address"},{"name":"_transferStakedBrrr","type":"address","internalType":"address"},{"name":"_weth","type":"address","internalType":"address"}],"stateMutability":"nonpayable"},{"type":"function","name":"MIN_SEASON_END","inputs":[],"outputs":[{"name":"","type":"uint256","internalType":"uint256"}],"stateMutability":"view"},{"type":"function","name":"PRECISION","inputs":[],"outputs":[{"name":"","type":"uint256","internalType":"uint256"}],"stateMutability":"view"},{"type":"function","name":"TIER1_DURATION","inputs":[],"outputs":[{"name":"","type":"uint256","internalType":"uint256"}],"stateMutability":"view"},{"type":"function","name":"TIER2_DURATION","inputs":[],"outputs":[{"name":"","type":"uint256","internalType":"uint256"}],"stateMutability":"view"},{"type":"function","name":"TIER3_DURATION","inputs":[],"outputs":[{"name":"","type":"uint256","internalType":"uint256"}],"stateMutability":"view"},{"type":"function","name":"TIER4_DURATION","inputs":[],"outputs":[{"name":"","type":"uint256","internalType":"uint256"}],"stateMutability":"view"},{"type":"function","name":"XP_PER_SECOND","inputs":[],"outputs":[{"name":"","type":"uint256","internalType":"uint256"}],"stateMutability":"view"},{"type":"function","name":"averageLockedAmounts","inputs":[{"name":"","type":"address","internalType":"address"}],"outputs":[{"name":"","type":"uint256","internalType":"uint256"}],"stateMutability":"view"},{"type":"function","name":"claimPendingRewards","inputs":[],"outputs":[{"name":"","type":"uint256","internalType":"uint256"},{"name":"","type":"uint256","internalType":"uint256"}],"stateMutability":"nonpayable"},{"type":"function","name":"claimRewardsForAccount","inputs":[{"name":"_account","type":"address","internalType":"address"}],"outputs":[{"name":"","type":"uint256","internalType":"uint256"},{"name":"","type":"uint256","internalType":"uint256"}],"stateMutability":"nonpayable"},{"type":"function","name":"claimableReward","inputs":[{"name":"","type":"address","internalType":"address"}],"outputs":[{"name":"","type":"uint256","internalType":"uint256"}],"stateMutability":"view"},{"type":"function","name":"contractBalance","inputs":[],"outputs":[{"name":"","type":"uint256","internalType":"uint256"}],"stateMutability":"view"},{"type":"function","name":"cumulativeRewardPerToken","inputs":[],"outputs":[{"name":"","type":"uint256","internalType":"uint256"}],"stateMutability":"view"},{"type":"function","name":"cumulativeRewards","inputs":[{"name":"","type":"address","internalType":"address"}],"outputs":[{"name":"","type":"uint256","internalType":"uint256"}],"stateMutability":"view"},{"type":"function","name":"getClaimableTokenRewards","inputs":[{"name":"user","type":"address","internalType":"address"}],"outputs":[{"name":"","type":"uint256","internalType":"uint256"}],"stateMutability":"view"},{"type":"function","name":"getClaimableXpRewards","inputs":[{"name":"user","type":"address","internalType":"address"}],"outputs":[{"name":"","type":"uint256","internalType":"uint256"}],"stateMutability":"view"},{"type":"function","name":"getRemainingLockDuration","inputs":[{"name":"user","type":"address","internalType":"address"},{"name":"index","type":"uint256","internalType":"uint256"}],"outputs":[{"name":"","type":"uint256","internalType":"uint256"}],"stateMutability":"view"},{"type":"function","name":"getUserPositionIds","inputs":[{"name":"user","type":"address","internalType":"address"}],"outputs":[{"name":"","type":"uint256[]","internalType":"uint256[]"}],"stateMutability":"view"},{"type":"function","name":"getUserTotalStakedAmountForTier","inputs":[{"name":"_tier","type":"uint8","internalType":"uint8"},{"name":"_user","type":"address","internalType":"address"}],"outputs":[{"name":"","type":"uint256","internalType":"uint256"}],"stateMutability":"view"},{"type":"function","name":"getUserTotalXpEarnedForTier","inputs":[{"name":"_tier","type":"uint8","internalType":"uint8"},{"name":"_user","type":"address","internalType":"address"}],"outputs":[{"name":"","type":"uint256","internalType":"uint256"}],"stateMutability":"view"},{"type":"function","name":"gov","inputs":[],"outputs":[{"name":"","type":"address","internalType":"address"}],"stateMutability":"view"},{"type":"function","name":"isHandler","inputs":[{"name":"","type":"address","internalType":"address"}],"outputs":[{"name":"","type":"bool","internalType":"bool"}],"stateMutability":"view"},{"type":"function","name":"lastXpUpdate","inputs":[{"name":"","type":"address","internalType":"address"}],"outputs":[{"name":"","type":"uint256","internalType":"uint256"}],"stateMutability":"view"},{"type":"function","name":"lockLiquidity","inputs":[{"name":"tier","type":"uint8","internalType":"uint8"},{"name":"amount","type":"uint256","internalType":"uint256"}],"outputs":[],"stateMutability":"nonpayable"},{"type":"function","name":"lockedAmount","inputs":[{"name":"","type":"address","internalType":"address"}],"outputs":[{"name":"","type":"uint256","internalType":"uint256"}],"stateMutability":"view"},{"type":"function","name":"nextPositionId","inputs":[],"outputs":[{"name":"","type":"uint256","internalType":"uint256"}],"stateMutability":"view"},{"type":"function","name":"positions","inputs":[{"name":"","type":"address","internalType":"address"},{"name":"","type":"uint256","internalType":"uint256"}],"outputs":[{"name":"depositAmount","type":"uint256","internalType":"uint256"},{"name":"tier","type":"uint8","internalType":"uint8"},{"name":"lockedAt","type":"uint256","internalType":"uint256"},{"name":"unlockDate","type":"uint256","internalType":"uint256"},{"name":"owner","type":"address","internalType":"address"},{"name":"multiplier","type":"uint256","internalType":"uint256"}],"stateMutability":"view"},{"type":"function","name":"previousCumulativeRewardPerToken","inputs":[{"name":"","type":"address","internalType":"address"}],"outputs":[{"name":"","type":"uint256","internalType":"uint256"}],"stateMutability":"view"},{"type":"function","name":"recoverTokens","inputs":[{"name":"token","type":"address","internalType":"address"}],"outputs":[],"stateMutability":"nonpayable"},{"type":"function","name":"rewardTracker","inputs":[],"outputs":[{"name":"","type":"address","internalType":"contract RewardTracker"}],"stateMutability":"view"},{"type":"function","name":"seasonEnd","inputs":[],"outputs":[{"name":"","type":"uint256","internalType":"uint256"}],"stateMutability":"view"},{"type":"function","name":"setGov","inputs":[{"name":"_gov","type":"address","internalType":"address"}],"outputs":[],"stateMutability":"nonpayable"},{"type":"function","name":"setHandler","inputs":[{"name":"_handler","type":"address","internalType":"address"},{"name":"_isActive","type":"bool","internalType":"bool"}],"outputs":[],"stateMutability":"nonpayable"},{"type":"function","name":"stakeTransferrer","inputs":[],"outputs":[{"name":"","type":"address","internalType":"contract TransferStakedBrrr"}],"stateMutability":"view"},{"type":"function","name":"totalXpEarned","inputs":[{"name":"","type":"address","internalType":"address"}],"outputs":[{"name":"","type":"uint256","internalType":"uint256"}],"stateMutability":"view"},{"type":"function","name":"unlockAllPositions","inputs":[],"outputs":[],"stateMutability":"nonpayable"},{"type":"function","name":"unlockLiquidity","inputs":[{"name":"index","type":"uint256","internalType":"uint256"}],"outputs":[],"stateMutability":"nonpayable"},{"type":"function","name":"updateSeasonEnd","inputs":[{"name":"_newSeasonEnd","type":"uint256","internalType":"uint256"}],"outputs":[],"stateMutability":"nonpayable"},{"type":"function","name":"userPositionIds","inputs":[{"name":"","type":"address","internalType":"address"},{"name":"","type":"uint256","internalType":"uint256"}],"outputs":[{"name":"","type":"uint256","internalType":"uint256"}],"stateMutability":"view"},{"type":"function","name":"weth","inputs":[],"outputs":[{"name":"","type":"address","internalType":"address"}],"stateMutability":"view"},{"type":"event","name":"BrrrXpAmplifier_LiquidityLocked","inputs":[{"name":"user","type":"address","indexed":true,"internalType":"address"},{"name":"index","type":"uint256","indexed":false,"internalType":"uint256"},{"name":"amount","type":"uint256","indexed":true,"internalType":"uint256"},{"name":"tier","type":"uint8","indexed":true,"internalType":"uint8"}],"anonymous":false},{"type":"event","name":"BrrrXpAmplifier_LiquidityUnlocked","inputs":[{"name":"user","type":"address","indexed":true,"internalType":"address"},{"name":"index","type":"uint256","indexed":false,"internalType":"uint256"},{"name":"amount","type":"uint256","indexed":true,"internalType":"uint256"},{"name":"tier","type":"uint8","indexed":true,"internalType":"uint8"}],"anonymous":false},{"type":"event","name":"BrrrXpAmplifier_RewardsClaimed","inputs":[{"name":"user","type":"address","indexed":true,"internalType":"address"},{"name":"tokenAmount","type":"uint256","indexed":true,"internalType":"uint256"},{"name":"xpAmount","type":"uint256","indexed":true,"internalType":"uint256"}],"anonymous":false},{"type":"error","name":"BrrrXpAmplifier_DurationNotFinished","inputs":[]},{"type":"error","name":"BrrrXpAmplifier_DurationPastSeasonEnd","inputs":[]},{"type":"error","name":"BrrrXpAmplifier_EmptyPosition","inputs":[]},{"type":"error","name":"BrrrXpAmplifier_InsufficientFunds","inputs":[]},{"type":"error","name":"BrrrXpAmplifier_InvalidAmount","inputs":[]},{"type":"error","name":"BrrrXpAmplifier_InvalidHandler","inputs":[]},{"type":"error","name":"BrrrXpAmplifier_InvalidSeasonEnd","inputs":[]},{"type":"error","name":"BrrrXpAmplifier_InvalidTier","inputs":[]},{"type":"error","name":"BrrrXpAmplifier_InvalidUser","inputs":[]},{"type":"error","name":"BrrrXpAmplifier_NoPositions","inputs":[]},{"type":"error","name":"BrrrXpAmplifier_SeasonNotOver","inputs":[]},{"type":"error","name":"ReentrancyGuardReentrantCall","inputs":[]}],"bytecode":{"object":"0x60a06040526366aad000600f553480156200001957600080fd5b50604051620021c2380380620021c28339810160408190526200003c91620000bd565b600080546001600160a01b03191633179055600180556001600160a01b0383166200006657600080fd5b600280546001600160a01b03199081166001600160a01b039586161790915560038054909116928416929092179091551660805262000107565b80516001600160a01b0381168114620000b857600080fd5b919050565b600080600060608486031215620000d357600080fd5b620000de84620000a0565b9250620000ee60208501620000a0565b9150620000fe60408501620000a0565b90509250925092565b60805161208a620001386000396000818161033a01528181610b3301528181611ab60152611b57015261208a6000f3fe608060405234801561001057600080fd5b50600436106102485760003560e01c80639cb7de4b1161013b578063cfad57a2116100b8578063ed94b7b51161007c578063ed94b7b5146105e0578063eddf7570146105ea578063ee709c921461060a578063f5fc507614610612578063fb44ecd51461061b57600080fd5b8063cfad57a21461057e578063d7261cc014610591578063e6b13a13146105a4578063e757b20d146105b7578063e9503425146105c057600080fd5b8063b4688e52116100ff578063b4688e521461048d578063b547546014610498578063c1be6677146104ab578063c3fa7cd41461053e578063c80debd61461055e57600080fd5b80639cb7de4b1461041e5780639f764bad14610431578063a153e70814610439578063a562021c14610459578063aaf5eb681461047957600080fd5b806346ea87af116101c95780637bf8c5e81161018d5780637bf8c5e8146103de578063899346c7146103f15780638b7afe2e146103fa57806392bd7b2c1461040357806396e839241461040b57600080fd5b806346ea87af1461035c5780636bcb411a1461038f57806370d7b0a1146103a257806372f1433c146103c25780637b6eb9b6146103cb57600080fd5b806317e464311161021057806317e46431146102d05780631928dabf146102e35780633792def31461030b57806337c4c6a21461032b5780633fc8cef31461033557600080fd5b806301c467d51461024d57806302650b391461026257806312230a991461028857806312d43a511461029257806316114acd146102bd575b600080fd5b61026061025b366004611dde565b61062e565b005b610275610270366004611e1f565b61092a565b6040519081526020015b60405180910390f35b6102756276a70081565b6000546102a5906001600160a01b031681565b6040516001600160a01b03909116815260200161027f565b6102606102cb366004611e52565b610afe565b6003546102a5906001600160a01b031681565b6102f66102f1366004611e52565b610c99565b6040805192835260208301919091520161027f565b610275610319366004611e52565b600b6020526000908152604090205481565b61027562ed4e0081565b6102a57f000000000000000000000000000000000000000000000000000000000000000081565b61037f61036a366004611e52565b600d6020526000908152604090205460ff1681565b604051901515815260200161027f565b6002546102a5906001600160a01b031681565b6102756103b0366004611e52565b60086020526000908152604090205481565b610275610e1081565b6102756103d9366004611e74565b610cc7565b6102606103ec366004611e90565b610cf8565b610275600e5481565b61027560115481565b6102f6610d56565b610260610419366004611e90565b610d7b565b61026061042c366004611eba565b611105565b61026061115a565b610275610447366004611e52565b60066020526000908152604090205481565b610275610467366004611e52565b600a6020526000908152604090205481565b6102756c7e37be2022c0914b268000000081565b610275636681f18081565b6102756104a6366004611e74565b61125d565b6105066104b9366004611e74565b60046020818152600093845260408085209091529183529120805460018201546002830154600384015494840154600590940154929460ff9092169390926001600160a01b039091169086565b6040805196875260ff90951660208701529385019290925260608401526001600160a01b0316608083015260a082015260c00161027f565b61027561054c366004611e52565b600c6020526000908152604090205481565b61027561056c366004611e52565b60076020526000908152604090205481565b61026061058c366004611e52565b6112f6565b61027561059f366004611e52565b611398565b6102756105b2366004611e1f565b6114f1565b610275600f5481565b6102756105ce366004611e52565b60096020526000908152604090205481565b61027562278d0081565b6105fd6105f8366004611e52565b611635565b60405161027f9190611ef1565b610275600181565b61027560105481565b610275610629366004611e52565b6116a1565b60038260ff16111561065357604051637d35ec0360e01b815260040160405180910390fd5b8060000361067457604051632718339960e21b815260040160405180910390fd5b6002546040516370a0823160e01b815233600482015282916001600160a01b0316906370a0823190602401602060405180830381865afa1580156106bc573d6000803e3d6000fd5b505050506040513d601f19601f820116820180604052508101906106e09190611f35565b10156106ff576040516358627c2560e11b815260040160405180910390fd5b600061070a836116ac565b600f5490915061071a8242611f64565b11156107395760405163f0d47d1360e01b815260040160405180910390fd5b6003546040516323b872dd60e01b8152336004820152306024820152604481018490526001600160a01b03909116906323b872dd906064016020604051808303816000875af1158015610790573d6000803e3d6000fd5b505050506040513d601f19601f820116820180604052508101906107b49190611f77565b506107be336116fb565b50600e546107cd816001611f64565b600e8190555060006040518060c001604052808581526020018660ff16815260200142815260200184426108019190611f64565b8152336020820152604001610815876119c8565b9052336000818152600460208181526040808420888552825280842086518155868301516001808301805460ff191660ff9093169290921790915587830151600283015560608801516003830155608088015194820180546001600160a01b0319166001600160a01b039096169590951790945560a08701516005918201558585528252808420805493840181558452818420909201879055928252600690925220549091506108c6908590611f64565b336000908152600660205260409020556011546108e4908590611f64565b60115560405182815260ff861690859033907f29a67dfca21277c516f415417513c9d66c30bb59fb776c7e99796350edbe41a59060200160405180910390a45050505050565b6001600160a01b038116600090815260056020908152604080832080548251818502810185019093528083528493849392919083018282801561098c57602002820191906000526020600020905b815481526020019060010190808311610978575b505050505090506000600f5442106109cb576001600160a01b0385166000908152600c6020526040902054600f546109c49190611f94565b90506109f1565b6001600160a01b0385166000908152600c60205260409020546109ee9042611f94565b90505b60005b8251811015610ae6576001600160a01b038616600090815260046020526040812084518290869085908110610a2b57610a2b611fa7565b6020908102919091018101518252818101929092526040908101600020815160c08101835281548152600182015460ff9081169482018590526002830154938201939093526003820154606082015260048201546001600160a01b0316608082015260059091015460a0820152925089169003610ad557610aad600184611fbd565b60a08201518251610abe9190611fbd565b610ac89190611fbd565b610ad29086611f64565b94505b50610adf81611fd4565b90506109f4565b50610af2606484611fed565b93505050505b92915050565b6000546001600160a01b03163314610b315760405162461bcd60e51b8152600401610b289061200f565b60405180910390fd5b7f00000000000000000000000000000000000000000000000000000000000000006001600160a01b0316816001600160a01b0316148015610b735750600f5442105b80610b9757506002546001600160a01b038281169116148015610b975750600f5442105b15610bb457604051621110f560e81b815260040160405180910390fd5b6040516370a0823160e01b81523060048201526001600160a01b0382169063a9059cbb90339083906370a0823190602401602060405180830381865afa158015610c02573d6000803e3d6000fd5b505050506040513d601f19601f82011682018060405250810190610c269190611f35565b6040516001600160e01b031960e085901b1681526001600160a01b03909216600483015260248201526044016020604051808303816000875af1158015610c71573d6000803e3d6000fd5b505050506040513d601f19601f82011682018060405250810190610c959190611f77565b5050565b600080610ca4611a0b565b610cac611a35565b610cb583611a67565b91509150610cc260018055565b915091565b60056020528160005260406000208181548110610ce357600080fd5b90600052602060002001600091509150505481565b6000546001600160a01b03163314610d225760405162461bcd60e51b8152600401610b289061200f565b42811080610d335750636681f18081105b15610d5157604051634a1a814f60e01b815260040160405180910390fd5b600f55565b600080610d61611a0b565b610d6a33611a67565b91509150610d7760018055565b9091565b3360009081526004602081815260408084208585528252808420815160c0810183528154808252600183015460ff169482019490945260028201549281019290925260038101546060830152928301546001600160a01b0316608082015260059092015460a0830152909103610e04576040516331add00b60e21b815260040160405180910390fd5b4281606001511115610e29576040516302aadb2b60e21b815260040160405180910390fd5b80516002546040516370a0823160e01b81523060048201526001600160a01b03909116906370a0823190602401602060405180830381865afa158015610e73573d6000803e3d6000fd5b505050506040513d601f19601f82011682018060405250810190610e979190611f35565b1015610eb6576040516358627c2560e11b815260040160405180910390fd5b60808101516001600160a01b03163314610ee35760405163404af06360e01b815260040160405180910390fd5b610eec336116fb565b50805133600090815260066020526040902054610f099190611f94565b336000908152600660205260409020558051601154610f289190611f94565b601155336000818152600460208181526040808420878552825280842084815560018101805460ff19169055600281018590556003810185905592830180546001600160a01b0319169055600592830184905593835252908120905b81548110156110365783828281548110610fa057610fa0611fa7565b9060005260206000200154036110265781548290610fc090600190611f94565b81548110610fd057610fd0611fa7565b9060005260206000200154828281548110610fed57610fed611fa7565b90600052602060002001819055508180548061100b5761100b61203e565b60019003818190600052602060002001600090559055611036565b61102f81611fd4565b9050610f84565b50600354825160405163a9059cbb60e01b815233600482015260248101919091526001600160a01b039091169063a9059cbb906044016020604051808303816000875af115801561108b573d6000803e3d6000fd5b505050506040513d601f19601f820116820180604052508101906110af9190611f77565b50816020015160ff168260000151336001600160a01b03167f269e592490c278b2d64fd4f22306b240d812aaa1c020aef26ec7b6e66accb415866040516110f891815260200190565b60405180910390a4505050565b6000546001600160a01b0316331461112f5760405162461bcd60e51b8152600401610b289061200f565b6001600160a01b03919091166000908152600d60205260409020805460ff1916911515919091179055565b336000908152600560209081526040808320805482518185028101850190935280835291929091908301828280156111b157602002820191906000526020600020905b81548152602001906001019080831161119d575b5050505050905080516000036111da5760405163a10b9a5b60e01b815260040160405180910390fd5b60005b8151811015610c9557336000908152600460205260408120835142929085908590811061120c5761120c611fa7565b60200260200101518152602001908152602001600020600301541161124d5761124d82828151811061124057611240611fa7565b6020026020010151610d7b565b61125681611fd4565b90506111dd565b6001600160a01b0380831660009081526004602081815260408084208685528252808420815160c08101835281548152600182015460ff169381019390935260028101549183019190915260038101546060830181905292810154909416608082015260059093015460a084015290919042106112de576000915050610af8565b4281606001516112ee9190611f94565b915050610af8565b6000546001600160a01b031633146113205760405162461bcd60e51b8152600401610b289061200f565b6001600160a01b0381166113765760405162461bcd60e51b815260206004820181905260248201527f476f7665726e61626c653a205f676f76206973207a65726f20616464726573736044820152606401610b28565b600080546001600160a01b0319166001600160a01b0392909216919091179055565b6001600160a01b0381166000908152600660205260408120548082036113d55750506001600160a01b031660009081526009602052604090205490565b60115460025460405163402914f560e01b81523060048201526000916c7e37be2022c0914b2680000000916001600160a01b039091169063402914f590602401602060405180830381865afa158015611432573d6000803e3d6000fd5b505050506040513d601f19601f820116820180604052508101906114569190611f35565b6114609190611fbd565b9050600061146e8383611fed565b60105461147b9190611f64565b6001600160a01b0387166000908152600a60205260409020549091506c7e37be2022c0914b2680000000906114b09083611f94565b6114ba9086611fbd565b6114c49190611fed565b6001600160a01b0387166000908152600960205260409020546114e79190611f64565b9695505050505050565b6001600160a01b038116600090815260056020908152604080832080548251818502810185019093528083528493849392919083018282801561155357602002820191906000526020600020905b81548152602001906001019080831161153f575b5050505050905060005b815181101561162b576001600160a01b03851660009081526004602052604081208351829085908590811061159457611594611fa7565b6020908102919091018101518252818101929092526040908101600020815160c08101835281548152600182015460ff9081169482018590526002830154938201939093526003820154606082015260048201546001600160a01b0316608082015260059091015460a082015292508816900361161a5780516116179085611f64565b93505b5061162481611fd4565b905061155d565b5090949350505050565b6001600160a01b03811660009081526005602090815260409182902080548351818402810184019094528084526060939283018282801561169557602002820191906000526020600020905b815481526020019060010190808311611681575b50505050509050919050565b6000610af882611c07565b60008160ff166000036116c25750610e10919050565b8160ff166001036116d7575062278d00919050565b8160ff166002036116ec57506276a700919050565b5062ed4e00919050565b919050565b600254604051630f41a04d60e11b815230600482015260009182916001600160a01b0390911690631e83409a906024016020604051808303816000875af115801561174a573d6000803e3d6000fd5b505050506040513d601f19601f8201168201806040525081019061176e9190611f35565b6011546010549192509081158015906117875750600083115b156117c057816117a46c7e37be2022c0914b268000000085611fbd565b6117ae9190611fed565b6117b89082611f64565b601081905590505b6001600160a01b038516156119bd576001600160a01b038516600090815260066020908152604080832054600a9092528220549091906c7e37be2022c0914b26800000009061180f9085611f94565b6118199084611fbd565b6118239190611fed565b6001600160a01b0388166000908152600960205260408120549192509061184b908390611f64565b6001600160a01b0389166000908152600960209081526040808320849055600a90915290208590559050801580159061189b57506001600160a01b03881660009081526006602052604090205415155b15611945576001600160a01b0388166000908152600b60205260408120546118c4908490611f64565b9050806118d18486611fbd565b6118db9190611fed565b6001600160a01b038a166000908152600b6020908152604080832054600890925290912054839161190b91611fbd565b6119159190611fed565b61191f9190611f64565b6001600160a01b038a16600090815260086020908152604080832093909355600b905220555b600061195089611c07565b6001600160a01b038a166000908152600c60205260409020429055905080156119b1576001600160a01b038916600090815260076020526040902054611997908290611f64565b6001600160a01b038a166000908152600760205260409020555b98975050505050505050565b506000949350505050565b60008160ff166000036119dd57506064919050565b8160ff166001036119f05750607d919050565b8160ff16600203611a0357506096919050565b5060c8919050565b600260015403611a2e57604051633ee5aeb560e01b815260040160405180910390fd5b6002600155565b336000908152600d602052604090205460ff16611a6557604051630f0f1e6360e41b815260040160405180910390fd5b565b6000806000611a75846116fb565b6001600160a01b038516600090815260096020526040812080549190559091508015801590611b2c57506040516370a0823160e01b815230600482015281907f00000000000000000000000000000000000000000000000000000000000000006001600160a01b0316906370a0823190602401602060405180830381865afa158015611b05573d6000803e3d6000fd5b505050506040513d601f19601f82011682018060405250810190611b299190611f35565b10155b15611bc65760405163a9059cbb60e01b81526001600160a01b038681166004830152602482018390527f0000000000000000000000000000000000000000000000000000000000000000169063a9059cbb906044016020604051808303816000875af1158015611ba0573d6000803e3d6000fd5b505050506040513d601f19601f82011682018060405250810190611bc49190611f77565b505b8181866001600160a01b03167fc8d14814bf76200767bd2164dcf808b4857d4fc276bf064ba3cb26440d59dedb60405160405180910390a494909350915050565b6001600160a01b0381166000908152600560209081526040808320805482518185028101850190935280835284938493929190830182828015611c6957602002820191906000526020600020905b815481526020019060010190808311611c55575b505050505090506000600f544210611ca8576001600160a01b0385166000908152600c6020526040902054600f54611ca19190611f94565b9050611cce565b6001600160a01b0385166000908152600c6020526040902054611ccb9042611f94565b90505b60005b8251811015611db8576001600160a01b038616600090815260046020526040812084518290869085908110611d0857611d08611fa7565b6020908102919091018101518252818101929092526040908101600020815160c0810183528154815260018083015460ff16948201949094526002820154928101929092526003810154606083015260048101546001600160a01b031660808301526005015460a08201529150611d7f9084611fbd565b60a08201518251611d909190611fbd565b611d9a9190611fbd565b611da49086611f64565b94505080611db190611fd4565b9050611cd1565b50611dc4606484611fed565b95945050505050565b803560ff811681146116f657600080fd5b60008060408385031215611df157600080fd5b611dfa83611dcd565b946020939093013593505050565b80356001600160a01b03811681146116f657600080fd5b60008060408385031215611e3257600080fd5b611e3b83611dcd565b9150611e4960208401611e08565b90509250929050565b600060208284031215611e6457600080fd5b611e6d82611e08565b9392505050565b60008060408385031215611e8757600080fd5b611dfa83611e08565b600060208284031215611ea257600080fd5b5035919050565b8015158114611eb757600080fd5b50565b60008060408385031215611ecd57600080fd5b611ed683611e08565b91506020830135611ee681611ea9565b809150509250929050565b6020808252825182820181905260009190848201906040850190845b81811015611f2957835183529284019291840191600101611f0d565b50909695505050505050565b600060208284031215611f4757600080fd5b5051919050565b634e487b7160e01b600052601160045260246000fd5b80820180821115610af857610af8611f4e565b600060208284031215611f8957600080fd5b8151611e6d81611ea9565b81810381811115610af857610af8611f4e565b634e487b7160e01b600052603260045260246000fd5b8082028115828204841417610af857610af8611f4e565b600060018201611fe657611fe6611f4e565b5060010190565b60008261200a57634e487b7160e01b600052601260045260246000fd5b500490565b60208082526015908201527423b7bb32b93730b136329d103337b93134b23232b760591b604082015260600190565b634e487b7160e01b600052603160045260246000fdfea2646970667358221220d5221e321090232a4182e52b10f79731b65192e270b191211203e7d676ef145a64736f6c63430008120033","linkReferences":{}},"methodIdentifiers":{"MIN_SEASON_END()":"b4688e52","PRECISION()":"aaf5eb68","TIER1_DURATION()":"72f1433c","TIER2_DURATION()":"ed94b7b5","TIER3_DURATION()":"12230a99","TIER4_DURATION()":"37c4c6a2","XP_PER_SECOND()":"ee709c92","averageLockedAmounts(address)":"70d7b0a1","claimPendingRewards()":"92bd7b2c","claimRewardsForAccount(address)":"1928dabf","claimableReward(address)":"e9503425","contractBalance()":"8b7afe2e","cumulativeRewardPerToken()":"f5fc5076","cumulativeRewards(address)":"3792def3","getClaimableTokenRewards(address)":"d7261cc0","getClaimableXpRewards(address)":"fb44ecd5","getRemainingLockDuration(address,uint256)":"b5475460","getUserPositionIds(address)":"eddf7570","getUserTotalStakedAmountForTier(uint8,address)":"e6b13a13","getUserTotalXpEarnedForTier(uint8,address)":"02650b39","gov()":"12d43a51","isHandler(address)":"46ea87af","lastXpUpdate(address)":"c3fa7cd4","lockLiquidity(uint8,uint256)":"01c467d5","lockedAmount(address)":"a153e708","nextPositionId()":"899346c7","positions(address,uint256)":"c1be6677","previousCumulativeRewardPerToken(address)":"a562021c","recoverTokens(address)":"16114acd","rewardTracker()":"6bcb411a","seasonEnd()":"e757b20d","setGov(address)":"cfad57a2","setHandler(address,bool)":"9cb7de4b","stakeTransferrer()":"17e46431","totalXpEarned(address)":"c80debd6","unlockAllPositions()":"9f764bad","unlockLiquidity(uint256)":"96e83924","updateSeasonEnd(uint256)":"7bf8c5e8","userPositionIds(address,uint256)":"7b6eb9b6","weth()":"3fc8cef3"},"id":116}