{
  "abi": [
    {
      "inputs": [
        {
          "internalType": "address",
          "name": "_pair",
          "type": "address"
        }
      ],
      "stateMutability": "nonpayable",
      "type": "constructor"
    },
    {
      "inputs": [
        {
          "internalType": "address",
          "name": "tokenA",
          "type": "address"
        },
        {
          "internalType": "address",
          "name": "tokenB",
          "type": "address"
        },
        {
          "internalType": "uint256",
          "name": "amountADesired",
          "type": "uint256"
        },
        {
          "internalType": "uint256",
          "name": "amountBDesired",
          "type": "uint256"
        },
        {
          "internalType": "uint256",
          "name": "",
          "type": "uint256"
        },
        {
          "internalType": "uint256",
          "name": "",
          "type": "uint256"
        },
        {
          "internalType": "address",
          "name": "to",
          "type": "address"
        },
        {
          "internalType": "uint256",
          "name": "deadline",
          "type": "uint256"
        }
      ],
      "name": "addLiquidity",
      "outputs": [
        {
          "internalType": "uint256",
          "name": "amountA",
          "type": "uint256"
        },
        {
          "internalType": "uint256",
          "name": "amountB",
          "type": "uint256"
        },
        {
          "internalType": "uint256",
          "name": "liquidity",
          "type": "uint256"
        }
      ],
      "stateMutability": "nonpayable",
      "type": "function"
    },
    {
      "inputs": [],
      "name": "pair",
      "outputs": [
        {
          "internalType": "address",
          "name": "",
          "type": "address"
        }
      ],
      "stateMutability": "view",
      "type": "function"
    }
  ],
  "bytecode": {
    "object": "0x608060405234801561001057600080fd5b506040516103e53803806103e583398101604081905261002f91610054565b600080546001600160a01b0319166001600160a01b0392909216919091179055610084565b60006020828403121561006657600080fd5b81516001600160a01b038116811461007d57600080fd5b9392505050565b610352806100936000396000f3fe608060405234801561001057600080fd5b50600436106100365760003560e01c8063a8aa1b311461003b578063e8e337001461006b575b600080fd5b60005461004e906001600160a01b031681565b6040516001600160a01b0390911681526020015b60405180910390f35b61007e61007936600461027f565b610099565b60408051938452602084019290925290820152606001610062565b6000806000428410156100eb5760405162461bcd60e51b815260206004820152601660248201527514185b98d85ad9549bdd5d195c8e881156141254915160521b604482015260640160405180910390fd5b6000546040516340c10f1960e01b81526001600160a01b0387811660048301526103e86024830152909116906340c10f1990604401600060405180830381600087803b15801561013a57600080fd5b505af115801561014e573d6000803e3d6000fd5b50506000546040516323b872dd60e01b81523360048201526001600160a01b039182166024820152604481018d9052908e1692506323b872dd91506064016020604051808303816000875af11580156101ab573d6000803e3d6000fd5b505050506040513d601f19601f820116820180604052508101906101cf91906102f3565b506000546040516323b872dd60e01b81523360048201526001600160a01b039182166024820152604481018a9052908b16906323b872dd906064016020604051808303816000875af1158015610229573d6000803e3d6000fd5b505050506040513d601f19601f8201168201806040525081019061024d91906102f3565b50979a9699506103e89850959650505050505050565b80356001600160a01b038116811461027a57600080fd5b919050565b600080600080600080600080610100898b03121561029c57600080fd5b6102a589610263565b97506102b360208a01610263565b965060408901359550606089013594506080890135935060a089013592506102dd60c08a01610263565b915060e089013590509295985092959890939650565b60006020828403121561030557600080fd5b8151801515811461031557600080fd5b939250505056fea26469706673582212201e694a9daf5460e2a1c3596a163beb96a9ae528139fff19e4b93b9d6255c9f9b64736f6c63430008120033",
    "linkReferences": {}
  },
  "methodIdentifiers": {
    "addLiquidity(address,address,uint256,uint256,uint256,uint256,address,uint256)": "e8e33700",
    "pair()": "a8aa1b31"
  },
  "id": 28
}