{"abi":[{"type":"function","name":"getDepositBalances","inputs":[{"name":"_account","type":"address","internalType":"address"},{"name":"_depositTokens","type":"address[]","internalType":"address[]"},{"name":"_rewardTrackers","type":"address[]","internalType":"address[]"}],"outputs":[{"name":"","type":"uint256[]","internalType":"uint256[]"}],"stateMutability":"view"},{"type":"function","name":"getStakingInfo","inputs":[{"name":"_account","type":"address","internalType":"address"},{"name":"_rewardTrackers","type":"address[]","internalType":"address[]"}],"outputs":[{"name":"","type":"uint256[]","internalType":"uint256[]"}],"stateMutability":"view"}],"bytecode":{"object":"0x608060405234801561001057600080fd5b50610808806100206000396000f3fe608060405234801561001057600080fd5b50600436106100365760003560e01c8063575157e41461003b578063937a0be814610064575b600080fd5b61004e610049366004610644565b610077565b60405161005b91906106b8565b60405180910390f35b61004e6100723660046106fc565b6101c1565b60606000825167ffffffffffffffff8111156100955761009561058c565b6040519080825280602002602001820160405280156100be578160200160208202803683370190505b50905060005b83518110156101b85760008482815181106100e1576100e161074a565b60200260200101519050806001600160a01b031663f5d9d63e8888858151811061010d5761010d61074a565b60200260200101516040518363ffffffff1660e01b81526004016101479291906001600160a01b0392831681529116602082015260400190565b602060405180830381865afa158015610164573d6000803e3d6000fd5b505050506040513d601f19601f820116820180604052508101906101889190610760565b83838151811061019a5761019a61074a565b602090810291909101015250806101b08161078f565b9150506100c4565b50949350505050565b606060006005905060008184516101d891906107a8565b67ffffffffffffffff8111156101f0576101f061058c565b604051908082528060200260200182016040528015610219578160200160208202803683370190505b50905060005b845181101561056557600085828151811061023c5761023c61074a565b602090810291909101015160405163402914f560e01b81526001600160a01b0389811660048301529192509082169063402914f590602401602060405180830381865afa158015610291573d6000803e3d6000fd5b505050506040513d601f19601f820116820180604052508101906102b59190610760565b836102c086856107a8565b815181106102d0576102d061074a565b602002602001018181525050806001600160a01b031663a8d936276040518163ffffffff1660e01b8152600401602060405180830381865afa15801561031a573d6000803e3d6000fd5b505050506040513d601f19601f8201168201806040525081019061033e9190610760565b8361034986856107a8565b6103549060016107bf565b815181106103645761036461074a565b602090810291909101015260405163a318021760e01b81526001600160a01b03888116600483015282169063a318021790602401602060405180830381865afa1580156103b5573d6000803e3d6000fd5b505050506040513d601f19601f820116820180604052508101906103d99190610760565b836103e486856107a8565b6103ef9060026107bf565b815181106103ff576103ff61074a565b6020908102919091010152604051633792def360e01b81526001600160a01b038881166004830152821690633792def390602401602060405180830381865afa158015610450573d6000803e3d6000fd5b505050506040513d601f19601f820116820180604052508101906104749190610760565b8361047f86856107a8565b61048a9060036107bf565b8151811061049a5761049a61074a565b6020026020010181815250508582815181106104b8576104b861074a565b60200260200101516001600160a01b03166318160ddd6040518163ffffffff1660e01b8152600401602060405180830381865afa1580156104fd573d6000803e3d6000fd5b505050506040513d601f19601f820116820180604052508101906105219190610760565b8361052c86856107a8565b6105379060046107bf565b815181106105475761054761074a565b6020908102919091010152508061055d8161078f565b91505061021f565b509150505b92915050565b80356001600160a01b038116811461058757600080fd5b919050565b634e487b7160e01b600052604160045260246000fd5b600082601f8301126105b357600080fd5b8135602067ffffffffffffffff808311156105d0576105d061058c565b8260051b604051601f19603f830116810181811084821117156105f5576105f561058c565b60405293845285810183019383810192508785111561061357600080fd5b83870191505b848210156106395761062a82610570565b83529183019190830190610619565b979650505050505050565b60008060006060848603121561065957600080fd5b61066284610570565b9250602084013567ffffffffffffffff8082111561067f57600080fd5b61068b878388016105a2565b935060408601359150808211156106a157600080fd5b506106ae868287016105a2565b9150509250925092565b6020808252825182820181905260009190848201906040850190845b818110156106f0578351835292840192918401916001016106d4565b50909695505050505050565b6000806040838503121561070f57600080fd5b61071883610570565b9150602083013567ffffffffffffffff81111561073457600080fd5b610740858286016105a2565b9150509250929050565b634e487b7160e01b600052603260045260246000fd5b60006020828403121561077257600080fd5b5051919050565b634e487b7160e01b600052601160045260246000fd5b6000600182016107a1576107a1610779565b5060010190565b808202811582820484141761056a5761056a610779565b8082018082111561056a5761056a61077956fea2646970667358221220416f60ec074380157edf884a1898c47f9b427ea54db19afeefd6173a1049aa2764736f6c63430008120033","linkReferences":{}},"methodIdentifiers":{"getDepositBalances(address,address[],address[])":"575157e4","getStakingInfo(address,address[])":"937a0be8"},"id":99}