{"abi":[{"type":"constructor","inputs":[],"stateMutability":"nonpayable"},{"type":"function","name":"DISTRIBUTION_INTERVAL","inputs":[],"outputs":[{"name":"","type":"uint256","internalType":"uint256"}],"stateMutability":"view"},{"type":"function","name":"admin","inputs":[],"outputs":[{"name":"","type":"address","internalType":"address"}],"stateMutability":"view"},{"type":"function","name":"distribute","inputs":[],"outputs":[{"name":"","type":"uint256","internalType":"uint256"}],"stateMutability":"nonpayable"},{"type":"function","name":"getDistributionAmount","inputs":[{"name":"_receiver","type":"address","internalType":"address"}],"outputs":[{"name":"","type":"uint256","internalType":"uint256"}],"stateMutability":"view"},{"type":"function","name":"getIntervals","inputs":[{"name":"_receiver","type":"address","internalType":"address"}],"outputs":[{"name":"","type":"uint256","internalType":"uint256"}],"stateMutability":"view"},{"type":"function","name":"getRewardToken","inputs":[{"name":"_receiver","type":"address","internalType":"address"}],"outputs":[{"name":"","type":"address","internalType":"address"}],"stateMutability":"view"},{"type":"function","name":"gov","inputs":[],"outputs":[{"name":"","type":"address","internalType":"address"}],"stateMutability":"view"},{"type":"function","name":"lastDistributionTime","inputs":[{"name":"","type":"address","internalType":"address"}],"outputs":[{"name":"","type":"uint256","internalType":"uint256"}],"stateMutability":"view"},{"type":"function","name":"rewardTokens","inputs":[{"name":"","type":"address","internalType":"address"}],"outputs":[{"name":"","type":"address","internalType":"address"}],"stateMutability":"view"},{"type":"function","name":"setDistribution","inputs":[{"name":"_receivers","type":"address[]","internalType":"address[]"},{"name":"_amounts","type":"uint256[]","internalType":"uint256[]"},{"name":"_rewardTokens","type":"address[]","internalType":"address[]"}],"outputs":[],"stateMutability":"nonpayable"},{"type":"function","name":"setGov","inputs":[{"name":"_gov","type":"address","internalType":"address"}],"outputs":[],"stateMutability":"nonpayable"},{"type":"function","name":"setTokensPerInterval","inputs":[{"name":"_receiver","type":"address","internalType":"address"},{"name":"_amount","type":"uint256","internalType":"uint256"}],"outputs":[],"stateMutability":"nonpayable"},{"type":"function","name":"tokensPerInterval","inputs":[{"name":"","type":"address","internalType":"address"}],"outputs":[{"name":"","type":"uint256","internalType":"uint256"}],"stateMutability":"view"},{"type":"function","name":"updateLastDistributionTime","inputs":[{"name":"_receiver","type":"address","internalType":"address"}],"outputs":[],"stateMutability":"nonpayable"},{"type":"event","name":"Distribute","inputs":[{"name":"receiver","type":"address","indexed":false,"internalType":"address"},{"name":"amount","type":"uint256","indexed":false,"internalType":"uint256"}],"anonymous":false},{"type":"event","name":"DistributionChange","inputs":[{"name":"receiver","type":"address","indexed":false,"internalType":"address"},{"name":"amount","type":"uint256","indexed":false,"internalType":"uint256"},{"name":"rewardToken","type":"address","indexed":false,"internalType":"address"}],"anonymous":false},{"type":"event","name":"TokensPerIntervalChange","inputs":[{"name":"receiver","type":"address","indexed":false,"internalType":"address"},{"name":"amount","type":"uint256","indexed":false,"internalType":"uint256"}],"anonymous":false},{"type":"error","name":"AddressEmptyCode","inputs":[{"name":"target","type":"address","internalType":"address"}]},{"type":"error","name":"AddressInsufficientBalance","inputs":[{"name":"account","type":"address","internalType":"address"}]},{"type":"error","name":"FailedInnerCall","inputs":[]},{"type":"error","name":"SafeERC20FailedOperation","inputs":[{"name":"token","type":"address","internalType":"address"}]}],"bytecode":{"object":"0x608060405234801561001057600080fd5b5060008054336001600160a01b03199182168117835560018054909216179055610c5390819061004090396000f3fe608060405234801561001057600080fd5b50600436106100ea5760003560e01c8063847ec40c1161008c578063cfad57a211610066578063cfad57a214610203578063e4fc6b6d14610216578063f5ab16cc1461021e578063f851a4401461024757600080fd5b8063847ec40c146101bd578063b7fba9f6146101dd578063c27a1acd146101f057600080fd5b8063270da240116100c8578063270da2401461014b57806341d0204b1461016b578063770788721461017e57806383b3dd24146101aa57600080fd5b806308b26b75146100ef57806312d43a511461010b57806319f7ab4514610136575b600080fd5b6100f8610e1081565b6040519081526020015b60405180910390f35b60005461011e906001600160a01b031681565b6040516001600160a01b039091168152602001610102565b61014961014436600461097b565b61025a565b005b6100f861015936600461097b565b60036020526000908152604090205481565b6101496101793660046109e2565b610299565b61011e61018c36600461097b565b6001600160a01b039081166000908152600260205260409020541690565b6101496101b8366004610a7c565b61043a565b6100f86101cb36600461097b565b60046020526000908152604090205481565b6100f86101eb36600461097b565b610519565b6100f86101fe36600461097b565b6105f4565b61014961021136600461097b565b61062e565b6100f861067a565b61011e61022c36600461097b565b6002602052600090815260409020546001600160a01b031681565b60015461011e906001600160a01b031681565b6001546001600160a01b0316331461028d5760405162461bcd60e51b815260040161028490610aa6565b60405180910390fd5b61029681610731565b50565b6000546001600160a01b031633146102c35760405162461bcd60e51b815260040161028490610aa6565b60005b858110156104315760008787838181106102e2576102e2610add565b90506020020160208101906102f7919061097b565b6001600160a01b03811660009081526004602052604090205490915015610345576000610323826105f4565b905080156103435760405162461bcd60e51b815260040161028490610af3565b505b600086868481811061035957610359610add565b905060200201359050600085858581811061037657610376610add565b905060200201602081019061038b919061097b565b6001600160a01b0384811660009081526003602090815260408083208790556002909152902080546001600160a01b03191691831691909117905590506103d183610731565b604080516001600160a01b0385811682526020820185905283168183015290517fabc51c16142cb4f85965fa5b3cfdeed4475e4751d9201718a2bfc334c152f6149181900360600190a1505050808061042990610b4e565b9150506102c6565b50505050505050565b6001546001600160a01b031633146104645760405162461bcd60e51b815260040161028490610aa6565b6001600160a01b038216600090815260046020526040902054156104af57600061048d836105f4565b905080156104ad5760405162461bcd60e51b815260040161028490610af3565b505b6001600160a01b03821660009081526003602052604090208190556104d382610731565b604080516001600160a01b0384168152602081018390527f83a9322775b48550bbef762b82384c8ed0b747ff4c37188bd3bb72e3c7cca823910160405180910390a15050565b6001600160a01b0381166000908152600360205260408120548082036105425750600092915050565b600061054d846105f4565b9050600061055b8284610b67565b6001600160a01b03868116600090815260026020526040908190205490516370a0823160e01b815230600482015292935083929116906370a0823190602401602060405180830381865afa1580156105b7573d6000803e3d6000fd5b505050506040513d601f19601f820116820180604052508101906105db9190610b7e565b10156105ec57506000949350505050565b949350505050565b6001600160a01b03811660009081526004602052604081205481906106199042610b97565b9050610627610e1082610baa565b9392505050565b6000546001600160a01b031633146106585760405162461bcd60e51b815260040161028490610aa6565b600080546001600160a01b0319166001600160a01b0392909216919091179055565b60003381610687826105f4565b90508060000361069a5760009250505090565b60006106a583610519565b90506106b083610731565b806000036106c2576000935050505090565b6001600160a01b038084166000908152600260205260409020546106e891168483610764565b604080516001600160a01b0385168152602081018390527fc1d32ad5cca423e7dda2123dbf8c482f8e77d00b631c06e903a47f2cec1334df910160405180910390a19392505050565b610e1061073e8142610baa565b6107489190610b67565b6001600160a01b03909116600090815260046020526040902055565b604080516001600160a01b038416602482015260448082018490528251808303909101815260649091019091526020810180516001600160e01b031663a9059cbb60e01b1790526107b69084906107bb565b505050565b60006107d06001600160a01b0384168361081e565b905080516000141580156107f55750808060200190518101906107f39190610bcc565b155b156107b657604051635274afe760e01b81526001600160a01b0384166004820152602401610284565b606061082f83836000610838610851565b90505b92915050565b604051630a12f52160e11b815260040160405180910390fd5b6060824710156108765760405163cd78605960e01b8152306004820152602401610284565b600080866001600160a01b031685876040516108929190610bee565b60006040518083038185875af1925050503d80600081146108cf576040519150601f19603f3d011682016040523d82523d6000602084013e6108d4565b606091505b50915091506108e5878383876108f0565b979650505050505050565b6060831561093e57825160000361093757846001600160a01b03163b60000361093757604051639996b31560e01b81526001600160a01b0386166004820152602401610284565b50816105ec565b6105ec83838151156109535781518083602001fd5b6108388163ffffffff16565b80356001600160a01b038116811461097657600080fd5b919050565b60006020828403121561098d57600080fd5b61082f8261095f565b60008083601f8401126109a857600080fd5b50813567ffffffffffffffff8111156109c057600080fd5b6020830191508360208260051b85010111156109db57600080fd5b9250929050565b600080600080600080606087890312156109fb57600080fd5b863567ffffffffffffffff80821115610a1357600080fd5b610a1f8a838b01610996565b90985096506020890135915080821115610a3857600080fd5b610a448a838b01610996565b90965094506040890135915080821115610a5d57600080fd5b50610a6a89828a01610996565b979a9699509497509295939492505050565b60008060408385031215610a8f57600080fd5b610a988361095f565b946020939093013593505050565b6020808252601a908201527f54696d654469737472696275746f723a20666f7262696464656e000000000000604082015260600190565b634e487b7160e01b600052603260045260246000fd5b60208082526025908201527f54696d654469737472696275746f723a2070656e64696e6720646973747269626040820152643aba34b7b760d91b606082015260800190565b634e487b7160e01b600052601160045260246000fd5b600060018201610b6057610b60610b38565b5060010190565b808202811582820484141761083257610832610b38565b600060208284031215610b9057600080fd5b5051919050565b8181038181111561083257610832610b38565b600082610bc757634e487b7160e01b600052601260045260246000fd5b500490565b600060208284031215610bde57600080fd5b8151801515811461062757600080fd5b6000825160005b81811015610c0f5760208186018101518583015201610bf5565b50600092019182525091905056fea2646970667358221220330cc40754d4d527c465145847ce2b9ba545c0334c6e3e85dac185f9c8dd36e364736f6c63430008120033","linkReferences":{}},"methodIdentifiers":{"DISTRIBUTION_INTERVAL()":"08b26b75","admin()":"f851a440","distribute()":"e4fc6b6d","getDistributionAmount(address)":"b7fba9f6","getIntervals(address)":"c27a1acd","getRewardToken(address)":"77078872","gov()":"12d43a51","lastDistributionTime(address)":"847ec40c","rewardTokens(address)":"f5ab16cc","setDistribution(address[],uint256[],address[])":"41d0204b","setGov(address)":"cfad57a2","setTokensPerInterval(address,uint256)":"83b3dd24","tokensPerInterval(address)":"270da240","updateLastDistributionTime(address)":"19f7ab45"},"id":133}