{"abi":[{"type":"constructor","inputs":[{"name":"_name","type":"string","internalType":"string"},{"name":"_symbol","type":"string","internalType":"string"},{"name":"_initialSupply","type":"uint256","internalType":"uint256"}],"stateMutability":"nonpayable"},{"type":"function","name":"addAdmin","inputs":[{"name":"_account","type":"address","internalType":"address"}],"outputs":[],"stateMutability":"nonpayable"},{"type":"function","name":"addNonStakingAccount","inputs":[{"name":"_account","type":"address","internalType":"address"}],"outputs":[],"stateMutability":"nonpayable"},{"type":"function","name":"admins","inputs":[{"name":"","type":"address","internalType":"address"}],"outputs":[{"name":"","type":"bool","internalType":"bool"}],"stateMutability":"view"},{"type":"function","name":"allowance","inputs":[{"name":"_owner","type":"address","internalType":"address"},{"name":"_spender","type":"address","internalType":"address"}],"outputs":[{"name":"","type":"uint256","internalType":"uint256"}],"stateMutability":"view"},{"type":"function","name":"allowances","inputs":[{"name":"","type":"address","internalType":"address"},{"name":"","type":"address","internalType":"address"}],"outputs":[{"name":"","type":"uint256","internalType":"uint256"}],"stateMutability":"view"},{"type":"function","name":"approve","inputs":[{"name":"_spender","type":"address","internalType":"address"},{"name":"_amount","type":"uint256","internalType":"uint256"}],"outputs":[{"name":"","type":"bool","internalType":"bool"}],"stateMutability":"nonpayable"},{"type":"function","name":"balanceOf","inputs":[{"name":"_account","type":"address","internalType":"address"}],"outputs":[{"name":"","type":"uint256","internalType":"uint256"}],"stateMutability":"view"},{"type":"function","name":"balances","inputs":[{"name":"","type":"address","internalType":"address"}],"outputs":[{"name":"","type":"uint256","internalType":"uint256"}],"stateMutability":"view"},{"type":"function","name":"claim","inputs":[{"name":"_receiver","type":"address","internalType":"address"}],"outputs":[],"stateMutability":"nonpayable"},{"type":"function","name":"decimals","inputs":[],"outputs":[{"name":"","type":"uint8","internalType":"uint8"}],"stateMutability":"view"},{"type":"function","name":"gov","inputs":[],"outputs":[{"name":"","type":"address","internalType":"address"}],"stateMutability":"view"},{"type":"function","name":"inPrivateTransferMode","inputs":[],"outputs":[{"name":"","type":"bool","internalType":"bool"}],"stateMutability":"view"},{"type":"function","name":"isHandler","inputs":[{"name":"","type":"address","internalType":"address"}],"outputs":[{"name":"","type":"bool","internalType":"bool"}],"stateMutability":"view"},{"type":"function","name":"name","inputs":[],"outputs":[{"name":"","type":"string","internalType":"string"}],"stateMutability":"view"},{"type":"function","name":"nonStakingAccounts","inputs":[{"name":"","type":"address","internalType":"address"}],"outputs":[{"name":"","type":"bool","internalType":"bool"}],"stateMutability":"view"},{"type":"function","name":"nonStakingSupply","inputs":[],"outputs":[{"name":"","type":"uint256","internalType":"uint256"}],"stateMutability":"view"},{"type":"function","name":"recoverClaim","inputs":[{"name":"_account","type":"address","internalType":"address"},{"name":"_receiver","type":"address","internalType":"address"}],"outputs":[],"stateMutability":"nonpayable"},{"type":"function","name":"removeAdmin","inputs":[{"name":"_account","type":"address","internalType":"address"}],"outputs":[],"stateMutability":"nonpayable"},{"type":"function","name":"removeNonStakingAccount","inputs":[{"name":"_account","type":"address","internalType":"address"}],"outputs":[],"stateMutability":"nonpayable"},{"type":"function","name":"setGov","inputs":[{"name":"_gov","type":"address","internalType":"address"}],"outputs":[],"stateMutability":"nonpayable"},{"type":"function","name":"setHandler","inputs":[{"name":"_handler","type":"address","internalType":"address"},{"name":"_isActive","type":"bool","internalType":"bool"}],"outputs":[],"stateMutability":"nonpayable"},{"type":"function","name":"setInPrivateTransferMode","inputs":[{"name":"_inPrivateTransferMode","type":"bool","internalType":"bool"}],"outputs":[],"stateMutability":"nonpayable"},{"type":"function","name":"setInfo","inputs":[{"name":"_name","type":"string","internalType":"string"},{"name":"_symbol","type":"string","internalType":"string"}],"outputs":[],"stateMutability":"nonpayable"},{"type":"function","name":"setYieldTrackers","inputs":[{"name":"_yieldTrackers","type":"address[]","internalType":"address[]"}],"outputs":[],"stateMutability":"nonpayable"},{"type":"function","name":"stakedBalance","inputs":[{"name":"_account","type":"address","internalType":"address"}],"outputs":[{"name":"","type":"uint256","internalType":"uint256"}],"stateMutability":"view"},{"type":"function","name":"symbol","inputs":[],"outputs":[{"name":"","type":"string","internalType":"string"}],"stateMutability":"view"},{"type":"function","name":"totalStaked","inputs":[],"outputs":[{"name":"","type":"uint256","internalType":"uint256"}],"stateMutability":"view"},{"type":"function","name":"totalSupply","inputs":[],"outputs":[{"name":"","type":"uint256","internalType":"uint256"}],"stateMutability":"view"},{"type":"function","name":"transfer","inputs":[{"name":"_recipient","type":"address","internalType":"address"},{"name":"_amount","type":"uint256","internalType":"uint256"}],"outputs":[{"name":"","type":"bool","internalType":"bool"}],"stateMutability":"nonpayable"},{"type":"function","name":"transferFrom","inputs":[{"name":"_sender","type":"address","internalType":"address"},{"name":"_recipient","type":"address","internalType":"address"},{"name":"_amount","type":"uint256","internalType":"uint256"}],"outputs":[{"name":"","type":"bool","internalType":"bool"}],"stateMutability":"nonpayable"},{"type":"function","name":"withdrawToken","inputs":[{"name":"_token","type":"address","internalType":"address"},{"name":"_account","type":"address","internalType":"address"},{"name":"_amount","type":"uint256","internalType":"uint256"}],"outputs":[],"stateMutability":"nonpayable"},{"type":"function","name":"yieldTrackers","inputs":[{"name":"","type":"uint256","internalType":"uint256"}],"outputs":[{"name":"","type":"address","internalType":"address"}],"stateMutability":"view"},{"type":"event","name":"Approval","inputs":[{"name":"owner","type":"address","indexed":true,"internalType":"address"},{"name":"spender","type":"address","indexed":true,"internalType":"address"},{"name":"value","type":"uint256","indexed":false,"internalType":"uint256"}],"anonymous":false},{"type":"event","name":"Transfer","inputs":[{"name":"from","type":"address","indexed":true,"internalType":"address"},{"name":"to","type":"address","indexed":true,"internalType":"address"},{"name":"value","type":"uint256","indexed":false,"internalType":"uint256"}],"anonymous":false},{"type":"error","name":"AddressEmptyCode","inputs":[{"name":"target","type":"address","internalType":"address"}]},{"type":"error","name":"AddressInsufficientBalance","inputs":[{"name":"account","type":"address","internalType":"address"}]},{"type":"error","name":"FailedInnerCall","inputs":[]},{"type":"error","name":"SafeERC20FailedOperation","inputs":[{"name":"token","type":"address","internalType":"address"}]}],"bytecode":{"object":"0x60806040523480156200001157600080fd5b5060405162001ea438038062001ea4833981016040819052620000349162000321565b600062000042848262000423565b50600162000051838262000423565b50600480546001600160a01b031916339081179091556200007390826200007c565b50505062000553565b6001600160a01b038216620000e35760405162461bcd60e51b815260206004820152602360248201527f42617365546f6b656e3a206d696e7420746f20746865207a65726f206164647260448201526265737360e81b606482015260840160405180910390fd5b620000ee82620001ae565b80600254620000fe919062000505565b6002556001600160a01b0382166000908152600560205260409020546200012790829062000505565b6001600160a01b03831660009081526005602090815260408083209390935560089052205460ff161562000169578060035462000165919062000505565b6003555b6040518181526001600160a01b038316906000907fddf252ad1be2c89b69c2b068fc378daa952ba7f163c4a11628f55a4df523b3ef9060200160405180910390a35050565b60005b6007548110156200025857600060078281548110620001d457620001d462000521565b600091825260209091200154604051635fd6196560e01b81526001600160a01b03858116600483015290911691508190635fd6196590602401600060405180830381600087803b1580156200022857600080fd5b505af11580156200023d573d6000803e3d6000fd5b505050505080806200024f9062000537565b915050620001b1565b5050565b634e487b7160e01b600052604160045260246000fd5b600082601f8301126200028457600080fd5b81516001600160401b0380821115620002a157620002a16200025c565b604051601f8301601f19908116603f01168101908282118183101715620002cc57620002cc6200025c565b81604052838152602092508683858801011115620002e957600080fd5b600091505b838210156200030d5785820183015181830184015290820190620002ee565b600093810190920192909252949350505050565b6000806000606084860312156200033757600080fd5b83516001600160401b03808211156200034f57600080fd5b6200035d8783880162000272565b945060208601519150808211156200037457600080fd5b50620003838682870162000272565b925050604084015190509250925092565b600181811c90821680620003a957607f821691505b602082108103620003ca57634e487b7160e01b600052602260045260246000fd5b50919050565b601f8211156200041e57600081815260208120601f850160051c81016020861015620003f95750805b601f850160051c820191505b818110156200041a5782815560010162000405565b5050505b505050565b81516001600160401b038111156200043f576200043f6200025c565b620004578162000450845462000394565b84620003d0565b602080601f8311600181146200048f5760008415620004765750858301515b600019600386901b1c1916600185901b1785556200041a565b600085815260208120601f198616915b82811015620004c0578886015182559484019460019091019084016200049f565b5085821015620004df5787850151600019600388901b60f8161c191681555b5050505050600190811b01905550565b634e487b7160e01b600052601160045260246000fd5b808201808211156200051b576200051b620004ef565b92915050565b634e487b7160e01b600052603260045260246000fd5b6000600182016200054c576200054c620004ef565b5060010190565b61194180620005636000396000f3fe608060405234801561001057600080fd5b50600436106101f05760003560e01c8063602172671161010f5780639cb7de4b116100a2578063cfad57a211610071578063cfad57a214610494578063dd62ed3e146104a7578063dfbaefb1146104e0578063fb30d916146104ed57600080fd5b80639cb7de4b14610452578063a9059cbb14610465578063a923fc4014610478578063c93be6361461048b57600080fd5b8063817b1cd2116100de578063817b1cd21461040c5780639554381a1461041457806395d89b4114610437578063996f11ee1461043f57600080fd5b806360217267146103aa57806362289077146103bd57806370480275146103d057806370a08231146103e357600080fd5b8063276eab4e1161018757806346ea87af1161015657806346ea87af1461033657806352cd38d91461035957806355b6ed5c1461036c5780635a47a1a71461039757600080fd5b8063276eab4e146102c657806327e235e3146102d9578063313ce567146102f9578063429b62e51461031357600080fd5b80631785f53c116101c35780631785f53c1461027657806318160ddd146102895780631e83409a146102a057806323b872dd146102b357600080fd5b806301e33667146101f557806306fdde031461020a578063095ea7b31461022857806312d43a511461024b575b600080fd5b610208610203366004611387565b610500565b005b61021261054c565b60405161021f91906113e7565b60405180910390f35b61023b61023636600461141a565b6105da565b604051901515815260200161021f565b60045461025e906001600160a01b031681565b6040516001600160a01b03909116815260200161021f565b610208610284366004611444565b6105f1565b61029260025481565b60405190815260200161021f565b6102086102ae366004611444565b61063c565b61023b6102c1366004611387565b6106f9565b6102086102d43660046114a6565b610778565b6102926102e7366004611444565b60056020526000908152604090205481565b610301601281565b60405160ff909116815260200161021f565b61023b610321366004611444565b60096020526000908152604090205460ff1681565b61023b610344366004611444565b600b6020526000908152604090205460ff1681565b61025e610367366004611553565b6107b5565b61029261037a36600461156c565b600660209081526000928352604080842090915290825290205481565b6102086103a53660046115b0565b6107df565b6102926103b8366004611444565b61081c565b6102086103cb366004611444565b610861565b6102086103de366004611444565b61094e565b6102926103f1366004611444565b6001600160a01b031660009081526005602052604090205490565b61029261099c565b61023b610422366004611444565b60086020526000908152604090205460ff1681565b6102126109b3565b61020861044d36600461156c565b6109c0565b6102086104603660046115cd565b610aaa565b61023b61047336600461141a565b610aff565b610208610486366004611674565b610b0c565b61029260035481565b6102086104a2366004611444565b610b4f565b6102926104b536600461156c565b6001600160a01b03918216600090815260066020908152604080832093909416825291909152205490565b600a5461023b9060ff1681565b6102086104fb366004611444565b610bf1565b6004546001600160a01b031633146105335760405162461bcd60e51b815260040161052a906116d8565b60405180910390fd5b6105476001600160a01b0384168383610cc9565b505050565b6000805461055990611706565b80601f016020809104026020016040519081016040528092919081815260200182805461058590611706565b80156105d25780601f106105a7576101008083540402835291602001916105d2565b820191906000526020600020905b8154815290600101906020018083116105b557829003601f168201915b505050505081565b60006105e7338484610d1b565b5060015b92915050565b6004546001600160a01b0316331461061b5760405162461bcd60e51b815260040161052a906116d8565b6001600160a01b03166000908152600960205260409020805460ff19169055565b60005b6007548110156106f55760006007828154811061065e5761065e611740565b6000918252602090912001546040516310e059a160e11b81523360048201526001600160a01b038581166024830152909116915081906321c0b342906044016020604051808303816000875af11580156106bc573d6000803e3d6000fd5b505050506040513d601f19601f820116820180604052508101906106e09190611756565b505080806106ed90611785565b91505061063f565b5050565b336000908152600b602052604081205460ff16156107245761071c848484610e49565b506001610771565b6001600160a01b038416600090815260066020908152604080832033845290915281205461075390849061179e565b9050610760853383610d1b565b61076b858585610e49565b60019150505b9392505050565b6004546001600160a01b031633146107a25760405162461bcd60e51b815260040161052a906116d8565b80516106f59060079060208401906112f1565b600781815481106107c557600080fd5b6000918252602090912001546001600160a01b0316905081565b6004546001600160a01b031633146108095760405162461bcd60e51b815260040161052a906116d8565b600a805460ff1916911515919091179055565b6001600160a01b03811660009081526008602052604081205460ff161561084557506000919050565b506001600160a01b031660009081526005602052604090205490565b3360009081526009602052604090205460ff166108905760405162461bcd60e51b815260040161052a906116d8565b6001600160a01b03811660009081526008602052604090205460ff16156109045760405162461bcd60e51b815260206004820152602260248201527f42617365546f6b656e3a205f6163636f756e7420616c7265616479206d61726b604482015261195960f21b606482015260840161052a565b61090d816110b3565b6001600160a01b0381166000908152600860209081526040808320805460ff19166001179055600590915290205460035461094891906117b1565b60035550565b6004546001600160a01b031633146109785760405162461bcd60e51b815260040161052a906116d8565b6001600160a01b03166000908152600960205260409020805460ff19166001179055565b60006003546002546109ae919061179e565b905090565b6001805461055990611706565b3360009081526009602052604090205460ff166109ef5760405162461bcd60e51b815260040161052a906116d8565b60005b60075481101561054757600060078281548110610a1157610a11611740565b6000918252602090912001546040516310e059a160e11b81526001600160a01b0386811660048301528581166024830152909116915081906321c0b342906044016020604051808303816000875af1158015610a71573d6000803e3d6000fd5b505050506040513d601f19601f82011682018060405250810190610a959190611756565b50508080610aa290611785565b9150506109f2565b6004546001600160a01b03163314610ad45760405162461bcd60e51b815260040161052a906116d8565b6001600160a01b03919091166000908152600b60205260409020805460ff1916911515919091179055565b60006105e7338484610e49565b6004546001600160a01b03163314610b365760405162461bcd60e51b815260040161052a906116d8565b6000610b428382611812565b5060016105478282611812565b6004546001600160a01b03163314610b795760405162461bcd60e51b815260040161052a906116d8565b6001600160a01b038116610bcf5760405162461bcd60e51b815260206004820152601f60248201527f42617365546f6b656e3a205f676f76206973207a65726f206164647265737300604482015260640161052a565b600480546001600160a01b0319166001600160a01b0392909216919091179055565b3360009081526009602052604090205460ff16610c205760405162461bcd60e51b815260040161052a906116d8565b6001600160a01b03811660009081526008602052604090205460ff16610c885760405162461bcd60e51b815260206004820152601e60248201527f42617365546f6b656e3a205f6163636f756e74206e6f74206d61726b65640000604482015260640161052a565b610c91816110b3565b6001600160a01b0381166000908152600860209081526040808320805460ff191690556005909152902054600354610948919061179e565b604080516001600160a01b038416602482015260448082018490528251808303909101815260649091019091526020810180516001600160e01b031663a9059cbb60e01b179052610547908490611154565b6001600160a01b038316610d825760405162461bcd60e51b815260206004820152602860248201527f42617365546f6b656e3a20617070726f76652066726f6d20746865207a65726f604482015267206164647265737360c01b606482015260840161052a565b6001600160a01b038216610de75760405162461bcd60e51b815260206004820152602660248201527f42617365546f6b656e3a20617070726f766520746f20746865207a65726f206160448201526564647265737360d01b606482015260840161052a565b6001600160a01b0383811660008181526006602090815260408083209487168084529482529182902085905590518481527f8c5be1e5ebec7d5bd14f71427d1e84f3dd0314c0f7b2291e5b200ac8c7c3b92591015b60405180910390a3505050565b6001600160a01b038316610eb15760405162461bcd60e51b815260206004820152602960248201527f42617365546f6b656e3a207472616e736665722066726f6d20746865207a65726044820152686f206164647265737360b81b606482015260840161052a565b6001600160a01b038216610f175760405162461bcd60e51b815260206004820152602760248201527f42617365546f6b656e3a207472616e7366657220746f20746865207a65726f206044820152666164647265737360c81b606482015260840161052a565b600a5460ff1615610f8f57336000908152600b602052604090205460ff16610f8f5760405162461bcd60e51b815260206004820152602560248201527f42617365546f6b656e3a206d73672e73656e646572206e6f742077686974656c6044820152641a5cdd195960da1b606482015260840161052a565b610f98836110b3565b610fa1826110b3565b6001600160a01b038316600090815260056020526040902054610fc590829061179e565b6001600160a01b038085166000908152600560205260408082209390935590841681522054610ff59082906117b1565b6001600160a01b0380841660009081526005602090815260408083209490945591861681526008909152205460ff161561103b5780600354611037919061179e565b6003555b6001600160a01b03821660009081526008602052604090205460ff161561106e578060035461106a91906117b1565b6003555b816001600160a01b0316836001600160a01b03167fddf252ad1be2c89b69c2b068fc378daa952ba7f163c4a11628f55a4df523b3ef83604051610e3c91815260200190565b60005b6007548110156106f5576000600782815481106110d5576110d5611740565b600091825260209091200154604051635fd6196560e01b81526001600160a01b03858116600483015290911691508190635fd6196590602401600060405180830381600087803b15801561112857600080fd5b505af115801561113c573d6000803e3d6000fd5b5050505050808061114c90611785565b9150506110b6565b60006111696001600160a01b038416836111b7565b9050805160001415801561118e57508080602001905181019061118c91906118d2565b155b1561054757604051635274afe760e01b81526001600160a01b038416600482015260240161052a565b6060610771838360006111c86111e1565b604051630a12f52160e11b815260040160405180910390fd5b6060824710156112065760405163cd78605960e01b815230600482015260240161052a565b600080866001600160a01b0316858760405161122291906118ef565b60006040518083038185875af1925050503d806000811461125f576040519150601f19603f3d011682016040523d82523d6000602084013e611264565b606091505b509150915061127587838387611282565b925050505b949350505050565b606083156112d05782516000036112c957846001600160a01b03163b6000036112c957604051639996b31560e01b81526001600160a01b038616600482015260240161052a565b508161127a565b61127a83838151156112e55781518083602001fd5b6111c88163ffffffff16565b828054828255906000526020600020908101928215611346579160200282015b8281111561134657825182546001600160a01b0319166001600160a01b03909116178255602090920191600190910190611311565b50611352929150611356565b5090565b5b808211156113525760008155600101611357565b80356001600160a01b038116811461138257600080fd5b919050565b60008060006060848603121561139c57600080fd5b6113a58461136b565b92506113b36020850161136b565b9150604084013590509250925092565b60005b838110156113de5781810151838201526020016113c6565b50506000910152565b60208152600082518060208401526114068160408501602087016113c3565b601f01601f19169190910160400192915050565b6000806040838503121561142d57600080fd5b6114368361136b565b946020939093013593505050565b60006020828403121561145657600080fd5b6107718261136b565b634e487b7160e01b600052604160045260246000fd5b604051601f8201601f1916810167ffffffffffffffff8111828210171561149e5761149e61145f565b604052919050565b600060208083850312156114b957600080fd5b823567ffffffffffffffff808211156114d157600080fd5b818501915085601f8301126114e557600080fd5b8135818111156114f7576114f761145f565b8060051b9150611508848301611475565b818152918301840191848101908884111561152257600080fd5b938501935b83851015611547576115388561136b565b82529385019390850190611527565b98975050505050505050565b60006020828403121561156557600080fd5b5035919050565b6000806040838503121561157f57600080fd5b6115888361136b565b91506115966020840161136b565b90509250929050565b80151581146115ad57600080fd5b50565b6000602082840312156115c257600080fd5b81356107718161159f565b600080604083850312156115e057600080fd5b6115e98361136b565b915060208301356115f98161159f565b809150509250929050565b600082601f83011261161557600080fd5b813567ffffffffffffffff81111561162f5761162f61145f565b611642601f8201601f1916602001611475565b81815284602083860101111561165757600080fd5b816020850160208301376000918101602001919091529392505050565b6000806040838503121561168757600080fd5b823567ffffffffffffffff8082111561169f57600080fd5b6116ab86838701611604565b935060208501359150808211156116c157600080fd5b506116ce85828601611604565b9150509250929050565b6020808252601490820152732130b9b2aa37b5b2b71d103337b93134b23232b760611b604082015260600190565b600181811c9082168061171a57607f821691505b60208210810361173a57634e487b7160e01b600052602260045260246000fd5b50919050565b634e487b7160e01b600052603260045260246000fd5b60006020828403121561176857600080fd5b5051919050565b634e487b7160e01b600052601160045260246000fd5b6000600182016117975761179761176f565b5060010190565b818103818111156105eb576105eb61176f565b808201808211156105eb576105eb61176f565b601f82111561054757600081815260208120601f850160051c810160208610156117eb5750805b601f850160051c820191505b8181101561180a578281556001016117f7565b505050505050565b815167ffffffffffffffff81111561182c5761182c61145f565b6118408161183a8454611706565b846117c4565b602080601f831160018114611875576000841561185d5750858301515b600019600386901b1c1916600185901b17855561180a565b600085815260208120601f198616915b828110156118a457888601518255948401946001909101908401611885565b50858210156118c25787850151600019600388901b60f8161c191681555b5050505050600190811b01905550565b6000602082840312156118e457600080fd5b81516107718161159f565b600082516119018184602087016113c3565b919091019291505056fea2646970667358221220a830a7697c8284989f4925bd6407c8a33a51d86a66a3b89e9661e9dc28b92c5b64736f6c63430008120033","linkReferences":{}},"methodIdentifiers":{"addAdmin(address)":"70480275","addNonStakingAccount(address)":"62289077","admins(address)":"429b62e5","allowance(address,address)":"dd62ed3e","allowances(address,address)":"55b6ed5c","approve(address,uint256)":"095ea7b3","balanceOf(address)":"70a08231","balances(address)":"27e235e3","claim(address)":"1e83409a","decimals()":"313ce567","gov()":"12d43a51","inPrivateTransferMode()":"dfbaefb1","isHandler(address)":"46ea87af","name()":"06fdde03","nonStakingAccounts(address)":"9554381a","nonStakingSupply()":"c93be636","recoverClaim(address,address)":"996f11ee","removeAdmin(address)":"1785f53c","removeNonStakingAccount(address)":"fb30d916","setGov(address)":"cfad57a2","setHandler(address,bool)":"9cb7de4b","setInPrivateTransferMode(bool)":"5a47a1a7","setInfo(string,string)":"a923fc40","setYieldTrackers(address[])":"276eab4e","stakedBalance(address)":"60217267","symbol()":"95d89b41","totalStaked()":"817b1cd2","totalSupply()":"18160ddd","transfer(address,uint256)":"a9059cbb","transferFrom(address,address,uint256)":"23b872dd","withdrawToken(address,address,uint256)":"01e33667","yieldTrackers(uint256)":"52cd38d9"},"id":131}