{
  "abi": [
    {
      "inputs": [
        {
          "internalType": "address",
          "name": "_vault",
          "type": "address"
        },
        {
          "internalType": "address",
          "name": "_router",
          "type": "address"
        },
        {
          "internalType": "address",
          "name": "_shortsTracker",
          "type": "address"
        },
        {
          "internalType": "address",
          "name": "_weth",
          "type": "address"
        },
        {
          "internalType": "uint256",
          "name": "_depositFee",
          "type": "uint256"
        },
        {
          "internalType": "address",
          "name": "_orderBook",
          "type": "address"
        }
      ],
      "stateMutability": "nonpayable",
      "type": "constructor"
    },
    {
      "inputs": [
        {
          "internalType": "address",
          "name": "target",
          "type": "address"
        }
      ],
      "name": "AddressEmptyCode",
      "type": "error"
    },
    {
      "inputs": [
        {
          "internalType": "address",
          "name": "account",
          "type": "address"
        }
      ],
      "name": "AddressInsufficientBalance",
      "type": "error"
    },
    {
      "inputs": [],
      "name": "FailedInnerCall",
      "type": "error"
    },
    {
      "inputs": [],
      "name": "ReentrancyGuardReentrantCall",
      "type": "error"
    },
    {
      "inputs": [
        {
          "internalType": "address",
          "name": "token",
          "type": "address"
        }
      ],
      "name": "SafeERC20FailedOperation",
      "type": "error"
    },
    {
      "anonymous": false,
      "inputs": [
        {
          "indexed": false,
          "internalType": "address",
          "name": "account",
          "type": "address"
        },
        {
          "indexed": false,
          "internalType": "uint256",
          "name": "sizeDelta",
          "type": "uint256"
        },
        {
          "indexed": false,
          "internalType": "uint256",
          "name": "marginFeeBasisPoints",
          "type": "uint256"
        },
        {
          "indexed": false,
          "internalType": "bytes32",
          "name": "referralCode",
          "type": "bytes32"
        },
        {
          "indexed": false,
          "internalType": "address",
          "name": "referrer",
          "type": "address"
        }
      ],
      "name": "DecreasePositionReferral",
      "type": "event"
    },
    {
      "anonymous": false,
      "inputs": [
        {
          "indexed": false,
          "internalType": "address",
          "name": "account",
          "type": "address"
        },
        {
          "indexed": false,
          "internalType": "uint256",
          "name": "sizeDelta",
          "type": "uint256"
        },
        {
          "indexed": false,
          "internalType": "uint256",
          "name": "marginFeeBasisPoints",
          "type": "uint256"
        },
        {
          "indexed": false,
          "internalType": "bytes32",
          "name": "referralCode",
          "type": "bytes32"
        },
        {
          "indexed": false,
          "internalType": "address",
          "name": "referrer",
          "type": "address"
        }
      ],
      "name": "IncreasePositionReferral",
      "type": "event"
    },
    {
      "anonymous": false,
      "inputs": [
        {
          "indexed": false,
          "internalType": "address",
          "name": "admin",
          "type": "address"
        }
      ],
      "name": "SetAdmin",
      "type": "event"
    },
    {
      "anonymous": false,
      "inputs": [
        {
          "indexed": false,
          "internalType": "uint256",
          "name": "depositFee",
          "type": "uint256"
        }
      ],
      "name": "SetDepositFee",
      "type": "event"
    },
    {
      "anonymous": false,
      "inputs": [
        {
          "indexed": false,
          "internalType": "uint256",
          "name": "ethTransferGasLimit",
          "type": "uint256"
        }
      ],
      "name": "SetEthTransferGasLimit",
      "type": "event"
    },
    {
      "anonymous": false,
      "inputs": [
        {
          "indexed": false,
          "internalType": "bool",
          "name": "inLegacyMode",
          "type": "bool"
        }
      ],
      "name": "SetInLegacyMode",
      "type": "event"
    },
    {
      "anonymous": false,
      "inputs": [
        {
          "indexed": false,
          "internalType": "uint256",
          "name": "increasePositionBufferBps",
          "type": "uint256"
        }
      ],
      "name": "SetIncreasePositionBufferBps",
      "type": "event"
    },
    {
      "anonymous": false,
      "inputs": [
        {
          "indexed": true,
          "internalType": "address",
          "name": "account",
          "type": "address"
        },
        {
          "indexed": false,
          "internalType": "bool",
          "name": "isActive",
          "type": "bool"
        }
      ],
      "name": "SetLiquidator",
      "type": "event"
    },
    {
      "anonymous": false,
      "inputs": [
        {
          "indexed": false,
          "internalType": "address[]",
          "name": "tokens",
          "type": "address[]"
        },
        {
          "indexed": false,
          "internalType": "uint256[]",
          "name": "longSizes",
          "type": "uint256[]"
        },
        {
          "indexed": false,
          "internalType": "uint256[]",
          "name": "shortSizes",
          "type": "uint256[]"
        }
      ],
      "name": "SetMaxGlobalSizes",
      "type": "event"
    },
    {
      "anonymous": false,
      "inputs": [
        {
          "indexed": true,
          "internalType": "address",
          "name": "account",
          "type": "address"
        },
        {
          "indexed": false,
          "internalType": "bool",
          "name": "isActive",
          "type": "bool"
        }
      ],
      "name": "SetOrderKeeper",
      "type": "event"
    },
    {
      "anonymous": false,
      "inputs": [
        {
          "indexed": false,
          "internalType": "address",
          "name": "account",
          "type": "address"
        },
        {
          "indexed": false,
          "internalType": "bool",
          "name": "isActive",
          "type": "bool"
        }
      ],
      "name": "SetPartner",
      "type": "event"
    },
    {
      "anonymous": false,
      "inputs": [
        {
          "indexed": false,
          "internalType": "address",
          "name": "referralStorage",
          "type": "address"
        }
      ],
      "name": "SetReferralStorage",
      "type": "event"
    },
    {
      "anonymous": false,
      "inputs": [
        {
          "indexed": false,
          "internalType": "bool",
          "name": "shouldValidateIncreaseOrder",
          "type": "bool"
        }
      ],
      "name": "SetShouldValidateIncreaseOrder",
      "type": "event"
    },
    {
      "anonymous": false,
      "inputs": [
        {
          "indexed": false,
          "internalType": "address",
          "name": "token",
          "type": "address"
        },
        {
          "indexed": false,
          "internalType": "address",
          "name": "receiver",
          "type": "address"
        },
        {
          "indexed": false,
          "internalType": "uint256",
          "name": "amount",
          "type": "uint256"
        }
      ],
      "name": "WithdrawFees",
      "type": "event"
    },
    {
      "inputs": [],
      "name": "BASIS_POINTS_DIVISOR",
      "outputs": [
        {
          "internalType": "uint256",
          "name": "",
          "type": "uint256"
        }
      ],
      "stateMutability": "view",
      "type": "function"
    },
    {
      "inputs": [],
      "name": "admin",
      "outputs": [
        {
          "internalType": "address",
          "name": "",
          "type": "address"
        }
      ],
      "stateMutability": "view",
      "type": "function"
    },
    {
      "inputs": [
        {
          "internalType": "address",
          "name": "_token",
          "type": "address"
        },
        {
          "internalType": "address",
          "name": "_spender",
          "type": "address"
        },
        {
          "internalType": "uint256",
          "name": "_amount",
          "type": "uint256"
        }
      ],
      "name": "approve",
      "outputs": [],
      "stateMutability": "nonpayable",
      "type": "function"
    },
    {
      "inputs": [
        {
          "internalType": "address",
          "name": "_collateralToken",
          "type": "address"
        },
        {
          "internalType": "address",
          "name": "_indexToken",
          "type": "address"
        },
        {
          "internalType": "uint256",
          "name": "_collateralDelta",
          "type": "uint256"
        },
        {
          "internalType": "uint256",
          "name": "_sizeDelta",
          "type": "uint256"
        },
        {
          "internalType": "bool",
          "name": "_isLong",
          "type": "bool"
        },
        {
          "internalType": "address",
          "name": "_receiver",
          "type": "address"
        },
        {
          "internalType": "uint256",
          "name": "_price",
          "type": "uint256"
        }
      ],
      "name": "decreasePosition",
      "outputs": [],
      "stateMutability": "nonpayable",
      "type": "function"
    },
    {
      "inputs": [
        {
          "internalType": "address[]",
          "name": "_path",
          "type": "address[]"
        },
        {
          "internalType": "address",
          "name": "_indexToken",
          "type": "address"
        },
        {
          "internalType": "uint256",
          "name": "_collateralDelta",
          "type": "uint256"
        },
        {
          "internalType": "uint256",
          "name": "_sizeDelta",
          "type": "uint256"
        },
        {
          "internalType": "bool",
          "name": "_isLong",
          "type": "bool"
        },
        {
          "internalType": "address",
          "name": "_receiver",
          "type": "address"
        },
        {
          "internalType": "uint256",
          "name": "_price",
          "type": "uint256"
        },
        {
          "internalType": "uint256",
          "name": "_minOut",
          "type": "uint256"
        }
      ],
      "name": "decreasePositionAndSwap",
      "outputs": [],
      "stateMutability": "nonpayable",
      "type": "function"
    },
    {
      "inputs": [
        {
          "internalType": "address[]",
          "name": "_path",
          "type": "address[]"
        },
        {
          "internalType": "address",
          "name": "_indexToken",
          "type": "address"
        },
        {
          "internalType": "uint256",
          "name": "_collateralDelta",
          "type": "uint256"
        },
        {
          "internalType": "uint256",
          "name": "_sizeDelta",
          "type": "uint256"
        },
        {
          "internalType": "bool",
          "name": "_isLong",
          "type": "bool"
        },
        {
          "internalType": "address payable",
          "name": "_receiver",
          "type": "address"
        },
        {
          "internalType": "uint256",
          "name": "_price",
          "type": "uint256"
        },
        {
          "internalType": "uint256",
          "name": "_minOut",
          "type": "uint256"
        }
      ],
      "name": "decreasePositionAndSwapETH",
      "outputs": [],
      "stateMutability": "nonpayable",
      "type": "function"
    },
    {
      "inputs": [
        {
          "internalType": "address",
          "name": "_collateralToken",
          "type": "address"
        },
        {
          "internalType": "address",
          "name": "_indexToken",
          "type": "address"
        },
        {
          "internalType": "uint256",
          "name": "_collateralDelta",
          "type": "uint256"
        },
        {
          "internalType": "uint256",
          "name": "_sizeDelta",
          "type": "uint256"
        },
        {
          "internalType": "bool",
          "name": "_isLong",
          "type": "bool"
        },
        {
          "internalType": "address payable",
          "name": "_receiver",
          "type": "address"
        },
        {
          "internalType": "uint256",
          "name": "_price",
          "type": "uint256"
        }
      ],
      "name": "decreasePositionETH",
      "outputs": [],
      "stateMutability": "nonpayable",
      "type": "function"
    },
    {
      "inputs": [],
      "name": "depositFee",
      "outputs": [
        {
          "internalType": "uint256",
          "name": "",
          "type": "uint256"
        }
      ],
      "stateMutability": "view",
      "type": "function"
    },
    {
      "inputs": [],
      "name": "ethTransferGasLimit",
      "outputs": [
        {
          "internalType": "uint256",
          "name": "",
          "type": "uint256"
        }
      ],
      "stateMutability": "view",
      "type": "function"
    },
    {
      "inputs": [
        {
          "internalType": "address",
          "name": "_account",
          "type": "address"
        },
        {
          "internalType": "uint256",
          "name": "_orderIndex",
          "type": "uint256"
        },
        {
          "internalType": "address payable",
          "name": "_feeReceiver",
          "type": "address"
        }
      ],
      "name": "executeDecreaseOrder",
      "outputs": [],
      "stateMutability": "nonpayable",
      "type": "function"
    },
    {
      "inputs": [
        {
          "internalType": "address",
          "name": "_account",
          "type": "address"
        },
        {
          "internalType": "uint256",
          "name": "_orderIndex",
          "type": "uint256"
        },
        {
          "internalType": "address payable",
          "name": "_feeReceiver",
          "type": "address"
        }
      ],
      "name": "executeIncreaseOrder",
      "outputs": [],
      "stateMutability": "nonpayable",
      "type": "function"
    },
    {
      "inputs": [
        {
          "internalType": "address",
          "name": "_account",
          "type": "address"
        },
        {
          "internalType": "uint256",
          "name": "_orderIndex",
          "type": "uint256"
        },
        {
          "internalType": "address payable",
          "name": "_feeReceiver",
          "type": "address"
        }
      ],
      "name": "executeSwapOrder",
      "outputs": [],
      "stateMutability": "nonpayable",
      "type": "function"
    },
    {
      "inputs": [
        {
          "internalType": "address",
          "name": "",
          "type": "address"
        }
      ],
      "name": "feeReserves",
      "outputs": [
        {
          "internalType": "uint256",
          "name": "",
          "type": "uint256"
        }
      ],
      "stateMutability": "view",
      "type": "function"
    },
    {
      "inputs": [],
      "name": "gov",
      "outputs": [
        {
          "internalType": "address",
          "name": "",
          "type": "address"
        }
      ],
      "stateMutability": "view",
      "type": "function"
    },
    {
      "inputs": [],
      "name": "inLegacyMode",
      "outputs": [
        {
          "internalType": "bool",
          "name": "",
          "type": "bool"
        }
      ],
      "stateMutability": "view",
      "type": "function"
    },
    {
      "inputs": [
        {
          "internalType": "address[]",
          "name": "_path",
          "type": "address[]"
        },
        {
          "internalType": "address",
          "name": "_indexToken",
          "type": "address"
        },
        {
          "internalType": "uint256",
          "name": "_amountIn",
          "type": "uint256"
        },
        {
          "internalType": "uint256",
          "name": "_minOut",
          "type": "uint256"
        },
        {
          "internalType": "uint256",
          "name": "_sizeDelta",
          "type": "uint256"
        },
        {
          "internalType": "bool",
          "name": "_isLong",
          "type": "bool"
        },
        {
          "internalType": "uint256",
          "name": "_price",
          "type": "uint256"
        }
      ],
      "name": "increasePosition",
      "outputs": [],
      "stateMutability": "nonpayable",
      "type": "function"
    },
    {
      "inputs": [],
      "name": "increasePositionBufferBps",
      "outputs": [
        {
          "internalType": "uint256",
          "name": "",
          "type": "uint256"
        }
      ],
      "stateMutability": "view",
      "type": "function"
    },
    {
      "inputs": [
        {
          "internalType": "address[]",
          "name": "_path",
          "type": "address[]"
        },
        {
          "internalType": "address",
          "name": "_indexToken",
          "type": "address"
        },
        {
          "internalType": "uint256",
          "name": "_minOut",
          "type": "uint256"
        },
        {
          "internalType": "uint256",
          "name": "_sizeDelta",
          "type": "uint256"
        },
        {
          "internalType": "bool",
          "name": "_isLong",
          "type": "bool"
        },
        {
          "internalType": "uint256",
          "name": "_price",
          "type": "uint256"
        }
      ],
      "name": "increasePositionETH",
      "outputs": [],
      "stateMutability": "payable",
      "type": "function"
    },
    {
      "inputs": [
        {
          "internalType": "address",
          "name": "",
          "type": "address"
        }
      ],
      "name": "isLiquidator",
      "outputs": [
        {
          "internalType": "bool",
          "name": "",
          "type": "bool"
        }
      ],
      "stateMutability": "view",
      "type": "function"
    },
    {
      "inputs": [
        {
          "internalType": "address",
          "name": "",
          "type": "address"
        }
      ],
      "name": "isOrderKeeper",
      "outputs": [
        {
          "internalType": "bool",
          "name": "",
          "type": "bool"
        }
      ],
      "stateMutability": "view",
      "type": "function"
    },
    {
      "inputs": [
        {
          "internalType": "address",
          "name": "",
          "type": "address"
        }
      ],
      "name": "isPartner",
      "outputs": [
        {
          "internalType": "bool",
          "name": "",
          "type": "bool"
        }
      ],
      "stateMutability": "view",
      "type": "function"
    },
    {
      "inputs": [
        {
          "internalType": "address",
          "name": "_account",
          "type": "address"
        },
        {
          "internalType": "address",
          "name": "_collateralToken",
          "type": "address"
        },
        {
          "internalType": "address",
          "name": "_indexToken",
          "type": "address"
        },
        {
          "internalType": "bool",
          "name": "_isLong",
          "type": "bool"
        },
        {
          "internalType": "address",
          "name": "_feeReceiver",
          "type": "address"
        }
      ],
      "name": "liquidatePosition",
      "outputs": [],
      "stateMutability": "nonpayable",
      "type": "function"
    },
    {
      "inputs": [
        {
          "internalType": "address",
          "name": "",
          "type": "address"
        }
      ],
      "name": "maxGlobalLongSizes",
      "outputs": [
        {
          "internalType": "uint256",
          "name": "",
          "type": "uint256"
        }
      ],
      "stateMutability": "view",
      "type": "function"
    },
    {
      "inputs": [
        {
          "internalType": "address",
          "name": "",
          "type": "address"
        }
      ],
      "name": "maxGlobalShortSizes",
      "outputs": [
        {
          "internalType": "uint256",
          "name": "",
          "type": "uint256"
        }
      ],
      "stateMutability": "view",
      "type": "function"
    },
    {
      "inputs": [],
      "name": "orderBook",
      "outputs": [
        {
          "internalType": "address",
          "name": "",
          "type": "address"
        }
      ],
      "stateMutability": "view",
      "type": "function"
    },
    {
      "inputs": [],
      "name": "referralStorage",
      "outputs": [
        {
          "internalType": "address",
          "name": "",
          "type": "address"
        }
      ],
      "stateMutability": "view",
      "type": "function"
    },
    {
      "inputs": [],
      "name": "router",
      "outputs": [
        {
          "internalType": "address",
          "name": "",
          "type": "address"
        }
      ],
      "stateMutability": "view",
      "type": "function"
    },
    {
      "inputs": [
        {
          "internalType": "address payable",
          "name": "_receiver",
          "type": "address"
        },
        {
          "internalType": "uint256",
          "name": "_amount",
          "type": "uint256"
        }
      ],
      "name": "sendValue",
      "outputs": [],
      "stateMutability": "nonpayable",
      "type": "function"
    },
    {
      "inputs": [
        {
          "internalType": "address",
          "name": "_admin",
          "type": "address"
        }
      ],
      "name": "setAdmin",
      "outputs": [],
      "stateMutability": "nonpayable",
      "type": "function"
    },
    {
      "inputs": [
        {
          "internalType": "uint256",
          "name": "_depositFee",
          "type": "uint256"
        }
      ],
      "name": "setDepositFee",
      "outputs": [],
      "stateMutability": "nonpayable",
      "type": "function"
    },
    {
      "inputs": [
        {
          "internalType": "uint256",
          "name": "_ethTransferGasLimit",
          "type": "uint256"
        }
      ],
      "name": "setEthTransferGasLimit",
      "outputs": [],
      "stateMutability": "nonpayable",
      "type": "function"
    },
    {
      "inputs": [
        {
          "internalType": "address",
          "name": "_gov",
          "type": "address"
        }
      ],
      "name": "setGov",
      "outputs": [],
      "stateMutability": "nonpayable",
      "type": "function"
    },
    {
      "inputs": [
        {
          "internalType": "bool",
          "name": "_inLegacyMode",
          "type": "bool"
        }
      ],
      "name": "setInLegacyMode",
      "outputs": [],
      "stateMutability": "nonpayable",
      "type": "function"
    },
    {
      "inputs": [
        {
          "internalType": "uint256",
          "name": "_increasePositionBufferBps",
          "type": "uint256"
        }
      ],
      "name": "setIncreasePositionBufferBps",
      "outputs": [],
      "stateMutability": "nonpayable",
      "type": "function"
    },
    {
      "inputs": [
        {
          "internalType": "address",
          "name": "_account",
          "type": "address"
        },
        {
          "internalType": "bool",
          "name": "_isActive",
          "type": "bool"
        }
      ],
      "name": "setLiquidator",
      "outputs": [],
      "stateMutability": "nonpayable",
      "type": "function"
    },
    {
      "inputs": [
        {
          "internalType": "address[]",
          "name": "_tokens",
          "type": "address[]"
        },
        {
          "internalType": "uint256[]",
          "name": "_longSizes",
          "type": "uint256[]"
        },
        {
          "internalType": "uint256[]",
          "name": "_shortSizes",
          "type": "uint256[]"
        }
      ],
      "name": "setMaxGlobalSizes",
      "outputs": [],
      "stateMutability": "nonpayable",
      "type": "function"
    },
    {
      "inputs": [
        {
          "internalType": "address",
          "name": "_account",
          "type": "address"
        },
        {
          "internalType": "bool",
          "name": "_isActive",
          "type": "bool"
        }
      ],
      "name": "setOrderKeeper",
      "outputs": [],
      "stateMutability": "nonpayable",
      "type": "function"
    },
    {
      "inputs": [
        {
          "internalType": "address",
          "name": "_account",
          "type": "address"
        },
        {
          "internalType": "bool",
          "name": "_isActive",
          "type": "bool"
        }
      ],
      "name": "setPartner",
      "outputs": [],
      "stateMutability": "nonpayable",
      "type": "function"
    },
    {
      "inputs": [
        {
          "internalType": "address",
          "name": "_referralStorage",
          "type": "address"
        }
      ],
      "name": "setReferralStorage",
      "outputs": [],
      "stateMutability": "nonpayable",
      "type": "function"
    },
    {
      "inputs": [
        {
          "internalType": "bool",
          "name": "_shouldValidateIncreaseOrder",
          "type": "bool"
        }
      ],
      "name": "setShouldValidateIncreaseOrder",
      "outputs": [],
      "stateMutability": "nonpayable",
      "type": "function"
    },
    {
      "inputs": [],
      "name": "shortsTracker",
      "outputs": [
        {
          "internalType": "address",
          "name": "",
          "type": "address"
        }
      ],
      "stateMutability": "view",
      "type": "function"
    },
    {
      "inputs": [],
      "name": "shouldValidateIncreaseOrder",
      "outputs": [
        {
          "internalType": "bool",
          "name": "",
          "type": "bool"
        }
      ],
      "stateMutability": "view",
      "type": "function"
    },
    {
      "inputs": [],
      "name": "vault",
      "outputs": [
        {
          "internalType": "address",
          "name": "",
          "type": "address"
        }
      ],
      "stateMutability": "view",
      "type": "function"
    },
    {
      "inputs": [],
      "name": "weth",
      "outputs": [
        {
          "internalType": "address",
          "name": "",
          "type": "address"
        }
      ],
      "stateMutability": "view",
      "type": "function"
    },
    {
      "inputs": [
        {
          "internalType": "address",
          "name": "_token",
          "type": "address"
        },
        {
          "internalType": "address",
          "name": "_receiver",
          "type": "address"
        }
      ],
      "name": "withdrawFees",
      "outputs": [],
      "stateMutability": "nonpayable",
      "type": "function"
    },
    {
      "stateMutability": "payable",
      "type": "receive"
    }
  ],
  "bytecode": {
    "object": "0x60806040526207a1206007556064600955600e805460ff60a81b1916600160a81b1790553480156200003057600080fd5b5060405162004586380380620045868339810160408190526200005391620000f5565b600160008190558054336001600160a01b031991821681179092556003805482166001600160a01b03998a161790556005805482169789169790971790965560068054871694881694909417909355600891909155600480548516938616939093179092556002805484169091179055600e805490921692169190911790556200016d565b80516001600160a01b0381168114620000f057600080fd5b919050565b60008060008060008060c087890312156200010f57600080fd5b6200011a87620000d8565b95506200012a60208801620000d8565b94506200013a60408801620000d8565b93506200014a60608801620000d8565b9250608087015191506200016160a08801620000d8565b90509295509295509295565b614409806200017d6000396000f3fe6080604052600436106102755760003560e01c80635fc8500e1161014f578063b32755de116100c1578063e1f21c671161007a578063e1f21c6714610810578063ef12c67e14610830578063f255527814610850578063f851a44014610870578063f887ea4014610890578063fbfa77cf146108b057600080fd5b8063b32755de1461075c578063b7ddc9921461076f578063cfad57a21461078f578063d38ab519146107af578063d4ca83f9146107cf578063de2ea948146107f057600080fd5b80638c0f9aac116101135780638c0f9aac1461068957806390205d8c146106b95780639698d25a146106d957806398d1e03a146107065780639c95332f1461071c578063ae4d7f9a1461073c57600080fd5b80635fc8500e146105f3578063657bc5d01461061357806367a5279314610633578063704b6c0214610649578063776af5ba1461066957600080fd5b806324a084df116101e85780633fc8cef3116101ac5780633fc8cef314610522578063430ed37c146105425780634453a374146105625780634584bd4b14610582578063490ae210146105a3578063529a356f146105c357600080fd5b806324a084df1461046c5780632d79cf421461048c5780633039e37f146104a25780633833f5f5146104c25780633a9b52ad1461050257600080fd5b806312d43a511161023a57806312d43a511461039f5780631b904359146103bf5780631ce9cb8f146103df5780631e2615381461040c57806321acf6591461042c578063233bfe3b1461044c57600080fd5b80626cc35e146102d157806307c7edc31461030e5780631045c74e1461032e57806311d9444a14610369578063126082cf1461038957600080fd5b366102cc576006546001600160a01b031633146102ca5760405162461bcd60e51b815260206004820152600e60248201526d34b73b30b634b21039b2b73232b960911b60448201526064015b60405180910390fd5b005b600080fd5b3480156102dd57600080fd5b50600a546102f1906001600160a01b031681565b6040516001600160a01b0390911681526020015b60405180910390f35b34801561031a57600080fd5b506102ca610329366004613917565b6108d0565b34801561033a57600080fd5b5061035b610349366004613959565b600c6020526000908152604090205481565b604051908152602001610305565b34801561037557600080fd5b506102ca610384366004613917565b610972565b34801561039557600080fd5b5061035b61271081565b3480156103ab57600080fd5b506001546102f1906001600160a01b031681565b3480156103cb57600080fd5b506102ca6103da366004613984565b610d2b565b3480156103eb57600080fd5b5061035b6103fa366004613959565b600b6020526000908152604090205481565b34801561041857600080fd5b506102ca6104273660046139a1565b610dad565b34801561043857600080fd5b506102ca6104473660046139a1565b610e37565b34801561045857600080fd5b506102ca6104673660046139da565b610ec4565b34801561047857600080fd5b506102ca6104873660046139f3565b610f23565b34801561049857600080fd5b5061035b60075481565b3480156104ae57600080fd5b506102ca6104bd366004613afe565b610f64565b3480156104ce57600080fd5b506104f26104dd366004613959565b600f6020526000908152604090205460ff1681565b6040519015158152602001610305565b34801561050e57600080fd5b506102ca61051d3660046139da565b611107565b34801561052e57600080fd5b506006546102f1906001600160a01b031681565b34801561054e57600080fd5b506102ca61055d366004613b9a565b611166565b34801561056e57600080fd5b506102ca61057d3660046139a1565b611249565b34801561058e57600080fd5b50600e546104f290600160a81b900460ff1681565b3480156105af57600080fd5b506102ca6105be3660046139da565b6112cb565b3480156105cf57600080fd5b506104f26105de366004613959565b60116020526000908152604090205460ff1681565b3480156105ff57600080fd5b506102ca61060e366004613afe565b61132a565b34801561061f57600080fd5b506004546102f1906001600160a01b031681565b34801561063f57600080fd5b5061035b60085481565b34801561065557600080fd5b506102ca610664366004613959565b6113e9565b34801561067557600080fd5b50600e546102f1906001600160a01b031681565b34801561069557600080fd5b506104f26106a4366004613959565b60106020526000908152604090205460ff1681565b3480156106c557600080fd5b506102ca6106d4366004613b9a565b611461565b3480156106e557600080fd5b5061035b6106f4366004613959565b600d6020526000908152604090205481565b34801561071257600080fd5b5061035b60095481565b34801561072857600080fd5b506102ca610737366004613984565b6114bc565b34801561074857600080fd5b506102ca610757366004613959565b611533565b6102ca61076a366004613c15565b6115ab565b34801561077b57600080fd5b506102ca61078a366004613c95565b61177c565b34801561079b57600080fd5b506102ca6107aa366004613959565b6119d3565b3480156107bb57600080fd5b506102ca6107ca366004613917565b611a75565b3480156107db57600080fd5b50600e546104f290600160a01b900460ff1681565b3480156107fc57600080fd5b506102ca61080b366004613d09565b611e2d565b34801561081c57600080fd5b506102ca61082b366004613d7a565b612202565b34801561083c57600080fd5b506102ca61084b366004613e16565b6122a5565b34801561085c57600080fd5b506102ca61086b366004613e9e565b6123c7565b34801561087c57600080fd5b506002546102f1906001600160a01b031681565b34801561089c57600080fd5b506005546102f1906001600160a01b031681565b3480156108bc57600080fd5b506003546102f1906001600160a01b031681565b336000908152600f602052604090205460ff166108ff5760405162461bcd60e51b81526004016102c190613ecc565b600e546040516307c7edc360e01b81526001600160a01b038581166004830152602482018590528381166044830152909116906307c7edc390606401600060405180830381600087803b15801561095557600080fd5b505af1158015610969573d6000803e3d6000fd5b50505050505050565b336000908152600f602052604090205460ff166109a15760405162461bcd60e51b81526004016102c190613ecc565b600354604080516312d43a5160e01b815290516001600160a01b039092169160009183916312d43a51916004808201926020929091908290030181865afa1580156109f0573d6000803e3d6000fd5b505050506040513d601f19601f82011682018060405250810190610a149190613f03565b600e54604051630130197760e11b81526001600160a01b038881166004830152602482018890529293506000928392839283929091169063026032ee9060440161010060405180830381865afa158015610a72573d6000803e3d6000fd5b505050506040513d601f19601f82011682018060405250810190610a969190613f20565b505050945094509450509350600081610b1857604051637092736960e11b81526001600160a01b03858116600483015288169063e124e6d290602401602060405180830381865afa158015610aef573d6000803e3d6000fd5b505050506040513d601f19601f82011682018060405250810190610b139190613fa8565b610b82565b6040516340d3096b60e11b81526001600160a01b0385811660048301528816906381a612d690602401602060405180830381865afa158015610b5e573d6000803e3d6000fd5b505050506040513d601f19601f82011682018060405250810190610b829190613fa8565b60048054604051633cc8e33b60e21b81529293506001600160a01b03169163f3238cec91610bbf918e918a918a9189918b918a9160009101613fc1565b600060405180830381600087803b158015610bd957600080fd5b505af1158015610bed573d6000803e3d6000fd5b50506040516306d63c1d60e41b81526001600160a01b038a8116600483015289169250636d63c1d09150602401600060405180830381600087803b158015610c3457600080fd5b505af1158015610c48573d6000803e3d6000fd5b5050600e546040516308eca22560e11b81526001600160a01b038e81166004830152602482018e90528c8116604483015290911692506311d9444a9150606401600060405180830381600087803b158015610ca257600080fd5b505af1158015610cb6573d6000803e3d6000fd5b505060405163d3c87bbb60e01b81526001600160a01b038a811660048301528916925063d3c87bbb9150602401600060405180830381600087803b158015610cfd57600080fd5b505af1158015610d11573d6000803e3d6000fd5b50505050610d1f8a84612483565b50505050505050505050565b6002546001600160a01b03163314610d555760405162461bcd60e51b81526004016102c190614002565b600e8054821515600160a81b0260ff60a81b199091161790556040517fa956222e37fe025ff51e5440ac729a9bd417ff91e485e14dcffa2c0ba8894f4090610da290831515815260200190565b60405180910390a150565b6002546001600160a01b03163314610dd75760405162461bcd60e51b81526004016102c190614002565b6001600160a01b0382166000818152600f6020908152604091829020805460ff191685151590811790915591519182527f1d5bc0255b943d6a5b5279e8a55d74d620baccbceecb25e87a3558f14c4c118e91015b60405180910390a25050565b6002546001600160a01b03163314610e615760405162461bcd60e51b81526004016102c190614002565b6001600160a01b038216600081815260106020908152604091829020805460ff19168515159081179091558251938452908301527fa4e46c70ff429a91de7d1716d736e877c7cca1c22ac850b23d242530dd95e474910160405180910390a15050565b6002546001600160a01b03163314610eee5760405162461bcd60e51b81526004016102c190614002565b60098190556040518181527f21167d0d4661af93817ebce920f18986eed3d75d5e1c03f2aed05efcbafbc45290602001610da2565b6001546001600160a01b03163314610f4d5760405162461bcd60e51b81526004016102c190614025565b610f606001600160a01b0383168261264d565b5050565b610f6c6126e9565b3360009081526010602052604090205460ff1680610f935750600e54600160a01b900460ff165b610faf5760405162461bcd60e51b81526004016102c190613ecc565b8751600214610fd05760405162461bcd60e51b81526004016102c190614054565b60065488516001600160a01b03909116908990610fef906001906140af565b81518110610fff57610fff6140c2565b60200260200101516001600160a01b03161461105d5760405162461bcd60e51b815260206004820152601e60248201527f506f736974696f6e4d616e616765723a20696e76616c6964205f70617468000060448201526064016102c1565b6000611089338a600081518110611076576110766140c2565b60200260200101518a8a8a8a308a612713565b90506110d8600360009054906101000a90046001600160a01b0316828b6000815181106110b8576110b86140c2565b60200260200101516001600160a01b0316612b1c9092919063ffffffff16565b60006110e58a8430612b6e565b90506110f18186612c06565b50506110fd6001600055565b5050505050505050565b6002546001600160a01b031633146111315760405162461bcd60e51b81526004016102c190614002565b60078190556040518181527f4d371d598d3a13f99ce992a17975bbaf1e1c256e072ec7d2f93ce88e40d9ba1c90602001610da2565b61116e6126e9565b3360009081526010602052604090205460ff16806111955750600e54600160a01b900460ff165b6111b15760405162461bcd60e51b81526004016102c190613ecc565b6006546001600160a01b038881169116146112205760405162461bcd60e51b815260206004820152602960248201527f506f736974696f6e4d616e616765723a20696e76616c6964205f636f6c6c617460448201526832b930b62a37b5b2b760b91b60648201526084016102c1565b60006112323389898989893089612713565b905061123e8184612c06565b506109696001600055565b6002546001600160a01b031633146112735760405162461bcd60e51b81526004016102c190614002565b6001600160a01b038216600081815260116020908152604091829020805460ff191685151590811790915591519182527f8c0d56805c3b43d441481229dc64bee168253ffe4305f37ab7cfe63b1c4268c69101610e2b565b6002546001600160a01b031633146112f55760405162461bcd60e51b81526004016102c190614002565b60088190556040518181527f974fd3c1fcb4653dfc4fb740c4c692cd212d55c28f163f310128cb64d830067590602001610da2565b6113326126e9565b3360009081526010602052604090205460ff16806113595750600e54600160a01b900460ff165b6113755760405162461bcd60e51b81526004016102c190613ecc565b87516002146113965760405162461bcd60e51b81526004016102c190614054565b60006113af338a600081518110611076576110766140c2565b90506113de600360009054906101000a90046001600160a01b0316828b6000815181106110b8576110b86140c2565b6110f1898386612b6e565b6001546001600160a01b031633146114135760405162461bcd60e51b81526004016102c190614025565b600280546001600160a01b0319166001600160a01b0383169081179091556040519081527f5a272403b402d892977df56625f4164ccaf70ca3863991c43ecfe76a6905b0a190602001610da2565b6114696126e9565b3360009081526010602052604090205460ff16806114905750600e54600160a01b900460ff165b6114ac5760405162461bcd60e51b81526004016102c190613ecc565b61123e3388888888888888612713565b6002546001600160a01b031633146114e65760405162461bcd60e51b81526004016102c190614002565b600e8054821515600160a01b0260ff60a01b199091161790556040517feac6b3611e79ff0d8ea5daa8439f6b1ab7eea4ebf95f1dd360417f712c3fc30490610da290831515815260200190565b6002546001600160a01b0316331461155d5760405162461bcd60e51b81526004016102c190614002565b600a80546001600160a01b0319166001600160a01b0383169081179091556040519081527f828abcccea18192c21d645e575652c49e20b986dab777906fc473d056b01b6a890602001610da2565b6115b36126e9565b3360009081526010602052604090205460ff16806115da5750600e54600160a01b900460ff165b6115f65760405162461bcd60e51b81526004016102c190613ecc565b855160011480611607575085516002145b6116235760405162461bcd60e51b81526004016102c190614054565b60065486516001600160a01b03909116908790600090611645576116456140c2565b60200260200101516001600160a01b0316146116a35760405162461bcd60e51b815260206004820152601e60248201527f506f736974696f6e4d616e616765723a20696e76616c6964205f70617468000060448201526064016102c1565b3415611736576116b1612d92565b85513490600110156116e8576003546006546116da916001600160a01b03918216911634612b1c565b6116e5878630612b6e565b90505b60006116f83389848a888a612dfe565b9050611733600360009054906101000a90046001600160a01b0316828a60018c5161172391906140af565b815181106110b8576110b86140c2565b50505b61176a33876001895161174991906140af565b81518110611759576117596140c2565b602002602001015187868686612f67565b6117746001600055565b505050505050565b6117846126e9565b3360009081526010602052604090205460ff16806117ab5750600e54600160a01b900460ff165b6117c75760405162461bcd60e51b81526004016102c190613ecc565b8651600114806117d8575086516002145b6117f45760405162461bcd60e51b81526004016102c190614054565b84156119955786516001036118a75760055487516001600160a01b0390911690631b82787890899060009061182b5761182b6140c2565b60209081029190910101516040516001600160e01b031960e084901b1681526001600160a01b03909116600482015233602482015230604482015260648101889052608401600060405180830381600087803b15801561188a57600080fd5b505af115801561189e573d6000803e3d6000fd5b50505050611958565b60055487516001600160a01b0390911690631b8278789089906000906118cf576118cf6140c2565b60209081029190910101516003546040516001600160e01b031960e085901b1681526001600160a01b0392831660048201523360248201529116604482015260648101889052608401600060405180830381600087803b15801561193257600080fd5b505af1158015611946573d6000803e3d6000fd5b50505050611955878530612b6e565b94505b60006119683389888a8789612dfe565b9050611993600360009054906101000a90046001600160a01b0316828a60018c5161172391906140af565b505b6119c9338860018a516119a891906140af565b815181106119b8576119b86140c2565b602002602001015188868686612f67565b6109696001600055565b6001546001600160a01b031633146119fd5760405162461bcd60e51b81526004016102c190614025565b6001600160a01b038116611a535760405162461bcd60e51b815260206004820181905260248201527f476f7665726e61626c653a205f676f76206973207a65726f206164647265737360448201526064016102c1565b600180546001600160a01b0319166001600160a01b0392909216919091179055565b336000908152600f602052604090205460ff16611aa45760405162461bcd60e51b81526004016102c190613ecc565b611aae8383613034565b600354604080516312d43a5160e01b815290516001600160a01b039092169160009183916312d43a51916004808201926020929091908290030181865afa158015611afd573d6000803e3d6000fd5b505050506040513d601f19601f82011682018060405250810190611b219190613f03565b600e5460405163d3bab1d160e01b81526001600160a01b038881166004830152602482018890529293506000928392839283929091169063d3bab1d19060440161012060405180830381865afa158015611b7f573d6000803e3d6000fd5b505050506040513d601f19601f82011682018060405250810190611ba391906140d8565b50505095509550955095505050600081611c26576040516340d3096b60e11b81526001600160a01b0385811660048301528816906381a612d690602401602060405180830381865afa158015611bfd573d6000803e3d6000fd5b505050506040513d601f19601f82011682018060405250810190611c219190613fa8565b611c90565b604051637092736960e11b81526001600160a01b03858116600483015288169063e124e6d290602401602060405180830381865afa158015611c6c573d6000803e3d6000fd5b505050506040513d601f19601f82011682018060405250810190611c909190613fa8565b60048054604051633cc8e33b60e21b81529293506001600160a01b03169163f3238cec91611ccd918e918a918a9189918b918a9160019101613fc1565b600060405180830381600087803b158015611ce757600080fd5b505af1158015611cfb573d6000803e3d6000fd5b50506040516306d63c1d60e41b81526001600160a01b038a8116600483015289169250636d63c1d09150602401600060405180830381600087803b158015611d4257600080fd5b505af1158015611d56573d6000803e3d6000fd5b5050600e5460405163d38ab51960e01b81526001600160a01b038e81166004830152602482018e90528c81166044830152909116925063d38ab5199150606401600060405180830381600087803b158015611db057600080fd5b505af1158015611dc4573d6000803e3d6000fd5b505060405163d3c87bbb60e01b81526001600160a01b038a811660048301528916925063d3c87bbb9150602401600060405180830381600087803b158015611e0b57600080fd5b505af1158015611e1f573d6000803e3d6000fd5b50505050610d1f8a84613341565b611e356126e9565b3360009081526011602052604090205460ff16611e645760405162461bcd60e51b81526004016102c190613ecc565b600354604080516312d43a5160e01b815290516001600160a01b039092169160009183916312d43a51916004808201926020929091908290030181865afa158015611eb3573d6000803e3d6000fd5b505050506040513d601f19601f82011682018060405250810190611ed79190613f03565b600354604051634a3f088d60e01b81526001600160a01b038a8116600483015289811660248301528881166044830152871515606483015292935060009290911690634a3f088d9060840161010060405180830381865afa158015611f40573d6000803e3d6000fd5b505050506040513d601f19601f82011682018060405250810190611f649190614174565b505050505050509050600085611fe357604051637092736960e11b81526001600160a01b03888116600483015285169063e124e6d290602401602060405180830381865afa158015611fba573d6000803e3d6000fd5b505050506040513d601f19601f82011682018060405250810190611fde9190613fa8565b61204d565b6040516340d3096b60e11b81526001600160a01b0388811660048301528516906381a612d690602401602060405180830381865afa158015612029573d6000803e3d6000fd5b505050506040513d601f19601f8201168201806040525081019061204d9190613fa8565b60048054604051633cc8e33b60e21b81529293506001600160a01b03169163f3238cec9161208a918d918d918d918d918a918a9160009101613fc1565b600060405180830381600087803b1580156120a457600080fd5b505af11580156120b8573d6000803e3d6000fd5b50506040516306d63c1d60e41b81526001600160a01b03878116600483015286169250636d63c1d09150602401600060405180830381600087803b1580156120ff57600080fd5b505af1158015612113573d6000803e3d6000fd5b5050604051631bc5d52960e31b81526001600160a01b038c811660048301528b811660248301528a81166044830152891515606483015288811660848301528716925063de2ea948915060a401600060405180830381600087803b15801561217a57600080fd5b505af115801561218e573d6000803e3d6000fd5b505060405163d3c87bbb60e01b81526001600160a01b0387811660048301528616925063d3c87bbb9150602401600060405180830381600087803b1580156121d557600080fd5b505af11580156121e9573d6000803e3d6000fd5b50505050505050506121fb6001600055565b5050505050565b6001546001600160a01b0316331461222c5760405162461bcd60e51b81526004016102c190614025565b60405163095ea7b360e01b81526001600160a01b0383811660048301526024820183905284169063095ea7b3906044016020604051808303816000875af115801561227b573d6000803e3d6000fd5b505050506040513d601f19601f8201168201806040525081019061229f91906141c6565b50505050565b6002546001600160a01b031633146122cf5760405162461bcd60e51b81526004016102c190614002565b60005b83518110156123865760008482815181106122ef576122ef6140c2565b6020026020010151905083828151811061230b5761230b6140c2565b6020026020010151600c6000836001600160a01b03166001600160a01b031681526020019081526020016000208190555082828151811061234e5761234e6140c2565b6020908102919091018101516001600160a01b039092166000908152600d90915260409020558061237e816141e3565b9150506122d2565b507fae32d569b058895b9620d6552b09aaffedc9a6f396be4d595a224ad09f8b21398383836040516123ba93929190614237565b60405180910390a1505050565b6002546001600160a01b031633146123f15760405162461bcd60e51b81526004016102c190614002565b6001600160a01b0382166000908152600b60205260408120549081900361241757505050565b6001600160a01b0383166000818152600b602052604081205561243b908383612b1c565b604080516001600160a01b038086168252841660208201529081018290527f4f1b51dd7a2fcb861aa2670f668be66835c4ee12b4bbbf037e4d0018f39819e4906060016123ba565b600a546001600160a01b03168061249957505050565b60405163534ef88360e01b81526001600160a01b038481166004830152600091829184169063534ef883906024016040805180830381865afa1580156124e3573d6000803e3d6000fd5b505050506040513d601f19601f8201168201806040525081019061250791906142a2565b909250905081612518575050505050565b600354604080516312d43a5160e01b815290516000926001600160a01b0316916312d43a519160048083019260209291908290030181865afa158015612562573d6000803e3d6000fd5b505050506040513d601f19601f820116820180604052508101906125869190613f03565b90507f474c763ff84bf2c2039a6d9fea955ecd0f724030e3c365b91169c6a16fe751b78686836001600160a01b031663318bc6896040518163ffffffff1660e01b81526004016020604051808303816000875af11580156125eb573d6000803e3d6000fd5b505050506040513d601f19601f8201168201806040525081019061260f9190613fa8565b604080516001600160a01b039485168152602081019390935282015260608101869052908416608082015260a00160405180910390a1505050505050565b804710156126705760405163cd78605960e01b81523060048201526024016102c1565b6000826001600160a01b03168260405160006040518083038185875af1925050503d80600081146126bd576040519150601f19603f3d011682016040523d82523d6000602084013e6126c2565b606091505b50509050806126e457604051630a12f52160e11b815260040160405180910390fd5b505050565b60026000540361270c57604051633ee5aeb560e01b815260040160405180910390fd5b6002600055565b6003546000906001600160a01b0316818561279757604051637092736960e11b81526001600160a01b038a8116600483015283169063e124e6d290602401602060405180830381865afa15801561276e573d6000803e3d6000fd5b505050506040513d601f19601f820116820180604052508101906127929190613fa8565b612801565b6040516340d3096b60e11b81526001600160a01b038a811660048301528316906381a612d690602401602060405180830381865afa1580156127dd573d6000803e3d6000fd5b505050506040513d601f19601f820116820180604052508101906128019190613fa8565b90508515612852578381101561284d5760405162461bcd60e51b81526020600482015260116024820152706d61726b5072696365203c20707269636560781b60448201526064016102c1565b612896565b838111156128965760405162461bcd60e51b81526020600482015260116024820152706d61726b5072696365203e20707269636560781b60448201526064016102c1565b6000826001600160a01b03166312d43a516040518163ffffffff1660e01b8152600401602060405180830381865afa1580156128d6573d6000803e3d6000fd5b505050506040513d601f19601f820116820180604052508101906128fa9190613f03565b9050600460009054906101000a90046001600160a01b03166001600160a01b031663f3238cec8d8d8d8b8d8860006040518863ffffffff1660e01b815260040161294a9796959493929190613fc1565b600060405180830381600087803b15801561296457600080fd5b505af1158015612978573d6000803e3d6000fd5b50506040516306d63c1d60e41b81526001600160a01b03868116600483015284169250636d63c1d09150602401600060405180830381600087803b1580156129bf57600080fd5b505af11580156129d3573d6000803e3d6000fd5b505050506000600560009054906101000a90046001600160a01b03166001600160a01b0316632662166b8e8e8e8e8e8e8e6040518863ffffffff1660e01b8152600401612a6097969594939291906001600160a01b0397881681529587166020870152938616604086015260608501929092526080840152151560a083015290911660c082015260e00190565b6020604051808303816000875af1158015612a7f573d6000803e3d6000fd5b505050506040513d601f19601f82011682018060405250810190612aa39190613fa8565b60405163d3c87bbb60e01b81526001600160a01b0386811660048301529192509083169063d3c87bbb90602401600060405180830381600087803b158015612aea57600080fd5b505af1158015612afe573d6000803e3d6000fd5b50505050612b0c8d8a612483565b9c9b505050505050505050505050565b604080516001600160a01b038416602482015260448082018490528251808303909101815260649091019091526020810180516001600160e01b031663a9059cbb60e01b1790526126e49084906134a9565b60008351600203612bc057612bb984600081518110612b8f57612b8f6140c2565b602002602001015185600181518110612baa57612baa6140c2565b6020026020010151858561350c565b9050612bff565b60405162461bcd60e51b81526020600482015260146024820152730d2dcecc2d8d2c840bee0c2e8d05cd8cadccee8d60631b60448201526064016102c1565b9392505050565b600654604051632e1a7d4d60e01b8152600481018490526001600160a01b03909116908190632e1a7d4d90602401600060405180830381600087803b158015612c4e57600080fd5b505af1158015612c62573d6000803e3d6000fd5b5050600754604051600093506001600160a01b0386169250869084818181858888f193505050503d8060008114612cb5576040519150601f19603f3d011682016040523d82523d6000602084013e612cba565b606091505b505090508015612cca5750505050565b816001600160a01b031663d0e30db0856040518263ffffffff1660e01b81526004016000604051808303818588803b158015612d0557600080fd5b505af1158015612d19573d6000803e3d6000fd5b505060405163a9059cbb60e01b81526001600160a01b038781166004830152602482018990528616935063a9059cbb925060440190506020604051808303816000875af1158015612d6e573d6000803e3d6000fd5b505050506040513d601f19601f820116820180604052508101906121fb91906141c6565b3415612dfc57600660009054906101000a90046001600160a01b03166001600160a01b031663d0e30db0346040518263ffffffff1660e01b81526004016000604051808303818588803b158015612de857600080fd5b505af11580156121fb573d6000803e3d6000fd5b565b600354600954604051630e0cab5560e41b8152600092839273__$87ae3bb409cfa09d45ebd7b94998fca839$__9263e0cab55092612e56926001600160a01b03909116918d918d918d918d918d918d916004016142c7565b602060405180830381865af4158015612e73573d6000803e3d6000fd5b505050506040513d601f19601f82011682018060405250810190612e9791906141c6565b90508015612f58576000612710600854612710612eb491906140af565b612ebe9089614358565b612ec8919061436f565b90506000612ed682896140af565b905060008960018b51612ee991906140af565b81518110612ef957612ef96140c2565b6020026020010151905081600b6000836001600160a01b03166001600160a01b0316815260200190815260200160002054612f349190614391565b6001600160a01b039091166000908152600b6020526040902055509150612f5d9050565b859150505b9695505050505050565b612f728483856135e6565b600354600554600480546040516317c3cf0f60e31b81526001600160a01b0394851692810192909252918316602482015290821660448201528782166064820152868216608482015290851660a482015260c4810184905282151560e4820152610104810182905273__$87ae3bb409cfa09d45ebd7b94998fca839$__9063be1e7878906101240160006040518083038186803b15801561301257600080fd5b505af4158015613026573d6000803e3d6000fd5b505050506117748684613341565b600e5460405163d3bab1d160e01b81526001600160a01b03848116600483015260248201849052600092839283928392839283929091169063d3bab1d19060440161012060405180830381865afa158015613093573d6000803e3d6000fd5b505050506040513d601f19601f820116820180604052508101906130b791906140d8565b5050509550955095509550955095506130d18382846135e6565b600e54600160a81b900460ff166130ec575050505050505050565b806130fb575050505050505050565b6000821161314b5760405162461bcd60e51b815260206004820152601d60248201527f506f736974696f6e4d616e616765723a206c6f6e67206465706f73697400000060448201526064016102c1565b600354604051634a3f088d60e01b81526001600160a01b038a811660048301528681166024830152858116604483015283151560648301529091169060009081908390634a3f088d9060840161010060405180830381865afa1580156131b5573d6000803e3d6000fd5b505050506040513d601f19601f820116820180604052508101906131d99190614174565b50505050505091509150816000036131f8575050505050505050505050565b60006132048684614391565b604051630a48d5a960e01b81526001600160a01b038c81166004830152602482018c9052919250600091861690630a48d5a990604401602060405180830381865afa158015613257573d6000803e3d6000fd5b505050506040513d601f19601f8201168201806040525081019061327b9190613fa8565b905060006132898285614391565b905060008461329a61271088614358565b6132a4919061436f565b90506000826009546127106132b99190614391565b6132c39087614358565b6132cd919061436f565b90508181101561332f5760405162461bcd60e51b815260206004820152602760248201527f506f736974696f6e4d616e616765723a206c6f6e67206c6576657261676520646044820152666563726561736560c81b60648201526084016102c1565b50505050505050505050505050505050565b600a546001600160a01b03168061335757505050565b60405163534ef88360e01b81526001600160a01b038481166004830152600091829184169063534ef883906024016040805180830381865afa1580156133a1573d6000803e3d6000fd5b505050506040513d601f19601f820116820180604052508101906133c591906142a2565b9092509050816133d6575050505050565b600354604080516312d43a5160e01b815290516000926001600160a01b0316916312d43a519160048083019260209291908290030181865afa158015613420573d6000803e3d6000fd5b505050506040513d601f19601f820116820180604052508101906134449190613f03565b90507fc2414023ce7002ee98557d1e7be21e5559073336f2217ee5f9b2e50fd85f71ee8686836001600160a01b031663318bc6896040518163ffffffff1660e01b81526004016020604051808303816000875af11580156125eb573d6000803e3d6000fd5b60006134be6001600160a01b038416836137be565b905080516000141580156134e35750808060200190518101906134e191906141c6565b155b156126e457604051635274afe760e01b81526001600160a01b03841660048201526024016102c1565b600354604051634998b10960e11b81526001600160a01b0386811660048301528581166024830152838116604483015260009283929116906393316212906064016020604051808303816000875af115801561356c573d6000803e3d6000fd5b505050506040513d601f19601f820116820180604052508101906135909190613fa8565b9050838110156135db5760405162461bcd60e51b81526020600482015260166024820152751a5b9cdd59999a58da595b9d08185b5bdd5b9d13dd5d60521b60448201526064016102c1565b90505b949350505050565b806000036135f357505050565b81156136db576001600160a01b0383166000908152600c60205260409020548015801590613699575060035460405163783a2b6760e11b81526001600160a01b0386811660048301528392859291169063f07456ce90602401602060405180830381865afa158015613669573d6000803e3d6000fd5b505050506040513d601f19601f8201168201806040525081019061368d9190613fa8565b6136979190614391565b115b1561229f5760405162461bcd60e51b81526020600482015260126024820152711b585e081b1bdb99dcc8195e18d95959195960721b60448201526064016102c1565b6001600160a01b0383166000908152600d6020526040902054801580159061377b575060035460405163114f1b5560e31b81526001600160a01b03868116600483015283928592911690638a78daa890602401602060405180830381865afa15801561374b573d6000803e3d6000fd5b505050506040513d601f19601f8201168201806040525081019061376f9190613fa8565b6137799190614391565b115b1561229f5760405162461bcd60e51b81526020600482015260136024820152721b585e081cda1bdc9d1cc8195e18d959591959606a1b60448201526064016102c1565b60606137cf838360006137d86137f1565b90505b92915050565b604051630a12f52160e11b815260040160405180910390fd5b6060824710156138165760405163cd78605960e01b81523060048201526024016102c1565b600080866001600160a01b0316858760405161383291906143a4565b60006040518083038185875af1925050503d806000811461386f576040519150601f19603f3d011682016040523d82523d6000602084013e613874565b606091505b509150915061388587838387613890565b979650505050505050565b606083156138de5782516000036138d757846001600160a01b03163b6000036138d757604051639996b31560e01b81526001600160a01b03861660048201526024016102c1565b50816135de565b6135de83838151156138f35781518083602001fd5b6137d88163ffffffff16565b6001600160a01b038116811461391457600080fd5b50565b60008060006060848603121561392c57600080fd5b8335613937816138ff565b925060208401359150604084013561394e816138ff565b809150509250925092565b60006020828403121561396b57600080fd5b8135612bff816138ff565b801515811461391457600080fd5b60006020828403121561399657600080fd5b8135612bff81613976565b600080604083850312156139b457600080fd5b82356139bf816138ff565b915060208301356139cf81613976565b809150509250929050565b6000602082840312156139ec57600080fd5b5035919050565b60008060408385031215613a0657600080fd5b8235613a11816138ff565b946020939093013593505050565b634e487b7160e01b600052604160045260246000fd5b604051601f8201601f1916810167ffffffffffffffff81118282101715613a5e57613a5e613a1f565b604052919050565b600067ffffffffffffffff821115613a8057613a80613a1f565b5060051b60200190565b600082601f830112613a9b57600080fd5b81356020613ab0613aab83613a66565b613a35565b82815260059290921b84018101918181019086841115613acf57600080fd5b8286015b84811015613af3578035613ae6816138ff565b8352918301918301613ad3565b509695505050505050565b600080600080600080600080610100898b031215613b1b57600080fd5b883567ffffffffffffffff811115613b3257600080fd5b613b3e8b828c01613a8a565b9850506020890135613b4f816138ff565b965060408901359550606089013594506080890135613b6d81613976565b935060a0890135613b7d816138ff565b979a969950949793969295929450505060c08201359160e0013590565b600080600080600080600060e0888a031215613bb557600080fd5b8735613bc0816138ff565b96506020880135613bd0816138ff565b955060408801359450606088013593506080880135613bee81613976565b925060a0880135613bfe816138ff565b8092505060c0880135905092959891949750929550565b60008060008060008060c08789031215613c2e57600080fd5b863567ffffffffffffffff811115613c4557600080fd5b613c5189828a01613a8a565b9650506020870135613c62816138ff565b945060408701359350606087013592506080870135613c8081613976565b8092505060a087013590509295509295509295565b600080600080600080600060e0888a031215613cb057600080fd5b873567ffffffffffffffff811115613cc757600080fd5b613cd38a828b01613a8a565b9750506020880135613ce4816138ff565b955060408801359450606088013593506080880135925060a0880135613bfe81613976565b600080600080600060a08688031215613d2157600080fd5b8535613d2c816138ff565b94506020860135613d3c816138ff565b93506040860135613d4c816138ff565b92506060860135613d5c81613976565b91506080860135613d6c816138ff565b809150509295509295909350565b600080600060608486031215613d8f57600080fd5b8335613d9a816138ff565b92506020840135613daa816138ff565b929592945050506040919091013590565b600082601f830112613dcc57600080fd5b81356020613ddc613aab83613a66565b82815260059290921b84018101918181019086841115613dfb57600080fd5b8286015b84811015613af35780358352918301918301613dff565b600080600060608486031215613e2b57600080fd5b833567ffffffffffffffff80821115613e4357600080fd5b613e4f87838801613a8a565b94506020860135915080821115613e6557600080fd5b613e7187838801613dbb565b93506040860135915080821115613e8757600080fd5b50613e9486828701613dbb565b9150509250925092565b60008060408385031215613eb157600080fd5b8235613ebc816138ff565b915060208301356139cf816138ff565b6020808252601a908201527f506f736974696f6e4d616e616765723a20666f7262696464656e000000000000604082015260600190565b600060208284031215613f1557600080fd5b8151612bff816138ff565b600080600080600080600080610100898b031215613f3d57600080fd5b8851613f48816138ff565b60208a015160408b01519199509750613f60816138ff565b60608a015160808b01519197509550613f7881613976565b60a08a015160c08b01519195509350613f9081613976565b8092505060e089015190509295985092959890939650565b600060208284031215613fba57600080fd5b5051919050565b6001600160a01b03978816815295871660208701529390951660408501529015156060840152608083015260a082019290925290151560c082015260e00190565b6020808252600990820152683337b93134b23232b760b91b604082015260600190565b60208082526015908201527423b7bb32b93730b136329d103337b93134b23232b760591b604082015260600190565b60208082526025908201527f506f736974696f6e4d616e616765723a20696e76616c6964205f706174682e6c6040820152640cadccee8d60db1b606082015260800190565b634e487b7160e01b600052601160045260246000fd5b818103818111156137d2576137d2614099565b634e487b7160e01b600052603260045260246000fd5b60008060008060008060008060006101208a8c0312156140f757600080fd5b8951614102816138ff565b60208b015160408c0151919a50985061411a816138ff565b60608b015190975061412b816138ff565b60808b015160a08c0151919750955061414381613976565b60c08b015160e08c0151919550935061415b81613976565b809250506101008a015190509295985092959850929598565b600080600080600080600080610100898b03121561419157600080fd5b885197506020890151965060408901519550606089015194506080890151935060a0890151925060c0890151613f9081613976565b6000602082840312156141d857600080fd5b8151612bff81613976565b6000600182016141f5576141f5614099565b5060010190565b600081518084526020808501945080840160005b8381101561422c57815187529582019590820190600101614210565b509495945050505050565b606080825284519082018190526000906020906080840190828801845b828110156142795781516001600160a01b031684529284019290840190600101614254565b5050508381038285015261428d81876141fc565b9150508281036040840152612f5d81856141fc565b600080604083850312156142b557600080fd5b8251915060208301516139cf816138ff565b6001600160a01b0389811682528881166020808401919091526101006040840181905289519084018190526000926101208501928b810192855b8181101561431f578451841686529482019493820193600101614301565b50505050506060830197909752506001600160a01b0394909416608085015291151560a084015260c083015260e0909101529392505050565b80820281158282048414176137d2576137d2614099565b60008261438c57634e487b7160e01b600052601260045260246000fd5b500490565b808201808211156137d2576137d2614099565b6000825160005b818110156143c557602081860181015185830152016143ab565b50600092019182525091905056fea2646970667358221220d54c4a7a48d98534039e884a5978c60e39da3315a2c747830d4c71959cabaf3964736f6c63430008120033",
    "linkReferences": {
      "src/core/PositionUtils.sol": {
        "PositionUtils": [
          {
            "start": 12181,
            "length": 20
          },
          {
            "start": 12633,
            "length": 20
          }
        ]
      }
    }
  },
  "methodIdentifiers": {
    "BASIS_POINTS_DIVISOR()": "126082cf",
    "admin()": "f851a440",
    "approve(address,address,uint256)": "e1f21c67",
    "decreasePosition(address,address,uint256,uint256,bool,address,uint256)": "90205d8c",
    "decreasePositionAndSwap(address[],address,uint256,uint256,bool,address,uint256,uint256)": "5fc8500e",
    "decreasePositionAndSwapETH(address[],address,uint256,uint256,bool,address,uint256,uint256)": "3039e37f",
    "decreasePositionETH(address,address,uint256,uint256,bool,address,uint256)": "430ed37c",
    "depositFee()": "67a52793",
    "ethTransferGasLimit()": "2d79cf42",
    "executeDecreaseOrder(address,uint256,address)": "11d9444a",
    "executeIncreaseOrder(address,uint256,address)": "d38ab519",
    "executeSwapOrder(address,uint256,address)": "07c7edc3",
    "feeReserves(address)": "1ce9cb8f",
    "gov()": "12d43a51",
    "inLegacyMode()": "d4ca83f9",
    "increasePosition(address[],address,uint256,uint256,uint256,bool,uint256)": "b7ddc992",
    "increasePositionBufferBps()": "98d1e03a",
    "increasePositionETH(address[],address,uint256,uint256,bool,uint256)": "b32755de",
    "isLiquidator(address)": "529a356f",
    "isOrderKeeper(address)": "3833f5f5",
    "isPartner(address)": "8c0f9aac",
    "liquidatePosition(address,address,address,bool,address)": "de2ea948",
    "maxGlobalLongSizes(address)": "1045c74e",
    "maxGlobalShortSizes(address)": "9698d25a",
    "orderBook()": "776af5ba",
    "referralStorage()": "006cc35e",
    "router()": "f887ea40",
    "sendValue(address,uint256)": "24a084df",
    "setAdmin(address)": "704b6c02",
    "setDepositFee(uint256)": "490ae210",
    "setEthTransferGasLimit(uint256)": "3a9b52ad",
    "setGov(address)": "cfad57a2",
    "setInLegacyMode(bool)": "9c95332f",
    "setIncreasePositionBufferBps(uint256)": "233bfe3b",
    "setLiquidator(address,bool)": "4453a374",
    "setMaxGlobalSizes(address[],uint256[],uint256[])": "ef12c67e",
    "setOrderKeeper(address,bool)": "1e261538",
    "setPartner(address,bool)": "21acf659",
    "setReferralStorage(address)": "ae4d7f9a",
    "setShouldValidateIncreaseOrder(bool)": "1b904359",
    "shortsTracker()": "657bc5d0",
    "shouldValidateIncreaseOrder()": "4584bd4b",
    "vault()": "fbfa77cf",
    "weth()": "3fc8cef3",
    "withdrawFees(address,address)": "f2555278"
  },
  "id": 29
}