{
  "abi": [
    {
      "inputs": [
        {
          "internalType": "address",
          "name": "target",
          "type": "address"
        }
      ],
      "name": "AddressEmptyCode",
      "type": "error"
    },
    {
      "inputs": [
        {
          "internalType": "address",
          "name": "account",
          "type": "address"
        }
      ],
      "name": "AddressInsufficientBalance",
      "type": "error"
    },
    {
      "inputs": [],
      "name": "FailedInnerCall",
      "type": "error"
    },
    {
      "inputs": [],
      "name": "ReentrancyGuardReentrantCall",
      "type": "error"
    },
    {
      "inputs": [
        {
          "internalType": "address",
          "name": "token",
          "type": "address"
        }
      ],
      "name": "SafeERC20FailedOperation",
      "type": "error"
    },
    {
      "anonymous": false,
      "inputs": [
        {
          "indexed": false,
          "internalType": "address",
          "name": "account",
          "type": "address"
        },
        {
          "indexed": false,
          "internalType": "uint256",
          "name": "amount",
          "type": "uint256"
        }
      ],
      "name": "StakeBrrr",
      "type": "event"
    },
    {
      "anonymous": false,
      "inputs": [
        {
          "indexed": false,
          "internalType": "address",
          "name": "account",
          "type": "address"
        },
        {
          "indexed": false,
          "internalType": "uint256",
          "name": "amount",
          "type": "uint256"
        }
      ],
      "name": "UnstakeBrrr",
      "type": "event"
    },
    {
      "inputs": [],
      "name": "brrr",
      "outputs": [
        {
          "internalType": "address",
          "name": "",
          "type": "address"
        }
      ],
      "stateMutability": "view",
      "type": "function"
    },
    {
      "inputs": [],
      "name": "brrrManager",
      "outputs": [
        {
          "internalType": "address",
          "name": "",
          "type": "address"
        }
      ],
      "stateMutability": "view",
      "type": "function"
    },
    {
      "inputs": [],
      "name": "claim",
      "outputs": [],
      "stateMutability": "nonpayable",
      "type": "function"
    },
    {
      "inputs": [],
      "name": "gov",
      "outputs": [
        {
          "internalType": "address",
          "name": "",
          "type": "address"
        }
      ],
      "stateMutability": "view",
      "type": "function"
    },
    {
      "inputs": [
        {
          "internalType": "bool",
          "name": "_shouldConvertWethToEth",
          "type": "bool"
        }
      ],
      "name": "handleRewards",
      "outputs": [],
      "stateMutability": "nonpayable",
      "type": "function"
    },
    {
      "inputs": [
        {
          "internalType": "address",
          "name": "_weth",
          "type": "address"
        },
        {
          "internalType": "address",
          "name": "_brrr",
          "type": "address"
        },
        {
          "internalType": "address",
          "name": "_stakedBrrrTracker",
          "type": "address"
        },
        {
          "internalType": "address",
          "name": "_brrrManager",
          "type": "address"
        }
      ],
      "name": "initialize",
      "outputs": [],
      "stateMutability": "nonpayable",
      "type": "function"
    },
    {
      "inputs": [],
      "name": "isInitialized",
      "outputs": [
        {
          "internalType": "bool",
          "name": "",
          "type": "bool"
        }
      ],
      "stateMutability": "view",
      "type": "function"
    },
    {
      "inputs": [
        {
          "internalType": "address",
          "name": "_token",
          "type": "address"
        },
        {
          "internalType": "uint256",
          "name": "_amount",
          "type": "uint256"
        },
        {
          "internalType": "uint256",
          "name": "_minUsdg",
          "type": "uint256"
        },
        {
          "internalType": "uint256",
          "name": "_minBrrr",
          "type": "uint256"
        }
      ],
      "name": "mintAndStakeBrrr",
      "outputs": [
        {
          "internalType": "uint256",
          "name": "",
          "type": "uint256"
        }
      ],
      "stateMutability": "nonpayable",
      "type": "function"
    },
    {
      "inputs": [
        {
          "internalType": "uint256",
          "name": "_minUsdg",
          "type": "uint256"
        },
        {
          "internalType": "uint256",
          "name": "_minBrrr",
          "type": "uint256"
        }
      ],
      "name": "mintAndStakeBrrrETH",
      "outputs": [
        {
          "internalType": "uint256",
          "name": "",
          "type": "uint256"
        }
      ],
      "stateMutability": "payable",
      "type": "function"
    },
    {
      "inputs": [
        {
          "internalType": "address",
          "name": "_gov",
          "type": "address"
        }
      ],
      "name": "setGov",
      "outputs": [],
      "stateMutability": "nonpayable",
      "type": "function"
    },
    {
      "inputs": [],
      "name": "stakedBrrrTracker",
      "outputs": [
        {
          "internalType": "address",
          "name": "",
          "type": "address"
        }
      ],
      "stateMutability": "view",
      "type": "function"
    },
    {
      "inputs": [
        {
          "internalType": "address",
          "name": "_tokenOut",
          "type": "address"
        },
        {
          "internalType": "uint256",
          "name": "_brrrAmount",
          "type": "uint256"
        },
        {
          "internalType": "uint256",
          "name": "_minOut",
          "type": "uint256"
        },
        {
          "internalType": "address",
          "name": "_receiver",
          "type": "address"
        }
      ],
      "name": "unstakeAndRedeemBrrr",
      "outputs": [
        {
          "internalType": "uint256",
          "name": "",
          "type": "uint256"
        }
      ],
      "stateMutability": "nonpayable",
      "type": "function"
    },
    {
      "inputs": [
        {
          "internalType": "uint256",
          "name": "_brrrAmount",
          "type": "uint256"
        },
        {
          "internalType": "uint256",
          "name": "_minOut",
          "type": "uint256"
        },
        {
          "internalType": "address payable",
          "name": "_receiver",
          "type": "address"
        }
      ],
      "name": "unstakeAndRedeemBrrrETH",
      "outputs": [
        {
          "internalType": "uint256",
          "name": "",
          "type": "uint256"
        }
      ],
      "stateMutability": "nonpayable",
      "type": "function"
    },
    {
      "inputs": [],
      "name": "weth",
      "outputs": [
        {
          "internalType": "address",
          "name": "",
          "type": "address"
        }
      ],
      "stateMutability": "view",
      "type": "function"
    },
    {
      "inputs": [
        {
          "internalType": "address",
          "name": "_token",
          "type": "address"
        },
        {
          "internalType": "address",
          "name": "_account",
          "type": "address"
        },
        {
          "internalType": "uint256",
          "name": "_amount",
          "type": "uint256"
        }
      ],
      "name": "withdrawToken",
      "outputs": [],
      "stateMutability": "nonpayable",
      "type": "function"
    },
    {
      "stateMutability": "payable",
      "type": "receive"
    }
  ],
  "bytecode": {
    "object": "0x608060405234801561001057600080fd5b506001600081905580546001600160a01b031916331790556114b9806100376000396000f3fe6080604052600436106100ec5760003560e01c806396a67d251161008a578063ebb071be11610059578063ebb071be146102d4578063f15ac6a9146102f4578063f73f04e614610314578063f8c8765e1461033457600080fd5b806396a67d2514610254578063cfad57a214610274578063d752956c14610294578063e76ab00f146102b457600080fd5b8063392e53cd116100c6578063392e53cd146101db5780633b0ec5871461020c5780633fc8cef31461021f5780634e71d92d1461023f57600080fd5b806301e3366714610150578063087d5c7d1461017057806312d43a51146101a357600080fd5b3661014b576002546001600160a01b031633146101495760405162461bcd60e51b81526020600482015260166024820152752937baba32b91d1034b73b30b634b21039b2b73232b960511b60448201526064015b60405180910390fd5b005b600080fd5b34801561015c57600080fd5b5061014961016b3660046111bb565b610354565b34801561017c57600080fd5b5061019061018b3660046111fc565b610397565b6040519081526020015b60405180910390f35b3480156101af57600080fd5b506001546101c3906001600160a01b031681565b6040516001600160a01b03909116815260200161019a565b3480156101e757600080fd5b506001546101fc90600160a01b900460ff1681565b604051901515815260200161019a565b61019061021a366004611235565b610591565b34801561022b57600080fd5b506002546101c3906001600160a01b031681565b34801561024b57600080fd5b50610149610827565b34801561026057600080fd5b506003546101c3906001600160a01b031681565b34801561028057600080fd5b5061014961028f366004611257565b6108b4565b3480156102a057600080fd5b506101906102af366004611274565b610956565b3480156102c057600080fd5b506005546101c3906001600160a01b031681565b3480156102e057600080fd5b506004546101c3906001600160a01b031681565b34801561030057600080fd5b5061014961030f3660046112cc565b610ae2565b34801561032057600080fd5b5061019061032f3660046112e9565b610c6f565b34801561034057600080fd5b5061014961034f366004611324565b610e07565b6001546001600160a01b0316331461037e5760405162461bcd60e51b815260040161014090611375565b6103926001600160a01b0384168383610ef8565b505050565b60006103a1610f4a565b600084116103c15760405162461bcd60e51b8152600401610140906113a4565b6004805460035460405163098bf59d60e01b8152339381018490526001600160a01b039182166024820152604481018890526064810184905291169063098bf59d90608401600060405180830381600087803b15801561042057600080fd5b505af1158015610434573d6000803e3d6000fd5b50506005546002546040516371d597ad60e01b81526001600160a01b0386811660048301529182166024820152604481018a90526064810189905230608482015260009450911691506371d597ad9060a4016020604051808303816000875af11580156104a5573d6000803e3d6000fd5b505050506040513d601f19601f820116820180604052508101906104c991906113e5565b600254604051632e1a7d4d60e01b8152600481018390529192506001600160a01b031690632e1a7d4d90602401600060405180830381600087803b15801561051057600080fd5b505af1158015610524573d6000803e3d6000fd5b5061053c925050506001600160a01b03851682610f74565b604080516001600160a01b0384168152602081018890527e239e9cb30ceb2d53933147a4c6167f72b55da9f2e47abd7b734f4c21091a0d910160405180910390a191505061058a6001600055565b9392505050565b600061059b610f4a565b600034116105eb5760405162461bcd60e51b815260206004820152601f60248201527f526577617264526f757465723a20696e76616c6964206d73672e76616c7565006044820152606401610140565b600260009054906101000a90046001600160a01b03166001600160a01b031663d0e30db0346040518263ffffffff1660e01b81526004016000604051808303818588803b15801561063b57600080fd5b505af115801561064f573d6000803e3d6000fd5b505060025460055460405163095ea7b360e01b81526001600160a01b0391821660048201523460248201529116935063095ea7b3925060440190506020604051808303816000875af11580156106a9573d6000803e3d6000fd5b505050506040513d601f19601f820116820180604052508101906106cd91906113fe565b506005546002546040516317eb2a1560e01b815233926000926001600160a01b03918216926317eb2a159261071292309288929091169034908c908c9060040161141b565b6020604051808303816000875af1158015610731573d6000803e3d6000fd5b505050506040513d601f19601f8201168201806040525081019061075591906113e5565b60048054600354604051631e42d69b60e21b81526001600160a01b038781169482018590526024820194909452908316604482015260648101849052929350169063790b5a6c90608401600060405180830381600087803b1580156107b957600080fd5b505af11580156107cd573d6000803e3d6000fd5b5050604080516001600160a01b0386168152602081018590527f5299c098bbfa6767b1468d7c737b573c92d320004f465a40af2a314690d89696935001905060405180910390a19150506108216001600055565b92915050565b61082f610f4a565b600480546040516309f4173d60e11b815233928101839052602481018390526001600160a01b03909116906313e82e7a906044016020604051808303816000875af1158015610882573d6000803e3d6000fd5b505050506040513d601f19601f820116820180604052508101906108a691906113e5565b50506108b26001600055565b565b6001546001600160a01b031633146108de5760405162461bcd60e51b815260040161014090611375565b6001600160a01b0381166109345760405162461bcd60e51b815260206004820181905260248201527f476f7665726e61626c653a205f676f76206973207a65726f20616464726573736044820152606401610140565b600180546001600160a01b0319166001600160a01b0392909216919091179055565b6000610960610f4a565b600084116109805760405162461bcd60e51b8152600401610140906113a4565b6004805460035460405163098bf59d60e01b8152339381018490526001600160a01b039182166024820152604481018890526064810184905291169063098bf59d90608401600060405180830381600087803b1580156109df57600080fd5b505af11580156109f3573d6000803e3d6000fd5b50506005546040516371d597ad60e01b81526001600160a01b0385811660048301528a81166024830152604482018a90526064820189905287811660848301526000945090911691506371d597ad9060a4016020604051808303816000875af1158015610a64573d6000803e3d6000fd5b505050506040513d601f19601f82011682018060405250810190610a8891906113e5565b604080516001600160a01b0385168152602081018990529192507e239e9cb30ceb2d53933147a4c6167f72b55da9f2e47abd7b734f4c21091a0d91015b60405180910390a1915050610ada6001600055565b949350505050565b610aea610f4a565b338115610be657600480546040516309f4173d60e11b81526001600160a01b0384811693820193909352306024820152600092909116906313e82e7a906044016020604051808303816000875af1158015610b49573d6000803e3d6000fd5b505050506040513d601f19601f82011682018060405250810190610b6d91906113e5565b600254604051632e1a7d4d60e01b8152600481018390529192506001600160a01b031690632e1a7d4d90602401600060405180830381600087803b158015610bb457600080fd5b505af1158015610bc8573d6000803e3d6000fd5b50610be0925050506001600160a01b03831682610f74565b50610c61565b600480546040516309f4173d60e11b81526001600160a01b0384811693820184905260248201939093529116906313e82e7a906044016020604051808303816000875af1158015610c3b573d6000803e3d6000fd5b505050506040513d601f19601f82011682018060405250810190610c5f91906113e5565b505b50610c6c6001600055565b50565b6000610c79610f4a565b60008411610cc95760405162461bcd60e51b815260206004820152601d60248201527f526577617264526f757465723a20696e76616c6964205f616d6f756e740000006044820152606401610140565b6005546040516317eb2a1560e01b815233916000916001600160a01b03909116906317eb2a1590610d0890859081908c908c908c908c9060040161141b565b6020604051808303816000875af1158015610d27573d6000803e3d6000fd5b505050506040513d601f19601f82011682018060405250810190610d4b91906113e5565b60048054600354604051631e42d69b60e21b81526001600160a01b038781169482018590526024820194909452908316604482015260648101849052929350169063790b5a6c90608401600060405180830381600087803b158015610daf57600080fd5b505af1158015610dc3573d6000803e3d6000fd5b5050604080516001600160a01b0386168152602081018590527f5299c098bbfa6767b1468d7c737b573c92d320004f465a40af2a314690d896969350019050610ac5565b6001546001600160a01b03163314610e315760405162461bcd60e51b815260040161014090611375565b600154600160a01b900460ff1615610e955760405162461bcd60e51b815260206004820152602160248201527f526577617264526f757465723a20616c726561647920696e697469616c697a656044820152601960fa1b6064820152608401610140565b6001805460ff60a01b1916600160a01b179055600280546001600160a01b039586166001600160a01b0319918216179091556003805494861694821694909417909355600480549285169284169290921790915560058054919093169116179055565b604080516001600160a01b038416602482015260448082018490528251808303909101815260649091019091526020810180516001600160e01b031663a9059cbb60e01b17905261039290849061100b565b600260005403610f6d57604051633ee5aeb560e01b815260040160405180910390fd5b6002600055565b80471015610f975760405163cd78605960e01b8152306004820152602401610140565b6000826001600160a01b03168260405160006040518083038185875af1925050503d8060008114610fe4576040519150601f19603f3d011682016040523d82523d6000602084013e610fe9565b606091505b505090508061039257604051630a12f52160e11b815260040160405180910390fd5b60006110206001600160a01b0384168361106e565b9050805160001415801561104557508080602001905181019061104391906113fe565b155b1561039257604051635274afe760e01b81526001600160a01b0384166004820152602401610140565b606061058a8383600061107f611098565b604051630a12f52160e11b815260040160405180910390fd5b6060824710156110bd5760405163cd78605960e01b8152306004820152602401610140565b600080866001600160a01b031685876040516110d99190611454565b60006040518083038185875af1925050503d8060008114611116576040519150601f19603f3d011682016040523d82523d6000602084013e61111b565b606091505b509150915061112c87838387611137565b979650505050505050565b6060831561118557825160000361117e57846001600160a01b03163b60000361117e57604051639996b31560e01b81526001600160a01b0386166004820152602401610140565b5081610ada565b610ada838381511561119a5781518083602001fd5b61107f8163ffffffff16565b6001600160a01b0381168114610c6c57600080fd5b6000806000606084860312156111d057600080fd5b83356111db816111a6565b925060208401356111eb816111a6565b929592945050506040919091013590565b60008060006060848603121561121157600080fd5b8335925060208401359150604084013561122a816111a6565b809150509250925092565b6000806040838503121561124857600080fd5b50508035926020909101359150565b60006020828403121561126957600080fd5b813561058a816111a6565b6000806000806080858703121561128a57600080fd5b8435611295816111a6565b9350602085013592506040850135915060608501356112b3816111a6565b939692955090935050565b8015158114610c6c57600080fd5b6000602082840312156112de57600080fd5b813561058a816112be565b600080600080608085870312156112ff57600080fd5b843561130a816111a6565b966020860135965060408601359560600135945092505050565b6000806000806080858703121561133a57600080fd5b8435611345816111a6565b93506020850135611355816111a6565b92506040850135611365816111a6565b915060608501356112b3816111a6565b60208082526015908201527423b7bb32b93730b136329d103337b93134b23232b760591b604082015260600190565b60208082526021908201527f526577617264526f757465723a20696e76616c6964205f62727272416d6f756e6040820152601d60fa1b606082015260800190565b6000602082840312156113f757600080fd5b5051919050565b60006020828403121561141057600080fd5b815161058a816112be565b6001600160a01b03968716815294861660208601529290941660408401526060830152608082019290925260a081019190915260c00190565b6000825160005b81811015611475576020818601810151858301520161145b565b50600092019182525091905056fea2646970667358221220b387ef43b3a20ba0b93c11239f843b842245ab2abbd67b1e15f60138ada7c9e864736f6c63430008120033",
    "linkReferences": {}
  },
  "methodIdentifiers": {
    "brrr()": "96a67d25",
    "brrrManager()": "e76ab00f",
    "claim()": "4e71d92d",
    "gov()": "12d43a51",
    "handleRewards(bool)": "f15ac6a9",
    "initialize(address,address,address,address)": "f8c8765e",
    "isInitialized()": "392e53cd",
    "mintAndStakeBrrr(address,uint256,uint256,uint256)": "f73f04e6",
    "mintAndStakeBrrrETH(uint256,uint256)": "3b0ec587",
    "setGov(address)": "cfad57a2",
    "stakedBrrrTracker()": "ebb071be",
    "unstakeAndRedeemBrrr(address,uint256,uint256,address)": "d752956c",
    "unstakeAndRedeemBrrrETH(uint256,uint256,address)": "087d5c7d",
    "weth()": "3fc8cef3",
    "withdrawToken(address,address,uint256)": "01e33667"
  },
  "id": 80
}