{
  "abi": [
    {
      "inputs": [
        {
          "internalType": "address",
          "name": "_vault",
          "type": "address"
        }
      ],
      "stateMutability": "nonpayable",
      "type": "constructor"
    },
    {
      "anonymous": false,
      "inputs": [
        {
          "indexed": true,
          "internalType": "address",
          "name": "token",
          "type": "address"
        },
        {
          "indexed": false,
          "internalType": "uint256",
          "name": "globalShortSize",
          "type": "uint256"
        },
        {
          "indexed": false,
          "internalType": "uint256",
          "name": "globalShortAveragePrice",
          "type": "uint256"
        }
      ],
      "name": "GlobalShortDataUpdated",
      "type": "event"
    },
    {
      "inputs": [],
      "name": "MAX_INT256",
      "outputs": [
        {
          "internalType": "uint256",
          "name": "",
          "type": "uint256"
        }
      ],
      "stateMutability": "view",
      "type": "function"
    },
    {
      "inputs": [
        {
          "internalType": "uint256",
          "name": "_averagePrice",
          "type": "uint256"
        },
        {
          "internalType": "uint256",
          "name": "_nextPrice",
          "type": "uint256"
        },
        {
          "internalType": "uint256",
          "name": "_nextSize",
          "type": "uint256"
        },
        {
          "internalType": "uint256",
          "name": "_delta",
          "type": "uint256"
        },
        {
          "internalType": "int256",
          "name": "_realisedPnl",
          "type": "int256"
        }
      ],
      "name": "_getNextGlobalAveragePrice",
      "outputs": [
        {
          "internalType": "uint256",
          "name": "",
          "type": "uint256"
        }
      ],
      "stateMutability": "pure",
      "type": "function"
    },
    {
      "inputs": [
        {
          "internalType": "bytes32",
          "name": "",
          "type": "bytes32"
        }
      ],
      "name": "data",
      "outputs": [
        {
          "internalType": "bytes32",
          "name": "",
          "type": "bytes32"
        }
      ],
      "stateMutability": "view",
      "type": "function"
    },
    {
      "inputs": [
        {
          "internalType": "address",
          "name": "_token",
          "type": "address"
        }
      ],
      "name": "getGlobalShortDelta",
      "outputs": [
        {
          "internalType": "bool",
          "name": "",
          "type": "bool"
        },
        {
          "internalType": "uint256",
          "name": "",
          "type": "uint256"
        }
      ],
      "stateMutability": "view",
      "type": "function"
    },
    {
      "inputs": [
        {
          "internalType": "address",
          "name": "_account",
          "type": "address"
        },
        {
          "internalType": "address",
          "name": "_collateralToken",
          "type": "address"
        },
        {
          "internalType": "address",
          "name": "_indexToken",
          "type": "address"
        },
        {
          "internalType": "uint256",
          "name": "_nextPrice",
          "type": "uint256"
        },
        {
          "internalType": "uint256",
          "name": "_sizeDelta",
          "type": "uint256"
        },
        {
          "internalType": "bool",
          "name": "_isIncrease",
          "type": "bool"
        }
      ],
      "name": "getNextGlobalShortData",
      "outputs": [
        {
          "internalType": "uint256",
          "name": "",
          "type": "uint256"
        },
        {
          "internalType": "uint256",
          "name": "",
          "type": "uint256"
        }
      ],
      "stateMutability": "view",
      "type": "function"
    },
    {
      "inputs": [
        {
          "internalType": "address",
          "name": "_account",
          "type": "address"
        },
        {
          "internalType": "address",
          "name": "_collateralToken",
          "type": "address"
        },
        {
          "internalType": "address",
          "name": "_indexToken",
          "type": "address"
        },
        {
          "internalType": "uint256",
          "name": "_sizeDelta",
          "type": "uint256"
        },
        {
          "internalType": "bool",
          "name": "_isIncrease",
          "type": "bool"
        }
      ],
      "name": "getRealisedPnl",
      "outputs": [
        {
          "internalType": "int256",
          "name": "",
          "type": "int256"
        }
      ],
      "stateMutability": "view",
      "type": "function"
    },
    {
      "inputs": [
        {
          "internalType": "address",
          "name": "",
          "type": "address"
        }
      ],
      "name": "globalShortAveragePrices",
      "outputs": [
        {
          "internalType": "uint256",
          "name": "",
          "type": "uint256"
        }
      ],
      "stateMutability": "view",
      "type": "function"
    },
    {
      "inputs": [],
      "name": "gov",
      "outputs": [
        {
          "internalType": "address",
          "name": "",
          "type": "address"
        }
      ],
      "stateMutability": "view",
      "type": "function"
    },
    {
      "inputs": [],
      "name": "isGlobalShortDataReady",
      "outputs": [
        {
          "internalType": "bool",
          "name": "",
          "type": "bool"
        }
      ],
      "stateMutability": "view",
      "type": "function"
    },
    {
      "inputs": [
        {
          "internalType": "address",
          "name": "",
          "type": "address"
        }
      ],
      "name": "isHandler",
      "outputs": [
        {
          "internalType": "bool",
          "name": "",
          "type": "bool"
        }
      ],
      "stateMutability": "view",
      "type": "function"
    },
    {
      "inputs": [
        {
          "internalType": "address",
          "name": "_gov",
          "type": "address"
        }
      ],
      "name": "setGov",
      "outputs": [],
      "stateMutability": "nonpayable",
      "type": "function"
    },
    {
      "inputs": [
        {
          "internalType": "address",
          "name": "_handler",
          "type": "address"
        },
        {
          "internalType": "bool",
          "name": "_isActive",
          "type": "bool"
        }
      ],
      "name": "setHandler",
      "outputs": [],
      "stateMutability": "nonpayable",
      "type": "function"
    },
    {
      "inputs": [
        {
          "internalType": "address[]",
          "name": "_tokens",
          "type": "address[]"
        },
        {
          "internalType": "uint256[]",
          "name": "_averagePrices",
          "type": "uint256[]"
        }
      ],
      "name": "setInitData",
      "outputs": [],
      "stateMutability": "nonpayable",
      "type": "function"
    },
    {
      "inputs": [
        {
          "internalType": "bool",
          "name": "value",
          "type": "bool"
        }
      ],
      "name": "setIsGlobalShortDataReady",
      "outputs": [],
      "stateMutability": "nonpayable",
      "type": "function"
    },
    {
      "inputs": [
        {
          "internalType": "address",
          "name": "_account",
          "type": "address"
        },
        {
          "internalType": "address",
          "name": "_collateralToken",
          "type": "address"
        },
        {
          "internalType": "address",
          "name": "_indexToken",
          "type": "address"
        },
        {
          "internalType": "bool",
          "name": "_isLong",
          "type": "bool"
        },
        {
          "internalType": "uint256",
          "name": "_sizeDelta",
          "type": "uint256"
        },
        {
          "internalType": "uint256",
          "name": "_markPrice",
          "type": "uint256"
        },
        {
          "internalType": "bool",
          "name": "_isIncrease",
          "type": "bool"
        }
      ],
      "name": "updateGlobalShortData",
      "outputs": [],
      "stateMutability": "nonpayable",
      "type": "function"
    },
    {
      "inputs": [],
      "name": "vault",
      "outputs": [
        {
          "internalType": "contract IVault",
          "name": "",
          "type": "address"
        }
      ],
      "stateMutability": "view",
      "type": "function"
    }
  ],
  "bytecode": {
    "object": "0x608060405234801561001057600080fd5b5060405161119938038061119983398101604081905261002f91610062565b60008054336001600160a01b031991821617909155600180549091166001600160a01b0392909216919091179055610092565b60006020828403121561007457600080fd5b81516001600160a01b038116811461008b57600080fd5b9392505050565b6110f8806100a16000396000f3fe608060405234801561001057600080fd5b50600436106101005760003560e01c80639cb7de4b11610097578063bbd9718711610066578063bbd9718714610271578063cfad57a214610284578063f3238cec14610297578063fbfa77cf146102aa57600080fd5b80639cb7de4b146101f95780639cdeb5931461020c578063a83b75fd14610234578063b364accb1461024757600080fd5b806346ea87af116100d357806346ea87af146101865780635886b711146101b957806362749803146101cc5780639a11178f146101ec57600080fd5b80630147fb0c14610105578063122e7b071461013857806312d43a51146101465780633d30cabf14610171575b600080fd5b610125610113366004610c23565b60036020526000908152604090205481565b6040519081526020015b60405180910390f35b6101256001600160ff1b0381565b600054610159906001600160a01b031681565b6040516001600160a01b03909116815260200161012f565b61018461017f366004610c4d565b6102bd565b005b6101a9610194366004610c8d565b60026020526000908152604090205460ff1681565b604051901515815260200161012f565b6101256101c7366004610ca8565b610303565b6101256101da366004610c8d565b60046020526000908152604090205481565b6005546101a99060ff1681565b610184610207366004610ce3565b61035b565b61021f61021a366004610d1a565b610406565b6040805192835260208301919091520161012f565b610125610242366004610d84565b61055e565b61025a610255366004610c8d565b610744565b60408051921515835260208301919091520161012f565b61018461027f366004610e32565b6108a6565b610184610292366004610c8d565b6109b2565b6101846102a5366004610e9e565b610a54565b600154610159906001600160a01b031681565b6000546001600160a01b031633146102f05760405162461bcd60e51b81526004016102e790610f1c565b60405180910390fd5b6005805460ff1916911515919091179055565b600080600061031485898987610b52565b9150915060008261032e576103298288610f61565b610338565b6103388288610f7a565b610342888a610f8d565b61034c9190610fa4565b93505050505b95945050505050565b6000546001600160a01b031633146103855760405162461bcd60e51b81526004016102e790610f1c565b6001600160a01b0382166103db5760405162461bcd60e51b815260206004820152601f60248201527f53686f727473547261636b65723a20696e76616c6964205f68616e646c65720060448201526064016102e7565b6001600160a01b03919091166000908152600260205260409020805460ff1916911515919091179055565b6000806000610418898989888861055e565b6001600160a01b03881660009081526004602052604081205491925087821161044a576104458289610f7a565b610454565b6104548883610f7a565b60015460405163114f1b5560e31b81526001600160a01b038c8116600483015292935060009283928392911690638a78daa890602401602060405180830381865afa1580156104a7573d6000803e3d6000fd5b505050506040513d601f19601f820116820180604052508101906104cb9190610fc6565b9050886104e1576104dc8a82610f7a565b6104eb565b6104eb8a82610f61565b9250826000036105075760008097509750505050505050610553565b8460000361052057828b97509750505050505050610553565b8461052b8583610f8d565b6105359190610fa4565b9150506000610547858c85858a610303565b92975091955050505050505b965096945050505050565b6000811561056e57506000610352565b600154604051634a3f088d60e01b81526001600160a01b0388811660048301528781166024830152868116604483015260006064830181905292169190819081908490634a3f088d9060840161010060405180830381865afa1580156105d8573d6000803e3d6000fd5b505050506040513d601f19601f820116820180604052508101906105fc9190610fdf565b9750505050509350509250600080856001600160a01b0316635c07eaab8b87876000886040518663ffffffff1660e01b815260040161066a9594939291906001600160a01b039590951685526020850193909352604084019190915215156060830152608082015260a00190565b6040805180830381865afa158015610686573d6000803e3d6000fd5b505050506040513d601f19601f820116820180604052508101906106aa9190611049565b90925090506000856106bc838c610f8d565b6106c69190610fa4565b90506001600160ff1b03811061071e5760405162461bcd60e51b815260206004820152601760248201527f53686f727473547261636b65723a206f766572666c6f7700000000000000000060448201526064016102e7565b826107315761072c81611077565b610733565b805b9d9c50505050505050505050505050565b60015460405163114f1b5560e31b81526001600160a01b0383811660048301526000928392839290911690638a78daa890602401602060405180830381865afa158015610795573d6000803e3d6000fd5b505050506040513d601f19601f820116820180604052508101906107b99190610fc6565b6001600160a01b0385166000908152600460205260408120549192508290036107e9575060009485945092505050565b600154604051637092736960e11b81526001600160a01b038781166004830152600092169063e124e6d290602401602060405180830381865afa158015610834573d6000803e3d6000fd5b505050506040513d601f19601f820116820180604052508101906108589190610fc6565b905060008183116108725761086d8383610f7a565b61087c565b61087c8284610f7a565b905060008361088b8387610f8d565b6108959190610fa4565b929093119791965090945050505050565b6000546001600160a01b031633146108d05760405162461bcd60e51b81526004016102e790610f1c565b60055460ff16156109235760405162461bcd60e51b815260206004820152601f60248201527f53686f727473547261636b65723a20616c7265616479206d696772617465640060448201526064016102e7565b60005b8381101561099e5782828281811061094057610940611093565b905060200201356004600087878581811061095d5761095d611093565b90506020020160208101906109729190610c8d565b6001600160a01b0316815260208101919091526040016000205580610996816110a9565b915050610926565b50506005805460ff19166001179055505050565b6000546001600160a01b031633146109dc5760405162461bcd60e51b81526004016102e790610f1c565b6001600160a01b038116610a325760405162461bcd60e51b815260206004820181905260248201527f476f7665726e61626c653a205f676f76206973207a65726f206164647265737360448201526064016102e7565b600080546001600160a01b0319166001600160a01b0392909216919091179055565b3360009081526002602052604090205460ff16610ab35760405162461bcd60e51b815260206004820152601860248201527f53686f727473547261636b65723a20666f7262696464656e000000000000000060448201526064016102e7565b8380610abd575082155b610b495760055460ff1615610b4957600080610add898989878988610406565b91509150610b0287826001600160a01b03909116600090815260046020526040902055565b60408051838152602081018390526001600160a01b038916917fd6137be44db128ffcf1ea1821dbe8f889f67f949be7656c2d8acba2a4a891a02910160405180910390a250505b50505050505050565b6000808385118015610bb5576000841315610b955786841115610b8457610b798785610f7a565b965060009050610bab565b610b8e8488610f7a565b9650610bab565b610b9e84611077565b610ba89088610f61565b96505b9150859050610c1a565b6000841315610bcf57610bc88488610f61565b9650610c14565b86610bd985611077565b1115610bfe5786610be985611077565b610bf39190610f7a565b965060019050610c14565b610c0784611077565b610c119088610f7a565b96505b91508590505b94509492505050565b600060208284031215610c3557600080fd5b5035919050565b8015158114610c4a57600080fd5b50565b600060208284031215610c5f57600080fd5b8135610c6a81610c3c565b9392505050565b80356001600160a01b0381168114610c8857600080fd5b919050565b600060208284031215610c9f57600080fd5b610c6a82610c71565b600080600080600060a08688031215610cc057600080fd5b505083359560208501359550604085013594606081013594506080013592509050565b60008060408385031215610cf657600080fd5b610cff83610c71565b91506020830135610d0f81610c3c565b809150509250929050565b60008060008060008060c08789031215610d3357600080fd5b610d3c87610c71565b9550610d4a60208801610c71565b9450610d5860408801610c71565b9350606087013592506080870135915060a0870135610d7681610c3c565b809150509295509295509295565b600080600080600060a08688031215610d9c57600080fd5b610da586610c71565b9450610db360208701610c71565b9350610dc160408701610c71565b9250606086013591506080860135610dd881610c3c565b809150509295509295909350565b60008083601f840112610df857600080fd5b50813567ffffffffffffffff811115610e1057600080fd5b6020830191508360208260051b8501011115610e2b57600080fd5b9250929050565b60008060008060408587031215610e4857600080fd5b843567ffffffffffffffff80821115610e6057600080fd5b610e6c88838901610de6565b90965094506020870135915080821115610e8557600080fd5b50610e9287828801610de6565b95989497509550505050565b600080600080600080600060e0888a031215610eb957600080fd5b610ec288610c71565b9650610ed060208901610c71565b9550610ede60408901610c71565b94506060880135610eee81610c3c565b93506080880135925060a0880135915060c0880135610f0c81610c3c565b8091505092959891949750929550565b60208082526015908201527423b7bb32b93730b136329d103337b93134b23232b760591b604082015260600190565b634e487b7160e01b600052601160045260246000fd5b80820180821115610f7457610f74610f4b565b92915050565b81810381811115610f7457610f74610f4b565b8082028115828204841417610f7457610f74610f4b565b600082610fc157634e487b7160e01b600052601260045260246000fd5b500490565b600060208284031215610fd857600080fd5b5051919050565b600080600080600080600080610100898b031215610ffc57600080fd5b885197506020890151965060408901519550606089015194506080890151935060a0890151925060c089015161103181610c3c565b8092505060e089015190509295985092959890939650565b6000806040838503121561105c57600080fd5b825161106781610c3c565b6020939093015192949293505050565b6000600160ff1b820161108c5761108c610f4b565b5060000390565b634e487b7160e01b600052603260045260246000fd5b6000600182016110bb576110bb610f4b565b506001019056fea2646970667358221220836abbdd808342f2d2fad6a1d2a3dbf9bab9e03a96d8e652a40553b88266e2d364736f6c63430008120033",
    "linkReferences": {}
  },
  "methodIdentifiers": {
    "MAX_INT256()": "122e7b07",
    "_getNextGlobalAveragePrice(uint256,uint256,uint256,uint256,int256)": "5886b711",
    "data(bytes32)": "0147fb0c",
    "getGlobalShortDelta(address)": "b364accb",
    "getNextGlobalShortData(address,address,address,uint256,uint256,bool)": "9cdeb593",
    "getRealisedPnl(address,address,address,uint256,bool)": "a83b75fd",
    "globalShortAveragePrices(address)": "62749803",
    "gov()": "12d43a51",
    "isGlobalShortDataReady()": "9a11178f",
    "isHandler(address)": "46ea87af",
    "setGov(address)": "cfad57a2",
    "setHandler(address,bool)": "9cb7de4b",
    "setInitData(address[],uint256[])": "bbd97187",
    "setIsGlobalShortDataReady(bool)": "3d30cabf",
    "updateGlobalShortData(address,address,address,bool,uint256,uint256,bool)": "f3238cec",
    "vault()": "fbfa77cf"
  },
  "id": 35
}