{"abi":[{"type":"constructor","inputs":[{"name":"_name","type":"string","internalType":"string"},{"name":"_symbol","type":"string","internalType":"string"},{"name":"_initialSupply","type":"uint256","internalType":"uint256"}],"stateMutability":"nonpayable"},{"type":"function","name":"addAdmin","inputs":[{"name":"_account","type":"address","internalType":"address"}],"outputs":[],"stateMutability":"nonpayable"},{"type":"function","name":"addNonStakingAccount","inputs":[{"name":"_account","type":"address","internalType":"address"}],"outputs":[],"stateMutability":"nonpayable"},{"type":"function","name":"admins","inputs":[{"name":"","type":"address","internalType":"address"}],"outputs":[{"name":"","type":"bool","internalType":"bool"}],"stateMutability":"view"},{"type":"function","name":"allowance","inputs":[{"name":"_owner","type":"address","internalType":"address"},{"name":"_spender","type":"address","internalType":"address"}],"outputs":[{"name":"","type":"uint256","internalType":"uint256"}],"stateMutability":"view"},{"type":"function","name":"allowances","inputs":[{"name":"","type":"address","internalType":"address"},{"name":"","type":"address","internalType":"address"}],"outputs":[{"name":"","type":"uint256","internalType":"uint256"}],"stateMutability":"view"},{"type":"function","name":"approve","inputs":[{"name":"_spender","type":"address","internalType":"address"},{"name":"_amount","type":"uint256","internalType":"uint256"}],"outputs":[{"name":"","type":"bool","internalType":"bool"}],"stateMutability":"nonpayable"},{"type":"function","name":"balanceOf","inputs":[{"name":"_account","type":"address","internalType":"address"}],"outputs":[{"name":"","type":"uint256","internalType":"uint256"}],"stateMutability":"view"},{"type":"function","name":"balances","inputs":[{"name":"","type":"address","internalType":"address"}],"outputs":[{"name":"","type":"uint256","internalType":"uint256"}],"stateMutability":"view"},{"type":"function","name":"burn","inputs":[{"name":"_account","type":"address","internalType":"address"},{"name":"_amount","type":"uint256","internalType":"uint256"}],"outputs":[],"stateMutability":"nonpayable"},{"type":"function","name":"claim","inputs":[{"name":"_receiver","type":"address","internalType":"address"}],"outputs":[],"stateMutability":"nonpayable"},{"type":"function","name":"decimals","inputs":[],"outputs":[{"name":"","type":"uint8","internalType":"uint8"}],"stateMutability":"view"},{"type":"function","name":"gov","inputs":[],"outputs":[{"name":"","type":"address","internalType":"address"}],"stateMutability":"view"},{"type":"function","name":"inPrivateTransferMode","inputs":[],"outputs":[{"name":"","type":"bool","internalType":"bool"}],"stateMutability":"view"},{"type":"function","name":"isHandler","inputs":[{"name":"","type":"address","internalType":"address"}],"outputs":[{"name":"","type":"bool","internalType":"bool"}],"stateMutability":"view"},{"type":"function","name":"isMinter","inputs":[{"name":"","type":"address","internalType":"address"}],"outputs":[{"name":"","type":"bool","internalType":"bool"}],"stateMutability":"view"},{"type":"function","name":"mint","inputs":[{"name":"_account","type":"address","internalType":"address"},{"name":"_amount","type":"uint256","internalType":"uint256"}],"outputs":[],"stateMutability":"nonpayable"},{"type":"function","name":"name","inputs":[],"outputs":[{"name":"","type":"string","internalType":"string"}],"stateMutability":"view"},{"type":"function","name":"nonStakingAccounts","inputs":[{"name":"","type":"address","internalType":"address"}],"outputs":[{"name":"","type":"bool","internalType":"bool"}],"stateMutability":"view"},{"type":"function","name":"nonStakingSupply","inputs":[],"outputs":[{"name":"","type":"uint256","internalType":"uint256"}],"stateMutability":"view"},{"type":"function","name":"recoverClaim","inputs":[{"name":"_account","type":"address","internalType":"address"},{"name":"_receiver","type":"address","internalType":"address"}],"outputs":[],"stateMutability":"nonpayable"},{"type":"function","name":"removeAdmin","inputs":[{"name":"_account","type":"address","internalType":"address"}],"outputs":[],"stateMutability":"nonpayable"},{"type":"function","name":"removeNonStakingAccount","inputs":[{"name":"_account","type":"address","internalType":"address"}],"outputs":[],"stateMutability":"nonpayable"},{"type":"function","name":"setGov","inputs":[{"name":"_gov","type":"address","internalType":"address"}],"outputs":[],"stateMutability":"nonpayable"},{"type":"function","name":"setHandler","inputs":[{"name":"_handler","type":"address","internalType":"address"},{"name":"_isActive","type":"bool","internalType":"bool"}],"outputs":[],"stateMutability":"nonpayable"},{"type":"function","name":"setInPrivateTransferMode","inputs":[{"name":"_inPrivateTransferMode","type":"bool","internalType":"bool"}],"outputs":[],"stateMutability":"nonpayable"},{"type":"function","name":"setInfo","inputs":[{"name":"_name","type":"string","internalType":"string"},{"name":"_symbol","type":"string","internalType":"string"}],"outputs":[],"stateMutability":"nonpayable"},{"type":"function","name":"setMinter","inputs":[{"name":"_minter","type":"address","internalType":"address"},{"name":"_isActive","type":"bool","internalType":"bool"}],"outputs":[],"stateMutability":"nonpayable"},{"type":"function","name":"setYieldTrackers","inputs":[{"name":"_yieldTrackers","type":"address[]","internalType":"address[]"}],"outputs":[],"stateMutability":"nonpayable"},{"type":"function","name":"stakedBalance","inputs":[{"name":"_account","type":"address","internalType":"address"}],"outputs":[{"name":"","type":"uint256","internalType":"uint256"}],"stateMutability":"view"},{"type":"function","name":"symbol","inputs":[],"outputs":[{"name":"","type":"string","internalType":"string"}],"stateMutability":"view"},{"type":"function","name":"totalStaked","inputs":[],"outputs":[{"name":"","type":"uint256","internalType":"uint256"}],"stateMutability":"view"},{"type":"function","name":"totalSupply","inputs":[],"outputs":[{"name":"","type":"uint256","internalType":"uint256"}],"stateMutability":"view"},{"type":"function","name":"transfer","inputs":[{"name":"_recipient","type":"address","internalType":"address"},{"name":"_amount","type":"uint256","internalType":"uint256"}],"outputs":[{"name":"","type":"bool","internalType":"bool"}],"stateMutability":"nonpayable"},{"type":"function","name":"transferFrom","inputs":[{"name":"_sender","type":"address","internalType":"address"},{"name":"_recipient","type":"address","internalType":"address"},{"name":"_amount","type":"uint256","internalType":"uint256"}],"outputs":[{"name":"","type":"bool","internalType":"bool"}],"stateMutability":"nonpayable"},{"type":"function","name":"withdrawToken","inputs":[{"name":"_token","type":"address","internalType":"address"},{"name":"_account","type":"address","internalType":"address"},{"name":"_amount","type":"uint256","internalType":"uint256"}],"outputs":[],"stateMutability":"nonpayable"},{"type":"function","name":"yieldTrackers","inputs":[{"name":"","type":"uint256","internalType":"uint256"}],"outputs":[{"name":"","type":"address","internalType":"address"}],"stateMutability":"view"},{"type":"event","name":"Approval","inputs":[{"name":"owner","type":"address","indexed":true,"internalType":"address"},{"name":"spender","type":"address","indexed":true,"internalType":"address"},{"name":"value","type":"uint256","indexed":false,"internalType":"uint256"}],"anonymous":false},{"type":"event","name":"Transfer","inputs":[{"name":"from","type":"address","indexed":true,"internalType":"address"},{"name":"to","type":"address","indexed":true,"internalType":"address"},{"name":"value","type":"uint256","indexed":false,"internalType":"uint256"}],"anonymous":false},{"type":"error","name":"AddressEmptyCode","inputs":[{"name":"target","type":"address","internalType":"address"}]},{"type":"error","name":"AddressInsufficientBalance","inputs":[{"name":"account","type":"address","internalType":"address"}]},{"type":"error","name":"FailedInnerCall","inputs":[]},{"type":"error","name":"SafeERC20FailedOperation","inputs":[{"name":"token","type":"address","internalType":"address"}]}],"bytecode":{"object":"0x60806040523480156200001157600080fd5b50604051620022aa380380620022aa833981016040819052620000349162000327565b828282600062000045848262000429565b50600162000054838262000429565b50600480546001600160a01b0319163390811790915562000076908262000082565b50505050505062000559565b6001600160a01b038216620000e95760405162461bcd60e51b815260206004820152602360248201527f42617365546f6b656e3a206d696e7420746f20746865207a65726f206164647260448201526265737360e81b606482015260840160405180910390fd5b620000f482620001b4565b806002546200010491906200050b565b6002556001600160a01b0382166000908152600560205260409020546200012d9082906200050b565b6001600160a01b03831660009081526005602090815260408083209390935560089052205460ff16156200016f57806003546200016b91906200050b565b6003555b6040518181526001600160a01b038316906000907fddf252ad1be2c89b69c2b068fc378daa952ba7f163c4a11628f55a4df523b3ef9060200160405180910390a35050565b60005b6007548110156200025e57600060078281548110620001da57620001da62000527565b600091825260209091200154604051635fd6196560e01b81526001600160a01b03858116600483015290911691508190635fd6196590602401600060405180830381600087803b1580156200022e57600080fd5b505af115801562000243573d6000803e3d6000fd5b5050505050808062000255906200053d565b915050620001b7565b5050565b634e487b7160e01b600052604160045260246000fd5b600082601f8301126200028a57600080fd5b81516001600160401b0380821115620002a757620002a762000262565b604051601f8301601f19908116603f01168101908282118183101715620002d257620002d262000262565b81604052838152602092508683858801011115620002ef57600080fd5b600091505b83821015620003135785820183015181830184015290820190620002f4565b600093810190920192909252949350505050565b6000806000606084860312156200033d57600080fd5b83516001600160401b03808211156200035557600080fd5b620003638783880162000278565b945060208601519150808211156200037a57600080fd5b50620003898682870162000278565b925050604084015190509250925092565b600181811c90821680620003af57607f821691505b602082108103620003d057634e487b7160e01b600052602260045260246000fd5b50919050565b601f8211156200042457600081815260208120601f850160051c81016020861015620003ff5750805b601f850160051c820191505b8181101562000420578281556001016200040b565b5050505b505050565b81516001600160401b0381111562000445576200044562000262565b6200045d816200045684546200039a565b84620003d6565b602080601f8311600181146200049557600084156200047c5750858301515b600019600386901b1c1916600185901b17855562000420565b600085815260208120601f198616915b82811015620004c657888601518255948401946001909101908401620004a5565b5085821015620004e55787850151600019600388901b60f8161c191681555b5050505050600190811b01905550565b634e487b7160e01b600052601160045260246000fd5b80820180821115620005215762000521620004f5565b92915050565b634e487b7160e01b600052603260045260246000fd5b600060018201620005525762000552620004f5565b5060010190565b611d4180620005696000396000f3fe608060405234801561001057600080fd5b506004361061021c5760003560e01c80636228907711610125578063a9059cbb116100ad578063cf456ae71161007c578063cf456ae714610509578063cfad57a21461051c578063dd62ed3e1461052f578063dfbaefb114610568578063fb30d9161461057557600080fd5b8063a9059cbb146104b7578063a923fc40146104ca578063aa271e1a146104dd578063c93be6361461050057600080fd5b80639554381a116100f45780639554381a1461045357806395d89b4114610476578063996f11ee1461047e5780639cb7de4b146104915780639dc29fac146104a457600080fd5b806362289077146103fc578063704802751461040f57806370a0823114610422578063817b1cd21461044b57600080fd5b806327e235e3116101a857806346ea87af1161017757806346ea87af1461037557806352cd38d91461039857806355b6ed5c146103ab5780635a47a1a7146103d657806360217267146103e957600080fd5b806327e235e314610305578063313ce5671461032557806340c10f191461033f578063429b62e51461035257600080fd5b80631785f53c116101ef5780631785f53c146102a257806318160ddd146102b55780631e83409a146102cc57806323b872dd146102df578063276eab4e146102f257600080fd5b806301e336671461022157806306fdde0314610236578063095ea7b31461025457806312d43a5114610277575b600080fd5b61023461022f366004611787565b610588565b005b61023e6105d4565b60405161024b91906117e7565b60405180910390f35b61026761026236600461181a565b610662565b604051901515815260200161024b565b60045461028a906001600160a01b031681565b6040516001600160a01b03909116815260200161024b565b6102346102b0366004611844565b610679565b6102be60025481565b60405190815260200161024b565b6102346102da366004611844565b6106c4565b6102676102ed366004611787565b610781565b6102346103003660046118a6565b610800565b6102be610313366004611844565b60056020526000908152604090205481565b61032d601281565b60405160ff909116815260200161024b565b61023461034d36600461181a565b61083d565b610267610360366004611844565b60096020526000908152604090205460ff1681565b610267610383366004611844565b600b6020526000908152604090205460ff1681565b61028a6103a6366004611953565b6108a6565b6102be6103b936600461196c565b600660209081526000928352604080842090915290825290205481565b6102346103e43660046119b0565b6108d0565b6102be6103f7366004611844565b61090d565b61023461040a366004611844565b610952565b61023461041d366004611844565b610a3f565b6102be610430366004611844565b6001600160a01b031660009081526005602052604090205490565b6102be610a8d565b610267610461366004611844565b60086020526000908152604090205460ff1681565b61023e610aa4565b61023461048c36600461196c565b610ab1565b61023461049f3660046119cd565b610b9b565b6102346104b236600461181a565b610bf0565b6102676104c536600461181a565b610c59565b6102346104d8366004611a74565b610c66565b6102676104eb366004611844565b600c6020526000908152604090205460ff1681565b6102be60035481565b6102346105173660046119cd565b610ca9565b61023461052a366004611844565b610cfe565b6102be61053d36600461196c565b6001600160a01b03918216600090815260066020908152604080832093909416825291909152205490565b600a546102679060ff1681565b610234610583366004611844565b610da0565b6004546001600160a01b031633146105bb5760405162461bcd60e51b81526004016105b290611ad8565b60405180910390fd5b6105cf6001600160a01b0384168383610e78565b505050565b600080546105e190611b06565b80601f016020809104026020016040519081016040528092919081815260200182805461060d90611b06565b801561065a5780601f1061062f5761010080835404028352916020019161065a565b820191906000526020600020905b81548152906001019060200180831161063d57829003601f168201915b505050505081565b600061066f338484610eca565b5060015b92915050565b6004546001600160a01b031633146106a35760405162461bcd60e51b81526004016105b290611ad8565b6001600160a01b03166000908152600960205260409020805460ff19169055565b60005b60075481101561077d576000600782815481106106e6576106e6611b40565b6000918252602090912001546040516310e059a160e11b81523360048201526001600160a01b038581166024830152909116915081906321c0b342906044016020604051808303816000875af1158015610744573d6000803e3d6000fd5b505050506040513d601f19601f820116820180604052508101906107689190611b56565b5050808061077590611b85565b9150506106c7565b5050565b336000908152600b602052604081205460ff16156107ac576107a4848484610ff8565b5060016107f9565b6001600160a01b03841660009081526006602090815260408083203384529091528120546107db908490611b9e565b90506107e8853383610eca565b6107f3858585610ff8565b60019150505b9392505050565b6004546001600160a01b0316331461082a5760405162461bcd60e51b81526004016105b290611ad8565b805161077d9060079060208401906116f1565b336000908152600c602052604090205460ff1661089c5760405162461bcd60e51b815260206004820152601c60248201527f4d696e7461626c6542617365546f6b656e3a20666f7262696464656e0000000060448201526064016105b2565b61077d8282611262565b600781815481106108b657600080fd5b6000918252602090912001546001600160a01b0316905081565b6004546001600160a01b031633146108fa5760405162461bcd60e51b81526004016105b290611ad8565b600a805460ff1916911515919091179055565b6001600160a01b03811660009081526008602052604081205460ff161561093657506000919050565b506001600160a01b031660009081526005602052604090205490565b3360009081526009602052604090205460ff166109815760405162461bcd60e51b81526004016105b290611ad8565b6001600160a01b03811660009081526008602052604090205460ff16156109f55760405162461bcd60e51b815260206004820152602260248201527f42617365546f6b656e3a205f6163636f756e7420616c7265616479206d61726b604482015261195960f21b60648201526084016105b2565b6109fe81611387565b6001600160a01b0381166000908152600860209081526040808320805460ff191660011790556005909152902054600354610a399190611bb1565b60035550565b6004546001600160a01b03163314610a695760405162461bcd60e51b81526004016105b290611ad8565b6001600160a01b03166000908152600960205260409020805460ff19166001179055565b6000600354600254610a9f9190611b9e565b905090565b600180546105e190611b06565b3360009081526009602052604090205460ff16610ae05760405162461bcd60e51b81526004016105b290611ad8565b60005b6007548110156105cf57600060078281548110610b0257610b02611b40565b6000918252602090912001546040516310e059a160e11b81526001600160a01b0386811660048301528581166024830152909116915081906321c0b342906044016020604051808303816000875af1158015610b62573d6000803e3d6000fd5b505050506040513d601f19601f82011682018060405250810190610b869190611b56565b50508080610b9390611b85565b915050610ae3565b6004546001600160a01b03163314610bc55760405162461bcd60e51b81526004016105b290611ad8565b6001600160a01b03919091166000908152600b60205260409020805460ff1916911515919091179055565b336000908152600c602052604090205460ff16610c4f5760405162461bcd60e51b815260206004820152601c60248201527f4d696e7461626c6542617365546f6b656e3a20666f7262696464656e0000000060448201526064016105b2565b61077d8282611428565b600061066f338484610ff8565b6004546001600160a01b03163314610c905760405162461bcd60e51b81526004016105b290611ad8565b6000610c9c8382611c12565b5060016105cf8282611c12565b6004546001600160a01b03163314610cd35760405162461bcd60e51b81526004016105b290611ad8565b6001600160a01b03919091166000908152600c60205260409020805460ff1916911515919091179055565b6004546001600160a01b03163314610d285760405162461bcd60e51b81526004016105b290611ad8565b6001600160a01b038116610d7e5760405162461bcd60e51b815260206004820152601f60248201527f42617365546f6b656e3a205f676f76206973207a65726f20616464726573730060448201526064016105b2565b600480546001600160a01b0319166001600160a01b0392909216919091179055565b3360009081526009602052604090205460ff16610dcf5760405162461bcd60e51b81526004016105b290611ad8565b6001600160a01b03811660009081526008602052604090205460ff16610e375760405162461bcd60e51b815260206004820152601e60248201527f42617365546f6b656e3a205f6163636f756e74206e6f74206d61726b6564000060448201526064016105b2565b610e4081611387565b6001600160a01b0381166000908152600860209081526040808320805460ff191690556005909152902054600354610a399190611b9e565b604080516001600160a01b038416602482015260448082018490528251808303909101815260649091019091526020810180516001600160e01b031663a9059cbb60e01b1790526105cf908490611554565b6001600160a01b038316610f315760405162461bcd60e51b815260206004820152602860248201527f42617365546f6b656e3a20617070726f76652066726f6d20746865207a65726f604482015267206164647265737360c01b60648201526084016105b2565b6001600160a01b038216610f965760405162461bcd60e51b815260206004820152602660248201527f42617365546f6b656e3a20617070726f766520746f20746865207a65726f206160448201526564647265737360d01b60648201526084016105b2565b6001600160a01b0383811660008181526006602090815260408083209487168084529482529182902085905590518481527f8c5be1e5ebec7d5bd14f71427d1e84f3dd0314c0f7b2291e5b200ac8c7c3b92591015b60405180910390a3505050565b6001600160a01b0383166110605760405162461bcd60e51b815260206004820152602960248201527f42617365546f6b656e3a207472616e736665722066726f6d20746865207a65726044820152686f206164647265737360b81b60648201526084016105b2565b6001600160a01b0382166110c65760405162461bcd60e51b815260206004820152602760248201527f42617365546f6b656e3a207472616e7366657220746f20746865207a65726f206044820152666164647265737360c81b60648201526084016105b2565b600a5460ff161561113e57336000908152600b602052604090205460ff1661113e5760405162461bcd60e51b815260206004820152602560248201527f42617365546f6b656e3a206d73672e73656e646572206e6f742077686974656c6044820152641a5cdd195960da1b60648201526084016105b2565b61114783611387565b61115082611387565b6001600160a01b038316600090815260056020526040902054611174908290611b9e565b6001600160a01b0380851660009081526005602052604080822093909355908416815220546111a4908290611bb1565b6001600160a01b0380841660009081526005602090815260408083209490945591861681526008909152205460ff16156111ea57806003546111e69190611b9e565b6003555b6001600160a01b03821660009081526008602052604090205460ff161561121d57806003546112199190611bb1565b6003555b816001600160a01b0316836001600160a01b03167fddf252ad1be2c89b69c2b068fc378daa952ba7f163c4a11628f55a4df523b3ef83604051610feb91815260200190565b6001600160a01b0382166112c45760405162461bcd60e51b815260206004820152602360248201527f42617365546f6b656e3a206d696e7420746f20746865207a65726f206164647260448201526265737360e81b60648201526084016105b2565b6112cd82611387565b806002546112db9190611bb1565b6002556001600160a01b038216600090815260056020526040902054611302908290611bb1565b6001600160a01b03831660009081526005602090815260408083209390935560089052205460ff1615611341578060035461133d9190611bb1565b6003555b6040518181526001600160a01b038316906000907fddf252ad1be2c89b69c2b068fc378daa952ba7f163c4a11628f55a4df523b3ef906020015b60405180910390a35050565b60005b60075481101561077d576000600782815481106113a9576113a9611b40565b600091825260209091200154604051635fd6196560e01b81526001600160a01b03858116600483015290911691508190635fd6196590602401600060405180830381600087803b1580156113fc57600080fd5b505af1158015611410573d6000803e3d6000fd5b5050505050808061142090611b85565b91505061138a565b6001600160a01b03821661148c5760405162461bcd60e51b815260206004820152602560248201527f42617365546f6b656e3a206275726e2066726f6d20746865207a65726f206164604482015264647265737360d81b60648201526084016105b2565b61149582611387565b6001600160a01b0382166000908152600560205260409020546114b9908290611b9e565b6001600160a01b0383166000908152600560205260409020556002546114e0908290611b9e565b6002556001600160a01b03821660009081526008602052604090205460ff161561151657806003546115129190611b9e565b6003555b6040518181526000906001600160a01b038416907fddf252ad1be2c89b69c2b068fc378daa952ba7f163c4a11628f55a4df523b3ef9060200161137b565b60006115696001600160a01b038416836115b7565b9050805160001415801561158e57508080602001905181019061158c9190611cd2565b155b156105cf57604051635274afe760e01b81526001600160a01b03841660048201526024016105b2565b60606107f9838360006115c86115e1565b604051630a12f52160e11b815260040160405180910390fd5b6060824710156116065760405163cd78605960e01b81523060048201526024016105b2565b600080866001600160a01b031685876040516116229190611cef565b60006040518083038185875af1925050503d806000811461165f576040519150601f19603f3d011682016040523d82523d6000602084013e611664565b606091505b509150915061167587838387611682565b925050505b949350505050565b606083156116d05782516000036116c957846001600160a01b03163b6000036116c957604051639996b31560e01b81526001600160a01b03861660048201526024016105b2565b508161167a565b61167a83838151156116e55781518083602001fd5b6115c88163ffffffff16565b828054828255906000526020600020908101928215611746579160200282015b8281111561174657825182546001600160a01b0319166001600160a01b03909116178255602090920191600190910190611711565b50611752929150611756565b5090565b5b808211156117525760008155600101611757565b80356001600160a01b038116811461178257600080fd5b919050565b60008060006060848603121561179c57600080fd5b6117a58461176b565b92506117b36020850161176b565b9150604084013590509250925092565b60005b838110156117de5781810151838201526020016117c6565b50506000910152565b60208152600082518060208401526118068160408501602087016117c3565b601f01601f19169190910160400192915050565b6000806040838503121561182d57600080fd5b6118368361176b565b946020939093013593505050565b60006020828403121561185657600080fd5b6107f98261176b565b634e487b7160e01b600052604160045260246000fd5b604051601f8201601f1916810167ffffffffffffffff8111828210171561189e5761189e61185f565b604052919050565b600060208083850312156118b957600080fd5b823567ffffffffffffffff808211156118d157600080fd5b818501915085601f8301126118e557600080fd5b8135818111156118f7576118f761185f565b8060051b9150611908848301611875565b818152918301840191848101908884111561192257600080fd5b938501935b83851015611947576119388561176b565b82529385019390850190611927565b98975050505050505050565b60006020828403121561196557600080fd5b5035919050565b6000806040838503121561197f57600080fd5b6119888361176b565b91506119966020840161176b565b90509250929050565b80151581146119ad57600080fd5b50565b6000602082840312156119c257600080fd5b81356107f98161199f565b600080604083850312156119e057600080fd5b6119e98361176b565b915060208301356119f98161199f565b809150509250929050565b600082601f830112611a1557600080fd5b813567ffffffffffffffff811115611a2f57611a2f61185f565b611a42601f8201601f1916602001611875565b818152846020838601011115611a5757600080fd5b816020850160208301376000918101602001919091529392505050565b60008060408385031215611a8757600080fd5b823567ffffffffffffffff80821115611a9f57600080fd5b611aab86838701611a04565b93506020850135915080821115611ac157600080fd5b50611ace85828601611a04565b9150509250929050565b6020808252601490820152732130b9b2aa37b5b2b71d103337b93134b23232b760611b604082015260600190565b600181811c90821680611b1a57607f821691505b602082108103611b3a57634e487b7160e01b600052602260045260246000fd5b50919050565b634e487b7160e01b600052603260045260246000fd5b600060208284031215611b6857600080fd5b5051919050565b634e487b7160e01b600052601160045260246000fd5b600060018201611b9757611b97611b6f565b5060010190565b8181038181111561067357610673611b6f565b8082018082111561067357610673611b6f565b601f8211156105cf57600081815260208120601f850160051c81016020861015611beb5750805b601f850160051c820191505b81811015611c0a57828155600101611bf7565b505050505050565b815167ffffffffffffffff811115611c2c57611c2c61185f565b611c4081611c3a8454611b06565b84611bc4565b602080601f831160018114611c755760008415611c5d5750858301515b600019600386901b1c1916600185901b178555611c0a565b600085815260208120601f198616915b82811015611ca457888601518255948401946001909101908401611c85565b5085821015611cc25787850151600019600388901b60f8161c191681555b5050505050600190811b01905550565b600060208284031215611ce457600080fd5b81516107f98161199f565b60008251611d018184602087016117c3565b919091019291505056fea264697066735822122021eb8bf3da1c033d5ed051498cd27a656437f435f4f86e95782dd66789056b1164736f6c63430008120033","linkReferences":{}},"methodIdentifiers":{"addAdmin(address)":"70480275","addNonStakingAccount(address)":"62289077","admins(address)":"429b62e5","allowance(address,address)":"dd62ed3e","allowances(address,address)":"55b6ed5c","approve(address,uint256)":"095ea7b3","balanceOf(address)":"70a08231","balances(address)":"27e235e3","burn(address,uint256)":"9dc29fac","claim(address)":"1e83409a","decimals()":"313ce567","gov()":"12d43a51","inPrivateTransferMode()":"dfbaefb1","isHandler(address)":"46ea87af","isMinter(address)":"aa271e1a","mint(address,uint256)":"40c10f19","name()":"06fdde03","nonStakingAccounts(address)":"9554381a","nonStakingSupply()":"c93be636","recoverClaim(address,address)":"996f11ee","removeAdmin(address)":"1785f53c","removeNonStakingAccount(address)":"fb30d916","setGov(address)":"cfad57a2","setHandler(address,bool)":"9cb7de4b","setInPrivateTransferMode(bool)":"5a47a1a7","setInfo(string,string)":"a923fc40","setMinter(address,bool)":"cf456ae7","setYieldTrackers(address[])":"276eab4e","stakedBalance(address)":"60217267","symbol()":"95d89b41","totalStaked()":"817b1cd2","totalSupply()":"18160ddd","transfer(address,uint256)":"a9059cbb","transferFrom(address,address,uint256)":"23b872dd","withdrawToken(address,address,uint256)":"01e33667","yieldTrackers(uint256)":"52cd38d9"},"id":131}