{"abi":[{"type":"function","name":"observe","inputs":[{"name":"","type":"uint32[]","internalType":"uint32[]"}],"outputs":[{"name":"tickCumulatives","type":"int56[]","internalType":"int56[]"},{"name":"secondsPerLiquidityCumulativeX128s","type":"uint160[]","internalType":"uint160[]"}],"stateMutability":"pure"},{"type":"function","name":"slot0","inputs":[],"outputs":[{"name":"sqrtPriceX96","type":"uint160","internalType":"uint160"},{"name":"tick","type":"int24","internalType":"int24"},{"name":"observationIndex","type":"uint16","internalType":"uint16"},{"name":"observationCardinality","type":"uint16","internalType":"uint16"},{"name":"observationCardinalityNext","type":"uint16","internalType":"uint16"},{"name":"feeProtocol","type":"uint8","internalType":"uint8"},{"name":"unlocked","type":"bool","internalType":"bool"}],"stateMutability":"view"},{"type":"function","name":"tickSpacing","inputs":[],"outputs":[{"name":"","type":"int24","internalType":"int24"}],"stateMutability":"pure"}],"bytecode":{"object":"0x608060405234801561001057600080fd5b50610256806100206000396000f3fe608060405234801561001057600080fd5b50600436106100415760003560e01c80633850c7bd14610046578063883bdbfd146100f0578063d0c93a7c14610115575b600080fd5b60005461009a906001600160a01b03811690600160a01b810460020b9061ffff600160b81b8204811691600160c81b8104821691600160d81b8204169060ff600160e81b8204811691600160f01b90041687565b604080516001600160a01b03909816885260029690960b602088015261ffff94851695870195909552918316606086015291909116608084015260ff1660a0830152151560c082015260e0015b60405180910390f35b6101076100fe366004610124565b50606091829150565b6040516100e7929190610199565b604051600081526020016100e7565b6000806020838503121561013757600080fd5b823567ffffffffffffffff8082111561014f57600080fd5b818501915085601f83011261016357600080fd5b81358181111561017257600080fd5b8660208260051b850101111561018757600080fd5b60209290920196919550909350505050565b604080825283519082018190526000906020906060840190828701845b828110156101d557815160060b845292840192908401906001016101b6565b5050508381038285015284518082528583019183019060005b818110156102135783516001600160a01b0316835292840192918401916001016101ee565b509097965050505050505056fea2646970667358221220e7ad1025264677c1e97862c42a199210e0235b441f605e9ffca3e648ed626d9364736f6c63430008120033","linkReferences":{}},"methodIdentifiers":{"observe(uint32[])":"883bdbfd","slot0()":"3850c7bd","tickSpacing()":"d0c93a7c"},"id":38}