{
  "abi": [
    {
      "inputs": [
        {
          "internalType": "address",
          "name": "_vault",
          "type": "address"
        },
        {
          "internalType": "address",
          "name": "_usdg",
          "type": "address"
        },
        {
          "internalType": "address",
          "name": "_weth",
          "type": "address"
        }
      ],
      "stateMutability": "nonpayable",
      "type": "constructor"
    },
    {
      "inputs": [
        {
          "internalType": "address",
          "name": "target",
          "type": "address"
        }
      ],
      "name": "AddressEmptyCode",
      "type": "error"
    },
    {
      "inputs": [
        {
          "internalType": "address",
          "name": "account",
          "type": "address"
        }
      ],
      "name": "AddressInsufficientBalance",
      "type": "error"
    },
    {
      "inputs": [],
      "name": "FailedInnerCall",
      "type": "error"
    },
    {
      "inputs": [
        {
          "internalType": "address",
          "name": "token",
          "type": "address"
        }
      ],
      "name": "SafeERC20FailedOperation",
      "type": "error"
    },
    {
      "anonymous": false,
      "inputs": [
        {
          "indexed": false,
          "internalType": "address",
          "name": "account",
          "type": "address"
        },
        {
          "indexed": false,
          "internalType": "address",
          "name": "tokenIn",
          "type": "address"
        },
        {
          "indexed": false,
          "internalType": "address",
          "name": "tokenOut",
          "type": "address"
        },
        {
          "indexed": false,
          "internalType": "uint256",
          "name": "amountIn",
          "type": "uint256"
        },
        {
          "indexed": false,
          "internalType": "uint256",
          "name": "amountOut",
          "type": "uint256"
        }
      ],
      "name": "Swap",
      "type": "event"
    },
    {
      "inputs": [
        {
          "internalType": "address",
          "name": "_plugin",
          "type": "address"
        }
      ],
      "name": "addPlugin",
      "outputs": [],
      "stateMutability": "nonpayable",
      "type": "function"
    },
    {
      "inputs": [
        {
          "internalType": "address",
          "name": "_plugin",
          "type": "address"
        }
      ],
      "name": "approvePlugin",
      "outputs": [],
      "stateMutability": "nonpayable",
      "type": "function"
    },
    {
      "inputs": [
        {
          "internalType": "address",
          "name": "",
          "type": "address"
        },
        {
          "internalType": "address",
          "name": "",
          "type": "address"
        }
      ],
      "name": "approvedPlugins",
      "outputs": [
        {
          "internalType": "bool",
          "name": "",
          "type": "bool"
        }
      ],
      "stateMutability": "view",
      "type": "function"
    },
    {
      "inputs": [
        {
          "internalType": "address",
          "name": "_collateralToken",
          "type": "address"
        },
        {
          "internalType": "address",
          "name": "_indexToken",
          "type": "address"
        },
        {
          "internalType": "uint256",
          "name": "_collateralDelta",
          "type": "uint256"
        },
        {
          "internalType": "uint256",
          "name": "_sizeDelta",
          "type": "uint256"
        },
        {
          "internalType": "bool",
          "name": "_isLong",
          "type": "bool"
        },
        {
          "internalType": "address",
          "name": "_receiver",
          "type": "address"
        },
        {
          "internalType": "uint256",
          "name": "_price",
          "type": "uint256"
        }
      ],
      "name": "decreasePosition",
      "outputs": [],
      "stateMutability": "nonpayable",
      "type": "function"
    },
    {
      "inputs": [
        {
          "internalType": "address[]",
          "name": "_path",
          "type": "address[]"
        },
        {
          "internalType": "address",
          "name": "_indexToken",
          "type": "address"
        },
        {
          "internalType": "uint256",
          "name": "_collateralDelta",
          "type": "uint256"
        },
        {
          "internalType": "uint256",
          "name": "_sizeDelta",
          "type": "uint256"
        },
        {
          "internalType": "bool",
          "name": "_isLong",
          "type": "bool"
        },
        {
          "internalType": "address",
          "name": "_receiver",
          "type": "address"
        },
        {
          "internalType": "uint256",
          "name": "_price",
          "type": "uint256"
        },
        {
          "internalType": "uint256",
          "name": "_minOut",
          "type": "uint256"
        }
      ],
      "name": "decreasePositionAndSwap",
      "outputs": [],
      "stateMutability": "nonpayable",
      "type": "function"
    },
    {
      "inputs": [
        {
          "internalType": "address[]",
          "name": "_path",
          "type": "address[]"
        },
        {
          "internalType": "address",
          "name": "_indexToken",
          "type": "address"
        },
        {
          "internalType": "uint256",
          "name": "_collateralDelta",
          "type": "uint256"
        },
        {
          "internalType": "uint256",
          "name": "_sizeDelta",
          "type": "uint256"
        },
        {
          "internalType": "bool",
          "name": "_isLong",
          "type": "bool"
        },
        {
          "internalType": "address payable",
          "name": "_receiver",
          "type": "address"
        },
        {
          "internalType": "uint256",
          "name": "_price",
          "type": "uint256"
        },
        {
          "internalType": "uint256",
          "name": "_minOut",
          "type": "uint256"
        }
      ],
      "name": "decreasePositionAndSwapETH",
      "outputs": [],
      "stateMutability": "nonpayable",
      "type": "function"
    },
    {
      "inputs": [
        {
          "internalType": "address",
          "name": "_collateralToken",
          "type": "address"
        },
        {
          "internalType": "address",
          "name": "_indexToken",
          "type": "address"
        },
        {
          "internalType": "uint256",
          "name": "_collateralDelta",
          "type": "uint256"
        },
        {
          "internalType": "uint256",
          "name": "_sizeDelta",
          "type": "uint256"
        },
        {
          "internalType": "bool",
          "name": "_isLong",
          "type": "bool"
        },
        {
          "internalType": "address payable",
          "name": "_receiver",
          "type": "address"
        },
        {
          "internalType": "uint256",
          "name": "_price",
          "type": "uint256"
        }
      ],
      "name": "decreasePositionETH",
      "outputs": [],
      "stateMutability": "nonpayable",
      "type": "function"
    },
    {
      "inputs": [
        {
          "internalType": "address",
          "name": "_plugin",
          "type": "address"
        }
      ],
      "name": "denyPlugin",
      "outputs": [],
      "stateMutability": "nonpayable",
      "type": "function"
    },
    {
      "inputs": [
        {
          "internalType": "address",
          "name": "_token",
          "type": "address"
        },
        {
          "internalType": "uint256",
          "name": "_amount",
          "type": "uint256"
        }
      ],
      "name": "directPoolDeposit",
      "outputs": [],
      "stateMutability": "nonpayable",
      "type": "function"
    },
    {
      "inputs": [],
      "name": "gov",
      "outputs": [
        {
          "internalType": "address",
          "name": "",
          "type": "address"
        }
      ],
      "stateMutability": "view",
      "type": "function"
    },
    {
      "inputs": [
        {
          "internalType": "address[]",
          "name": "_path",
          "type": "address[]"
        },
        {
          "internalType": "address",
          "name": "_indexToken",
          "type": "address"
        },
        {
          "internalType": "uint256",
          "name": "_amountIn",
          "type": "uint256"
        },
        {
          "internalType": "uint256",
          "name": "_minOut",
          "type": "uint256"
        },
        {
          "internalType": "uint256",
          "name": "_sizeDelta",
          "type": "uint256"
        },
        {
          "internalType": "bool",
          "name": "_isLong",
          "type": "bool"
        },
        {
          "internalType": "uint256",
          "name": "_price",
          "type": "uint256"
        }
      ],
      "name": "increasePosition",
      "outputs": [],
      "stateMutability": "nonpayable",
      "type": "function"
    },
    {
      "inputs": [
        {
          "internalType": "address[]",
          "name": "_path",
          "type": "address[]"
        },
        {
          "internalType": "address",
          "name": "_indexToken",
          "type": "address"
        },
        {
          "internalType": "uint256",
          "name": "_minOut",
          "type": "uint256"
        },
        {
          "internalType": "uint256",
          "name": "_sizeDelta",
          "type": "uint256"
        },
        {
          "internalType": "bool",
          "name": "_isLong",
          "type": "bool"
        },
        {
          "internalType": "uint256",
          "name": "_price",
          "type": "uint256"
        }
      ],
      "name": "increasePositionETH",
      "outputs": [],
      "stateMutability": "payable",
      "type": "function"
    },
    {
      "inputs": [
        {
          "internalType": "address",
          "name": "_account",
          "type": "address"
        },
        {
          "internalType": "address",
          "name": "_collateralToken",
          "type": "address"
        },
        {
          "internalType": "address",
          "name": "_indexToken",
          "type": "address"
        },
        {
          "internalType": "uint256",
          "name": "_collateralDelta",
          "type": "uint256"
        },
        {
          "internalType": "uint256",
          "name": "_sizeDelta",
          "type": "uint256"
        },
        {
          "internalType": "bool",
          "name": "_isLong",
          "type": "bool"
        },
        {
          "internalType": "address",
          "name": "_receiver",
          "type": "address"
        }
      ],
      "name": "pluginDecreasePosition",
      "outputs": [
        {
          "internalType": "uint256",
          "name": "",
          "type": "uint256"
        }
      ],
      "stateMutability": "nonpayable",
      "type": "function"
    },
    {
      "inputs": [
        {
          "internalType": "address",
          "name": "_account",
          "type": "address"
        },
        {
          "internalType": "address",
          "name": "_collateralToken",
          "type": "address"
        },
        {
          "internalType": "address",
          "name": "_indexToken",
          "type": "address"
        },
        {
          "internalType": "uint256",
          "name": "_sizeDelta",
          "type": "uint256"
        },
        {
          "internalType": "bool",
          "name": "_isLong",
          "type": "bool"
        }
      ],
      "name": "pluginIncreasePosition",
      "outputs": [],
      "stateMutability": "nonpayable",
      "type": "function"
    },
    {
      "inputs": [
        {
          "internalType": "address",
          "name": "_token",
          "type": "address"
        },
        {
          "internalType": "address",
          "name": "_account",
          "type": "address"
        },
        {
          "internalType": "address",
          "name": "_receiver",
          "type": "address"
        },
        {
          "internalType": "uint256",
          "name": "_amount",
          "type": "uint256"
        }
      ],
      "name": "pluginTransfer",
      "outputs": [],
      "stateMutability": "nonpayable",
      "type": "function"
    },
    {
      "inputs": [
        {
          "internalType": "address",
          "name": "",
          "type": "address"
        }
      ],
      "name": "plugins",
      "outputs": [
        {
          "internalType": "bool",
          "name": "",
          "type": "bool"
        }
      ],
      "stateMutability": "view",
      "type": "function"
    },
    {
      "inputs": [
        {
          "internalType": "address",
          "name": "_plugin",
          "type": "address"
        }
      ],
      "name": "removePlugin",
      "outputs": [],
      "stateMutability": "nonpayable",
      "type": "function"
    },
    {
      "inputs": [
        {
          "internalType": "address",
          "name": "_gov",
          "type": "address"
        }
      ],
      "name": "setGov",
      "outputs": [],
      "stateMutability": "nonpayable",
      "type": "function"
    },
    {
      "inputs": [
        {
          "internalType": "address[]",
          "name": "_path",
          "type": "address[]"
        },
        {
          "internalType": "uint256",
          "name": "_amountIn",
          "type": "uint256"
        },
        {
          "internalType": "uint256",
          "name": "_minOut",
          "type": "uint256"
        },
        {
          "internalType": "address",
          "name": "_receiver",
          "type": "address"
        }
      ],
      "name": "swap",
      "outputs": [],
      "stateMutability": "nonpayable",
      "type": "function"
    },
    {
      "inputs": [
        {
          "internalType": "address[]",
          "name": "_path",
          "type": "address[]"
        },
        {
          "internalType": "uint256",
          "name": "_minOut",
          "type": "uint256"
        },
        {
          "internalType": "address",
          "name": "_receiver",
          "type": "address"
        }
      ],
      "name": "swapETHToTokens",
      "outputs": [],
      "stateMutability": "payable",
      "type": "function"
    },
    {
      "inputs": [
        {
          "internalType": "address[]",
          "name": "_path",
          "type": "address[]"
        },
        {
          "internalType": "uint256",
          "name": "_amountIn",
          "type": "uint256"
        },
        {
          "internalType": "uint256",
          "name": "_minOut",
          "type": "uint256"
        },
        {
          "internalType": "address payable",
          "name": "_receiver",
          "type": "address"
        }
      ],
      "name": "swapTokensToETH",
      "outputs": [],
      "stateMutability": "nonpayable",
      "type": "function"
    },
    {
      "inputs": [],
      "name": "usdg",
      "outputs": [
        {
          "internalType": "address",
          "name": "",
          "type": "address"
        }
      ],
      "stateMutability": "view",
      "type": "function"
    },
    {
      "inputs": [],
      "name": "vault",
      "outputs": [
        {
          "internalType": "address",
          "name": "",
          "type": "address"
        }
      ],
      "stateMutability": "view",
      "type": "function"
    },
    {
      "inputs": [],
      "name": "weth",
      "outputs": [
        {
          "internalType": "address",
          "name": "",
          "type": "address"
        }
      ],
      "stateMutability": "view",
      "type": "function"
    },
    {
      "stateMutability": "payable",
      "type": "receive"
    }
  ],
  "bytecode": {
    "object": "0x60806040523480156200001157600080fd5b5060405162002158380380620021588339810160408190526200003491620000a1565b600380546001600160a01b039485166001600160a01b03199182161790915560028054938516938216939093179092556001805491909316908216179091556000805490911633179055620000eb565b80516001600160a01b03811681146200009c57600080fd5b919050565b600080600060608486031215620000b757600080fd5b620000c28462000084565b9250620000d26020850162000084565b9150620000e26040850162000084565b90509250925092565b61205d80620000fb6000396000f3fe60806040526004361061014f5760003560e01c806390205d8c116100b6578063b7ddc9921161006f578063b7ddc9921461046b578063cedd43751461048b578063cfad57a2146104d4578063d8867fc8146104f4578063f5b91b7b14610514578063fbfa77cf1461053457600080fd5b806390205d8c146103aa57806390b64ad3146103ca578063956f285e146103ea578063a4d95b6414610425578063abe68eaa14610445578063b32755de1461045857600080fd5b806338c74dd91161010857806338c74dd91461029e5780633fc8cef3146102ea578063430ed37c1461030a5780634b12e6431461032a5780635fc8500e1461036a5780636023e9661461038a57600080fd5b806312d43a51146101b35780631b827878146101f05780631f1dd176146102105780632662166b146102305780632d4ba6a71461025e5780633039e37f1461027e57600080fd5b366101ae576001546001600160a01b031633146101ac5760405162461bcd60e51b81526020600482015260166024820152752937baba32b91d1034b73b30b634b21039b2b73232b960511b60448201526064015b60405180910390fd5b005b600080fd5b3480156101bf57600080fd5b506000546101d3906001600160a01b031681565b6040516001600160a01b0390911681526020015b60405180910390f35b3480156101fc57600080fd5b506101ac61020b366004611928565b610554565b34801561021c57600080fd5b506101ac61022b366004611987565b610578565b34801561023c57600080fd5b5061025061024b3660046119ef565b610607565b6040519081526020016101e7565b34801561026a57600080fd5b506101ac610279366004611b20565b61069d565b34801561028a57600080fd5b506101ac610299366004611b83565b610811565b3480156102aa57600080fd5b506101ac6102b9366004611c1f565b3360009081526005602090815260408083206001600160a01b0394909416835292905220805460ff19166001179055565b3480156102f657600080fd5b506001546101d3906001600160a01b031681565b34801561031657600080fd5b506101ac610325366004611c3c565b61090c565b34801561033657600080fd5b5061035a610345366004611c1f565b60046020526000908152604090205460ff1681565b60405190151581526020016101e7565b34801561037657600080fd5b506101ac610385366004611b83565b610933565b34801561039657600080fd5b506101ac6103a5366004611b20565b610985565b3480156103b657600080fd5b506101ac6103c5366004611c3c565b6109d2565b3480156103d657600080fd5b506101ac6103e5366004611cb7565b6109e1565b3480156103f657600080fd5b5061035a610405366004611ce3565b600560209081526000928352604080842090915290825290205460ff1681565b34801561043157600080fd5b506101ac610440366004611c1f565b610a5f565b6101ac610453366004611d1c565b610aaa565b6101ac610466366004611d77565b610bc5565b34801561047757600080fd5b506101ac610486366004611df7565b610cb6565b34801561049757600080fd5b506101ac6104a6366004611c1f565b3360009081526005602090815260408083206001600160a01b0394909416835292905220805460ff19169055565b3480156104e057600080fd5b506101ac6104ef366004611c1f565b610d70565b34801561050057600080fd5b506101ac61050f366004611c1f565b610e12565b34801561052057600080fd5b506002546101d3906001600160a01b031681565b34801561054057600080fd5b506003546101d3906001600160a01b031681565b61055d83610e60565b6105726001600160a01b038516848484610f2e565b50505050565b61058185610e60565b6003546040516348d91abf60e01b81526001600160a01b03878116600483015286811660248301528581166044830152606482018590528315156084830152909116906348d91abf9060a4015b600060405180830381600087803b1580156105e857600080fd5b505af11580156105fc573d6000803e3d6000fd5b505050505050505050565b600061061288610e60565b60035460405163082a084960e41b81526001600160a01b03909116906382a084909061064e908b908b908b908b908b908b908b90600401611e6b565b6020604051808303816000875af115801561066d573d6000803e3d6000fd5b505050506040513d601f19601f820116820180604052508101906106919190611eaa565b98975050505050505050565b6001805485516001600160a01b039091169186916106bb9190611ec3565b815181106106cb576106cb611ee4565b60200260200101516001600160a01b0316146106f95760405162461bcd60e51b81526004016101a390611efa565b610743335b60035486516001600160a01b03909116908690889060009061072257610722611ee4565b60200260200101516001600160a01b0316610f2e909392919063ffffffff16565b6000610750858430610f95565b905061075c81836110f9565b7fcd3829a3813dc3cdd188fd3d01dcf3268c16be2fdd2dd21d0665418816e46062338660008151811061079157610791611ee4565b602002602001015187600189516107a89190611ec3565b815181106107b8576107b8611ee4565b602002602001015187856040516108029594939291906001600160a01b03958616815293851660208501529190931660408301526060820192909252608081019190915260a00190565b60405180910390a15050505050565b6001805489516001600160a01b03909116918a9161082f9190611ec3565b8151811061083f5761083f611ee4565b60200260200101516001600160a01b03161461086d5760405162461bcd60e51b81526004016101a390611efa565b60006108988960008151811061088557610885611ee4565b602002602001015189898989308961116f565b90506108e7600360009054906101000a90046001600160a01b0316828b6000815181106108c7576108c7611ee4565b60200260200101516001600160a01b03166112ce9092919063ffffffff16565b60006108f48a8430610f95565b905061090081866110f9565b50505050505050505050565b600061091d8888888888308861116f565b905061092981846110f9565b5050505050505050565b600061094b8960008151811061088557610885611ee4565b905061097a600360009054906101000a90046001600160a01b0316828b6000815181106108c7576108c7611ee4565b610900898386610f95565b61098e336106fe565b600061099b858484610f95565b90507fcd3829a3813dc3cdd188fd3d01dcf3268c16be2fdd2dd21d0665418816e46062338660008151811061079157610791611ee4565b6109298787878787878761116f565b6109fc336003546001600160a01b0385811692911684610f2e565b600354604051635f7bc11960e01b81526001600160a01b03848116600483015290911690635f7bc11990602401600060405180830381600087803b158015610a4357600080fd5b505af1158015610a57573d6000803e3d6000fd5b505050505050565b6000546001600160a01b03163314610a895760405162461bcd60e51b81526004016101a390611f29565b6001600160a01b03166000908152600460205260409020805460ff19169055565b60015483516001600160a01b03909116908490600090610acc57610acc611ee4565b60200260200101516001600160a01b031614610afa5760405162461bcd60e51b81526004016101a390611efa565b610b02611304565b6000610b0f848484610f95565b90507fcd3829a3813dc3cdd188fd3d01dcf3268c16be2fdd2dd21d0665418816e460623385600081518110610b4657610b46611ee4565b60200260200101518660018851610b5d9190611ec3565b81518110610b6d57610b6d611ee4565b60200260200101513485604051610bb79594939291906001600160a01b03958616815293851660208501529190931660408301526060820192909252608081019190915260a00190565b60405180910390a150505050565b60015486516001600160a01b03909116908790600090610be757610be7611ee4565b60200260200101516001600160a01b031614610c155760405162461bcd60e51b81526004016101a390611efa565b3415610c2357610c23611304565b60018651118015610c345750600034115b15610c83576000610c46878630610f95565b9050610c81600360009054906101000a90046001600160a01b0316828960018b51610c719190611ec3565b815181106108c7576108c7611ee4565b505b610a578660018851610c959190611ec3565b81518110610ca557610ca5611ee4565b60200260200101518685858561138d565b8415610ce457610ce43360035489516001600160a01b039091169088908b9060009061072257610722611ee4565b60018751118015610cf55750600085115b15610d34576000610d07888630610f95565b9050610d32600360009054906101000a90046001600160a01b0316828a60018c51610c719190611ec3565b505b610d678760018951610d469190611ec3565b81518110610d5657610d56611ee4565b60200260200101518785858561138d565b50505050505050565b6000546001600160a01b03163314610d9a5760405162461bcd60e51b81526004016101a390611f29565b6001600160a01b038116610df05760405162461bcd60e51b815260206004820152601c60248201527f526f757465723a205f676f76206973207a65726f20616464726573730000000060448201526064016101a3565b600080546001600160a01b0319166001600160a01b0392909216919091179055565b6000546001600160a01b03163314610e3c5760405162461bcd60e51b81526004016101a390611f29565b6001600160a01b03166000908152600460205260409020805460ff19166001179055565b3360009081526004602052604090205460ff16610eb85760405162461bcd60e51b81526020600482015260166024820152752937baba32b91d1034b73b30b634b21038363ab3b4b760511b60448201526064016101a3565b6001600160a01b038116600090815260056020908152604080832033845290915290205460ff16610f2b5760405162461bcd60e51b815260206004820152601b60248201527f526f757465723a20706c7567696e206e6f7420617070726f766564000000000060448201526064016101a3565b50565b6040516001600160a01b0384811660248301528381166044830152606482018390526105729186918216906323b872dd906084015b604051602081830303815290604052915060e01b6020820180516001600160e01b0383818316178352505050506114ff565b60008351600203610fe757610fe084600081518110610fb657610fb6611ee4565b602002602001015185600181518110610fd157610fd1611ee4565b60200260200101518585611562565b90506110f2565b83516003036110aa5760006110338560008151811061100857611008611ee4565b60200260200101518660018151811061102357611023611ee4565b6020026020010151600030611562565b9050611062600360009054906101000a90046001600160a01b031682876001815181106108c7576108c7611ee4565b6110a28560018151811061107857611078611ee4565b60200260200101518660028151811061109357611093611ee4565b60200260200101518686611562565b9150506110f2565b60405162461bcd60e51b815260206004820152601c60248201527f526f757465723a20696e76616c6964205f706174682e6c656e6774680000000060448201526064016101a3565b9392505050565b600154604051632e1a7d4d60e01b8152600481018490526001600160a01b0390911690632e1a7d4d90602401600060405180830381600087803b15801561113f57600080fd5b505af1158015611153573d6000803e3d6000fd5b5061116b925050506001600160a01b0382168361172b565b5050565b60008315611208576003546040516340d3096b60e11b81526001600160a01b038981166004830152849216906381a612d690602401602060405180830381865afa1580156111c1573d6000803e3d6000fd5b505050506040513d601f19601f820116820180604052508101906111e59190611eaa565b10156112035760405162461bcd60e51b81526004016101a390611f54565b611294565b600354604051637092736960e11b81526001600160a01b0389811660048301528492169063e124e6d290602401602060405180830381865afa158015611252573d6000803e3d6000fd5b505050506040513d601f19601f820116820180604052508101906112769190611eaa565b11156112945760405162461bcd60e51b81526004016101a390611f97565b6003546001600160a01b03166382a08490338a8a8a8a8a8a6040518863ffffffff1660e01b815260040161064e9796959493929190611e6b565b6040516001600160a01b038381166024830152604482018390526112ff91859182169063a9059cbb90606401610f63565b505050565b600160009054906101000a90046001600160a01b03166001600160a01b031663d0e30db0346040518263ffffffff1660e01b81526004016000604051808303818588803b15801561135457600080fd5b505af1158015611368573d6000803e3d6000fd5b505060035460015461138b94506001600160a01b039081169350169050346112ce565b565b811561142457600354604051637092736960e11b81526001600160a01b0386811660048301528392169063e124e6d290602401602060405180830381865afa1580156113dd573d6000803e3d6000fd5b505050506040513d601f19601f820116820180604052508101906114019190611eaa565b111561141f5760405162461bcd60e51b81526004016101a390611f97565b6114b0565b6003546040516340d3096b60e11b81526001600160a01b038681166004830152839216906381a612d690602401602060405180830381865afa15801561146e573d6000803e3d6000fd5b505050506040513d601f19601f820116820180604052508101906114929190611eaa565b10156114b05760405162461bcd60e51b81526004016101a390611f54565b6003546040516348d91abf60e01b81523360048201526001600160a01b0387811660248301528681166044830152606482018690528415156084830152909116906348d91abf9060a4016105ce565b60006115146001600160a01b038416836117c2565b905080516000141580156115395750808060200190518101906115379190611fdb565b155b156112ff57604051635274afe760e01b81526001600160a01b03841660048201526024016101a3565b60025460009081906001600160a01b03908116908616036115fd5760035460405163734aaa3760e11b81526001600160a01b03888116600483015285811660248301529091169063e695546e906044015b6020604051808303816000875af11580156115d2573d6000803e3d6000fd5b505050506040513d601f19601f820116820180604052508101906115f69190611eaa565b90506116d0565b6002546001600160a01b039081169087160361164d57600354604051633b699bdd60e21b81526001600160a01b03878116600483015285811660248301529091169063eda66f74906044016115b3565b600354604051634998b10960e11b81526001600160a01b03888116600483015287811660248301528581166044830152909116906393316212906064016020604051808303816000875af11580156116a9573d6000803e3d6000fd5b505050506040513d601f19601f820116820180604052508101906116cd9190611eaa565b90505b838110156117205760405162461bcd60e51b815260206004820152601e60248201527f526f757465723a20696e73756666696369656e7420616d6f756e744f7574000060448201526064016101a3565b90505b949350505050565b8047101561174e5760405163cd78605960e01b81523060048201526024016101a3565b6000826001600160a01b03168260405160006040518083038185875af1925050503d806000811461179b576040519150601f19603f3d011682016040523d82523d6000602084013e6117a0565b606091505b50509050806112ff57604051630a12f52160e11b815260040160405180910390fd5b60606117d3838360006117dc6117f5565b90505b92915050565b604051630a12f52160e11b815260040160405180910390fd5b60608247101561181a5760405163cd78605960e01b81523060048201526024016101a3565b600080866001600160a01b031685876040516118369190611ff8565b60006040518083038185875af1925050503d8060008114611873576040519150601f19603f3d011682016040523d82523d6000602084013e611878565b606091505b509150915061188987838387611894565b979650505050505050565b606083156118e25782516000036118db57846001600160a01b03163b6000036118db57604051639996b31560e01b81526001600160a01b03861660048201526024016101a3565b5081611723565b61172383838151156118f75781518083602001fd5b6117dc8163ffffffff16565b6001600160a01b0381168114610f2b57600080fd5b803561192381611903565b919050565b6000806000806080858703121561193e57600080fd5b843561194981611903565b9350602085013561195981611903565b9250604085013561196981611903565b9396929550929360600135925050565b8015158114610f2b57600080fd5b600080600080600060a0868803121561199f57600080fd5b85356119aa81611903565b945060208601356119ba81611903565b935060408601356119ca81611903565b92506060860135915060808601356119e181611979565b809150509295509295909350565b600080600080600080600060e0888a031215611a0a57600080fd5b8735611a1581611903565b96506020880135611a2581611903565b95506040880135611a3581611903565b9450606088013593506080880135925060a0880135611a5381611979565b915060c0880135611a6381611903565b8091505092959891949750929550565b634e487b7160e01b600052604160045260246000fd5b600082601f830112611a9a57600080fd5b8135602067ffffffffffffffff80831115611ab757611ab7611a73565b8260051b604051601f19603f83011681018181108482111715611adc57611adc611a73565b604052938452858101830193838101925087851115611afa57600080fd5b83870191505b8482101561188957611b1182611918565b83529183019190830190611b00565b60008060008060808587031215611b3657600080fd5b843567ffffffffffffffff811115611b4d57600080fd5b611b5987828801611a89565b94505060208501359250604085013591506060850135611b7881611903565b939692955090935050565b600080600080600080600080610100898b031215611ba057600080fd5b883567ffffffffffffffff811115611bb757600080fd5b611bc38b828c01611a89565b9850506020890135611bd481611903565b965060408901359550606089013594506080890135611bf281611979565b935060a0890135611c0281611903565b979a969950949793969295929450505060c08201359160e0013590565b600060208284031215611c3157600080fd5b81356110f281611903565b600080600080600080600060e0888a031215611c5757600080fd5b8735611c6281611903565b96506020880135611c7281611903565b955060408801359450606088013593506080880135611c9081611979565b925060a0880135611ca081611903565b8092505060c0880135905092959891949750929550565b60008060408385031215611cca57600080fd5b8235611cd581611903565b946020939093013593505050565b60008060408385031215611cf657600080fd5b8235611d0181611903565b91506020830135611d1181611903565b809150509250929050565b600080600060608486031215611d3157600080fd5b833567ffffffffffffffff811115611d4857600080fd5b611d5486828701611a89565b935050602084013591506040840135611d6c81611903565b809150509250925092565b60008060008060008060c08789031215611d9057600080fd5b863567ffffffffffffffff811115611da757600080fd5b611db389828a01611a89565b9650506020870135611dc481611903565b945060408701359350606087013592506080870135611de281611979565b8092505060a087013590509295509295509295565b600080600080600080600060e0888a031215611e1257600080fd5b873567ffffffffffffffff811115611e2957600080fd5b611e358a828b01611a89565b9750506020880135611e4681611903565b955060408801359450606088013593506080880135925060a0880135611ca081611979565b6001600160a01b0397881681529587166020870152938616604086015260608501929092526080840152151560a083015290911660c082015260e00190565b600060208284031215611ebc57600080fd5b5051919050565b818103818111156117d657634e487b7160e01b600052601160045260246000fd5b634e487b7160e01b600052603260045260246000fd5b6020808252601590820152740a4deeae8cae47440d2dcecc2d8d2c840bee0c2e8d605b1b604082015260600190565b6020808252601190820152702937baba32b91d103337b93134b23232b760791b604082015260600190565b60208082526023908201527f526f757465723a206d61726b207072696365206c6f776572207468616e206c696040820152621b5a5d60ea1b606082015260800190565b60208082526024908201527f526f757465723a206d61726b20707269636520686967686572207468616e206c6040820152631a5b5a5d60e21b606082015260800190565b600060208284031215611fed57600080fd5b81516110f281611979565b6000825160005b818110156120195760208186018101518583015201611fff565b50600092019182525091905056fea2646970667358221220db9e4b2f6aa540b766f5a228c1af88bc27ac8e6c9ad5ba0e019fc803e37f364864736f6c63430008120033",
    "linkReferences": {}
  },
  "methodIdentifiers": {
    "addPlugin(address)": "d8867fc8",
    "approvePlugin(address)": "38c74dd9",
    "approvedPlugins(address,address)": "956f285e",
    "decreasePosition(address,address,uint256,uint256,bool,address,uint256)": "90205d8c",
    "decreasePositionAndSwap(address[],address,uint256,uint256,bool,address,uint256,uint256)": "5fc8500e",
    "decreasePositionAndSwapETH(address[],address,uint256,uint256,bool,address,uint256,uint256)": "3039e37f",
    "decreasePositionETH(address,address,uint256,uint256,bool,address,uint256)": "430ed37c",
    "denyPlugin(address)": "cedd4375",
    "directPoolDeposit(address,uint256)": "90b64ad3",
    "gov()": "12d43a51",
    "increasePosition(address[],address,uint256,uint256,uint256,bool,uint256)": "b7ddc992",
    "increasePositionETH(address[],address,uint256,uint256,bool,uint256)": "b32755de",
    "pluginDecreasePosition(address,address,address,uint256,uint256,bool,address)": "2662166b",
    "pluginIncreasePosition(address,address,address,uint256,bool)": "1f1dd176",
    "pluginTransfer(address,address,address,uint256)": "1b827878",
    "plugins(address)": "4b12e643",
    "removePlugin(address)": "a4d95b64",
    "setGov(address)": "cfad57a2",
    "swap(address[],uint256,uint256,address)": "6023e966",
    "swapETHToTokens(address[],uint256,address)": "abe68eaa",
    "swapTokensToETH(address[],uint256,uint256,address)": "2d4ba6a7",
    "usdg()": "f5b91b7b",
    "vault()": "fbfa77cf",
    "weth()": "3fc8cef3"
  },
  "id": 32
}