{"abi":[{"type":"constructor","inputs":[{"name":"name","type":"string","internalType":"string"},{"name":"symbol","type":"string","internalType":"string"},{"name":"decimals","type":"uint8","internalType":"uint8"},{"name":"dropletAmount","type":"uint256","internalType":"uint256"}],"stateMutability":"nonpayable"},{"type":"function","name":"DROPLET_INTERVAL","inputs":[],"outputs":[{"name":"","type":"uint256","internalType":"uint256"}],"stateMutability":"view"},{"type":"function","name":"_claimedAt","inputs":[{"name":"","type":"address","internalType":"address"}],"outputs":[{"name":"","type":"uint256","internalType":"uint256"}],"stateMutability":"view"},{"type":"function","name":"_dropletAmount","inputs":[],"outputs":[{"name":"","type":"uint256","internalType":"uint256"}],"stateMutability":"view"},{"type":"function","name":"_gov","inputs":[],"outputs":[{"name":"","type":"address","internalType":"address"}],"stateMutability":"view"},{"type":"function","name":"_isFaucetEnabled","inputs":[],"outputs":[{"name":"","type":"bool","internalType":"bool"}],"stateMutability":"view"},{"type":"function","name":"allowance","inputs":[{"name":"owner","type":"address","internalType":"address"},{"name":"spender","type":"address","internalType":"address"}],"outputs":[{"name":"","type":"uint256","internalType":"uint256"}],"stateMutability":"view"},{"type":"function","name":"approve","inputs":[{"name":"spender","type":"address","internalType":"address"},{"name":"amount","type":"uint256","internalType":"uint256"}],"outputs":[{"name":"","type":"bool","internalType":"bool"}],"stateMutability":"nonpayable"},{"type":"function","name":"balanceOf","inputs":[{"name":"account","type":"address","internalType":"address"}],"outputs":[{"name":"","type":"uint256","internalType":"uint256"}],"stateMutability":"view"},{"type":"function","name":"claimDroplet","inputs":[],"outputs":[],"stateMutability":"nonpayable"},{"type":"function","name":"decimals","inputs":[],"outputs":[{"name":"","type":"uint8","internalType":"uint8"}],"stateMutability":"view"},{"type":"function","name":"decreaseAllowance","inputs":[{"name":"spender","type":"address","internalType":"address"},{"name":"subtractedValue","type":"uint256","internalType":"uint256"}],"outputs":[{"name":"","type":"bool","internalType":"bool"}],"stateMutability":"nonpayable"},{"type":"function","name":"disableFaucet","inputs":[],"outputs":[],"stateMutability":"nonpayable"},{"type":"function","name":"enableFaucet","inputs":[],"outputs":[],"stateMutability":"nonpayable"},{"type":"function","name":"increaseAllowance","inputs":[{"name":"spender","type":"address","internalType":"address"},{"name":"addedValue","type":"uint256","internalType":"uint256"}],"outputs":[{"name":"","type":"bool","internalType":"bool"}],"stateMutability":"nonpayable"},{"type":"function","name":"mint","inputs":[{"name":"account","type":"address","internalType":"address"},{"name":"amount","type":"uint256","internalType":"uint256"}],"outputs":[],"stateMutability":"nonpayable"},{"type":"function","name":"name","inputs":[],"outputs":[{"name":"","type":"string","internalType":"string"}],"stateMutability":"view"},{"type":"function","name":"setDropletAmount","inputs":[{"name":"dropletAmount","type":"uint256","internalType":"uint256"}],"outputs":[],"stateMutability":"nonpayable"},{"type":"function","name":"symbol","inputs":[],"outputs":[{"name":"","type":"string","internalType":"string"}],"stateMutability":"view"},{"type":"function","name":"totalSupply","inputs":[],"outputs":[{"name":"","type":"uint256","internalType":"uint256"}],"stateMutability":"view"},{"type":"function","name":"transfer","inputs":[{"name":"recipient","type":"address","internalType":"address"},{"name":"amount","type":"uint256","internalType":"uint256"}],"outputs":[{"name":"","type":"bool","internalType":"bool"}],"stateMutability":"nonpayable"},{"type":"function","name":"transferFrom","inputs":[{"name":"sender","type":"address","internalType":"address"},{"name":"recipient","type":"address","internalType":"address"},{"name":"amount","type":"uint256","internalType":"uint256"}],"outputs":[{"name":"","type":"bool","internalType":"bool"}],"stateMutability":"nonpayable"},{"type":"event","name":"Approval","inputs":[{"name":"owner","type":"address","indexed":true,"internalType":"address"},{"name":"spender","type":"address","indexed":true,"internalType":"address"},{"name":"value","type":"uint256","indexed":false,"internalType":"uint256"}],"anonymous":false},{"type":"event","name":"Transfer","inputs":[{"name":"from","type":"address","indexed":true,"internalType":"address"},{"name":"to","type":"address","indexed":true,"internalType":"address"},{"name":"value","type":"uint256","indexed":false,"internalType":"uint256"}],"anonymous":false}],"bytecode":{"object":"0x60806040526170806000553480156200001757600080fd5b5060405162000f3138038062000f318339810160408190526200003a9162000151565b60066200004885826200026b565b5060076200005784826200026b565b506008805460ff90931660ff1990931692909217909155600180546001600160a01b0319163317905560025550620003379050565b634e487b7160e01b600052604160045260246000fd5b600082601f830112620000b457600080fd5b81516001600160401b0380821115620000d157620000d16200008c565b604051601f8301601f19908116603f01168101908282118183101715620000fc57620000fc6200008c565b816040528381526020925086838588010111156200011957600080fd5b600091505b838210156200013d57858201830151818301840152908201906200011e565b600093810190920192909252949350505050565b600080600080608085870312156200016857600080fd5b84516001600160401b03808211156200018057600080fd5b6200018e88838901620000a2565b95506020870151915080821115620001a557600080fd5b50620001b487828801620000a2565b935050604085015160ff81168114620001cc57600080fd5b6060959095015193969295505050565b600181811c90821680620001f157607f821691505b6020821081036200021257634e487b7160e01b600052602260045260246000fd5b50919050565b601f8211156200026657600081815260208120601f850160051c81016020861015620002415750805b601f850160051c820191505b8181101562000262578281556001016200024d565b5050505b505050565b81516001600160401b038111156200028757620002876200008c565b6200029f81620002988454620001dc565b8462000218565b602080601f831160018114620002d75760008415620002be5750858301515b600019600386901b1c1916600185901b17855562000262565b600085815260208120601f198616915b828110156200030857888601518255948401946001909101908401620002e7565b5085821015620003275787850151600019600388901b60f8161c191681555b5050505050600190811b01905550565b610bea80620003476000396000f3fe608060405234801561001057600080fd5b50600436106101375760003560e01c806370a08231116100b8578063a9059cbb1161007c578063a9059cbb1461028c578063bd1364481461029f578063c7c7dee5146102a8578063d08f8b3f146102b0578063dd62ed3e146102c3578063e6511743146102fc57600080fd5b806370a0823114610233578063944d3c2a1461025c57806395d89b4114610264578063a1c2fb0c1461026c578063a457c2d71461027957600080fd5b8063313ce567116100ff578063313ce567146101c257806339509351146101d757806340c10f19146101ea578063458a7c36146101ff57806363878f161461020857600080fd5b806306fdde031461013c578063095ea7b31461015a57806318160ddd1461017d57806323b872dd1461018f578063309ef252146101a2575b600080fd5b610144610304565b60405161015191906109d0565b60405180910390f35b61016d610168366004610a3a565b610396565b6040519015158152602001610151565b6005545b604051908152602001610151565b61016d61019d366004610a64565b6103ad565b6101816101b0366004610aa0565b60046020526000908152604090205481565b60085460405160ff9091168152602001610151565b61016d6101e5366004610a3a565b6103ff565b6101fd6101f8366004610a3a565b610436565b005b61018160025481565b60015461021b906001600160a01b031681565b6040516001600160a01b039091168152602001610151565b610181610241366004610aa0565b6001600160a01b031660009081526009602052604090205490565b6101fd610477565b6101446104ad565b60035461016d9060ff1681565b61016d610287366004610a3a565b6104bc565b61016d61029a366004610a3a565b6104f3565b61018160005481565b6101fd610500565b6101fd6102be366004610ac2565b610539565b6101816102d1366004610adb565b6001600160a01b039182166000908152600a6020908152604080832093909416825291909152205490565b6101fd610568565b60606006805461031390610b0e565b80601f016020809104026020016040519081016040528092919081815260200182805461033f90610b0e565b801561038c5780601f106103615761010080835404028352916020019161038c565b820191906000526020600020905b81548152906001019060200180831161036f57829003601f168201915b5050505050905090565b60006103a3338484610655565b5060015b92915050565b60006103ba84848461077a565b6001600160a01b0384166000908152600a60209081526040808320338085529252909120546103f59186916103f0908690610b5e565b610655565b5060019392505050565b336000818152600a602090815260408083206001600160a01b038716845290915281205490916103a39185906103f0908690610b71565b6001546001600160a01b031633146104695760405162461bcd60e51b815260040161046090610b84565b60405180910390fd5b61047382826108e8565b5050565b6001546001600160a01b031633146104a15760405162461bcd60e51b815260040161046090610b84565b6003805460ff19169055565b60606007805461031390610b0e565b336000818152600a602090815260408083206001600160a01b038716845290915281205490916103a39185906103f0908690610b5e565b60006103a333848461077a565b6001546001600160a01b0316331461052a5760405162461bcd60e51b815260040161046090610b84565b6003805460ff19166001179055565b6001546001600160a01b031633146105635760405162461bcd60e51b815260040161046090610b84565b600255565b60035460ff166105ba5760405162461bcd60e51b815260206004820152601f60248201527f466175636574546f6b656e3a20666175636574206e6f7420656e61626c6564006044820152606401610460565b60008054338252600460205260409091205442916105d791610b71565b11156106345760405162461bcd60e51b815260206004820152602660248201527f466175636574546f6b656e3a2064726f706c6574206e6f7420617661696c61626044820152651b19481e595d60d21b6064820152608401610460565b33600081815260046020526040902042905560025461065391906108e8565b565b6001600160a01b0383166106b75760405162461bcd60e51b8152602060048201526024808201527f45524332303a20617070726f76652066726f6d20746865207a65726f206164646044820152637265737360e01b6064820152608401610460565b6001600160a01b0382166107185760405162461bcd60e51b815260206004820152602260248201527f45524332303a20617070726f766520746f20746865207a65726f206164647265604482015261737360f01b6064820152608401610460565b6001600160a01b038381166000818152600a602090815260408083209487168084529482529182902085905590518481527f8c5be1e5ebec7d5bd14f71427d1e84f3dd0314c0f7b2291e5b200ac8c7c3b92591015b60405180910390a3505050565b6001600160a01b0383166107de5760405162461bcd60e51b815260206004820152602560248201527f45524332303a207472616e736665722066726f6d20746865207a65726f206164604482015264647265737360d81b6064820152608401610460565b6001600160a01b0382166108405760405162461bcd60e51b815260206004820152602360248201527f45524332303a207472616e7366657220746f20746865207a65726f206164647260448201526265737360e81b6064820152608401610460565b6001600160a01b038316600090815260096020526040902054610864908290610b5e565b6001600160a01b038085166000908152600960205260408082209390935590841681522054610894908290610b71565b6001600160a01b0380841660008181526009602052604090819020939093559151908516907fddf252ad1be2c89b69c2b068fc378daa952ba7f163c4a11628f55a4df523b3ef9061076d9085815260200190565b6001600160a01b03821661093e5760405162461bcd60e51b815260206004820152601f60248201527f45524332303a206d696e7420746f20746865207a65726f2061646472657373006044820152606401610460565b8060055461094c9190610b71565b6005556001600160a01b038216600090815260096020526040902054610973908290610b71565b6001600160a01b0383166000818152600960205260408082209390935591519091907fddf252ad1be2c89b69c2b068fc378daa952ba7f163c4a11628f55a4df523b3ef906109c49085815260200190565b60405180910390a35050565b600060208083528351808285015260005b818110156109fd578581018301518582016040015282016109e1565b506000604082860101526040601f19601f8301168501019250505092915050565b80356001600160a01b0381168114610a3557600080fd5b919050565b60008060408385031215610a4d57600080fd5b610a5683610a1e565b946020939093013593505050565b600080600060608486031215610a7957600080fd5b610a8284610a1e565b9250610a9060208501610a1e565b9150604084013590509250925092565b600060208284031215610ab257600080fd5b610abb82610a1e565b9392505050565b600060208284031215610ad457600080fd5b5035919050565b60008060408385031215610aee57600080fd5b610af783610a1e565b9150610b0560208401610a1e565b90509250929050565b600181811c90821680610b2257607f821691505b602082108103610b4257634e487b7160e01b600052602260045260246000fd5b50919050565b634e487b7160e01b600052601160045260246000fd5b818103818111156103a7576103a7610b48565b808201808211156103a7576103a7610b48565b6020808252601690820152752330bab1b2ba2a37b5b2b71d103337b93134b23232b760511b60408201526060019056fea2646970667358221220bdd56b6c234a22537ea52df3081ccfd6a279749bcaeb3aa4556fc7277fc59ba564736f6c63430008120033","linkReferences":{}},"methodIdentifiers":{"DROPLET_INTERVAL()":"bd136448","_claimedAt(address)":"309ef252","_dropletAmount()":"458a7c36","_gov()":"63878f16","_isFaucetEnabled()":"a1c2fb0c","allowance(address,address)":"dd62ed3e","approve(address,uint256)":"095ea7b3","balanceOf(address)":"70a08231","claimDroplet()":"e6511743","decimals()":"313ce567","decreaseAllowance(address,uint256)":"a457c2d7","disableFaucet()":"944d3c2a","enableFaucet()":"c7c7dee5","increaseAllowance(address,uint256)":"39509351","mint(address,uint256)":"40c10f19","name()":"06fdde03","setDropletAmount(uint256)":"d08f8b3f","symbol()":"95d89b41","totalSupply()":"18160ddd","transfer(address,uint256)":"a9059cbb","transferFrom(address,address,uint256)":"23b872dd"},"id":133}