{"abi":[{"type":"function","name":"gov","inputs":[],"outputs":[{"name":"","type":"address","internalType":"address"}],"stateMutability":"view"},{"type":"function","name":"setErrors","inputs":[{"name":"_vault","type":"address","internalType":"contract IVault"},{"name":"_errors","type":"string[]","internalType":"string[]"}],"outputs":[],"stateMutability":"nonpayable"},{"type":"function","name":"setGov","inputs":[{"name":"_gov","type":"address","internalType":"address"}],"outputs":[],"stateMutability":"nonpayable"}],"bytecode":{"object":"0x608060405234801561001057600080fd5b50600080546001600160a01b03191633179055610421806100326000396000f3fe608060405234801561001057600080fd5b50600436106100415760003560e01c806312d43a51146100465780636216c01b14610075578063cfad57a21461008a575b600080fd5b600054610059906001600160a01b031681565b6040516001600160a01b03909116815260200160405180910390f35b61008861008336600461027e565b61009d565b005b610088610098366004610306565b61019c565b6000546001600160a01b031633146100f45760405162461bcd60e51b815260206004820152601560248201527423b7bb32b93730b136329d103337b93134b23232b760591b60448201526064015b60405180910390fd5b60005b8181101561019657836001600160a01b03166328e67be5828585858181106101215761012161032a565b90506020028101906101339190610340565b6040518463ffffffff1660e01b81526004016101519392919061038e565b600060405180830381600087803b15801561016b57600080fd5b505af115801561017f573d6000803e3d6000fd5b50505050808061018e906103c4565b9150506100f7565b50505050565b6000546001600160a01b031633146101ee5760405162461bcd60e51b815260206004820152601560248201527423b7bb32b93730b136329d103337b93134b23232b760591b60448201526064016100eb565b6001600160a01b0381166102445760405162461bcd60e51b815260206004820181905260248201527f476f7665726e61626c653a205f676f76206973207a65726f206164647265737360448201526064016100eb565b600080546001600160a01b0319166001600160a01b0392909216919091179055565b6001600160a01b038116811461027b57600080fd5b50565b60008060006040848603121561029357600080fd5b833561029e81610266565b9250602084013567ffffffffffffffff808211156102bb57600080fd5b818601915086601f8301126102cf57600080fd5b8135818111156102de57600080fd5b8760208260051b85010111156102f357600080fd5b6020830194508093505050509250925092565b60006020828403121561031857600080fd5b813561032381610266565b9392505050565b634e487b7160e01b600052603260045260246000fd5b6000808335601e1984360301811261035757600080fd5b83018035915067ffffffffffffffff82111561037257600080fd5b60200191503681900382131561038757600080fd5b9250929050565b83815260406020820152816040820152818360608301376000818301606090810191909152601f909201601f1916010192915050565b6000600182016103e457634e487b7160e01b600052601160045260246000fd5b506001019056fea2646970667358221220698269d7e596905fefb08dab9fcdace5b08fe808f7127e1dd5856a5942c7ed3f64736f6c63430008120033","linkReferences":{}},"methodIdentifiers":{"gov()":"12d43a51","setErrors(address,string[])":"6216c01b","setGov(address)":"cfad57a2"},"id":50}