{
  "abi": [
    {
      "inputs": [],
      "name": "getReserves",
      "outputs": [
        {
          "internalType": "uint112",
          "name": "_reserve0",
          "type": "uint112"
        },
        {
          "internalType": "uint112",
          "name": "_reserve1",
          "type": "uint112"
        },
        {
          "internalType": "uint32",
          "name": "_blockTimestampLast",
          "type": "uint32"
        }
      ],
      "stateMutability": "view",
      "type": "function"
    },
    {
      "inputs": [
        {
          "internalType": "uint256",
          "name": "balance0",
          "type": "uint256"
        },
        {
          "internalType": "uint256",
          "name": "balance1",
          "type": "uint256"
        }
      ],
      "name": "setReserves",
      "outputs": [],
      "stateMutability": "nonpayable",
      "type": "function"
    }
  ],
  "bytecode": {
    "object": "0x608060405234801561001057600080fd5b50610124806100206000396000f3fe6080604052348015600f57600080fd5b506004361060325760003560e01c80630902f1ac1460375780638392b8c0146078575b600080fd5b600054604080516001600160701b038084168252600160701b840416602082015263ffffffff600160e01b9093049290921682820152519081900360600190f35b60cb608336600460cd565b6000805463ffffffff4216600160e01b026001600160e01b036001600160701b03948516600160701b026001600160e01b031990931694909516939093171792909216179055565b005b6000806040838503121560df57600080fd5b5050803592602090910135915056fea26469706673582212207836765bda04757155ac2895481cc5779797242b48350da5ffb645df90fc4c2364736f6c63430008120033",
    "linkReferences": {}
  },
  "methodIdentifiers": {
    "getReserves()": "0902f1ac",
    "setReserves(uint256,uint256)": "8392b8c0"
  },
  "id": 27
}