{"abi":[{"type":"constructor","inputs":[],"stateMutability":"nonpayable"},{"type":"function","name":"aggregator","inputs":[],"outputs":[{"name":"","type":"address","internalType":"address"}],"stateMutability":"view"},{"type":"function","name":"answer","inputs":[],"outputs":[{"name":"","type":"int256","internalType":"int256"}],"stateMutability":"view"},{"type":"function","name":"answers","inputs":[{"name":"","type":"uint80","internalType":"uint80"}],"outputs":[{"name":"","type":"int256","internalType":"int256"}],"stateMutability":"view"},{"type":"function","name":"decimals","inputs":[],"outputs":[{"name":"","type":"uint256","internalType":"uint256"}],"stateMutability":"view"},{"type":"function","name":"description","inputs":[],"outputs":[{"name":"","type":"string","internalType":"string"}],"stateMutability":"view"},{"type":"function","name":"getRoundData","inputs":[{"name":"_roundId","type":"uint80","internalType":"uint80"}],"outputs":[{"name":"","type":"uint80","internalType":"uint80"},{"name":"","type":"int256","internalType":"int256"},{"name":"","type":"uint256","internalType":"uint256"},{"name":"","type":"uint256","internalType":"uint256"},{"name":"","type":"uint80","internalType":"uint80"}],"stateMutability":"view"},{"type":"function","name":"gov","inputs":[],"outputs":[{"name":"","type":"address","internalType":"address"}],"stateMutability":"view"},{"type":"function","name":"isAdmin","inputs":[{"name":"","type":"address","internalType":"address"}],"outputs":[{"name":"","type":"bool","internalType":"bool"}],"stateMutability":"view"},{"type":"function","name":"latestAnswer","inputs":[],"outputs":[{"name":"","type":"int256","internalType":"int256"}],"stateMutability":"view"},{"type":"function","name":"latestRound","inputs":[],"outputs":[{"name":"","type":"uint80","internalType":"uint80"}],"stateMutability":"view"},{"type":"function","name":"roundId","inputs":[],"outputs":[{"name":"","type":"uint80","internalType":"uint80"}],"stateMutability":"view"},{"type":"function","name":"setAdmin","inputs":[{"name":"_account","type":"address","internalType":"address"},{"name":"_isAdmin","type":"bool","internalType":"bool"}],"outputs":[],"stateMutability":"nonpayable"},{"type":"function","name":"setLatestAnswer","inputs":[{"name":"_answer","type":"int256","internalType":"int256"}],"outputs":[],"stateMutability":"nonpayable"}],"bytecode":{"object":"0x60c06040526009608090815268141c9a58d95199595960ba1b60a0526002906100289082610108565b5034801561003557600080fd5b50600580546001600160a01b031916339081179091556000908152600760205260409020805460ff191660011790556101c7565b634e487b7160e01b600052604160045260246000fd5b600181811c9082168061009357607f821691505b6020821081036100b357634e487b7160e01b600052602260045260246000fd5b50919050565b601f82111561010357600081815260208120601f850160051c810160208610156100e05750805b601f850160051c820191505b818110156100ff578281556001016100ec565b5050505b505050565b81516001600160401b0381111561012157610121610069565b6101358161012f845461007f565b846100b9565b602080601f83116001811461016a57600084156101525750858301515b600019600386901b1c1916600185901b1785556100ff565b600085815260208120601f198616915b828110156101995788860151825594840194600190910190840161017a565b50858210156101b75787850151600019600388901b60f8161c191681555b5050505050600190811b01905550565b6105cd806101d66000396000f3fe608060405234801561001057600080fd5b50600436106100cf5760003560e01c80634c295ca31161008c5780637284e416116100665780637284e416146101d657806385bb7d69146101eb5780638cd221c9146101f45780639a6fc8f51461020757600080fd5b80634c295ca31461018957806350d25bcd146101a9578063668a0f02146101b157600080fd5b806304ea97b0146100d457806312d43a51146100e9578063245a7bfc1461011957806324d7806c1461012c578063313ce5671461015f5780634b0bddd214610176575b600080fd5b6100e76100e236600461041e565b61026a565b005b6005546100fc906001600160a01b031681565b6040516001600160a01b0390911681526020015b60405180910390f35b6003546100fc906001600160a01b031681565b61014f61013a366004610453565b60076020526000908152604090205460ff1681565b6040519015158152602001610110565b61016860045481565b604051908152602001610110565b6100e7610184366004610475565b610314565b6101686101973660046104b1565b60066020526000908152604090205481565b600054610168565b6001546001600160501b03165b6040516001600160501b039091168152602001610110565b6101de610390565b60405161011091906104da565b61016860005481565b6001546101be906001600160501b031681565b6102366102153660046104b1565b6001600160501b038116600090815260066020526040812054919281908190565b604080516001600160501b03968716815260208101959095528401929092526060830152909116608082015260a001610110565b3360009081526007602052604090205460ff166102c55760405162461bcd60e51b8152602060048201526014602482015273283934b1b2a332b2b21d103337b93134b23232b760611b60448201526064015b60405180910390fd5b600180546102de916001600160501b0390911690610528565b6001805469ffffffffffffffffffff19166001600160501b03929092169182179055600082815590815260066020526040902055565b6005546001600160a01b031633146103655760405162461bcd60e51b8152602060048201526014602482015273283934b1b2a332b2b21d103337b93134b23232b760611b60448201526064016102bc565b6001600160a01b03919091166000908152600760205260409020805460ff1916911515919091179055565b6002805461039d9061055d565b80601f01602080910402602001604051908101604052809291908181526020018280546103c99061055d565b80156104165780601f106103eb57610100808354040283529160200191610416565b820191906000526020600020905b8154815290600101906020018083116103f957829003601f168201915b505050505081565b60006020828403121561043057600080fd5b5035919050565b80356001600160a01b038116811461044e57600080fd5b919050565b60006020828403121561046557600080fd5b61046e82610437565b9392505050565b6000806040838503121561048857600080fd5b61049183610437565b9150602083013580151581146104a657600080fd5b809150509250929050565b6000602082840312156104c357600080fd5b81356001600160501b038116811461046e57600080fd5b600060208083528351808285015260005b81811015610507578581018301518582016040015282016104eb565b506000604082860101526040601f19601f8301168501019250505092915050565b6001600160501b0381811683821601908082111561055657634e487b7160e01b600052601160045260246000fd5b5092915050565b600181811c9082168061057157607f821691505b60208210810361059157634e487b7160e01b600052602260045260246000fd5b5091905056fea2646970667358221220cafb5593e93d55f96eb1592d7a30158ab743f746208e59b3855a10a30b968e8c64736f6c63430008120033","linkReferences":{}},"methodIdentifiers":{"aggregator()":"245a7bfc","answer()":"85bb7d69","answers(uint80)":"4c295ca3","decimals()":"313ce567","description()":"7284e416","getRoundData(uint80)":"9a6fc8f5","gov()":"12d43a51","isAdmin(address)":"24d7806c","latestAnswer()":"50d25bcd","latestRound()":"668a0f02","roundId()":"8cd221c9","setAdmin(address,bool)":"4b0bddd2","setLatestAnswer(int256)":"04ea97b0"},"id":88}