{
  "abi": [
    {
      "inputs": [
        {
          "internalType": "uint256",
          "name": "_priceDuration",
          "type": "uint256"
        },
        {
          "internalType": "uint256",
          "name": "_maxPriceUpdateDelay",
          "type": "uint256"
        },
        {
          "internalType": "uint256",
          "name": "_minBlockInterval",
          "type": "uint256"
        },
        {
          "internalType": "uint256",
          "name": "_maxDeviationBasisPoints",
          "type": "uint256"
        },
        {
          "internalType": "address",
          "name": "_fastPriceEvents",
          "type": "address"
        },
        {
          "internalType": "address",
          "name": "_tokenManager",
          "type": "address"
        }
      ],
      "stateMutability": "nonpayable",
      "type": "constructor"
    },
    {
      "anonymous": false,
      "inputs": [
        {
          "indexed": false,
          "internalType": "address",
          "name": "signer",
          "type": "address"
        }
      ],
      "name": "DisableFastPrice",
      "type": "event"
    },
    {
      "anonymous": false,
      "inputs": [
        {
          "indexed": false,
          "internalType": "address",
          "name": "signer",
          "type": "address"
        }
      ],
      "name": "EnableFastPrice",
      "type": "event"
    },
    {
      "anonymous": false,
      "inputs": [
        {
          "indexed": false,
          "internalType": "address",
          "name": "token",
          "type": "address"
        },
        {
          "indexed": false,
          "internalType": "uint256",
          "name": "refPrice",
          "type": "uint256"
        },
        {
          "indexed": false,
          "internalType": "uint256",
          "name": "fastPrice",
          "type": "uint256"
        },
        {
          "indexed": false,
          "internalType": "uint256",
          "name": "cumulativeRefDelta",
          "type": "uint256"
        },
        {
          "indexed": false,
          "internalType": "uint256",
          "name": "cumulativeFastDelta",
          "type": "uint256"
        }
      ],
      "name": "MaxCumulativeDeltaDiffExceeded",
      "type": "event"
    },
    {
      "anonymous": false,
      "inputs": [
        {
          "indexed": false,
          "internalType": "address",
          "name": "token",
          "type": "address"
        },
        {
          "indexed": false,
          "internalType": "uint256",
          "name": "refPrice",
          "type": "uint256"
        },
        {
          "indexed": false,
          "internalType": "uint256",
          "name": "fastPrice",
          "type": "uint256"
        },
        {
          "indexed": false,
          "internalType": "uint256",
          "name": "cumulativeRefDelta",
          "type": "uint256"
        },
        {
          "indexed": false,
          "internalType": "uint256",
          "name": "cumulativeFastDelta",
          "type": "uint256"
        }
      ],
      "name": "PriceData",
      "type": "event"
    },
    {
      "inputs": [],
      "name": "BASIS_POINTS_DIVISOR",
      "outputs": [
        {
          "internalType": "uint256",
          "name": "",
          "type": "uint256"
        }
      ],
      "stateMutability": "view",
      "type": "function"
    },
    {
      "inputs": [],
      "name": "BITMASK_32",
      "outputs": [
        {
          "internalType": "uint256",
          "name": "",
          "type": "uint256"
        }
      ],
      "stateMutability": "view",
      "type": "function"
    },
    {
      "inputs": [],
      "name": "CUMULATIVE_DELTA_PRECISION",
      "outputs": [
        {
          "internalType": "uint256",
          "name": "",
          "type": "uint256"
        }
      ],
      "stateMutability": "view",
      "type": "function"
    },
    {
      "inputs": [],
      "name": "MAX_CUMULATIVE_FAST_DELTA",
      "outputs": [
        {
          "internalType": "uint256",
          "name": "",
          "type": "uint256"
        }
      ],
      "stateMutability": "view",
      "type": "function"
    },
    {
      "inputs": [],
      "name": "MAX_CUMULATIVE_REF_DELTA",
      "outputs": [
        {
          "internalType": "uint256",
          "name": "",
          "type": "uint256"
        }
      ],
      "stateMutability": "view",
      "type": "function"
    },
    {
      "inputs": [],
      "name": "MAX_PRICE_DURATION",
      "outputs": [
        {
          "internalType": "uint256",
          "name": "",
          "type": "uint256"
        }
      ],
      "stateMutability": "view",
      "type": "function"
    },
    {
      "inputs": [],
      "name": "MAX_REF_PRICE",
      "outputs": [
        {
          "internalType": "uint256",
          "name": "",
          "type": "uint256"
        }
      ],
      "stateMutability": "view",
      "type": "function"
    },
    {
      "inputs": [],
      "name": "PRICE_PRECISION",
      "outputs": [
        {
          "internalType": "uint256",
          "name": "",
          "type": "uint256"
        }
      ],
      "stateMutability": "view",
      "type": "function"
    },
    {
      "inputs": [],
      "name": "disableFastPrice",
      "outputs": [],
      "stateMutability": "nonpayable",
      "type": "function"
    },
    {
      "inputs": [],
      "name": "disableFastPriceVoteCount",
      "outputs": [
        {
          "internalType": "uint256",
          "name": "",
          "type": "uint256"
        }
      ],
      "stateMutability": "view",
      "type": "function"
    },
    {
      "inputs": [
        {
          "internalType": "address",
          "name": "",
          "type": "address"
        }
      ],
      "name": "disableFastPriceVotes",
      "outputs": [
        {
          "internalType": "bool",
          "name": "",
          "type": "bool"
        }
      ],
      "stateMutability": "view",
      "type": "function"
    },
    {
      "inputs": [],
      "name": "enableFastPrice",
      "outputs": [],
      "stateMutability": "nonpayable",
      "type": "function"
    },
    {
      "inputs": [],
      "name": "fastPriceEvents",
      "outputs": [
        {
          "internalType": "address",
          "name": "",
          "type": "address"
        }
      ],
      "stateMutability": "view",
      "type": "function"
    },
    {
      "inputs": [
        {
          "internalType": "address",
          "name": "_token",
          "type": "address"
        }
      ],
      "name": "favorFastPrice",
      "outputs": [
        {
          "internalType": "bool",
          "name": "",
          "type": "bool"
        }
      ],
      "stateMutability": "view",
      "type": "function"
    },
    {
      "inputs": [
        {
          "internalType": "address",
          "name": "_token",
          "type": "address"
        },
        {
          "internalType": "uint256",
          "name": "_refPrice",
          "type": "uint256"
        },
        {
          "internalType": "bool",
          "name": "_maximise",
          "type": "bool"
        }
      ],
      "name": "getPrice",
      "outputs": [
        {
          "internalType": "uint256",
          "name": "",
          "type": "uint256"
        }
      ],
      "stateMutability": "view",
      "type": "function"
    },
    {
      "inputs": [
        {
          "internalType": "address",
          "name": "_token",
          "type": "address"
        }
      ],
      "name": "getPriceData",
      "outputs": [
        {
          "internalType": "uint256",
          "name": "",
          "type": "uint256"
        },
        {
          "internalType": "uint256",
          "name": "",
          "type": "uint256"
        },
        {
          "internalType": "uint256",
          "name": "",
          "type": "uint256"
        },
        {
          "internalType": "uint256",
          "name": "",
          "type": "uint256"
        }
      ],
      "stateMutability": "view",
      "type": "function"
    },
    {
      "inputs": [],
      "name": "gov",
      "outputs": [
        {
          "internalType": "address",
          "name": "",
          "type": "address"
        }
      ],
      "stateMutability": "view",
      "type": "function"
    },
    {
      "inputs": [
        {
          "internalType": "uint256",
          "name": "_minAuthorizations",
          "type": "uint256"
        },
        {
          "internalType": "address[]",
          "name": "_signers",
          "type": "address[]"
        },
        {
          "internalType": "address[]",
          "name": "_updaters",
          "type": "address[]"
        }
      ],
      "name": "initialize",
      "outputs": [],
      "stateMutability": "nonpayable",
      "type": "function"
    },
    {
      "inputs": [],
      "name": "isInitialized",
      "outputs": [
        {
          "internalType": "bool",
          "name": "",
          "type": "bool"
        }
      ],
      "stateMutability": "view",
      "type": "function"
    },
    {
      "inputs": [
        {
          "internalType": "address",
          "name": "",
          "type": "address"
        }
      ],
      "name": "isSigner",
      "outputs": [
        {
          "internalType": "bool",
          "name": "",
          "type": "bool"
        }
      ],
      "stateMutability": "view",
      "type": "function"
    },
    {
      "inputs": [],
      "name": "isSpreadEnabled",
      "outputs": [
        {
          "internalType": "bool",
          "name": "",
          "type": "bool"
        }
      ],
      "stateMutability": "view",
      "type": "function"
    },
    {
      "inputs": [
        {
          "internalType": "address",
          "name": "",
          "type": "address"
        }
      ],
      "name": "isUpdater",
      "outputs": [
        {
          "internalType": "bool",
          "name": "",
          "type": "bool"
        }
      ],
      "stateMutability": "view",
      "type": "function"
    },
    {
      "inputs": [],
      "name": "lastUpdatedAt",
      "outputs": [
        {
          "internalType": "uint256",
          "name": "",
          "type": "uint256"
        }
      ],
      "stateMutability": "view",
      "type": "function"
    },
    {
      "inputs": [],
      "name": "lastUpdatedBlock",
      "outputs": [
        {
          "internalType": "uint256",
          "name": "",
          "type": "uint256"
        }
      ],
      "stateMutability": "view",
      "type": "function"
    },
    {
      "inputs": [
        {
          "internalType": "address",
          "name": "",
          "type": "address"
        }
      ],
      "name": "maxCumulativeDeltaDiffs",
      "outputs": [
        {
          "internalType": "uint256",
          "name": "",
          "type": "uint256"
        }
      ],
      "stateMutability": "view",
      "type": "function"
    },
    {
      "inputs": [],
      "name": "maxDeviationBasisPoints",
      "outputs": [
        {
          "internalType": "uint256",
          "name": "",
          "type": "uint256"
        }
      ],
      "stateMutability": "view",
      "type": "function"
    },
    {
      "inputs": [],
      "name": "maxPriceUpdateDelay",
      "outputs": [
        {
          "internalType": "uint256",
          "name": "",
          "type": "uint256"
        }
      ],
      "stateMutability": "view",
      "type": "function"
    },
    {
      "inputs": [],
      "name": "maxTimeDeviation",
      "outputs": [
        {
          "internalType": "uint256",
          "name": "",
          "type": "uint256"
        }
      ],
      "stateMutability": "view",
      "type": "function"
    },
    {
      "inputs": [],
      "name": "minAuthorizations",
      "outputs": [
        {
          "internalType": "uint256",
          "name": "",
          "type": "uint256"
        }
      ],
      "stateMutability": "view",
      "type": "function"
    },
    {
      "inputs": [],
      "name": "minBlockInterval",
      "outputs": [
        {
          "internalType": "uint256",
          "name": "",
          "type": "uint256"
        }
      ],
      "stateMutability": "view",
      "type": "function"
    },
    {
      "inputs": [
        {
          "internalType": "address",
          "name": "",
          "type": "address"
        }
      ],
      "name": "priceData",
      "outputs": [
        {
          "internalType": "uint160",
          "name": "refPrice",
          "type": "uint160"
        },
        {
          "internalType": "uint32",
          "name": "refTime",
          "type": "uint32"
        },
        {
          "internalType": "uint32",
          "name": "cumulativeRefDelta",
          "type": "uint32"
        },
        {
          "internalType": "uint32",
          "name": "cumulativeFastDelta",
          "type": "uint32"
        }
      ],
      "stateMutability": "view",
      "type": "function"
    },
    {
      "inputs": [],
      "name": "priceDataInterval",
      "outputs": [
        {
          "internalType": "uint256",
          "name": "",
          "type": "uint256"
        }
      ],
      "stateMutability": "view",
      "type": "function"
    },
    {
      "inputs": [],
      "name": "priceDuration",
      "outputs": [
        {
          "internalType": "uint256",
          "name": "",
          "type": "uint256"
        }
      ],
      "stateMutability": "view",
      "type": "function"
    },
    {
      "inputs": [
        {
          "internalType": "address",
          "name": "",
          "type": "address"
        }
      ],
      "name": "prices",
      "outputs": [
        {
          "internalType": "uint256",
          "name": "",
          "type": "uint256"
        }
      ],
      "stateMutability": "view",
      "type": "function"
    },
    {
      "inputs": [
        {
          "internalType": "uint256[]",
          "name": "_priceBitArray",
          "type": "uint256[]"
        },
        {
          "internalType": "uint256",
          "name": "_timestamp",
          "type": "uint256"
        }
      ],
      "name": "setCompactedPrices",
      "outputs": [],
      "stateMutability": "nonpayable",
      "type": "function"
    },
    {
      "inputs": [
        {
          "internalType": "address",
          "name": "_fastPriceEvents",
          "type": "address"
        }
      ],
      "name": "setFastPriceEvents",
      "outputs": [],
      "stateMutability": "nonpayable",
      "type": "function"
    },
    {
      "inputs": [
        {
          "internalType": "address",
          "name": "_gov",
          "type": "address"
        }
      ],
      "name": "setGov",
      "outputs": [],
      "stateMutability": "nonpayable",
      "type": "function"
    },
    {
      "inputs": [
        {
          "internalType": "bool",
          "name": "_isSpreadEnabled",
          "type": "bool"
        }
      ],
      "name": "setIsSpreadEnabled",
      "outputs": [],
      "stateMutability": "nonpayable",
      "type": "function"
    },
    {
      "inputs": [
        {
          "internalType": "uint256",
          "name": "_lastUpdatedAt",
          "type": "uint256"
        }
      ],
      "name": "setLastUpdatedAt",
      "outputs": [],
      "stateMutability": "nonpayable",
      "type": "function"
    },
    {
      "inputs": [
        {
          "internalType": "address[]",
          "name": "_tokens",
          "type": "address[]"
        },
        {
          "internalType": "uint256[]",
          "name": "_maxCumulativeDeltaDiffs",
          "type": "uint256[]"
        }
      ],
      "name": "setMaxCumulativeDeltaDiffs",
      "outputs": [],
      "stateMutability": "nonpayable",
      "type": "function"
    },
    {
      "inputs": [
        {
          "internalType": "uint256",
          "name": "_maxDeviationBasisPoints",
          "type": "uint256"
        }
      ],
      "name": "setMaxDeviationBasisPoints",
      "outputs": [],
      "stateMutability": "nonpayable",
      "type": "function"
    },
    {
      "inputs": [
        {
          "internalType": "uint256",
          "name": "_maxPriceUpdateDelay",
          "type": "uint256"
        }
      ],
      "name": "setMaxPriceUpdateDelay",
      "outputs": [],
      "stateMutability": "nonpayable",
      "type": "function"
    },
    {
      "inputs": [
        {
          "internalType": "uint256",
          "name": "_maxTimeDeviation",
          "type": "uint256"
        }
      ],
      "name": "setMaxTimeDeviation",
      "outputs": [],
      "stateMutability": "nonpayable",
      "type": "function"
    },
    {
      "inputs": [
        {
          "internalType": "uint256",
          "name": "_minAuthorizations",
          "type": "uint256"
        }
      ],
      "name": "setMinAuthorizations",
      "outputs": [],
      "stateMutability": "nonpayable",
      "type": "function"
    },
    {
      "inputs": [
        {
          "internalType": "uint256",
          "name": "_minBlockInterval",
          "type": "uint256"
        }
      ],
      "name": "setMinBlockInterval",
      "outputs": [],
      "stateMutability": "nonpayable",
      "type": "function"
    },
    {
      "inputs": [
        {
          "internalType": "uint256",
          "name": "_priceDataInterval",
          "type": "uint256"
        }
      ],
      "name": "setPriceDataInterval",
      "outputs": [],
      "stateMutability": "nonpayable",
      "type": "function"
    },
    {
      "inputs": [
        {
          "internalType": "uint256",
          "name": "_priceDuration",
          "type": "uint256"
        }
      ],
      "name": "setPriceDuration",
      "outputs": [],
      "stateMutability": "nonpayable",
      "type": "function"
    },
    {
      "inputs": [
        {
          "internalType": "address[]",
          "name": "_tokens",
          "type": "address[]"
        },
        {
          "internalType": "uint256[]",
          "name": "_prices",
          "type": "uint256[]"
        },
        {
          "internalType": "uint256",
          "name": "_timestamp",
          "type": "uint256"
        }
      ],
      "name": "setPrices",
      "outputs": [],
      "stateMutability": "nonpayable",
      "type": "function"
    },
    {
      "inputs": [
        {
          "internalType": "uint256",
          "name": "_priceBits",
          "type": "uint256"
        },
        {
          "internalType": "uint256",
          "name": "_timestamp",
          "type": "uint256"
        }
      ],
      "name": "setPricesWithBits",
      "outputs": [],
      "stateMutability": "nonpayable",
      "type": "function"
    },
    {
      "inputs": [
        {
          "internalType": "address",
          "name": "_positionRouter",
          "type": "address"
        },
        {
          "internalType": "uint256",
          "name": "_priceBits",
          "type": "uint256"
        },
        {
          "internalType": "uint256",
          "name": "_timestamp",
          "type": "uint256"
        },
        {
          "internalType": "uint256",
          "name": "_endIndexForIncreasePositions",
          "type": "uint256"
        },
        {
          "internalType": "uint256",
          "name": "_endIndexForDecreasePositions",
          "type": "uint256"
        },
        {
          "internalType": "uint256",
          "name": "_maxIncreasePositions",
          "type": "uint256"
        },
        {
          "internalType": "uint256",
          "name": "_maxDecreasePositions",
          "type": "uint256"
        }
      ],
      "name": "setPricesWithBitsAndExecute",
      "outputs": [],
      "stateMutability": "nonpayable",
      "type": "function"
    },
    {
      "inputs": [
        {
          "internalType": "address",
          "name": "_account",
          "type": "address"
        },
        {
          "internalType": "bool",
          "name": "_isActive",
          "type": "bool"
        }
      ],
      "name": "setSigner",
      "outputs": [],
      "stateMutability": "nonpayable",
      "type": "function"
    },
    {
      "inputs": [
        {
          "internalType": "uint256",
          "name": "_spreadBasisPointsIfChainError",
          "type": "uint256"
        }
      ],
      "name": "setSpreadBasisPointsIfChainError",
      "outputs": [],
      "stateMutability": "nonpayable",
      "type": "function"
    },
    {
      "inputs": [
        {
          "internalType": "uint256",
          "name": "_spreadBasisPointsIfInactive",
          "type": "uint256"
        }
      ],
      "name": "setSpreadBasisPointsIfInactive",
      "outputs": [],
      "stateMutability": "nonpayable",
      "type": "function"
    },
    {
      "inputs": [
        {
          "internalType": "address",
          "name": "_tokenManager",
          "type": "address"
        }
      ],
      "name": "setTokenManager",
      "outputs": [],
      "stateMutability": "nonpayable",
      "type": "function"
    },
    {
      "inputs": [
        {
          "internalType": "address[]",
          "name": "_tokens",
          "type": "address[]"
        },
        {
          "internalType": "uint256[]",
          "name": "_tokenPrecisions",
          "type": "uint256[]"
        }
      ],
      "name": "setTokens",
      "outputs": [],
      "stateMutability": "nonpayable",
      "type": "function"
    },
    {
      "inputs": [
        {
          "internalType": "address",
          "name": "_account",
          "type": "address"
        },
        {
          "internalType": "bool",
          "name": "_isActive",
          "type": "bool"
        }
      ],
      "name": "setUpdater",
      "outputs": [],
      "stateMutability": "nonpayable",
      "type": "function"
    },
    {
      "inputs": [
        {
          "internalType": "address",
          "name": "_vaultPriceFeed",
          "type": "address"
        }
      ],
      "name": "setVaultPriceFeed",
      "outputs": [],
      "stateMutability": "nonpayable",
      "type": "function"
    },
    {
      "inputs": [],
      "name": "spreadBasisPointsIfChainError",
      "outputs": [
        {
          "internalType": "uint256",
          "name": "",
          "type": "uint256"
        }
      ],
      "stateMutability": "view",
      "type": "function"
    },
    {
      "inputs": [],
      "name": "spreadBasisPointsIfInactive",
      "outputs": [
        {
          "internalType": "uint256",
          "name": "",
          "type": "uint256"
        }
      ],
      "stateMutability": "view",
      "type": "function"
    },
    {
      "inputs": [],
      "name": "tokenManager",
      "outputs": [
        {
          "internalType": "address",
          "name": "",
          "type": "address"
        }
      ],
      "stateMutability": "view",
      "type": "function"
    },
    {
      "inputs": [
        {
          "internalType": "uint256",
          "name": "",
          "type": "uint256"
        }
      ],
      "name": "tokenPrecisions",
      "outputs": [
        {
          "internalType": "uint256",
          "name": "",
          "type": "uint256"
        }
      ],
      "stateMutability": "view",
      "type": "function"
    },
    {
      "inputs": [
        {
          "internalType": "uint256",
          "name": "",
          "type": "uint256"
        }
      ],
      "name": "tokens",
      "outputs": [
        {
          "internalType": "address",
          "name": "",
          "type": "address"
        }
      ],
      "stateMutability": "view",
      "type": "function"
    },
    {
      "inputs": [],
      "name": "vaultPriceFeed",
      "outputs": [
        {
          "internalType": "address",
          "name": "",
          "type": "address"
        }
      ],
      "stateMutability": "view",
      "type": "function"
    }
  ],
  "bytecode": {
    "object": "0x60806040526000805460ff60a81b19168155600f553480156200002157600080fd5b50604051620028c4380380620028c483398101604081905262000044916200011f565b600080546001600160a01b03191633179055610708861115620000bb5760405162461bcd60e51b815260206004820152602560248201527f466173745072696365466565643a20696e76616c6964205f707269636544757260448201526430ba34b7b760d91b606482015260840160405180910390fd5b600695909555600793909355600a91909155600d55600280546001600160a01b039283166001600160a01b031991821617909155600380549290931691161790556200017c565b80516001600160a01b03811681146200011a57600080fd5b919050565b60008060008060008060c087890312156200013957600080fd5b86519550602087015194506040870151935060608701519250620001606080880162000102565b91506200017060a0880162000102565b90509295509295509295565b612738806200018c6000396000f3fe608060405234801561001057600080fd5b50600436106103c55760003560e01c806372279ba1116101ff578063b3606b561161011a578063d6a153f1116100ad578063e64559ad1161007c578063e64559ad14610880578063e68a22c014610889578063eeaa783a14610897578063f90ce5ba146108aa57600080fd5b8063d6a153f11461083e578063d925351a14610851578063de0d1b9414610864578063dfb481c91461087757600080fd5b8063cab44b76116100e9578063cab44b7614610775578063ce98dfa8146107f8578063cfad57a21461080b578063cfed246b1461081e57600080fd5b8063b3606b561461073e578063b70c7b7014610747578063c8390a481461075a578063c84a91241461076d57600080fd5b8063807c978211610192578063a2b47c1611610161578063a2b47c1614610702578063a37424251461070c578063a6eca8961461072c578063b0a256661461073557600080fd5b8063807c97821461042e57806382553aad146106c85780638b7677f4146106db57806395082d25146106ee57600080fd5b80637cb2b79c116101ce5780637cb2b79c1461066c5780637df73e271461067f5780637fbc79c6146106a25780637fece368146106b557600080fd5b806372279ba11461060a57806374bfed891461063d578063776d16c114610646578063782661bc1461065957600080fd5b806331cb6105116102ef5780634f64b2be11610282578063695d418411610251578063695d4184146105d25780636c56fd05146105e65780636ccd47c4146105f9578063715c75361461060157600080fd5b80634f64b2be1461058a5780634fdfb0861461059d57806354aea127146105c0578063668d3d65146105c957600080fd5b806344c23193116102be57806344c23193146105515780634bd66c1c1461042e5780634c0e31c8146105645780634d11fb4a1461057757600080fd5b806331cb61051461050e57806332e5f9fa14610521578063392e53cd146105345780633aa08f861461054857600080fd5b806314dd2dce11610367578063238aafb711610336578063238aafb7146104cc578063287800c9146104df5780632a709b14146104e85780632e9cd94b146104fb57600080fd5b806314dd2dce14610480578063162ac4e01461049357806317835d1c146104a65780631a153391146104b957600080fd5b80630604ddea116103a35780630604ddea1461042e5780630e9272ea14610439578063126082cf1461046457806312d43a511461046d57600080fd5b806303b04936146103ca57806303cd25711461040257806303f4d7dc14610419575b600080fd5b6103ed6103d8366004612147565b60156020526000908152604090205460ff1681565b60405190151581526020015b60405180910390f35b61040b60065481565b6040519081526020016103f9565b61042c610427366004612238565b6108b3565b005b61040b63ffffffff81565b60025461044c906001600160a01b031681565b6040516001600160a01b0390911681526020016103f9565b61040b61271081565b60005461044c906001600160a01b031681565b61042c61048e36600461227d565b610a6b565b61042c6104a1366004612147565b610a9a565b61042c6104b4366004612296565b610ae6565b61042c6104c73660046122c8565b610b1f565b61042c6104da366004612147565b610b74565b61040b600e5481565b60035461044c906001600160a01b031681565b61042c61050936600461227d565b610bc0565b61042c61051c3660046122c8565b610bef565b61042c61052f3660046122fb565b610c44565b6000546103ed90600160a01b900460ff1681565b61040b600b5481565b61042c61055f36600461227d565b610e47565b61042c6105723660046123b0565b610ed6565b61040b61058536600461227d565b610f74565b61044c61059836600461227d565b610f95565b6103ed6105ab366004612147565b60106020526000908152604090205460ff1681565b61040b60045481565b61040b61070881565b6000546103ed90600160a81b900460ff1681565b6103ed6105f4366004612147565b610fbf565b61042c611047565b61040b600d5481565b61061d610618366004612147565b611134565b6040805194855260208501939093529183015260608201526080016103f9565b61040b60085481565b61042c61065436600461227d565b61119e565b61042c610667366004612414565b6111cd565b61042c61067a366004612147565b61128e565b6103ed61068d366004612147565b60146020526000908152604090205460ff1681565b61042c6106b0366004612481565b6112da565b61040b6106c33660046124ee565b611442565b61042c6106d636600461227d565b6115a5565b61042c6106e936600461227d565b6115d4565b61040b6c0c9f2c9cd04674edea4000000081565b61040b6298968081565b61040b61071a366004612147565b60136020526000908152604090205481565b61040b60095481565b61040b600f5481565b61040b600a5481565b61042c61075536600461227d565b611603565b61042c6107683660046123b0565b611632565b61042c6116d4565b6107c2610783366004612147565b6012602052600090815260409020546001600160a01b0381169063ffffffff600160a01b8204811691600160c01b8104821691600160e01b9091041684565b604080516001600160a01b03909516855263ffffffff9384166020860152918316918401919091521660608201526080016103f9565b61042c61080636600461252a565b6117bf565b61042c610819366004612147565b611807565b61040b61082c366004612147565b60116020526000908152604090205481565b61042c61084c36600461227d565b6118a9565b61042c61085f36600461227d565b6118d8565b61042c61087236600461227d565b611907565b61040b600c5481565b61040b60075481565b61040b6001600160a01b0381565b60015461044c906001600160a01b031681565b61040b60055481565b3360009081526010602052604090205460ff166108eb5760405162461bcd60e51b81526004016108e290612545565b60405180910390fd5b60006108f682611936565b90508015610a65576002546001546001600160a01b03918216911660005b8551811015610a6157600086828151811061093157610931612587565b6020026020010151905060005b6008811015610a4c576000816109558560086125b3565b61095f91906125d0565b601654909150811061097657505050505050505050565b60006109838360206125b3565b905083811c63ffffffff16600060168561099e8960086125b3565b6109a891906125d0565b815481106109b8576109b8612587565b60009182526020822001546001600160a01b031691506017866109dc8a60086125b3565b6109e691906125d0565b815481106109f6576109f6612587565b6000918252602082200154915081610a1b6c0c9f2c9cd04674edea40000000866125b3565b610a2591906125e3565b9050610a3383828c8e611ab8565b5050505050508080610a4490612605565b91505061093e565b50508080610a5990612605565b915050610914565b5050505b505b5050565b6000546001600160a01b03163314610a955760405162461bcd60e51b81526004016108e29061261e565b600455565b6000546001600160a01b03163314610ac45760405162461bcd60e51b81526004016108e29061261e565b600280546001600160a01b0319166001600160a01b0392909216919091179055565b3360009081526010602052604090205460ff16610b155760405162461bcd60e51b81526004016108e290612545565b610a678282611d48565b6000546001600160a01b03163314610b495760405162461bcd60e51b81526004016108e29061261e565b6001600160a01b03919091166000908152601060205260409020805460ff1916911515919091179055565b6000546001600160a01b03163314610b9e5760405162461bcd60e51b81526004016108e29061261e565b600180546001600160a01b0319166001600160a01b0392909216919091179055565b6003546001600160a01b03163314610bea5760405162461bcd60e51b81526004016108e29061264d565b600c55565b6000546001600160a01b03163314610c195760405162461bcd60e51b81526004016108e29061261e565b6001600160a01b03919091166000908152601460205260409020805460ff1916911515919091179055565b3360009081526010602052604090205460ff16610c735760405162461bcd60e51b81526004016108e290612545565b610c7d8686611d48565b6000879050600083826001600160a01b0316639b5786206040518163ffffffff1660e01b8152600401602060405180830381865afa158015610cc3573d6000803e3d6000fd5b505050506040513d601f19601f82011682018060405250810190610ce79190612695565b610cf191906125d0565b9050600083836001600160a01b0316631bca8cf06040518163ffffffff1660e01b8152600401602060405180830381865afa158015610d34573d6000803e3d6000fd5b505050506040513d601f19601f82011682018060405250810190610d589190612695565b610d6291906125d0565b905081871115610d70578196505b80861115610d7c578095505b604051629a208160e81b8152600481018890523360248201526001600160a01b03841690639a20810090604401600060405180830381600087803b158015610dc357600080fd5b505af1158015610dd7573d6000803e3d6000fd5b505060405163f3883d8b60e01b8152600481018990523360248201526001600160a01b038616925063f3883d8b9150604401600060405180830381600087803b158015610e2357600080fd5b505af1158015610e37573d6000803e3d6000fd5b5050505050505050505050505050565b6000546001600160a01b03163314610e715760405162461bcd60e51b81526004016108e29061261e565b610708811115610ed15760405162461bcd60e51b815260206004820152602560248201527f466173745072696365466565643a20696e76616c6964205f707269636544757260448201526430ba34b7b760d91b60648201526084016108e2565b600655565b6003546001600160a01b03163314610f005760405162461bcd60e51b81526004016108e29061264d565b60005b8251811015610a65576000838281518110610f2057610f20612587565b60200260200101519050828281518110610f3c57610f3c612587565b6020908102919091018101516001600160a01b0390921660009081526013909152604090205580610f6c81612605565b915050610f03565b60178181548110610f8457600080fd5b600091825260209091200154905081565b60168181548110610fa557600080fd5b6000918252602090912001546001600160a01b0316905081565b60008054600160a81b900460ff1615610fda57506000919050565b600e54600f5410610fed57506000919050565b600080610ff984611134565b935093505050818111801561102e57506001600160a01b03841660009081526013602052604090205461102c83836126ae565b115b1561103d575060009392505050565b5060019392505050565b3360009081526014602052604090205460ff166110765760405162461bcd60e51b81526004016108e2906126c1565b3360009081526015602052604090205460ff166110d55760405162461bcd60e51b815260206004820152601e60248201527f466173745072696365466565643a20616c726561647920656e61626c6564000060448201526064016108e2565b336000908152601560205260409020805460ff19169055600f546110fb906001906126ae565b600f556040513381527f9fe0c305c33aa92757a537936872a60be0d91549a4303cc99fd8b7fce8a00275906020015b60405180910390a1565b6001600160a01b039081166000908152601260209081526040918290208251608081018452905493841680825263ffffffff600160a01b86048116938301849052600160c01b86048116948301859052600160e01b90950490941660609091018190529293909290565b6000546001600160a01b031633146111c85760405162461bcd60e51b81526004016108e29061261e565b600b55565b3360009081526010602052604090205460ff166111fc5760405162461bcd60e51b81526004016108e290612545565b600061120782611936565b90508015611288576002546001546001600160a01b03918216911660005b865181101561128457600087828151811061124257611242612587565b602002602001015190506112718188848151811061126257611262612587565b60200260200101518587611ab8565b508061127c81612605565b915050611225565b5050505b50505050565b6003546001600160a01b031633146112b85760405162461bcd60e51b81526004016108e29061264d565b600380546001600160a01b0319166001600160a01b0392909216919091179055565b6000546001600160a01b031633146113045760405162461bcd60e51b81526004016108e29061261e565b600054600160a01b900460ff16156113695760405162461bcd60e51b815260206004820152602260248201527f466173745072696365466565643a20616c726561647920696e697469616c697a604482015261195960f21b60648201526084016108e2565b6000805460ff60a01b1916600160a01b178155600e8490555b82518110156113e057600083828151811061139f5761139f612587565b6020908102919091018101516001600160a01b03166000908152601490915260409020805460ff1916600117905550806113d881612605565b915050611382565b5060005b815181101561128857600082828151811061140157611401612587565b6020908102919091018101516001600160a01b03166000908152601090915260409020805460ff19166001179055508061143a81612605565b9150506113e4565b600060075460045461145491906125d0565b4211156114a257811561148f5761271060095461271061147491906125d0565b61147e90856125b3565b61148891906125e3565b905061159e565b61271060095461271061147491906126ae565b6006546004546114b291906125d0565b4211156114e55781156114d25761271060085461271061147491906125d0565b61271060085461271061147491906126ae565b6001600160a01b0384166000908152601160205260408120549081900361150f578391505061159e565b60008185116115275761152285836126ae565b611531565b61153182866126ae565b905084611540612710836125b3565b61154a91906125e3565b9050600061155787610fbf565b15806115645750600d5482115b9050801561159857841561158b5782861161157f5782611581565b855b935050505061159e565b82861061157f5782611581565b50909150505b9392505050565b6003546001600160a01b031633146115cf5760405162461bcd60e51b81526004016108e29061264d565b600d55565b6000546001600160a01b031633146115fe5760405162461bcd60e51b81526004016108e29061261e565b600755565b6000546001600160a01b0316331461162d5760405162461bcd60e51b81526004016108e29061261e565b600855565b6000546001600160a01b0316331461165c5760405162461bcd60e51b81526004016108e29061261e565b80518251146116ad5760405162461bcd60e51b815260206004820152601e60248201527f466173745072696365466565643a20696e76616c6964206c656e67746873000060448201526064016108e2565b81516116c0906016906020850190612076565b508051610a659060179060208401906120db565b3360009081526014602052604090205460ff166117035760405162461bcd60e51b81526004016108e2906126c1565b3360009081526015602052604090205460ff16156117635760405162461bcd60e51b815260206004820152601c60248201527f466173745072696365466565643a20616c726561647920766f7465640000000060448201526064016108e2565b336000908152601560205260409020805460ff19166001908117909155600f5461178c916125d0565b600f556040513381527f4c0c5fabf50e808e3bc8d19577d305e3a7163eea7e8a74a50caa8896694cd44b9060200161112a565b6000546001600160a01b031633146117e95760405162461bcd60e51b81526004016108e29061261e565b60008054911515600160a81b0260ff60a81b19909216919091179055565b6000546001600160a01b031633146118315760405162461bcd60e51b81526004016108e29061261e565b6001600160a01b0381166118875760405162461bcd60e51b815260206004820181905260248201527f476f7665726e61626c653a205f676f76206973207a65726f206164647265737360448201526064016108e2565b600080546001600160a01b0319166001600160a01b0392909216919091179055565b6000546001600160a01b031633146118d35760405162461bcd60e51b81526004016108e29061261e565b600a55565b6003546001600160a01b031633146119025760405162461bcd60e51b81526004016108e29061264d565b600e55565b6000546001600160a01b031633146119315760405162461bcd60e51b81526004016108e29061261e565b600955565b600a54600090156119b657600a5460055461195190436126ae565b10156119b65760405162461bcd60e51b815260206004820152602e60248201527f466173745072696365466565643a206d696e426c6f636b496e74657276616c2060448201526d1b9bdd081e595d081c185cdcd95960921b60648201526084016108e2565b600b546119c381426126ae565b8311611a275760405162461bcd60e51b815260206004820152602d60248201527f466173745072696365466565643a205f74696d657374616d702062656c6f772060448201526c616c6c6f7765642072616e676560981b60648201526084016108e2565b611a3181426125d0565b8310611a975760405162461bcd60e51b815260206004820152602f60248201527f466173745072696365466565643a205f74696d657374616d702065786365656460448201526e7320616c6c6f7765642072616e676560881b60648201526084016108e2565b600454831015611aaa5750600092915050565b505060045543600555600190565b6001600160a01b03821615611d22576040516315afe77960e21b81526001600160a01b038581166004830152600091908416906356bf9de490602401602060405180830381865afa158015611b11573d6000803e3d6000fd5b505050506040513d601f19601f82011682018060405250810190611b359190612695565b6001600160a01b038616600090815260116020526040812054919250808080611b5d8a611134565b93509350935093506000841115611c2a576000848711611b8657611b8187866126ae565b611b90565b611b9085886126ae565b905060008a8711611baa57611ba5878c6126ae565b611bb4565b611bb48b886126ae565b9050600c5442611bc491906125e3565b600c54611bd190876125e3565b14611bdf5760009350600092505b85611bed62989680846125b3565b611bf791906125e3565b611c0190856125d0565b935086611c1162989680836125b3565b611c1b91906125e3565b611c2590846125d0565b925050505b8181118015611c5957506001600160a01b038a16600090815260136020526040902054611c5783836126ae565b115b15611cb757604080516001600160a01b038c1681526020810188905290810186905260608101839052608081018290527fe582322b389ad06b2bbf619cd6da3f16a288ec873ea0fa6df4d72f3d9480b4479060a00160405180910390a15b611cc38a878484611e43565b604080516001600160a01b038c1681526020810188905290810186905260608101839052608081018290527f23b9387f81fca646aac1dc4487ede045c65f5f7445482906565f01e05afdb3a89060a00160405180910390a15050505050505b6001600160a01b0384166000908152601160205260409020839055611288818585612005565b6000611d5382611936565b90508015610a65576002546001546001600160a01b03918216911660005b6008811015610a615760165481908110611d8e5750505050505050565b6000611d9b8360206125b3565b6016805491925089831c63ffffffff16916000919086908110611dc057611dc0612587565b6000918252602082200154601780546001600160a01b0390921693509087908110611ded57611ded612587565b6000918252602082200154915081611e126c0c9f2c9cd04674edea40000000866125b3565b611e1c91906125e3565b9050611e2a83828a8c611ab8565b5050505050508080611e3b90612605565b915050611d71565b6001600160a01b038310611e995760405162461bcd60e51b815260206004820152601f60248201527f466173745072696365466565643a20696e76616c69642072656650726963650060448201526064016108e2565b63ffffffff8210611efe5760405162461bcd60e51b815260206004820152602960248201527f466173745072696365466565643a20696e76616c69642063756d756c617469766044820152686552656644656c746160b81b60648201526084016108e2565b63ffffffff8110611f645760405162461bcd60e51b815260206004820152602a60248201527f466173745072696365466565643a20696e76616c69642063756d756c61746976604482015269654661737444656c746160b01b60648201526084016108e2565b604080516080810182526001600160a01b03948516815263ffffffff4281166020808401918252958216838501908152948216606084019081529787166000908152601290965292909420905181549251935196518516600160e01b026001600160e01b03978616600160c01b02979097166001600160c01b0394909516600160a01b026001600160c01b0319909316951694909417171617919091179055565b6001600160a01b03831661201857505050565b60405163e0409c7160e01b81526001600160a01b0383811660048301526024820183905284169063e0409c7190604401600060405180830381600087803b15801561206257600080fd5b505af1158015611284573d6000803e3d6000fd5b8280548282559060005260206000209081019282156120cb579160200282015b828111156120cb57825182546001600160a01b0319166001600160a01b03909116178255602090920191600190910190612096565b506120d7929150612116565b5090565b8280548282559060005260206000209081019282156120cb579160200282015b828111156120cb5782518255916020019190600101906120fb565b5b808211156120d75760008155600101612117565b80356001600160a01b038116811461214257600080fd5b919050565b60006020828403121561215957600080fd5b61159e8261212b565b634e487b7160e01b600052604160045260246000fd5b604051601f8201601f1916810167ffffffffffffffff811182821017156121a1576121a1612162565b604052919050565b600067ffffffffffffffff8211156121c3576121c3612162565b5060051b60200190565b600082601f8301126121de57600080fd5b813560206121f36121ee836121a9565b612178565b82815260059290921b8401810191818101908684111561221257600080fd5b8286015b8481101561222d5780358352918301918301612216565b509695505050505050565b6000806040838503121561224b57600080fd5b823567ffffffffffffffff81111561226257600080fd5b61226e858286016121cd565b95602094909401359450505050565b60006020828403121561228f57600080fd5b5035919050565b600080604083850312156122a957600080fd5b50508035926020909101359150565b8035801515811461214257600080fd5b600080604083850312156122db57600080fd5b6122e48361212b565b91506122f2602084016122b8565b90509250929050565b600080600080600080600060e0888a03121561231657600080fd5b61231f8861212b565b9960208901359950604089013598606081013598506080810135975060a0810135965060c00135945092505050565b600082601f83011261235f57600080fd5b8135602061236f6121ee836121a9565b82815260059290921b8401810191818101908684111561238e57600080fd5b8286015b8481101561222d576123a38161212b565b8352918301918301612392565b600080604083850312156123c357600080fd5b823567ffffffffffffffff808211156123db57600080fd5b6123e78683870161234e565b935060208501359150808211156123fd57600080fd5b5061240a858286016121cd565b9150509250929050565b60008060006060848603121561242957600080fd5b833567ffffffffffffffff8082111561244157600080fd5b61244d8783880161234e565b9450602086013591508082111561246357600080fd5b50612470868287016121cd565b925050604084013590509250925092565b60008060006060848603121561249657600080fd5b83359250602084013567ffffffffffffffff808211156124b557600080fd5b6124c18783880161234e565b935060408601359150808211156124d757600080fd5b506124e48682870161234e565b9150509250925092565b60008060006060848603121561250357600080fd5b61250c8461212b565b925060208401359150612521604085016122b8565b90509250925092565b60006020828403121561253c57600080fd5b61159e826122b8565b60208082526022908201527f466173745072696365466565643a20666f7262696464656e2028757064617465604082015261722960f01b606082015260800190565b634e487b7160e01b600052603260045260246000fd5b634e487b7160e01b600052601160045260246000fd5b80820281158282048414176125ca576125ca61259d565b92915050565b808201808211156125ca576125ca61259d565b60008261260057634e487b7160e01b600052601260045260246000fd5b500490565b6000600182016126175761261761259d565b5060010190565b60208082526015908201527423b7bb32b93730b136329d103337b93134b23232b760591b604082015260600190565b60208082526028908201527f466173745072696365466565643a20666f7262696464656e2028746f6b656e206040820152676d616e616765722960c01b606082015260800190565b6000602082840312156126a757600080fd5b5051919050565b818103818111156125ca576125ca61259d565b60208082526021908201527f466173745072696365466565643a20666f7262696464656e20287369676e65726040820152602960f81b60608201526080019056fea264697066735822122076700818c1179e3d581a2213df76aa210e683f82ffb5ffcdd081961830ee83a464736f6c63430008120033",
    "linkReferences": {}
  },
  "methodIdentifiers": {
    "BASIS_POINTS_DIVISOR()": "126082cf",
    "BITMASK_32()": "807c9782",
    "CUMULATIVE_DELTA_PRECISION()": "a2b47c16",
    "MAX_CUMULATIVE_FAST_DELTA()": "4bd66c1c",
    "MAX_CUMULATIVE_REF_DELTA()": "0604ddea",
    "MAX_PRICE_DURATION()": "668d3d65",
    "MAX_REF_PRICE()": "e68a22c0",
    "PRICE_PRECISION()": "95082d25",
    "disableFastPrice()": "c84a9124",
    "disableFastPriceVoteCount()": "b0a25666",
    "disableFastPriceVotes(address)": "03b04936",
    "enableFastPrice()": "6ccd47c4",
    "fastPriceEvents()": "0e9272ea",
    "favorFastPrice(address)": "6c56fd05",
    "getPrice(address,uint256,bool)": "7fece368",
    "getPriceData(address)": "72279ba1",
    "gov()": "12d43a51",
    "initialize(uint256,address[],address[])": "7fbc79c6",
    "isInitialized()": "392e53cd",
    "isSigner(address)": "7df73e27",
    "isSpreadEnabled()": "695d4184",
    "isUpdater(address)": "4fdfb086",
    "lastUpdatedAt()": "54aea127",
    "lastUpdatedBlock()": "f90ce5ba",
    "maxCumulativeDeltaDiffs(address)": "a3742425",
    "maxDeviationBasisPoints()": "715c7536",
    "maxPriceUpdateDelay()": "e64559ad",
    "maxTimeDeviation()": "3aa08f86",
    "minAuthorizations()": "287800c9",
    "minBlockInterval()": "b3606b56",
    "priceData(address)": "cab44b76",
    "priceDataInterval()": "dfb481c9",
    "priceDuration()": "03cd2571",
    "prices(address)": "cfed246b",
    "setCompactedPrices(uint256[],uint256)": "03f4d7dc",
    "setFastPriceEvents(address)": "162ac4e0",
    "setGov(address)": "cfad57a2",
    "setIsSpreadEnabled(bool)": "ce98dfa8",
    "setLastUpdatedAt(uint256)": "14dd2dce",
    "setMaxCumulativeDeltaDiffs(address[],uint256[])": "4c0e31c8",
    "setMaxDeviationBasisPoints(uint256)": "82553aad",
    "setMaxPriceUpdateDelay(uint256)": "8b7677f4",
    "setMaxTimeDeviation(uint256)": "776d16c1",
    "setMinAuthorizations(uint256)": "d925351a",
    "setMinBlockInterval(uint256)": "d6a153f1",
    "setPriceDataInterval(uint256)": "2e9cd94b",
    "setPriceDuration(uint256)": "44c23193",
    "setPrices(address[],uint256[],uint256)": "782661bc",
    "setPricesWithBits(uint256,uint256)": "17835d1c",
    "setPricesWithBitsAndExecute(address,uint256,uint256,uint256,uint256,uint256,uint256)": "32e5f9fa",
    "setSigner(address,bool)": "31cb6105",
    "setSpreadBasisPointsIfChainError(uint256)": "de0d1b94",
    "setSpreadBasisPointsIfInactive(uint256)": "b70c7b70",
    "setTokenManager(address)": "7cb2b79c",
    "setTokens(address[],uint256[])": "c8390a48",
    "setUpdater(address,bool)": "1a153391",
    "setVaultPriceFeed(address)": "238aafb7",
    "spreadBasisPointsIfChainError()": "a6eca896",
    "spreadBasisPointsIfInactive()": "74bfed89",
    "tokenManager()": "2a709b14",
    "tokenPrecisions(uint256)": "4d11fb4a",
    "tokens(uint256)": "4f64b2be",
    "vaultPriceFeed()": "eeaa783a"
  },
  "id": 61
}