{"abi":[{"type":"constructor","inputs":[{"name":"_minAuthorizations","type":"uint256","internalType":"uint256"}],"stateMutability":"nonpayable"},{"type":"function","name":"actionsNonce","inputs":[],"outputs":[{"name":"","type":"uint256","internalType":"uint256"}],"stateMutability":"view"},{"type":"function","name":"admin","inputs":[],"outputs":[{"name":"","type":"address","internalType":"address"}],"stateMutability":"view"},{"type":"function","name":"approve","inputs":[{"name":"_token","type":"address","internalType":"address"},{"name":"_spender","type":"address","internalType":"address"},{"name":"_amount","type":"uint256","internalType":"uint256"},{"name":"_nonce","type":"uint256","internalType":"uint256"}],"outputs":[],"stateMutability":"nonpayable"},{"type":"function","name":"approveNFT","inputs":[{"name":"_token","type":"address","internalType":"address"},{"name":"_spender","type":"address","internalType":"address"},{"name":"_tokenId","type":"uint256","internalType":"uint256"},{"name":"_nonce","type":"uint256","internalType":"uint256"}],"outputs":[],"stateMutability":"nonpayable"},{"type":"function","name":"approveNFTs","inputs":[{"name":"_token","type":"address","internalType":"address"},{"name":"_spender","type":"address","internalType":"address"},{"name":"_tokenIds","type":"uint256[]","internalType":"uint256[]"},{"name":"_nonce","type":"uint256","internalType":"uint256"}],"outputs":[],"stateMutability":"nonpayable"},{"type":"function","name":"initialize","inputs":[{"name":"_signers","type":"address[]","internalType":"address[]"}],"outputs":[],"stateMutability":"nonpayable"},{"type":"function","name":"isInitialized","inputs":[],"outputs":[{"name":"","type":"bool","internalType":"bool"}],"stateMutability":"view"},{"type":"function","name":"isSigner","inputs":[{"name":"","type":"address","internalType":"address"}],"outputs":[{"name":"","type":"bool","internalType":"bool"}],"stateMutability":"view"},{"type":"function","name":"minAuthorizations","inputs":[],"outputs":[{"name":"","type":"uint256","internalType":"uint256"}],"stateMutability":"view"},{"type":"function","name":"pendingActions","inputs":[{"name":"","type":"bytes32","internalType":"bytes32"}],"outputs":[{"name":"","type":"bool","internalType":"bool"}],"stateMutability":"view"},{"type":"function","name":"receiveNFTs","inputs":[{"name":"_token","type":"address","internalType":"address"},{"name":"_sender","type":"address","internalType":"address"},{"name":"_tokenIds","type":"uint256[]","internalType":"uint256[]"}],"outputs":[],"stateMutability":"nonpayable"},{"type":"function","name":"setAdmin","inputs":[{"name":"_target","type":"address","internalType":"address"},{"name":"_admin","type":"address","internalType":"address"},{"name":"_nonce","type":"uint256","internalType":"uint256"}],"outputs":[],"stateMutability":"nonpayable"},{"type":"function","name":"setGov","inputs":[{"name":"_timelock","type":"address","internalType":"address"},{"name":"_target","type":"address","internalType":"address"},{"name":"_gov","type":"address","internalType":"address"},{"name":"_nonce","type":"uint256","internalType":"uint256"}],"outputs":[],"stateMutability":"nonpayable"},{"type":"function","name":"signApprove","inputs":[{"name":"_token","type":"address","internalType":"address"},{"name":"_spender","type":"address","internalType":"address"},{"name":"_amount","type":"uint256","internalType":"uint256"},{"name":"_nonce","type":"uint256","internalType":"uint256"}],"outputs":[],"stateMutability":"nonpayable"},{"type":"function","name":"signApproveNFT","inputs":[{"name":"_token","type":"address","internalType":"address"},{"name":"_spender","type":"address","internalType":"address"},{"name":"_tokenId","type":"uint256","internalType":"uint256"},{"name":"_nonce","type":"uint256","internalType":"uint256"}],"outputs":[],"stateMutability":"nonpayable"},{"type":"function","name":"signApproveNFTs","inputs":[{"name":"_token","type":"address","internalType":"address"},{"name":"_spender","type":"address","internalType":"address"},{"name":"_tokenIds","type":"uint256[]","internalType":"uint256[]"},{"name":"_nonce","type":"uint256","internalType":"uint256"}],"outputs":[],"stateMutability":"nonpayable"},{"type":"function","name":"signSetAdmin","inputs":[{"name":"_target","type":"address","internalType":"address"},{"name":"_admin","type":"address","internalType":"address"},{"name":"_nonce","type":"uint256","internalType":"uint256"}],"outputs":[],"stateMutability":"nonpayable"},{"type":"function","name":"signSetGov","inputs":[{"name":"_timelock","type":"address","internalType":"address"},{"name":"_target","type":"address","internalType":"address"},{"name":"_gov","type":"address","internalType":"address"},{"name":"_nonce","type":"uint256","internalType":"uint256"}],"outputs":[],"stateMutability":"nonpayable"},{"type":"function","name":"signalApprove","inputs":[{"name":"_token","type":"address","internalType":"address"},{"name":"_spender","type":"address","internalType":"address"},{"name":"_amount","type":"uint256","internalType":"uint256"}],"outputs":[],"stateMutability":"nonpayable"},{"type":"function","name":"signalApproveNFT","inputs":[{"name":"_token","type":"address","internalType":"address"},{"name":"_spender","type":"address","internalType":"address"},{"name":"_tokenId","type":"uint256","internalType":"uint256"}],"outputs":[],"stateMutability":"nonpayable"},{"type":"function","name":"signalApproveNFTs","inputs":[{"name":"_token","type":"address","internalType":"address"},{"name":"_spender","type":"address","internalType":"address"},{"name":"_tokenIds","type":"uint256[]","internalType":"uint256[]"}],"outputs":[],"stateMutability":"nonpayable"},{"type":"function","name":"signalSetAdmin","inputs":[{"name":"_target","type":"address","internalType":"address"},{"name":"_admin","type":"address","internalType":"address"}],"outputs":[],"stateMutability":"nonpayable"},{"type":"function","name":"signalSetGov","inputs":[{"name":"_timelock","type":"address","internalType":"address"},{"name":"_target","type":"address","internalType":"address"},{"name":"_gov","type":"address","internalType":"address"}],"outputs":[],"stateMutability":"nonpayable"},{"type":"function","name":"signedActions","inputs":[{"name":"","type":"address","internalType":"address"},{"name":"","type":"bytes32","internalType":"bytes32"}],"outputs":[{"name":"","type":"bool","internalType":"bool"}],"stateMutability":"view"},{"type":"function","name":"signers","inputs":[{"name":"","type":"uint256","internalType":"uint256"}],"outputs":[{"name":"","type":"address","internalType":"address"}],"stateMutability":"view"},{"type":"function","name":"signersLength","inputs":[],"outputs":[{"name":"","type":"uint256","internalType":"uint256"}],"stateMutability":"view"},{"type":"event","name":"ClearAction","inputs":[{"name":"action","type":"bytes32","indexed":false,"internalType":"bytes32"},{"name":"nonce","type":"uint256","indexed":false,"internalType":"uint256"}],"anonymous":false},{"type":"event","name":"SignAction","inputs":[{"name":"action","type":"bytes32","indexed":false,"internalType":"bytes32"},{"name":"nonce","type":"uint256","indexed":false,"internalType":"uint256"}],"anonymous":false},{"type":"event","name":"SignalApprove","inputs":[{"name":"token","type":"address","indexed":false,"internalType":"address"},{"name":"spender","type":"address","indexed":false,"internalType":"address"},{"name":"amount","type":"uint256","indexed":false,"internalType":"uint256"},{"name":"action","type":"bytes32","indexed":false,"internalType":"bytes32"},{"name":"nonce","type":"uint256","indexed":false,"internalType":"uint256"}],"anonymous":false},{"type":"event","name":"SignalApproveNFT","inputs":[{"name":"token","type":"address","indexed":false,"internalType":"address"},{"name":"spender","type":"address","indexed":false,"internalType":"address"},{"name":"tokenId","type":"uint256","indexed":false,"internalType":"uint256"},{"name":"action","type":"bytes32","indexed":false,"internalType":"bytes32"},{"name":"nonce","type":"uint256","indexed":false,"internalType":"uint256"}],"anonymous":false},{"type":"event","name":"SignalApproveNFTs","inputs":[{"name":"token","type":"address","indexed":false,"internalType":"address"},{"name":"spender","type":"address","indexed":false,"internalType":"address"},{"name":"tokenIds","type":"uint256[]","indexed":false,"internalType":"uint256[]"},{"name":"action","type":"bytes32","indexed":false,"internalType":"bytes32"},{"name":"nonce","type":"uint256","indexed":false,"internalType":"uint256"}],"anonymous":false},{"type":"event","name":"SignalPendingAction","inputs":[{"name":"action","type":"bytes32","indexed":false,"internalType":"bytes32"},{"name":"nonce","type":"uint256","indexed":false,"internalType":"uint256"}],"anonymous":false},{"type":"event","name":"SignalSetAdmin","inputs":[{"name":"target","type":"address","indexed":false,"internalType":"address"},{"name":"admin","type":"address","indexed":false,"internalType":"address"},{"name":"action","type":"bytes32","indexed":false,"internalType":"bytes32"},{"name":"nonce","type":"uint256","indexed":false,"internalType":"uint256"}],"anonymous":false},{"type":"event","name":"SignalSetGov","inputs":[{"name":"timelock","type":"address","indexed":false,"internalType":"address"},{"name":"target","type":"address","indexed":false,"internalType":"address"},{"name":"gov","type":"address","indexed":false,"internalType":"address"},{"name":"action","type":"bytes32","indexed":false,"internalType":"bytes32"},{"name":"nonce","type":"uint256","indexed":false,"internalType":"uint256"}],"anonymous":false},{"type":"error","name":"ReentrancyGuardReentrantCall","inputs":[]}],"bytecode":{"object":"0x608060405234801561001057600080fd5b50604051611d13380380611d1383398101604081905261002f9161004e565b6001600055600480546001600160a01b03191633179055600355610067565b60006020828403121561006057600080fd5b5051919050565b611c9d806100766000396000f3fe608060405234801561001057600080fd5b506004361061018e5760003560e01c8063a4c04bb7116100de578063e30569e511610097578063f23f977511610071578063f23f977514610388578063f466634b1461039b578063f52dc4f7146103ae578063f851a440146103c157600080fd5b8063e30569e51461033f578063e907562114610362578063f00cb9421461037557600080fd5b8063a4c04bb7146102d7578063a62fb170146102e0578063adb384b6146102f3578063dce6e18d14610306578063ddf67a9f14610319578063e2d03cc51461032c57600080fd5b806342a1fcee1161014b5780637df73e27116101255780637df73e271461026057806387c6d4f9146102835780639fddaac1146102b1578063a224cee7146102c457600080fd5b806342a1fcee146102275780634dc5ecb31461023a57806375fd490c1461024d57600080fd5b80630b13beca14610193578063181fcd33146101a85780632079fb9a146101bb578063287800c9146101eb578063392e53cd1461020257806341f684f31461021f575b600080fd5b6101a66101a1366004611617565b6103d4565b005b6101a66101b6366004611729565b6104ce565b6101ce6101c9366004611787565b61058b565b6040516001600160a01b0390911681526020015b60405180910390f35b6101f460035481565b6040519081526020016101e2565b60015461020f9060ff1681565b60405190151581526020016101e2565b6005546101f4565b6101a66102353660046117a0565b6105b5565b6101a6610248366004611806565b6106f2565b6101a661025b366004611848565b6107da565b61020f61026e36600461187b565b60066020526000908152604090205460ff1681565b61020f61029136600461189d565b600860209081526000928352604080842090915290825290205460ff1681565b6101a66102bf366004611617565b6108eb565b6101a66102d23660046118c7565b6109d3565b6101f460025481565b6101a66102ee36600461195f565b610adb565b6101a6610301366004611729565b610c1e565b6101a6610314366004611617565b610d04565b6101a6610327366004611806565b610de0565b6101a661033a3660046119aa565b610e30565b61020f61034d366004611787565b60076020526000908152604090205460ff1681565b6101a661037036600461195f565b610f37565b6101a66103833660046117a0565b61101a565b6101a6610396366004611806565b61106a565b6101a66103a9366004611617565b611114565b6101a66103bc366004611806565b611255565b6004546101ce906001600160a01b031681565b6103dc6112a5565b6004546001600160a01b0316331461040f5760405162461bcd60e51b8152600401610406906119ed565b60405180910390fd5b6002805490600061041f83611a24565b9091555050600254604051600090610441908690869086908690602001611a4b565b60405160208183030381529060405280519060200120905061046381836112cf565b604080516001600160a01b0380881682528616602082015290810184905260608101829052608081018390527fcd9ba83b63715dc15ac193645d6e925bf4b487c94b73d709b8b6dea608efd4cc9060a0015b60405180910390a150506104c96001600055565b505050565b6104d66112a5565b6004546001600160a01b031633146105005760405162461bcd60e51b8152600401610406906119ed565b6002805490600061051083611a24565b9091555050600254604051600090610532908690869086908690602001611a8c565b60405160208183030381529060405280519060200120905061055481836112cf565b7ff9d0354d71c261982d98abd09b735f3663b2d7275e2569ad5fd907a4092765f985858584866040516104b5959493929190611b00565b6005818154811061059b57600080fd5b6000918252602090912001546001600160a01b0316905081565b6105bd6112a5565b6004546001600160a01b031633146105e75760405162461bcd60e51b8152600401610406906119ed565b6000848484846040516020016106009493929190611a8c565b6040516020818303038152906040528051906020012090506106218161132f565b61062a8161139b565b60005b83518110156106d657856001600160a01b031663095ea7b38686848151811061065857610658611b6c565b60200260200101516040518363ffffffff1660e01b81526004016106919291906001600160a01b03929092168252602082015260400190565b600060405180830381600087803b1580156106ab57600080fd5b505af11580156106bf573d6000803e3d6000fd5b5050505080806106ce90611a24565b91505061062d565b506106e181836114d6565b506106ec6001600055565b50505050565b6106fa6112a5565b6004546001600160a01b031633146107245760405162461bcd60e51b8152600401610406906119ed565b60008484848460405160200161073d9493929190611b82565b60405160208183030381529060405280519060200120905061075e8161132f565b6107678161139b565b60405163095ea7b360e01b81526001600160a01b0385811660048301526024820185905286169063095ea7b3906044016020604051808303816000875af11580156107b6573d6000803e3d6000fd5b505050506040513d601f19601f820116820180604052508101906106d69190611bc0565b6107e26112a5565b3360009081526006602052604090205460ff166108115760405162461bcd60e51b8152600401610406906119ed565b6002805490600061082183611a24565b909155505060025460405160009061084190859085908590602001611be2565b60405160208183030381529060405280519060200120905061086381836112cf565b336000908152600860209081526040808320848452825291829020805460ff1916600117905581516001600160a01b038781168252861691810191909152908101829052606081018390527f4fc9433645aa0a3670e9185496bbd752209fed7a9696fb8a954a0db30ef927b09060800160405180910390a150506108e76001600055565b5050565b6108f36112a5565b3360009081526006602052604090205460ff166109225760405162461bcd60e51b8152600401610406906119ed565b600083838360405160200161093993929190611be2565b60405160208183030381529060405280519060200120905061095a8161132f565b6109638161139b565b604051633825b60160e11b81526001600160a01b03848116600483015285169063704b6c0290602401600060405180830381600087803b1580156109a657600080fd5b505af11580156109ba573d6000803e3d6000fd5b505050506109c881836114d6565b506104c96001600055565b6004546001600160a01b031633146109fd5760405162461bcd60e51b8152600401610406906119ed565b60015460ff1615610a5a5760405162461bcd60e51b815260206004820152602160248201527f546f6b656e4d616e616765723a20616c726561647920696e697469616c697a656044820152601960fa1b6064820152608401610406565b6001805460ff1916811790558051610a79906005906020840190611581565b5060005b81518110156108e7576000828281518110610a9a57610a9a611b6c565b6020908102919091018101516001600160a01b03166000908152600690915260409020805460ff191660011790555080610ad381611a24565b915050610a7d565b610ae36112a5565b3360009081526006602052604090205460ff16610b125760405162461bcd60e51b8152600401610406906119ed565b600084848484604051602001610b2b9493929190611c1c565b604051602081830303815290604052805190602001209050610b4c8161132f565b33600090815260086020908152604080832084845290915290205460ff1615610bb75760405162461bcd60e51b815260206004820152601c60248201527f546f6b656e4d616e616765723a20616c7265616479207369676e6564000000006044820152606401610406565b336000908152600860209081526040808320848452825291829020805460ff1916600117905581518381529081018490527faae28fe5531fe5dfb8d12409392ec67b50c825dd06233312cb6aeaddd16cbd22910160405180910390a1506106ec6001600055565b610c266112a5565b6004546001600160a01b03163314610c505760405162461bcd60e51b8152600401610406906119ed565b60005b81518110156109c857836001600160a01b03166323b872dd8430858581518110610c7f57610c7f611b6c565b60209081029190910101516040516001600160e01b031960e086901b1681526001600160a01b0393841660048201529290911660248301526044820152606401600060405180830381600087803b158015610cd957600080fd5b505af1158015610ced573d6000803e3d6000fd5b505050508080610cfc90611a24565b915050610c53565b610d0c6112a5565b6004546001600160a01b03163314610d365760405162461bcd60e51b8152600401610406906119ed565b60028054906000610d4683611a24565b9091555050600254604051600090610d68908690869086908690602001611b82565b604051602081830303815290604052805190602001209050610d8a81836112cf565b604080516001600160a01b0380881682528616602082015290810184905260608101829052608081018390527fc19251bf5f704ddc3d5babe6f4e5bde0dded20b19f7844716861821ab3163cd79060a0016104b5565b610de86112a5565b3360009081526006602052604090205460ff16610e175760405162461bcd60e51b8152600401610406906119ed565b600084848484604051602001610b2b9493929190611a4b565b610e386112a5565b6004546001600160a01b03163314610e625760405162461bcd60e51b8152600401610406906119ed565b60028054906000610e7283611a24565b9091555050600254604051600090610e94908690869086908690602001611c1c565b604051602081830303815290604052805190602001209050610eb681836112cf565b336000908152600860209081526040808320848452825291829020805460ff1916600117905581516001600160a01b038881168252878116928201929092529085169181019190915260608101829052608081018390527f634e13057d45400506e3b303913ac59b61e5a8137ea6fed5ed44aa0b8bc3c5689060a0016104b5565b610f3f6112a5565b6004546001600160a01b03163314610f695760405162461bcd60e51b8152600401610406906119ed565b600084848484604051602001610f829493929190611c1c565b604051602081830303815290604052805190602001209050610fa38161132f565b610fac8161139b565b604051634cb53d0f60e11b81526001600160a01b038581166004830152848116602483015286169063996a7a1e906044015b600060405180830381600087803b158015610ff857600080fd5b505af115801561100c573d6000803e3d6000fd5b505050506106e181836114d6565b6110226112a5565b3360009081526006602052604090205460ff166110515760405162461bcd60e51b8152600401610406906119ed565b600084848484604051602001610b2b9493929190611a8c565b6110726112a5565b6004546001600160a01b0316331461109c5760405162461bcd60e51b8152600401610406906119ed565b6000848484846040516020016110b59493929190611a4b565b6040516020818303038152906040528051906020012090506110d68161132f565b6110df8161139b565b60405163095ea7b360e01b81526001600160a01b0385811660048301526024820185905286169063095ea7b390604401610fde565b61111c6112a5565b3360009081526006602052604090205460ff1661114b5760405162461bcd60e51b8152600401610406906119ed565b600083838360405160200161116293929190611be2565b6040516020818303038152906040528051906020012090506111838161132f565b33600090815260086020908152604080832084845290915290205460ff16156111ee5760405162461bcd60e51b815260206004820152601c60248201527f546f6b656e4d616e616765723a20616c7265616479207369676e6564000000006044820152606401610406565b336000908152600860209081526040808320848452825291829020805460ff1916600117905581518381529081018490527faae28fe5531fe5dfb8d12409392ec67b50c825dd06233312cb6aeaddd16cbd22910160405180910390a1506104c96001600055565b61125d6112a5565b3360009081526006602052604090205460ff1661128c5760405162461bcd60e51b8152600401610406906119ed565b600084848484604051602001610b2b9493929190611b82565b6002600054036112c857604051633ee5aeb560e01b815260040160405180910390fd5b6002600055565b60008281526007602052604090819020805460ff19166001179055517f64df01c46eb530dc540770a0b88cc32f0b8c2b371a546ae0b13cc8ca6671fff9906113239084908490918252602082015260400190565b60405180910390a15050565b60008181526007602052604090205460ff166113985760405162461bcd60e51b815260206004820152602260248201527f546f6b656e4d616e616765723a20616374696f6e206e6f74207369676e616c6c604482015261195960f21b6064820152608401610406565b50565b6000805b600554811015611416576000600582815481106113be576113be611b6c565b60009182526020808320909101546001600160a01b031680835260088252604080842088855290925291205490915060ff161561140357826113ff81611a24565b9350505b508061140e81611a24565b91505061139f565b50806000036114735760405162461bcd60e51b815260206004820152602360248201527f546f6b656e4d616e616765723a20616374696f6e206e6f7420617574686f72696044820152621e995960ea1b6064820152608401610406565b6003548110156108e75760405162461bcd60e51b815260206004820152602860248201527f546f6b656e4d616e616765723a20696e73756666696369656e7420617574686f6044820152673934bd30ba34b7b760c11b6064820152608401610406565b60008281526007602052604090205460ff166115345760405162461bcd60e51b815260206004820152601d60248201527f546f6b656e4d616e616765723a20696e76616c6964205f616374696f6e0000006044820152606401610406565b600082815260076020908152604091829020805460ff1916905581518481529081018390527ff4640d39061e643d9b802cb3725953405344555ad6dbb1cbdb0495f3eccb8e689101611323565b8280548282559060005260206000209081019282156115d6579160200282015b828111156115d657825182546001600160a01b0319166001600160a01b039091161782556020909201916001909101906115a1565b506115e29291506115e6565b5090565b5b808211156115e257600081556001016115e7565b80356001600160a01b038116811461161257600080fd5b919050565b60008060006060848603121561162c57600080fd5b611635846115fb565b9250611643602085016115fb565b9150604084013590509250925092565b634e487b7160e01b600052604160045260246000fd5b604051601f8201601f1916810167ffffffffffffffff8111828210171561169257611692611653565b604052919050565b600067ffffffffffffffff8211156116b4576116b4611653565b5060051b60200190565b600082601f8301126116cf57600080fd5b813560206116e46116df8361169a565b611669565b82815260059290921b8401810191818101908684111561170357600080fd5b8286015b8481101561171e5780358352918301918301611707565b509695505050505050565b60008060006060848603121561173e57600080fd5b611747846115fb565b9250611755602085016115fb565b9150604084013567ffffffffffffffff81111561177157600080fd5b61177d868287016116be565b9150509250925092565b60006020828403121561179957600080fd5b5035919050565b600080600080608085870312156117b657600080fd5b6117bf856115fb565b93506117cd602086016115fb565b9250604085013567ffffffffffffffff8111156117e957600080fd5b6117f5878288016116be565b949793965093946060013593505050565b6000806000806080858703121561181c57600080fd5b611825856115fb565b9350611833602086016115fb565b93969395505050506040820135916060013590565b6000806040838503121561185b57600080fd5b611864836115fb565b9150611872602084016115fb565b90509250929050565b60006020828403121561188d57600080fd5b611896826115fb565b9392505050565b600080604083850312156118b057600080fd5b6118b9836115fb565b946020939093013593505050565b600060208083850312156118da57600080fd5b823567ffffffffffffffff8111156118f157600080fd5b8301601f8101851361190257600080fd5b80356119106116df8261169a565b81815260059190911b8201830190838101908783111561192f57600080fd5b928401925b8284101561195457611945846115fb565b82529284019290840190611934565b979650505050505050565b6000806000806080858703121561197557600080fd5b61197e856115fb565b935061198c602086016115fb565b925061199a604086016115fb565b9396929550929360600135925050565b6000806000606084860312156119bf57600080fd5b6119c8846115fb565b92506119d6602085016115fb565b91506119e4604085016115fb565b90509250925092565b60208082526017908201527f546f6b656e4d616e616765723a20666f7262696464656e000000000000000000604082015260600190565b600060018201611a4457634e487b7160e01b600052601160045260246000fd5b5060010190565b69185c1c1c9bdd9953919560b21b81526001600160601b0319606095861b8116600a8301529390941b909216601e8401526032830152605282015260720190565b6a617070726f76654e46547360a81b815260006bffffffffffffffffffffffff19808760601b16600b840152808660601b16601f84015250603382018451602080870160005b83811015611aee57815185529382019390820190600101611ad2565b50509482525090920195945050505050565b6001600160a01b038681168252851660208083019190915260a06040830181905285519083018190526000918681019160c085019190845b81811015611b5457845184529382019392820192600101611b38565b50505060608401959095525050608001529392505050565b634e487b7160e01b600052603260045260246000fd5b66617070726f766560c81b81526001600160601b0319606095861b811660078301529390941b909216601b840152602f830152604f820152606f0190565b600060208284031215611bd257600080fd5b8151801515811461189657600080fd5b6739b2ba20b236b4b760c11b81526001600160601b0319606094851b811660088301529290931b909116601c830152603082015260500190565b6b39b4b3b730b629b2ba23b7bb60a11b81526001600160601b0319606095861b8116600c83015293851b841660208201529190931b909116603482015260488101919091526068019056fea2646970667358221220c80f84305eb5560b2a483e2780bf026ec193edc1972bcedcae8e2ea2ebb1e1a864736f6c63430008120033","linkReferences":{}},"methodIdentifiers":{"actionsNonce()":"a4c04bb7","admin()":"f851a440","approve(address,address,uint256,uint256)":"4dc5ecb3","approveNFT(address,address,uint256,uint256)":"f23f9775","approveNFTs(address,address,uint256[],uint256)":"42a1fcee","initialize(address[])":"a224cee7","isInitialized()":"392e53cd","isSigner(address)":"7df73e27","minAuthorizations()":"287800c9","pendingActions(bytes32)":"e30569e5","receiveNFTs(address,address,uint256[])":"adb384b6","setAdmin(address,address,uint256)":"9fddaac1","setGov(address,address,address,uint256)":"e9075621","signApprove(address,address,uint256,uint256)":"f52dc4f7","signApproveNFT(address,address,uint256,uint256)":"ddf67a9f","signApproveNFTs(address,address,uint256[],uint256)":"f00cb942","signSetAdmin(address,address,uint256)":"f466634b","signSetGov(address,address,address,uint256)":"a62fb170","signalApprove(address,address,uint256)":"dce6e18d","signalApproveNFT(address,address,uint256)":"0b13beca","signalApproveNFTs(address,address,uint256[])":"181fcd33","signalSetAdmin(address,address)":"75fd490c","signalSetGov(address,address,address)":"e2d03cc5","signedActions(address,bytes32)":"87c6d4f9","signers(uint256)":"2079fb9a","signersLength()":"41f684f3"},"id":31}