{"abi":[{"type":"constructor","inputs":[{"name":"_name","type":"string","internalType":"string"},{"name":"_symbol","type":"string","internalType":"string"},{"name":"_initialSupply","type":"uint256","internalType":"uint256"}],"stateMutability":"nonpayable"},{"type":"function","name":"addAdmin","inputs":[{"name":"_account","type":"address","internalType":"address"}],"outputs":[],"stateMutability":"nonpayable"},{"type":"function","name":"addNonStakingAccount","inputs":[{"name":"_account","type":"address","internalType":"address"}],"outputs":[],"stateMutability":"nonpayable"},{"type":"function","name":"admins","inputs":[{"name":"","type":"address","internalType":"address"}],"outputs":[{"name":"","type":"bool","internalType":"bool"}],"stateMutability":"view"},{"type":"function","name":"allowance","inputs":[{"name":"_owner","type":"address","internalType":"address"},{"name":"_spender","type":"address","internalType":"address"}],"outputs":[{"name":"","type":"uint256","internalType":"uint256"}],"stateMutability":"view"},{"type":"function","name":"allowances","inputs":[{"name":"","type":"address","internalType":"address"},{"name":"","type":"address","internalType":"address"}],"outputs":[{"name":"","type":"uint256","internalType":"uint256"}],"stateMutability":"view"},{"type":"function","name":"approve","inputs":[{"name":"_spender","type":"address","internalType":"address"},{"name":"_amount","type":"uint256","internalType":"uint256"}],"outputs":[{"name":"","type":"bool","internalType":"bool"}],"stateMutability":"nonpayable"},{"type":"function","name":"balanceOf","inputs":[{"name":"_account","type":"address","internalType":"address"}],"outputs":[{"name":"","type":"uint256","internalType":"uint256"}],"stateMutability":"view"},{"type":"function","name":"balances","inputs":[{"name":"","type":"address","internalType":"address"}],"outputs":[{"name":"","type":"uint256","internalType":"uint256"}],"stateMutability":"view"},{"type":"function","name":"claim","inputs":[{"name":"_receiver","type":"address","internalType":"address"}],"outputs":[],"stateMutability":"nonpayable"},{"type":"function","name":"decimals","inputs":[],"outputs":[{"name":"","type":"uint8","internalType":"uint8"}],"stateMutability":"view"},{"type":"function","name":"gov","inputs":[],"outputs":[{"name":"","type":"address","internalType":"address"}],"stateMutability":"view"},{"type":"function","name":"inWhitelistMode","inputs":[],"outputs":[{"name":"","type":"bool","internalType":"bool"}],"stateMutability":"view"},{"type":"function","name":"name","inputs":[],"outputs":[{"name":"","type":"string","internalType":"string"}],"stateMutability":"view"},{"type":"function","name":"nonStakingAccounts","inputs":[{"name":"","type":"address","internalType":"address"}],"outputs":[{"name":"","type":"bool","internalType":"bool"}],"stateMutability":"view"},{"type":"function","name":"nonStakingSupply","inputs":[],"outputs":[{"name":"","type":"uint256","internalType":"uint256"}],"stateMutability":"view"},{"type":"function","name":"recoverClaim","inputs":[{"name":"_account","type":"address","internalType":"address"},{"name":"_receiver","type":"address","internalType":"address"}],"outputs":[],"stateMutability":"nonpayable"},{"type":"function","name":"removeAdmin","inputs":[{"name":"_account","type":"address","internalType":"address"}],"outputs":[],"stateMutability":"nonpayable"},{"type":"function","name":"removeNonStakingAccount","inputs":[{"name":"_account","type":"address","internalType":"address"}],"outputs":[],"stateMutability":"nonpayable"},{"type":"function","name":"setGov","inputs":[{"name":"_gov","type":"address","internalType":"address"}],"outputs":[],"stateMutability":"nonpayable"},{"type":"function","name":"setInWhitelistMode","inputs":[{"name":"_inWhitelistMode","type":"bool","internalType":"bool"}],"outputs":[],"stateMutability":"nonpayable"},{"type":"function","name":"setInfo","inputs":[{"name":"_name","type":"string","internalType":"string"},{"name":"_symbol","type":"string","internalType":"string"}],"outputs":[],"stateMutability":"nonpayable"},{"type":"function","name":"setWhitelistedHandler","inputs":[{"name":"_handler","type":"address","internalType":"address"},{"name":"_isWhitelisted","type":"bool","internalType":"bool"}],"outputs":[],"stateMutability":"nonpayable"},{"type":"function","name":"setYieldTrackers","inputs":[{"name":"_yieldTrackers","type":"address[]","internalType":"address[]"}],"outputs":[],"stateMutability":"nonpayable"},{"type":"function","name":"stakedBalance","inputs":[{"name":"_account","type":"address","internalType":"address"}],"outputs":[{"name":"","type":"uint256","internalType":"uint256"}],"stateMutability":"view"},{"type":"function","name":"symbol","inputs":[],"outputs":[{"name":"","type":"string","internalType":"string"}],"stateMutability":"view"},{"type":"function","name":"totalStaked","inputs":[],"outputs":[{"name":"","type":"uint256","internalType":"uint256"}],"stateMutability":"view"},{"type":"function","name":"totalSupply","inputs":[],"outputs":[{"name":"","type":"uint256","internalType":"uint256"}],"stateMutability":"view"},{"type":"function","name":"transfer","inputs":[{"name":"_recipient","type":"address","internalType":"address"},{"name":"_amount","type":"uint256","internalType":"uint256"}],"outputs":[{"name":"","type":"bool","internalType":"bool"}],"stateMutability":"nonpayable"},{"type":"function","name":"transferFrom","inputs":[{"name":"_sender","type":"address","internalType":"address"},{"name":"_recipient","type":"address","internalType":"address"},{"name":"_amount","type":"uint256","internalType":"uint256"}],"outputs":[{"name":"","type":"bool","internalType":"bool"}],"stateMutability":"nonpayable"},{"type":"function","name":"whitelistedHandlers","inputs":[{"name":"","type":"address","internalType":"address"}],"outputs":[{"name":"","type":"bool","internalType":"bool"}],"stateMutability":"view"},{"type":"function","name":"withdrawToken","inputs":[{"name":"_token","type":"address","internalType":"address"},{"name":"_account","type":"address","internalType":"address"},{"name":"_amount","type":"uint256","internalType":"uint256"}],"outputs":[],"stateMutability":"nonpayable"},{"type":"function","name":"yieldTrackers","inputs":[{"name":"","type":"uint256","internalType":"uint256"}],"outputs":[{"name":"","type":"address","internalType":"address"}],"stateMutability":"view"},{"type":"event","name":"Approval","inputs":[{"name":"owner","type":"address","indexed":true,"internalType":"address"},{"name":"spender","type":"address","indexed":true,"internalType":"address"},{"name":"value","type":"uint256","indexed":false,"internalType":"uint256"}],"anonymous":false},{"type":"event","name":"Transfer","inputs":[{"name":"from","type":"address","indexed":true,"internalType":"address"},{"name":"to","type":"address","indexed":true,"internalType":"address"},{"name":"value","type":"uint256","indexed":false,"internalType":"uint256"}],"anonymous":false},{"type":"error","name":"AddressEmptyCode","inputs":[{"name":"target","type":"address","internalType":"address"}]},{"type":"error","name":"AddressInsufficientBalance","inputs":[{"name":"account","type":"address","internalType":"address"}]},{"type":"error","name":"FailedInnerCall","inputs":[]},{"type":"error","name":"SafeERC20FailedOperation","inputs":[{"name":"token","type":"address","internalType":"address"}]}],"bytecode":{"object":"0x60806040523480156200001157600080fd5b5060405162001e4a38038062001e4a83398101604081905262000034916200033a565b60006200004284826200043c565b5060016200005183826200043c565b50600480546001600160a01b031916339081179091556000818152600960205260409020805460ff191660011790556200008c908262000095565b5050506200056c565b6001600160a01b038216620000fc5760405162461bcd60e51b8152602060048201526024808201527f5969656c64546f6b656e3a206d696e7420746f20746865207a65726f206164646044820152637265737360e01b606482015260840160405180910390fd5b6200010782620001c7565b806002546200011791906200051e565b6002556001600160a01b038216600090815260056020526040902054620001409082906200051e565b6001600160a01b03831660009081526005602090815260408083209390935560089052205460ff16156200018257806003546200017e91906200051e565b6003555b6040518181526001600160a01b038316906000907fddf252ad1be2c89b69c2b068fc378daa952ba7f163c4a11628f55a4df523b3ef9060200160405180910390a35050565b60005b6007548110156200027157600060078281548110620001ed57620001ed6200053a565b600091825260209091200154604051635fd6196560e01b81526001600160a01b03858116600483015290911691508190635fd6196590602401600060405180830381600087803b1580156200024157600080fd5b505af115801562000256573d6000803e3d6000fd5b50505050508080620002689062000550565b915050620001ca565b5050565b634e487b7160e01b600052604160045260246000fd5b600082601f8301126200029d57600080fd5b81516001600160401b0380821115620002ba57620002ba62000275565b604051601f8301601f19908116603f01168101908282118183101715620002e557620002e562000275565b816040528381526020925086838588010111156200030257600080fd5b600091505b8382101562000326578582018301518183018401529082019062000307565b600093810190920192909252949350505050565b6000806000606084860312156200035057600080fd5b83516001600160401b03808211156200036857600080fd5b62000376878388016200028b565b945060208601519150808211156200038d57600080fd5b506200039c868287016200028b565b925050604084015190509250925092565b600181811c90821680620003c257607f821691505b602082108103620003e357634e487b7160e01b600052602260045260246000fd5b50919050565b601f8211156200043757600081815260208120601f850160051c81016020861015620004125750805b601f850160051c820191505b8181101562000433578281556001016200041e565b5050505b505050565b81516001600160401b0381111562000458576200045862000275565b6200047081620004698454620003ad565b84620003e9565b602080601f831160018114620004a857600084156200048f5750858301515b600019600386901b1c1916600185901b17855562000433565b600085815260208120601f198616915b82811015620004d957888601518255948401946001909101908401620004b8565b5085821015620004f85787850151600019600388901b60f8161c191681555b5050505050600190811b01905550565b634e487b7160e01b600052601160045260246000fd5b8082018082111562000534576200053462000508565b92915050565b634e487b7160e01b600052603260045260246000fd5b60006001820162000565576200056562000508565b5060010190565b6118ce806200057c6000396000f3fe608060405234801561001057600080fd5b50600436106101f05760003560e01c806355b6ed5c1161010f578063996f11ee116100a2578063cfad57a211610071578063cfad57a21461048e578063d92fc87e146104a1578063dd62ed3e146104b4578063fb30d916146104ed57600080fd5b8063996f11ee1461044c578063a9059cbb1461045f578063a923fc4014610472578063c93be6361461048557600080fd5b806370a08231116100de57806370a08231146103f0578063817b1cd2146104195780639554381a1461042157806395d89b411461044457600080fd5b806355b6ed5c1461038c57806360217267146103b757806362289077146103ca57806370480275146103dd57600080fd5b8063276eab4e1161018757806336300051116101565780633630005114610320578063429b62e5146103435780634cb5bbe31461036657806352cd38d91461037957600080fd5b8063276eab4e146102c657806327e235e3146102d9578063293d6987146102f9578063313ce5671461030657600080fd5b80631785f53c116101c35780631785f53c1461027657806318160ddd146102895780631e83409a146102a057806323b872dd146102b357600080fd5b806301e33667146101f557806306fdde031461020a578063095ea7b31461022857806312d43a511461024b575b600080fd5b610208610203366004611313565b610500565b005b61021261054c565b60405161021f9190611373565b60405180910390f35b61023b6102363660046113a6565b6105da565b604051901515815260200161021f565b60045461025e906001600160a01b031681565b6040516001600160a01b03909116815260200161021f565b6102086102843660046113d0565b6105f1565b61029260025481565b60405190815260200161021f565b6102086102ae3660046113d0565b61063c565b61023b6102c1366004611313565b6106f9565b6102086102d4366004611432565b61074d565b6102926102e73660046113d0565b60056020526000908152604090205481565b600a5461023b9060ff1681565b61030e601281565b60405160ff909116815260200161021f565b61023b61032e3660046113d0565b600b6020526000908152604090205460ff1681565b61023b6103513660046113d0565b60096020526000908152604090205460ff1681565b6102086103743660046114f0565b61078a565b61025e61038736600461150d565b6107c7565b61029261039a366004611526565b600660209081526000928352604080842090915290825290205481565b6102926103c53660046113d0565b6107f1565b6102086103d83660046113d0565b610836565b6102086103eb3660046113d0565b610924565b6102926103fe3660046113d0565b6001600160a01b031660009081526005602052604090205490565b610292610972565b61023b61042f3660046113d0565b60086020526000908152604090205460ff1681565b610212610989565b61020861045a366004611526565b610996565b61023b61046d3660046113a6565b610a80565b6102086104803660046115c9565b610a8d565b61029260035481565b61020861049c3660046113d0565b610ad0565b6102086104af36600461162d565b610b1c565b6102926104c2366004611526565b6001600160a01b03918216600090815260066020908152604080832093909416825291909152205490565b6102086104fb3660046113d0565b610b71565b6004546001600160a01b031633146105335760405162461bcd60e51b815260040161052a90611664565b60405180910390fd5b6105476001600160a01b0384168383610c49565b505050565b6000805461055990611693565b80601f016020809104026020016040519081016040528092919081815260200182805461058590611693565b80156105d25780601f106105a7576101008083540402835291602001916105d2565b820191906000526020600020905b8154815290600101906020018083116105b557829003601f168201915b505050505081565b60006105e7338484610c9b565b5060015b92915050565b6004546001600160a01b0316331461061b5760405162461bcd60e51b815260040161052a90611664565b6001600160a01b03166000908152600960205260409020805460ff19169055565b60005b6007548110156106f55760006007828154811061065e5761065e6116cd565b6000918252602090912001546040516310e059a160e11b81523360048201526001600160a01b038581166024830152909116915081906321c0b342906044016020604051808303816000875af11580156106bc573d6000803e3d6000fd5b505050506040513d601f19601f820116820180604052508101906106e091906116e3565b505080806106ed90611712565b91505061063f565b5050565b6001600160a01b0383166000908152600660209081526040808320338452909152812054819061072a90849061172b565b9050610737853383610c9b565b610742858585610dcb565b506001949350505050565b6004546001600160a01b031633146107775760405162461bcd60e51b815260040161052a90611664565b80516106f590600790602084019061127d565b6004546001600160a01b031633146107b45760405162461bcd60e51b815260040161052a90611664565b600a805460ff1916911515919091179055565b600781815481106107d757600080fd5b6000918252602090912001546001600160a01b0316905081565b6001600160a01b03811660009081526008602052604081205460ff161561081a57506000919050565b506001600160a01b031660009081526005602052604090205490565b3360009081526009602052604090205460ff166108655760405162461bcd60e51b815260040161052a90611664565b6001600160a01b03811660009081526008602052604090205460ff16156108da5760405162461bcd60e51b815260206004820152602360248201527f5969656c64546f6b656e3a205f6163636f756e7420616c7265616479206d61726044820152621ad95960ea1b606482015260840161052a565b6108e381611038565b6001600160a01b0381166000908152600860209081526040808320805460ff19166001179055600590915290205460035461091e919061173e565b60035550565b6004546001600160a01b0316331461094e5760405162461bcd60e51b815260040161052a90611664565b6001600160a01b03166000908152600960205260409020805460ff19166001179055565b6000600354600254610984919061172b565b905090565b6001805461055990611693565b3360009081526009602052604090205460ff166109c55760405162461bcd60e51b815260040161052a90611664565b60005b600754811015610547576000600782815481106109e7576109e76116cd565b6000918252602090912001546040516310e059a160e11b81526001600160a01b0386811660048301528581166024830152909116915081906321c0b342906044016020604051808303816000875af1158015610a47573d6000803e3d6000fd5b505050506040513d601f19601f82011682018060405250810190610a6b91906116e3565b50508080610a7890611712565b9150506109c8565b60006105e7338484610dcb565b6004546001600160a01b03163314610ab75760405162461bcd60e51b815260040161052a90611664565b6000610ac3838261179f565b506001610547828261179f565b6004546001600160a01b03163314610afa5760405162461bcd60e51b815260040161052a90611664565b600480546001600160a01b0319166001600160a01b0392909216919091179055565b6004546001600160a01b03163314610b465760405162461bcd60e51b815260040161052a90611664565b6001600160a01b03919091166000908152600b60205260409020805460ff1916911515919091179055565b3360009081526009602052604090205460ff16610ba05760405162461bcd60e51b815260040161052a90611664565b6001600160a01b03811660009081526008602052604090205460ff16610c085760405162461bcd60e51b815260206004820152601f60248201527f5969656c64546f6b656e3a205f6163636f756e74206e6f74206d61726b656400604482015260640161052a565b610c1181611038565b6001600160a01b0381166000908152600860209081526040808320805460ff19169055600590915290205460035461091e919061172b565b604080516001600160a01b038416602482015260448082018490528251808303909101815260649091019091526020810180516001600160e01b031663a9059cbb60e01b1790526105479084906110d9565b6001600160a01b038316610d035760405162461bcd60e51b815260206004820152602960248201527f5969656c64546f6b656e3a20617070726f76652066726f6d20746865207a65726044820152686f206164647265737360b81b606482015260840161052a565b6001600160a01b038216610d695760405162461bcd60e51b815260206004820152602760248201527f5969656c64546f6b656e3a20617070726f766520746f20746865207a65726f206044820152666164647265737360c81b606482015260840161052a565b6001600160a01b0383811660008181526006602090815260408083209487168084529482529182902085905590518481527f8c5be1e5ebec7d5bd14f71427d1e84f3dd0314c0f7b2291e5b200ac8c7c3b92591015b60405180910390a3505050565b6001600160a01b038316610e345760405162461bcd60e51b815260206004820152602a60248201527f5969656c64546f6b656e3a207472616e736665722066726f6d20746865207a65604482015269726f206164647265737360b01b606482015260840161052a565b6001600160a01b038216610e9b5760405162461bcd60e51b815260206004820152602860248201527f5969656c64546f6b656e3a207472616e7366657220746f20746865207a65726f604482015267206164647265737360c01b606482015260840161052a565b600a5460ff1615610f1457336000908152600b602052604090205460ff16610f145760405162461bcd60e51b815260206004820152602660248201527f5969656c64546f6b656e3a206d73672e73656e646572206e6f742077686974656044820152651b1a5cdd195960d21b606482015260840161052a565b610f1d83611038565b610f2682611038565b6001600160a01b038316600090815260056020526040902054610f4a90829061172b565b6001600160a01b038085166000908152600560205260408082209390935590841681522054610f7a90829061173e565b6001600160a01b0380841660009081526005602090815260408083209490945591861681526008909152205460ff1615610fc05780600354610fbc919061172b565b6003555b6001600160a01b03821660009081526008602052604090205460ff1615610ff35780600354610fef919061173e565b6003555b816001600160a01b0316836001600160a01b03167fddf252ad1be2c89b69c2b068fc378daa952ba7f163c4a11628f55a4df523b3ef83604051610dbe91815260200190565b60005b6007548110156106f55760006007828154811061105a5761105a6116cd565b600091825260209091200154604051635fd6196560e01b81526001600160a01b03858116600483015290911691508190635fd6196590602401600060405180830381600087803b1580156110ad57600080fd5b505af11580156110c1573d6000803e3d6000fd5b505050505080806110d190611712565b91505061103b565b60006110ee6001600160a01b0384168361113c565b90508051600014158015611113575080806020019051810190611111919061185f565b155b1561054757604051635274afe760e01b81526001600160a01b038416600482015260240161052a565b606061114d8383600061115461116d565b9392505050565b604051630a12f52160e11b815260040160405180910390fd5b6060824710156111925760405163cd78605960e01b815230600482015260240161052a565b600080866001600160a01b031685876040516111ae919061187c565b60006040518083038185875af1925050503d80600081146111eb576040519150601f19603f3d011682016040523d82523d6000602084013e6111f0565b606091505b50915091506112018783838761120e565b925050505b949350505050565b6060831561125c57825160000361125557846001600160a01b03163b60000361125557604051639996b31560e01b81526001600160a01b038616600482015260240161052a565b5081611206565b61120683838151156112715781518083602001fd5b6111548163ffffffff16565b8280548282559060005260206000209081019282156112d2579160200282015b828111156112d257825182546001600160a01b0319166001600160a01b0390911617825560209092019160019091019061129d565b506112de9291506112e2565b5090565b5b808211156112de57600081556001016112e3565b80356001600160a01b038116811461130e57600080fd5b919050565b60008060006060848603121561132857600080fd5b611331846112f7565b925061133f602085016112f7565b9150604084013590509250925092565b60005b8381101561136a578181015183820152602001611352565b50506000910152565b602081526000825180602084015261139281604085016020870161134f565b601f01601f19169190910160400192915050565b600080604083850312156113b957600080fd5b6113c2836112f7565b946020939093013593505050565b6000602082840312156113e257600080fd5b61114d826112f7565b634e487b7160e01b600052604160045260246000fd5b604051601f8201601f1916810167ffffffffffffffff8111828210171561142a5761142a6113eb565b604052919050565b6000602080838503121561144557600080fd5b823567ffffffffffffffff8082111561145d57600080fd5b818501915085601f83011261147157600080fd5b813581811115611483576114836113eb565b8060051b9150611494848301611401565b81815291830184019184810190888411156114ae57600080fd5b938501935b838510156114d3576114c4856112f7565b825293850193908501906114b3565b98975050505050505050565b80151581146114ed57600080fd5b50565b60006020828403121561150257600080fd5b813561114d816114df565b60006020828403121561151f57600080fd5b5035919050565b6000806040838503121561153957600080fd5b611542836112f7565b9150611550602084016112f7565b90509250929050565b600082601f83011261156a57600080fd5b813567ffffffffffffffff811115611584576115846113eb565b611597601f8201601f1916602001611401565b8181528460208386010111156115ac57600080fd5b816020850160208301376000918101602001919091529392505050565b600080604083850312156115dc57600080fd5b823567ffffffffffffffff808211156115f457600080fd5b61160086838701611559565b9350602085013591508082111561161657600080fd5b5061162385828601611559565b9150509250929050565b6000806040838503121561164057600080fd5b611649836112f7565b91506020830135611659816114df565b809150509250929050565b6020808252601590820152742cb4b2b6322a37b5b2b71d103337b93134b23232b760591b604082015260600190565b600181811c908216806116a757607f821691505b6020821081036116c757634e487b7160e01b600052602260045260246000fd5b50919050565b634e487b7160e01b600052603260045260246000fd5b6000602082840312156116f557600080fd5b5051919050565b634e487b7160e01b600052601160045260246000fd5b600060018201611724576117246116fc565b5060010190565b818103818111156105eb576105eb6116fc565b808201808211156105eb576105eb6116fc565b601f82111561054757600081815260208120601f850160051c810160208610156117785750805b601f850160051c820191505b8181101561179757828155600101611784565b505050505050565b815167ffffffffffffffff8111156117b9576117b96113eb565b6117cd816117c78454611693565b84611751565b602080601f83116001811461180257600084156117ea5750858301515b600019600386901b1c1916600185901b178555611797565b600085815260208120601f198616915b8281101561183157888601518255948401946001909101908401611812565b508582101561184f5787850151600019600388901b60f8161c191681555b5050505050600190811b01905550565b60006020828403121561187157600080fd5b815161114d816114df565b6000825161188e81846020870161134f565b919091019291505056fea2646970667358221220433b132fb2ea3809b8578726a5836a680a7a653eb8ed37d6800ff8b1d2217fb264736f6c63430008120033","linkReferences":{}},"methodIdentifiers":{"addAdmin(address)":"70480275","addNonStakingAccount(address)":"62289077","admins(address)":"429b62e5","allowance(address,address)":"dd62ed3e","allowances(address,address)":"55b6ed5c","approve(address,uint256)":"095ea7b3","balanceOf(address)":"70a08231","balances(address)":"27e235e3","claim(address)":"1e83409a","decimals()":"313ce567","gov()":"12d43a51","inWhitelistMode()":"293d6987","name()":"06fdde03","nonStakingAccounts(address)":"9554381a","nonStakingSupply()":"c93be636","recoverClaim(address,address)":"996f11ee","removeAdmin(address)":"1785f53c","removeNonStakingAccount(address)":"fb30d916","setGov(address)":"cfad57a2","setInWhitelistMode(bool)":"4cb5bbe3","setInfo(string,string)":"a923fc40","setWhitelistedHandler(address,bool)":"d92fc87e","setYieldTrackers(address[])":"276eab4e","stakedBalance(address)":"60217267","symbol()":"95d89b41","totalStaked()":"817b1cd2","totalSupply()":"18160ddd","transfer(address,uint256)":"a9059cbb","transferFrom(address,address,uint256)":"23b872dd","whitelistedHandlers(address)":"36300051","withdrawToken(address,address,uint256)":"01e33667","yieldTrackers(uint256)":"52cd38d9"},"id":142}