{
  "abi": [
    {
      "inputs": [],
      "name": "gov",
      "outputs": [
        {
          "internalType": "address",
          "name": "",
          "type": "address"
        }
      ],
      "stateMutability": "view",
      "type": "function"
    },
    {
      "inputs": [
        {
          "internalType": "address",
          "name": "_gov",
          "type": "address"
        }
      ],
      "name": "setGov",
      "outputs": [],
      "stateMutability": "nonpayable",
      "type": "function"
    },
    {
      "inputs": [
        {
          "internalType": "address",
          "name": "_rewardTracker",
          "type": "address"
        },
        {
          "internalType": "address",
          "name": "_account",
          "type": "address"
        },
        {
          "internalType": "address",
          "name": "_token",
          "type": "address"
        },
        {
          "internalType": "uint256",
          "name": "_amount",
          "type": "uint256"
        }
      ],
      "name": "stakeForAccount",
      "outputs": [],
      "stateMutability": "nonpayable",
      "type": "function"
    }
  ],
  "bytecode": {
    "object": "0x608060405234801561001057600080fd5b50600080546001600160a01b031916331790556102f4806100326000396000f3fe608060405234801561001057600080fd5b50600436106100415760003560e01c806312d43a5114610046578063790b5a6c14610075578063cfad57a21461008a575b600080fd5b600054610059906001600160a01b031681565b6040516001600160a01b03909116815260200160405180910390f35b610088610083366004610251565b61009d565b005b61008861009836600461029c565b61016b565b6000546001600160a01b031633146100f45760405162461bcd60e51b815260206004820152601560248201527423b7bb32b93730b136329d103337b93134b23232b760591b60448201526064015b60405180910390fd5b604051631e42d69b60e21b81526001600160a01b0384811660048301819052602483015283811660448301526064820183905285169063790b5a6c90608401600060405180830381600087803b15801561014d57600080fd5b505af1158015610161573d6000803e3d6000fd5b5050505050505050565b6000546001600160a01b031633146101bd5760405162461bcd60e51b815260206004820152601560248201527423b7bb32b93730b136329d103337b93134b23232b760591b60448201526064016100eb565b6001600160a01b0381166102135760405162461bcd60e51b815260206004820181905260248201527f476f7665726e61626c653a205f676f76206973207a65726f206164647265737360448201526064016100eb565b600080546001600160a01b0319166001600160a01b0392909216919091179055565b80356001600160a01b038116811461024c57600080fd5b919050565b6000806000806080858703121561026757600080fd5b61027085610235565b935061027e60208601610235565b925061028c60408601610235565b9396929550929360600135925050565b6000602082840312156102ae57600080fd5b6102b782610235565b939250505056fea264697066735822122066fc2ae78d71e6155421e8fa2a36d812cf582857976235c3b49ef2f9557c35ec64736f6c63430008120033",
    "linkReferences": {}
  },
  "methodIdentifiers": {
    "gov()": "12d43a51",
    "setGov(address)": "cfad57a2",
    "stakeForAccount(address,address,address,uint256)": "790b5a6c"
  },
  "id": 109
}