{
  "abi": [
    {
      "inputs": [
        {
          "internalType": "contract IGlpManager",
          "name": "_glpManager",
          "type": "address"
        },
        {
          "internalType": "address",
          "name": "_stakedGlpTracker",
          "type": "address"
        }
      ],
      "stateMutability": "nonpayable",
      "type": "constructor"
    },
    {
      "anonymous": false,
      "inputs": [
        {
          "indexed": true,
          "internalType": "address",
          "name": "owner",
          "type": "address"
        },
        {
          "indexed": true,
          "internalType": "address",
          "name": "spender",
          "type": "address"
        },
        {
          "indexed": false,
          "internalType": "uint256",
          "name": "value",
          "type": "uint256"
        }
      ],
      "name": "Approval",
      "type": "event"
    },
    {
      "inputs": [
        {
          "internalType": "address",
          "name": "_owner",
          "type": "address"
        },
        {
          "internalType": "address",
          "name": "_spender",
          "type": "address"
        }
      ],
      "name": "allowance",
      "outputs": [
        {
          "internalType": "uint256",
          "name": "",
          "type": "uint256"
        }
      ],
      "stateMutability": "view",
      "type": "function"
    },
    {
      "inputs": [
        {
          "internalType": "address",
          "name": "",
          "type": "address"
        },
        {
          "internalType": "address",
          "name": "",
          "type": "address"
        }
      ],
      "name": "allowances",
      "outputs": [
        {
          "internalType": "uint256",
          "name": "",
          "type": "uint256"
        }
      ],
      "stateMutability": "view",
      "type": "function"
    },
    {
      "inputs": [
        {
          "internalType": "address",
          "name": "_spender",
          "type": "address"
        },
        {
          "internalType": "uint256",
          "name": "_amount",
          "type": "uint256"
        }
      ],
      "name": "approve",
      "outputs": [
        {
          "internalType": "bool",
          "name": "",
          "type": "bool"
        }
      ],
      "stateMutability": "nonpayable",
      "type": "function"
    },
    {
      "inputs": [],
      "name": "glpManager",
      "outputs": [
        {
          "internalType": "contract IGlpManager",
          "name": "",
          "type": "address"
        }
      ],
      "stateMutability": "view",
      "type": "function"
    },
    {
      "inputs": [],
      "name": "stakedGlpTracker",
      "outputs": [
        {
          "internalType": "address",
          "name": "",
          "type": "address"
        }
      ],
      "stateMutability": "view",
      "type": "function"
    },
    {
      "inputs": [
        {
          "internalType": "address",
          "name": "_recipient",
          "type": "address"
        },
        {
          "internalType": "uint256",
          "name": "_amount",
          "type": "uint256"
        }
      ],
      "name": "transfer",
      "outputs": [
        {
          "internalType": "bool",
          "name": "",
          "type": "bool"
        }
      ],
      "stateMutability": "nonpayable",
      "type": "function"
    },
    {
      "inputs": [
        {
          "internalType": "address",
          "name": "_sender",
          "type": "address"
        },
        {
          "internalType": "address",
          "name": "_recipient",
          "type": "address"
        },
        {
          "internalType": "uint256",
          "name": "_amount",
          "type": "uint256"
        }
      ],
      "name": "transferFrom",
      "outputs": [
        {
          "internalType": "bool",
          "name": "",
          "type": "bool"
        }
      ],
      "stateMutability": "nonpayable",
      "type": "function"
    }
  ],
  "bytecode": {
    "object": "0x608060405234801561001057600080fd5b5060405161080038038061080083398101604081905261002f91610078565b600080546001600160a01b039384166001600160a01b031991821617909155600180549290931691161790556100b2565b6001600160a01b038116811461007557600080fd5b50565b6000806040838503121561008b57600080fd5b825161009681610060565b60208401519092506100a781610060565b809150509250929050565b61073f806100c16000396000f3fe608060405234801561001057600080fd5b506004361061007d5760003560e01c8063a9059cbb1161005b578063a9059cbb146100f6578063af394d0014610109578063dd62ed3e14610134578063fa6db1bc1461016d57600080fd5b8063095ea7b31461008257806323b872dd146100aa57806355b6ed5c146100bd575b600080fd5b6100956100903660046105f2565b610180565b60405190151581526020015b60405180910390f35b6100956100b836600461061c565b610197565b6100e86100cb366004610658565b600260209081526000928352604080842090915290825290205481565b6040519081526020016100a1565b6100956101043660046105f2565b6101eb565b60015461011c906001600160a01b031681565b6040516001600160a01b0390911681526020016100a1565b6100e8610142366004610658565b6001600160a01b03918216600090815260026020908152604080832093909416825291909152205490565b60005461011c906001600160a01b031681565b600061018d3384846101f8565b5060015b92915050565b6001600160a01b038316600090815260026020908152604080832033845290915281205481906101c89084906106a1565b90506101d58533836101f8565b6101e085858561032c565b506001949350505050565b600061018d33848461032c565b6001600160a01b0383166102655760405162461bcd60e51b815260206004820152602960248201527f476c7042616c616e63653a20617070726f76652066726f6d20746865207a65726044820152686f206164647265737360b81b60648201526084015b60405180910390fd5b6001600160a01b0382166102cb5760405162461bcd60e51b815260206004820152602760248201527f476c7042616c616e63653a20617070726f766520746f20746865207a65726f206044820152666164647265737360c81b606482015260840161025c565b6001600160a01b0383811660008181526002602090815260408083209487168084529482529182902085905590518481527f8c5be1e5ebec7d5bd14f71427d1e84f3dd0314c0f7b2291e5b200ac8c7c3b925910160405180910390a3505050565b6001600160a01b0383166103955760405162461bcd60e51b815260206004820152602a60248201527f476c7042616c616e63653a207472616e736665722066726f6d20746865207a65604482015269726f206164647265737360b01b606482015260840161025c565b6001600160a01b0382166103fc5760405162461bcd60e51b815260206004820152602860248201527f476c7042616c616e63653a207472616e7366657220746f20746865207a65726f604482015267206164647265737360c01b606482015260840161025c565b4260008054906101000a90046001600160a01b03166001600160a01b031663352693156040518163ffffffff1660e01b81526004016020604051808303816000875af1158015610450573d6000803e3d6000fd5b505050506040513d601f19601f8201168201806040525081019061047491906106b4565b600054604051638b770e1160e01b81526001600160a01b03878116600483015290911690638b770e11906024016020604051808303816000875af11580156104c0573d6000803e3d6000fd5b505050506040513d601f19601f820116820180604052508101906104e491906106b4565b6104ee91906106cd565b11156105515760405162461bcd60e51b815260206004820152602c60248201527f476c7042616c616e63653a20636f6f6c646f776e206475726174696f6e206e6f60448201526b1d081e595d081c185cdcd95960a21b606482015260840161025c565b6001546040516323b872dd60e01b81526001600160a01b038581166004830152848116602483015260448201849052909116906323b872dd906064016020604051808303816000875af11580156105ac573d6000803e3d6000fd5b505050506040513d601f19601f820116820180604052508101906105d091906106e0565b50505050565b80356001600160a01b03811681146105ed57600080fd5b919050565b6000806040838503121561060557600080fd5b61060e836105d6565b946020939093013593505050565b60008060006060848603121561063157600080fd5b61063a846105d6565b9250610648602085016105d6565b9150604084013590509250925092565b6000806040838503121561066b57600080fd5b610674836105d6565b9150610682602084016105d6565b90509250929050565b634e487b7160e01b600052601160045260246000fd5b818103818111156101915761019161068b565b6000602082840312156106c657600080fd5b5051919050565b808201808211156101915761019161068b565b6000602082840312156106f257600080fd5b8151801515811461070257600080fd5b939250505056fea2646970667358221220fca956db91c86dfa150c203bf672a5024e2d1e52931732102877db4c3d01260d64736f6c63430008120033",
    "linkReferences": {}
  },
  "methodIdentifiers": {
    "allowance(address,address)": "dd62ed3e",
    "allowances(address,address)": "55b6ed5c",
    "approve(address,uint256)": "095ea7b3",
    "glpManager()": "fa6db1bc",
    "stakedGlpTracker()": "af394d00",
    "transfer(address,uint256)": "a9059cbb",
    "transferFrom(address,address,uint256)": "23b872dd"
  },
  "id": 105
}