{"abi":[{"type":"function","name":"BASIS_POINTS_DIVISOR","inputs":[],"outputs":[{"name":"","type":"uint256","internalType":"uint256"}],"stateMutability":"view"},{"type":"function","name":"POSITION_PROPS_LENGTH","inputs":[],"outputs":[{"name":"","type":"uint256","internalType":"uint256"}],"stateMutability":"view"},{"type":"function","name":"PRICE_PRECISION","inputs":[],"outputs":[{"name":"","type":"uint256","internalType":"uint256"}],"stateMutability":"view"},{"type":"function","name":"USDP_DECIMALS","inputs":[],"outputs":[{"name":"","type":"uint256","internalType":"uint256"}],"stateMutability":"view"},{"type":"function","name":"getAmountOut","inputs":[{"name":"_vault","type":"address","internalType":"contract IVault"},{"name":"_tokenIn","type":"address","internalType":"address"},{"name":"_tokenOut","type":"address","internalType":"address"},{"name":"_amountIn","type":"uint256","internalType":"uint256"}],"outputs":[{"name":"","type":"uint256","internalType":"uint256"},{"name":"","type":"uint256","internalType":"uint256"}],"stateMutability":"view"},{"type":"function","name":"getFeeBasisPoints","inputs":[{"name":"_vault","type":"address","internalType":"contract IVault"},{"name":"_tokenIn","type":"address","internalType":"address"},{"name":"_tokenOut","type":"address","internalType":"address"},{"name":"_amountIn","type":"uint256","internalType":"uint256"}],"outputs":[{"name":"","type":"uint256","internalType":"uint256"},{"name":"","type":"uint256","internalType":"uint256"},{"name":"","type":"uint256","internalType":"uint256"}],"stateMutability":"view"},{"type":"function","name":"getFees","inputs":[{"name":"_vault","type":"address","internalType":"address"},{"name":"_tokens","type":"address[]","internalType":"address[]"}],"outputs":[{"name":"","type":"uint256[]","internalType":"uint256[]"}],"stateMutability":"view"},{"type":"function","name":"getFullVaultTokenInfo","inputs":[{"name":"_vault","type":"address","internalType":"address"},{"name":"_weth","type":"address","internalType":"address"},{"name":"_usdpAmount","type":"uint256","internalType":"uint256"},{"name":"_tokens","type":"address[]","internalType":"address[]"}],"outputs":[{"name":"","type":"uint256[]","internalType":"uint256[]"}],"stateMutability":"view"},{"type":"function","name":"getFundingRates","inputs":[{"name":"_vault","type":"address","internalType":"address"},{"name":"_weth","type":"address","internalType":"address"},{"name":"_tokens","type":"address[]","internalType":"address[]"}],"outputs":[{"name":"","type":"uint256[]","internalType":"uint256[]"}],"stateMutability":"view"},{"type":"function","name":"getMaxAmountIn","inputs":[{"name":"_vault","type":"address","internalType":"contract IVault"},{"name":"_tokenIn","type":"address","internalType":"address"},{"name":"_tokenOut","type":"address","internalType":"address"}],"outputs":[{"name":"","type":"uint256","internalType":"uint256"}],"stateMutability":"view"},{"type":"function","name":"getPairInfo","inputs":[{"name":"_factory","type":"address","internalType":"address"},{"name":"_tokens","type":"address[]","internalType":"address[]"}],"outputs":[{"name":"","type":"uint256[]","internalType":"uint256[]"}],"stateMutability":"view"},{"type":"function","name":"getPositions","inputs":[{"name":"_vault","type":"address","internalType":"address"},{"name":"_account","type":"address","internalType":"address"},{"name":"_collateralTokens","type":"address[]","internalType":"address[]"},{"name":"_indexTokens","type":"address[]","internalType":"address[]"},{"name":"_isLong","type":"bool[]","internalType":"bool[]"}],"outputs":[{"name":"","type":"uint256[]","internalType":"uint256[]"}],"stateMutability":"view"},{"type":"function","name":"getPrices","inputs":[{"name":"_priceFeed","type":"address","internalType":"contract IVaultPriceFeed"},{"name":"_tokens","type":"address[]","internalType":"address[]"}],"outputs":[{"name":"","type":"uint256[]","internalType":"uint256[]"}],"stateMutability":"view"},{"type":"function","name":"getStakingInfo","inputs":[{"name":"_account","type":"address","internalType":"address"},{"name":"_yieldTrackers","type":"address[]","internalType":"address[]"}],"outputs":[{"name":"","type":"uint256[]","internalType":"uint256[]"}],"stateMutability":"view"},{"type":"function","name":"getTokenBalances","inputs":[{"name":"_account","type":"address","internalType":"address"},{"name":"_tokens","type":"address[]","internalType":"address[]"}],"outputs":[{"name":"","type":"uint256[]","internalType":"uint256[]"}],"stateMutability":"view"},{"type":"function","name":"getTokenBalancesWithSupplies","inputs":[{"name":"_account","type":"address","internalType":"address"},{"name":"_tokens","type":"address[]","internalType":"address[]"}],"outputs":[{"name":"","type":"uint256[]","internalType":"uint256[]"}],"stateMutability":"view"},{"type":"function","name":"getTokenSupply","inputs":[{"name":"_token","type":"address","internalType":"contract IERC20"},{"name":"_excludedAccounts","type":"address[]","internalType":"address[]"}],"outputs":[{"name":"","type":"uint256","internalType":"uint256"}],"stateMutability":"view"},{"type":"function","name":"getTotalBalance","inputs":[{"name":"_token","type":"address","internalType":"contract IERC20"},{"name":"_accounts","type":"address[]","internalType":"address[]"}],"outputs":[{"name":"","type":"uint256","internalType":"uint256"}],"stateMutability":"view"},{"type":"function","name":"getTotalStaked","inputs":[{"name":"_yieldTokens","type":"address[]","internalType":"address[]"}],"outputs":[{"name":"","type":"uint256[]","internalType":"uint256[]"}],"stateMutability":"view"},{"type":"function","name":"getVaultTokenInfo","inputs":[{"name":"_vault","type":"address","internalType":"address"},{"name":"_weth","type":"address","internalType":"address"},{"name":"_usdpAmount","type":"uint256","internalType":"uint256"},{"name":"_tokens","type":"address[]","internalType":"address[]"}],"outputs":[{"name":"","type":"uint256[]","internalType":"uint256[]"}],"stateMutability":"view"},{"type":"function","name":"getVaultTokenInfoV2","inputs":[{"name":"_vault","type":"address","internalType":"address"},{"name":"_weth","type":"address","internalType":"address"},{"name":"_usdpAmount","type":"uint256","internalType":"uint256"},{"name":"_tokens","type":"address[]","internalType":"address[]"}],"outputs":[{"name":"","type":"uint256[]","internalType":"uint256[]"}],"stateMutability":"view"},{"type":"function","name":"gov","inputs":[],"outputs":[{"name":"","type":"address","internalType":"address"}],"stateMutability":"view"},{"type":"function","name":"hasMaxGlobalShortSizes","inputs":[],"outputs":[{"name":"","type":"bool","internalType":"bool"}],"stateMutability":"view"},{"type":"function","name":"setConfig","inputs":[{"name":"_hasMaxGlobalShortSizes","type":"bool","internalType":"bool"}],"outputs":[],"stateMutability":"nonpayable"},{"type":"function","name":"setGov","inputs":[{"name":"_gov","type":"address","internalType":"address"}],"outputs":[],"stateMutability":"nonpayable"}],"bytecode":{"object":"0x608060405234801561001057600080fd5b50600080546001600160a01b03191633179055615099806100326000396000f3fe608060405234801561001057600080fd5b50600436106101735760003560e01c8063937a0be8116100de578063c6f1d67611610097578063d802178e11610071578063d802178e14610363578063dc383cab14610376578063f3535e6c14610389578063fbdb05ca1461039c57600080fd5b8063c6f1d67614610304578063cfad57a214610328578063d7176ca91461033b57600080fd5b8063937a0be81461029a57806395082d25146102ad57806395a7535a146102c15780639b0183c3146102d4578063a4543ead146102e9578063ad7e5497146102fc57600080fd5b80633613d527116101305780633613d52714610218578063440f018c1461022b5780637b906e931461025957806386d4d0f51461026c5780638baf820d1461027f5780638e83ca321461028757600080fd5b8063126082cf1461017857806312d43a511461019457806320542568146101bf5780632413c8c1146101df5780632ac0184c146101f25780632e3e334214610205575b600080fd5b61018161271081565b6040519081526020015b60405180910390f35b6000546101a7906001600160a01b031681565b6040516001600160a01b03909116815260200161018b565b6101d26101cd366004614a0e565b6103af565b60405161018b9190614a79565b6101d26101ed366004614abd565b610af1565b610181610200366004614af9565b610bfd565b6101d2610213366004614af9565b610d2c565b6101d2610226366004614af9565b610f77565b61023e610239366004614b48565b6113f1565b6040805193845260208401929092529082015260600161018b565b6101d2610267366004614a0e565b6118cb565b6101d261027a366004614af9565b612136565b610181601281565b6101d2610295366004614a0e565b61224f565b6101d26102a8366004614af9565b612c11565b6101816c0c9f2c9cd04674edea4000000081565b6101d26102cf366004614b99565b612dd1565b6102e76102e2366004614c08565b61328b565b005b6101d26102f7366004614af9565b613300565b610181600981565b60005461031890600160a01b900460ff1681565b604051901515815260200161018b565b6102e7610336366004614c25565b6135a2565b61034e610349366004614b48565b61366c565b6040805192835260208301919091520161018b565b6101d2610371366004614af9565b613caf565b6101d2610384366004614c42565b613e07565b610181610397366004614d4e565b6142e3565b6101816103aa366004614af9565b614864565b60606000600a905060008690506000816001600160a01b031663741bef1a6040518163ffffffff1660e01b8152600401602060405180830381865afa1580156103fc573d6000803e3d6000fd5b505050506040513d601f19601f820116820180604052508101906104209190614d99565b905060008386516104319190614dcc565b6001600160401b038111156104485761044861493c565b604051908082528060200260200182016040528015610471578160200160208202803683370190505b50905060005b8651811015610ae457600087828151811061049457610494614de3565b6020026020010151905060006001600160a01b0316816001600160a01b0316036104bb5750885b6040516352f55eed60e01b81526001600160a01b0382811660048301528616906352f55eed90602401602060405180830381865afa158015610501573d6000803e3d6000fd5b505050506040513d601f19601f820116820180604052508101906105259190614df9565b836105308885614dcc565b8151811061054057610540614de3565b602090810291909101015260405163c3c7b9e960e01b81526001600160a01b03828116600483015286169063c3c7b9e990602401602060405180830381865afa158015610591573d6000803e3d6000fd5b505050506040513d601f19601f820116820180604052508101906105b59190614df9565b836105c08885614dcc565b6105cb906001614e12565b815181106105db576105db614de3565b602090810291909101015260405163345a947960e11b81526001600160a01b0382811660048301528616906368b528f290602401602060405180830381865afa15801561062c573d6000803e3d6000fd5b505050506040513d601f19601f820116820180604052508101906106509190614df9565b8361065b8885614dcc565b610666906002614e12565b8151811061067657610676614de3565b6020908102919091010152604051632c668ec160e01b81526001600160a01b038281166004830152602482018b9052861690632c668ec190604401602060405180830381865afa1580156106ce573d6000803e3d6000fd5b505050506040513d601f19601f820116820180604052508101906106f29190614df9565b836106fd8885614dcc565b610708906003614e12565b8151811061071857610718614de3565b6020908102919091010152604051632acbceb560e21b81526001600160a01b03828116600483015286169063ab2f3ad490602401602060405180830381865afa158015610769573d6000803e3d6000fd5b505050506040513d601f19601f8201168201806040525081019061078d9190614df9565b836107988885614dcc565b6107a3906004614e12565b815181106107b3576107b3614de3565b60209081029190910101526040516340d3096b60e11b81526001600160a01b0382811660048301528616906381a612d690602401602060405180830381865afa158015610804573d6000803e3d6000fd5b505050506040513d601f19601f820116820180604052508101906108289190614df9565b836108338885614dcc565b61083e906005614e12565b8151811061084e5761084e614de3565b6020908102919091010152604051637092736960e11b81526001600160a01b03828116600483015286169063e124e6d290602401602060405180830381865afa15801561089f573d6000803e3d6000fd5b505050506040513d601f19601f820116820180604052508101906108c39190614df9565b836108ce8885614dcc565b6108d9906006614e12565b815181106108e9576108e9614de3565b602090810291909101015260405163783a2b6760e11b81526001600160a01b03828116600483015286169063f07456ce90602401602060405180830381865afa15801561093a573d6000803e3d6000fd5b505050506040513d601f19601f8201168201806040525081019061095e9190614df9565b836109698885614dcc565b610974906007614e12565b8151811061098457610984614de3565b60209081029190910101526040516356c8c2c160e01b81526001600160a01b038516906356c8c2c1906109be908490600090600401614e25565b602060405180830381865afa1580156109db573d6000803e3d6000fd5b505050506040513d601f19601f820116820180604052508101906109ff9190614df9565b83610a0a8885614dcc565b610a15906008614e12565b81518110610a2557610a25614de3565b60209081029190910101526040516356c8c2c160e01b81526001600160a01b038516906356c8c2c190610a5f908490600190600401614e25565b602060405180830381865afa158015610a7c573d6000803e3d6000fd5b505050506040513d601f19601f82011682018060405250810190610aa09190614df9565b83610aab8885614dcc565b610ab6906009614e12565b81518110610ac657610ac6614de3565b60209081029190910101525080610adc81614e40565b915050610477565b5098975050505050505050565b6060600082516001600160401b03811115610b0e57610b0e61493c565b604051908082528060200260200182016040528015610b37578160200160208202803683370190505b50905060005b8351811015610bf6576000848281518110610b5a57610b5a614de3565b60200260200101519050806001600160a01b031663817b1cd26040518163ffffffff1660e01b8152600401602060405180830381865afa158015610ba2573d6000803e3d6000fd5b505050506040513d601f19601f82011682018060405250810190610bc69190614df9565b838381518110610bd857610bd8614de3565b60209081029190910101525080610bee81614e40565b915050610b3d565b5092915050565b600080836001600160a01b03166318160ddd6040518163ffffffff1660e01b8152600401602060405180830381865afa158015610c3e573d6000803e3d6000fd5b505050506040513d601f19601f82011682018060405250810190610c629190614df9565b905060005b8351811015610d22576000848281518110610c8457610c84614de3565b60209081029190910101516040516370a0823160e01b81526001600160a01b0380831660048301529192506000918816906370a0823190602401602060405180830381865afa158015610cdb573d6000803e3d6000fd5b505050506040513d601f19601f82011682018060405250810190610cff9190614df9565b9050610d0b8185614e59565b935050508080610d1a90614e40565b915050610c67565b5090505b92915050565b60606000600290506000818451610d439190614dcc565b6001600160401b03811115610d5a57610d5a61493c565b604051908082528060200260200182016040528015610d83578160200160208202803683370190505b50905060005b8451811015610f6e576000858281518110610da657610da6614de3565b6020026020010151905060006001600160a01b0316816001600160a01b031603610e35576001600160a01b0387163183610de08685614dcc565b81518110610df057610df0614de3565b6020908102919091010152600083610e088685614dcc565b610e13906001614e12565b81518110610e2357610e23614de3565b60200260200101818152505050610f5c565b6040516370a0823160e01b81526001600160a01b0388811660048301528216906370a0823190602401602060405180830381865afa158015610e7b573d6000803e3d6000fd5b505050506040513d601f19601f82011682018060405250810190610e9f9190614df9565b83610eaa8685614dcc565b81518110610eba57610eba614de3565b602002602001018181525050806001600160a01b03166318160ddd6040518163ffffffff1660e01b8152600401602060405180830381865afa158015610f04573d6000803e3d6000fd5b505050506040513d601f19601f82011682018060405250810190610f289190614df9565b83610f338685614dcc565b610f3e906001614e12565b81518110610f4e57610f4e614de3565b602002602001018181525050505b80610f6681614e40565b915050610d89565b50949350505050565b60606000600690506000818451610f8e9190614dcc565b6001600160401b03811115610fa557610fa561493c565b604051908082528060200260200182016040528015610fce578160200160208202803683370190505b50905060005b8451811015610f6e576000858281518110610ff157610ff1614de3565b60209081029190910101516040516317e1d38560e11b81526001600160a01b03808316600483015260016024830181905260448301526000606483015291925090881690632fc3a70a90608401602060405180830381865afa15801561105b573d6000803e3d6000fd5b505050506040513d601f19601f8201168201806040525081019061107f9190614df9565b8361108a8685614dcc565b8151811061109a5761109a614de3565b60209081029190910101526040516317e1d38560e11b81526001600160a01b038281166004830152600060248301819052600160448401526064830152881690632fc3a70a90608401602060405180830381865afa158015611100573d6000803e3d6000fd5b505050506040513d601f19601f820116820180604052508101906111249190614df9565b8361112f8685614dcc565b61113a906001614e12565b8151811061114a5761114a614de3565b60209081029190910101526040516356c8c2c160e01b81526001600160a01b038816906356c8c2c190611184908490600190600401614e25565b602060405180830381865afa1580156111a1573d6000803e3d6000fd5b505050506040513d601f19601f820116820180604052508101906111c59190614df9565b836111d08685614dcc565b6111db906002614e12565b815181106111eb576111eb614de3565b60209081029190910101526040516356c8c2c160e01b81526001600160a01b038816906356c8c2c190611225908490600090600401614e25565b602060405180830381865afa158015611242573d6000803e3d6000fd5b505050506040513d601f19601f820116820180604052508101906112669190614df9565b836112718685614dcc565b61127c906003614e12565b8151811061128c5761128c614de3565b6020908102919091010152604051636ce8a44b60e01b81526001600160a01b038281166004830152881690636ce8a44b90602401602060405180830381865afa1580156112dd573d6000803e3d6000fd5b505050506040513d601f19601f820116820180604052508101906113019190614e6c565b61130c57600061130f565b60015b60ff168361131d8685614dcc565b611328906004614e12565b8151811061133857611338614de3565b60209081029190910101526040516348cac27760e01b81526001600160a01b0382811660048301528816906348cac27790602401602060405180830381865afa158015611389573d6000803e3d6000fd5b505050506040513d601f19601f820116820180604052508101906113ad9190614df9565b836113b88685614dcc565b6113c3906005614e12565b815181106113d3576113d3614de3565b602090810291909101015250806113e981614e40565b915050610fd4565b6040516340d3096b60e11b81526001600160a01b0384811660048301526000918291829182918916906381a612d690602401602060405180830381865afa158015611440573d6000803e3d6000fd5b505050506040513d601f19601f820116820180604052508101906114649190614df9565b6040516323b95ceb60e21b81526001600160a01b0389811660048301529192506000918a1690638ee573ac90602401602060405180830381865afa1580156114b0573d6000803e3d6000fd5b505050506040513d601f19601f820116820180604052508101906114d49190614df9565b905060006c0c9f2c9cd04674edea400000006114f08489614dcc565b6114fa9190614e89565b905061150782600a614f8f565b6115136012600a614f8f565b61151d9083614dcc565b6115279190614e89565b6040516342b60b0360e01b81526001600160a01b038b811660048301529192506000918c16906342b60b0390602401602060405180830381865afa158015611573573d6000803e3d6000fd5b505050506040513d601f19601f820116820180604052508101906115979190614e6c565b801561160857506040516342b60b0360e01b81526001600160a01b038a811660048301528c16906342b60b0390602401602060405180830381865afa1580156115e4573d6000803e3d6000fd5b505050506040513d601f19601f820116820180604052508101906116089190614e6c565b9050600081611678578b6001600160a01b031663a22f23926040518163ffffffff1660e01b8152600401602060405180830381865afa15801561164f573d6000803e3d6000fd5b505050506040513d601f19601f820116820180604052508101906116739190614df9565b6116da565b8b6001600160a01b031663df73a2676040518163ffffffff1660e01b8152600401602060405180830381865afa1580156116b6573d6000803e3d6000fd5b505050506040513d601f19601f820116820180604052508101906116da9190614df9565b905060008261174a578c6001600160a01b0316637a210a2b6040518163ffffffff1660e01b8152600401602060405180830381865afa158015611721573d6000803e3d6000fd5b505050506040513d601f19601f820116820180604052508101906117459190614df9565b6117ac565b8c6001600160a01b03166310eb56c26040518163ffffffff1660e01b8152600401602060405180830381865afa158015611788573d6000803e3d6000fd5b505050506040513d601f19601f820116820180604052508101906117ac9190614df9565b905060008d6001600160a01b031663c7e074c38e87868660016040518663ffffffff1660e01b81526004016117e5959493929190614f9b565b602060405180830381865afa158015611802573d6000803e3d6000fd5b505050506040513d601f19601f820116820180604052508101906118269190614df9565b905060008e6001600160a01b031663c7e074c38e88878760006040518663ffffffff1660e01b815260040161185f959493929190614f9b565b602060405180830381865afa15801561187c573d6000803e3d6000fd5b505050506040513d601f19601f820116820180604052508101906118a09190614df9565b905060008183116118b157816118b3565b825b9b509199509750505050505050509450945094915050565b60606000600c905060008690506000816001600160a01b031663741bef1a6040518163ffffffff1660e01b8152600401602060405180830381865afa158015611918573d6000803e3d6000fd5b505050506040513d601f19601f8201168201806040525081019061193c9190614d99565b9050600083865161194d9190614dcc565b6001600160401b038111156119645761196461493c565b60405190808252806020026020018201604052801561198d578160200160208202803683370190505b50905060005b8651811015610ae45760008782815181106119b0576119b0614de3565b6020026020010151905060006001600160a01b0316816001600160a01b0316036119d75750885b6040516352f55eed60e01b81526001600160a01b0382811660048301528616906352f55eed90602401602060405180830381865afa158015611a1d573d6000803e3d6000fd5b505050506040513d601f19601f82011682018060405250810190611a419190614df9565b83611a4c8885614dcc565b81518110611a5c57611a5c614de3565b602090810291909101015260405163c3c7b9e960e01b81526001600160a01b03828116600483015286169063c3c7b9e990602401602060405180830381865afa158015611aad573d6000803e3d6000fd5b505050506040513d601f19601f82011682018060405250810190611ad19190614df9565b83611adc8885614dcc565b611ae7906001614e12565b81518110611af757611af7614de3565b602090810291909101015260405163345a947960e11b81526001600160a01b0382811660048301528616906368b528f290602401602060405180830381865afa158015611b48573d6000803e3d6000fd5b505050506040513d601f19601f82011682018060405250810190611b6c9190614df9565b83611b778885614dcc565b611b82906002614e12565b81518110611b9257611b92614de3565b6020908102919091010152604051632c668ec160e01b81526001600160a01b038281166004830152602482018b9052861690632c668ec190604401602060405180830381865afa158015611bea573d6000803e3d6000fd5b505050506040513d601f19601f82011682018060405250810190611c0e9190614df9565b83611c198885614dcc565b611c24906003614e12565b81518110611c3457611c34614de3565b6020908102919091010152604051632acbceb560e21b81526001600160a01b03828116600483015286169063ab2f3ad490602401602060405180830381865afa158015611c85573d6000803e3d6000fd5b505050506040513d601f19601f82011682018060405250810190611ca99190614df9565b83611cb48885614dcc565b611cbf906004614e12565b81518110611ccf57611ccf614de3565b6020908102919091010152604051634a993ee960e01b81526001600160a01b038281166004830152861690634a993ee990602401602060405180830381865afa158015611d20573d6000803e3d6000fd5b505050506040513d601f19601f82011682018060405250810190611d449190614df9565b83611d4f8885614dcc565b611d5a906005614e12565b81518110611d6a57611d6a614de3565b602090810291909101015260405163c6baf66160e01b81526001600160a01b03828116600483015286169063c6baf66190602401602060405180830381865afa158015611dbb573d6000803e3d6000fd5b505050506040513d601f19601f82011682018060405250810190611ddf9190614df9565b83611dea8885614dcc565b611df5906006614e12565b81518110611e0557611e05614de3565b60209081029190910101526040516340d3096b60e11b81526001600160a01b0382811660048301528616906381a612d690602401602060405180830381865afa158015611e56573d6000803e3d6000fd5b505050506040513d601f19601f82011682018060405250810190611e7a9190614df9565b83611e858885614dcc565b611e90906007614e12565b81518110611ea057611ea0614de3565b6020908102919091010152604051637092736960e11b81526001600160a01b03828116600483015286169063e124e6d290602401602060405180830381865afa158015611ef1573d6000803e3d6000fd5b505050506040513d601f19601f82011682018060405250810190611f159190614df9565b83611f208885614dcc565b611f2b906008614e12565b81518110611f3b57611f3b614de3565b602090810291909101015260405163783a2b6760e11b81526001600160a01b03828116600483015286169063f07456ce90602401602060405180830381865afa158015611f8c573d6000803e3d6000fd5b505050506040513d601f19601f82011682018060405250810190611fb09190614df9565b83611fbb8885614dcc565b611fc6906009614e12565b81518110611fd657611fd6614de3565b60209081029190910101526040516356c8c2c160e01b81526001600160a01b038516906356c8c2c190612010908490600090600401614e25565b602060405180830381865afa15801561202d573d6000803e3d6000fd5b505050506040513d601f19601f820116820180604052508101906120519190614df9565b8361205c8885614dcc565b61206790600a614e12565b8151811061207757612077614de3565b60209081029190910101526040516356c8c2c160e01b81526001600160a01b038516906356c8c2c1906120b1908490600190600401614e25565b602060405180830381865afa1580156120ce573d6000803e3d6000fd5b505050506040513d601f19601f820116820180604052508101906120f29190614df9565b836120fd8885614dcc565b61210890600b614e12565b8151811061211857612118614de3565b6020908102919091010152508061212e81614e40565b915050611993565b6060600082516001600160401b038111156121535761215361493c565b60405190808252806020026020018201604052801561217c578160200160208202803683370190505b50905060005b8351811015610d2257846001600160a01b0316631ce9cb8f8583815181106121ac576121ac614de3565b60200260200101516040518263ffffffff1660e01b81526004016121df91906001600160a01b0391909116815260200190565b602060405180830381865afa1580156121fc573d6000803e3d6000fd5b505050506040513d601f19601f820116820180604052508101906122209190614df9565b82828151811061223257612232614de3565b60209081029190910101528061224781614e40565b915050612182565b60606000600e905060008690506000816001600160a01b031663741bef1a6040518163ffffffff1660e01b8152600401602060405180830381865afa15801561229c573d6000803e3d6000fd5b505050506040513d601f19601f820116820180604052508101906122c09190614d99565b905060008386516122d19190614dcc565b6001600160401b038111156122e8576122e861493c565b604051908082528060200260200182016040528015612311578160200160208202803683370190505b50905060005b8651811015610ae457600087828151811061233457612334614de3565b6020026020010151905060006001600160a01b0316816001600160a01b03160361235b5750885b60008054600160a01b900460ff166123745760006123de565b604051634b4c692d60e11b81526001600160a01b038381166004830152871690639698d25a90602401602060405180830381865afa1580156123ba573d6000803e3d6000fd5b505050506040513d601f19601f820116820180604052508101906123de9190614df9565b6040516352f55eed60e01b81526001600160a01b038481166004830152919250908716906352f55eed90602401602060405180830381865afa158015612428573d6000803e3d6000fd5b505050506040513d601f19601f8201168201806040525081019061244c9190614df9565b846124578986614dcc565b8151811061246757612467614de3565b602090810291909101015260405163c3c7b9e960e01b81526001600160a01b03838116600483015287169063c3c7b9e990602401602060405180830381865afa1580156124b8573d6000803e3d6000fd5b505050506040513d601f19601f820116820180604052508101906124dc9190614df9565b846124e78986614dcc565b6124f2906001614e12565b8151811061250257612502614de3565b602090810291909101015260405163345a947960e11b81526001600160a01b0383811660048301528716906368b528f290602401602060405180830381865afa158015612553573d6000803e3d6000fd5b505050506040513d601f19601f820116820180604052508101906125779190614df9565b846125828986614dcc565b61258d906002614e12565b8151811061259d5761259d614de3565b6020908102919091010152604051632c668ec160e01b81526001600160a01b038381166004830152602482018c9052871690632c668ec190604401602060405180830381865afa1580156125f5573d6000803e3d6000fd5b505050506040513d601f19601f820116820180604052508101906126199190614df9565b846126248986614dcc565b61262f906003614e12565b8151811061263f5761263f614de3565b6020908102919091010152604051632acbceb560e21b81526001600160a01b03838116600483015287169063ab2f3ad490602401602060405180830381865afa158015612690573d6000803e3d6000fd5b505050506040513d601f19601f820116820180604052508101906126b49190614df9565b846126bf8986614dcc565b6126ca906004614e12565b815181106126da576126da614de3565b6020908102919091010152604051634a993ee960e01b81526001600160a01b038381166004830152871690634a993ee990602401602060405180830381865afa15801561272b573d6000803e3d6000fd5b505050506040513d601f19601f8201168201806040525081019061274f9190614df9565b8461275a8986614dcc565b612765906005614e12565b8151811061277557612775614de3565b602090810291909101015260405163c6baf66160e01b81526001600160a01b03838116600483015287169063c6baf66190602401602060405180830381865afa1580156127c6573d6000803e3d6000fd5b505050506040513d601f19601f820116820180604052508101906127ea9190614df9565b846127f58986614dcc565b612800906006614e12565b8151811061281057612810614de3565b602090810291909101015260405163114f1b5560e31b81526001600160a01b038381166004830152871690638a78daa890602401602060405180830381865afa158015612861573d6000803e3d6000fd5b505050506040513d601f19601f820116820180604052508101906128859190614df9565b846128908986614dcc565b61289b906007614e12565b815181106128ab576128ab614de3565b602090810291909101015280846128c28986614dcc565b6128cd906008614e12565b815181106128dd576128dd614de3565b60209081029190910101526040516340d3096b60e11b81526001600160a01b0383811660048301528716906381a612d690602401602060405180830381865afa15801561292e573d6000803e3d6000fd5b505050506040513d601f19601f820116820180604052508101906129529190614df9565b8461295d8986614dcc565b612968906009614e12565b8151811061297857612978614de3565b6020908102919091010152604051637092736960e11b81526001600160a01b03838116600483015287169063e124e6d290602401602060405180830381865afa1580156129c9573d6000803e3d6000fd5b505050506040513d601f19601f820116820180604052508101906129ed9190614df9565b846129f88986614dcc565b612a0390600a614e12565b81518110612a1357612a13614de3565b602090810291909101015260405163783a2b6760e11b81526001600160a01b03838116600483015287169063f07456ce90602401602060405180830381865afa158015612a64573d6000803e3d6000fd5b505050506040513d601f19601f82011682018060405250810190612a889190614df9565b84612a938986614dcc565b612a9e90600b614e12565b81518110612aae57612aae614de3565b60209081029190910101526040516356c8c2c160e01b81526001600160a01b038616906356c8c2c190612ae8908590600090600401614e25565b602060405180830381865afa158015612b05573d6000803e3d6000fd5b505050506040513d601f19601f82011682018060405250810190612b299190614df9565b84612b348986614dcc565b612b3f90600c614e12565b81518110612b4f57612b4f614de3565b60209081029190910101526040516356c8c2c160e01b81526001600160a01b038616906356c8c2c190612b89908590600190600401614e25565b602060405180830381865afa158015612ba6573d6000803e3d6000fd5b505050506040513d601f19601f82011682018060405250810190612bca9190614df9565b84612bd58986614dcc565b612be090600d614e12565b81518110612bf057612bf0614de3565b60200260200101818152505050508080612c0990614e40565b915050612317565b60606000600290506000818451612c289190614dcc565b6001600160401b03811115612c3f57612c3f61493c565b604051908082528060200260200182016040528015612c68578160200160208202803683370190505b50905060005b8451811015610f6e576000858281518110612c8b57612c8b614de3565b602090810291909101015160405163402914f560e01b81526001600160a01b0389811660048301529192509082169063402914f590602401602060405180830381865afa158015612ce0573d6000803e3d6000fd5b505050506040513d601f19601f82011682018060405250810190612d049190614df9565b83612d0f8685614dcc565b81518110612d1f57612d1f614de3565b602002602001018181525050806001600160a01b0316632459f51d6040518163ffffffff1660e01b8152600401602060405180830381865afa158015612d69573d6000803e3d6000fd5b505050506040513d601f19601f82011682018060405250810190612d8d9190614df9565b83612d988685614dcc565b612da3906001614e12565b81518110612db357612db3614de3565b60209081029190910101525080612dc981614e40565b915050612c6e565b60606000600290506000818451612de89190614dcc565b6001600160401b03811115612dff57612dff61493c565b604051908082528060200260200182016040528015612e28578160200160208202803683370190505b5090508560005b855181101561327d576000868281518110612e4c57612e4c614de3565b6020026020010151905060006001600160a01b0316816001600160a01b031603612e735750865b6040516342b60b0360e01b81526001600160a01b038281166004830152600091908516906342b60b0390602401602060405180830381865afa158015612ebd573d6000803e3d6000fd5b505050506040513d601f19601f82011682018060405250810190612ee19190614e6c565b612f4c57836001600160a01b031663c4f718bf6040518163ffffffff1660e01b8152600401602060405180830381865afa158015612f23573d6000803e3d6000fd5b505050506040513d601f19601f82011682018060405250810190612f479190614df9565b612fae565b836001600160a01b031663134ca63b6040518163ffffffff1660e01b8152600401602060405180830381865afa158015612f8a573d6000803e3d6000fd5b505050506040513d601f19601f82011682018060405250810190612fae9190614df9565b60405163c3c7b9e960e01b81526001600160a01b03848116600483015291925060009186169063c3c7b9e990602401602060405180830381865afa158015612ffa573d6000803e3d6000fd5b505050506040513d601f19601f8201168201806040525081019061301e9190614df9565b6040516352f55eed60e01b81526001600160a01b0385811660048301529192506000918716906352f55eed90602401602060405180830381865afa15801561306a573d6000803e3d6000fd5b505050506040513d601f19601f8201168201806040525081019061308e9190614df9565b905080156130d357806130a18385614dcc565b6130ab9190614e89565b876130b68a88614dcc565b815181106130c6576130c6614de3565b6020026020010181815250505b60405163c65bc7b160e01b81526001600160a01b0385811660048301526000919088169063c65bc7b190602401602060405180830381865afa15801561311d573d6000803e3d6000fd5b505050506040513d601f19601f820116820180604052508101906131419190614df9565b11156132665760405163549d656160e11b81526001600160a01b0385811660048301526000919088169063a93acac290602401602060405180830381865afa158015613191573d6000803e3d6000fd5b505050506040513d601f19601f820116820180604052508101906131b59190614df9565b60405163c65bc7b160e01b81526001600160a01b03878116600483015291925060009189169063c65bc7b190602401602060405180830381865afa158015613201573d6000803e3d6000fd5b505050506040513d601f19601f820116820180604052508101906132259190614df9565b90506132318282614e12565b8961323c8c8a614dcc565b613247906001614e12565b8151811061325757613257614de3565b60200260200101818152505050505b50505050808061327590614e40565b915050612e2f565b5090925050505b9392505050565b6000546001600160a01b031633146132e25760405162461bcd60e51b815260206004820152601560248201527423b7bb32b93730b136329d103337b93134b23232b760591b60448201526064015b60405180910390fd5b60008054911515600160a01b0260ff60a01b19909216919091179055565b80516060906002908190600090829061331a908290614e89565b6133249190614dcc565b6001600160401b0381111561333b5761333b61493c565b604051908082528060200260200182016040528015613364578160200160208202803683370190505b50905060005b8386516133779190614e89565b8110156135985760008661338b8684614dcc565b8151811061339b5761339b614de3565b6020026020010151905060008786846133b49190614dcc565b6133bf906001614e12565b815181106133cf576133cf614de3565b602090810291909101015160405163e6a4390560e01b81526001600160a01b03848116600483015280831660248301529192506000918b169063e6a4390590604401602060405180830381865afa15801561342e573d6000803e3d6000fd5b505050506040513d601f19601f820116820180604052508101906134529190614d99565b6040516370a0823160e01b81526001600160a01b038083166004830152919250908416906370a0823190602401602060405180830381865afa15801561349c573d6000803e3d6000fd5b505050506040513d601f19601f820116820180604052508101906134c09190614df9565b856134cb8887614dcc565b815181106134db576134db614de3565b60209081029190910101526040516370a0823160e01b81526001600160a01b0382811660048301528316906370a0823190602401602060405180830381865afa15801561352c573d6000803e3d6000fd5b505050506040513d601f19601f820116820180604052508101906135509190614df9565b8561355b8887614dcc565b613566906001614e12565b8151811061357657613576614de3565b602002602001018181525050505050808061359090614e40565b91505061336a565b5095945050505050565b6000546001600160a01b031633146135f45760405162461bcd60e51b815260206004820152601560248201527423b7bb32b93730b136329d103337b93134b23232b760591b60448201526064016132d9565b6001600160a01b03811661364a5760405162461bcd60e51b815260206004820181905260248201527f476f7665726e61626c653a205f676f76206973207a65726f206164647265737360448201526064016132d9565b600080546001600160a01b0319166001600160a01b0392909216919091179055565b6040516340d3096b60e11b81526001600160a01b03848116600483015260009182918291908816906381a612d690602401602060405180830381865afa1580156136ba573d6000803e3d6000fd5b505050506040513d601f19601f820116820180604052508101906136de9190614df9565b6040516323b95ceb60e21b81526001600160a01b038881166004830152919250600091891690638ee573ac90602401602060405180830381865afa15801561372a573d6000803e3d6000fd5b505050506040513d601f19601f8201168201806040525081019061374e9190614df9565b6040516323b95ceb60e21b81526001600160a01b0388811660048301529192506000918a1690638ee573ac90602401602060405180830381865afa15801561379a573d6000803e3d6000fd5b505050506040513d601f19601f820116820180604052508101906137be9190614df9565b90506000806c0c9f2c9cd04674edea400000006137db868a614dcc565b6137e59190614e89565b90506137f284600a614f8f565b6137fe6012600a614f8f565b6138089083614dcc565b6138129190614e89565b6040516342b60b0360e01b81526001600160a01b038c811660048301529192506000918d16906342b60b0390602401602060405180830381865afa15801561385e573d6000803e3d6000fd5b505050506040513d601f19601f820116820180604052508101906138829190614e6c565b80156138f357506040516342b60b0360e01b81526001600160a01b038b811660048301528d16906342b60b0390602401602060405180830381865afa1580156138cf573d6000803e3d6000fd5b505050506040513d601f19601f820116820180604052508101906138f39190614e6c565b9050600081613963578c6001600160a01b031663a22f23926040518163ffffffff1660e01b8152600401602060405180830381865afa15801561393a573d6000803e3d6000fd5b505050506040513d601f19601f8201168201806040525081019061395e9190614df9565b6139c5565b8c6001600160a01b031663df73a2676040518163ffffffff1660e01b8152600401602060405180830381865afa1580156139a1573d6000803e3d6000fd5b505050506040513d601f19601f820116820180604052508101906139c59190614df9565b9050600082613a35578d6001600160a01b0316637a210a2b6040518163ffffffff1660e01b8152600401602060405180830381865afa158015613a0c573d6000803e3d6000fd5b505050506040513d601f19601f82011682018060405250810190613a309190614df9565b613a97565b8d6001600160a01b03166310eb56c26040518163ffffffff1660e01b8152600401602060405180830381865afa158015613a73573d6000803e3d6000fd5b505050506040513d601f19601f82011682018060405250810190613a979190614df9565b905060008e6001600160a01b031663c7e074c38f87868660016040518663ffffffff1660e01b8152600401613ad0959493929190614f9b565b602060405180830381865afa158015613aed573d6000803e3d6000fd5b505050506040513d601f19601f82011682018060405250810190613b119190614df9565b905060008f6001600160a01b031663c7e074c38f88878760006040518663ffffffff1660e01b8152600401613b4a959493929190614f9b565b602060405180830381865afa158015613b67573d6000803e3d6000fd5b505050506040513d601f19601f82011682018060405250810190613b8b9190614df9565b9050808211613b9a5780613b9c565b815b965050505050505060008a6001600160a01b031663e124e6d28a6040518263ffffffff1660e01b8152600401613be191906001600160a01b0391909116815260200190565b602060405180830381865afa158015613bfe573d6000803e3d6000fd5b505050506040513d601f19601f82011682018060405250810190613c229190614df9565b9050600081613c31878b614dcc565b613c3b9190614e89565b9050613c4885600a614f8f565b613c5385600a614f8f565b613c5d9083614dcc565b613c679190614e89565b90506000612710613c788582614e59565b613c829084614dcc565b613c8c9190614e89565b90506000613c9a8284614e59565b919e919d50909b505050505050505050505050565b6060600082516001600160401b03811115613ccc57613ccc61493c565b604051908082528060200260200182016040528015613cf5578160200160208202803683370190505b50905060005b8351811015610d22576000848281518110613d1857613d18614de3565b6020026020010151905060006001600160a01b0316816001600160a01b031603613d6b57856001600160a01b031631838381518110613d5957613d59614de3565b60200260200101818152505050613df5565b6040516370a0823160e01b81526001600160a01b0387811660048301528216906370a0823190602401602060405180830381865afa158015613db1573d6000803e3d6000fd5b505050506040513d601f19601f82011682018060405250810190613dd59190614df9565b838381518110613de757613de7614de3565b602002602001018181525050505b80613dff81614e40565b915050613cfb565b6060600060098551613e199190614dcc565b6001600160401b03811115613e3057613e3061493c565b604051908082528060200260200182016040528015613e59578160200160208202803683370190505b50905060005b85518110156142d85760008060008060008060008e6001600160a01b0316634a3f088d8f8f8b81518110613e9557613e95614de3565b60200260200101518f8c81518110613eaf57613eaf614de3565b60200260200101518f8d81518110613ec957613ec9614de3565b60209081029190910101516040516001600160e01b031960e087901b1681526001600160a01b039485166004820152928416602484015292166044820152901515606482015260840161010060405180830381865afa158015613f30573d6000803e3d6000fd5b505050506040513d601f19601f82011682018060405250810190613f549190614fcb565b975097509750509650965096509650868960098a613f729190614dcc565b81518110613f8257613f82614de3565b60209081029190910101528589613f9a60098b614dcc565b613fa5906001614e12565b81518110613fb557613fb5614de3565b60209081029190910101528489613fcd60098b614dcc565b613fd8906002614e12565b81518110613fe857613fe8614de3565b6020908102919091010152838961400060098b614dcc565b61400b906003614e12565b8151811061401b5761401b614de3565b60200260200101818152505081614033576000614036565b60015b60ff168961404560098b614dcc565b614050906004614e12565b8151811061406057614060614de3565b6020908102919091010152828961407860098b614dcc565b614083906005614e12565b8151811061409357614093614de3565b602090810291909101015280896140ab60098b614dcc565b6140b6906006614e12565b815181106140c6576140c6614de3565b602002602001018181525050505050505050506000826009836140e99190614dcc565b815181106140f9576140f9614de3565b602002602001015190506000836009846141139190614dcc565b61411e906002614e12565b8151811061412e5761412e614de3565b602002602001015190506000846009856141489190614dcc565b614153906006614e12565b8151811061416357614163614de3565b6020026020010151905060008211156142c2576000808c6001600160a01b0316635c07eaab8b888151811061419a5761419a614de3565b602002602001015187878d8b815181106141b6576141b6614de3565b60209081029190910101516040516001600160e01b031960e087901b1681526001600160a01b03909416600485015260248401929092526044830152151560648201526084810186905260a4016040805180830381865afa15801561421f573d6000803e3d6000fd5b505050506040513d601f19601f820116820180604052508101906142439190615035565b9150915081614253576000614256565b60015b60ff1687614265600989614dcc565b614270906007614e12565b8151811061428057614280614de3565b60209081029190910101528087614298600989614dcc565b6142a3906008614e12565b815181106142b3576142b3614de3565b60200260200101818152505050505b50505080806142d090614e40565b915050613e5f565b509695505050505050565b6040516340d3096b60e11b81526001600160a01b03838116600483015260009182918616906381a612d690602401602060405180830381865afa15801561432e573d6000803e3d6000fd5b505050506040513d601f19601f820116820180604052508101906143529190614df9565b604051637092736960e11b81526001600160a01b03858116600483015291925060009187169063e124e6d290602401602060405180830381865afa15801561439e573d6000803e3d6000fd5b505050506040513d601f19601f820116820180604052508101906143c29190614df9565b6040516323b95ceb60e21b81526001600160a01b038781166004830152919250600091881690638ee573ac90602401602060405180830381865afa15801561440e573d6000803e3d6000fd5b505050506040513d601f19601f820116820180604052508101906144329190614df9565b6040516323b95ceb60e21b81526001600160a01b038781166004830152919250600091891690638ee573ac90602401602060405180830381865afa15801561447e573d6000803e3d6000fd5b505050506040513d601f19601f820116820180604052508101906144a29190614df9565b6040516352f55eed60e01b81526001600160a01b0388811660048301529192506000918291908b16906352f55eed90602401602060405180830381865afa1580156144f1573d6000803e3d6000fd5b505050506040513d601f19601f820116820180604052508101906145159190614df9565b60405163c3c7b9e960e01b81526001600160a01b038a811660048301529192506000918c169063c3c7b9e990602401602060405180830381865afa158015614561573d6000803e3d6000fd5b505050506040513d601f19601f820116820180604052508101906145859190614df9565b604051634a993ee960e01b81526001600160a01b038b811660048301529192506000918d1690634a993ee990602401602060405180830381865afa1580156145d1573d6000803e3d6000fd5b505050506040513d601f19601f820116820180604052508101906145f59190614df9565b905060008183116146065781614608565b825b90508381106146235760009950505050505050505050613284565b600061462f8286614e59565b905061463c87600a614f8f565b61464789600a614f8f565b8b6146528c85614dcc565b61465c9190614e89565b6146669190614dcc565b6146709190614e89565b60405163c6baf66160e01b81526001600160a01b038f8116600483015291975060009650908f16945063c6baf661935060240191506146ac9050565b602060405180830381865afa1580156146c9573d6000803e3d6000fd5b505050506040513d601f19601f820116820180604052508101906146ed9190614df9565b90508015610ae45760405163345a947960e11b81526001600160a01b038a811660048301528b16906368b528f290602401602060405180830381865afa15801561473b573d6000803e3d6000fd5b505050506040513d601f19601f8201168201806040525081019061475f9190614df9565b8110156147755760009650505050505050613284565b60405163345a947960e11b81526001600160a01b038a81166004830152600091908c16906368b528f290602401602060405180830381865afa1580156147bf573d6000803e3d6000fd5b505050506040513d601f19601f820116820180604052508101906147e39190614df9565b6147ed9083614e59565b90506147fb6012600a614f8f565b61480686600a614f8f565b6148109083614dcc565b61481a9190614e89565b9050866148346c0c9f2c9cd04674edea4000000083614dcc565b61483e9190614e89565b90508083111561485657965061328495505050505050565b505098975050505050505050565b600080805b8351811015610d2257600084828151811061488657614886614de3565b60209081029190910101516040516370a0823160e01b81526001600160a01b0380831660048301529192506000918816906370a0823190602401602060405180830381865afa1580156148dd573d6000803e3d6000fd5b505050506040513d601f19601f820116820180604052508101906149019190614df9565b905061490d8185614e12565b93505050808061491c90614e40565b915050614869565b6001600160a01b038116811461493957600080fd5b50565b634e487b7160e01b600052604160045260246000fd5b604051601f8201601f191681016001600160401b038111828210171561497a5761497a61493c565b604052919050565b60006001600160401b0382111561499b5761499b61493c565b5060051b60200190565b600082601f8301126149b657600080fd5b813560206149cb6149c683614982565b614952565b82815260059290921b840181019181810190868411156149ea57600080fd5b8286015b848110156142d8578035614a0181614924565b83529183019183016149ee565b60008060008060808587031215614a2457600080fd5b8435614a2f81614924565b93506020850135614a3f81614924565b92506040850135915060608501356001600160401b03811115614a6157600080fd5b614a6d878288016149a5565b91505092959194509250565b6020808252825182820181905260009190848201906040850190845b81811015614ab157835183529284019291840191600101614a95565b50909695505050505050565b600060208284031215614acf57600080fd5b81356001600160401b03811115614ae557600080fd5b614af1848285016149a5565b949350505050565b60008060408385031215614b0c57600080fd5b8235614b1781614924565b915060208301356001600160401b03811115614b3257600080fd5b614b3e858286016149a5565b9150509250929050565b60008060008060808587031215614b5e57600080fd5b8435614b6981614924565b93506020850135614b7981614924565b92506040850135614b8981614924565b9396929550929360600135925050565b600080600060608486031215614bae57600080fd5b8335614bb981614924565b92506020840135614bc981614924565b915060408401356001600160401b03811115614be457600080fd5b614bf0868287016149a5565b9150509250925092565b801515811461493957600080fd5b600060208284031215614c1a57600080fd5b813561328481614bfa565b600060208284031215614c3757600080fd5b813561328481614924565b600080600080600060a08688031215614c5a57600080fd5b8535614c6581614924565b9450602086810135614c7681614924565b945060408701356001600160401b0380821115614c9257600080fd5b614c9e8a838b016149a5565b95506060890135915080821115614cb457600080fd5b614cc08a838b016149a5565b94506080890135915080821115614cd657600080fd5b508701601f81018913614ce857600080fd5b8035614cf66149c682614982565b81815260059190911b8201830190838101908b831115614d1557600080fd5b928401925b82841015614d3c578335614d2d81614bfa565b82529284019290840190614d1a565b80955050505050509295509295909350565b600080600060608486031215614d6357600080fd5b8335614d6e81614924565b92506020840135614d7e81614924565b91506040840135614d8e81614924565b809150509250925092565b600060208284031215614dab57600080fd5b815161328481614924565b634e487b7160e01b600052601160045260246000fd5b8082028115828204841417610d2657610d26614db6565b634e487b7160e01b600052603260045260246000fd5b600060208284031215614e0b57600080fd5b5051919050565b80820180821115610d2657610d26614db6565b6001600160a01b039290921682521515602082015260400190565b600060018201614e5257614e52614db6565b5060010190565b81810381811115610d2657610d26614db6565b600060208284031215614e7e57600080fd5b815161328481614bfa565b600082614ea657634e487b7160e01b600052601260045260246000fd5b500490565b600181815b80851115614ee6578160001904821115614ecc57614ecc614db6565b80851615614ed957918102915b93841c9390800290614eb0565b509250929050565b600082614efd57506001610d26565b81614f0a57506000610d26565b8160018114614f205760028114614f2a57614f46565b6001915050610d26565b60ff841115614f3b57614f3b614db6565b50506001821b610d26565b5060208310610133831016604e8410600b8410161715614f69575081810a610d26565b614f738383614eab565b8060001904821115614f8757614f87614db6565b029392505050565b60006132848383614eee565b6001600160a01b039590951685526020850193909352604084019190915260608301521515608082015260a00190565b600080600080600080600080610100898b031215614fe857600080fd5b885197506020890151965060408901519550606089015194506080890151935060a0890151925060c089015161501d81614bfa565b8092505060e089015190509295985092959890939650565b6000806040838503121561504857600080fd5b825161505381614bfa565b602093909301519294929350505056fea264697066735822122028afbc27009b13e8891702fa625f18c2743c56ff7ab9dbca2523a72793a91a5a64736f6c63430008120033","linkReferences":{}},"methodIdentifiers":{"BASIS_POINTS_DIVISOR()":"126082cf","POSITION_PROPS_LENGTH()":"ad7e5497","PRICE_PRECISION()":"95082d25","USDP_DECIMALS()":"8baf820d","getAmountOut(address,address,address,uint256)":"d7176ca9","getFeeBasisPoints(address,address,address,uint256)":"440f018c","getFees(address,address[])":"86d4d0f5","getFullVaultTokenInfo(address,address,uint256,address[])":"7b906e93","getFundingRates(address,address,address[])":"95a7535a","getMaxAmountIn(address,address,address)":"f3535e6c","getPairInfo(address,address[])":"a4543ead","getPositions(address,address,address[],address[],bool[])":"dc383cab","getPrices(address,address[])":"3613d527","getStakingInfo(address,address[])":"937a0be8","getTokenBalances(address,address[])":"d802178e","getTokenBalancesWithSupplies(address,address[])":"2e3e3342","getTokenSupply(address,address[])":"2ac0184c","getTotalBalance(address,address[])":"fbdb05ca","getTotalStaked(address[])":"2413c8c1","getVaultTokenInfo(address,address,uint256,address[])":"20542568","getVaultTokenInfoV2(address,address,uint256,address[])":"8e83ca32","gov()":"12d43a51","hasMaxGlobalShortSizes()":"c6f1d676","setConfig(bool)":"9b0183c3","setGov(address)":"cfad57a2"},"id":87}