{"abi":[{"type":"constructor","inputs":[{"name":"_name","type":"string","internalType":"string"},{"name":"_symbol","type":"string","internalType":"string"},{"name":"_stakingToken","type":"address","internalType":"address"}],"stateMutability":"nonpayable"},{"type":"function","name":"addAdmin","inputs":[{"name":"_account","type":"address","internalType":"address"}],"outputs":[],"stateMutability":"nonpayable"},{"type":"function","name":"addNonStakingAccount","inputs":[{"name":"_account","type":"address","internalType":"address"}],"outputs":[],"stateMutability":"nonpayable"},{"type":"function","name":"admins","inputs":[{"name":"","type":"address","internalType":"address"}],"outputs":[{"name":"","type":"bool","internalType":"bool"}],"stateMutability":"view"},{"type":"function","name":"allowance","inputs":[{"name":"_owner","type":"address","internalType":"address"},{"name":"_spender","type":"address","internalType":"address"}],"outputs":[{"name":"","type":"uint256","internalType":"uint256"}],"stateMutability":"view"},{"type":"function","name":"allowances","inputs":[{"name":"","type":"address","internalType":"address"},{"name":"","type":"address","internalType":"address"}],"outputs":[{"name":"","type":"uint256","internalType":"uint256"}],"stateMutability":"view"},{"type":"function","name":"approve","inputs":[{"name":"_spender","type":"address","internalType":"address"},{"name":"_amount","type":"uint256","internalType":"uint256"}],"outputs":[{"name":"","type":"bool","internalType":"bool"}],"stateMutability":"nonpayable"},{"type":"function","name":"balanceOf","inputs":[{"name":"_account","type":"address","internalType":"address"}],"outputs":[{"name":"","type":"uint256","internalType":"uint256"}],"stateMutability":"view"},{"type":"function","name":"balances","inputs":[{"name":"","type":"address","internalType":"address"}],"outputs":[{"name":"","type":"uint256","internalType":"uint256"}],"stateMutability":"view"},{"type":"function","name":"claim","inputs":[{"name":"_receiver","type":"address","internalType":"address"}],"outputs":[],"stateMutability":"nonpayable"},{"type":"function","name":"decimals","inputs":[],"outputs":[{"name":"","type":"uint8","internalType":"uint8"}],"stateMutability":"view"},{"type":"function","name":"gov","inputs":[],"outputs":[{"name":"","type":"address","internalType":"address"}],"stateMutability":"view"},{"type":"function","name":"inWhitelistMode","inputs":[],"outputs":[{"name":"","type":"bool","internalType":"bool"}],"stateMutability":"view"},{"type":"function","name":"name","inputs":[],"outputs":[{"name":"","type":"string","internalType":"string"}],"stateMutability":"view"},{"type":"function","name":"nonStakingAccounts","inputs":[{"name":"","type":"address","internalType":"address"}],"outputs":[{"name":"","type":"bool","internalType":"bool"}],"stateMutability":"view"},{"type":"function","name":"nonStakingSupply","inputs":[],"outputs":[{"name":"","type":"uint256","internalType":"uint256"}],"stateMutability":"view"},{"type":"function","name":"recoverClaim","inputs":[{"name":"_account","type":"address","internalType":"address"},{"name":"_receiver","type":"address","internalType":"address"}],"outputs":[],"stateMutability":"nonpayable"},{"type":"function","name":"removeAdmin","inputs":[{"name":"_account","type":"address","internalType":"address"}],"outputs":[],"stateMutability":"nonpayable"},{"type":"function","name":"removeNonStakingAccount","inputs":[{"name":"_account","type":"address","internalType":"address"}],"outputs":[],"stateMutability":"nonpayable"},{"type":"function","name":"setGov","inputs":[{"name":"_gov","type":"address","internalType":"address"}],"outputs":[],"stateMutability":"nonpayable"},{"type":"function","name":"setInWhitelistMode","inputs":[{"name":"_inWhitelistMode","type":"bool","internalType":"bool"}],"outputs":[],"stateMutability":"nonpayable"},{"type":"function","name":"setInfo","inputs":[{"name":"_name","type":"string","internalType":"string"},{"name":"_symbol","type":"string","internalType":"string"}],"outputs":[],"stateMutability":"nonpayable"},{"type":"function","name":"setWhitelistedHandler","inputs":[{"name":"_handler","type":"address","internalType":"address"},{"name":"_isWhitelisted","type":"bool","internalType":"bool"}],"outputs":[],"stateMutability":"nonpayable"},{"type":"function","name":"setYieldTrackers","inputs":[{"name":"_yieldTrackers","type":"address[]","internalType":"address[]"}],"outputs":[],"stateMutability":"nonpayable"},{"type":"function","name":"stake","inputs":[{"name":"_amount","type":"uint256","internalType":"uint256"}],"outputs":[],"stateMutability":"nonpayable"},{"type":"function","name":"stakedBalance","inputs":[{"name":"_account","type":"address","internalType":"address"}],"outputs":[{"name":"","type":"uint256","internalType":"uint256"}],"stateMutability":"view"},{"type":"function","name":"stakingToken","inputs":[],"outputs":[{"name":"","type":"address","internalType":"address"}],"stateMutability":"view"},{"type":"function","name":"symbol","inputs":[],"outputs":[{"name":"","type":"string","internalType":"string"}],"stateMutability":"view"},{"type":"function","name":"totalStaked","inputs":[],"outputs":[{"name":"","type":"uint256","internalType":"uint256"}],"stateMutability":"view"},{"type":"function","name":"totalSupply","inputs":[],"outputs":[{"name":"","type":"uint256","internalType":"uint256"}],"stateMutability":"view"},{"type":"function","name":"transfer","inputs":[{"name":"_recipient","type":"address","internalType":"address"},{"name":"_amount","type":"uint256","internalType":"uint256"}],"outputs":[{"name":"","type":"bool","internalType":"bool"}],"stateMutability":"nonpayable"},{"type":"function","name":"transferFrom","inputs":[{"name":"_sender","type":"address","internalType":"address"},{"name":"_recipient","type":"address","internalType":"address"},{"name":"_amount","type":"uint256","internalType":"uint256"}],"outputs":[{"name":"","type":"bool","internalType":"bool"}],"stateMutability":"nonpayable"},{"type":"function","name":"unstake","inputs":[{"name":"_amount","type":"uint256","internalType":"uint256"}],"outputs":[],"stateMutability":"nonpayable"},{"type":"function","name":"whitelistedHandlers","inputs":[{"name":"","type":"address","internalType":"address"}],"outputs":[{"name":"","type":"bool","internalType":"bool"}],"stateMutability":"view"},{"type":"function","name":"withdrawToken","inputs":[{"name":"_token","type":"address","internalType":"address"},{"name":"_account","type":"address","internalType":"address"},{"name":"_amount","type":"uint256","internalType":"uint256"}],"outputs":[],"stateMutability":"nonpayable"},{"type":"function","name":"yieldTrackers","inputs":[{"name":"","type":"uint256","internalType":"uint256"}],"outputs":[{"name":"","type":"address","internalType":"address"}],"stateMutability":"view"},{"type":"event","name":"Approval","inputs":[{"name":"owner","type":"address","indexed":true,"internalType":"address"},{"name":"spender","type":"address","indexed":true,"internalType":"address"},{"name":"value","type":"uint256","indexed":false,"internalType":"uint256"}],"anonymous":false},{"type":"event","name":"Transfer","inputs":[{"name":"from","type":"address","indexed":true,"internalType":"address"},{"name":"to","type":"address","indexed":true,"internalType":"address"},{"name":"value","type":"uint256","indexed":false,"internalType":"uint256"}],"anonymous":false},{"type":"error","name":"AddressEmptyCode","inputs":[{"name":"target","type":"address","internalType":"address"}]},{"type":"error","name":"AddressInsufficientBalance","inputs":[{"name":"account","type":"address","internalType":"address"}]},{"type":"error","name":"FailedInnerCall","inputs":[]},{"type":"error","name":"ReentrancyGuardReentrantCall","inputs":[]},{"type":"error","name":"SafeERC20FailedOperation","inputs":[{"name":"token","type":"address","internalType":"address"}]}],"bytecode":{"object":"0x60806040523480156200001157600080fd5b506040516200220e3803806200220e833981016040819052620000349162000365565b828260008062000045848262000481565b50600162000054838262000481565b50600480546001600160a01b031916339081179091556000818152600960205260409020805460ff191660011790556200008f9082620000c0565b50506001600c5550600d80546001600160a01b0319166001600160a01b039290921691909117905550620005b19050565b6001600160a01b038216620001275760405162461bcd60e51b8152602060048201526024808201527f5969656c64546f6b656e3a206d696e7420746f20746865207a65726f206164646044820152637265737360e01b606482015260840160405180910390fd5b6200013282620001f2565b8060025462000142919062000563565b6002556001600160a01b0382166000908152600560205260409020546200016b90829062000563565b6001600160a01b03831660009081526005602090815260408083209390935560089052205460ff1615620001ad5780600354620001a9919062000563565b6003555b6040518181526001600160a01b038316906000907fddf252ad1be2c89b69c2b068fc378daa952ba7f163c4a11628f55a4df523b3ef9060200160405180910390a35050565b60005b6007548110156200029c576000600782815481106200021857620002186200057f565b600091825260209091200154604051635fd6196560e01b81526001600160a01b03858116600483015290911691508190635fd6196590602401600060405180830381600087803b1580156200026c57600080fd5b505af115801562000281573d6000803e3d6000fd5b50505050508080620002939062000595565b915050620001f5565b5050565b634e487b7160e01b600052604160045260246000fd5b600082601f830112620002c857600080fd5b81516001600160401b0380821115620002e557620002e5620002a0565b604051601f8301601f19908116603f01168101908282118183101715620003105762000310620002a0565b816040528381526020925086838588010111156200032d57600080fd5b600091505b8382101562000351578582018301518183018401529082019062000332565b600093810190920192909252949350505050565b6000806000606084860312156200037b57600080fd5b83516001600160401b03808211156200039357600080fd5b620003a187838801620002b6565b94506020860151915080821115620003b857600080fd5b50620003c786828701620002b6565b604086015190935090506001600160a01b0381168114620003e757600080fd5b809150509250925092565b600181811c908216806200040757607f821691505b6020821081036200042857634e487b7160e01b600052602260045260246000fd5b50919050565b601f8211156200047c57600081815260208120601f850160051c81016020861015620004575750805b601f850160051c820191505b81811015620004785782815560010162000463565b5050505b505050565b81516001600160401b038111156200049d576200049d620002a0565b620004b581620004ae8454620003f2565b846200042e565b602080601f831160018114620004ed5760008415620004d45750858301515b600019600386901b1c1916600185901b17855562000478565b600085815260208120601f198616915b828110156200051e57888601518255948401946001909101908401620004fd565b50858210156200053d5787850151600019600388901b60f8161c191681555b5050505050600190811b01905550565b634e487b7160e01b600052601160045260246000fd5b808201808211156200057957620005796200054d565b92915050565b634e487b7160e01b600052603260045260246000fd5b600060018201620005aa57620005aa6200054d565b5060010190565b611c4d80620005c16000396000f3fe608060405234801561001057600080fd5b50600436106102115760003560e01c806355b6ed5c11610125578063996f11ee116100ad578063c93be6361161007c578063c93be636146104df578063cfad57a2146104e8578063d92fc87e146104fb578063dd62ed3e1461050e578063fb30d9161461054757600080fd5b8063996f11ee14610493578063a694fc3a146104a6578063a9059cbb146104b9578063a923fc40146104cc57600080fd5b806370a08231116100f457806370a082311461042457806372f702f31461044d578063817b1cd2146104605780639554381a1461046857806395d89b411461048b57600080fd5b806355b6ed5c146103c057806360217267146103eb57806362289077146103fe578063704802751461041157600080fd5b8063276eab4e116101a8578063313ce56711610177578063313ce5671461033a5780633630005114610354578063429b62e5146103775780634cb5bbe31461039a57806352cd38d9146103ad57600080fd5b8063276eab4e146102e757806327e235e3146102fa578063293d69871461031a5780632e17de781461032757600080fd5b80631785f53c116101e45780631785f53c1461029757806318160ddd146102aa5780631e83409a146102c157806323b872dd146102d457600080fd5b806301e336671461021657806306fdde031461022b578063095ea7b31461024957806312d43a511461026c575b600080fd5b610229610224366004611695565b61055a565b005b6102336105a6565b60405161024091906116f5565b60405180910390f35b61025c610257366004611728565b610634565b6040519015158152602001610240565b60045461027f906001600160a01b031681565b6040516001600160a01b039091168152602001610240565b6102296102a5366004611752565b61064b565b6102b360025481565b604051908152602001610240565b6102296102cf366004611752565b610696565b61025c6102e2366004611695565b610753565b6102296102f53660046117b4565b6107a7565b6102b3610308366004611752565b60056020526000908152604090205481565b600a5461025c9060ff1681565b610229610335366004611861565b6107e4565b610342601281565b60405160ff9091168152602001610240565b61025c610362366004611752565b600b6020526000908152604090205460ff1681565b61025c610385366004611752565b60096020526000908152604090205460ff1681565b6102296103a8366004611888565b61081a565b61027f6103bb366004611861565b610857565b6102b36103ce3660046118a5565b600660209081526000928352604080842090915290825290205481565b6102b36103f9366004611752565b610881565b61022961040c366004611752565b6108c6565b61022961041f366004611752565b6109b4565b6102b3610432366004611752565b6001600160a01b031660009081526005602052604090205490565b600d5461027f906001600160a01b031681565b6102b3610a02565b61025c610476366004611752565b60086020526000908152604090205460ff1681565b610233610a19565b6102296104a13660046118a5565b610a26565b6102296104b4366004611861565b610b10565b61025c6104c7366004611728565b610b3a565b6102296104da366004611948565b610b47565b6102b360035481565b6102296104f6366004611752565b610b8a565b6102296105093660046119ac565b610bd6565b6102b361051c3660046118a5565b6001600160a01b03918216600090815260066020908152604080832093909416825291909152205490565b610229610555366004611752565b610c2b565b6004546001600160a01b0316331461058d5760405162461bcd60e51b8152600401610584906119e3565b60405180910390fd5b6105a16001600160a01b0384168383610d03565b505050565b600080546105b390611a12565b80601f01602080910402602001604051908101604052809291908181526020018280546105df90611a12565b801561062c5780601f106106015761010080835404028352916020019161062c565b820191906000526020600020905b81548152906001019060200180831161060f57829003601f168201915b505050505081565b6000610641338484610d62565b5060015b92915050565b6004546001600160a01b031633146106755760405162461bcd60e51b8152600401610584906119e3565b6001600160a01b03166000908152600960205260409020805460ff19169055565b60005b60075481101561074f576000600782815481106106b8576106b8611a4c565b6000918252602090912001546040516310e059a160e11b81523360048201526001600160a01b038581166024830152909116915081906321c0b342906044016020604051808303816000875af1158015610716573d6000803e3d6000fd5b505050506040513d601f19601f8201168201806040525081019061073a9190611a62565b5050808061074790611a91565b915050610699565b5050565b6001600160a01b03831660009081526006602090815260408083203384529091528120548190610784908490611aaa565b9050610791853383610d62565b61079c858585610e92565b506001949350505050565b6004546001600160a01b031633146107d15760405162461bcd60e51b8152600401610584906119e3565b805161074f9060079060208401906115ff565b6107ec6110ff565b6107f63382611129565b600d5461080d906001600160a01b03163383610d03565b6108176001600c55565b50565b6004546001600160a01b031633146108445760405162461bcd60e51b8152600401610584906119e3565b600a805460ff1916911515919091179055565b6007818154811061086757600080fd5b6000918252602090912001546001600160a01b0316905081565b6001600160a01b03811660009081526008602052604081205460ff16156108aa57506000919050565b506001600160a01b031660009081526005602052604090205490565b3360009081526009602052604090205460ff166108f55760405162461bcd60e51b8152600401610584906119e3565b6001600160a01b03811660009081526008602052604090205460ff161561096a5760405162461bcd60e51b815260206004820152602360248201527f5969656c64546f6b656e3a205f6163636f756e7420616c7265616479206d61726044820152621ad95960ea1b6064820152608401610584565b6109738161125e565b6001600160a01b0381166000908152600860209081526040808320805460ff1916600117905560059091529020546003546109ae9190611abd565b60035550565b6004546001600160a01b031633146109de5760405162461bcd60e51b8152600401610584906119e3565b6001600160a01b03166000908152600960205260409020805460ff19166001179055565b6000600354600254610a149190611aaa565b905090565b600180546105b390611a12565b3360009081526009602052604090205460ff16610a555760405162461bcd60e51b8152600401610584906119e3565b60005b6007548110156105a157600060078281548110610a7757610a77611a4c565b6000918252602090912001546040516310e059a160e11b81526001600160a01b0386811660048301528581166024830152909116915081906321c0b342906044016020604051808303816000875af1158015610ad7573d6000803e3d6000fd5b505050506040513d601f19601f82011682018060405250810190610afb9190611a62565b50508080610b0890611a91565b915050610a58565b610b186110ff565b600d54610b30906001600160a01b03163330846112ff565b61080d338261133e565b6000610641338484610e92565b6004546001600160a01b03163314610b715760405162461bcd60e51b8152600401610584906119e3565b6000610b7d8382611b1e565b5060016105a18282611b1e565b6004546001600160a01b03163314610bb45760405162461bcd60e51b8152600401610584906119e3565b600480546001600160a01b0319166001600160a01b0392909216919091179055565b6004546001600160a01b03163314610c005760405162461bcd60e51b8152600401610584906119e3565b6001600160a01b03919091166000908152600b60205260409020805460ff1916911515919091179055565b3360009081526009602052604090205460ff16610c5a5760405162461bcd60e51b8152600401610584906119e3565b6001600160a01b03811660009081526008602052604090205460ff16610cc25760405162461bcd60e51b815260206004820152601f60248201527f5969656c64546f6b656e3a205f6163636f756e74206e6f74206d61726b6564006044820152606401610584565b610ccb8161125e565b6001600160a01b0381166000908152600860209081526040808320805460ff1916905560059091529020546003546109ae9190611aaa565b6040516001600160a01b038381166024830152604482018390526105a191859182169063a9059cbb906064015b604051602081830303815290604052915060e01b6020820180516001600160e01b03838183161783525050505061145b565b6001600160a01b038316610dca5760405162461bcd60e51b815260206004820152602960248201527f5969656c64546f6b656e3a20617070726f76652066726f6d20746865207a65726044820152686f206164647265737360b81b6064820152608401610584565b6001600160a01b038216610e305760405162461bcd60e51b815260206004820152602760248201527f5969656c64546f6b656e3a20617070726f766520746f20746865207a65726f206044820152666164647265737360c81b6064820152608401610584565b6001600160a01b0383811660008181526006602090815260408083209487168084529482529182902085905590518481527f8c5be1e5ebec7d5bd14f71427d1e84f3dd0314c0f7b2291e5b200ac8c7c3b92591015b60405180910390a3505050565b6001600160a01b038316610efb5760405162461bcd60e51b815260206004820152602a60248201527f5969656c64546f6b656e3a207472616e736665722066726f6d20746865207a65604482015269726f206164647265737360b01b6064820152608401610584565b6001600160a01b038216610f625760405162461bcd60e51b815260206004820152602860248201527f5969656c64546f6b656e3a207472616e7366657220746f20746865207a65726f604482015267206164647265737360c01b6064820152608401610584565b600a5460ff1615610fdb57336000908152600b602052604090205460ff16610fdb5760405162461bcd60e51b815260206004820152602660248201527f5969656c64546f6b656e3a206d73672e73656e646572206e6f742077686974656044820152651b1a5cdd195960d21b6064820152608401610584565b610fe48361125e565b610fed8261125e565b6001600160a01b038316600090815260056020526040902054611011908290611aaa565b6001600160a01b038085166000908152600560205260408082209390935590841681522054611041908290611abd565b6001600160a01b0380841660009081526005602090815260408083209490945591861681526008909152205460ff161561108757806003546110839190611aaa565b6003555b6001600160a01b03821660009081526008602052604090205460ff16156110ba57806003546110b69190611abd565b6003555b816001600160a01b0316836001600160a01b03167fddf252ad1be2c89b69c2b068fc378daa952ba7f163c4a11628f55a4df523b3ef83604051610e8591815260200190565b6002600c540361112257604051633ee5aeb560e01b815260040160405180910390fd5b6002600c55565b6001600160a01b03821661118e5760405162461bcd60e51b815260206004820152602660248201527f5969656c64546f6b656e3a206275726e2066726f6d20746865207a65726f206160448201526564647265737360d01b6064820152608401610584565b6111978261125e565b6001600160a01b0382166000908152600560205260409020546111bb908290611aaa565b6001600160a01b0383166000908152600560205260409020556002546111e2908290611aaa565b6002556001600160a01b03821660009081526008602052604090205460ff161561121857806003546112149190611aaa565b6003555b6040518181526000906001600160a01b038416907fddf252ad1be2c89b69c2b068fc378daa952ba7f163c4a11628f55a4df523b3ef906020015b60405180910390a35050565b60005b60075481101561074f5760006007828154811061128057611280611a4c565b600091825260209091200154604051635fd6196560e01b81526001600160a01b03858116600483015290911691508190635fd6196590602401600060405180830381600087803b1580156112d357600080fd5b505af11580156112e7573d6000803e3d6000fd5b505050505080806112f790611a91565b915050611261565b6040516001600160a01b0384811660248301528381166044830152606482018390526113389186918216906323b872dd90608401610d30565b50505050565b6001600160a01b0382166113a05760405162461bcd60e51b8152602060048201526024808201527f5969656c64546f6b656e3a206d696e7420746f20746865207a65726f206164646044820152637265737360e01b6064820152608401610584565b6113a98261125e565b806002546113b79190611abd565b6002556001600160a01b0382166000908152600560205260409020546113de908290611abd565b6001600160a01b03831660009081526005602090815260408083209390935560089052205460ff161561141d57806003546114199190611abd565b6003555b6040518181526001600160a01b038316906000907fddf252ad1be2c89b69c2b068fc378daa952ba7f163c4a11628f55a4df523b3ef90602001611252565b60006114706001600160a01b038416836114be565b905080516000141580156114955750808060200190518101906114939190611bde565b155b156105a157604051635274afe760e01b81526001600160a01b0384166004820152602401610584565b60606114cf838360006114d66114ef565b9392505050565b604051630a12f52160e11b815260040160405180910390fd5b6060824710156115145760405163cd78605960e01b8152306004820152602401610584565b600080866001600160a01b031685876040516115309190611bfb565b60006040518083038185875af1925050503d806000811461156d576040519150601f19603f3d011682016040523d82523d6000602084013e611572565b606091505b509150915061158387838387611590565b925050505b949350505050565b606083156115de5782516000036115d757846001600160a01b03163b6000036115d757604051639996b31560e01b81526001600160a01b0386166004820152602401610584565b5081611588565b61158883838151156115f35781518083602001fd5b6114d68163ffffffff16565b828054828255906000526020600020908101928215611654579160200282015b8281111561165457825182546001600160a01b0319166001600160a01b0390911617825560209092019160019091019061161f565b50611660929150611664565b5090565b5b808211156116605760008155600101611665565b80356001600160a01b038116811461169057600080fd5b919050565b6000806000606084860312156116aa57600080fd5b6116b384611679565b92506116c160208501611679565b9150604084013590509250925092565b60005b838110156116ec5781810151838201526020016116d4565b50506000910152565b60208152600082518060208401526117148160408501602087016116d1565b601f01601f19169190910160400192915050565b6000806040838503121561173b57600080fd5b61174483611679565b946020939093013593505050565b60006020828403121561176457600080fd5b6114cf82611679565b634e487b7160e01b600052604160045260246000fd5b604051601f8201601f1916810167ffffffffffffffff811182821017156117ac576117ac61176d565b604052919050565b600060208083850312156117c757600080fd5b823567ffffffffffffffff808211156117df57600080fd5b818501915085601f8301126117f357600080fd5b8135818111156118055761180561176d565b8060051b9150611816848301611783565b818152918301840191848101908884111561183057600080fd5b938501935b838510156118555761184685611679565b82529385019390850190611835565b98975050505050505050565b60006020828403121561187357600080fd5b5035919050565b801515811461081757600080fd5b60006020828403121561189a57600080fd5b81356114cf8161187a565b600080604083850312156118b857600080fd5b6118c183611679565b91506118cf60208401611679565b90509250929050565b600082601f8301126118e957600080fd5b813567ffffffffffffffff8111156119035761190361176d565b611916601f8201601f1916602001611783565b81815284602083860101111561192b57600080fd5b816020850160208301376000918101602001919091529392505050565b6000806040838503121561195b57600080fd5b823567ffffffffffffffff8082111561197357600080fd5b61197f868387016118d8565b9350602085013591508082111561199557600080fd5b506119a2858286016118d8565b9150509250929050565b600080604083850312156119bf57600080fd5b6119c883611679565b915060208301356119d88161187a565b809150509250929050565b6020808252601590820152742cb4b2b6322a37b5b2b71d103337b93134b23232b760591b604082015260600190565b600181811c90821680611a2657607f821691505b602082108103611a4657634e487b7160e01b600052602260045260246000fd5b50919050565b634e487b7160e01b600052603260045260246000fd5b600060208284031215611a7457600080fd5b5051919050565b634e487b7160e01b600052601160045260246000fd5b600060018201611aa357611aa3611a7b565b5060010190565b8181038181111561064557610645611a7b565b8082018082111561064557610645611a7b565b601f8211156105a157600081815260208120601f850160051c81016020861015611af75750805b601f850160051c820191505b81811015611b1657828155600101611b03565b505050505050565b815167ffffffffffffffff811115611b3857611b3861176d565b611b4c81611b468454611a12565b84611ad0565b602080601f831160018114611b815760008415611b695750858301515b600019600386901b1c1916600185901b178555611b16565b600085815260208120601f198616915b82811015611bb057888601518255948401946001909101908401611b91565b5085821015611bce5787850151600019600388901b60f8161c191681555b5050505050600190811b01905550565b600060208284031215611bf057600080fd5b81516114cf8161187a565b60008251611c0d8184602087016116d1565b919091019291505056fea264697066735822122079c75256097fa4c6ecf4aa2eec6f4a229aa600d2fb3b5e09bdfe5dac052f6cba64736f6c63430008120033","linkReferences":{}},"methodIdentifiers":{"addAdmin(address)":"70480275","addNonStakingAccount(address)":"62289077","admins(address)":"429b62e5","allowance(address,address)":"dd62ed3e","allowances(address,address)":"55b6ed5c","approve(address,uint256)":"095ea7b3","balanceOf(address)":"70a08231","balances(address)":"27e235e3","claim(address)":"1e83409a","decimals()":"313ce567","gov()":"12d43a51","inWhitelistMode()":"293d6987","name()":"06fdde03","nonStakingAccounts(address)":"9554381a","nonStakingSupply()":"c93be636","recoverClaim(address,address)":"996f11ee","removeAdmin(address)":"1785f53c","removeNonStakingAccount(address)":"fb30d916","setGov(address)":"cfad57a2","setInWhitelistMode(bool)":"4cb5bbe3","setInfo(string,string)":"a923fc40","setWhitelistedHandler(address,bool)":"d92fc87e","setYieldTrackers(address[])":"276eab4e","stake(uint256)":"a694fc3a","stakedBalance(address)":"60217267","stakingToken()":"72f702f3","symbol()":"95d89b41","totalStaked()":"817b1cd2","totalSupply()":"18160ddd","transfer(address,uint256)":"a9059cbb","transferFrom(address,address,uint256)":"23b872dd","unstake(uint256)":"2e17de78","whitelistedHandlers(address)":"36300051","withdrawToken(address,address,uint256)":"01e33667","yieldTrackers(uint256)":"52cd38d9"},"id":127}